:020000022000DC
:1060000000F000206D630200556302005763020038
:10601000596302005B6302005D6302000000000040
:106020000000000000000000000000005F630200AC
:106030006163020000000000636302006563020008
:106040006763020067630200676302006763020020
:106050006763020067630200F9930300676302004D
:106060006763020067630200396B03006763020025
:1060700067630200676302006763020067630200F0
:106080006763020035FA0300CDBB020067630200BC
:1060900099FA0300676302008197030067630200B7
:1060A00067630200676302006763020067630200C0
:1060B0006763020067630200000000000000000048
:1060C00067630200676302006763020067630200A0
:1060D000676302006763020067630200000000005C
:1060E00000000000000000000000000000000000B0
:1060F00000000000000000000000000000000000A0
:10610000000000000000000000000000000000008F
:10611000000000000000000000000000000000007F
:10612000000000000000000000000000000000006F
:10613000000000000000000000000000000000005F
:10614000000000000000000000000000000000004F
:10615000000000000000000000000000000000003F
:10616000000000000000000000000000000000002F
:10617000000000000000000000000000000000001F
:10618000000000000000000000000000000000000F
:1061900000000000000000000000000000000000FF
:1061A00000000000000000000000000000000000EF
:1061B00000000000000000000000000000000000DF
:1061C00000000000000000000000000000000000CF
:1061D00000000000000000000000000000000000BF
:1061E00000000000000000000000000000000000AF
:1061F000000000000000000000000000000000009F
:10620000344935480A1A02D0072291438D46334952
:1062100033480A1A06D00722914381F309880222E3
:1062200082F314882F483049304A00F042F8304851
:106230003049314A00F03DF830483149314A00F0E8
:1062400038F831483149324A00F033F831483249A0
:10625000324A00F02EF832483249334A00F029F829
:1062600032483349334A00F024F833483349002296
:1062700000F02AF832483349002200F025F832486D
:106280003249091A082902DB0022026041601F48D6
:106290001F49884205D00268043003B4904703BC0C
:1062A000F7E700208646EC4600200021284A904768
:1062B000FEE7884207D0521A05D0037801300B70F0
:1062C0000131013AF9D17047884202D002700130A1
:1062D000FAE7704700F0002000E8002000F00020FE
:1062E00000F0002040200400F02D0020682E002047
:1062F000A0630200A06302007406040040200400B2
:10630000F02D0020F02D0020080A0400080A0400E7
:10631000080A0400080A0400080A0400080A040025
:10632000080A0400080A04003F200400B820040002
:10633000682E0020682E0020682E0020205A0020A1
:10634000205A0020205A0020205A0020205E0020E1
:1063500075680200FEE7FEE7FEE7FEE7FEE7FEE700
:10636000FEE7FEE7FEE7FEE700F002B8FFF7FCBF3E
:1063700008484FF00701884385460748804707488B
:10638000016841F470010160BFF34F8FBFF36F8F5D
:10639000FFF736BF00F000207199030088ED00E0A0
:1063A00041DF7047F0B5EBB004464FF0A0434FF427
:1063B0000032C3F808250022C3F80C25826892F940
:1063C0000D300178D07B157C567C977C92F813C0F9
:1063D00092F814E05268CDF818E0CDF814C0049794
:1063E000039602950190009123494AA819F07FFD78
:1063F000224B1B6813F4804F33D0214B1B68032BB7
:106400002FDD94F801E0BEF1800F28BF4FF0800E21
:10641000002310E06268D25C1A490D681009590027
:1064200015F800C009A800F813C002F00F020131EE
:10643000AA5C425401337345ECD309AA002302F845
:106440001E3003F1804303F58833D3F804350292FC
:106450004AAA01920C4A009250220C49042006F0EC
:106460000BFC4FF0A0434FF40032C3F80C25002280
:10647000C3F808256BB0F0BD080A0400102E0020F8
:106480000C2E0020142E0020880A04007F0A04002D
:1064900000B583B00E4B1B6813F4804F03D00D4B37
:1064A0001B68032B09DC0322C8210F2000F03EFBF0
:1064B0000AF088FB03B05DF804FB074BD3F8043502
:1064C000064A009285220649042006F0D5FBEAE739
:1064D000102E00200C2E002000100140900A040015
:1064E0007F0A040008B50378232B00D008BDFFF70E
:1064F000CFFFFBE708B54023024A0021024810F015
:10650000ABF908BD682E0020A82E002000B58DB084
:106510002422002103A819F039FD01238DF80C3045
:1065200007238DF80F3006238DF814301F4B079387
:106530001F4903A80AF0F8FA50B30B2827D11D4BC6
:106540001B6813F4804F03D01B4B1B68032B13DC19
:10655000184B1B6813F4804F1AD0174B1B68032B82
:1065600016DD164BD3F80435154A0092C62215499C
:10657000042006F081FB0BE0104BD3F80435124ADF
:106580000092C5220F49042006F076FBE0E738B9F7
:106590000E4804F033F9FFF7ADFF0DB05DF804FBD2
:1065A0000B4ACB2113F012FBF2E700BFE5640200B7
:1065B000442F0020102E00200C2E0020001001403F
:1065C000FC0A04007F0A0400AC0A0400A563020070
:1065D000500A040000B583B019F062FA00BB00F065
:1065E000E7FA1D4A04214FF4804006F029FB1B4BBB
:1065F0001B6813F4804F03D0194B1B68032B14DC6A
:1066000000F0A8FBFFF782FF144B1B6813F4804FC8
:1066100003D0134B1B68032B12DC03B05DF804FBA3
:10662000104ADB2113F0D2FAD9E70F4BD3F8043527
:106630000E4A0092DF220E49042006F01DFBDFE720
:10664000094BD3F804350B4A0092E522084904208F
:1066500006F012FBE1E700BF15CC0200102E00206F
:106660000C2E0020500A040000100140380B0400DA
:106670007F0A0400640B040010B5044600210F20BB
:1066800000F03EFA04EB840462003221032000F0A3
:106690004DFA10BD08B500F07DFA08BD00B585B013
:1066A00003A80EF0F7FB0D4B1B6813F4804F03D0CB
:1066B0000B4B1B68032B02DC05B05DF804FB094B98
:1066C000D3F80435BDF80C200192074A0092A422A9
:1066D0000649042006F0D0FAEEE700BF102E002095
:1066E0000C2E002000100140800B04007F0A0400E3
:1066F00000B583B0114B1B6813F4804F03D0104BCF
:106700001B68032B0FDCFFF7C9FF00F043FA0021E1
:106710000F2000F0F5F90422C8210F2000F006FA3E
:1067200003B05DF804FB074BD3F80435064A00922A
:10673000A9220649042006F09FFAE4E7102E002063
:106740000C2E002000100140980B04007F0A04006A
:1067500010B509200FF0CCFD0F4C20460FF0FEFEC7
:10676000122120460FF033FFA0B184460B4C0FCC12
:10677000CCF81100CCF81510CCF81920CCF81D304D
:106780002388ACF82130FF238CF80430614602489E
:106790000FF05CFF10BD00BFA82E0020B40B04005A
:1067A00000B58BB0274B1B78CBB9039304930593AB
:1067B0000693079308930993234B0493234B059364
:1067C000234B0793234B0893234B099303A800F013
:1067D000D5F830B1214AF62113F0F8F901E0FFF7BE
:1067E0005DFFFFF7B5FF00F0FFFB00F015FA0AF0C0
:1067F00016F9A0B91A4B1B6813F4804F03D0194B3C
:106800001B68032B11DC00210F2000F079F9022214
:10681000C8210F2000F08AF90BB05DF804FB0F4A85
:106820004FF4827113F0D2F9E4E70F4BD3F804353B
:106830000E4A00924FF483720D49042006F01CFAB0
:10684000E1E700BF442F0020F166020079660200F4
:1068500095660200C80B0400080C0400500A0400EE
:10686000102E00200C2E002000100140E00B040030
:106870007F0A040008B5FFF7ADFEFFF791FFFFF7B1
:106880008FFDFCE703781F2B00D07047014B0122DE
:106890001A70FAE7472F002008B5094B1B7863B937
:1068A0000849094813F04CFE40B90123002207496A
:1068B0004969074813F060FE00E0082008BD00BFEA
:1068C000472F0020642F002080320020482F002016
:1068D0004C31002008B50378023B082B41D8DFE893
:1068E00003F01C051140402E404038001F4B9B68B0
:1068F000002B36D0007A002833D01D4A01211170B8
:1069000098472EE0194BDB685BB3194A127842B303
:10691000174A00211170984723E0164B1B784BB99A
:10692000124B1B691BB1124A002111709847FFF7E7
:10693000B3FF16E00D4B5B689BB1984711E0102246
:106940000A4B99690C4813F0A0FE50B113F030F9CE
:1069500007E08168C0680AF067F818B9054B0122A2
:106960001A7008BD13F024F9F8E700BF482F002083
:10697000452F0020462F00204C31002010B586B056
:1069800084461A4A03AB07CA03C323F8022B120C2E
:106990001A70174CA646BCE80F00AEE80F009CE842
:1069A00007008EE80700A369EBB1124B009303AB1D
:1069B000114A1249124813F081FD034610B11846DE
:1069C00006B010BD0F4815F035FB01460C4813F01A
:1069D000A1FD03460028F2D10B4803F001FFFFF7A9
:1069E0005BFF0346EBE70723E9E700BF180C040051
:1069F000482F0020D5680200642F0020803200203C
:106A00004C310020842F0020F02D00204FF0A043B7
:106A1000D3F80435C34013F0010F0CBF0120002050
:106A20007047000070B505460024264600E001349A
:106A3000032C0AD80123A3402B42F8D0044B185D45
:106A4000FFF7E4FFA0400643F1E7304670BD00BF0A
:106A5000280C040008B511B112F0C7FC08BD12F0F3
:106A6000BDFCFBE770B50546002400E00134032CB3
:106A70000FD80123A3402B42F8D0064B1E5D3046B1
:106A8000FFF7C4FF80F00101C9B23046FFF7E2FF13
:106A9000ECE770BD280C040010B5144B1B684BB11B
:106AA000134B1868FFF7DEFF104B1C68013C1C609D
:106AB00024B110BD002013F07BF8F1E70D4819F068
:106AC00061F800E00134032CF3D80123A340084A05
:106AD00012681342F6D0084B1968E14001F0010139
:106AE000064B185DFFF7B6FFECE700BFC032002091
:106AF000C4320020C8320020E8320020280C0400F4
:106B000070B505460E46002400E00134032C09D878
:106B10000123A3402B42F8D03146034B185DFFF709
:106B200099FFF2E770BD00BF280C040042B310B516
:106B30000C461346132900D810BD124A10605B00A2
:106B4000013B114A1360FFF76DFF104B1860610C99
:106B5000E40314F5FA704FF47A724FF0000341F138
:106B6000000119F04FF801460022094818F0E8FF2B
:106B70000028E1D10121034B1868FFF7C1FFDBE7D3
:106B8000704700BFC4320020C0320020E83200202D
:106B9000C832002008B5044818F0F4FF0021034B68
:106BA0001868FFF7ADFF08BDC8320020C4320020CE
:106BB00010B582B012F0A6FB40B10024ADF804403D
:106BC0008DF8064001238DF8053007E012F052FBE6
:106BD0000028F2D012F0ECFFEFE70134032C09D8C3
:106BE00001A90A4B185D12F097FB0028F5D012F0AE
:106BF000DFFFF2E7064A0121064818F08BFF08B9CB
:106C000002B010BD12F0D4FFFAE700BF280C040058
:106C1000996A0200240C0400002800F082802DE90B
:106C2000F04FD1B004463F4B1B6813F4804F03D0A4
:106C30003D4B1B68032B31DC3A4B1B6813F4804F30
:106C400003D0394B1B68032B2ADC51B0BDE8F08F11
:106C5000E25C36490D68100959002E5C0FA800F857
:106C6000136002F00F020131AA5C425401330F2B72
:106C7000EED90FAA00238DF85C3003F1804303F5B1
:106C80008833D3F804350292294A0192294A0092A6
:106C900042222949042005F0EFFFCDE70023E6E773
:106CA000264BD3F804350D932068020202F47F02CC
:106CB00042EA0062010A01F47F4142EA0108B4F8A5
:106CC00004C04FEA0C2292B2B4F806E04FEA0E215B
:106CD00089B2257A667AA77AE37A94F80C9094F8C8
:106CE0000DA094F80EB0E47B0B94CDF828B0CDF84D
:106CF00024A0CDF82090079306970596049541EAC5
:106D00001E21039142EA1C22029248EA106001907F
:106D10000B4A00920D9B43220749042005F0ACFF6B
:106D200093E77047102E00200C2E0020142E002018
:106D3000640C0400880A0400510C04000010014097
:106D4000780C040060DF704769DF704708B503F016
:106D50004FFD08BD10B588B012F0B8FC00282CD14A
:106D6000224B0793079A06920023039304930593FB
:106D700003A90120FFF7E8FF10BB0023039304934E
:106D80000593F8230393069A03A9A120FFF7DCFFDC
:106D9000C8B906A8FFF7D6FF0446069A079B9A4291
:106DA00008D0134B1B6813F4804F03D0114B1B68A2
:106DB000012B0BDCB4B908B010BD12F0F9FECFE71F
:106DC00012F0F6FED9E712F0F3FEE2E70A4BD3F831
:106DD00004350192094A0092AB220949022005F0CC
:106DE0004BFFE7E7204612F0E3FEE4E7F02D00203A
:106DF000102E00200C2E002000100140F80C040082
:106E0000DD0C04000620704700B587B044F2010392
:106E100098425DD01BD8012836D041F20103984238
:106E200071D1474B1B6813F4804F36D0454B1B681C
:106E3000002B32DD444BD3F8043502920191434AD2
:106E4000009263224249012005F016FF25E044F23A
:106E50000203984257D13A4B1B6813F4804F1CD061
:106E6000384B1B68002B18DD374BD3F804351068FE
:106E70000390526802920191364A00926922344985
:106E8000012005F0F9FE08E02D4B1B6813F4804F3C
:106E900003D02C4B1B68002B0DDC4FF0A0434FF4AC
:106EA000F012C3F81825C3F80C25EFF3108372B65F
:106EB0004DF6AD6C3DE0244BD3F8043502920191C0
:106EC000254A009260222249012005F0D5FEE4E720
:106ED0001B4B1B6813F4804FDFD01A4B1B68002B31
:106EE000DBDD194BD3F8043510680490506803902B
:106EF000029192680192194A00927322144901206A
:106F000005F0BAFEC9E70E4B1B6813F4804FC4D0DE
:106F10000C4B1B68002BC0DD0B4BD3F804350191E3
:106F20000F4A00927B220A49012005F0A5FEB4E732
:106F300030BF0C4B1B78002BFAD107B05DF804FB77
:106F4000102E00200C2E002000100140880D04009F
:106F5000590D0400AC0D04006C0D0400CC0D0400B0
:106F6000F00D0400FC2D002000B583B00146002385
:106F70000093054B01936A4644F20200FFF744FF79
:106F800003B05DF804FB00BFEC0D040010B4034631
:106F9000044C006859689A68DB680FC45DF8044BBC
:106FA000704700BFEC3200200E4B4FF0805202F1D0
:106FB000600103C983E8030003F1080CA43292E8DE
:106FC00003008CE8030093F9062002F00F0242F060
:106FD00040029A7193F9082002F03F0242F08002C9
:106FE0001A727047EC32002000487047EC320020E3
:106FF000002308E0074901EBC30000224280426001
:1070000001F8332001331F2BF4D9034B00221A60FF
:10701000704700BFFC320020FC33002000B58646DC
:10702000114B1B684FF0000C0BE01F230F4A12F8A6
:107030003300B0B102EBC3025288724509D00CF1A3
:10704000010CBCF11F0F0BD85A1E002BEDD01346BC
:10705000ECE7064A02EBC30252688A42EFD100E035
:1070600000205DF804FB00BFFC330020FC32002050
:1070700010B40B4A13680B4C04EBC30CACF80200C1
:10708000CCF80410012104F833100B441360202BBA
:1070900002D05DF8044B7047134600221A60F8E7EF
:1070A000FC330020FC3200200021072918D830B41E
:1070B00002E00131072910D84FEA011C094C34F8CD
:1070C0000CC08445F5D104EB0114A568E4689C422A
:1070D00008BF9542EDD1012000E0002030BC704790
:1070E000002070470034002030B4C3698469C1882F
:1070F0004FEA132C1B06C4F30C028A4218D28A1AD8
:107100002244A2F500529A184CF100010A4C23685F
:107110005D1C256003F00703B0F814C007481C018C
:1071200000EB031320F804C09A60D96030BC7047AC
:107130008A1A2244E7E700BF803400200034002090
:10714000C37D9BB1C3780A7802F080020A7003F015
:107150007F0313430B7002780B7803F07F030B70EF
:1071600043EAC2130B7003789BB97047C3780A785F
:1071700002F0BF020A709B0103F0400313430B703F
:10718000027903F0C0030B7002F03F0213430B704F
:10719000E1E700B58378082B14BF002201224B7869
:1071A00003F07F034B7043EAC2134B70B0F806E064
:1071B000DAB202F080024A70CEF3861C4CEA020278
:1071C0004A708B7803F003038B7043EA8E038B7055
:1071D00090F808E0DAB202F0FC028A70CEF3C10C3B
:1071E0004CEA02028A70CB7803F01F03CB7043EAAB
:1071F0004E13CB70437ACA7802F0E002CA7003F0F3
:107200001F031343CB705DF804FB00000023032B26
:1072100031D810B402E00133032B28D8C3EBC302EA
:10722000164C04EB021292F84820012AF3D1C3EB6A
:10723000C30204EB0212948AC2899442EBD1C3EBDD
:10724000C3020E4C04EB0212D2888A42E3D1C3EB94
:10725000C30204EB0212B2F8582012B1848AA2428F
:10726000D9D1C3EBC303054800EB031000E00020B5
:107270005DF8044B70470020704700BFAC3400201D
:10728000002300E00133032B16D8C3EBC3020B49E4
:1072900001EB021292F84820022AF3D1C3EBC30299
:1072A00001EB0212918A828A9142EBD1C3EBC303B4
:1072B000024800EB0310704700207047AC340020F8
:1072C00008B9042070470820704700B503468C4673
:1072D0000978C17000214162DCF808100B2904D83C
:1072E0009CF80C1029B3012100E001211970002045
:1072F000987031B1DCF808100731C90801395972AA
:1073000018720121D97503F10C0E0CF1100103C99B
:107310008EE80300BCF80E109982DCF81810196290
:107320009CF81C109975DCF82010D9629A625DF8FF
:1073300004FB0021DAE7000000210E4B1B688B42A2
:1073400016D9002300E001330B4A02EBC102526858
:107350009A420BD9084A52F8312002EBC30C12F8BA
:1073600033208242EFD1DCF8040070470131E4E7BA
:1073700000207047843400208834002070B58CB021
:1073800006460D4614462C22002101A818F0FEFDE9
:107390000F238DF80430ADF808609DF80A3065F3CE
:1073A00000038DF80A308DF80B4001A801F014FAA3
:1073B0000CB070BD30B58DB005460C462C220021B6
:1073C00001A818F0E3FD10238DF8043002958DF824
:1073D0000C4001A801F000FA0DB030BD00B58DB031
:1073E00010B913F1020F06D1074B186804F01EFB09
:1073F0000DB05DF804FB01218DF804100293039297
:1074000001A801F0E9F9EFE79034002070B5049C81
:10741000002962D01D468E46D2F800C05168966899
:10742000D368C4F80CC021616661A361D2F810C0B2
:107430005169C4F81CC02162002363700278D2092C
:1074400022705AB30423734549D8E17D41B30378D0
:1074500003F07F03E3700023A3709AB143789B018C
:1074600003F4FE53827843EA9203E3808378DB00DF
:1074700003F01803C27843EA52132372C37803F06F
:107480001F036372002363622B78032B21D82A78B1
:10749000144B53F82230E362002070BD0123D2E781
:1074A0000178C1F38011E170017801F03F01217191
:1074B00042B190F90130002B02DB0423A370CCE72A
:1074C0000823FBE70421A1700B447345C5D90920AB
:1074D000E3E77846FFF748FDD9E70920DDE7092013
:1074E000DBE700BF800F040070B50C461D46037833
:1074F0009BB104263244A26000F10C032360836A2E
:107500006360C36AE36000232374204604F004FE32
:1075100010B963691E442E6070BD0126EAE72DE9AB
:10752000F0418EB00D4616461C46804600282DD0F0
:10753000002D2FD0002C31D0636A0233059304F163
:107540000C00E378002B2DD00121A27801AF3B463F
:10755000082A14BF0022012204F0B5FB0697CDF8DB
:107560001C80B2B2ADF820200B9515440C95A37881
:107570008DF83430237B022B16D00023ADF8283051
:1075800005A804F098FB0EB0BDE8F0817846FFF73F
:10759000EBFCCDE77846FFF7E7FCCBE77846FFF753
:1075A000E3FCC9E70221D0E723692BB123690993E2
:1075B0001023ADF82830E3E77846FFF7D5FCF5E770
:1075C0002DE9F04188B004460D46C37D002B3CD028
:1075D000082605FB06F8637AAB4238D0257201AB6A
:1075E000324602A92046FFF77FFF074648BB4DB948
:1075F00094F8533033B9A369C3F30C03E380012338
:1076000084F85330E37D7BB994F8523063B91DBBE5
:10761000E06EB4F84A10A27823468A1A0146FFF7B2
:107620007EFF012384F8523007992046FFF788FD3A
:10763000E16E32464144019818F07FFC02A804F044
:1076400091FD384608B0BDE8F0810C26C1E7B4F8DA
:107650004A60A6EB0806C1E77846FFF785FCD7E746
:1076600070B505460E4609B100230B6095F85040F1
:10767000002104E0631C85F850300134E4B26B7AD9
:10768000A34210D3EA6C0123A3401A42F5D121464C
:107690002846FFF795FF014628B9002EEAD0336847
:1076A00001333360E6E7084670BDF0B589B00446A3
:1076B0000E46154683789A18C37D63B10B239A4210
:1076C00021D801AB02A92046FFF70EFF074620B1E3
:1076D000384609B0F0BD0F23F1E707992046FFF7C0
:1076E0002FFDE37D43B12A463146019818F025FC71
:1076F00002A804F037FDEBE723462A4601993046FD
:10770000FFF70DFFF4E70927E2E7000010B5044694
:1077100090F84830012B0CD103F06AFB237B012B3E
:107720000BD0094BD968014404F1300003F02CFB65
:1077300010BD7846FFF718FCEEE7A27D024BD96832
:107740001B6903FB0211EEE79434002030B583B0CF
:10775000002403E02846FFF7D9FF0134032C18D892
:10776000C4EBC4030C4A02EB031393F84830012B1B
:10777000F3D100230193C4EBC40502EB051501A965
:107780002846FFF76DFF0428E4D0019B002BE4D0CE
:10779000E0E703B030BD00BFAC34002038B504468C
:1077A00090F84830022B09D1064B1D6803F020FBEE
:1077B000411904F1300003F0E7FA38BD7846FFF7CD
:1077C000D3FBF1E79434002038B5044690F84830F4
:1077D000022B10D10A4B5A7D5D689B6803FB025552
:1077E00003F006FB411904F1500003F0CDFA012328
:1077F00084F8683038BD7846FFF7B6FBEAE700BF8B
:107800009434002010B50446808A02F067FE0128F7
:107810001CD1237BE3B194F91620002A1ADBE27D08
:107820004AB1022B18D094F90330002B16DBA37851
:10783000B3B900200BE0E2780AB9012B12D123780A
:1078400093B9A378042B11D1002000E0102010BDC3
:107850001020FCE70720FAE71020F8E70720F6E7FA
:107860000720F4E70720F2E70020F0E70720EEE723
:1078700038B5044603784BB1C388C2698169808AF0
:1078800006F04AFD054645B9284638BDC2698169FA
:10789000808A06F03BFD0546F5E7E169002201F02C
:1078A0000101A08AFFF76AFDEEE700002DE9F0472D
:1078B00080460E4617464B1EDBB2012B0FD8B7F59C
:1078C000C07F10D80024032C1AD8C4EBC403314A5B
:1078D00002EB031393F848304BB10134F3E77846D9
:1078E000FFF742FBEBE77846FFF73EFBEAE7C4EB26
:1078F000C40502EB0515384609F069F8E86600E0B2
:1079000000255DB3EB6E002B42D043462C4608F1B8
:10791000300ED3F800C058689968DA68C4F800C01F
:107920006060A160E260103310347345F1D1002330
:10793000EB64A5F84A70012E13D06FF00103AB621F
:10794000002385F86830144BAB652D66134BAB6391
:107950002D64012002F048FA85F848602846BDE809
:10796000F0870F4B1B7D85F85130002385F852308E
:1079700085F8533085F85030D8F828206A65A5F886
:1079800058306FF00103AB62064BAB632D64E0E748
:107990001D46E3E7AC340020E7830200F97C0200D7
:1079A00094340020457D020000B585B000228DF89A
:1079B0000F20A0B10B46024602320A600DF10F0102
:1079C000184604F07CF99DF80F3043B10C4B1B684E
:1079D00013F0040F03D00B4B1B68032B04DC9DF842
:1079E0000F0005B05DF804FB074BD3F80435074AD8
:1079F000009240F215420649042005F03DF9EEE7F9
:107A0000102E00200C2E002000100140380E040023
:107A10002B0E04002DE9F04391B005460E461446A6
:107A20001F46D0F8188003784BB1C388C8F30C0206
:107A30009A4230D29B1A4344A3F50053AB6105F13F
:107A40000C00EB7853B30121AA780DF130094B46B5
:107A5000082A14BF0022012204F035F9C5F8188065
:107A6000CDF810900596AB78E21A92B2ADF81820D6
:107A700032440A9209978DF82C300023ADF820305B
:107A8000EB78002B41D02B7B022B09D000236B62BB
:107A90000193029316E09B1A4344CFE70221D3E7F8
:107AA0001023ADF820302B690793EFE710AB03EB01
:107AB000840454F83C3C6B62002011B0BDE8F083B4
:107AC000019BB3B102AB01AA2979286A0EF038FAFA
:107AD0000024012CF4D810AB03EB840353F83C0CC6
:107AE0000028EDD003A9FFF75FFF0028DED10134A5
:107AF000EFE72B7B022B2CD105F10C01E8890EF06E
:107B0000D9FA0028BFD10520D7E72B7B012B01D064
:107B10000520D2E7EB89ADF80430AB8AADF806302A
:107B20000024012C13D82946002341F8243F10AB30
:107B300003EB440333F83C0C0EF027FA03A9686A00
:107B4000FFF732FF08B90134EBE70020B5E7052065
:107B5000B3E70520B1E7000070B5F0B00E4614465B
:107B60001D4610AB0A4601462046FFF753FF50B1B1
:107B7000224B1B6813F0040F03D0214B1B68052B0D
:107B80002FDC70B070BD2046FFF772FE0028F8D1E0
:107B900003AB01228DF80C20A28AADF80E20002242
:107BA00004928DF8142010AA0692A178711AADF8EB
:107BB0001C1008AA93E8030082E803000AAB04F152
:107BC0000C0292E8030083E80300A37D8DF83830AF
:107BD000236A0C93636A0D930F9505A800F0FCFDD2
:107BE000CFE7084BD3F80435074A009240F20372FE
:107BF0000649062005F040F8C3E700BF102E00201C
:107C00000C2E0020001001404C0E04002B0E04002E
:107C100010B50446C06E08F0DEFE04F1300003F03B
:107C20009BF894F84830022B08D07022002120469F
:107C300018F0ACF9002002F0D7F810BD04F15000A4
:107C400003F08AF8F1E710B58CB0044690F848309C
:107C5000012B0FD101238DF80430636D029303F0E3
:107C6000C7F8039001A800F0B7FD2046FFF7D0FF4A
:107C70000CB010BD7846FFF777F9EBE730B585B06B
:107C80000D460446A8B194F84830022B15D0294679
:107C9000606DFFF78FFB2046FFF7BAFF114B1B68A3
:107CA00013F0040F03D0104B1B68032B09DC05B045
:107CB00030BD7846FFF758F9E5E72046FFF714FA9C
:107CC000E5E70A4BD3F8043594F848200295019271
:107CD000074A009240F2F3120649042004F0CCFF58
:107CE000E5E700BF102E00200C2E00200010014000
:107CF000780E04002B0E040008B508460021FFF79B
:107D0000BDFF08BD08B5037B012B02D0FFF79BFF29
:107D100008BD0121FFF7B2FFFAE7000008B590F8AF
:107D2000513053B1013B80F85130002380F850307E
:107D3000034B186803F07AFE08BDFFF7E3FFFBE78B
:107D40009034002010B50C4691F84830012B03D137
:107D50002046FFF7E3FF10BD7846FFF705F9F7E788
:107D600070B5C6B00E46154682782A44C37D2BB145
:107D70004FF48073934278D3002303E04FF4C07331
:107D8000F8E70133032B14D8C3EBC30C394C04EBD5
:107D90000C1C9CF848100129F3D1BCF81440818ACE
:107DA0008C42EED1BCF80E40C1898C42E9D1082545
:107DB00054E00121FFF77AFD0446002857D02A46F7
:107DC0003146C06E18F0B9F80023459345A9204606
:107DD000FFF746FC054608B1042842D1459B8BB904
:107DE000254B1B6813F0040F37D0244B1B68032B63
:107DF00033DDB4F84AC0BCF1800F28BF4FF0800CCF
:107E0000002313E02046FFF781FCE9E7E26ED25C35
:107E10001B490D68100959002E5C04A800F8136076
:107E200002F00F020131AA5C425401336345EDD3E5
:107E300004AA002302F81C3003F1804303F58833C1
:107E4000D3F8043502920F4A01920F4A00924FF480
:107E5000AC620E49042004F00FFF0025284646B00E
:107E600070BD2046FFF7D4FEF8E70925F6E70425A4
:107E7000F4E700BFAC340020102E00200C2E0020B0
:107E8000142E00209C0E0400880A04002B0E04000F
:107E900070B504460D461646FFF7B4FC30B923789A
:107EA0002BB1324629462046FFF75AFF70BD3246B5
:107EB00029462046FFF7F9FBF8E7000038B50446ED
:107EC0000D46CB695B780371CB691B7883F00103A6
:107ED000C370CB6943628B8A0B2B07D8CB7A002BFC
:107EE00035D10B7B012B02D0002300E0012323704E
:107EF000002B31D0287B02282BD0FFF7E1F9A070AE
:107F0000AB8A03440B33174A82FB03235B10013B0C
:107F10006372002323720023E37504F10C0395E8D8
:107F2000030083E80300AB6923622B89A382AB7A49
:107F3000A3752B6AA362DF23E36228460EF0E8F8FC
:107F400020B12B78012B0AD0FF23E36238BD012337
:107F5000CDE7054B987DD0E70423A370DBE7202312
:107F6000F3E700BFABAAAA2A94340020062979D1EE
:107F7000F0B585B0154690F800C04FEA8C1202F4B7
:107F8000FE5241788478C3781B0443EA0463047981
:107F900043EA042344791C434FFA8CF642EA9101E8
:107FA0002846FFF733F90746E0B1002E2FDBC289E0
:107FB000A98A8A422BD02C4B1B6813F0040F30D0B7
:107FC0002A4B1B68012B2CDD294BD3F80435029179
:107FD0000192284A009240F27D622749022004F073
:107FE0004BFE1EE0204B1B6813F0040F19D01F4BF3
:107FF0001B68012B15DD1E4BD3F804351F4A009278
:1080000040F279621C49022004F036FE09E0002E9D
:1080100009DBFD6C2543FD644CB903213846FFF7AD
:108020002DFE05B0F0BDAB8AA7F85830F1E73B78DC
:1080300083B17B7A5A1C01239340013B9D420DD0B2
:10804000002187F850103846FFF70AFB3846FFF743
:108050005DFBE6E77846FEF787FFEAE73846FFF77D
:10806000F2FDDEE7704700BF102E00200C2E00202E
:1080700000100140DC0E04002B0E0400AC0E0400C6
:108080002DE9F0438BB007460E4614461D461046B8
:10809000FFF7EEFB50B994F80380B8F1000F08D158
:1080A0002B46224631463846FFF760FF0BB0BDE84D
:1080B000F0834046FFF740F981460028F6D08DF85E
:1080C0000480236A0793A38AADF8123005AB04F14C
:1080D0000C0292E8030083E80300A37D8DF82030B2
:1080E0000297039623788DF81030E36A09932946A6
:1080F00001A8C847DAE792F801C01CF0010F08D0C8
:1081000010B5D47D14B1FFF7BBFF10BDFFF724FD00
:10811000FBE7704708B501390130FFF7ECFF08BDF8
:1081200010B54FF4E0720021134817F02FFF06F04E
:10813000BFF80024114B1C6080222146104817F024
:1081400025FF104B104A1A60104A5A604CF2503208
:108150009A600F49D9601A6104221A759C75082229
:108160005A750C4803F042FC0B4B18600B4B1C601B
:108170000B4806F09BFB10BDAC340020803400207F
:10818000003400209434002080969800F0490200CA
:1081900020A10700D98302009034002084340020FD
:1081A000DD73020008B506F0A3F808BD98B110B55C
:1081B0008CB00446036983B1C36983B1836983B119
:1081C00001466846FFF77AFEA28A21696846FFF7F2
:1081D0005FFE0CB010BD0E2070470E20F9E70E2098
:1081E000F7E70E20F5E7000058B310B590B00A4647
:1081F000044643683BB383693BB3014604A8FFF7D9
:1082000064F8134B1B6813F0040F03D0114B1B6869
:10821000062B06DCA268616804A8FFF739FE10B0DF
:1082200010BD0D4BD3F804352278A169029101925B
:108230000A4A009240F605020949072004F01CFD95
:10824000E8E70E2070470E20E9E70E20E7E700BFC1
:10825000102E00200C2E002000100140200F0400E2
:108260002B0E0400037B012B01D00020704730B59A
:1082700091B004460D463F4B1B6813F0040F03D02A
:108280003D4B1B68032B5ADC04A800230493059381
:10829000CDF81730B4F806E09DF8101001F0800119
:1082A0008DF81010CEF3861C4CEA01018DF81010E9
:1082B0009DF8112002F003028DF8112042EA8E028F
:1082C0008DF811202A0E8DF812202A0C8DF813201B
:1082D0002A0A8DF814208DF815506278022A0CBFF6
:1082E000012119469DF8102002F07F028DF8102020
:1082F00042EAC1128DF810204FF0060209924FF0A9
:1083000001028DF82C20A28AADF82E200C938DF856
:108310001C300890226A0D928DF82830E36A0F9382
:1083200019D0E389ADF82A30A37DF3B98DF8383040
:108330006FF0010107A8FFF757FF11B030BD0F4BD9
:10834000D3F804350E4A009240F263220D4904200E
:1083500004F092FC98E70DF10E0103A80DF0C6FEA3
:10836000BDF80C30ADF82A30DEE7074B5B7D8DF8A9
:108370003830DDE7102E00200C2E002000100140C8
:108380004C0F04002B0E04009434002090F8483069
:10839000022B00D0704710B5044690F86830022BCD
:1083A00000D010BDC16CFFF75DFF0028F9D100239C
:1083B00084F86830F5E7000010B5002407E0C4EB4E
:1083C000C402130103481844FFF7E0FF0134032CF3
:1083D000F5D910BDAC34002008B5FFF7B7F9FFF7A9
:1083E000EBFF012008BD10B50C4691F84830022B78
:1083F00006D1022384F868302046FFF7C7FF10BD7E
:108400007846FEF7B1FDF4E7F0B583B00446C069E5
:10841000A369E188060A0006C3F30C0291422FD932
:108420008A1A1A44A2F50052851846F100062A4617
:108430003346A08AFEF738FE002840F089802046A7
:10844000FEF71EFF074630B3C269D0F818C0C388D4
:10845000100A1206CCF30C01994214D2591A614445
:10846000A1F50051521840F10003AA4273EB060136
:108470000DD3954276EB030330D3384603B0F0BDFD
:10848000891ACA18D0E75B1A03EB0C01EAE7052149
:108490003846FFF7F3FBE388E269A169A08A06F09A
:1084A0000DF8E8B9627A0132E37DA3B3082101FB3C
:1084B00002F293B34FF48073934231D302212046EA
:1084C000FFF7F4F907460028D7D100212046FFF72F
:1084D000C9FE02210020FEF76DFFCEE70027CCE7A2
:1084E000E388E269A169A08A06F060F808B900276C
:1084F000C3E723785BB1637A0133012199400139E5
:108500002046FFF7AFFE2046FFF7B2F9EFE77846C7
:10851000FEF72AFDEFE70C21C9E74FF4C073CBE764
:108520000C4B1B6813F0040F03D00B4B1B68002B84
:1085300001DC0027A1E7094BD3F804350192084A72
:10854000009240F27F320749012004F095FBF0E7EA
:10855000002792E7102E00200C2E00200010014072
:108560005C0F04002B0E04002DE9F04182B0074699
:108570000E46144698461046FFF746FF002846D0A0
:108580000546404B1B6813F0040F03D03E4B1B689D
:10859000032B3FDC2846FFF701F92B7B012B47D04B
:1085A000EB6C217A01228A40134230D11343EB64F1
:1085B000043E237AE27D002A42D04FF0080C0CFBE7
:1085C00003FC697A8B423ED0002A41D00823B34293
:1085D00040D1AA69A3699A4209D205F10C0E0C3464
:1085E0000FCCAEE80F0094E803008EE80300E86EBD
:1085F0003246391D604417F0A0FCEC6C2B7873B345
:108600006B7A5A1C01239340013B9C422BD002B051
:10861000BDE8F0811D4BD3F80435227A01921C4A43
:10862000009240F2A3321B49042004F025FBB1E77D
:1086300095F86830002BB3D12846FFF7C5F8AFE7AF
:108640004FF00C0CBBE70CEB0603A5F84A30C0E773
:108650000C23BCE704212846FFF710FBD7E7784638
:10866000FEF782FCCCE7E96C2846FFF7FBFD4346AA
:108670002A46B5F84A10E86EFFF73DFD2846FFF799
:10868000C7FAC4E7102E00200C2E00200010014075
:10869000700F04002B0E04002DE9F04190B000286B
:1086A0004CD00F4614461E468046002A48D004ABE4
:1086B00000933346FEF7AAFE054618B1284610B0CF
:1086C000BDE8F08104A8FFF79DF805460028F5D124
:1086D00000230293039302A960880DF0EBFC28B1FC
:1086E0009DF8113043F001038DF811302269E168E3
:1086F000208905F09BFE38B19DF8113003F0FE0390
:108700008DF81130002BD9D09DF81130002BD5D029
:1087100013F0010F01D0039B08939DF8103033B183
:10872000334604AA39464046FFF71EFFC6E73346E4
:1087300004AA39464046FFF7EDFCBFE70E25BDE72A
:108740000E25BBE7F8B508B30E460546164B1F6865
:10875000F7B93C46B4420FD205EBC4035B68D3B112
:1087600015F8340015F93430002B16DBB8B1FEF7DC
:10877000E3FDB0B90134EDE70C4B43F8375003EBA0
:10878000C7035E607B1C084A136002E00E2700E00E
:1087900004273846F8BD0E27FBE70B27F9E70F271C
:1087A000F7E70F27F5E700BF843400208834002066
:1087B000084B196861B110B501E021463CB10C6865
:1087C0000B79002BF9D0034804F0C1F9F5E710BD8F
:1087D000704700BF7036002038B5054630B1104BE9
:1087E0001C68C4B10F4B01221A7004E07846FEF7F2
:1087F000BBFBF4E724683CB12379002BFAD154F891
:10880000043C28469847F5E7064B1B78022B03D01B
:10881000044B00221A7038BDFFF7CAFFF8E700BF0B
:10882000703600206C36002010B5044630B10023AD
:108830002372211D034804F05FF910BD7846FEF74E
:1088400093FBF4E77036002010B5044658B10A4B8C
:108850001B78013BDBB2012B09D8074B02221A70AF
:108860000123237210BD7846FEF77EFBEFE7211D42
:10887000024804F06CF9F5E76C36002070360020F1
:108880000A8883689B5A07339BB223F0030313447F
:108890009BB20288043A934200D900230B807047B0
:1088A00010B582B004468368C91AADF806100DF100
:1088B0000601FFF7E5FFBDF80630A068184402B0D6
:1088C00010BD0088043880B2704743888268D01891
:1088D000D1520123837070478268002393704380D4
:1088E0008380704708B5073189B221F0030189B24E
:1088F000428883889A4204D29B1A994220DC002045
:1089000008BD9A4212D9B0F800C0ACEB020C614528
:1089100018D98B4218D3BCF1030F03D983681344D1
:1089200004229A70002343801846E9E782681344C2
:108930009B780BB10420E3E7FFF7CEFF0020DFE7D1
:108940000420DDE70020DBE70420D9E738B5044642
:108950000D468368828813448B4202D07846FEF726
:1089600003FB0023AB70211D2046FFF789FFA2887F
:10897000A36813449B78042B00D038BD0023A38048
:10898000FBE710B50C468368428813448B4202D043
:108990007846FEF7E9FA0023A37010BD70B50546CE
:1089A00014460E46002944D0002D46D0B6F1005F93
:1089B00008D94FF08053D3F80C3103F50023B6EB00
:1089C000832F0ED3B6F5000F08D94FF08053D3F89C
:1089D0000C3103F50053B6EB832F02D37846FEF734
:1089E000C3FA631E3344B3F1005F08D94FF08052DD
:1089F000D2F80C2102F50022B3EB822F0ED3B3F58F
:108A0000000F08D94FF08052D2F80C2102F5005225
:108A1000B3EB822F02D37846FEF7A6FA042C10D9C6
:108A20002C8000236B80AB80AE60043C3480B3703C
:108A300070BD7846FEF798FAB6E77846FEF794FAE6
:108A4000B4E77846FEF790FAEAE738B50446A0B1F5
:108A50006288A36813449B78012B12D0EFF3108532
:108A600072B6A388A16819448B78032B0DD02046D9
:108A7000FFF732FF05B962B638BD7846FEF774FAE3
:108A8000E6E77846FEF770FAE8E72046FFF708FFCA
:108A9000A368C31A638000238370EBE72DE9F041DC
:108AA0000E4614460546D0B1EEB16A88AB68134451
:108AB0009B78012B1BD024B32846FFF702FFA0426E
:108AC00021D3EFF3108872B621462846FFF70AFF3C
:108AD000074680B1B8F1000F16D162B614E07846AF
:108AE000FEF742FAE0E77846FEF73EFADDE7784621
:108AF000FEF73AFADFE721462846FFF7E6FE306048
:108B0000E8E7092700E009273846BDE8F081F8B515
:108B10000C4615460646E0B1FCB1A378012B20D1E6
:108B20002388AB4221D325B3EFF3108772B625809B
:108B30000223A370F1183046FFF7A2FE7388B288B3
:108B4000934203D0B268134400229A7007B962B608
:108B5000F8BD7846FEF708FADEE77846FEF704FA35
:108B6000DBE77846FEF700FADAE77846FEF7FCF92D
:108B7000D9E77846FEF7F8F9D6E770B50C46054612
:108B800090B1ACB1EFF3108672B6AA88AB6813440B
:108B90009A78042A10D09A78022A15D0032A18D07D
:108BA000052006B962B670BD7846FEF7DDF9E8E744
:108BB0007846FEF7D9F9E5E7291D2846FFF760FE5C
:108BC000AA88AB681344E6E703229A70236000206A
:108BD000E7E77846FEF7C8F90020E2E738B5044633
:108BE00080B1EFF3108572B6A088A16801448B783C
:108BF000042B0BD08878022814BF0020012005B96F
:108C000062B638BD7846FEF7AFF9EAE72046FFF7CF
:108C100047FE0146EEE738B5054630B1EFF3108464
:108C200072B6A888A968014407E07846FEF79CF967
:108C3000F4E72846FFF734FE01468878C31EDBB20E
:108C4000012BF6D9022814BF0020012004B962B616
:108C500038BD70B50C46064678B194B1EFF3108577
:108C600072B6A378012B10D0032B13D121463046C6
:108C7000FFF76CFE05B962B670BD7846FEF774F971
:108C8000EBE77846FEF770F9E8E721463046FFF754
:108C900078FEEFE77846FEF767F9EBE710B5EFF3FC
:108CA000108472B68388816819448B78042B06D0AF
:108CB0008878B0FA80F0400904B962B610BDFFF7B9
:108CC000EFFD0146F4E70000024B00221A769A609D
:108CD000022070477436002008B5064B98680022C1
:108CE0001A605A609A60DA601A615A619A6104F0F7
:108CF0008BFF08BD7436002000B585B00A4BDB68D9
:108D000002228DF8002001934FF480530293074A0A
:108D10006946012001F0F8FA18B9012005B05DF8A4
:108D200004FB0020FAE700BF7436002092360020D2
:108D300000B585B00A4B1B6802228DF80020019314
:108D40004FF480530293074A6946012001F0DCFA90
:108D500018B9012005B05DF804FB0020FAE700BF58
:108D60009436002092360020164BDA681379517938
:108D70005B1A03F57F2303F6FF7302EB03339A427A
:108D800005D002F580520F4BDA600320704700B522
:108D900085B00D4B1B6801208DF8000001930B4B33
:108DA0000393042302930A4A694601F0ADFA18B10D
:108DB000002005B05DF804FB024B01221A76022068
:108DC000F7E700BF74360020943600209836002064
:108DD0009236002000B585B00C4BDA680C4B1B684E
:108DE000043301208DF800000192039340F6FC73D8
:108DF0000293084A694601F087FA28B90120034B1B
:108E0000187605B05DF804FB0020FAE77436002000
:108E1000943600209236002000B585B00A4B1B68BE
:108E200001208DF800000193084B03930423029363
:108E3000074A694601F068FA18B9012005B05DF8E3
:108E400004FB0020FAE700BF9436002080360020A3
:108E50009236002010B584B0104BDA681478104BAD
:108E60001B68043301208DF80000019303920294E3
:108E70000C4A694601F048FA70B9094B1B6804F0C6
:108E8000FC041C440434054B5C61D9680A780A442C
:108E90001A61012004B010BD0020FBE774360020E9
:108EA000943600209236002008B500230A2B09D8FA
:108EB000064A52F82320824201D00133F6E7044AE1
:108EC000536002E07846FEF74FF808BDFC0F04003F
:108ED0007436002010B5214BDB6853B11F4B1B7E4D
:108EE0005BB91E4B5B680A2B26D97846FEF73CF827
:108EF00022E07846FEF738F8F0E77846FEF734F8D7
:108F0000EFE7164A5368013353600A2B21D978469C
:108F1000FEF72AF81DE0114B00225A6019E00F4BB2
:108F20001B7E1BB10D4B02221A7012E0FFF7D4FE1C
:108F30000FE00A4B1B7E83B9084B5A68084B53F865
:108F40002230984704460228E9D00328E3D00128BC
:108F5000D7D0012CEDD0032CEBD010BD74360020FF
:108F6000FC0F0400104B1B681B685A1E12F1030F04
:108F700018D8C3F30B020AB10020704710B50B4A92
:108F8000D36000231376537601241470936008484D
:108F9000FFF78AFF0749204601F0A4F9FFF79AFF7F
:108FA000204610BD00207047943600207436002003
:108FB000F98C0200B98F020008B50B78032B06D09C
:108FC0000B4B1B78012B06D0022B0BD008BD084B96
:108FD00000221A76F4E7064B1B7E002BF6D1FFF732
:108FE00079FFF3E70B78032BF0D1FFF775FEEDE780
:108FF0007436002000B585B0174BDB6818784FF643
:10900000FF7203F58051184405F006FCE0B10246FA
:10901000114BD9680B780B44984217D00E4B5B7EEE
:1090200083B10E4B01208DF80000019203930423BD
:1090300002930B4A694601F067F948B90120064BD3
:10904000187606E0074BEDE7012002E0012000E082
:10905000002005B05DF804FB7436002018120400EF
:10906000923600201412040008B5104BDB68187803
:10907000002203F58051184405F0CEFB08B1012011
:1090800008BD0A4BDA68137951795B1A03F57F231F
:1090900003F6FF7302EB03339A4205D002F58052C8
:1090A000024BDA600320EBE70220E9E77436002088
:1090B000F0B585B0514BDE6872793379591E8A421A
:1090C00014D006F580510D780D444D490968081DEE
:1090D0000F7907449B1A06EB03366B88013B9BB262
:1090E00047F6FE62934260D92C461AE00120434BBA
:1090F00058767EE07846FDF737FF15E024F47F646C
:1091000024F00F0404F5805423781C44A6421CD993
:10911000A5421CD26388013B9BB247F6FE62934294
:1091200011D92388002BE5D0238804EB830323F493
:109130007F6222F00F029342E0D06288B2F5FE4FC8
:10914000DCD01C46E2E725462FE000252DE0002577
:109150002BE07846FDF708FF15E024F47F6424F047
:109160000F0404F5805423781C44A6421CD9A54260
:1091700037D26388013B9BB247F6FE62934211D916
:109180002388002BE5D0238804EB830323F47F623C
:1091900022F00F029342E0D06288B2F5FE4FDCD09D
:1091A0001C46E2E7254600E00025E5B1144B1968AE
:1091B0006A8801F58051384605F02EFB074690B1CC
:1091C00001200E4B18768DF8000001950D4B03938E
:1091D000042302930C4A694601F096F858B92C46CC
:1091E000CEE70025E1E7B5FA85F56D09034B5D761D
:1091F000012005B0F0BD0020FBE700BF7436002061
:109200009436002010120400923600202DE9F0411F
:1092100086B0654B1B6923B1634B5B692BB100279B
:1092200048E07846FDF7A0FEF6E77846FDF79CFE9D
:10923000F5E7A04618E07846FDF796FE18E028F41A
:109240007F6828F00F0808F5805898F80030984497
:10925000454520D944454AD2B8F80230013B9BB27B
:1092600047F6FE62934214D9B8F80030002BE2D0E2
:10927000B8F8003008EB830323F47F6222F00F027A
:109280009342DCD0B8F80220B2F5FE4FD7D0984612
:10929000DEE7444600E000243CBB00230093019B32
:1092A000002B5CD10127002C78D0628847F6FF7331
:1092B0009A4273D0002F75D13B4B5A6922F47F66D6
:1092C00026F00F06B61A06F580561C69DD682B7964
:1092D0006A799B1A05EB0335002301936388013BF0
:1092E0009BB247F6FE629342A3D800940EE000249E
:1092F000D2E77846FDF738FE23E024F47F6424F0BB
:109300000F0404F58054237823441C46A542C6D993
:109310002388019A02EB83029642C0D9009B6340E6
:1093200023F47F6323F00F03002BB8D16388013B44
:109330009BB247F6FE618B42B1D801922388002B85
:10934000D7D0238804EB830323F47F6222F00F023B
:109350009342D2D06288B2F5FE4FD6D1CDE7124A01
:10936000526901208DF808000392009A0592049337
:109370000E4A02A900F0C8FF70B90B49019B23F007
:1093800003024B6913444B6114B1074B1C618AE71C
:109390007846FDF7E9FDF8E7002000E0012006B07F
:1093A000BDE8F0810120FAE77436002092360020F3
:1093B00000B585B00023294A1370D3F8F83FB3F104
:1093C000FF3F09D0B3F1FF3F0DD08BB1B3F1FF3FA9
:1093D00039D0A3F5805211E04FF010225269B2F15A
:1093E000FF3FEFD104E04FF010225269002AEDD187
:1093F0004FF080535A691B6903FB02F2A2F58052B9
:10940000174B1A60174B1B6813F4801F16D0164BAE
:109410001B68062B12DD154BD3F804350021D1F85B
:10942000F81FB1F1FF3F14D002920191104A00924F
:1094300040F276220F49072003F01EFCFFF792FD51
:1094400005B05DF804FB4FF010235A69A2F5805275
:10945000D4E74FF010214969E6E700BF90360020BD
:1094600094360020102E00200C2E00200010014009
:10947000C80F0400AF0F040010B50446B0B1104B84
:109480001B78BBB10E4BD968E3685879A3EB003267
:10949000914211D31A79121A02F57F2202F6FF7255
:1094A00003EB0233994209D8012004E07846FDF726
:1094B0005BFDE4E7002010BD0020FCE70020FAE798
:1094C00074360020024B1878003818BF012070470E
:1094D0007436002010B50446124B1B78BBB92378B4
:1094E000032B18D10F4B9C60E268DA600E4B1B789F
:1094F000ABB10A220B4B5A6000221A760120187079
:109500005A760A4900F0EEFEFFF7E4FC10BD7846FB
:10951000FDF72AFDE3E77846FDF726FDE2E70022A6
:10952000E8E700BF7436002090360020B98F0200B3
:10953000014B1868704700BF9436002010B50446F0
:1095400080B163681BB123680BB1A36813B9784677
:10955000FDF70AFDA3685A1E134207D10023E360FA
:10956000236110BD7846FDF7FFFCEAE77846FDF77A
:10957000FBFCF3E770B508B30E4604468368FBB105
:10958000EFF3108572B60369C268934212D0016886
:109590004268806800F1FF3C03EA0C0303FB021100
:1095A00016B1304616F0C9FC2369013323614DB969
:1095B00062B608E005B962B6052504E00E2502E0B2
:1095C000092500E00025284670BD00000246C0F3D2
:1095D0000B0030BB39B301F6FF714FEA113C134B5E
:1095E0000221C3F80415114BD3F80034002BFAD034
:1095F00001460AE00D4BC3F808250C4BD3F80034A4
:10960000002BFAD002F5805201316145F2D3074BAD
:109610000022C3F80425054BD3F80034002BFAD000
:109620007047102070470920704700BF00E00140DC
:10963000844610F0030F2DD111F0030F2CD16AB323
:1096400012F0030F2CD19008164B0122C3F8042509
:10965000144BD3F80034002BFAD003E00CF1040CC7
:1096600004311046421E58B10B68B3F1FF3FF5D0EC
:10967000CCF800300B4BD3F80034002BFAD0EDE7D8
:10968000084B0022C3F80425064BD3F80034002B06
:10969000FAD070471020704710207047092070479B
:1096A0000920704700E00140094B1B7813F0040FBC
:1096B00002D00378122B00D07047064B1A68064B75
:1096C0005A60034B1A786FF382021A70F4E700BFF6
:1096D0004037002030370020CC36002010B582B053
:1096E00001900C46BDF80630012B11D123680A49C0
:1096F0000B600A4B1A7842F001021A70D3B25B0871
:1097000083F0010303F001030B71002002B010BDD0
:109710007846FDF729FCE9E7303700204037002084
:1097200010B582B001900C46BDF80630022B0FD167
:109730002268094B1A6022791A71002058719871B9
:10974000D871064A137843F00203137002B010BDBB
:109750007846FDF709FCEBE728370020403700206A
:1097600010B582B001900C46BDF80630032B06D12F
:10977000054B186820601B79237102B010BD784634
:10978000FDF7F2FBF4E700BF3037002010B582B0E0
:1097900001900C46BDF80630032B0CD1084B206815
:1097A000186022791A71074A137843F00103137085
:1097B000002002B010BD7846FDF7D6FBEEE700BFF3
:1097C000303700204037002010B582B001900C46A1
:1097D000BDF80630042B05D1044B03CB206061603B
:1097E00002B010BD7846FDF7BFFBF5E72837002033
:1097F00010B582B001900C46BDF80630042B0BD199
:10980000074B2068616803C3064A137843F00203DC
:109810001370002002B010BD7846FDF7A5FBEFE7FE
:10982000283700204037002000B583B00190BDF8F4
:109830000630032B06D1054B00221A601A7103B0C3
:109840005DF804FB7846FDF78FFBF4E73037002026
:1098500000B583B00190BDF80630042B06D1054B4E
:1098600000221A605A6003B05DF804FB7846FDF7E9
:109870007BFBF4E72837002000B585B01A4B1B7836
:1098800013F0400F13D0184B1B7813F0040F0BD1BB
:10989000002301938DF80830144B5B6803F50053E7
:1098A0000193B3F1807F06D905B05DF804FB7846DB
:1098B000FDF75AFBE7E70E4B1B788DF808300A4A94
:1098C000137843F0040313700023ADF80C30032326
:1098D000ADF80E3001A9039806F036F90028E3D060
:1098E0007846FDF741FBDFE740370020CC3600200B
:1098F0004137002000B585B00022019202920F4B43
:10990000996801911B7B8DF808300D490B78013364
:10991000DBB20B708DF80B30ADF80C200423ADF8E2
:109920000E300DEB0301039806F00EF910B905B0E7
:109930005DF804FB7846FDF717FBF8E7CC3600200E
:109940004137002000B585B00023019302930F4AF0
:1099500091680191117B8DF80810128AADF80920E9
:109960000B4A12788DF80B20ADF80C300423ADF8BB
:109970000E300DEB0301039806F0E6F810B905B0C0
:109980005DF804FB7846FDF7EFFAF8E7CC360020E7
:109990004137002000B58DB00B4B1B7B012B0ED047
:1099A000094A926804928DF80830039002238DF8DA
:1099B000043001A8FEF710FF0DB05DF804FB024A69
:1099C0009268013A0492EEE7CC36002008B51D48B3
:1099D0001D4B036000F004FF1C4B1B7813F0200F9D
:1099E0002AD103F00303032B14D1194B1968194A28
:1099F000916019791173B3F805001082DB79164A6A
:109A00001370164A1279934217D0B1B9114B002244
:109A10001A6007E00F4B00221A609A601A731A82CC
:109A2000FFF768FF0B4B1A685A60084A137843F037
:109A300040031370FFF720FF08BD084B1A68054B61
:109A40001A60EFE71C370020A9960200403700207B
:109A500028370020CC360020413700203037002046
:109A600010B582B00024ADF800400123ADF80230FB
:109A7000009806F09AF8ADF804400223ADF80630DD
:109A8000019806F092F802B010BD000008B5002061
:109A900006F0B2F8094A0023136053609360D36064
:109AA0001361074A117863F345111170CBB243F08B
:109AB00040031370FFF7E0FE08BD00BFCC36002066
:109AC0004037002038B50C4D00242C606C60AC6031
:109AD000EC602C6101F08CF9084B5860084A9A60E0
:109AE000084ADA601C615C61074B1A7864F3C302B0
:109AF0001A706C6038BD00BFCC360020A83600203C
:109B0000659C0200008793034037002008B50C4B8A
:109B10001B7813F0100F00D008BD0A480A4B0360F1
:109B200000F05EFEFFF752FFFFF79AFF074801F0D3
:109B3000E3F8034A137843F010031370ECE700BF17
:109B400040370020C0360020BD9D0200A83600200E
:109B5000034B1878800880F0010000F00100704786
:109B60004037002010B501F0C3FE174B1B7B1BBB19
:109B7000154B9B7B2BBB144B1A8A41F282639A4292
:109B800006D8124B1B7813F0080F05D0012300E014
:109B900001231BB9082410E00023FAE70A4B012235
:109BA0001A7300241C829A6801329A60FFF7A2FEA1
:109BB0002046FFF7EFFE00E0082401F0DFFE20461C
:109BC00010BD0824F9E700BFCC3600204037002044
:109BD00010B501F08DFE214B5B7BABB11F4B9B7B26
:109BE00003BB1E4B1A8A41F282639A4206D81C4B71
:109BF0001B7813F0080F05D0012300E001239BB16F
:109C0000012302E00023FAE700231C460BB3134BA9
:109C100000225A731B7B4BB1012B0ED07846FDF707
:109C2000A3F916E00023F0E70023EEE7FFF79AFF21
:109C300078B17846FDF798F90BE0084B00201860E2
:109C4000586018731882FFF7A5FEFFF753FEFFF761
:109C500013FE01F093FE204610BD00BFCC3600205D
:109C60004037002008B52C4B1B7BDBB1012B2ED0DD
:109C70007846FDF779F9284A138A01339BB213829B
:109C8000264AA2FB03121209C2EB0212A3EB420303
:109C90009BB2002B3DD0204B5B8A13B1013B1E4A87
:109CA000538208BD1C4B1A8A41F282639A4206D83D
:109CB0001B4B1B7813F0080F07D0012300E0012392
:109CC000002BD8D0FFF784FFE5E70023F8E7124B1D
:109CD0001B8A41F28262934206D8114A127812F02E
:109CE000080F14D0012200E00122002AC3D042F262
:109CF000B012934202D9084B01225A73FFF768FF52
:109D00000028C8D1044B5B7B012BB4D1C3E70022F0
:109D1000EBE7FFF717FEBEE7CC360020898888887E
:109D20004037002010B5244B1B7B002B35D1044657
:109D3000214B5B8A2BBB1AB91F4B9B688B4205D307
:109D4000FAB11D4B9B6801338B421AD21A4B9B68A8
:109D50002A338B4223D3184B9B7B03BB164B996052
:109D600000221A605A601A8242F6065159825A73CA
:109D70001A73FFF7BFFDFFF77FFD2046FFF70AFECE
:109D80000DE062B10C4B9B6801338B4207D10A4B4B
:109D900001225A73FFF71CFF01E0012B00D010BD18
:109DA000002AFCD1044B9B688B42F8D1024B012264
:109DB0005A73FFF70DFFF2E7CC3600200378042B2F
:109DC00000D0704743681B78002BFAD010B5846828
:109DD000027E437E012A14BF00220122416904F160
:109DE0001000FFF79FFF10BD08B538B10D4B0122E1
:109DF0009A730D4A13680133136008BD0A4B1B6840
:109E00005BB1094A1368013B1360002BF5D1054B88
:109E100000229A73FFF7DCFEEFE77846FDF7A4F81F
:109E2000EFE700BFCC3600209C36002000B58DB097
:109E3000ADF808008DF81020039103238DF804304D
:109E400001A8FEF7C9FC0DB05DF804FB014B986852
:109E5000704700BFCC360020054B1B7B012B02D086
:109E6000034B98687047024B98680138704700BFF1
:109E7000CC3600201D4B1B7813F0400F34D070B54A
:109E800004460D461A4B1A685B689A4228D2184B52
:109E90001B7B012B17D0174B9A4216D2144B1A6812
:109EA0005B68403B9A4218D2EFF3108672B6104AB4
:109EB0001368591C11602B60FFF7CEFF206006B9B4
:109EC00062B6002070BD0C4BE6E7094B01225A73C5
:109ED000FFF77EFE0028E7D1E0E7FFF7CDFCE3E7E0
:109EE000FFF7CAFC0F20EDE70F2070474037002036
:109EF000CC360020FFFF7F0000E0FF00044B9B6892
:109F0000584010F0010F00D0013B1846704700BFC9
:109F1000CC360020014B187B704700BFCC360020A8
:109F2000F8B5104B1B7813F0200F01D00820F8BDB6
:109F300017460C4E43F0200333700B4DA860297375
:109F400000242C82FFF7D6FC2046FFF723FD2F606C
:109F50006F60337843F040033370FFF78DFC204689
:109F6000E5E700BF40370020CC36002008B50022CE
:109F7000FFF7D6FF08BD00002DE9F041002625E0DF
:109F8000134604FB03F3244AD25A3046C047224901
:109F9000BC2304FB03F3CA5A0132CA5202212846E9
:109FA00002F0AAFC01370221284602F075FC0146A6
:109FB00049B1194BBC2202FB0433D3F80880B8F135
:109FC000000FDDD1E3E797B90136F6B2022E1FD8B4
:109FD0003446BC2306FB03F308330F4D1D44043500
:109FE0000221284602F058FC01460027E0E72846F7
:109FF00002F0EAFC0828E7D1074BBC2202FB04343C
:10A00000A368002BE0D00022044930469847DBE7E4
:10A010000120BDE8F08100BF4C370020381004005B
:10A0200008B5082383731023437300F11C034361B5
:10A030000323037300F1180303610C3002F096FC54
:10A0400008BD000008B50378012B06D0022B07D00D
:10A050007846FCF789FF002003E04FF4A97000E088
:10A06000004808BD645E010008B50378012B07D0E5
:10A07000022B13D07846FCF777FF4FF4FA7308E011
:10A0800083685B1A9B084FF4A97000FB03F303F588
:10A09000FA730748984228BF184608BD83685B1AC0
:10A0A0001B0B044800FB03F303F5FA73F1E700BF51
:10A0B00060850100645E010038B5044601210C3062
:10A0C00002F0EAFB054678B1084BC4F89C30002347
:10A0D000C4F8A0306168FFF7C7FFC4F8A800C4F84F
:10A0E000AC40012384F8B830284638BD0DA20200E8
:10A0F00010B50446FFF7E0FF20B104F19C000CF01E
:10A10000A5FD00B910BD7846FCF72EFFFAE7000068
:10A11000F8B505460C46164617680378012B19D189
:10A120001249A1FB0431C9098B00AC68E41BB4EBF4
:10A13000810F00D31C468CB1686827F00307E968DB
:10A14000224639443844FFF773FA58B93368234438
:10A150003360F8BD7846FCF707FFE1E77846FCF787
:10A1600003FFE9E77846FCF7FFFEEFE7EB5DF260FF
:10A17000F8B506460C46154617680378022B17D12A
:10A18000114BA3FB04231B0C1A03B468E41BB4EBB0
:10A19000033F00D314467CB1706827F003072146C3
:10A1A0003844FFF713FA58B92B6823442B60F8BDE5
:10A1B0007846FCF7D9FEE3E77846FCF7D5FEEBE7F7
:10A1C0007846FCF7D1FEEFE7B77609BB38B5054610
:10A1D0000C4611462378012B06D0022B0FD078466F
:10A1E000FCF7C2FE002004E0021D2046FFF790FFAE
:10A1F000A0686B68834214BF0020012038BD021D97
:10A200002046FFF7B5FFA068F3E700002DE9F8430B
:10A210000F46D1F8A850254B1B786BB90446A5F51D
:10A22000FA7501F10C080121404602F035FB0646A3
:10A2300048B14FF0000922E00CF044FD002387F8FC
:10A24000B830BDE8F8837846FCF78EFEF1E70CF0F5
:10A2500039FD0121404602F04FFB00237B6087F867
:10A26000B830134B186801F0E1FB3846FFF740FFA8
:10A27000E7E73046FFF7E6FE4844A8420FD8A5EBD3
:10A28000090231463846FFF7A1FF0028DFD101F06F
:10A29000F7F9B0EB0409ECD5A4EB0009E9E70CF001
:10A2A00011FD3846FFF724FFCBE700BF48370020F9
:10A2B0004437002010B5084801F098FB074B1860A0
:10A2C000002406E0064BBC2000FB0430FFF7A8FE8C
:10A2D0000134022CF6D910BD799F020044370020CA
:10A2E0004C37002038B504460D46022805D80548ED
:10A2F000BC2303FB0404A56038BD7846FCF734FE9C
:10A30000F5E700BF4C3700202DE9F84305460C4621
:10A310001746022816D8CCB12378012B1AD0022B6D
:10A320003ED16368C3F30B03002B31D1A368C3F3A1
:10A330000B03002B30D1A368002B34D17846FCF7F7
:10A3400013FE30E07846FCF70FFEE4E77846FCF7B2
:10A350000BFEE1E7636813F0030F0DD1E36813F020
:10A36000030F0DD1A36813F0030F0DD1A368D3B968
:10A370007846FCF7F9FD16E07846FCF7F5FDEDE7C9
:10A380007846FCF7F1FDEDE77846FCF7EDFDEDE7EB
:10A390007846FCF7E9FDC9E77846FCF7E5FDCAE732
:10A3A0007846FCF7E1FDEFF3108872B6BC2605FB9A
:10A3B00006F606F108032A4E1E44043600213046F4
:10A3C00002F06AFA814678B30021304602F094FA2E
:10A3D00020686168A268E368C9F80000C9F8041041
:10A3E000C9F80820C9F80C302FB11D4BBC2202FB64
:10A3F00005335B883B801A4BBC2202FB05335A882D
:10A4000001325A8093F8B83083B9164B1B7813B1D8
:10A410000024A1460CE0124BBC2000FB0530FFF7E6
:10A420004BFE8146002403E0042401E00024A14601
:10A43000B8F1000F00D162B6B9F1000F09D0BC200D
:10A4400005FB00F09830064D284404300CF0FEFB6C
:10A4500010B92046BDE8F8837846FCF785FDF8E79B
:10A460004C3700204837002038B50446EFF31085FC
:10A4700072B610B9164B1B6873B18CB1144A1368CD
:10A4800001331360124B1B68003B18BF0123114AB4
:10A49000137005B962B638BD7846FCF765FDECE788
:10A4A0000B4B1C68013C1C600CB1EBE70134022C27
:10A4B000E8D8094BBC2202FB043393F8B830002BD8
:10A4C000F4D1054B02FB0430FFF712FEEEE700BFAC
:10A4D00080390020483700204C37002018B1830B0A
:10A4E000024AD05C70470020704700BF481004004B
:10A4F00012DF704700B583B001F0E4FE40B10C4BB1
:10A500001B6813F0400F03D00A4B1B68012B02DCC1
:10A5100003B05DF804FB084BD3F804350190074AFB
:10A52000009275220649022002F0A6FBF0E700BF68
:10A53000102E00200C2E0020001001407810040086
:10A540006B10040000B58DB0114B1B78022B06D0A8
:10A550007846FCF709FD01200DB05DF804FBFFF71C
:10A56000F7FA18B90B48FEF75FF9F4E70DF0E8F8D1
:10A57000074B03221A702C22002101A815F006FDBA
:10A580001D238DF8043001A8FEF726F9E3E700BF8C
:10A5900088390020002E002008B50378122B00D047
:10A5A00008BD0448FEF750F9034B186801F03EFA65
:10A5B000F6E700BF002E00208439002010B58AB0D5
:10A5C0000DF002F970B3044600238DF810300DF140
:10A5D000140C8646BEE80F00ACE80F00DEF8003031
:10A5E000CCF80030627D052A04D9237D03F00F03E7
:10A5F000072B1ED1164B1A688AB104AB0393237D37
:10A60000C3F303038DF80430637D062B1BD9063B8F
:10A610008DF8053004F11D03029301A890472046F0
:10A620000DF0B0F80DF0ECF880F00100C0B20AB007
:10A6300010BD207D04AB063A04F11D0100F00F00AF
:10A640000BF0D8FDD6E700238DF805300293E4E740
:10A650008C39002070B582B0314B1B78002B54D15F
:10A660000446002855D0067A0F2E01D0062E52D16E
:10A6700006F0ACF9E06870B1FCF788FC0DF107005A
:10A68000FFF736FF0546002840D19DF80730012B23
:10A6900004D002253AE0FCF787FCEFE7FCF7A8FCC2
:10A6A00000F012FB304601F0C1F8E07800F02CF920
:10A6B00000F0BEFE0CF06EFA1A480DF03DF90BF0FA
:10A6C00045FF0BF079FDFFF7F5FD05F001FA00F00D
:10A6D0000BFD06F03BF905F0D7FE204601F006FD24
:10A6E000FDF71EFD04F03CFCFCF78CFB08B10628CE
:10A6F00013D10D4801F07AF90C4B18600C4B002275
:10A700001A60074B01221A7000E00825284602B0A3
:10A7100070BD0E25FAE70725F8E70546F6E700BF06
:10A7200088390020BDA5020045A50200843900201B
:10A730008C39002010B582B0204B1B78012B0DD036
:10A740005AB2002A35D0043BDBB2012B33D80CF0CF
:10A750006DFA044628B3204602B010BD01F0D6FCC5
:10A76000FDF720FDFCF74EFB0446B8B1062815D0D6
:10A77000134B1B6813F4804FEDD0124B1B68012B59
:10A78000E9DD114BD3F804350190104A00924FF4E3
:10A79000C2720F49022002F06FFADCE701F07CF888
:10A7A000D5E7064B02221A700A4B186801F03EF9F1
:10A7B000D1E70824CFE70824CDE700BF883900207F
:10A7C000102E00200C2E002000100140A4100400C8
:10A7D0006B1004008439002008B5FDF7E7FC08BDC4
:10A7E00008B5FEF721F808BD08B5FEF72DF808BD3D
:10A7F00008B500F0E3FD002008BD0000014B186023
:10A80000704700BF8C39002070470000074A13686A
:10A8100001331360B3F1704F02D0044B18687047D6
:10A82000134600221A6001221A60F6E790390020D0
:10A8300010B5044618B100232360636010BD78464C
:10A84000FCF792FBF7E738B50C46054668B184B1D2
:10A8500000236360EFF3108372B62A686AB16A68F6
:10A8600054606C6003B962B638BD7846FCF77CFB77
:10A87000EDE77846FCF778FBEAE72C60F1E710B5E6
:10A88000044658B1EFF3108372B6206808B14268ED
:10A890002260226832B103B962B610BD7846FCF777
:10A8A00063FBEFE76260F6E710B5044608B1206885
:10A8B00010BD7846FCF758FBF9E735DF70473CDF01
:10A8C00070473DDF7047000010B504464FF0FF3081
:10A8D000FFF7F3FFFF210020FFF7F3FF21460020E1
:10A8E000FFF7EDFFBFF34F8F0549CA6802F4E0623E
:10A8F000044B1343CB60BFF34F8F00BFFDE700BF96
:10A9000000ED00E00400FA05072814D8DFE800F0A5
:10A91000080C1504110F0A066420704714207047B4
:10A92000FA2070471E2070474FF4FA7070473220AB
:10A9300070474B207047FA20704796207047000000
:10A94000024B5868103840B2704700BF00ED00E07D
:10A95000034600280FDB5B11084A52F823304242BD
:10A9600000F01F0002F01F0258BF504223FA00F00F
:10A9700000F00100704700F11F03ECE700E100E088
:10A9800046DF704738B504460D464B1EDBB2012B3F
:10A990000AD8002323616361A361E3612046FFF7C6
:10A9A000EFFF4FF0010C1AE07846FCF7DDFAF0E714
:10A9B000CA5CC8185200D2B2CA54407842EAD012D7
:10A9C000CA5401339BB20E2BF2D9CB7B5B00CB7305
:10A9D000BEF1000F0ADB0CF1010C5FFA8CFCAC45F8
:10A9E0000BD8214611F920EF0023ECE794F82F3023
:10A9F00083F0870384F82F30EDE738BD2DE9F0416F
:10AA000090B084460C4696461F4602F10F084FEA66
:10AA1000281604AD0068DCF80410DCF80820DCF827
:10AA20000C300FC50EF00F055FEA181302D07DB190
:10AA3000002300E00023984663B1012104A8FFF73A
:10AA4000A1FFB8F1000F1BD0701E000110230FE012
:10AA50000123F0E70221F1E7013B9BB22218D25C0F
:10AA600003F14001694411F8101C4A400DF803201D
:10AA7000002BF1D100250C950D950E950F9535E025
:10AA8000711EADB22A4604EB0111684615F055FA65
:10AA900080230DF805306B1C03E000220DF8032025
:10AAA00001330F2BF9DD10230BE0013B9BB21DF8A6
:10AAB000032003F14001694411F8101C4A400DF8CD
:10AAC0000320002BF1D1D5E7013A92B202F1400305
:10AAD0006B4413F8100C63189B5C584008AB9854F7
:10AAE000002AF1D104A8FFF74BFF0135731EAB42DA
:10AAF00002DD29011022F3E710230CE0013B9BB299
:10AB000003F140020DEB020111F8402C11F8101C6A
:10AB10004A4008A9CA54002BF0D104A8FFF730FF1F
:10AB20000CAC0FCC38607960BA60FB6010B0BDE847
:10AB3000F081000010B50446134B1B6893B14168C7
:10AB4000114B1B685B68CB1A002B0BDB0E4B1B6891
:10AB500018465B691BB15A68521A002AF8DB636118
:10AB6000446103E0084B1A6862611C60064A9388DE
:10AB70009BB201339BB2938013B10123237010BDAC
:10AB80007846FCF7F1F9F8E79C39002038B505461E
:10AB900019E06369214A13600023636193889BB2C3
:10ABA000591E89B291800BB3A3681BB30223237093
:10ABB000A36821692846984700F01AF905462378CA
:10ABC000DBB2022B1AD0154B1B6833B3134B1B6837
:10ABD0005B685B1B642B20D5104B1C682378DBB2B1
:10ABE000012BD6D07846FCF7BFF9D2E77846FCF7C0
:10ABF000BBF9D9E77846FCF7B7F9D7E7E26812B9AD
:10AC000000232370DFE76368134463605B1B642BDE
:10AC1000F9D42046FFF78EFFD5E738BD9C390020D8
:10AC200010B50446144B1B68834207D0124B1B68B7
:10AC3000D3B15A69A2420ED01346F9E743690E4ACE
:10AC4000136093889BB2591E89B2918063B978468C
:10AC5000FCF78AF908E062695A6107498B889BB260
:10AC60005A1E92B28A8013B10023237010BD784619
:10AC7000FCF77AF9F8E700BF9C39002008B5064BCD
:10AC80001B6833B1044B1B680449586800F05CF939
:10AC900008BD00F0B7F9FBE79C390020B9AC020011
:10ACA00008B500F0A5F8FFF771FF00F0A1F8FFF775
:10ACB000E5FF012008BD000008B5024B186800F050
:10ACC000B5FE08BD9439002008B50023064A13706C
:10ACD000064A13605360064800F088FE054B186072
:10ACE00000F078F808BD00BF983900209C3900209A
:10ACF000A1AC02009439002010B50446154B1B7816
:10AD00009BB900F067FFA0B1BCB1A368CBB12378B9
:10AD1000DBB2012B19D0002363612046FFF70AFF45
:10AD200000F066F8FFF7AAFF10BD7846FCF71CF9A3
:10AD3000E7E77846FCF718F9E6E77846FCF714F9F8
:10AD4000E3E77846FCF710F9E1E77846FCF70CF901
:10AD5000E1E700BF9839002010B5044600F03AFF43
:10AD600050B16CB12046FFF75BFF0023636100F038
:10AD70003FF8FFF783FF10BD7846FCF7F5F8F0E7E2
:10AD80007846FCF7F1F8EDE738B504460D46104B70
:10AD90001B788BB900F01EFF90B1ACB12046FFF7D5
:10ADA0003FFF0023636165602046FFF7C3FE00F0AC
:10ADB0001FF8FFF763FF38BD7846FCF7D5F8E9E7E1
:10ADC0007846FCF7D1F8E8E77846FCF7CDF8E5E7F8
:10ADD0009839002008B514F0EBFE00B108BD14F05E
:10ADE0005FFE0028FAD07846FCF7BEF8F6E70000D0
:10ADF000EFF3108172B6194B1B68194AD2F804059B
:10AE0000D2F80421012A24D001B962B640EA0363D2
:10AE10004FEAD36C5901C91A6CF1000C4FEA4C226D
:10AE200042EAD1524802C11842F1000C4FEA8C129A
:10AE300042EA91628801401A62EB0C02C01842F1AA
:10AE4000000210F5804042F10002C00B40EA42408F
:10AE50007047034AD2F804050133D5E7A43900202E
:10AE60000010014010B50A4B4FF40032C3F84823DC
:10AE7000C3F80823074B1B682BB1064B1C68FFF770
:10AE8000B7FFA04710BD7846FCF76EF8F5E700BFA6
:10AE900000100140B0390020EFF3108172B6254B4D
:10AEA0000022C3F80421244A13680133136001B956
:10AEB00062B6224B1B68002B3AD0204B1A68013A2D
:10AEC0001A601B68002B33D103F1804303F58833EC
:10AED000D3F804251A4B1B689A421BD2EFF3108259
:10AEE00072B6144BD3F80435981C1549096888428A
:10AEF0000DD303330F49C1F8443502B962B60D4B87
:10AF00004FF40032C3F84423C3F8042370470C4BBA
:10AF10001B68EFE710B50B4B1B682BB1094B1C6886
:10AF2000FFF766FFA04710BD7846FCF71DF8F5E770
:10AF3000704700BF00100140A4390020A83900204C
:10AF4000AC390020B039002030B583B0044600236E
:10AF500001930D46002936D0244B1D60FFF748FFB2
:10AF6000031B002B33DB0020410CC003204BC01817
:10AF7000204A4FF0000341F1000114F043FEEFF3CB
:10AF80001083019372B61C4BD3F80435032838BFE5
:10AF90000320C3F1FF1202F57F42824219D303441A
:10AFA000154AC2F844354FF40033C2F84433C2F8AE
:10AFB00004330023114A1360114A1360019B03B943
:10AFC00062B603B030BD7846FBF7CEFFC4E7201A67
:10AFD000CAE7034403F17F4301331A0E01320749E4
:10AFE0000A6023F07F43064A1360E7E7B039002088
:10AFF00020A1070040420F0000100140A8390020A6
:10B00000AC390020074B4FF40032C3F84823C3F893
:10B0100008230023044A1360044A1360044A13609F
:10B02000704700BF00100140A8390020AC39002053
:10B03000B039002030DF704731DF704710B403466D
:10B0400002684068A2EB70129C6880EAF4301860D5
:10B05000D9680C445C60114499601044D8605DF874
:10B06000044B704770B582B00D46064608B1002407
:10B070000BE07846FBF778FFF9E79DF807103019E9
:10B08000FFF7DAFF9DF807301C44A5420DD90DF1FA
:10B090000700FFF7CFFF9DF80730002BF7D02A1BE2
:10B0A0009342EAD98DF80720E7E702B070BD0000AF
:10B0B00030B583B005460024019404210DEB010056
:10B0C000FFF7D0FF074B2B60019B6B60AB60EB6021
:10B0D00003E02846FFF7B2FF0134132CF9D903B07F
:10B0E00030BD00BFED5EEAF1704708B5032004F003
:10B0F00083FD08BD48DF704749DF70474ADF70476E
:10B10000044B01225A7143F2B0629A6043F69822CE
:10B11000DA607047103A0020094B03221A74094A7A
:10B120005A611A6840F6D8639A4204D9054B43F233
:10B13000B0629A607047034B40F6D8629A607047DD
:10B14000F0390020103A002008B50F4B1B78022B75
:10B1500012D0032B08D0012B03D07846FBF704FF55
:10B160000EE0022303740BE0084B00225A710849D9
:10B1700099600849D960827103230374034B4361CA
:10B18000014B00221A7008BD213A0020103A00201D
:10B19000A0860100FF1FA10738B5044600250574ED
:10B1A000012343710E4A13680133136000F0C6FA9D
:10B1B0000BF002FE23680B4A1168283103FB01F1F2
:10B1C000094AA2FB0121A3EB9141084A783928469C
:10B1D00000F030FA00B938BD7846FBF7C5FEFAE753
:10B1E000243A00200C3A002083DE1B4319B10200F0
:10B1F00010B5044600238360C36003680D4A92685B
:10B200000260817991B10121017403B90A4B991A45
:10B210006161B1F57A7F01D39A4202D94FF47A7312
:10B220006361FFF76DFF0123A37110BDFFF7B4FF4A
:10B23000F7E700BF103A00208096980010B50C4642
:10B2400031B1C3680133C3604269036813440360CA
:10B2500083680133836001220274426952084261AB
:10B26000012B0DD0022B19D04269036813441749F2
:10B270008B4222D840F6D7639A4221D800231DE0A2
:10B28000B2F5FA7F05D040F6D8639A42ECD8436114
:10B29000EAE7002CF7D100234361E5E7C368022BFE
:10B2A00006D0012BE0D1002CDED100234361DBE787
:10B2B0000268064B9B1A4361D6E7002313B110BD09
:10B2C0000123FBE7FFF768FFF9E700BF80969800CE
:10B2D00043791BB90D4B00221A70704710B5044614
:10B2E0000BF086FD23680A4A1068283003FB00F043
:10B2F000084AA2FB0020A3EB9040783800F04EFAF9
:10B3000000236371014B00221A7010BD203A002007
:10B310000C3A002083DE1B4308B5254B01221A712D
:10B32000244B1B7813B1244B1B781BB3204B0022FA
:10B330001A7404281AD8DFE800F00314110C07006F
:10B340001B48FFF755FF1CE001211948FFF776FF66
:10B3500017E000211648FFF771FF12E00BF0D8FC50
:10B360000FE000F0ADF90BF00DFD0AE07846FBF7B9
:10B37000FBFD06E000F084F90D4B18601846FFF75E
:10B38000E3FE0B4B1B7C023BDBB2012B08D9084BC5
:10B390001B7C022B08D0064800230371103008BD27
:10B3A0000348FFF795FFF2E7014B01221A76F2E717
:10B3B000F0390020213A0020203A002008B5043856
:10B3C000042814D8DFE800F0182614030E00164BEA
:10B3D0001B7E012B0BD1FFF78FFE40B17846FBF7A8
:10B3E000C3FD04E0104B00221A760BF029FD08BDC6
:10B3F0007846FBF7B9FDFAE7FFF782FE0B4840F607
:10B40000D8638360FFF77AFE0028F0D07846FBF718
:10B41000ABFDECE70548FFF771FE0028E7D0784662
:10B42000FBF7A2FDE3E700BFF0390020103A00204F
:10B4300010B40E4A0023137013710121517143F2AD
:10B44000B064946043F69824D460094A1060094AB5
:10B450001370094A1370094A1360094A1371537132
:10B460001360137691715DF8044B7047103A002019
:10B470000C3A0020203A0020213A0020243A0020F3
:10B48000F039002008B5104B1B7E012B08D0022B91
:10B4900017D00BB1002008BD0C48FFF72BFE40B9B8
:10B4A0000B48FFF72BFE40B9074B02221A7600200B
:10B4B000F1E77846FBF758FDF2E77846FBF754FDD5
:10B4C000F2E71120E7E700BFF039002019B30200CE
:10B4D000103A00200B4B1B7C023BDBB2012B0BD93B
:10B4E000094B1B78012B09D0022B09D0032B01D06B
:10B4F00000207047012070470120704701207047ED
:10B5000001207047F0390020213A0020014B1868D3
:10B51000704700BFF03900200D4B5B790BB900205C
:10B52000704710B50A4B1C680A4B1B68283304FB94
:10B5300003F3094AA2FB0323A4EB9344783C00F0F5
:10B540009FF80346201A00D410BD181BFCE700BF6B
:10B55000F03900200C3A002083DE1B43014B1879A0
:10B56000704700BFF0390020EFF3108372B6054A30
:10B57000527922B1044A4FF48071C2F8001103B924
:10B5800062B67047F039002000E100E008B5054BD5
:10B590001B7E022B00D008BD034B01221A70FFF75F
:10B5A000E3FFF8E7F0390020213A002008B5074B07
:10B5B0001B7E022B00D008BD012804D0044A137062
:10B5C000FFF7D2FFF7E70323F8E700BFF0390020C9
:10B5D000213A002008B5094B1B782BB148B9084B1C
:10B5E0001B7813B1012300E00023044A107013B943
:10B5F00008BD0023F9E7FFF7B7FFF9E7203A00207D
:10B60000213A002010B40A4B00F15002002443F804
:10B61000224000F1100C012202FA0CF2C3F80423BC
:10B6200000F5A87043F820105DF8044B704700BF88
:10B6300000800040022817D810B5EFF310840C4B9F
:10B640001C6072B60B4B43F820200B4B002243F8D2
:10B6500020200A4B1B7823B9054B186830B962B615
:10B6600005E0FFF7CFFFF7E707207047002010BD88
:10B67000383A0020283A0020443A0020343A00208A
:10B68000EFF310820A4B1A6072B60A4B1B7863B153
:10B69000094B0022C3F84C210122DA64D3F84C058F
:10B6A000034B1B6803B962B67047044B1868F7E791
:10B6B000383A0020343A0020008000403C3A002014
:10B6C0002DE9F041002411E00027174B43F82470C6
:10B6D000012303FA05F5154EC6F80853FFF7D0FF0E
:10B6E000C04704F1500346F823700134022C18D8E7
:10B6F00004F150030D4A52F82330002BF5D0D2F854
:10B70000043304F11005EB4013F0010FEDD0064BAC
:10B7100053F82480B8F1000FD6D17846FBF724FC0B
:10B72000D2E7BDE8F08100BF283A00200080004049
:10B73000014B1B6818447047403A002010B50023A5
:10B740000CE0114A03F5A871002042F8210003F132
:10B75000500142F8210052F821200133022BF0D988
:10B760000A4B1B681BB90A4B4FF480721A60094BD5
:10B7700001221A70FFF73CFB0446FFF781FF241AF1
:10B78000054B1C6010BD00BF00800040383A00200F
:10B7900000E100E0343A0020403A0020002307E0B6
:10B7A00000220C4941F823200B4941F823200133A2
:10B7B000022BF5D9094B1860094B00221A70094B6E
:10B7C0004FF0FF32C3F80823074B4FF48072C3F8E1
:10B7D00080217047283A0020443A00203C3A00205B
:10B7E000343A00200080004000E100E008B5037812
:10B7F0003BB1012B04D1436813B1C16880689847FD
:10B8000008BD4368002BFBD080689847F8E700002C
:10B81000044B1B780F2B04D0034B4FF48022C3F84A
:10B8200000217047B43B002000E100E010B5154C4A
:10B8300020701548154B0360102343608360FDF7AB
:10B840007DFE1348FEF7F4FF23780F2B00D110BDC7
:10B85000072B10D8EC221A4112F0010F0ED05B0119
:10B86000DBB20C4A82F812330023002BEFD078466B
:10B87000FBF77AFBEBE742F20203F6E742F2020340
:10B88000F3E700BFB43B0020503A0020643A0020A8
:10B89000B83B002000E100E008B5124B1B780F2BED
:10B8A00000D108BD104B93F812335A09EC23134111
:10B8B00013F0010F13D00D4B9B685BB10B4A13685B
:10B8C00043F4802313600023002BEAD07846FBF773
:10B8D0004BFBE6E7044A4FF480211160F4E742F2A3
:10B8E0000203F1E7B43B002000E100E088580020AB
:10B8F00038B5EFF3108472B61A4A1368591C1160F8
:10B900001BB9194B1B780F2B05D1164B1B682BB39A
:10B9100004B962B638BDEFF3108272B6134B9B6860
:10B92000C3B9124901238B60114BD3F88000114D2C
:10B9300028400860C3F88050D3F8840048604FF076
:10B94000FF31C3F884100C4B00211970002ADCD1A0
:10B9500062B6DAE7084B01211970F7E77846FBF782
:10B9600003FBD5E7643B0020B43B0020885800204F
:10B9700000E100E0FC06FFBDB53B002010B5EFF391
:10B98000108472B6144B1B685BB1134A1368013BF9
:10B9900013601BB9114B1B780F2B06D104B962B68B
:10B9A00010BD7846FBF7E0FAEFE70D4B1A780D4B28
:10B9B0009B68002BF2D0002AF0D1EFF3108172B611
:10B9C000084B1868084A10605868506000229A6056
:10B9D0000029E3D162B6E1E7643B0020B43B0020DC
:10B9E000B53B00208858002000E100E010B5044677
:10B9F00080B10C4B1B68102B10D8EFF3108272B67D
:10BA0000084B1868411C1960074B43F8204002B9E5
:10BA100062B610BD7846FBF7A7FAEAE77846FBF76F
:10BA2000A3FAEAE7683B00206C3B002038B50446E7
:10BA30000D4B1B68834213D9EFF3108572B6610971
:10BA40000A4A04F01F04012303FA04F452F82130D7
:10BA5000234342F82130FFF7DBFE05B962B638BD5B
:10BA60007846FBF781FAE7E7683B0020B03B00200F
:10BA700070B50D461646044658B175B1EFF3108304
:10BA800072B6A560E66000222274246003B962B633
:10BA900070BD7846FBF768FAEFE77846FBF764FA83
:10BAA000ECE7000038B5044650B1A36863B1EFF38A
:10BAB000108572B6237C5BB1112005B962B638BD22
:10BAC0007846FBF751FAF0E77846FBF74DFAEEE7D8
:10BAD0000123237421460348FEF7B5FEFFF798FEC5
