:020000022000DC
:1060000000F000206D630200556302005763020038
:10601000596302005B6302005D6302000000000040
:106020000000000000000000000000005F630200AC
:106030006163020000000000636302006563020008
:106040006763020067630200676302006763020020
:10605000676302006763020055DF030067630200A5
:1060600067630200676302008DB303006763020089
:1060700067630200676302006763020067630200F0
:106080006763020019860400FDC90200676302000D
:106090007D86040067630200792A040067630200BA
:1060A00067630200676302006763020067630200C0
:1060B0006763020067630200000000000000000048
:1060C00067630200676302006763020067630200A0
:1060D000676302006763020067630200000000005C
:1060E00000000000000000000000000000000000B0
:1060F00000000000000000000000000000000000A0
:10610000000000000000000000000000000000008F
:10611000000000000000000000000000000000007F
:10612000000000000000000000000000000000006F
:10613000000000000000000000000000000000005F
:10614000000000000000000000000000000000004F
:10615000000000000000000000000000000000003F
:10616000000000000000000000000000000000002F
:10617000000000000000000000000000000000001F
:10618000000000000000000000000000000000000F
:1061900000000000000000000000000000000000FF
:1061A00000000000000000000000000000000000EF
:1061B00000000000000000000000000000000000DF
:1061C00000000000000000000000000000000000CF
:1061D00000000000000000000000000000000000BF
:1061E00000000000000000000000000000000000AF
:1061F000000000000000000000000000000000009F
:10620000344935480A1A02D0072291438D46334952
:1062100033480A1A06D00722914381F309880222E3
:1062200082F314882F483049304A00F042F8304851
:106230003049314A00F03DF830483149314A00F0E8
:1062400038F831483149324A00F033F831483249A0
:10625000324A00F02EF832483249334A00F029F829
:1062600032483349334A00F024F833483349002296
:1062700000F02AF832483349002200F025F832486D
:106280003249091A082902DB0022026041601F48D6
:106290001F49884205D00268043003B4904703BC0C
:1062A000F7E700208646EC4600200021284A904768
:1062B000FEE7884207D0521A05D0037801300B70F0
:1062C0000131013AF9D17047884202D002700130A1
:1062D000FAE7704700F0002000E8002000F00020FE
:1062E00000F0002098A90400042E0020E02E0020D9
:1062F000A0630200A06302001C8B040098A90400A4
:10630000042E0020042E0020388F0400388F040053
:10631000388F0400388F0400388F0400388F040051
:10632000388F0400388F040098A9040074AA040070
:10633000E02E0020E02E0020E02E0020905F0020C4
:10634000905F0020905F0020905F0020906300200D
:10635000E56E0200FEE7FEE7FEE7FEE7FEE7FEE78A
:10636000FEE7FEE7FEE7FEE700F002B8FFF7FCBF3E
:1063700008484FF00701884385460748804707488B
:10638000016841F470010160BFF34F8FBFF36F8F5D
:10639000FFF736BF00F000205930040088ED00E020
:1063A0003FDF704741DF70470C4B1B6813F4804F91
:1063B00003D00B4B1B68012B00DC704700B583B08A
:1063C000084BD3F80435084A0092BA220749022044
:1063D00007F04CFC03B05DF804FB00BF642E002006
:1063E000602E0020001001407C8F0400728F04009A
:1063F00010B586B05068E0B11A4B1B6813F4804F9B
:1064000003D0194B1B68032B01DC06B010BD174BE2
:10641000D3F8043549881478527804900392029492
:106420000191134A0092C4221249042007F01EFC75
:10643000EBE70C4B1B6813F4804FE6D00A4B1B684C
:10644000032BE2DD094BD3F8043549881278029218
:106450000191094A0092C9220649042007F006FC6E
:10646000D3E700BF642E0020602E00200010014002
:106470009C8F0400728F0400F08F040000B587B079
:106480008DF814003B4A1378591C11708DF81530A3
:106490003223049364230393374B1B6813F4804F18
:1064A00003D0364B1B68032B12DC022303AA05A979
:1064B000334821F03FFD112854D8DFE800F0155390
:1064C00053531D5353381D53535353535353531D59
:1064D0002C4BD3F8043501902B4A0092F5222B491E
:1064E000042007F0C3FBE0E79DF81410112000F032
:1064F00009FF07B05DF804FB1F4B1B6813F4804FC6
:1065000003D01E4B1B68002B05DC062232210F2016
:1065100000F064FFEDE71B4BD3F804351C4A0092F2
:1065200040F209121949012007F0A0FBEDE7124BD8
:106530001B6813F4804F03D0104B1B68002B05DC45
:10654000062232210F2000F049FFD2E70D4BD3F88D
:106550000435104A009240F217120C49012007F04E
:1065600085FBEDE70028C4D00B4A4FF48F711CF077
:10657000A1FEBEE7382F0020642E0020602E0020F0
:10658000E02E0020001001401C900400728F0400D7
:106590003890040054900400508F040008B5002087
:1065A000FFF76CFF08BD000000B587B03B4B1B68D0
:1065B00013F4804F03D03A4B1B68032B29DC9DF862
:1065C0001430042262F306138DF81430DBB26FF33B
:1065D00083038DF81430DBB2022262F301038DF8DD
:1065E000143042F210730493642303934FF47A73CC
:1065F00006AA12E907000BF0E9FB072832D00828A9
:1066000013D000B3F8B1274A40F243111CF052FEF8
:1066100019E0254BD3F80435244A009240F22512A4
:106620002349042007F022FBC9E71C4B1B6813F425
:10663000804F03D01A4B1B68002B07DC0622322147
:106640000F2000F0CBFE07B05DF804FB164BD3F82B
:106650000435184A009240F235121549012007F01E
:1066600005FBEBE70D4B1B6813F4804F03D00C4B7D
:106670001B68002B05DC062232210F2000F0AEFE45
:10668000E1E7094BD3F804350B4A00924FF49E72B0
:106690000749012007F0EAFAEDE700BF642E002069
:1066A000602E0020508F0400001001407090040004
:1066B000728F0400A4900400C890040000B583B059
:1066C0001F4B1B6813F4804F03D01E4B1B68032B1A
:1066D00015DC0BF087FC78B1082828D1184B1B6813
:1066E00013F4804F03D0174B1B68002B13DC0622DA
:1066F00032210F2000F072FE03B05DF804FB124B54
:10670000D3F80435114A00924FF4A57210490420C1
:1067100007F0ACFADDE70C4BD3F804350D4A0092D4
:1067200040F253120A49012007F0A0FADFE70028DF
:10673000E2D0094A4FF4AD711CF0BCFDDCE700BFAC
:10674000642E0020602E002000100140FC90040008
:10675000728F040020910400508F040000B583B0B4
:106760000E4B1B6813F4804F03D00D4B1B68032B9B
:1067700009DC0322C8210F2000F030FE0CF09CFB46
:1067800003B05DF804FB074BD3F80435064A0092CA
:10679000D8220649042007F069FAEAE7642E0020AF
:1067A000602E00200010014040910400728F040010
:1067B00010B582B0441C494B1B6813F4804F03D0C2
:1067C000474B1B68032B0DDC0CF012FB18BB434B33
:1067D0001B6813F4804F03D0414B1B68012B0EDC68
:1067E00002B010BD3F4BD3F8043501943E4A0092ED
:1067F0004FF4B7723D49042007F038FAE4E7394B0B
:10680000D3F804353A4A00924FF4B972374902205E
:1068100007F02CFAE4E7374821F0A6FF30B9601EF4
:10682000032846D8DFE800F008191D26324A4FF445
:10683000BB711CF03FFDF2E70120FFF71FFE0022B5
:106840004FF420312B4821F06DFF0028C8D02A4A90
:1068500040F27D111CF02EFDC2E70020FFF70EFE76
:10686000BEE70BF0ADFA10B9FFF79EFEB8E7FFF7F1
:1068700025FFB5E70CF0BCFAA0B9184B1B6813F460
:10688000804FADD0164B1B68032BA9DD154BD3F8F9
:1068900004351A4A009240F299121449042007F074
:1068A000E5F99DE70EF09AF80CF096FAFFF756FF1F
:1068B00096E70A4B1B6813F4804F91D0084B1B6876
:1068C000032B8DDD074BD3F804350D4A009240F2BF
:1068D000A5120649042007F0C9F981E7642E0020BB
:1068E000602E0020001001405C910400728F0400B3
:1068F00070910400182F0020508F04009091040024
:10690000CC93040000B583B03138032814D90D4B63
:106910001B6813F4804F11D00B4B1B68032B0DDD4C
:106920000A4BD3F804350A4A00924FF4DA72094947
:10693000042007F09BF901E0FFF73AFF03B05DF890
:1069400004FB00BF642E0020602E002000100140D8
:10695000CC930400728F040008B50378232B00D079
:1069600008BDFFF7FBFEFBE700B58DB02422002138
:1069700003A822F09CF801238DF80C3007238DF832
:106980000F3006238DF81430204B0793204B0B93C8
:10699000204903A80CF030FA60B30B2829D11E4B14
:1069A0001B6813F4804F03D01C4B1B68032B14DCB3
:1069B000194B1B6813F4804F1CD0184B1B68032B1A
:1069C00018DD174BD3F80435164A009240F22D22F9
:1069D0001549042007F04AF90CE0114BD3F80435AF
:1069E000124A00924FF40B720F49042007F03EF94F
:1069F000DEE728B90E4804F0B3FD0DB05DF804FBE6
:106A00000C4A40F232211CF055FCF3E759690200B0
:106A1000AD6C0200142F0020642E0020602E002098
:106A20000010014018920400728F0400C891040005
:106A3000042E0020508F040000B583B0234A0421A7
:106A40004FF4C04007F0F6F8214B1B6813F4804F59
:106A500003D0204B1B68032B19DC21F013FE10BB65
:106A600000F0FEFC1C4800F02FFD10BB00F0EAFE19
:106A700000F026FF00F054FFFFF776FF0120FFF73C
:106A80008FFCE0B90BF066F903B05DF804FB134B23
:106A9000D3F80435124A009240F2452211490420ED
:106AA00007F0E4F8D9E7104A40F247211CF002FC55
:106AB000D6E70D4A40F24E211CF0FCFBD6E70A4A0D
:106AC00040F25F211CF0F6FBDCE700BF09DC0200AE
:106AD000642E0020602E0020B167020000100140EB
:106AE00054920400728F0400508F040010B584B0DB
:106AF0000378153B052B6ED8DFE803F0036D5F4A82
:106B00007B97041D5D4B1B6813F4804F03D05C4BD7
:106B10001B68032B10DC20460BF0BEF9082819D89F
:106B2000072819D2002856D0002854D0554A40F2E0
:106B3000D9111CF0BFFB4EE0534BD3F804358288CB
:106B40000192524A00924FF4E1725149042007F039
:106B50008DF8E0E70E28E7D1484B1B6813F4804F0F
:106B600003D0474B1B68002B05DC062232210F2087
:106B700000F034FC2FE0444BD3F804350190454A33
:106B8000009240F2CF124249012007F06FF8ECE783
:106B90003A4B1B6813F4804F1DD0394B1B68032BF5
:106BA00019DD394BD3F804353B4A009240F2E1122B
:106BB0003749042007F05AF80DE0304B1B6813F4F6
:106BC000804F03D02E4B1B68032B06DC062232219C
:106BD0000F2000F003FC04B010BD2B4BD3F804359C
:106BE0002E4A009240F2E5122949042007F03EF8AF
:106BF000ECE7224B1B6813F4804F03D0204B1B683B
:106C0000032B04DC0121122000F07CFBE3E71E4B88
:106C1000D3F8043502890192214A009240F2F11220
:106C20001B49042007F022F8ECE7144B1B6813F40F
:106C3000804F03D0124B1B68032B0EDC0021122067
:106C400000F060FB174821F08FFD0028C3D00D4AEB
:106C50004FF402711CF02EFBBDE70B4BD3F804354B
:106C60000289817A029101920F4A00924FF40072D8
:106C70000749042006F0FAFFE0E700BF642E002079
:106C8000602E0020508F0400001001407492040018
:106C9000728F040098920400B8920400D892040005
:106CA000F4920400182F00201C93040000B583B058
:106CB000154B1B6813F4804F03D0144B1B68032B38
:106CC0000FDC1348134B03630023836280F82C30DE
:106CD00080F82D30012121F0F7F870B903B05DF88C
:106CE00004FB0D4BD3F804350C4A009240F21322FA
:106CF0000B49042006F0BAFFE3E70A4A40F21A21E2
:106D00001CF0D8FAEAE700BF642E0020602E0020B5
:106D1000E02E0020BC930400001001404C930400BE
:106D2000728F0400508F040010B5044600210F201C
:106D300000F03EFB04EB840462003221032000F0EB
:106D40004DFB10BD08B500F07DFB08BD00B585B05A
:106D500003A812F03DFA0D4B1B6813F4804F03D0CB
:106D60000B4B1B68032B02DC05B05DF804FB094BE1
:106D7000D3F80435BDF80C200192074A00929E22F8
:106D80000649042006F072FFEEE700BF642E0020E3
:106D9000602E0020001001406C930400728F0400EC
:106DA00010B58AB064212A4800F02CFA294A002143
:106DB000294821F0A1FCB0B9284B1B78CBB90DF1C3
:106DC0000C0C274C0FCCACE80F0094E807008CE8C3
:106DD000070003A800F0B8F968B1224A40F27A210E
:106DE0001CF068FA07E01F4A40F26A211CF062FAC0
:106DF000E2E7FFF7ABFF00F0B9FE00F09DFB0CF0FF
:106E00004DF898B9184B1B6813F4804F03D0174BFB
:106E10001B68032B10DC00210F2000F0C9FA0222AE
:106E2000C8210F2000F0DAFA0AB010BD0D4A40F276
:106E300083211CF03FFAE5E70D4BD3F804350D4AEA
:106E4000009240F285220C49042006F00FFFE2E791
:106E5000056902009D650200C8930400142F0020FC
:106E6000A0930400508F0400642E0020602E0020A8
:106E700000100140CC930400728F040000B583B071
:106E8000134B1B6813F4804F03D0124B1B68032B6A
:106E900013DC00F015FD00F043FDFFF757FF00F095
:106EA000D1FA00210F2000F083FA0422C8210F201C
:106EB00000F094FA03B05DF804FB074BD3F80435F7
:106EC000064A0092A3220649042006F0CFFEE0E71E
:106ED000642E0020602E00200010014084930400E6
:106EE000728F040008B5FFF7A7FDFFF759FFFFF702
:106EF00059FAFCE769DF704703781F2B00D0704711
:106F0000014B01221A70FAE73C2F00203F4B1B78FF
:106F1000002B79D000B587B0012804D003286CD0AD
:106F200007B05DF804FB0023019301A901201BF0C9
:106F300029FC00284BD100230393049305939DF86B
:106F40000C20012363F303028DF80C20D2B263F30B
:106F500007128DF80C209DF80D2063F301028DF8C7
:106F60000D201523ADF81630019A03A94120FFF733
:106F7000C1FF78BB01A81BF05FFC70BB244B1B68F2
:106F800003B198470123029302A90DF1020012F008
:106F90009FFF28BBBDF8020012F036FB0DF1010186
:106FA00012F0DEFCF8B90DF063FA9DF80110002034
:106FB0000DF05EFDD0B904F065FAD8B9134B00228C
:106FC0001A70134B5B68002BAAD09847A8E71CF0F7
:106FD00063F9B0E71CF060F9CCE71CF05DF9CDE790
:106FE0001CF05AF9D6E71CF057F9DCE7784600F0B8
:106FF0007DFDE0E71CF050F9E0E71BF097FC00286E
:107000008ED01CF049F98BE7704700BF3B2F002062
:10701000402F002008B5064B01221A70054804F0E5
:107020009FFA04F081FA00B908BD1CF035F9FBE7BE
:107030003B2F0020102E002008B503781C2B00D019
:1070400008BD074B1B78002BFAD01BF0B3FC18B916
:10705000044804F089FAF3E71CF01EF9F8E700BFD2
:107060003B2F0020102E002008B5094B1B7863B978
:10707000084909481CF0D8FD40B9022300220749FD
:10708000496907481CF0ECFD00E0082008BD00BF7E
:107090003C2F00205C2F002000310020402F0020DA
:1070A000CC2F002008B50378023B082B3FD8DFE83F
:1070B00003F01C05113E3E2C3E3E36001E4B9B68E5
:1070C000002B34D0007A002831D01C4A01211170E5
:1070D00098472CE0184BDB684BB3184A127832B350
:1070E000164A00211170984721E0154B1B784BB9C7
:1070F000114B1B691BB1114A002111709847FFF712
:10710000B3FF14E0FFF786FF11E010220A4B9969E4
:107110000C481CF02EFE50B11CF0BEF807E0816850
:10712000C0680BF0E9FD18B9054B01221A7008BDC3
:107130001CF0B2F8F8E700BF402F0020392F0020E4
:107140003A2F0020CC2F002010B586B084461D4A6F
:1071500003AB07CA03C323F8022B120C1A701A4C94
:10716000A646BCE80F00AEE80F009CE807008EE8DA
:107170000700A3691BB3154B009303AB144A1549D1
:1071800015481CF00FFD034610B1184606B010BD9F
:1071900012481DF081FB03460028F6D10F481DF070
:1071A000B3FB01460C481CF029FD03460028ECD136
:1071B0000B4804F0D5F9FFF757FF0346E5E707232F
:1071C000E3E700BF0C950400402F0020A5700200EB
:1071D0005C2F002000310020CC2F00207C2F0020CD
:1071E0001C2E002008B5064B1B681BB906E0044B9B
:1071F0001B68984715F074FA0028F8DA08BD00BF3C
:107200004031002010B50C46134B1860134A012181
:10721000134821F071FA98B9610CE00341F27073E0
:10722000984271F1000310D34FF47A72002321F0D9
:10723000DBFA014600220B4821F074FA38B910BD80
:10724000094A4A211CF036F8E6E70521F2E7064A2A
:107250004B211CF02FF8F2E740310020E5710200CD
:107260004C950400443100201895040070B5054683
:10727000002403E00D4A93420ED80134032C14D8A5
:107280000B4B1B5DAB42F8D10A4B1E6804F06CFC43
:10729000331AEFD5831BEDE704F066FC054B18604D
:1072A000054B1B6820469847E7E770BD801A06002B
:1072B00058950400903100208C3100204FF0A043FD
:1072C000D3F80435C34013F0010F0CBF0120002098
:1072D0007047000070B505460024264600E00134E2
:1072E000032C0AD80123A3402B42F8D0044B185D8D
:1072F000FFF7E4FFA0400643F1E7304670BD00BF52
:107300005C95040008B511B116F055FD08BD16F0E6
:107310004BFDFBE770B50546002400E00134032C6B
:107320000FD80123A3402B42F8D0064B1E5D3046F8
:10733000FFF7C4FF80F00101C9B23046FFF7E2FF5A
:10734000ECE770BD5C95040010B5144B1B684BB1A5
:10735000134B1868FFF7DEFF104B1C68013C1C60E4
:1073600024B110BD00201BF097FFF1E70D4821F07C
:10737000FBF900E00134032CF3D80123A340084AB1
:1073800012681342F6D0084B1968E14001F0010180
:10739000064B185DFFF7B6FFECE700BF6431002035
:1073A000683100206C310020943100205C9504008D
:1073B00070B505460E46002400E00134032C09D8C0
:1073C0000123A3402B42F8D03146034B185DFFF751
:1073D00099FFF2E770BD00BF5C95040042B310B5A1
:1073E0000C461346132900D810BD124A10605B00EA
:1073F000013B114A1360FFF76DFF104B1860610CE1
:10740000E40314F5FA704FF47A724FF0000341F17F
:10741000000121F0E9F901460022094821F082F932
:107420000028E1D10121034B1868FFF7C1FFDBE71A
:10743000704700BF68310020643100209431002083
:107440006C31002008B5044821F08EF90021034B6F
:107450001868FFF7ADFF08BD6C31002068310020CF
:1074600010B582B016F034FC40B10024ADF80440F1
:107470008DF8064001238DF8053007E016F0E0FB9B
:107480000028F2D01BF008FFEFE70134032C09D8E5
:1074900001A90A4B185D16F025FC0028F5D01BF059
:1074A000FBFEF2E7064A0121064821F025F908B95A
:1074B00002B010BD1BF0F0FEFAE700BF5C950400BF
:1074C000497302005495040060B310B582B0164AA7
:1074D000106016F0FDFB40B1144B1B68ADF8043092
:1074E0001B0C8DF8063000240CE016F0A9FB0028D8
:1074F000F2D01BF0D1FEEFE701210D4B185D16F025
:10750000CBFC0134032C0AD80A4A01A9084B185DA8
:1075100016F058FC0028EFD01BF0BEFEECE7002070
:1075200002B010BD0E2070478C3100205095040031
:10753000589504006D720200002800F082802DE949
:10754000F04FD1B004463F4B1B6813F4804F03D07B
:107550003D4B1B68032B31DC3A4B1B6813F4804F07
:1075600003D0394B1B68032B2ADC51B0BDE8F08FE8
:10757000E25C36490D68100959002E5C0FA800F82E
:10758000136002F00F020131AA5C425401330F2B49
:10759000EED90FAA00238DF85C3003F1804303F588
:1075A0008833D3F804350292294A0192294A00927D
:1075B00042222949042006F059FBCDE70023E6E7E3
:1075C000264BD3F804350D932068020202F47F02A3
:1075D00042EA0062010A01F47F4142EA0108B4F87C
:1075E00004C04FEA0C2292B2B4F806E04FEA0E2132
:1075F00089B2257A667AA77AE37A94F80C9094F89F
:107600000DA094F80EB0E47B0B94CDF828B0CDF823
:1076100024A0CDF82090079306970596049541EA9B
:107620001E21039142EA1C22029248EA1060019056
:107630000B4A00920D9B43220749042006F016FBDB
:1076400093E77047642E0020602E0020682E0020F3
:1076500098950400AC950400859504000010014045
:10766000B495040072DF704773DF704774DF7047B2
:107670002DE9F047A2B0074688469146324C0025D6
:1076800025606560A560E56030490B78C3EB431069
:107690002F4E064426602F4A0244A2601F22A28079
:1076A000A281013303F001030B704FF03C0A5246F4
:1076B000294613A821F0FBF906238DF84F30ADF8C9
:1076C000487001238DF84A30ADF85C3012AA189248
:1076D000ADF83C70ADF84090CDF844800DEB0A0257
:1076E0001D928DF8783052462946684621F0DFF920
:1076F00002238DF80030221D314613A81AF034FF02
:1077000090B9114B03F10C02996868461AF02CFFEE
:1077100068B9114A0C491148FFF7A4FF082809D09D
:1077200070B922B0BDE8F0871BF0B6FDE9E71BF0A9
:10773000B3FDEEE7002204490848FFF793FFEFE7A7
:107740001BF0AAFDEDE700BFDC31002098310020DE
:107750009C310020EC3100202C2E0020282E00200F
:10776000B0F5202F0AD2074BA3FB0023DB0808B19A
:1077700003B90123044A9381916070474FF6FF7368
:10778000F5E700BFCDCCCCCC2C2E002008B50121D4
:10779000054B1878FFF768FF18B9002004F01EFEAB
:1077A00008BD1BF079FDF8E7282E002008B5044B32
:1077B0001878FFF75BFF00B908BD1BF06DFDFBE714
:1077C000282E002076DF70477ADF70477CDF704715
:1077D00069DF704708B51BF05FFD08BD08B503F011
:1077E000C7FE08BD00B583B0037823B1012B0BD0D1
:1077F00003B05DF804FB3B214088FFF7E3FF00285E
:10780000F6D01BF049FDF3E7094B1B6813F4804FDA
:10781000EED0084B1B68032BEADD074BD3F8043589
:10782000064A009268220649042006F01FFADFE7A4
:10783000642E0020602E00200010014034960400C9
:107840001996040000B585B01BF070F860BB0023EA
:10785000039303A901201AF095FF40BB0023009376
:10786000019302939DF80020012363F303028DF836
:107870000020D2B263F307128DF800209DF801209A
:1078800063F301028DF801201523ADF80A30039A45
:1078900069464120FFF79CFF60B903A81AF0CCFFAE
:1078A00058B905B05DF804FB1BF0F6FCCFE71BF000
:1078B000F3FCD3E71BF0F0FCEFE71BF0EDFCF0E787
:1078C00000B585B09DF80C30012262F303038DF8FA
:1078D0000C30DBB262F307138DF80C3015220F4920
:1078E00003A8FFF773FF98B900230193029378234D
:1078F000ADF80430C823ADF806304FF4C873ADF8C6
:107900000A3001A8FFF760FF28B905B05DF804FB55
:107910001BF0C2FCE8E71BF0BFFCF6E76096040032
:1079200000B58BB001AA0023019302937821ADF832
:107930000410C821ADF806104FF4C871ADF80A1054
:107940000393049305930693079308930993039273
:1079500040F6CD4304934FF48033059303238DF811
:107960001830074B0893074B099303A81BF0E4F961
:1079700010B90BB05DF804FB1BF08EFCF9E700BFFB
:10798000E5770200D57702000620704700B587B082
:1079900044F2010398425DD01BD8012836D041F251
:1079A0000103984271D1474B1B6813F4804F36D0C6
:1079B000454B1B68002B32DD444BD3F80435029253
:1079C0000191434A009263224249012006F04EF998
:1079D00025E044F20203984257D13A4B1B6813F456
:1079E000804F1CD0384B1B68002B18DD374BD3F869
:1079F000043510680390526802920191364A009251
:107A000069223449012006F031F908E02D4B1B684A
:107A100013F4804F03D02C4B1B68002B0DDC4FF070
:107A2000A0434FF4F012C3F81825C3F80C25EFF368
:107A3000108372B64DF6AD6C3DE0244BD3F804359F
:107A400002920191254A009260222249012006F00B
:107A50000DF9E4E71B4B1B6813F4804FDFD01A4B82
:107A60001B68002BDBDD194BD3F80435106804903C
:107A700050680390029192680192194A0092732211
:107A80001449012006F0F2F8C9E70E4B1B6813F405
:107A9000804FC4D00C4B1B68002BC0DD0B4BD3F8C0
:107AA000043501910F4A00927B220A49012006F019
:107AB000DDF8B4E730BF0C4B1B78002BFAD107B0D0
:107AC0005DF804FB642E0020602E002000100140B1
:107AD000CC9604009D960400F0960400B096040035
:107AE0001097040034970400442E002000B583B0A2
:107AF000014600230093054B01936A4644F20200BD
:107B0000FFF744FF03B05DF804FB00BF30970400AB
:107B100010B40346044C006859689A68DB680FC4C7
:107B20005DF8044B704700BF2C3200200E4B4FF025
:107B3000805202F1600103C983E8030003F1080CDD
:107B4000A43292E803008CE8030093F9062002F0C7
:107B50000F0242F040029A7193F9082002F03F02AE
:107B600042F080021A7270472C32002000487047A1
:107B70002C320020002308E0074901EBC30000225B
:107B80004280426001F8332001331F2BF4D9034BAC
:107B900000221A60704700BF3C3200203C330020B6
:107BA00000B58646114B1B684FF0000C0BE01F23FD
:107BB0000F4A12F83300B0B102EBC302528872458B
:107BC00009D00CF1010CBCF11F0F0BD85A1E002B71
:107BD000EDD01346ECE7064A02EBC30252688A4234
:107BE000EFD100E000205DF804FB00BF3C33002033
:107BF0003C32002010B40B4A13680B4C04EBC30C4E
:107C0000ACF80200CCF80410012104F833100B4446
:107C10001360202B02D05DF8044B704713460022FE
:107C20001A60F8E73C3300203C320020006F024B22
:107C3000C01A18BF01207047FC330020002107291B
:107C400018D830B402E00131072910D84FEA011CDE
:107C5000094C34F80CC08445F5D104EB0114A56837
:107C6000E4689C4208BF9542EDD1012000E000206D
:107C700030BC7047002070474033002030B4C369E7
:107C80008469C1884FEA132C1B06C4F30C028A4294
:107C900018D28A1A2244A2F500529A184CF1000117
:107CA0000A4C23685D1C256003F00703B0F814C07C
:107CB00007481C0100EB031320F804C09A60D96048
:107CC00030BC70478A1A2244E7E700BFC033002067
:107CD00040330020C37D9BB1C3780A7802F0800254
:107CE0000A7003F07F0313430B7002780B7803F0E4
:107CF0007F030B7043EAC2130B7003789BB9704784
:107D0000C3780A7802F0BF020A709B0103F04003B7
:107D100013430B70027903F0C0030B7002F03F02B3
:107D200013430B70E1E700B58378082B14BF0022E2
:107D300001224B7803F07F034B7043EAC2134B7070
:107D4000B0F806E0DAB202F080024A70CEF3861C88
:107D50004CEA02024A708B7803F003038B7043EA0B
:107D60008E038B7090F808E0DAB202F0FC028A70A1
:107D7000CEF3C10C4CEA02028A70CB7803F01F03E9
:107D8000CB7043EA4E13CB70437ACA7802F0E0021C
:107D9000CA7003F01F031343CB705DF804FB0000AF
:107DA000002300E00133032B27D8154A4FF0740C51
:107DB0000CFB032292F84C20012AF3D1104A0CFB51
:107DC0000322B2F814C0C2899445EBD10C4A4FF09B
:107DD000740C0CFB0322D2888A42E3D1084A0CFBC4
:107DE0000322B2F85C201AB1B0F814C06245D9D1B0
:107DF0000348742202FB030070470020704700BF55
:107E00007C350020002300E00133032B13D80B4AFC
:107E1000742101FB032292F84C20022AF4D1074A74
:107E200001FB0322918A828A9142EDD10348742298
:107E300002FB030070470020704700BF7C35002024
:107E400008B9042070470820704700B503468C46E7
:107E50000978C17000214162DCF808100B2904D8B0
:107E60009CF80C1029B3012100E0012119700020B9
:107E7000987031B1DCF808100731C908013959721E
:107E800018720121D97503F10C0E0CF1100103C910
:107E90008EE80300BCF80E109982DCF81810196205
:107EA0009CF81C109975DCF82010D9629A625DF874
:107EB00004FB0021DAE7000000210E4B1B688B4217
:107EC00016D9002300E001330B4A02EBC1025268CD
:107ED0009A420BD9084A52F8312002EBC30C12F82F
:107EE00033208242EFD1DCF8040070470131E4E72F
:107EF00000207047C4330020C833002030B58DB057
:107F000005460C462C22002101A820F0D0FD1023AC
:107F10008DF8043002958DF80C4001A801F0E2FACA
:107F20000DB030BD70B58CB006460D4614462C22FF
:107F3000002101A820F0BBFD0F238DF80430ADF81F
:107F400008609DF80A3065F300038DF80A308DF85B
:107F50000B4001A801F0C6FA0CB070BD00B58DB0A1
:107F600010B913F1020F06D1074B186804F076FC24
:107F70000DB05DF804FB01218DF80410029303920B
:107F800001A801F0AFFAEFE7E033002070B5049CE0
:107F9000002962D01D468E46D2F800C0516896680E
:107FA000D368C4F80CC021616661A361D2F810C027
:107FB0005169C4F81CC02162002363700278D209A1
:107FC00022705AB30423734549D8E17D41B3037845
:107FD00003F07F03E3700023A3709AB143789B0101
:107FE00003F4FE53827843EA9203E3808378DB0054
:107FF00003F01803C27843EA52132372C37803F0E4
:108000001F036372002363622B78032B21D82A7825
:10801000144B53F82230E362002070BD0123D2E7F5
:108020000178C1F38011E170017801F03F01217105
:1080300042B190F90130002B02DB0423A370CCE79E
:108040000823FBE70421A1700B447345C5D909201F
:10805000E3E77846FFF74AFDD9E70920DDE7092085
:10806000DBE700BFF098040070B50C461D460378AE
:108070009BB104263244A26000F10C032360836AA2
:108080006360C36AE36000232374204604F064FF46
:1080900010B963691E442E6070BD0126EAE72DE920
:1080A000F0418EB00D4616461C46804600282DD065
:1080B000002D2FD0002C31D0636A0233059304F1D8
:1080C0000C00E378002B2DD00121A27801AF3B46B4
:1080D000082A14BF0022012204F00DFD0697CDF8F6
:1080E0001C80B2B2ADF820200B9515440C95A378F6
:1080F0008DF83430237B022B16D00023ADF82830C6
:1081000005A804F0F0FC0EB0BDE8F0817846FFF75A
:10811000EDFCCDE77846FFF7E9FCCBE77846FFF7C3
:10812000E5FCC9E70221D0E723692BB12369099354
:108130001023ADF82830E3E77846FFF7D7FCF5E7E2
:108140002DE9F04188B004460D46C37D002B3CD09C
:10815000082605FB06F8637AAB4238D0257201ABDE
:10816000324602A92046FFF77FFF074648BB4DB9BC
:1081700094F8573033B9A369C3F30C03E3800123A8
:1081800084F85730E37D7BB994F8563063B91DBB52
:10819000206FB4F84E10A27823468A1A0146FFF7E2
:1081A0007EFF012384F8563007992046FFF792FDA1
:1081B000216F32464144019820F050FC02A804F09F
:1081C000F1FE384608B0BDE8F0810C26C1E7B4F8EE
:1081D0004E60A6EB0806C1E77846FFF787FCD7E7B5
:1081E00070B505460E4609B100230B6095F8544062
:1081F000002104E0631C85F854300134E4B26B7A4A
:10820000A34210D32A6D0123A3401A42F5D121467F
:108210002846FFF795FF014628B9002EEAD03368BB
:1082200001333360E6E7084670BDF0B589B0044617
:108230000E46154683789A18C37D63B10B239A4284
:1082400021D801AB02A92046FFF70EFF074620B157
:10825000384609B0F0BD0F23F1E707992046FFF734
:1082600039FDE37D43B12A463146019820F0F6FB03
:1082700002A804F097FEEBE723462A460199304610
:10828000FFF70DFFF4E70927E2E7000010B5044609
:1082900090F84C30012B0FD103F066FC237B012BAF
:1082A0000ED00B4BD968012384F84830014404F107
:1082B000300003F025FC10BD7846FFF717FCEBE714
:1082C000A27D034BD9681B6903FB0211EBE700BFDA
:1082D000E433002030B583B0002403E02846FFF7E4
:1082E000D5FF0134032C16D80C4B742202FB043347
:1082F00093F84C30012BF4D100230193074D02FB7E
:10830000045501A92846FFF76BFF0428E6D0019B1E
:10831000002BE6D0E2E703B030BD00BF7C35002083
:1083200038B5044690F84C30022B09D1064B1D6835
:1083300003F01AFC411904F1300003F0E1FB38BDF1
:108340007846FFF7D3FBF1E7E433002038B5044665
:1083500090F84C30022B10D10A4B5A7D5D689B6817
:1083600003FB025503F000FC411904F1540003F033
:10837000C7FB012384F86C3038BD7846FFF7B6FBA5
:10838000EAE700BFE433002010B50446FFF74EFCD7
:1083900080B904F1300003F09BFB94F84C30022BC1
:1083A0000CD074220021204620F081FB002002F036
:1083B000ABFB10BD206F0AF07AFCEAE704F1540031
:1083C00003F086FBEDE7000030B585B00D460446AE
:1083D000A8B194F84C30022B15D02946A06DFFF7B8
:1083E0008DFD2046FFF7D0FF114B1B6813F0040FE3
:1083F00003D0104B1B68032B09DC05B030BD784659
:10840000FFF774FBE5E72046FFF738FCE5E70A4B8A
:10841000D3F8043594F84C2002950192074A009253
:1084200040F2F3120649042005F020FCE5E700BF06
:10843000642E0020602E0020001001407C97040074
:108440006F97040038B50546002400E00134032C82
:108450000ED8084B742202FB043393F84C30022BE5
:10846000F4D12946034B02FB0430FFF7ADFFEDE7E3
:1084700038BD00BF7C35002008B508460021FFF755
:10848000A3FF08BD10B58CB0044690F84C30012B0A
:108490000FD101238DF80430A36D029303F064FB28
:1084A000039001A801F01EF82046FFF76DFF0CB005
:1084B00010BD7846FFF71AFBEBE708B5037B012BED
:1084C00002D0FFF7DFFF08BD0121FFF77DFFFAE7CC
:1084D00008B590F8553053B1013B80F85530002372
:1084E00080F85430034B186804F0B8F908BDFFF762
:1084F000E4FFFBE7E033002010B5002400E0013486
:10850000032C14D80A4B742202FB043393F84C302A
:10851000012BF4D1064B02FB043393F84830022BB5
:10852000EDD1034B02FB0430FFF7D2FFE7E710BDAC
:108530007C35002008B50378192B13D01A2B08D0EE
:10854000182B00D008BD0820FFF77CFFFFF7D4FFF1
:10855000F8E70379012BF5D10620FFF773FFFFF74A
:10856000CBFFEFE70379012BECD10720FFF76AFF80
:10857000E8E710B50446808A02F040FE01281CD1CD
:10858000237BE3B194F91620002A1ADBE27D4AB17D
:10859000022B18D094F90330002B16DBA378B3B963
:1085A00000200BE0E2780AB9012B12D1237893B9AD
:1085B000A378042B11D1002000E0102010BD102062
:1085C000FCE70720FAE71020F8E70720F6E7072086
:1085D000F4E70720F2E70020F0E70720EEE738B5E0
:1085E000044603784BB1C388C2698169808A06F06A
:1085F0008DFE054645B9284638BDC2698169808A25
:1086000006F07EFE0546F5E7E169002201F0010172
:10861000A08AFFF787FCEEE72DE9F04107460D46FB
:1086200016464B1EDBB2012B06D8B6F5C07F07D825
:10863000012D09D0002413E07846FFF757FAF4E73C
:108640007846FFF753FAF3E7012409E030460AF0D1
:108650002AFB394B742202FB0434206716E00134F4
:10866000032C11D8344B4FF0740C0CFB043393F8EB
:108670004C30002BF3D1304B0CFB0438002CE5D1EF
:108680002E4BC8F8703001E04FF00008B8F1000F31
:1086900032D0D8F87030002B4BD03B46424607F121
:1086A000300ED3F800C05C689868D968C2F800C082
:1086B00054609060D160103310327345F1D10023C3
:1086C000C8F85030A8F84E60012D18D06FF00103A3
:1086D000C8F82830002388F86C30194BC8F85C3093
:1086E000C8F86480174BC8F83830C8F840800120BB
:1086F00002F00AFA88F84C504046BDE8F081124B6F
:108700001B7D88F85530002388F8563088F857309C
:1087100088F85430BA6AC8F85820A8F85C306FF06E
:108720000103C8F82830094BC8F83830C8F8408031
:10873000DDE79846E0E700BF7C350020FC330020F1
:108740007B90020079840200E4330020AB880200B1
:1087500070B5C6B00E46154682782A44C37D2BB14B
:108760004FF48073934278D3002303E04FF4C07337
:10877000F8E70133032B14D83A4C4FF0740C0CFB80
:10878000034C9CF84C40012CF3D1BCF81440818A76
:108790008C42EED1BCF80E40C1898C42E9D108254B
:1087A00054E00121FFF738FF0446002857D02A463D
:1087B0003146006F20F052F90023459345A9204629
:1087C000FFF70EFD054608B1042842D1459B8BB941
:1087D000254B1B6813F0040F37D0244B1B68032B69
:1087E00033DDB4F84EC0BCF1800F28BF4FF0800CD1
:1087F000002313E02046FFF749FDE9E7226FD25C32
:108800001B490D68100959002E5C04A800F813607C
:1088100002F00F020131AA5C425401336345EDD3EB
:1088200004AA002302F81C3003F1804303F58833C7
:10883000D3F8043502920F4A01920F4A00924FF486
:10884000AC620E49042005F011FA0025284646B016
:1088500070BD2046FFF798FDF8E70925F6E70425E7
:10886000F4E700BF7C350020642E0020602E00203D
:10887000682E0020A0970400AC9504006F970400B8
:1088800070B504460D461646FFF773FE30B92378DF
:108890002BB1324629462046FFF75AFF70BD3246BB
:1088A00029462046FFF7C1FCF8E710B50C4691F8C1
:1088B0004C30012B09D109F083FA50B1002009F0A6
:1088C0003FFB022384F8483010BD7846FFF70EF9CD
:1088D000F1E72046FFF7FCFDF6E7000000B585B0A4
:1088E00000228DF80F20A0B10B46024602320A602A
:1088F0000DF10F01184604F0FAF89DF80F3043B15E
:108900000C4B1B6813F0040F03D00B4B1B68032B9D
:1089100004DC9DF80F0005B05DF804FB074BD3F8AD
:108920000435074A009240F215420649042005F03A
:108930009DF9EEE7642E0020602E0020001001401B
:10894000B09704006F9704002DE9F04391B00546FD
:108950000E4614461F46D0F8188003784BB1C388E2
:10896000C8F30C029A4230D29B1A4344A3F5005339
:10897000AB6105F10C00EB7853B30121AA780DF13E
:1089800030094B46082A14BF0022012204F0B3F834
:10899000C5F81880CDF810900596AB78E21A92B21F
:1089A000ADF8182032440A9209978DF82C30002334
:1089B000ADF82030EB78002B41D02B7B022B09D077
:1089C00000236B620193029316E09B1A4344CFE7A6
:1089D0000221D3E71023ADF820302B690793EFE78E
:1089E00010AB03EB840454F83C3C6B62002011B0E4
:1089F000BDE8F083019BB3B102AB01AA2979286AD3
:108A000011F00CFE0024012CF4D810AB03EB84030E
:108A100053F83C0C0028EDD003A9FFF75FFF0028B6
:108A2000DED10134EFE72B7B022B2CD105F10C01B9
:108A3000E88911F0D3FE0028BFD10520D7E72B7BB2
:108A4000012B01D00520D2E7EB89ADF80430AB8AC9
:108A5000ADF806300024012C13D82946002341F834
:108A6000243F10AB03EB440333F83C0C11F0FBFD47
:108A700003A9686AFFF732FF08B90134EBE7002069
:108A8000B5E70520B3E70520B1E7000070B5F0B009
:108A90000E4614461D4610AB0A4601462046FFF717
:108AA00053FF50B1224B1B6813F0040F03D0214B2E
:108AB0001B68052B2FDC70B070BD2046FFF78FFDC3
:108AC0000028F8D103AB01228DF80C20A28AADF862
:108AD0000E20002204928DF8142010AA0692A1788C
:108AE000711AADF81C1008AA93E8030082E803008D
:108AF0000AAB04F10C0292E8030083E80300A37DB3
:108B00008DF83830236A0C93636A0D930F9505A88E
:108B100000F0E8FCCFE7084BD3F80435074A009291
:108B200040F203720649062005F0A0F8C3E700BF33
:108B3000642E0020602E002000100140C497040025
:108B40006F97040038B504460D46CB695B78037116
:108B5000CB691B7883F00103C370CB6943628B8AB6
:108B60000B2B07D8CB7A002B35D10B7B012B02D0F6
:108B7000002300E001232370002B31D0287B022842
:108B80002BD0FFF75DF9A070AB8A03440B33174A73
:108B900082FB03235B10013B6372002323720023DB
:108BA000E37504F10C0395E8030083E80300AB6967
:108BB00023622B89A382AB7AA3752B6AA362DF237E
:108BC000E362284611F0DEFE20B12B78012B0AD09B
:108BD000FF23E36238BD0123CDE7054B987DD0E745
:108BE0000423A370DBE72023F3E700BFABAAAA2A84
:108BF000E4330020062979D1F0B585B0154690F808
:108C000000C04FEA8C1202F4FE5241788478C37897
:108C10001B0443EA0463047943EA042344791C43B4
:108C20004FFA8CF642EA91012846FFF7B9F8074659
:108C3000E0B1002E2FDBC289A98A8A422BD02C4BAF
:108C40001B6813F0040F30D02A4B1B68012B2CDD5E
:108C5000294BD3F8043502910192284A009240F240
:108C60007D622749022005F001F81EE0204B1B68B9
:108C700013F0040F19D01F4B1B68012B15DD1E4B81
:108C8000D3F804351F4A009240F279621C49022051
:108C900004F0ECFF09E0002E09DB3D6D25433D6546
:108CA0004CB903213846FFF78FFB05B0F0BDAB8A06
:108CB000A7F85C30F1E73B7883B17B7A5A1C01233B
:108CC0009340013B9D420DD0002187F85410384657
:108CD000FFF786FA3846FFF7D9FAE6E77846FEF757
:108CE00005FFEAE73846FFF7CDFBDEE7704700BF38
:108CF000642E0020602E0020001001402098040007
:108D00006F970400F09704002DE9F0438BB00746FD
:108D10000E4614461D461046FFF761FC50B994F804
:108D20000380B8F1000F08D12B4622463146384661
:108D3000FFF760FF0BB0BDE8F0834046FFF7BCF8DB
:108D400081460028F6D08DF80480236A0793A38A11
:108D5000ADF8123005AB04F10C0292E8030083E891
:108D60000300A37D8DF820300297039623788DF8B9
:108D70001030E36A0993294601A8C847DAE792F858
:108D800001C01CF0010F08D010B5D47D14B1FFF75D
:108D9000BBFF10BDFFF77AFEFBE7704708B501394E
:108DA0000130FFF7ECFF08BD10B54FF4E872002169
:108DB00015481FF07CFE06F075FA0024134B1C606A
:108DC0008022214612481FF072FE124B124A1A608E
:108DD000124A5A604CF250329A601149D9601A61B5
:108DE00004221A759C7508225A750E4803F016FD68
:108DF0000D4B18600D4B1C600D4806F051FD0D48E1
:108E000002F0AEFB10BD00BF7C350020C033002057
:108E100040330020E433002080969800F04902009F
:108E200020A107006D900200E0330020C433002031
:108E30005D7F0200482E002008B506F053FA08BDF9
:108E400098B110B58CB00446036983B1C36983B18E
:108E5000836983B101466846FFF774FEA28A2169DF
:108E60006846FFF70DFD0CB010BD0E2070470E20B8
:108E7000F9E70E20F7E70E20F5E7000058B310B52C
:108E800090B00A46044643683BB383693BB301464E
:108E900004A8FEF7DAFF134B1B6813F0040F03D08E
:108EA000114B1B68062B06DCA268616804A8FFF75B
:108EB000E7FC10B010BD0D4BD3F804352278A16942
:108EC000029101920A4A009240F6050209490720E0
:108ED00004F0CCFEE8E70E2070470E20E9E70E20F4
:108EE000E7E700BF642E0020602E00200010014044
:108EF000649804006F970400037B012B01D00020CD
:108F0000704730B591B004460D463F4B1B6813F0D7
:108F1000040F03D03D4B1B68032B5ADC04A800232D
:108F200004930593CDF81730B4F806E09DF81010BF
:108F300001F080018DF81010CEF3861C4CEA01017F
:108F40008DF810109DF8112002F003028DF8112009
:108F500042EA8E028DF811202A0E8DF812202A0C7A
:108F60008DF813202A0A8DF814208DF81550627898
:108F7000022A0CBF012119469DF8102002F07F0241
:108F80008DF8102042EAC1128DF810204FF0060231
:108F900009924FF001028DF82C20A28AADF82E2004
:108FA0000C938DF81C300890226A0D928DF82830B1
:108FB000E36A0F9319D0E389ADF82A30A37DF3B9A2
:108FC0008DF838306FF0010107A8FFF757FF11B097
:108FD00030BD0F4BD3F804350E4A009240F26322A5
:108FE0000D49042004F042FE98E70DF10E0103A89C
:108FF00011F010FCBDF80C30ADF82A30DEE7074B5D
:109000005B7D8DF83830DDE7642E0020602E002077
:1090100000100140909804006F970400E433002092
:1090200090F84C30022B00D0704710B5044690F8F1
:109030006C30022B00D010BD016DFFF75DFF0028E2
:10904000F9D1002384F86C30F5E7000010B5002456
:1090500006E0054B742000FB0430FFF7E1FF01340C
:10906000032CF6D910BD00BF7C35002008B5FFF7F2
:1090700031F9FFF7EBFF012008BD10B50C4691F860
:109080004C30022B06D1022384F86C302046FFF7C7
:10909000C7FF10BD7846FEF729FDF4E7F0B583B0B1
:1090A0000446C069A369E188060A0006C3F30C02FE
:1090B00091422FD98A1A1A44A2F50052851846F116
:1090C00000062A463346A08AFEF7B8FD002840F085
:1090D000B6802046FEF796FE074630B3C269D0F848
:1090E00018C0C388100A1206CCF30C01994214D29E
:1090F000591A6144A1F50051521840F10003AA42E7
:1091000073EB06010DD3954276EB03033BD3384650
:1091100003B0F0BD891ACA18D0E75B1A03EB0C0143
:10912000EAE705213846FFF74FF9E388E269A169CC
:10913000A08A06F0BDF9002841D108F041FE0028C0
:1091400058D1627A0132E37D002B57D0082101FB10
:1091500002F2002B54D04FF48073934253D3022178
:109160002046FFF759FA07460028D0D108F028FE1C
:10917000002860D100212046FFF7BEFE022100201A
:10918000FEF7BCFEC3E708F01BFE40B12D4B1B6889
:1091900013F0040F03D02C4B1B68012B01DC0027BC
:1091A000B5E72A4BD3F80435E2880192284A0092A9
:1091B00040F237322749022004F058FDEFE7E388F8
:1091C000E269A169A08A06F0EBF908B900279EE7D9
:1091D00023785BB1617A4B1C01219940013920460B
:1091E000FFF78AFE2046FFF7FAF9EFE77846FEF729
:1091F0007DFCEFE70520FFF725F9A2E70C21A6E7A4
:109200004FF4C073A9E70F4B1B6813F0040F03D092
:109210000D4B1B68002B01DC002778E70B4BD3F8C4
:10922000043501920C4A009240F27F320949012034
:1092300004F01CFDF0E77846FEF758FC9AE700279B
:1092400065E700BF642E0020602E00200010014062
:10925000A09804006F970400CC9804002DE9F04119
:1092600082B007460E46144698461046FFF716FF92
:10927000002844D00546444B1B6813F0040F03D06C
:10928000424B1B68032B3DDC08F09AFD002847D0B9
:109290002B6D217A01228A40134230D113432B6572
:1092A000043E237AE27D002A48D04FF0080C0CFBE4
:1092B00003FC697A8B4244D0002A47D00823B3428A
:1092C00046D1AA69A3699A4209D205F10C0E0C3461
:1092D0000FCCAEE80F0094E803008EE80300286F7F
:1092E0003246391D60441FF0B9FB2C6D2B78A3B3B7
:1092F0006B7A5A1C01239340013B9C4231D002B04F
:10930000BDE8F081224BD3F80435227A0192214A3C
:10931000009240F2A3322049042004F0A7FCB3E7F6
:109320002846FEF7FDFF2B7B012BB1D195F86C3061
:10933000002BADD12846FFF709F8A9E74FF00C0C38
:10934000B5E70CEB0603A5F84E30BAE70C23B6E7F9
:1093500004212846FFF738F8D1E77846FEF7C6FB28
:10936000C6E708F02DFD50B143462A46B5F84E1029
:10937000286FFFF704FD2846FFF706F8BFE7296DC1
:109380002846FFF7B9FDEFE7642E0020602E00208D
:1093900000100140E09804006F9704002DE9F041AF
:1093A00090B000284FD00F4614461E468046002A33
:1093B0004BD004AB00933346FEF7E8FD054618B1E9
:1093C000284610B0BDE8F08104A8FFF7D2F80546A2
:1093D0000028F5D1204608F017FE002302930393DE
:1093E00002A9608811F0FAF928B19DF8113043F014
:1093F00001038DF811302269E168208906F010F828
:1094000038B19DF8113003F0FE038DF81130002BB8
:10941000D6D09DF81130002BD2D013F0010F01D01F
:10942000039B08939DF8103033B1334604AA3946A4
:109430004046FFF713FFC3E7334604AA39464046C8
:10944000FFF7ACFCBCE70E25BAE70E25B8E7000035
:1094500020B3F8B50E460546164B1F68022F1FD8DD
:109460000024B4420FD205EBC4035B68D3B115F8F6
:10947000340015F93430002B16DBB8B1FEF71CFDB3
:10948000B0B90134EDE70C4B43F8375003EBC70399
:109490005E600137074B1F60002002E00E2070471E
:1094A0000420F8BD0E20FCE70B20FAE70F20F8E7B8
:1094B0000F20F6E7C4330020C8330020084B19689A
:1094C00061B110B501E021463CB10C680B79002B6D
:1094D000F9D0034804F034FBF5E710BD704700BF36
:1094E0005037002038B5054630B1104B1C68C4B168
:1094F0000F4B01221A7004E07846FEF7F7FAF4E702
:1095000024683CB12379002BFAD154F8043C284656
:109510009847F5E7064B1B78022B03D0044B00223B
:109520001A7038BDFFF7CAFFF8E700BF50370020B8
:109530004C37002010B5044630B100232372211DA2
:10954000034804F0D2FA10BD7846FEF7CFFAF4E7EC
:109550005037002010B5044658B10A4B1B78013B28
:10956000DBB2012B09D8074B02221A7001232372A8
:1095700010BD7846FEF7BAFAEFE7211D024804F065
:10958000DFFAF5E74C370020503700200A8883685F
:109590009B5A07339BB223F0030313449BB2028808
:1095A000043A934200D900230B80704710B582B073
:1095B00004468368C91AADF806100DF10601FFF7DD
:1095C000E5FFBDF80630A068184402B010BD008861
:1095D000043880B2704743888268D018D152012382
:1095E0008370704782680023937043808380704744
:1095F00008B5073189B221F0030189B24288838816
:109600009A4204D29B1A994220DC002008BD9A425B
:1096100012D9B0F800C0ACEB020C614518D98B42EE
:1096200018D3BCF1030F03D98368134404229A7042
:10963000002343801846E9E7826813449B780BB106
:109640000420E3E7FFF7CEFF0020DFE70420DDE79B
:109650000020DBE70420D9E738B504460D468368CF
:10966000828813448B4202D07846FEF73FFA0023EB
:10967000AB70211D2046FFF789FFA288A368134421
:109680009B78042B00D038BD0023A380FBE710B5E6
:109690000C468368428813448B4202D07846FEF71A
:1096A00025FA0023A37010BD70B5054614460E467A
:1096B000002944D0002D46D0B6F1005F08D94FF004
:1096C0008053D3F80C3103F50023B6EB832F0ED370
:1096D000B6F5000F08D94FF08053D3F80C3103F5DD
:1096E0000053B6EB832F02D37846FEF7FFF9631ED3
:1096F0003344B3F1005F08D94FF08052D2F80C2107
:1097000002F50022B3EB822F0ED3B3F5000F08D978
:109710004FF08052D2F80C2102F50052B3EB822FA9
:1097200002D37846FEF7E2F9042C10D92C800023EE
:109730006B80AB80AE60043C3480B37070BD784603
:10974000FEF7D4F9B6E77846FEF7D0F9B4E77846E5
:10975000FEF7CCF9EAE738B50446A0B16288A36801
:1097600013449B78012B12D0EFF3108572B6A388B7
:10977000A16819448B78032B0DD02046FFF732FFE8
:1097800005B962B638BD7846FEF7B0F9E6E7784627
:10979000FEF7ACF9E8E72046FFF708FFA368C31A15
:1097A000638000238370EBE72DE9F0410E461446F9
:1097B0000546D0B1EEB16A88AB6813449B78012BA3
:1097C0001BD024B32846FFF702FFA04221D3EFF3BA
:1097D000108872B621462846FFF70AFF074680B177
:1097E000B8F1000F16D162B614E07846FEF77EF9A4
:1097F000E0E77846FEF77AF9DDE77846FEF776F996
:10980000DFE721462846FFF7E6FE3060E8E7092754
:1098100000E009273846BDE8F081F8B50C4615464A
:109820000646E0B1FCB1A378012B20D12388AB42DE
:1098300021D325B3EFF3108772B625800223A370DE
:10984000F1183046FFF7A2FE7388B288934203D026
:10985000B268134400229A7007B962B6F8BD784620
:10986000FEF744F9DEE77846FEF740F9DBE7784695
:10987000FEF73CF9DAE77846FEF738F9D9E778469B
:10988000FEF734F9D6E770B50C46054690B1ACB199
:10989000EFF3108672B6AA88AB6813449A78042A4C
:1098A00010D09A78022A15D0032A18D0052006B9BC
:1098B00062B670BD7846FEF719F9E8E77846FEF71C
:1098C00015F9E5E7291D2846FFF760FEAA88AB6871
:1098D0001344E6E703229A7023600020E7E7784606
:1098E000FEF704F90020E2E738B5044680B1EFF353
:1098F000108572B6A088A16801448B78042B0BD028
:109900008878022814BF0020012005B962B638BD4E
:109910007846FEF7EBF8EAE72046FFF747FE0146F8
:10992000EEE738B5054630B1EFF3108472B6A8887B
:10993000A968014407E07846FEF7D8F8F4E728461E
:10994000FFF734FE01468878C31EDBB2012BF6D93F
:10995000022814BF0020012004B962B638BD70B5DA
:109960000C46064678B194B1EFF3108572B6A37831
:10997000012B10D0032B13D121463046FFF76CFE8C
:1099800005B962B670BD7846FEF7B0F8EBE77846E9
:10999000FEF7ACF8E8E721463046FFF778FEEFE740
:1099A0007846FEF7A3F8EBE710B5EFF3108472B634
:1099B0008388816819448B78042B06D08878B0FAA4
:1099C00080F0400904B962B610BDFFF7EFFD014613
:1099D000F4E70000024B00221A769A6002207047DA
:1099E0005437002008B5064B986800221A605A6068
:1099F0009A60DA601A615A619A6105F0FFF808BD51
:109A00005437002000B585B00A4BDB6802228DF880
:109A1000002001934FF480530293074A69460120C6
:109A200001F002FB18B9012005B05DF804FB00202D
:109A3000FAE700BF543700207237002000B585B028
:109A40000A4B1B6802228DF8002001934FF48053CB
:109A50000293074A6946012001F0E6FA18B901208D
:109A600005B05DF804FB0020FAE700BF7437002062
:109A700072370020164BDA68137951795B1A03F5B7
:109A80007F2303F6FF7302EB03339A4205D002F5FE
:109A900080520F4BDA600320704700B585B00D4B44
:109AA0001B6801208DF8000001930B4B03930423E6
:109AB00002930A4A694601F0B7FA18B1002005B0CE
:109AC0005DF804FB024B01221A760220F7E700BF83
:109AD0005437002074370020783700207237002078
:109AE00000B585B00C4BDA680C4B1B6804330120C1
:109AF0008DF800000192039340F6FC730293084A2C
:109B0000694601F091FA28B90120034B187605B097
:109B10005DF804FB0020FAE754370020743700207A
:109B20007237002000B585B00A4B1B6801208DF804
:109B300000000193084B039304230293074A6946EC
:109B400001F072FA18B9012005B05DF804FB00209D
:109B5000FAE700BF7437002060370020723700201A
:109B600010B584B0104BDA681478104B1B680433BE
:109B700001208DF800000193039202940C4A69467B
:109B800001F052FA70B9094B1B6804F0FC041C4444
:109B90000434054B5C61D9680A780A441A610120D3
:109BA00004B010BD0020FBE75437002074370020BC
:109BB0007237002008B500230A2B09D8064A52F84C
:109BC0002320824201D00133F6E7044A536002E0C9
:109BD0007846FDF78BFF08BD6C99040054370020D0
:109BE00010B5214BDB6853B11F4B1B7E5BB91E4B7D
:109BF0005B680A2B26D97846FDF778FF22E0784685
:109C0000FDF774FFF0E77846FDF770FFEFE7164ABF
:109C10005368013353600A2B21D97846FDF766FF5C
:109C20001DE0114B00225A6019E00F4B1B7E1BB147
:109C30000D4B02221A7012E0FFF7D4FE0FE00A4B20
:109C40001B7E83B9084B5A68084B53F8223098475B
:109C500004460228E9D00328E3D00128D7D0012CFC
:109C6000EDD0032CEBD010BD543700206C990400CC
:109C7000104B1B681B685A1E12F1030F18D8C3F350
:109C80000B020AB10020704710B50B4AD3600023C5
:109C9000137653760124147093600848FFF78AFF07
:109CA0000749204601F0AEF9FFF79AFF204610BDA4
:109CB000002070477437002054370020059A0200B6
:109CC000C59C020008B50B78032B06D00B4B1B7804
:109CD000012B06D0022B0BD008BD084B00221A76B0
:109CE000F4E7064B1B7E002BF6D1FFF779FFF3E775
:109CF0000B78032BF0D1FFF775FEEDE7543700200A
:109D000000B585B0174BDB6818784FF6FF7203F586
:109D10008051184405F07AFDE0B10246114BD96834
:109D20000B780B44984217D00E4B5B7E83B10E4BE1
:109D300001208DF8000001920393042302930B4A43
:109D4000694601F071F948B90120064B187606E022
:109D5000074BEDE7012002E0012000E0002005B004
:109D60005DF804FB54370020909B040072370020FC
:109D70008C9B040008B5104BDB681878002203F5B3
:109D80008051184405F042FD08B1012008BD0A4B7E
:109D9000DA68137951795B1A03F57F2303F6FF73B1
:109DA00002EB03339A4205D002F58052024BDA608F
:109DB0000320EBE70220E9E754370020F0B585B037
:109DC000514BDE6872793379591E8A4214D006F5F8
:109DD00080510D780D444D490968081D0F790744DD
:109DE0009B1A06EB03366B88013B9BB247F6FE627B
:109DF000934260D92C461AE00120434B58767EE00E
:109E00007846FDF773FE15E024F47F6424F00F0418
:109E100004F5805423781C44A6421CD9A5421CD2C8
:109E20006388013B9BB247F6FE62934211D92388B7
:109E3000002BE5D0238804EB830323F47F6222F018
:109E40000F029342E0D06288B2F5FE4FDCD01C4690
:109E5000E2E725462FE000252DE000252BE078469F
:109E6000FDF744FE15E024F47F6424F00F0404F5AC
:109E7000805423781C44A6421CD9A54237D263885B
:109E8000013B9BB247F6FE62934211D92388002B17
:109E9000E5D0238804EB830323F47F6222F00F02D2
:109EA0009342E0D06288B2F5FE4FDCD01C46E2E778
:109EB000254600E00025E5B1144B19686A8801F5D4
:109EC0008051384605F0A2FC074690B101200E4BA8
:109ED00018768DF8000001950D4B0393042302932F
:109EE0000C4A694601F0A0F858B92C46CEE7002587
:109EF000E1E7B5FA85F56D09034B5D76012005B004
:109F0000F0BD0020FBE700BF54370020743700206D
:109F1000889B0400723700202DE9F04186B0654B24
:109F20001B6923B1634B5B692BB1002748E078467E
:109F3000FDF7DCFDF6E77846FDF7D8FDF5E7A0462E
:109F400018E07846FDF7D2FD18E028F47F6828F085
:109F50000F0808F5805898F800309844454520D9F6
:109F600044454AD2B8F80230013B9BB247F6FE6244
:109F7000934214D9B8F80030002BE2D0B8F8003082
:109F800008EB830323F47F6222F00F029342DCD0BC
:109F9000B8F80220B2F5FE4FD7D09846DEE7444627
:109FA00000E000243CBB00230093019B002B5CD10C
:109FB0000127002C78D0628847F6FF739A4273D04D
:109FC000002F75D13B4B5A6922F47F6626F00F06AD
:109FD000B61A06F580561C69DD682B796A799B1ADA
:109FE00005EB0335002301936388013B9BB247F6E1
:109FF000FE629342A3D800940EE00024D2E7784694
:10A00000FDF774FD23E024F47F6424F00F0404F5CD
:10A010008054237823441C46A542C6D92388019A3C
:10A0200002EB83029642C0D9009B634023F47F6316
:10A0300023F00F03002BB8D16388013B9BB247F696
:10A04000FE618B42B1D801922388002BD7D02388A0
:10A0500004EB830323F47F6222F00F029342D2D0F9
:10A060006288B2F5FE4FD6D1CDE7124A526901207F
:10A070008DF808000392009A059204930E4A02A9F3
:10A0800000F0D2FF70B90B49019B23F003024B692A
:10A0900013444B6114B1074B1C618AE77846FDF706
:10A0A00025FDF8E7002000E0012006B0BDE8F081C2
:10A0B0000120FAE7543700207237002000B585B040
:10A0C0000023294A1370D3F8F83FB3F1FF3F09D0BA
:10A0D000B3F1FF3F0DD08BB1B3F1FF3F39D0A3F502
:10A0E000805211E04FF010225269B2F1FF3FEFD1E0
:10A0F00004E04FF010225269002AEDD14FF0805356
:10A100005A691B6903FB02F2A2F58052174B1A60D1
:10A11000174B1B6813F4801F16D0164B1B68062BB9
:10A1200012DD154BD3F804350021D1F8F81FB1F139
:10A13000FF3F14D002920191104A009240F2762221
:10A140000F49072003F092FDFFF792FD05B05DF87F
:10A1500004FB4FF010235A69A2F58052D4E74FF068
:10A1600010214969E6E700BF7037002074370020EE
:10A17000642E0020602E0020001001403899040059
:10A180001F99040010B50446B0B1104B1B78BBB149
:10A190000E4BD968E3685879A3EB0032914211D392
:10A1A0001A79121A02F57F2202F6FF7203EB0233CC
:10A1B000994209D8012004E07846FDF797FCE4E7CE
:10A1C000002010BD0020FCE70020FAE754370020F3
:10A1D000024B1878003818BF012070475437002010
:10A1E00010B50446124B1B78BBB92378032B18D14A
:10A1F0000F4B9C60E268DA600E4B1B78ABB10A2211
:10A200000B4B5A6000221A76012018705A760A49C0
:10A2100000F0F8FEFFF7E4FC10BD7846FDF766FCA1
:10A22000E3E77846FDF762FCE2E70022E8E700BFDB
:10A230005437002070370020C59C0200014B18687D
:10A24000704700BF7437002010B5044680B16368C2
:10A250001BB123680BB1A36813B97846FDF746FC20
:10A26000A3685A1E134207D10023E360236110BD87
:10A270007846FDF73BFCEAE77846FDF737FCF3E765
:10A2800070B508B30E4604468368FBB1EFF3108542
:10A2900072B60369C268934212D00168426880684E
:10A2A00000F1FF3C03EA0C0303FB021116B1304638
:10A2B0001EF0D4FB2369013323614DB962B608E077
:10A2C00005B962B6052504E00E2502E0092500E087
:10A2D0000025284670BD00000246C0F30B0030BBCD
:10A2E00039B301F6FF714FEA113C134B0221C3F859
:10A2F0000415114BD3F80034002BFAD001460AE0C4
:10A300000D4BC3F808250C4BD3F80034002BFAD0C2
:10A3100002F5805201316145F2D3074B0022C3F8A8
:10A320000425054BD3F80034002BFAD070471020D9
:10A3300070470920704700BF00E00140844610F0DC
:10A34000030F2DD111F0030F2CD16AB312F0030FBC
:10A350002CD19008164B0122C3F80425144BD3F8D6
:10A360000034002BFAD003E00CF1040C0431104649
:10A37000421E58B10B68B3F1FF3FF5D0CCF8003066
:10A380000B4BD3F80034002BFAD0EDE7084B00223A
:10A39000C3F80425064BD3F80034002BFAD07047DD
:10A3A000102070471020704709207047092070471F
:10A3B00000E00140094B1B7813F0040F02D0037832
:10A3C000122B00D07047064B1A68064B5A60034B9D
:10A3D0001A786FF382021A70F4E700BF2038002069
:10A3E00010380020AC37002010B582B001900C4628
:10A3F000BDF80630012B11D123680A490B600A4BC6
:10A400001A7842F001021A70D3B25B0883F001039C
:10A4100003F001030B71002002B010BD7846FDF778
:10A4200065FBE9E7103800202038002010B582B025
:10A4300001900C46BDF80630022B0FD12268094B63
:10A440001A6022791A71002058719871D871064AE1
:10A45000137843F00203137002B010BD7846FDF785
:10A4600045FBEBE7083800202038002010B582B00B
:10A4700001900C46BDF80630032B06D1054B186839
:10A4800020601B79237102B010BD7846FDF72EFBCA
:10A49000F4E700BF1038002010B582B001900C46E0
:10A4A000BDF80630032B0CD1084B206818602279C8
:10A4B0001A71074A137843F001031370002002B0A9
:10A4C00010BD7846FDF712FBEEE700BF1038002004
:10A4D0002038002010B582B001900C46BDF806303F
:10A4E000042B05D1044B03CB2060616002B010BD8A
:10A4F0007846FDF7FBFAF5E70838002010B582B082
:10A5000001900C46BDF80630042B0BD1074B206898
:10A51000616803C3064A137843F0020313700020F6
:10A5200002B010BD7846FDF7E1FAEFE708380020E9
:10A530002038002000B583B00190BDF80630032B11
:10A5400006D1054B00221A601A7103B05DF804FBB6
:10A550007846FDF7CBFAF4E71038002000B583B059
:10A560000190BDF80630042B06D1054B00221A607D
:10A570005A6003B05DF804FB7846FDF7B7FAF4E7DC
:10A580000838002000B585B01A4B1B7813F0400F37
:10A5900013D0184B1B7813F0040F0BD10023019339
:10A5A0008DF80830144B5B6803F500530193B3F149
:10A5B000807F06D905B05DF804FB7846FDF796FA72
:10A5C000E7E70E4B1B788DF808300A4A137843F002
:10A5D000040313700023ADF80C300323ADF80E30E4
:10A5E00001A9039806F0EEFA0028E3D07846FDF7BB
:10A5F0007DFADFE720380020AC370020213800202A
:10A6000000B585B00022019202920F4B996801912A
:10A610001B7B8DF808300D490B780133DBB20B70D2
:10A620008DF80B30ADF80C200423ADF80E300DEB97
:10A630000301039806F0C6FA10B905B05DF804FBF3
:10A640007846FDF753FAF8E7AC37002021380020B0
:10A6500000B585B00023019302930F4A91680191E0
:10A66000117B8DF80810128AADF809200B4A127878
:10A670008DF80B20ADF80C300423ADF80E300DEB47
:10A680000301039806F09EFA10B905B05DF804FBCB
:10A690007846FDF72BFAF8E7AC3700202138002088
:10A6A00000B58DB00B4B1B7B012B0ED0094A926875
:10A6B00004928DF80830039002238DF8043001A82D
:10A6C000FEF710FF0DB05DF804FB024A9268013AF4
:10A6D0000492EEE7AC37002008B51D481D4B03601F
:10A6E00000F03EFF1C4B1B7813F0200F2AD103F023
:10A6F0000303032B14D1194B1968194A9160197976
:10A700001173B3F805001082DB79164A1370164AEC
:10A710001279934217D0B1B9114B00221A6007E0A9
:10A720000F4B00221A609A601A731A82FFF768FFB3
:10A730000B4B1A685A60084A137843F040031370B1
:10A74000FFF720FF08BD084B1A68054B1A60EFE7BA
:10A75000FC370020B5A30200203800200838002074
:10A76000AC370020213800201038002010B582B00E
:10A770000024ADF800400123ADF80230009806F047
:10A7800052FAADF804400223ADF80630019806F005
:10A790004AFA02B010BD000008B5002006F06AFABF
:10A7A000094A0023136053609360D3601361074A22
:10A7B000117863F345111170CBB243F0400313706D
:10A7C000FFF7E0FE08BD00BFAC37002020380020B6
:10A7D00038B50C4D00242C606C60AC60EC602C61D2
:10A7E00001F0C2F9084B5860084A9A60084ADA60DA
:10A7F0001C615C61074B1A7864F3C3021A706C60C9
:10A8000038BD00BFAC3700208837002071A9020096
:10A81000008793032038002008B50C4B1B7813F0F9
:10A82000100F00D008BD0A480A4B036000F098FEE4
:10A83000FFF752FFFFF79AFF074801F019F9034AA3
:10A84000137843F010031370ECE700BF20380020AA
:10A85000A0370020C9AA020088370020034B1878CF
:10A86000800880F0010000F00100704720380020CF
:10A8700010B501F055FF174B1B7B1BBB154B9B7B8A
:10A880002BBB144B1A8A41F282639A4206D8124BB0
:10A890001B7813F0080F05D0012300E001231BB93A
:10A8A000082410E00023FAE70A4B01221A7300245F
:10A8B0001C829A6801329A60FFF7A2FE2046FFF7D9
:10A8C000EFFE00E0082401F071FF204610BD0824CF
:10A8D000F9E700BFAC3700202038002010B501F0A8
:10A8E0001FFF214B5B7BABB11F4B9B7B03BB1E4B05
:10A8F0001A8A41F282639A4206D81C4B1B7813F0E5
:10A90000080F05D0012300E001239BB1012302E0E1
:10A910000023FAE700231C460BB3134B00225A73A3
:10A920001B7B4BB1012B0ED07846FDF7DFF816E00C
:10A930000023F0E70023EEE7FFF79AFF78B17846AF
:10A94000FDF7D4F80BE0084B00201860586018732E
:10A950001882FFF7A5FEFFF753FEFFF713FE01F085
:10A9600025FF204610BD00BFAC3700202038002056
:10A9700008B52C4B1B7BDBB1012B2ED07846FDF7A5
:10A98000B5F8284A138A01339BB21382264AA2FBE8
:10A9900003121209C2EB0212A3EB42039BB2002B7B
:10A9A0003DD0204B5B8A13B1013B1E4A538208BD48
:10A9B0001C4B1A8A41F282639A4206D81B4B1B78C1
:10A9C00013F0080F07D0012300E00123002BD8D09B
:10A9D000FFF784FFE5E70023F8E7124B1B8A41F2FB
:10A9E0008262934206D8114A127812F0080F14D0EE
:10A9F000012200E00122002AC3D042F2B0129342A9
:10AA000002D9084B01225A73FFF768FF0028C8D10A
:10AA1000044B5B7B012BB4D1C3E70022EBE7FFF7CC
:10AA200017FEBEE7AC3700208988888820380020D0
:10AA300010B5244B1B7B002B35D10446214B5B8A80
:10AA40002BBB1AB91F4B9B688B4205D3FAB11D4B28
:10AA50009B6801338B421AD21A4B9B682A338B4274
:10AA600023D3184B9B7B03BB164B996000221A60C3
:10AA70005A601A8242F6065159825A731A73FFF7C6
:10AA8000BFFDFFF77FFD2046FFF70AFE0DE062B134
:10AA90000C4B9B6801338B4207D10A4B01225A733E
:10AAA000FFF71CFF01E0012B00D010BD002AFCD1F4
:10AAB000044B9B688B42F8D1024B01225A73FFF77B
:10AAC0000DFFF2E7AC37002010B50378042B02D05D
:10AAD000162B11D010BD42681278002AF8D0846875
:10AAE000027E437E012A14BF00220122416904F143
:10AAF0001000FFF79DFFEDE7037A427AC16800205E
:10AB0000FFF796FFE6E7000008B538B10D4B0122CC
:10AB10009A730D4A13680133136008BD0A4B1B6812
:10AB20005BB1094A1368013B1360002BF5D1054B5B
:10AB300000229A73FFF7D2FEEFE77846FCF7D6FFC4
:10AB4000EFE700BFAC3700207C37002000B58DB0A8
:10AB5000ADF808008DF81020039103238DF8043020
:10AB600001A8FEF7BFFC0DB05DF804FB014B98682F
:10AB7000704700BFAC370020054B1B7B012B02D078
:10AB8000034B98687047024B98680138704700BFC4
:10AB9000AC3700201D4B1B7813F0400F34D070B53C
:10ABA00004460D461A4B1A685B689A4228D2184B25
:10ABB0001B7B012B17D0174B9A4216D2144B1A68E5
:10ABC0005B68403B9A4218D2EFF3108672B6104A87
:10ABD0001368591C11602B60FFF7CEFF206006B987
:10ABE00062B6002070BD0C4BE6E7094B01225A7398
:10ABF000FFF774FE0028E7D1E0E7FFF7C3FCE3E7C7
:10AC0000FFF7C0FC0F20EDE70F2070472038002031
:10AC1000AC370020FFFF7F0000E0FF00044B9B6883
:10AC2000584010F0010F00D0013B1846704700BF9C
:10AC3000AC370020014B187B704700BFAC370020B9
:10AC4000F8B5104B1B7813F0200F01D00820F8BD89
:10AC500017460C4E43F0200333700B4DA860297348
:10AC600000242C82FFF7CCFC2046FFF719FD2F6053
:10AC70006F60337843F040033370FFF783FC204666
:10AC8000E5E700BF20380020AC37002008B50022DF
:10AC9000FFF7D6FF08BD00002DE9F041002625E0B2
:10ACA000134604FB03F3244AD25A3046C0472249D4
:10ACB000BC2304FB03F3CA5A0132CA5202212846BC
:10ACC00002F054FD01370221284602F01FFD014623
:10ACD00049B1194BBC2202FB0433D3F80880B8F108
:10ACE000000FDDD1E3E797B90136F6B2022E1FD887
:10ACF0003446BC2306FB03F308330F4D1D440435D3
:10AD00000221284602F002FD01460027E0E728461E
:10AD100002F094FD0828E7D1074BBC2202FB043463
:10AD2000A368002BE0D00022044930469847DBE7B7
:10AD30000120BDE8F08100BF2C380020A899040054
:10AD400008B5082383731023437300F11C03436188
:10AD50000323037300F1180303610C3002F040FD7C
:10AD600008BD000008B50378012B06D0022B07D0E0
:10AD70007846FCF7BBFE002003E04FF4A97000E02A
:10AD8000004808BD645E010008B50378012B07D0B8
:10AD9000022B13D07846FCF7A9FE4FF4FA7308E0B3
:10ADA00083685B1A9B084FF4A97000FB03F303F55B
:10ADB000FA730748984228BF184608BD83685B1A93
:10ADC0001B0B044800FB03F303F5FA73F1E700BF24
:10ADD00060850100645E010038B5044601210C3035
:10ADE00002F094FC054678B1084BC4F89C3000236F
:10ADF000C4F8A0306168FFF7C7FFC4F8A800C4F822
:10AE0000AC40012384F8B830284638BD2DAF02008D
:10AE100010B50446FFF7E0FF20B104F19C0010F0EC
:10AE200061FB00B910BD7846FCF760FEFAE7000050
:10AE3000F8B505460C46164617680378012B19D15C
:10AE40001249A1FB0431C9098B00AC68E41BB4EBC7
:10AE5000810F00D31C468CB1686827F00307E968AE
:10AE6000224639443844FFF769FA58B93368234415
:10AE70003360F8BD7846FCF739FEE1E77846FCF729
:10AE800035FEE9E77846FCF731FEEFE7EB5DF2606F
:10AE9000F8B506460C46154617680378022B17D1FD
:10AEA000114BA3FB04231B0C1A03B468E41BB4EB83
:10AEB000033F00D314467CB1706827F00307214696
:10AEC0003844FFF709FA58B92B6823442B60F8BDC2
:10AED0007846FCF70BFEE3E77846FCF707FEEBE766
:10AEE0007846FCF703FEEFE7B77609BB38B50546B1
:10AEF0000C4611462378012B06D0022B0FD0784642
:10AF0000FCF7F4FD002004E0021D2046FFF790FF4F
:10AF1000A0686B68834214BF0020012038BD021D69
:10AF20002046FFF7B5FFA068F3E700002DE9F843DE
:10AF30000F46D1F8A850254B1B786BB90446A5F5F0
:10AF4000FA7501F10C080121404602F0DFFB0646CC
:10AF500048B14FF0000922E010F000FB002387F811
:10AF6000B830BDE8F8837846FCF7C0FDF1E710F093
:10AF7000F5FA0121404602F0F9FB00237B6087F8D7
:10AF8000B830134B186801F069FC3846FFF740FFF2
:10AF9000E7E73046FFF7E6FE4844A8420FD8A5EBA6
:10AFA000090231463846FFF7A1FF0028DFD101F042
:10AFB0007FFAB0EB0409ECD5A4EB0009E9E710F047
:10AFC000CDFA3846FFF724FFCBE700BF2838002032
:10AFD0002438002010B5084801F020FC074B186009
:10AFE000002406E0064BBC2000FB0430FFF7A8FE5F
:10AFF0000134022CF6D910BD99AC0200243800208F
:10B000002C38002038B504460D46022805D80548DE
:10B01000BC2303FB0404A56038BD7846FCF766FD3D
:10B02000F5E700BF2C3800202DE9F84305460C4613
:10B030001746022816D8CCB12378012B1AD0022B40
:10B040003ED16368C3F30B03002B31D1A368C3F374
:10B050000B03002B30D1A368002B34D17846FCF7CA
:10B0600045FD30E07846FCF741FDE4E77846FCF723
:10B070003DFDE1E7636813F0030F0DD1E36813F0C2
:10B08000030F0DD1A36813F0030F0DD1A368D3B93B
:10B090007846FCF72BFD16E07846FCF727FDEDE738
:10B0A0007846FCF723FDEDE77846FCF71FFDEDE75A
:10B0B0007846FCF71BFDC9E77846FCF717FDCAE7A1
:10B0C0007846FCF713FDEFF3108872B6BC2605FB3B
:10B0D00006F606F108032A4E1E44043600213046C7
:10B0E00002F014FB814678B30021304602F03EFBAB
:10B0F00020686168A268E368C9F80000C9F8041014
:10B10000C9F80820C9F80C302FB11D4BBC2202FB36
:10B1100005335B883B801A4BBC2202FB05335A88FF
:10B1200001325A8093F8B83083B9164B1B7813B1AB
:10B130000024A1460CE0124BBC2000FB0530FFF7B9
:10B140004BFE8146002403E0042401E00024A146D4
:10B15000B8F1000F00D162B6B9F1000F09D0BC20E0
:10B1600005FB00F09830064D2844043010F0BAF981
:10B1700010B92046BDE8F8837846FCF7B7FCF8E73D
:10B180002C3800202838002038B50446EFF310850D
:10B1900072B610B9164B1B6873B18CB1144A1368A0
:10B1A00001331360124B1B68003B18BF0123114A87
:10B1B000137005B962B638BD7846FCF797FCECE72A
:10B1C0000B4B1C68013C1C600CB1EBE70134022CFA
:10B1D000E8D8094BBC2202FB043393F8B830002BAB
:10B1E000F4D1054B02FB0430FFF712FEEEE700BF7F
:10B1F000603A0020283800202C38002018B1830B3A
:10B20000024AD05C70470020704700BFB899040024
:10B2100012DF704700B583B001F080FF40B10C4BE6
:10B220001B6813F0400F03D00A4B1B68012B02DC94
:10B2300003B05DF804FB084BD3F804350190074ACE
:10B24000009275220649022002F010FDF0E700BFCF
:10B25000642E0020602E002000100140E8990400B8
:10B26000DB99040000B58DB0104B1B78022B06D083
:10B270007846FCF73BFC01200DB05DF804FBFFF7BE
:10B28000EDFA18B90A48FEF755F9F4E7074B03221F
:10B290001A702C22002101A81DF009FC1D238DF835
:10B2A000043001A8FEF71EF9E5E700BF683A002068
:10B2B000542E00200B4B1B78042B00D0704700B598
:10B2C0008DB0084B05221A702C22002101A81DF018
:10B2D000EEFB1C238DF8043001A8FEF703F90DB036
:10B2E0005DF804FB683A002008B50378122B00D003
:10B2F00008BD0448FEF72EF9034B186801F0AEFABA
:10B30000F6E700BF542E0020643A002010B58AB042
:10B3100010F0D0FE70B3044600238DF810300DF10C
:10B32000140C8646BEE80F00ACE80F00DEF80030D3
:10B33000CCF80030627D052A04D9237D03F00F0389
:10B34000072B1ED1164B1A688AB104AB0393237DD9
:10B35000C3F303038DF80430637D062B1BD9063B32
:10B360008DF8053004F11D03029301A89047204693
:10B3700010F07EFE10F0BAFE80F00100C0B20AB0FC
:10B3800010BD207D04AB063A04F11D0100F00F0052
:10B390000FF06AFBD6E700238DF805300293E4E74F
:10B3A0006C3A002070B582B0314B1B78002B54D121
:10B3B0000446002855D0067A0F2E01D0062E52D111
:10B3C00007F070FCE06870B1FCF7A2FB0DF107001C
:10B3D000FFF71EFF0546002840D19DF80730012BDE
:10B3E00004D002253AE0FCF7A1FBEFE7FCF7C2FB33
:10B3F00000F026FB304601F031F9E07800F040F92A
:10B4000000F020FF0FF0F0FF1A4810F00BFF0FF0D4
:10B41000D7FC0FF00BFBFFF7DDFD05F097FB00F00D
:10B420006DFD07F0FFFB07F09BF9204601F080FD62
:10B43000FDF7BAFC04F0AEFDFCF7A6FA08B1062849
:10B4400013D10D4801F0EAF90C4B18600C4B0022A7
:10B450001A60074B01221A7000E00825284602B046
:10B4600070BD0E25FAE70725F8E70546F6E700BFA9
:10B47000683A00200DB3020065B20200643A002071
:10B480006C3A002010B582B0204B1B78012B0DD0F8
:10B490005AB2002A35D0043BDBB2012B33D810F06E
:10B4A00011F8044628B3204602B010BD01F050FD4B
:10B4B000FDF7C2FCFCF768FA0446B8B1062815D0BF
:10B4C000134B1B6813F4804FEDD0124B1B68012BFC
:10B4D000E9DD114BD3F804350190104A00924FF486
:10B4E000C2720F49022002F0C1FBDCE701F0ECF868
:10B4F000D5E7064B02221A700A4B186801F0AEF924
:10B50000D1E70824CFE70824CDE700BF683A002040
:10B51000642E0020602E002000100140149A0400C8
:10B52000DB990400643A002008B5094B1B78032B13
:10B5300001D0082008BD064B04221A7005480FF000
:10B5400075FF0028F6D07846FCF7D0FA0020F1E726
:10B55000683A0020B5B2020008B5FDF771FC08BDDD
:10B5600008B5FDF7E7FF08BD08B5FDF7F3FF08BD17
:10B5700008B500F02DFE002008BD08B509F00CF854
:10B5800008BD0000074A136801331360B3F1704F20
:10B5900002D0044B18687047134600221A6001223B
:10B5A0001A60F6E7703A002010B5044618B100237F
:10B5B0002360636010BD7846FCF798FAF7E738B56A
:10B5C0000C46054668B184B100236360EFF3108335
:10B5D00072B62A686AB16A6854606C6003B962B670
:10B5E00038BD7846FCF782FAEDE77846FCF77EFA3C
:10B5F000EAE72C60F1E710B5044658B1EFF3108389
:10B6000072B6206808B142682260226832B103B97C
:10B6100062B610BD7846FCF769FAEFE76260F6E7BC
:10B6200010B5044608B1206810BD7846FCF75EFAF4
:10B63000F9E735DF70473CDF70473DDF70470000BA
:10B6400010B504464FF0FF30FFF7F3FFFF21002055
:10B65000FFF7F3FF21460020FFF7EDFFBFF34F8F09
:10B660000549CA6802F4E062044B1343CB60BFF3A0
:10B670004F8F00BFFDE700BF00ED00E00400FA05BA
:10B68000072814D8DFE800F0080C1504110F0A068B
:10B690006420704714207047FA2070471E207047BE
:10B6A0004FF4FA707047322070474B207047FA20F1
:10B6B0007047962070470000024B5868103840B21F
:10B6C000704700BF00ED00E0034600280FDB5B1170
:10B6D000084A52F82330424200F01F0002F01F02D5
:10B6E00058BF504223FA00F000F00100704700F10B
:10B6F0001F03ECE700E100E046DF704738B5044681
:10B700000D464B1EDBB2012B0AD800232361636177
:10B71000A361E3612046FFF7EFFF4FF0010C1AE051
:10B720007846FCF7E3F9F0E7CA5CC8185200D2B2D9
:10B73000CA54407842EAD012CA5401339BB20E2B4D
:10B74000F2D9CB7B5B00CB73BEF1000F0ADB0CF1AF
:10B75000010C5FFA8CFCAC450BD8214611F920EFA7
:10B760000023ECE794F82F3083F0870384F82F3020
:10B77000EDE738BD2DE9F04190B084460C46964681
:10B780001F4602F10F084FEA281604AD0068DCF8E6
:10B790000410DCF80820DCF80C300FC50EF00F05A3
:10B7A0005FEA181302D07DB1002300E00023984621
:10B7B00063B1012104A8FFF7A1FFB8F1000F1BD06E
:10B7C000701E000110230FE00123F0E70221F1E7D2
:10B7D000013B9BB22218D25C03F14001694411F88D
:10B7E000101C4A400DF80320002BF1D100250C95C8
:10B7F0000D950E950F9535E0711EADB22A4604EBFE
:10B80000011168461DF02AF980230DF805306B1CE4
:10B8100003E000220DF8032001330F2BF9DD102384
:10B820000BE0013B9BB21DF8032003F1400169448A
:10B8300011F8101C4A400DF80320002BF1D1D5E778
:10B84000013A92B202F140036B4413F8100C6318F2
:10B850009B5C584008AB9854002AF1D104A8FFF72C
:10B860004BFF0135731EAB4202DD29011022F3E7C5
:10B8700010230CE0013B9BB203F140020DEB0201EF
:10B8800011F8402C11F8101C4A4008A9CA54002B8A
:10B89000F0D104A8FFF730FF0CAC0FCC3860796012
:10B8A000BA60FB6010B0BDE8F081000010B504463E
:10B8B000134B1B6893B14168114B1B685B68CB1A33
:10B8C000002B0BDB0E4B1B6818465B691BB15A68DB
:10B8D000521A002AF8DB6361446103E0084B1A68DE
:10B8E00062611C60064A93889BB201339BB29380CD
:10B8F00013B10123237010BD7846FCF7F7F8F8E781
:10B900007C3A002038B5054619E06369214A136086
:10B910000023636193889BB2591E89B291800BB357
:10B92000A3681BB302232370A368216928469847A4
:10B9300000F01AF905462378DBB2022B1AD0154B1A
:10B940001B6833B3134B1B685B685B1B642B20D5F0
:10B95000104B1C682378DBB2012BD6D07846FCF75D
:10B96000C5F8D2E77846FCF7C1F8D9E77846FCF786
:10B97000BDF8D7E7E26812B900232370DFE76368F8
:10B98000134463605B1B642BF9D42046FFF78EFFE2
:10B99000D5E738BD7C3A002010B50446144B1B682F
:10B9A000834207D0124B1B68D3B15A69A2420ED012
:10B9B0001346F9E743690E4A136093889BB2591EF8
:10B9C00089B2918063B97846FCF790F808E0626923
:10B9D0005A6107498B889BB25A1E92B28A8013B172
:10B9E0000023237010BD7846FCF780F8F8E700BF0D
:10B9F0007C3A002008B5064B1B6833B1044B1B682A
:10BA00000449586800F05CF908BD00F0B7F9FBE79D
:10BA10007C3A002031BA020008B500F0A5F8FFF723
:10BA200071FF00F0A1F8FFF7E5FF012008BD00005D
:10BA300008B5024B186800F011FF08BD743A0020E9
:10BA400008B50023064A1370064A1360536006487F
:10BA500000F0E4FE054B186000F078F808BD00BF68
:10BA6000783A00207C3A002019BA0200743A00208B
:10BA700010B50446154B1B789BB900F0C3FFA0B16D
:10BA8000BCB1A368CBB12378DBB2012B19D0002362
:10BA900063612046FFF70AFF00F066F8FFF7AAFF90
:10BAA00010BD7846FCF722F8E7E77846FCF71EF869
:10BAB000E6E77846FCF71AF8E3E77846FCF716F86D
:10BAC000E1E77846FCF712F8E1E700BF783A00209A
:10BAD00010B5044600F096FF50B16CB12046FFF758
