:020000022000DC
:1060000000F000206D630200556302005763020038
:10601000596302005B6302005D6302000000000040
:106020000000000000000000000000005F630200AC
:106030006163020000000000636302006563020008
:106040006763020067630200676302006763020020
:10605000676302006763020095DC03006763020068
:10606000676302006763020021B1030067630200F7
:1060700067630200676302006763020067630200F0
:10608000676302008959040049DE02006763020069
:10609000ED5904006763020075E7030067630200BF
:1060A00067630200676302006763020067630200C0
:1060B0006763020067630200000000000000000048
:1060C00067630200676302006763020067630200A0
:1060D000676302006763020067630200000000005C
:1060E00000000000000000000000000000000000B0
:1060F00000000000000000000000000000000000A0
:10610000000000000000000000000000000000008F
:10611000000000000000000000000000000000007F
:10612000000000000000000000000000000000006F
:10613000000000000000000000000000000000005F
:10614000000000000000000000000000000000004F
:10615000000000000000000000000000000000003F
:10616000000000000000000000000000000000002F
:10617000000000000000000000000000000000001F
:10618000000000000000000000000000000000000F
:1061900000000000000000000000000000000000FF
:1061A00000000000000000000000000000000000EF
:1061B00000000000000000000000000000000000DF
:1061C00000000000000000000000000000000000CF
:1061D00000000000000000000000000000000000BF
:1061E00000000000000000000000000000000000AF
:1061F000000000000000000000000000000000009F
:10620000344935480A1A02D0072291438D46334952
:1062100033480A1A06D00722914381F309880222E3
:1062200082F314882F483049304A00F042F8304851
:106230003049314A00F03DF830483149314A00F0E8
:1062400038F831483149324A00F033F831483249A0
:10625000324A00F02EF832483249334A00F029F829
:1062600032483349334A00F024F833483349002296
:1062700000F02AF832483349002200F025F832486D
:106280003249091A082902DB0022026041601F48D6
:106290001F49884205D00268043003B4904703BC0C
:1062A000F7E700208646EC4600200021284A904768
:1062B000FEE7884207D0521A05D0037801300B70F0
:1062C0000131013AF9D17047884202D002700130A1
:1062D000FAE7704700F0002000E8002000F00020FE
:1062E00000F0002078860400F02D0020542F0020BC
:1062F000A0630200A0630200BA6004007886040074
:10630000F02D0020F02D00208C6404008C6404002B
:106310008C6404008C6404008C6404008C640400AD
:106320008C6404008C64040078860400DC8704001C
:10633000542F0020542F0020542F0020646400208C
:1063400064640020646400206464002064680020A9
:10635000296D0200FEE7FEE7FEE7FEE7FEE7FEE747
:10636000FEE7FEE7FEE7FEE700F002B8FFF7FCBF3E
:1063700008484FF00701884385460748804707488B
:10638000016841F470010160BFF34F8FBFF36F8F5D
:10639000FFF736BF00F00020B5EC030088ED00E009
:1063A00041DF704730B583B00C461D460A88DAB924
:1063B000184B1B6813F4804F03D0174B1B68032B3B
:1063C00006DC069B02221A8023882B8003B030BD96
:1063D000124BD3F80435124A009240F24712114989
:1063E000042008F037FEECE70A4B1B6813F4804FDB
:1063F000E7D0094B1B68032BE3DD084BD3F80435CA
:106400000192094A00924FF4A6720649042008F04E
:1064100021FED6E7EC2E0020E82E002000100140DF
:10642000C8640400BF640400EC64040030B583B0A9
:106430000C461D460A88DAB9184B1B6813F4804FC6
:1064400003D0174B1B68032B06DC069B02221A8025
:1064500023882B8003B030BD124BD3F80435124A89
:1064600000924FF497721149042008F0F3FDECE715
:106470000A4B1B6813F4804FE7D0094B1B68032BB2
:10648000E3DD084BD3F804350192094A00924FF43A
:106490009A720649042008F0DDFDD6E7EC2E0020B4
:1064A000E82E00200010014018650400BF640400BD
:1064B000EC64040070B586B00E4615461C46104BC1
:1064C0001B6813F4804F03D00E4B1B68032B06DCB4
:1064D0000A9B042018802680658006B070BD0A4B98
:1064E000D3F804350492039202910191074A009275
:1064F00040F215120649042008F0ACFDE8E700BFA1
:10650000EC2E0020E82E0020001001403C65040025
:10651000BF64040070B586B00E4614460B9D104B48
:106520001B6813F4804F03D00E4B1B68032B06DC53
:106530000C9B04221A802E806C8006B070BD0A4B22
:10654000D3F804350492039202910191074A009214
:106550004FF480720649042008F07CFDE8E700BF94
:10656000EC2E0020E82E0020001001403C650400C5
:10657000BF64040070B584B00C4615461E460D4B32
:106580001B6813F4804F03D00B4B1B68032B04DCF8
:10659000022333802C8004B070BD084BD3F804353F
:1065A00002910191064A0092ED220649042008F06A
:1065B00051FDEDE7EC2E0020E82E002000100140F8
:1065C00090650400BF64040070B586B015461C4693
:1065D0000E4651B342292AD0224B1B6813F4804F38
:1065E00003D0214B1B68002B12DC2188013189B2BA
:1065F00022688A422CD21B4B1B6813F4804F03D0B5
:10660000194B1B68002B14DC0023236006B070BDFF
:10661000164BD3F8043502910191154A0092C52218
:106620001449012008F016FDDFE70121E0E7012110
:10663000DEE70E4BD3F804350492039102960196DF
:106640000D4A0092D0220B49012008F003FDDBE740
:1066500000210A4B188801F0A3FB28800223236045
:10666000D4E700BFEC2E0020E82E002000100140EF
:10667000BC650400BF640400E465040060330020CE
:1066800000B583B00F4B1B6813F4804F03D00E4B43
:106690001B68032B09DC0322C8210F2002F0E2F85B
:1066A0000CF09CFD03B05DF804FB084BD3F80435F7
:1066B000074A009240F25D120649042008F0CAFC25
:1066C000E9E700BFEC2E0020E82E0020001001407A
:1066D00030660400BF64040030B583B00446451C36
:1066E000374B1B6813F4804F03D0364B1B68032BCA
:1066F0001FDC354A138801331380052D26D0304B1B
:106700001B6813F4804F03D02E4B1B68032B3CDC1B
:10671000032C0CD82A4B1B6813F4804F03D0294B51
:106720001B68032B3DDC4221284801F0FFFD03B02C
:1067300030BD274BD3F804350195264A009240F22C
:1067400087122549042008F085FCD2E70CF0E2FC12
:10675000A0B91B4B1B6813F4804FD9D0194B1B6891
:10676000032BD5DD1A4BD3F804351C4A00924FF4A5
:10677000CD721949042008F06DFCC9E70EF0C0FA8B
:106780000CF0BCFCFFF77CFFC2E7114BD3F80435DB
:10679000134A00924FF4D0720F49042008F05AFCBB
:1067A000B6E70B4BD3F80435074A128801920D4A1D
:1067B00000924FF4D3720849042008F04BFCB2E772
:1067C000EC2E0020E82E002060330020F42D002065
:1067D000001001404C660400BF64040060660400C1
:1067E000F46804009866040010B582B0A0F131048A
:1067F000042C0AD90E4B1B6813F4804F03D00D4BA9
:106800001B68032B08DC02B010BD2046FFF764FFB5
:10681000B4F1FF3FF7D1EDE7074BD3F80435074A52
:10682000009240F2B7120649042008F013FCEAE790
:10683000EC2E0020E82E002000100140F468040037
:10684000BF64040008B50378232B00D008BDFFF710
:1068500017FFFBE700B58DB02422002103A81FF02D
:10686000C7FB01238DF80C3007238DF80F3006236A
:106870008DF814301D4B07931D4B0B931D4903A836
:106880000CF04CFC60B30B2829D11B4B1B6813F494
:10689000804F03D0194B1B68032B14DC164B1B686D
:1068A00013F4804F1CD0154B1B68032B18DD144BC1
:1068B000D3F80435134A009240F2FD121249042025
:1068C00008F0C8FB0CE00E4BD3F804350F4A0092D9
:1068D0004FF4FE720C49042008F0BCFBDEE710B94F
:1068E0000DB05DF804FB18F005FBF9E74568020000
:1068F000AD6902005C2F0020EC2E0020E82E002065
:106900000010014008670400BF640400B86604007A
:1069100000B583B01D4A04214FF4C04008F07EFB4F
:106920001B4B1B6813F4804F03D01A4B1B68032BBF
:1069300013DC1FF05FF8E0B901F0D6FF164802F053
:1069400007F8E0B902F0C2F902F0FEF902F02CFA01
:10695000FFF780FF03B05DF804FB104BD3F804355C
:106960000F4A00924FF405720E49042008F072FBA2
:10697000DFE70D4A40F2162118F0CAFADCE70A4AAE
:1069800040F21A2118F0C4FADCE700BFF1EF020070
:10699000EC2E0020E82E0020D966020000100140F5
:1069A00044670400BF6404008C64040000B585B033
:1069B0002D4B1B6813F4804F03D02C4B1B68032B0B
:1069C0001EDC00212A4800F00DFC28BB264B1B686A
:1069D00013F4804F03D0254B1B68032B1FDC0121D0
:1069E000244800F0FFFB58BB1F4B1B6813F4804F7B
:1069F00003D01E4B1B68032B25DC05B05DF804FBA0
:106A00001D4BD3F804351D4A00924FF4EE721C4919
:106A1000042008F01FFBD4E718F06CFAD6E7164BF9
:106A2000D3F80435124A1188128902920191154A4D
:106A300000924FF4F1721249042008F00BFBCEE7EC
:106A400018F058FAD0E70C4BD3F80435094A1188EE
:106A50001289029201910C4A009240F2E712084911
:106A6000042008F0F7FAC8E7EC2E0020E82E0020FA
:106A7000F42D0020482E0020001001407067040013
:106A8000BF64040090670400D067040010B582B0B2
:106A90000446114B1B6813F4804F03D00F4B1B6847
:106AA000032B0CDC00210F2001F0C6FE04EB840454
:106AB00062003221032001F0D5FE02B010BD084B68
:106AC000D3F80435074A009240F26D1206490420BB
:106AD00008F0C0FAE6E700BFEC2E0020E82E002008
:106AE0000010014010680400BF64040000B583B0CA
:106AF0000C4B1B6813F4804F03D00B4B1B68032B0C
:106B000004DC01F0E3FE03B05DF804FB074BD3F8AF
:106B10000435074A00924FF4EB720649042008F04E
:106B200099FAEEE7EC2E0020E82E0020001001403C
:106B300030680400BF64040000B583B00C4B1B68D0
:106B400013F4804F03D00B4B1B68032B04DC01F0C4
:106B5000BDFE03B05DF804FB074BD3F80435074ACC
:106B600000924FF4BB720649042008F073FAEEE776
:106B7000EC2E0020E82E00200010014048680400A0
:106B8000BF64040000B585B003A812F041FC0D4BB2
:106B90001B6813F4804F03D00B4B1B68032B02DCE4
:106BA00005B05DF804FB094BD3F80435BDF80C20A3
:106BB0000192074A009240F2BF120649042008F0F1
:106BC00049FAEDE7EC2E0020E82E002000100140ED
:106BD00068680400BF64040000B58BB064212948D4
:106BE00001F054FD284B1B78E3B9039304930593FC
:106BF0000693079308930993244B0493244B05931E
:106C0000244B0693244B0793244B0893244B09935E
:106C100003A801F0D1FC38B1224A4FF40E7118F0EC
:106C200077F901E0FFF7AEFF02F0E0FA01F0C8FEED
:106C30000CF0C6FAA0B91C4B1B6813F4804F03D0AC
:106C40001A4B1B68032B11DC00210F2001F0F4FD0F
:106C50000222C8210F2001F005FE0BB05DF804FBF5
:106C6000104A40F2412118F053F9E4E7104BD3F8F1
:106C70000435104A009240F243220F49042008F0E4
:106C8000E9F9E1E7E96702005C2F0020BD6C020032
:106C90008D6A0200396B0200ED6A02008068040010
:106CA000706A04008C640400EC2E0020E82E0020A2
:106CB00000100140F4680400BF64040000B583B014
:106CC000144B1B6813F4804F03D0134B1B68032B2A
:106CD00013DC02F039F802F067F8FFF753FF01F018
:106CE000F5FD00210F2001F0A7FD0422C8210F208F
:106CF00001F0B8FD03B05DF804FB084BD3F8043590
:106D0000074A00924FF4E2720649042008F0A2F903
:106D1000DFE700BFEC2E0020E82E0020001001402D
:106D2000A0680400BF64040000B585B04FF0804344
:106D30000122C3F87825FFF7EBFDFFF74DFF0C208C
:106D400002F0FEF938E03A4BD3F80435394A12889C
:106D50000192394A009240F25B223849042008F03F
:106D600079F943E0BFEE007AF4EEC77AF1EE10FA5B
:106D700050DD334A4FE0F8EEC76A76EEE77ADFED92
:106D8000316A67EEA67AFDEEE77ACDED037A8DEDF6
:106D9000027A01922C4A00924FF41772274904207C
:106DA00008F058F94FF4FA644FF47A40274B43F057
:106DB00001039847013CF7D1FFF7F2FA02F0A2F97C
:106DC000234B83ED000A1B4A13880A339BB21380BE
:106DD000C82B02D9134600221A801E4B1B6813F4DD
:106DE000804F03D01C4B1B68032BACDC194B1B687A
:106DF00013F4804FD6D0184B1B68032BD2DD0C4BFD
:106E0000D3F80435124AD2ED007AF5EEC07AF1EEED
:106E100010FAA7D4114ABDEEE77AF5EEC07AF1EE8A
:106E200010FAA8DDF8EEC76A77EEE67AA7E700BFAA
:106E30000010014060330020BC680400BF640400FF
:106E4000C86804000000C842CC680400E068040080
:106E5000A4330020EC2E0020E82E0020986E0400C1
:106E600070B5C56B046D002233E002EB820C05EBBC
:106E70004C0104EBC20335F81C6024F83260B1F811
:106E800002C083F802C0CCF3032E93F803C02CF0A9
:106E90000F0C4CEA0E0C83F803C0B1F804E00EF0BE
:106EA0000F065FFA8CFC0CF00F0C4CEA061C83F802
:106EB00003C0CEF3071E83F804E091F806C083F800
:106EC00005C091F807C083F806C0097AD97101326C
:106ED00092B2038F9342C8D870BD00B5B1F838E0C4
:106EE000002301E001339BB273450AD2CA6B03EB66
:106EF000830C32F81C208242F4D1086D00EBC300F1
:106F000000E000205DF804FB30B583B00446056C5A
:106F100001F0F2F90DF106022946204601F024F9AC
:106F20005223BDF806202946A01C1EF023F903B009
:106F300030BD2DE9F04182B015461E46089FDDF8B0
:106F40002480044618B117B1B8F1000F02D1784679
:106F500002F010F8236C3B60276ACDF800803246BF
:106F600029462046B84702B0BDE8F081F8B516467C
:106F70001C46069F054608B103B117B9784601F0D3
:106F8000F9FF2A6C2260AC693B4631462846A0478F
:106F9000F8BD2DE9F04182B015461E46089FDDF888
:106FA0002480044618B117B1B8F1000F02D1784619
:106FB00001F0E0FF236C3B60A76ACDF80080324609
:106FC00029462046B84702B0BDE8F0812DE9F041DE
:106FD00082B015461E46089FDDF82480044618B18D
:106FE00017B1B8F1000F02D1784601F0C3FF236C4E
:106FF0003B60676ACDF80080324629462046B84794
:1070000002B0BDE8F0812DE9F04385B016461F4679
:10701000DDF83890DDF83C80044628B1B9F1000F66
:1070200002D0B8F1000F02D1784601F0A3FF256C21
:10703000C9F80050CDF808800195BDF834300093B0
:107040000C9B3A4631462046E669B0475B23B8F8C8
:107050000020294620461EF097F805B0BDE8F083D1
:107060002DE9F04385B015461C46DDF83490DDF877
:107070003880064630B12BB1B9F1000F02D0B8F11B
:10708000000F02D1784601F075FF376CC9F8007027
:107090002288AA420BD0174B1B6813F4804F03D0F1
:1070A000154B1B68002B0FDC784601F063FFCDF811
:1070B00000803B46BDF830202146304600F07EFE81
:1070C00080B905B0BDE8F0830C4BD3F804350292CB
:1070D00001950B4A00924FF4AF720A49012007F064
:1070E000B9FFE1E75723B8F80020394630461EF0D3
:1070F0004BF8E6E7EC2E0020E82E002000100140BF
:10710000B46A0400A56A0400F8B515461C46069F3B
:10711000064608B103B117B9784601F02BFF326C6F
:1071200022603B462946304600F0FEFEF8BD2DE9C0
:10713000F04115461E46069F804608B103B117B9B7
:10714000784601F017FFD8F840403460A5B93A46B8
:107150002146404601F008F83B885BB903233B8099
:10716000237843F001032370DBB243F0FE03237066
:10717000A4F80150BDE8F0813B462246294640462E
:1071800000F072FFE8E72DE9F04114461D46DDF8F6
:107190001880064618B113B1B8F1000F02D1784635
:1071A00001F0E8FE376C2F60338FDB009AB26CB1D0
:1071B00031462046FFF791FE78B10822A8F800205A
:1071C000026843683A607B60BDE8F081A8F800205F
:1071D000316D38461EF0E3FEF6E70223A8F80030D2
:1071E0003C80F1E780B138B50D46044600F0B6FEAC
:1071F0002046FFF735FE054B2361E36AE36029462D
:1072000020461DF0CBFF38BD0E207047DC6A04001D
:10721000422805D04D2801D000207047012070473A
:1072200001207047422803D04D2801D0002070472C
:1072300009B9012070470220704710B5044690F844
:10724000A710B0F8A400FFF7EDFFD4F8AC30184455
:107250000230400080B210BDD0F8AC3002339A4208
:107260002ED310B4002308E09A1CD0F8944034F8D0
:1072700013C021F812C001339BB2D0F8AC20934266
:10728000F2D3B0F8A4C0013AD2B20B786FF3000386
:107290000B70DBB262F344030B700CF00702DBB23D
:1072A00003F01F0343EA42130B70CCF3C70C81F8C1
:1072B00001C0D0F8AC00023080B25DF8044B7047DA
:1072C00000207047D0F8AC3003339A4228D310B472
:1072D000002308E0DA1CD0F8944034F813C021F8F9
:1072E00012C001339BB2D0F8AC209342F2D3B0F875
:1072F000A4C09AB1D3B2013BDBB20A7842F00102DA
:107300000A70D2B263F347020A70A1F801C0D0F844
:10731000AC00033080B25DF8044B70477F23ECE78C
:107320000020704770B504460D46B0F8A4300B80BD
:1073300090F8A63003F07F028A8090F8A730DB0136
:1073400003F0800313438B8090F8A710B0F8A400DB
:10735000FFF768FF0023032209E0511CD4F8806086
:1073600036F813C025F812C001339BB28AB28342AB
:10737000F3D3002309E0511CD4F8846036F813C01D
:1073800025F812C001339BB28AB28342F3D3531C57
:107390009BB294F8A81025F81210002209E0D4F846
:1073A0008800591C30F8120025F81300013292B2FF
:1073B0008BB2D4F8AC108A42F1D3002209E0D4F8A1
:1073C0008C00591C30F8120025F81300013292B2DB
:1073D0008BB2D4F8AC108A42F1D3284670BD102984
:1073E00005D8B0F5006F02D2023188B27047033180
:1073F00088B270472DE9F04180460D4616461F467B
:10740000FFF706FF288000214046FFF70BFF0446E8
:1074100001214046FFF706FFA04238BF204680B258
:1074200030802B8800EB43005C30400038802B8894
:107430001BB1338823B9002000E00020BDE8F081B3
:107440000120FBE738B50C46054608B1A86C04E0FE
:10745000784601F08FFDF9E7006818B1B0F8A43064
:10746000A342F9D138BD38B50D46044648B120468F
:10747000FFF7E3FE2880E36F196C2046FFF752FF09
:1074800038BD784601F076FDF1E710B5044688B1C5
:10749000D4F894301B88D4F88C201188D4F8882034
:1074A000128891420ED3DBB29A4207D8994207D292
:1074B000002004E0784601F05DFDE9E7002010BD02
:1074C0000120FCE7DBB29A4203D3994203D90120A1
:1074D000F5E70120F3E70020F1E70000F8B50446E6
:1074E000B8B30E4615461F46BDF8182000211EF001
:1074F0007FFDA4F8A460C4F8AC50A4F8B07029468D
:107500003046FFF76CFFA4F8B200102D04D8B6F592
:10751000006F20D3114B00E0104BC4F8A03004F1F1
:10752000B802C4F8882002EB4503C4F88C3002EBA3
:107530008503C4F8903005EB450302EB4303C4F820
:10754000943002EBC502C4F8802002EB4702C4F875
:1075500084202046F8BD024BDFE700BFC572020061
:1075600059720200002937D070B586B00E468142AC
:107570001CD9091A89B21D46642404FB01F191FB50
:10758000F6F101EB810101EB81018C00A4B21349FA
:10759000096811F4804F03D011490968042909DCF6
:1075A000A5428CBF0020012006B070BD411A89B2EF
:1075B0001546E1E70B49D1F80415059404930392AD
:1075C00002960190084B00930B464FF49F720749B7
:1075D000052007F03FFDE3E701207047EC2E002077
:1075E000E82E0020001001403C6B0400296B0400D1
:1075F000F0B587B006460C4617461D461649096881
:1076000011F4804F16D0154B1B68042B12DD144B60
:10761000D3F80435A04216D9021B059204950397AE
:10762000029401960F4A00924FF48E720E49052083
:1076300007F010FDA64208D9341BBC42B4BF00209D
:10764000012007B0F0BD221AE7E7A41BAC42B4BF8B
:1076500000200120F5E700BFEC2E0020E82E0020DE
:10766000001001409C6B0400296B040010B5044617
:1076700088B194F8A73093B1D4F89400D4F890105E
:10768000D4F88420D4F880301B88128809880088B8
:10769000FFF768FF10BD784601F06CFCE9E7D4F80D
:1076A0009400D4F89010D4F88420D4F880301B785B
:1076B000127809880088FFF79BFFEBE730B587B0A9
:1076C0000446D0F8AC300593C06F456905ABD4F8DB
:1076D0009420B4F8A410A847D4F8AC2005998A42A5
:1076E0000BD00E4B1B6813F4804F03D00C4B1B6860
:1076F000002B04DC784601F03DFC07B030BD094B9F
:10770000D3F8043502910192074A009240F2C9224F
:107710000649012007F09EFCECE700BFEC2E00209C
:10772000E82E002000100140F46B0400296B0400D7
:10773000F0B583B004460D461646FAB1F1B10CB36C
:10774000B4F8B23033802046FFF7B8FFB4F8B27017
:10775000D4F8A030328829462046984787420BD07B
:10776000104B1B6813F4804F03D00F4B1B68002B8A
:107770000BDC784601F0FEFB03B0F0BD784601F06B
:10778000F9FBDCE700233380F6E7084BD3F8043538
:10779000074A009240F217320649012007F05AFCCE
:1077A000E7E700BFEC2E0020E82E0020001001408B
:1077B000406C0400296B0400002800F0B4802DE91F
:1077C000F04F87B08A460646022A40F2AE8009880A
:1077D000B0F8A400884255D1023A94B20AF10208E6
:1077E0009AF8025015F0700F66D105F07F09ED0987
:1077F0002946FFF717FD0746844240F298800AF1B8
:107800000301431C9BB21A189442C0F2928008EB09
:10781000030B92B29442C0F08E8018F802A0BAF125
:107820001A0F65D8013292B2D6F8AC001318A342F1
:1078300000F28380424405929BB2184484427ED376
:10784000984486F8A69086F8A7503A46D6F8800065
:107850001EF0A5FB3A465946D6F884001EF09FFB61
:1078600086F8A8A0D6F8AC200599D6F888001EF0B6
:1078700096FBD6F8AC204146D6F88C001EF08FFB64
:10788000002009E02F4B1B6813F4804F03D02E4BD0
:107890001B68002B03DC0B2007B0BDE8F08F2B4BDF
:1078A000D3F8043502910190294A00929C2229497B
:1078B000012007F0CFFBEEE7224B1B6813F4804F4B
:1078C00003D0214B1B68002B01DC0B20E4E71F4B8E
:1078D000D3F8043505F07F05002203920295019547
:1078E0001D4A0092AF221B49012007F0B3FBECE7D1
:1078F000144B1B6813F4804F03D0134B1B68002BF1
:1079000001DC0B20C8E7114BD3F804350392CDF806
:1079100008A0CDF804A0114A0092D3220D490120FD
:1079200007F098FBEDE70E2070470920B4E7092027
:10793000B2E70920B0E70920AEE70920ACE709204B
:10794000AAE700BFEC2E0020E82E00200010014026
:107950005C6C0400296B0400946C0400E46C04006B
:1079600008B5D0F8AC20D0F89410D0F890001EF0F4
:1079700016FB08BDF0B583B017461D460446D0B1CE
:1079800004F1080630461DF00EFDD4F8983020466C
:107990009847A0B194F8A630C3F12000A3F12001CC
:1079A00027FA03F205FA00F0024325FA01F10A432F
:1079B00025FA03F305E0784601F0DCFAE0E73A4601
:1079C0002B46BA4273EB05014CD294F8A8504FF401
:1079D0007A70A5F12001C5F1200700FA01F120FA23
:1079E00007F73943A840824273EB010501D31046E3
:1079F00019461E4B1A685B68904271EB030316D35D
:107A0000C90341EA5041C003194BC018194A4FF04D
:107A1000000341F100011EF083F920616161002340
:107A2000237230461DF096FC20B901201BE0212076
:107A30000021F2E7104B1B6813F4804F03D00F4B6B
:107A40001B68002B01DC00200DE00D4BD3F8043542
:107A500001900C4A009240F295220B49012007F058
:107A6000F9FAF0E7012003B0F0BD00BFA833002011
:107A700020A1070040420F00EC2E0020E82E00203D
:107A800000100140386D0400296B040030B585B04A
:107A900004460DF10A0303AA0DF10E01FFF7AAFC3B
:107AA00090B1BDF80A000BF090FA054680B1BDF820
:107AB0000A300093BDF80C30BDF80E202146284650
:107AC000FFF70CFD05B030BD784601F053FAE8E74A
:107AD0000D4B1B6813F4804F03D00C4B1B68002B1D
:107AE00003DC784601F046FAE1E7094BD3F80435A8
:107AF000BDF80A200192074A009240F24F2206493F
:107B0000012007F0A7FAECE7EC2E0020E82E002079
:107B100000100140706D0400296B040070B584B042
:107B20000446C56FB0F8B260D0F8A030B5F84C206C
:107B3000154909689847864201D004B070BD5223A8
:107B4000B4F8B22010490968A81C1DF013FBB0B1AD
:107B50000E4B1B6813F4804FEFD00D4B1B68002BAE
:107B6000EBDD0C4BD3F80435029001900A4A0092E9
:107B70004FF4ED720949012007F06CFADDE7204669
:107B8000FFF7EEFED9E700BFB0330020EC2E002057
:107B9000E82E002000100140946D0400296B0400C1
:107BA00038B500F1400590F878309BB304460023C7
:107BB00080F87830FFF7B2FF94F8A8304FF47A706D
:107BC000A3F12001C3F1200200FA01F120FA02F230
:107BD00011439840114B1A685B68904271EB0303A4
:107BE0000DD3C90341EA5041C0030D4BC0180D4AE3
:107BF0004FF0000341F100011EF092F801E0212056
:107C00000021A064E164002384F8403028461DF080
:107C1000A1FB38BD28461DF0C6FBFAE7A8330020BB
:107C200020A1070040420F0038B5044600F140058E
:107C300028461DF08CFB18B1012384F8783038BD3C
:107C40002046FFF76BFF94F8A8304FF47A70A3F149
:107C50002001C3F1200200FA01F120FA02F21143DF
:107C60009840104B1A685B68904271EB030315D380
:107C7000C90341EA5041C0030B4BC0180B4A4FF0F7
:107C8000000341F100011EF04BF8A064E164002301
:107C900084F8403028461DF05DFBD0E7212000210C
:107CA000F3E700BFA833002020A1070040420F00E7
:107CB00070B584B00646C36F00228DF80F200DF119
:107CC0000F020DF10E0158880FF00EF848BB9DF819
:107CD0000E20032A0ED8DFE802F0024605096422CE
:107CE000002520E042F2107200251CE04EF66022D2
:107CF000002518E0254B1B6813F4804F37D0244B28
:107D00001B68002B36DD234BD3F804350192224A41
:107D100000929B222149012007F09CF90022154680
:107D200001E0002215469DF80F10A1FB023201FB75
:107D300005F5690141EAD3615A01D21A61EB0501E7
:107D4000890041EA92719200D21845EB0105ED00DD
:107D500045EA5275D4003046FFF7B0FC54EA0503FB
:107D60000BD104B070BD4FF47A720025DBE700221E
:107D70001546D8E700221546D5E73046FFF754FFF1
:107D800022462B463046FFF7F5FDEAE7EC2E0020B1
:107D9000E82E002000100140046E0400F26D040083
:107DA00038B504460D46012903D8600080B2284347
:107DB00038BD784601F0DEF8F7E700002DE9F0471E
:107DC00084B00C4616461D46DDF83080074620B1CB
:107DD00019B113B1B8F1000F02D1784601F0CAF819
:107DE00000238DF80F300DF10F020DF10E01788890
:107DF0000EF07AFF48BB9DF80E20032A0ED8DFE86C
:107E000002F0025E05096420002220E042F21070B8
:107E100000221CE04EF66020002218E03B4B1B685D
:107E200013F4804F4FD03A4B1B68002B4EDD394B7B
:107E3000D3F804350192384A00929B223749012039
:107E400007F008F90020024601E0002002469DF8F4
:107E50000F30A3FB001003FB02F2530143EAD1638E
:107E60004801401A63EB02039B0043EA90738000D1
:107E7000401842EB0303DB004FEAC00943EA507AA3
:107E800021883846FFF7DEFA074620B13246214600
:107E9000FFF792FCE8B11D4B1B6813F4804F03D031
:107EA0001B4B1B68002B21DC77B30023A8F80030A4
:107EB00023882B800026304604B0BDE8F0874FF4BD
:107EC0007A700022C3E700200246C0E70020024685
:107ED000BDE74A4653463846FFF74CFD06460028A4
:107EE000D9D041463846FFF7BEFAE4E7094BD3F84C
:107EF0000435228801920A4A009240F2A7320949C9
:107F0000012007F0A7F8CFE70223CFE7EC2E0020EF
:107F1000E82E002000100140046E0400F26D040001
:107F2000306E0400296B0400F8B50E4617461C4657
:107F3000054608B102B113B9784601F01BF80023D9
:107F4000238031462846FFF77DFA18B12146FFF716
:107F50008AFAF8BD022323803E80FAE7F0B585B0A7
:107F6000064650B1354B4FF47A700021C3E9000149
:107F70000024A6F84C40B46438E0784600F0FAFFDC
:107F8000F0E7FFF783FD0546002380F8A63080F870
:107F9000A7300A2380F8A830C667336BA70003EB2D
:107FA000840383628061264BC36108301DF012FA9E
:107FB000736B3B442B662D65224B6B6505F14000CE
:107FC0001DF008FA204BC5F89830204BC5F89C30BE
:107FD000B5F8B230B6F84C201344A6F84C30294618
:107FE00006F1480006F075FF0134E4B2F36A1A782E
:107FF000A2421BD9621C33F812004228C1D0144B94
:108000001B6813F4804FEFD0124B1B68002BEBDD85
:10801000114BD3F8043502900190104A009240F2BF
:108020000A420F49012007F015F8DDE7B6F84C00C9
:108030000AF0CBFF0B4B186005B0F0BDA833002051
:10804000B17C0200A17B02008B7402006D760200FD
:10805000EC2E0020E82E0020001001406C6E040081
:10806000296B0400B0330020F0B585B00C461546EE
:108070001E46074608B102B113B9784600F07AFFF0
:1080800021463846FFF7DEF9044632462946FFF717
:108090004FFB002C51D000238DF80F300DF10F0253
:1080A0000DF10E0178880EF01FFE48BB9DF80E20E2
:1080B000032A0ED8DFE802F00243050964230020FA
:1080C00020E042F2107300201CE04EF660230020F6
:1080D00018E0204B1B6813F4804F34D01E4B1B68F4
:1080E000002B33DD1D4BD3F8043501921C4A00925E
:1080F0009B221C49012006F0ADFF0023184601E039
:10810000002318469DF80F10A1FB032301FB00F08C
:10811000410141EAD26153019B1A61EB00018900E0
:1081200041EA93719B009B1840EB0100C000DA000C
:1081300040EA53732046FFF71DFC05B0F0BD4FF435
:108140007A730020DEE700231846DBE70023184699
:10815000D8E700BFEC2E0020E82E002000100140E0
:10816000046E0400F26D04002DE9F04F87B0039116
:108170009346824608B101B112B9784600F0FAFE82
:1081800000238DF817300DF117020DF11601BAF822
:1081900002000EF0A9FD48BB9DF81620032A0ED858
:1081A000DFE802F0024B05096427002120E042F2DB
:1081B000107700211CE04EF66027002118E0464BA6
:1081C0001B6813F4804F3CD0444B1B68002B3BDDF5
:1081D000434BD3F804350192424A00929B22424914
:1081E000012006F037FF0027394601E00027394615
:1081F0009DF81720A2FB073702FB01F14A0142EA72
:10820000D3625F01FF1A62EB0102920042EA9772A9
:10821000BF00FF1841EB0202D2004FEAC70942EA51
:1082200057770023ABF80030BAF1000F4FD0BAF8FF
:108230004C50DAF848401E4618E04FF47A77002197
:10824000D6E700273946D3E700273946D0E77846F6
:1082500000F090FE4A463B462046FFF78BFBB4F801
:10826000B2301E44B6B2EB1A9DB2246824B3204645
:10827000FFF724FAB4F8B280D4F8A0301B4A116892
:108280002A4601EB4601204698478045E2D0124B32
:108290001B6813F4804FDAD0104B1B68002BD6DD1F
:1082A0000F4BD3F80435124A009240F24142114973
:1082B000012006F0CFFECAE7BAF84C20521B92B25A
:1082C000ABF80020094B196803981DF068FE504672
:1082D00007B0BDE8F08F00BFEC2E0020E82E002094
:1082E00000100140046E0400F26D0400B033002061
:1082F0009C6E0400296B040070B5044610B1A46C98
:10830000002604E0784600F035FEF8E724685CB10A
:1083100094F8A83001259D4004F108001DF043F8B1
:10832000AE42F3D22E46F1E7304670BD30B583B091
:10833000056CFFF787F890B104460DF10602294657
:10834000FFF7F6F9D4F89C302046984710B9002082
:1083500003B030BD2046FFF767FC0020F8E705209A
:10836000F6E769DF7047000003781F2B00D07047E5
:10837000014B01221A70FAE7B73300203F4B1B78FC
:10838000002B79D000B587B0012804D003286CD029
:1083900007B05DF804FB0023019301A9012016F04A
:1083A00089F800284BD100230393049305939DF88B
:1083B0000C20012363F303028DF80C20D2B263F387
:1083C00007128DF80C209DF80D2063F301028DF843
:1083D0000D201E23ADF81630019A03A94120FFF7A6
:1083E000C0FF78BB01A816F0BFF870BB244B1B6818
:1083F00003B198470123029302A90DF1020011F085
:1084000085FD28BBBDF8020011F0F2F90DF1010164
:1084100011F086FBF8B90CF0BDF99DF801100020B1
:108420000CF0B8FCD0B904F0A1FAD8B9134B002273
:108430001A70134B5B68002BAAD09847A8E716F078
:1084400059FDB0E716F056FDCCE716F053FDCDE729
:1084500016F050FDD6E716F04DFDDCE7784600F04B
:1084600089FDE0E716F046FDE0E716F0F7F8002892
:108470008ED016F03FFD8BE7704700BFB63300206B
:10848000B833002008B5064B01221A70054804F0E5
:10849000DBFA04F0BDFA00B908BD16F02BFDFBE7CE
:1084A000B6330020A42E002008B503781C2B00D082
:1084B00008BD074B1B78002BFAD016F013F918B93A
:1084C000044804F0C5FAF3E716F014FDF8E700BF1E
:1084D000B6330020A42E002008B5094B1B7863B9E1
:1084E0000849094817F0CEF940B90323002207498B
:1084F0004969074817F0E2F900E0082008BD00BF0D
:10850000B7330020D433002040370020B833002098
:108510000C36002008B50378023B082B3FD8DFE873
:1085200003F01C05113E3E2C3E3E36001E4B9B6860
:10853000002B34D0007A002831D01C4A0121117060
:1085400098472CE0184BDB684BB3184A127832B3CB
:10855000164A00211170984721E0154B1B784BB942
:10856000114B1B691BB1114A002111709847FFF78D
:10857000B3FF14E0FFF786FF11E010220A4B996960
:108580000C4817F024FA50B116F0B4FC07E08168EB
:10859000C0680AF043FD18B9054B01221A7008BDE6
:1085A00016F0A8FCF8E700BFB8330020B433002071
:1085B000B53300200C36002010B586B08446224A20
:1085C00003AB07CA03C323F8022B120C1A701F4C0B
:1085D000A646BCE80F00AEE80F009CE807008EE856
:1085E0000700A369002B2DD0194B009303AB194A48
:1085F00019491A4817F004F9034610B1184606B095
:1086000010BD174818F0B8FE0146144817F024F9B9
:1086100003460028F2D1134819F02EF8034600282B
:10862000ECD1104819F060F801460C4817F014F925
:1086300003460028E2D10C4804F006FAFFF74CFF8D
:108640000346DBE70723D9E7B86E0400B833002000
:1086500015850200D4330020403700200C3600205E
:10866000F4330020BC350020B02E002008B5064BA6
:108670001B681BB906E0044B1B68984713F0D0FE3B
:108680000028F8DA08BD00BF8037002010B50C467E
:10869000134B1860134A012113481DF0E5F998B9EE
:1086A000610CE00341F27073984271F1000310D342
:1086B0004FF47A7200231DF033FB014600220B4871
:1086C0001DF0E8F938B910BD094A4A2116F020FC1E
:1086D000E6E70521F2E7064A4B2116F019FCF2E71E
:1086E000803700206D860200F86E04008437002079
:1086F000C46E040070B50546002403E00D4A9342A1
:108700000ED80134032C14D80B4B1B5DAB42F8D1AF
:108710000A4B1E6804F09CFC331AEFD5831BEDE76F
:1087200004F096FC054B1860054B1B6820469847E3
:10873000E7E770BD801A0600046F0400D037002000
:10874000CC3700204FF0A043D3F80435C34013F0DA
:10875000010F0CBF012000207047000070B50546D6
:108760000024264600E00134032C0AD80123A3404C
:108770002B42F8D0044B185DFFF7E4FFA0400643FE
:10878000F1E7304670BD00BF086F040008B511B1B5
:1087900015F0B1F908BD15F0A7F9FBE770B505466E
:1087A000002400E00134032C0FD80123A3402B4206
:1087B000F8D0064B1E5D3046FFF7C4FF80F0010184
:1087C000C9B23046FFF7E2FFECE770BD086F040066
:1087D00010B5144B1B684BB1134B1868FFF7DEFF45
:1087E000104B1C68013C1C6024B110BD002016F029
:1087F00081FBF1E70D481DF06FF900E00134032C17
:10880000F3D80123A340084A12681342F6D0084B5C
:108810001968E14001F00101064B185DFFF7B6FF52
:10882000ECE700BFA4370020A8370020AC370020B9
:10883000D4370020086F040070B505460E460024AA
:1088400000E00134032C09D80123A3402B42F8D0C7
:108850003146034B185DFFF799FFF2E770BD00BF8B
:10886000086F040042B310B50C461346132900D814
:1088700010BD124A10605B00013B114A1360FFF704
:108880006DFF104B1860610CE40314F5FA704FF49F
:108890007A724FF0000341F100011DF041FA0146E8
:1088A000002209481DF0F6F80028E1D10121034B10
:1088B0001868FFF7C1FFDBE7704700BFA83700204B
:1088C000A4370020D4370020AC37002008B5044876
:1088D0001DF002F90021034B1868FFF7ADFF08BD3A
:1088E000AC370020A837002010B582B015F090F802
:1088F00040B10024ADF804408DF8064001238DF806
:10890000053007E015F03CF80028F2D016F0F2FA36
:10891000EFE70134032C09D801A90A4B185D15F0C3
:1089200081F80028F5D016F0E5FAF2E7064A0121B1
:1089300006481DF099F808B902B010BD16F0DAFA31
:10894000FAE700BF086F0400D1870200006F04003F
:1089500060B310B582B0164A106015F059F840B1F6
:10896000144B1B68ADF804301B0C8DF80630002446
:108970000CE015F005F80028F2D016F0BBFAEFE78E
:1089800001210D4B185D15F027F90134032C0AD88D
:108990000A4A01A9084B185D15F0B4F80028EFD079
:1089A00016F0A8FAECE7002002B010BD0E207047C8
:1089B000CC370020FC6E0400046F0400F586020032
:1089C000002800F082802DE9F04FD1B004463F4BE3
:1089D0001B6813F4804F03D03D4B1B68032B31DC25
:1089E0003A4B1B6813F4804F03D0394B1B68032BA1
:1089F0002ADC51B0BDE8F08FE25C36490D68100901
:108A000059002E5C0FA800F8136002F00F0201312C
:108A1000AA5C425401330F2BEED90FAA00238DF824
:108A20005C3003F1804303F58833D3F804350292B8
:108A3000294A0192294A009242222949042006F03B
:108A400009FBCDE70023E6E7264BD3F804350D9369
:108A50002068020202F47F0242EA0062010A01F485
:108A60007F4142EA0108B4F804C04FEA0C2292B2F6
:108A7000B4F806E04FEA0E2189B2257A667AA77A21
:108A8000E37A94F80C9094F80DA094F80EB0E47B7F
:108A90000B94CDF828B0CDF824A0CDF82090079302
:108AA00006970596049541EA1E21039142EA1C228D
:108AB000029248EA106001900B4A00920D9B4322FB
:108AC0000749042006F0C6FA93E77047EC2E002011
:108AD000E82E0020F02E0020446F0400586F0400A0
:108AE000316F040000100140606F040072DF7047B6
:108AF00073DF704774DF70472DE9F047A2B0074677
:108B000088469146324C002525606560A560E56089
:108B100030490B78C3EB43102F4E064426602F4A92
:108B20000244A2601F22A280A281013303F001034C
:108B30000B704FF03C0A5246294613A81DF058FA14
:108B400006238DF84F30ADF8487001238DF84A3078
:108B5000ADF85C3012AA1892ADF83C70ADF84090B8
:108B6000CDF844800DEB0A021D928DF87830524604
:108B7000294668461DF03CFA02238DF80030221D7C
:108B8000314613A815F088FB90B9114B03F10C0284
:108B90009968684615F080FB68B9114A0C4911487C
:108BA000FFF7A4FF082809D070B922B0BDE8F0870C
:108BB00016F0A0F9E9E716F09DF9EEE70022044966
:108BC0000848FFF793FFEFE716F094F9EDE700BFD1
:108BD0001C380020D8370020DC3700202C3800203B
:108BE000C02E0020BC2E0020B0F5202F0AD2074B4B
:108BF000A3FB0023DB0808B103B90123044A9381D6
:108C0000916070474FF6FF73F5E700BFCDCCCCCC39
:108C1000C02E002008B50121054B1878FFF768FF2A
:108C200018B9002004F000FE08BD16F063F9F8E75B
:108C3000BC2E002008B5044B1878FFF75BFF00B985
:108C400008BD16F057F9FBE7BC2E002076DF704711
:108C50007ADF70477CDF704769DF704708B516F030
:108C600049F908BD08B503F0F7FE08BD00B583B0AB
:108C7000037823B1012B0BD003B05DF804FB3B213B
:108C80004088FFF7E3FF0028F6D016F033F9F3E74A
:108C9000094B1B6813F4804FEED0084B1B68032B65
:108CA000EADD074BD3F80435064A009268220649EC
:108CB000042006F0CFF9DFE7EC2E0020E82E00209C
:108CC00000100140E06F0400C56F040000B585B0DE
:108CD00015F0C4FC60BB0023039303A9012015F029
:108CE000E9FB40BB00230093019302939DF8002011
:108CF000012363F303028DF80020D2B263F307125D
:108D00008DF800209DF8012063F301028DF8012009
:108D10001E23ADF80A30039A69464120FFF79CFFF5
:108D200060B903A815F020FC58B905B05DF804FB44
:108D300016F0E0F8CFE716F0DDF8D3E716F0DAF832
:108D4000EFE716F0D7F8F0E700B585B09DF80C30E6
:108D5000012262F303038DF80C30DBB262F30713D8
:108D60008DF80C301E220F4903A8FFF773FF98B946
:108D70000023019302937823ADF80430C823ADF8A3
:108D800006304FF4C873ADF80A3001A8FFF760FF52
:108D900028B905B05DF804FB16F0ACF8E8E716F06A
:108DA000A9F8F6E70C70040000B58BB001AA002307
:108DB000019302937821ADF80410C821ADF8061094
:108DC0004FF4C871ADF80A1003930493059306930A
:108DD000079308930993039240F6CD4304934FF40D
:108DE0008033059303238DF81830074B0893074B06
:108DF000099303A815F01EFE10B90BB05DF804FB33
:108E000016F078F8F9E700BF6D8C02005D8C020067
:108E10000620704700B587B044F2010398425DD048
:108E20001BD8012836D041F20103984271D1474B3B
:108E30001B6813F4804F36D0454B1B68002B32DD86
:108E4000444BD3F8043502920191434A00926322C5
:108E50004249012006F0FEF825E044F20203984260
:108E600057D13A4B1B6813F4804F1CD0384B1B680A
:108E7000002B18DD374BD3F8043510680390526887
:108E800002920191364A009269223449012006F08B
:108E9000E1F808E02D4B1B6813F4804F03D02C4BF6
:108EA0001B68002B0DDC4FF0A0434FF4F012C3F809
:108EB0001825C3F80C25EFF3108372B64DF6AD6C90
:108EC0003DE0244BD3F8043502920191254A0092EB
:108ED00060222249012006F0BDF8E4E71B4B1B6825
:108EE00013F4804FDFD01A4B1B68002BDBDD194BCE
:108EF000D3F804351068049050680390029192688A
:108F00000192194A009273221449012006F0A2F836
:108F1000C9E70E4B1B6813F4804FC4D00C4B1B6881
:108F2000002BC0DD0B4BD3F8043501910F4A0092A2
:108F30007B220A49012006F08DF8B4E730BF0C4BC4
:108F40001B78002BFAD107B05DF804FBEC2E002053
:108F5000E82E0020001001408070040051700400D1
:108F6000A470040064700400C4700400E87004007D
:108F7000D82E002000B583B0014600230093054B96
:108F800001936A4644F20200FFF744FF03B05DF824
:108F900004FB00BF986E040038B505464FF0A043AF
:108FA0000322C3F858274FF48002C3F80C250C4C59
:108FB00044F001044FF4A070A047012D09D04FF4F4
:108FC000A050A0474FF0A0434FF48002C3F80825FB
:108FD00038BD4FF0A0434FF48002C3F80825EEE7F8
:108FE0001071040038B50546002407E045FA04F086
:108FF00000F00100FFF7D0FF0134E4B2072CF5D9EF
:109000004FF4C850024B43F00103984738BD00BFEE
:109010001071040070B54FF0A0440323C4F8583712
:109020004FF48006C4F80C650D4D45F001054FF472
:10903000FA40A847C4F808650023C4F858374FF42D
:10904000F060A847D4F810354FF4EB40A847D4F8A7
:10905000103513F4800F01D0012070BD0020FCE713
:109060001071040038B54FF0A0450323C5F85837F8
:109070004FF48003C5F80C35094C44F00104C020BE
:10908000A0470023C5F858374FF42070A047D5F803
:109090001055C5F380554FF45460A047284638BD9D
:1090A0001071040038B50025012401E06400E4B229
:1090B0002CB1FFF7D7FF0028F8D02543F6E7284664
:1090C00038BD70B506460D46FFF7A4FFCC20FFF76C
:1090D00089FFBE20FFF786FF002404E0FFF7E2FFD0
:1090E00030550134E4B2AC42F8D3FFF793FF70BDC2
:1090F00008B5FFF78FFFCC20FFF774FF4420FFF780
:1091000071FF08BD00B585B0FFF7F2FF022101A88D
:10911000FFF7D7FF9DF805301B021BB29DF8040036
:1091200018431CF0BFFD0022044B1CF01FFD1CF077
:10913000CDFD00EE100A05B05DF804FB0000B03F65
:1091400010B50446FFF766FFCC20FFF74BFF4E201B
:10915000FFF748FF0020FFF745FF6420FFF742FFBD
:109160000B2C0DD00C2C05D00A2C0DD01F20FFF796
:1091700039FF02E07F20FFF735FFFFF74BFF10BDFF
:109180005F20FFF72FFFF8E73F20FFF72BFFF4E703
:1091900010B40346044C006859689A68DB680FC431
:1091A0005DF8044B704700BF6C3800200E4B4FF049
:1091B000805202F1600103C983E8030003F1080C47
:1091C000A43292E803008CE8030093F9062002F031
:1091D0000F0242F040029A7193F9082002F03F0218
:1091E00042F080021A7270476C38002000487047C5
:1091F0006C380020002308E0074901EBC30000227F
:109200004280426001F8332001331F2BF4D9034B15
:1092100000221A60704700BF7C3800207C39002093
:1092200000B58646114B1B684FF0000C0BE01F2366
:109230000F4A12F83300B0B102EBC30252887245F4
:1092400009D00CF1010CBCF11F0F0BD85A1E002BDA
:10925000EDD01346ECE7064A02EBC30252688A429D
:10926000EFD100E000205DF804FB00BF7C39002056
:109270007C38002010B40B4A13680B4C04EBC30C71
:10928000ACF80200CCF80410012104F833100B44B0
:109290001360202B02D05DF8044B70471346002268
:1092A0001A60F8E77C3900207C380020002107296B
:1092B00018D830B402E00131072910D84FEA011C58
:1092C000094C34F80CC08445F5D104EB0114A568B1
:1092D000E4689C4208BF9542EDD1012000E00020E7
:1092E00030BC7047002070478039002030B4C3691B
:1092F0008469C1884FEA132C1B06C4F30C028A420E
:1093000018D28A1A2244A2F500529A184CF1000190
:109310000A4C23685D1C256003F00703B0F814C0F5
:1093200007481C0100EB031320F804C09A60D960C1
:1093300030BC70478A1A2244E7E700BF003A002099
:1093400080390020C37D9BB1C3780A7802F0800287
:109350000A7003F07F0313430B7002780B7803F05D
:109360007F030B7043EAC2130B7003789BB97047FD
:10937000C3780A7802F0BF020A709B0103F0400331
:1093800013430B70027903F0C0030B7002F03F022D
:1093900013430B70E1E700B58378082B14BF00225C
:1093A00001224B7803F07F034B7043EAC2134B70EA
:1093B000B0F806E0DAB202F080024A70CEF3861C02
:1093C0004CEA02024A708B7803F003038B7043EA85
:1093D0008E038B7090F808E0DAB202F0FC028A701B
:1093E000CEF3C10C4CEA02028A70CB7803F01F0363
:1093F000CB7043EA4E13CB70437ACA7802F0E00296
:10940000CA7003F01F031343CB705DF804FB000028
:109410000023032B31D810B402E00133032B28D8EA
:10942000C3EBC302164C04EB021292F84820012A47
:10943000F3D1C3EBC30204EB0212948AC2899442B3
:10944000EBD1C3EBC3020E4C04EB0212D2888A426A
:10945000E3D1C3EBC30204EB0212B2F8582012B1FD
:10946000848AA242D9D1C3EBC303054800EB0310A1
:1094700000E000205DF8044B70470020704700BFFB
:109480002C3A0020002300E00133032B16D8C3EB55
:10949000C3020B4901EB021292F84820022AF3D1D1
:1094A000C3EBC30201EB0212918A828A9142EBD193
:1094B000C3EBC303024800EB031070470020704762
:1094C0002C3A002008B9042070470820704700B5E6
:1094D00003468C460978C17000214162DCF808100F
:1094E0000B2904D89CF80C1029B3012100E00121BC
:1094F00019700020987031B1DCF808100731C908E4
:109500000139597218720121D97503F10C0E0CF151
:10951000100103C98EE80300BCF80E109982DCF834
:10952000181019629CF81C109975DCF82010D9628B
:109530009A625DF804FB0021DAE7000000210E4B7F
:109540001B688B4216D9002300E001330B4A02EB63
:10955000C10252689A420BD9084A52F8312002EBF4
:10956000C30C12F833208242EFD1DCF804007047BC
:109570000131E4E700207047043A0020083A002057
:1095800070B58CB006460D4614462C22002101A869
:109590001CF02EFD0F238DF80430ADF808609DF807
:1095A0000A3065F300038DF80A308DF80B4001A8EE
:1095B00001F014FA0CB070BD30B58DB005460C4604
:1095C0002C22002101A81CF013FD10238DF804307B
:1095D00002958DF80C4001A801F000FA0DB030BDE5
:1095E00000B58DB010B913F1020F06D1074B186802
:1095F00004F05AFB0DB05DF804FB01218DF8041056
:109600000293039201A801F0E9F9EFE7103A002074
:1096100070B5049C002962D01D468E46D2F800C069
:1096200051689668D368C4F80CC021616661A36173
:10963000D2F810C05169C4F81CC0216200236370C5
:109640000278D20922705AB30423734549D8E17DC8
:1096500041B3037803F07F03E3700023A3709AB152
:1096600043789B0103F4FE53827843EA9203E3803C
:109670008378DB0003F01803C27843EA52132372A5
:10968000C37803F01F036372002363622B78032BFC
:1096900021D82A78144B53F82230E362002070BDA1
:1096A0000123D2E70178C1F38011E170017801F064
:1096B0003F01217142B190F90130002B02DB0423FC
:1096C000A370CCE70823FBE70421A1700B4473458A
:1096D000C5D90920E3E77846FFF74CFCD9E7092014
:1096E000DDE70920DBE700BF8C72040070B50C4693
:1096F0001D4603789BB104263244A26000F10C039E
:109700002360836A6360C36AE36000232374204696
:1097100004F04AFE10B963691E442E6070BD012634
:10972000EAE72DE9F0418EB00D4616461C4680460C
:1097300000282DD0002D2FD0002C31D0636A0233A9
:10974000059304F10C00E378002B2DD00121A278C1
:1097500001AF3B46082A14BF0022012204F0F1FBAE
:109760000697CDF81C80B2B2ADF820200B951544B9
:109770000C95A3788DF83430237B022B16D0002370
:10978000ADF8283005A804F0D4FB0EB0BDE8F08198
:109790007846FFF7EFFBCDE77846FFF7EBFBCBE72B
:1097A0007846FFF7E7FBC9E70221D0E723692BB131
:1097B000236909931023ADF82830E3E77846FFF7D3
:1097C000D9FBF5E72DE9F04188B004460D46C37D8D
:1097D000002B3CD0082605FB06F8637AAB4238D054
:1097E000257201AB324602A92046FFF77FFF0746EC
:1097F00048BB4DB994F8533033B9A369C3F30C0394
:10980000E380012384F85330E37D7BB994F8523030
:1098100063B91DBBE06EB4F84A10A27823468A1AD9
:109820000146FFF77EFF012384F852300799204656
:10983000FFF788FDE16E3246414401981CF0AFFB12
:1098400002A804F0D7FD384608B0BDE8F0810C2628
:10985000C1E7B4F84A60A6EB0806C1E77846FFF70F
:1098600089FBD7E770B505460E4609B100230B60AA
:1098700095F85040002104E0631C85F85030013415
:10988000E4B26B7AA34210D3EA6C0123A3401A42DC
:10989000F5D121462846FFF795FF014628B9002E4D
:1098A000EAD0336801333360E6E7084670BDF0B5AF
:1098B00089B004460E46154683789A18C37D63B175
:1098C0000B239A4221D801AB02A92046FFF70EFFD5
:1098D000074620B1384609B0F0BD0F23F1E70799DC
:1098E0002046FFF72FFDE37D43B12A46314601981C
:1098F0001CF055FB02A804F07DFDEBE723462A4649
:1099000001993046FFF70DFFF4E70927E2E7000071
:1099100010B5044690F84830012B0CD103F098FBA9
:10992000237B012B0BD0094BD968014404F1300093
:1099300003F05AFB10BD7846FFF71CFBEEE7A27D53
:10994000024BD9681B6903FB0211EEE7143A0020B1
:1099500030B583B0002403E02846FFF7D9FF013477
:10996000032C18D8C4EBC4030C4A02EB031393F87E
:109970004830012BF3D100230193C4EBC40502EB63
:10998000051501A92846FFF76DFF0428E4D0019BC7
:10999000002BE4D0E0E703B030BD00BF2C3A00203C
:1099A00038B5044690F84830022B09D1064B1D68A3
:1099B00003F04EFB411904F1300003F015FB38BDF4
:1099C0007846FFF7D7FAF1E7143A002038B5044695
:1099D00090F84830022B10D10A4B5A7D5D689B6885
:1099E00003FB025503F034FB411904F1500003F06E
:1099F000FBFA012384F8683038BD7846FFF7BAFADD
:109A0000EAE700BF143A002010B50446808A02F04D
:109A100067FE01281CD1237BE3B194F91620002AAC
:109A20001ADBE27D4AB1022B18D094F90330002BE7
:109A300016DBA378B3B900200BE0E2780AB9012B5A
:109A400012D1237893B9A378042B11D1002000E020
:109A5000102010BD1020FCE70720FAE71020F8E7DF
:109A60000720F6E70720F4E70720F2E70020F0E7F9
:109A70000720EEE738B5044603784BB1C388C269C6
:109A80008169808A06F036FE054645B9284638BD0C
:109A9000C2698169808A06F027FE0546F5E7E1691B
:109AA000002201F00101A08AFFF76AFDEEE7000045
:109AB0002DE9F04780460E4617464B1EDBB2012BC0
:109AC0000FD8B7F5C07F10D80024032C1AD8C4EBE8
:109AD000C403314A02EB031393F848304BB101340D
:109AE000F3E77846FFF746FAEBE77846FFF742FAE6
:109AF000EAE7C4EBC40502EB0515384609F065FA40
:109B0000E86600E000255DB3EB6E002B42D04346D3
:109B10002C4608F1300ED3F800C058689968DA680E
:109B2000C4F800C06060A160E26010331034734577
:109B3000F1D10023EB64A5F84A70012E13D06FF029
:109B40000103AB62002385F86830144BAB652D66CA
:109B5000134BAB632D64012002F048FA85F848608E
:109B60002846BDE8F0870F4B1B7D85F85130002358
:109B700085F8523085F8533085F85030D8F82820D1
:109B80006A65A5F858306FF00103AB62064BAB6312
:109B90002D64E0E71D46E3E72C3A0020EBA5020028
:109BA000FD9E0200143A0020499F020000B585B0D6
:109BB00000228DF80F20A0B10B46024602320A6047
:109BC0000DF10F01184604F0B8F99DF80F3043B1BC
:109BD0000C4B1B6813F0040F03D00B4B1B68032BBB
:109BE00004DC9DF80F0005B05DF804FB074BD3F8CB
:109BF0000435074A009240F215420649042005F058
:109C000029FAEEE7EC2E0020E82E0020001001409B
:109C100044710400377104002DE9F04391B005460A
:109C20000E4614461F46D0F8188003784BB1C388FF
:109C3000C8F30C029A4230D29B1A4344A3F5005356
:109C4000AB6105F10C00EB7853B30121AA780DF15B
:109C500030094B46082A14BF0022012204F071F992
:109C6000C5F81880CDF810900596AB78E21A92B23C
:109C7000ADF8182032440A9209978DF82C30002351
:109C8000ADF82030EB78002B41D02B7B022B09D094
:109C900000236B620193029316E09B1A4344CFE7C3
:109CA0000221D3E71023ADF820302B690793EFE7AB
:109CB00010AB03EB840454F83C3C6B62002011B001
:109CC000BDE8F083019BB3B102AB01AA2979286AF0
:109CD00010F02AFC0024012CF4D810AB03EB840311
:109CE00053F83C0C0028EDD003A9FFF75FFF0028D4
:109CF000DED10134EFE72B7B022B2CD105F10C01D7
:109D0000E88910F0CBFC0028BFD10520D7E72B7BDA
:109D1000012B01D00520D2E7EB89ADF80430AB8AE6
:109D2000ADF806300024012C13D82946002341F851
:109D3000243F10AB03EB440333F83C0C10F019FC48
:109D400003A9686AFFF732FF08B90134EBE7002086
:109D5000B5E70520B3E70520B1E7000070B5F0B026
:109D60000E4614461D4610AB0A4601462046FFF734
:109D700053FF50B1224B1B6813F0040F03D0214B4B
:109D80001B68052B2FDC70B070BD2046FFF772FEFC
:109D90000028F8D103AB01228DF80C20A28AADF87F
:109DA0000E20002204928DF8142010AA0692A178A9
:109DB000711AADF81C1008AA93E8030082E80300AA
:109DC0000AAB04F10C0292E8030083E80300A37DD0
:109DD0008DF83830236A0C93636A0D930F9505A8AC
:109DE00000F0FCFDCFE7084BD3F80435074A00929A
:109DF00040F203720649062005F02CF9C3E700BFC4
:109E0000EC2E0020E82E00200010014058710400C4
:109E10003771040010B50446C06E09F0DAF804F199
:109E2000300003F0C9F894F84830022B08D07022B3
:109E3000002120461CF0DCF8002002F0D7F810BD0D
:109E400004F1500003F0B8F8F1E710B58CB0044607
:109E500090F84830012B0FD101238DF80430636D49
:109E6000029303F0F5F8039001A800F0B7FD204637
:109E7000FFF7D0FF0CB010BD7846FFF77BF8EBE79B
:109E800030B585B00D460446A8B194F84830022B91
:109E900015D02946606DFFF78FFB2046FFF7BAFF0C
:109EA000114B1B6813F0040F03D0104B1B68032BDE
:109EB00009DC05B030BD7846FFF75CF8E5E72046E1
:109EC000FFF714FAE5E70A4BD3F8043594F8482075
:109ED00002950192074A009240F2F31206490420CB
:109EE00005F0B8F8E5E700BFEC2E0020E82E0020D2
:109EF00000100140847104003771040008B5084661
:109F00000021FFF7BDFF08BD08B5037B012B02D080
:109F1000FFF79BFF08BD0121FFF7B2FFFAE7000042
:109F200008B590F8513053B1013B80F8513000230F
:109F300080F85030034B186803F0B6FE08BDFFF7F9
:109F4000E3FFFBE7103A002010B50C4691F84830CB
:109F5000012B03D12046FFF7E3FF10BD7846FFF742
:109F600009F8F7E770B5C6B00E46154682782A4460
:109F7000C37D2BB14FF48073934278D3002303E069
:109F80004FF4C073F8E70133032B14D8C3EBC30CB1
:109F9000394C04EB0C1C9CF848100129F3D1BCF897
:109FA0001440818A8C42EED1BCF80E40C1898C42AB
:109FB000E9D1082554E00121FFF77AFD0446002885
:109FC00057D02A463146C06E1BF0E9FF0023459367
:109FD00045A92046FFF746FC054608B1042842D1B2
:109FE000459B8BB9254B1B6813F0040F37D0244BCE
:109FF0001B68032B33DDB4F84AC0BCF1800F28BFC7
:10A000004FF0800C002313E02046FFF781FCE9E7C6
:10A01000E26ED25C1B490D68100959002E5C04A841
:10A0200000F8136002F00F020131AA5C42540133C0
:10A030006345EDD304AA002302F81C3003F18043EA
:10A0400003F58833D3F8043502920F4A01920F4A80
:10A0500000924FF4AC620E49042004F0FBFF00258F
:10A06000284646B070BD2046FFF7D4FEF8E7092524
:10A07000F6E70425F4E700BF2C3A0020EC2E002080
:10A08000E82E0020F02E0020A8710400586F040074
:10A090003771040070B504460D461646FFF7B4FC50
:10A0A00030B923782BB1324629462046FFF75AFFB4
:10A0B00070BD324629462046FFF7F9FBF8E700005D
:10A0C00038B504460D46CB695B780371CB691B78C4
:10A0D00083F00103C370CB6943628B8A0B2B07D8D3
:10A0E000CB7A002B35D10B7B012B02D0002300E073
:10A0F00001232370002B31D0287B02282BD0FFF7BF
:10A10000E1F9A070AB8A03440B33174A82FB0323A7
:10A110005B10013B6372002323720023E37504F19B
:10A120000C0395E8030083E80300AB6923622B89E5
:10A13000A382AB7AA3752B6AA362DF23E36228466E
:10A1400010F0DAFA20B12B78012B0AD0FF23E3625A
:10A1500038BD0123CDE7054B987DD0E70423A370DC
:10A16000DBE72023F3E700BFABAAAA2A143A0020BA
:10A17000062979D1F0B585B0154690F800C04FEAB0
:10A180008C1202F4FE5241788478C3781B0443EAAF
:10A190000463047943EA042344791C434FFA8CF6A0
:10A1A00042EA91012846FFF733F90746E0B1002E55
:10A1B0002FDBC289A98A8A422BD02C4B1B6813F053
:10A1C000040F30D02A4B1B68012B2CDD294BD3F810
:10A1D000043502910192284A009240F27D6227499B
:10A1E000022004F037FF1EE0204B1B6813F0040F21
:10A1F00019D01F4B1B68012B15DD1E4BD3F80435FE
:10A200001F4A009240F279621C49022004F022FFAA
:10A2100009E0002E09DBFD6C2543FD644CB90321E8
:10A220003846FFF72DFE05B0F0BDAB8AA7F85830D1
:10A23000F1E73B7883B17B7A5A1C01239340013BC1
:10A240009D420DD0002187F850103846FFF70AFBD9
:10A250003846FFF75DFBE6E77846FEF78BFEEAE758
:10A260003846FFF7F2FDDEE7704700BFEC2E002016
:10A27000E82E002000100140E8710400377104004E
:10A28000B87104002DE9F0438BB007460E46144622
:10A290001D461046FFF7EEFB50B994F80380B8F165
:10A2A000000F08D12B46224631463846FFF760FFA3
:10A2B0000BB0BDE8F0834046FFF740F98146002827
:10A2C000F6D08DF80480236A0793A38AADF8123084
:10A2D00005AB04F10C0292E8030083E80300A37DC0
:10A2E0008DF820300297039623788DF81030E36ABA
:10A2F0000993294601A8C847DAE792F801C01CF083
:10A30000010F08D010B5D47D14B1FFF7BBFF10BD0D
:10A31000FFF724FDFBE7704708B501390130FFF76F
:10A32000ECFF08BD10B54FF4E072002113481BF09C
:10A330005FFE06F0ABF90024114B1C608022214621
:10A3400010481BF055FE104B104A1A60104A5A6014
:10A350004CF250329A600F49D9601A6104221A7582
:10A360009C7508225A750C4803F07EFC0B4B186054
:10A370000B4B1C600B4806F087FC10BD2C3A0020EC
:10A38000003A002080390020143A0020809698007E
:10A39000F049020020A10700DDA50200103A0020CC
:10A3A000043A0020E195020008B506F08FF908BDD7
:10A3B00098B110B58CB00446036983B1C36983B109
:10A3C000836983B101466846FFF77AFEA28A216954
:10A3D0006846FFF75FFE0CB010BD0E2070470E20E0
:10A3E000F9E70E20F7E70E20F5E7000058B310B5A7
:10A3F00090B00A46044643683BB383693BB30146C9
:10A4000004A8FFF764F8134B1B6813F0040F03D084
:10A41000114B1B68062B06DCA268616804A8FFF7D5
:10A4200039FE10B010BD0D4BD3F804352278A16968
:10A43000029101920A4A009240F60502094907205A
:10A4400004F008FEE8E70E2070470E20E9E70E2032
:10A45000E7E700BFEC2E0020E82E002000100140AE
:10A460002C72040037710400037B012B01D0002003
:10A47000704730B591B004460D463F4B1B6813F052
:10A48000040F03D03D4B1B68032B5ADC04A80023A8
:10A4900004930593CDF81730B4F806E09DF810103A
:10A4A00001F080018DF81010CEF3861C4CEA0101FA
:10A4B0008DF810109DF8112002F003028DF8112084
:10A4C00042EA8E028DF811202A0E8DF812202A0CF5
:10A4D0008DF813202A0A8DF814208DF81550627813
:10A4E000022A0CBF012119469DF8102002F07F02BC
:10A4F0008DF8102042EAC1128DF810204FF00602AC
:10A5000009924FF001028DF82C20A28AADF82E207E
:10A510000C938DF81C300890226A0D928DF828302B
:10A52000E36A0F9319D0E389ADF82A30A37DF3B91C
:10A530008DF838306FF0010107A8FFF757FF11B011
:10A5400030BD0F4BD3F804350E4A009240F263221F
:10A550000D49042004F07EFD98E70DF10E0103A8DB
:10A5600010F0B8F8BDF80C30ADF82A30DEE7074B34
:10A570005B7D8DF83830DDE7EC2E0020E82E0020E2
:10A58000001001405872040037710400143A002092
:10A5900090F84830022B00D0704710B5044690F870
:10A5A0006830022B00D010BDC16CFFF75DFF0028A2
:10A5B000F9D1002384F86830F5E7000010B50024D5
:10A5C00007E0C4EBC402130103481844FFF7E0FF9F
:10A5D0000134032CF5D910BD2C3A002008B5FFF743
:10A5E000B7F9FFF7EBFF012008BD10B50C4691F855
:10A5F0004830022B06D1022384F868302046FFF74A
:10A60000C7FF10BD7846FEF7B5FCF4E7F0B583B0A0
:10A610000446C069A369E188060A0006C3F30C0278
:10A6200091422FD98A1A1A44A2F50052851846F190
:10A6300000062A463346A08AFEF738FE002840F07E
:10A6400089802046FEF71EFF074630B3C269D0F866
:10A6500018C0C388100A1206CCF30C01994214D218
:10A66000591A6144A1F50051521840F10003AA4261
:10A6700073EB06010DD3954276EB030330D33846D6
:10A6800003B0F0BD891ACA18D0E75B1A03EB0C01BE
:10A69000EAE705213846FFF7F3FBE388E269A169A1
:10A6A000A08A06F0F9F8E8B9627A0132E37DA3B333
:10A6B000082101FB02F293B34FF48073934231D32C
:10A6C00002212046FFF7F4F907460028D7D10021E0
:10A6D0002046FFF7C9FE02210020FEF76DFFCEE7FE
:10A6E0000027CCE7E388E269A169A08A06F04CF96B
:10A6F00008B90027C3E723785BB1637A01330121EE
:10A70000994001392046FFF7AFFE2046FFF7B2F926
:10A71000EFE77846FEF72EFCEFE70C21C9E74FF490
:10A72000C073CBE70C4B1B6813F0040F03D00B4B2B
:10A730001B68002B01DC0027A1E7094BD3F8043587
:10A740000192084A009240F27F320749012004F04A
:10A7500081FCF0E7002792E7EC2E0020E82E002095
:10A760000010014068720400377104002DE9F041C7
:10A7700082B007460E46144698461046FFF746FF3D
:10A78000002846D00546404B1B6813F0040F03D049
:10A790003E4B1B68032B3FDC2846FFF701F92B7B60
:10A7A000012B47D0EB6C217A01228A40134230D131
:10A7B0001343EB64043E237AE27D002A42D04FF03B
:10A7C000080C0CFB03FC697A8B423ED0002A41D076
:10A7D0000823B34240D1AA69A3699A4209D205F17C
:10A7E0000C0E0C340FCCAEE80F0094E803008EE89A
:10A7F0000300E86E3246391D60441BF0D0FBEC6C60
:10A800002B7873B36B7A5A1C01239340013B9C4213
:10A810002BD002B0BDE8F0811D4BD3F80435227A6D
:10A8200001921C4A009240F2A3321B49042004F01A
:10A8300011FCB1E795F86830002BB3D12846FFF73B
:10A84000C5F8AFE74FF00C0CBBE70CEB0603A5F81F
:10A850004A30C0E70C23BCE704212846FFF710FB71
:10A86000D7E77846FEF786FBCCE7E96C2846FFF78A
:10A87000FBFD43462A46B5F84A10E86EFFF73DFD5A
:10A880002846FFF7C7FAC4E7EC2E0020E82E002088
:10A89000001001407C720400377104002DE9F04182
:10A8A00090B000284CD00F4614461E468046002A21
:10A8B00048D004AB00933346FEF7AAFE054618B114
:10A8C000284610B0BDE8F08104A8FFF79DF80546C2
:10A8D0000028F5D100230293039302A960880FF0AA
:10A8E000DDFE28B19DF8113043F001038DF81130E1
:10A8F0002269E168208905F087FF38B19DF81130A1
:10A9000003F0FE038DF81130002BD9D09DF81130E3
:10A91000002BD5D013F0010F01D0039B08939DF8B5
:10A92000103033B1334604AA39464046FFF71EFFC4
:10A93000C6E7334604AA39464046FFF7EDFCBFE7B9
:10A940000E25BDE70E25BBE7F8B508B30E46054654
:10A95000164B1F68F7B93C46B4420FD205EBC4034F
:10A960005B68D3B115F8340015F93430002B16DBD1
:10A97000B8B1FEF7E3FDB0B90134EDE70C4B43F895
:10A98000375003EBC7035E607B1C084A136002E08C
:10A990000E2700E004273846F8BD0E27FBE70B27FB
:10A9A000F9E70F27F7E70F27F5E700BF043A002084
:10A9B000083A0020084B196861B110B501E0214642
:10A9C0003CB10C680B79002BF9D0034804F0ACFAC9
:10A9D000F5E710BD704700BFF03B002038B50546D5
:10A9E00030B1104B1C68C4B10F4B01221A7004E047
:10A9F0007846FEF7BFFAF4E724683CB12379002BD0
:10AA0000FAD154F8043C28469847F5E7064B1B78E2
:10AA1000022B03D0044B00221A7038BDFFF7CAFF87
:10AA2000F8E700BFF03B0020EC3B002010B50446E7
:10AA300030B100232372211D034804F04AFA10BDEF
:10AA40007846FEF797FAF4E7F03B002010B504468D
:10AA500058B10A4B1B78013BDBB2012B09D8074BDD
:10AA600002221A700123237210BD7846FEF782FA83
:10AA7000EFE7211D024804F057FAF5E7EC3B002010
:10AA8000F03B00200A8883689B5A07339BB223F06F
:10AA9000030313449BB20288043A934200D9002373
:10AAA0000B80704710B582B004468368C91AADF8B0
:10AAB00006100DF10601FFF7E5FFBDF80630A068AE
:10AAC000184402B010BD0088043880B27047438833
:10AAD0008268D018D15201238370704782680023A6
:10AAE000937043808380704708B5073189B221F0A5
:10AAF000030189B2428883889A4204D29B1A994200
:10AB000020DC002008BD9A4212D9B0F800C0ACEB9E
:10AB1000020C614518D98B4218D3BCF1030F03D93D
:10AB20008368134404229A70002343801846E9E79F
:10AB3000826813449B780BB10420E3E7FFF7CEFF54
:10AB40000020DFE70420DDE70020DBE70420D9E771
:10AB500038B504460D468368828813448B4202D080
:10AB60007846FEF707FA0023AB70211D2046FFF759
:10AB700089FFA288A36813449B78042B00D038BDBA
:10AB80000023A380FBE710B50C468368428813447A
:10AB90008B4202D07846FEF7EDF90023A37010BD7A
:10ABA00070B5054614460E46002944D0002D46D007
:10ABB000B6F1005F08D94FF08053D3F80C3103F59C
:10ABC0000023B6EB832F0ED3B6F5000F08D94FF054
:10ABD0008053D3F80C3103F50053B6EB832F02D327
:10ABE0007846FEF7C7F9631E3344B3F1005F08D916
:10ABF0004FF08052D2F80C2102F50022B3EB822FE5
:10AC00000ED3B3F5000F08D94FF08052D2F80C21C3
:10AC100002F50052B3EB822F02D37846FEF7AAF971
:10AC2000042C10D92C8000236B80AB80AE60043CD8
:10AC30003480B37070BD7846FEF79CF9B6E778466D
:10AC4000FEF798F9B4E77846FEF794F9EAE738B5E5
:10AC50000446A0B16288A36813449B78012B12D0EC
:10AC6000EFF3108572B6A388A16819448B78032B83
:10AC70000DD02046FFF732FF05B962B638BD7846E1
:10AC8000FEF778F9E6E77846FEF774F9E8E720463C
:10AC9000FFF708FFA368C31A638000238370EBE704
:10ACA0002DE9F0410E4614460546D0B1EEB16A8852
:10ACB000AB6813449B78012B1BD024B32846FFF7C5
:10ACC00002FFA04221D3EFF3108872B62146284636
:10ACD000FFF70AFF074680B1B8F1000F16D162B640
:10ACE00014E07846FEF746F9E0E77846FEF742F9C9
:10ACF000DDE77846FEF73EF9DFE721462846FFF715
:10AD0000E6FE3060E8E7092700E009273846BDE89D
:10AD1000F081F8B50C4615460646E0B1FCB1A378C3
:10AD2000012B20D12388AB4221D325B3EFF3108729
:10AD300072B625800223A370F1183046FFF7A2FEF9
:10AD40007388B288934203D0B268134400229A7089
:10AD500007B962B6F8BD7846FEF70CF9DEE778462B
:10AD6000FEF708F9DBE77846FEF704F9DAE77846FC
:10AD7000FEF700F9D9E77846FEF7FCF8D6E770B59C
:10AD80000C46054690B1ACB1EFF3108672B6AA88B6
:10AD9000AB6813449A78042A10D09A78022A15D006
:10ADA000032A18D0052006B962B670BD7846FEF7B2
:10ADB000E1F8E8E77846FEF7DDF8E5E7291D2846E3
:10ADC000FFF760FEAA88AB681344E6E703229A7097
:10ADD00023600020E7E77846FEF7CCF80020E2E7A2
:10ADE00038B5044680B1EFF3108572B6A088A1682B
:10ADF00001448B78042B0BD08878022814BF0020E4
:10AE0000012005B962B638BD7846FEF7B3F8EAE727
:10AE10002046FFF747FE0146EEE738B5054630B15C
:10AE2000EFF3108472B6A888A968014407E0784659
:10AE3000FEF7A0F8F4E72846FFF734FE01468878CD
:10AE4000C31EDBB2012BF6D9022814BF002001205B
:10AE500004B962B638BD70B50C46064678B194B1F7
:10AE6000EFF3108572B6A378012B10D0032B13D10A
:10AE700021463046FFF76CFE05B962B670BD7846D4
:10AE8000FEF778F8EBE77846FEF774F8E8E7214636
:10AE90003046FFF778FEEFE77846FEF76BF8EBE712
:10AEA00010B5EFF3108472B68388816819448B78EB
:10AEB000042B06D08878B0FA80F0400904B962B655
:10AEC00010BDFFF7EFFD0146F4E70000024B002242
:10AED0001A769A6002207047F43B002008B5064BB2
:10AEE000986800221A605A609A60DA601A615A61A2
:10AEF0009A6105F077F808BDF43B002000B585B0F5
:10AF00000A4BDB6802228DF8002001934FF4805336
:10AF10000293074A6946012001F0F8FA18B90120A6
:10AF200005B05DF804FB0020FAE700BFF43B002009
:10AF3000123C002000B585B00A4B1B6802228DF838
:10AF4000002001934FF480530293074A6946012081
:10AF500001F0DCFA18B9012005B05DF804FB00200F
:10AF6000FAE700BF143C0020123C0020164BDA68C0
:10AF7000137951795B1A03F57F2303F6FF7302EB14
:10AF800003339A4205D002F580520F4BDA6003205A
:10AF9000704700B585B00D4B1B6801208DF800008F
:10AFA00001930B4B0393042302930A4A694601F071
:10AFB000ADFA18B1002005B05DF804FB024B012288
:10AFC0001A760220F7E700BFF43B0020143C002073
:10AFD000183C0020123C002000B585B00C4BDA680C
:10AFE0000C4B1B68043301208DF800000192039381
:10AFF00040F6FC730293084A694601F087FA28B9C3
:10B000000120034B187605B05DF804FB0020FAE739
:10B01000F43B0020143C0020123C002000B585B019
:10B020000A4B1B6801208DF800000193084B039325
:10B0300004230293074A694601F068FA18B901200F
:10B0400005B05DF804FB0020FAE700BF143C0020C7
:10B05000003C0020123C002010B584B0104BDA6890
:10B060001478104B1B68043301208DF80000019305
:10B07000039202940C4A694601F048FA70B9094BF0
:10B080001B6804F0FC041C440434054B5C61D96863
:10B090000A780A441A61012004B010BD0020FBE7C1
:10B0A000F43B0020143C0020123C002008B5002393
:10B0B0000A2B09D8064A52F82320824201D00133D4
:10B0C000F6E7044A536002E07846FDF753FF08BDF7
:10B0D00008730400F43B002010B5214BDB6853B12A
:10B0E0001F4B1B7E5BB91E4B5B680A2B26D978462B
:10B0F000FDF740FF22E07846FDF73CFFF0E7784699
:10B10000FDF738FFEFE7164A5368013353600A2B07
:10B1100021D97846FDF72EFF1DE0114B00225A6021
:10B1200019E00F4B1B7E1BB10D4B02221A7012E06F
:10B13000FFF7D4FE0FE00A4B1B7E83B9084B5A6819
:10B14000084B53F82230984704460228E9D00328D8
:10B15000E3D00128D7D0012CEDD0032CEBD010BDCB
:10B16000F43B002008730400104B1B681B685A1E38
:10B1700012F1030F18D8C3F30B020AB10020704775
:10B1800010B50B4AD3600023137653760124147054
:10B1900093600848FFF78AFF0749204601F0A4F9A9
:10B1A000FFF79AFF204610BD00207047143C002096
:10B1B000F43B0020FDAE0200BDB1020008B50B78E3
:10B1C000032B06D00B4B1B78012B06D0022B0BD088
:10B1D00008BD084B00221A76F4E7064B1B7E002BB5
:10B1E000F6D1FFF779FFF3E70B78032BF0D1FFF7E8
:10B1F00075FEEDE7F43B002000B585B0174BDB682A
:10B2000018784FF6FF7203F58051184405F0F2FCF0
:10B21000E0B10246114BD9680B780B44984217D025
:10B220000E4B5B7E83B10E4B01208DF80000019226
:10B230000393042302930B4A694601F067F948B966
:10B240000120064B187606E0074BEDE7012002E0EF
:10B25000012000E0002005B05DF804FBF43B002075
:10B260002C750400123C00202875040008B5104B12
:10B27000DB681878002203F58051184405F0BAFC09
:10B2800008B1012008BD0A4BDA68137951795B1ABD
:10B2900003F57F2303F6FF7302EB03339A4205D0D5
:10B2A00002F58052024BDA600320EBE70220E9E767
:10B2B000F43B0020F0B585B0514BDE6872793379EC
:10B2C000591E8A4214D006F580510D780D444D491F
:10B2D0000968081D0F7907449B1A06EB03366B8833
:10B2E000013B9BB247F6FE62934260D92C461AE0BE
:10B2F0000120434B58767EE07846FDF73BFE15E093
:10B3000024F47F6424F00F0404F5805423781C4453
:10B31000A6421CD9A5421CD26388013B9BB247F6CA
:10B32000FE62934211D92388002BE5D0238804EBD9
:10B33000830323F47F6222F00F029342E0D06288FD
:10B34000B2F5FE4FDCD01C46E2E725462FE0002593
:10B350002DE000252BE07846FDF70CFE15E024F4E7
:10B360007F6424F00F0404F5805423781C44A64223
:10B370001CD9A54237D26388013B9BB247F6FE62D7
:10B38000934211D92388002BE5D0238804EB830353
:10B3900023F47F6222F00F029342E0D06288B2F57C
:10B3A000FE4FDCD01C46E2E7254600E00025E5B173
:10B3B000144B19686A8801F58051384605F01AFC6B
:10B3C000074690B101200E4B18768DF800000195CC
:10B3D0000D4B0393042302930C4A694601F096F83F
:10B3E00058B92C46CEE70025E1E7B5FA85F56D0999
:10B3F000034B5D76012005B0F0BD0020FBE700BFE8
:10B40000F43B0020143C002024750400123C002072
:10B410002DE9F04186B0654B1B6923B1634B5B6935
:10B420002BB1002748E07846FDF7A4FDF6E7784603
:10B43000FDF7A0FDF5E7A04618E07846FDF79AFD78
:10B4400018E028F47F6828F00F0808F5805898F86D
:10B4500000309844454520D944454AD2B8F80230D6
:10B46000013B9BB247F6FE62934214D9B8F8003014
:10B47000002BE2D0B8F8003008EB830323F47F629E
:10B4800022F00F029342DCD0B8F80220B2F5FE4F52
:10B49000D7D09846DEE7444600E000243CBB0023BA
:10B4A0000093019B002B5CD10127002C78D062888F
:10B4B00047F6FF739A4273D0002F75D13B4B5A6900
:10B4C00022F47F6626F00F06B61A06F580561C6930
:10B4D000DD682B796A799B1A05EB0335002301930C
:10B4E0006388013B9BB247F6FE629342A3D8009467
:10B4F0000EE00024D2E77846FDF73CFD23E024F47B
:10B500007F6424F00F0404F58054237823441C4600
:10B51000A542C6D92388019A02EB83029642C0D97C
:10B52000009B634023F47F6323F00F03002BB8D10B
:10B530006388013B9BB247F6FE618B42B1D8019212
:10B540002388002BD7D0238804EB830323F47F6266
:10B5500022F00F029342D2D06288B2F5FE4FD6D1CC
:10B56000CDE7124A526901208DF808000392009A33
:10B57000059204930E4A02A900F0C8FF70B90B4966
:10B58000019B23F003024B6913444B6114B1074B39
:10B590001C618AE77846FDF7EDFCF8E7002000E043
:10B5A000012006B0BDE8F0810120FAE7F43B00205D
:10B5B000123C002000B585B00023294A1370D3F84F
:10B5C000F83FB3F1FF3F09D0B3F1FF3F0DD08BB18E
:10B5D000B3F1FF3F39D0A3F5805211E04FF01022B4
:10B5E0005269B2F1FF3FEFD104E04FF010225269EF
:10B5F000002AEDD14FF080535A691B6903FB02F218
:10B60000A2F58052174B1A60174B1B6813F4801F6A
:10B6100016D0164B1B68062B12DD154BD3F80435DC
:10B620000021D1F8F81FB1F1FF3F14D0029201912F
:10B63000104A009240F276220F49072003F00AFDDB
:10B64000FFF792FD05B05DF804FB4FF010235A6937
:10B65000A2F58052D4E74FF010214969E6E700BF18
:10B66000103C0020143C0020EC2E0020E82E00208E
:10B6700000100140D4720400BB72040010B50446EF
:10B68000B0B1104B1B78BBB10E4BD968E368587949
:10B69000A3EB0032914211D31A79121A02F57F22DC
:10B6A00002F6FF7203EB0233994209D8012004E04D
:10B6B0007846FDF75FFCE4E7002010BD0020FCE7C2
:10B6C0000020FAE7F43B0020024B1878003818BF3E
:10B6D00001207047F43B002010B50446124B1B7844
:10B6E000BBB92378032B18D10F4B9C60E268DA605A
:10B6F0000E4B1B78ABB10A220B4B5A6000221A7614
:10B70000012018705A760A4900F0EEFEFFF7E4FCBB
:10B7100010BD7846FDF72EFCE3E77846FDF72AFCDE
:10B72000E2E70022E8E700BFF43B0020103C0020E5
:10B73000BDB10200014B1868704700BF143C0020E7
:10B7400010B5044680B163681BB123680BB1A368D0
:10B7500013B97846FDF70EFCA3685A1E134207D1B1
:10B760000023E360236110BD7846FDF703FCEAE7A0
:10B770007846FDF7FFFBF3E770B508B30E460446C5
:10B780008368FBB1EFF3108572B60369C268934218
:10B7900012D001684268806800F1FF3C03EA0C03A4
:10B7A00003FB021116B130461AF0F9FB236901338D
:10B7B00023614DB962B608E005B962B6052504E01B
:10B7C0000E2502E0092500E00025284670BD000096
:10B7D0000246C0F30B0030BB39B301F6FF714FEAEC
:10B7E000113C134B0221C3F80415114BD3F800345C
:10B7F000002BFAD001460AE00D4BC3F808250C4B8C
:10B80000D3F80034002BFAD002F5805201316145A3
:10B81000F2D3074B0022C3F80425054BD3F80034BC
:10B82000002BFAD07047102070470920704700BFE6
:10B8300000E00140844610F0030F2DD111F0030FFA
:10B840002CD16AB312F0030F2CD19008164B0122B1
:10B85000C3F80425144BD3F80034002BFAD003E0CE
:10B860000CF1040C04311046421E58B10B68B3F1C0
:10B87000FF3FF5D0CCF800300B4BD3F80034002B51
:10B88000FAD0EDE7084B0022C3F80425064BD3F8A5
:10B890000034002BFAD070471020704710207047FA
:10B8A000092070470920704700E00140094B1B78D0
:10B8B00013F0040F02D00378122B00D07047064B10
:10B8C0001A68064B5A60034B1A786FF382021A709B
:10B8D000F4E700BFC03C0020B03C00204C3C0020FE
:10B8E00010B582B001900C46BDF80630012B11D185
:10B8F00023680A490B600A4B1A7842F001021A7059
:10B90000D3B25B0883F0010303F001030B71002045
:10B9100002B010BD7846FDF72DFBE9E7B03C0020F2
:10B92000C03C002010B582B001900C46BDF8063036
:10B93000022B0FD12268094B1A6022791A7100205C
:10B9400058719871D871064A137843F00203137046
:10B9500002B010BD7846FDF70DFBEBE7A83C0020D8
:10B96000C03C002010B582B001900C46BDF80630F6
:10B97000032B06D1054B186820601B79237102B098
:10B9800010BD7846FDF7F6FAF4E700BFB03C0020A2
:10B9900010B582B001900C46BDF80630032B0CD1D7
:10B9A000084B2068186022791A71074A137843F00F
:10B9B00001031370002002B010BD7846FDF7DAFADB
:10B9C000EEE700BFB03C0020C03C002010B582B0C4
:10B9D00001900C46BDF80630042B05D1044B03CB77
:10B9E0002060616002B010BD7846FDF7C3FAF5E74C
:10B9F000A83C002010B582B001900C46BDF806307E
:10BA0000042B0BD1074B2068616803C3064A1378E7
:10BA100043F002031370002002B010BD7846FDF71A
:10BA2000A9FAEFE7A83C0020C03C002000B583B095
:10BA30000190BDF80630032B06D1054B00221A6099
:10BA40001A7103B05DF804FB7846FDF793FAF4E74A
:10BA5000B03C002000B583B00190BDF80630042B47
:10BA600006D1054B00221A605A6003B05DF804FB52
:10BA70007846FDF77FFAF4E7A83C002000B585B0D2
:10BA80001A4B1B7813F0400F13D0184B1B7813F090
:10BA9000040F0BD1002301938DF80830144B5B6821
:10BAA00003F500530193B3F1807F06D905B05DF82B
:10BAB00004FB7846FDF75EFAE7E70E4B1B788DF83E
:10BAC00008300A4A137843F0040313700023ADF8DA
:10BAD0000C300323ADF80E3001A9039806F06CFA80
