:020000022000DC
:1060000000F000206D630200556302005763020038
:10601000596302005B6302005D6302000000000040
:106020000000000000000000000000005F630200AC
:106030006163020000000000636302006563020008
:106040006763020067630200676302006763020020
:10605000676302006763020075E80300676302007C
:106060006763020001E3030049B3030067630200B2
:1060700067630200676302006763020067630200F0
:10608000676302006D8804001DE002006763020080
:10609000D1880400676302006DF3030067630200A8
:1060A00067630200676302006763020067630200C0
:1060B0006763020067630200000000000000000048
:1060C00067630200676302006763020067630200A0
:1060D000676302006763020067630200000000005C
:1060E00000000000000000000000000000000000B0
:1060F00000000000000000000000000000000000A0
:10610000000000000000000000000000000000008F
:10611000000000000000000000000000000000007F
:10612000000000000000000000000000000000006F
:10613000000000000000000000000000000000005F
:10614000000000000000000000000000000000004F
:10615000000000000000000000000000000000003F
:10616000000000000000000000000000000000002F
:10617000000000000000000000000000000000001F
:10618000000000000000000000000000000000000F
:1061900000000000000000000000000000000000FF
:1061A00000000000000000000000000000000000EF
:1061B00000000000000000000000000000000000DF
:1061C00000000000000000000000000000000000CF
:1061D00000000000000000000000000000000000BF
:1061E00000000000000000000000000000000000AF
:1061F000000000000000000000000000000000009F
:10620000344935480A1A02D0072291438D46334952
:1062100033480A1A06D00722914381F309880222E3
:1062200082F314882F483049304A00F042F8304851
:106230003049314A00F03DF830483149314A00F0E8
:1062400038F831483149324A00F033F831483249A0
:10625000324A00F02EF832483249334A00F029F829
:1062600032483349334A00F024F833483349002296
:1062700000F02AF832483349002200F025F832486D
:106280003249091A082902DB0022026041601F48D6
:106290001F49884205D00268043003B4904703BC0C
:1062A000F7E700208646EC4600200021284A904768
:1062B000FEE7884207D0521A05D0037801300B70F0
:1062C0000131013AF9D17047884202D002700130A1
:1062D000FAE7704700F0002000E8002000F00020FE
:1062E00000F00020D8B80400F02D0020603100201C
:1062F000A0630200A0630200F08F0400D8B804007D
:10630000F02D0020F02D0020E0940400E094040023
:10631000E0940400E0940400E0940400E09404009D
:10632000E0940400E0940400D8B8040048BC0400E1
:106330006031002060310020603100207067002053
:10634000706700207067002070670020706B00206D
:10635000116B0200FEE7FEE7FEE7FEE7FEE7FEE761
:10636000FEE7FEE7FEE7FEE700F002B8FFF7FCBF3E
:1063700008484FF00701884385460748804707488B
:10638000016841F470010160BFF34F8FBFF36F8F5D
:10639000FFF736BF00F00020ADF8030088ED00E005
:1063A00041DF7047014B1B880B8070478431002010
:1063B0000D4B1B6813F4804F03D00C4B1B68032B51
:1063C00000DC704700B585B0094BD3F80435029264
:1063D0000191084A009291220749042008F024FF05
:1063E00005B05DF804FB00BFF8300020F430002059
:1063F00000100140249504001C9504000D4B1B68FF
:1064000013F4804F03D00C4B1B68032B00DC704748
:1064100000B585B0094BD3F8043502920191084AC2
:10642000009288220749042008F0FEFE05B05DF8BE
:1064300004FB00BFF8300020F430002000100140C1
:106440004C9504001C95040000B58DB01FF0B2FB04
:106450002422002103A822F064FD01238DF80C30D2
:1064600007238DF80F3006238DF81430224B079345
:10647000224B0B93224903A80CF03AFF034618B3B2
:10648000002B32D00B2B2FD11FF0D8FB1D4B1B68DC
:1064900013F4804F03D01C4B1B68032B18DC194BE3
:1064A0001B6813F4804F20D0174B1B68032B1CDD97
:1064B000164BD3F80435164A00924FF4AA721549C8
:1064C000042008F0B1FE10E01FF094FB0346D7E76C
:1064D0000E4BD3F80435104A00924FF4A9720D49BF
:1064E000042008F0A1FEDAE713B90DB05DF804FB53
:1064F000184619F0FBFAF8E7ED6602009D65020008
:1065000060310020F8300020F430002000100140FD
:10651000C89504001C9504007895040000B583B06C
:10652000174A04214FF4C04008F062FE154B1B6867
:1065300013F4804F03D0144B1B68032B10DC13485B
:1065400002F02CFA22F0C8F9B0B902F073FB02F0A5
:10655000AFFB02F0DDFBFFF777FF03B05DF804FB54
:106560000B4BD3F804350B4A00924FF4B0720A4932
:10657000042008F059FEE2E719F0B8FAE5E700BF99
:10658000C5F10200F8300020F4300020A02F0020D8
:1065900000100140049604001C95040000B585B06D
:1065A00000212E4801F0D6F918BB2D4B1B6813F4BF
:1065B000804F03D02B4B1B68032B1DDC00212A4886
:1065C00001F0B0FD48BB2949274801F0D9FD48BB7F
:1065D0002549224801F0B8FA48BB214B1B6813F447
:1065E000804F03D01F4B1B68032B25DC05B05DF8E3
:1065F00004FB19F07BFAD8E71D4BD3F80435174A92
:10660000118892F8BC20029201911A4A00929A22B3
:106610001949042008F008FED0E7184AA02119F013
:1066200073FAD0E7154AA12119F06EFAD0E7134AA0
:10663000A22119F069FAD0E70D4BD3F804350A4AC4
:10664000118892F83420029201910D4A0092A422FE
:106650000949042008F0E8FDC8E700BF002E00202B
:10666000F8300020F4300020C02F0020982F0020A8
:10667000001001403C9604001C950400E0940400C6
:106680007896040008B5034B1988034802F0C8F94E
:1066900008BD00BF84310020A02F002000B583B0CA
:1066A0000D4B1B6813F4804F03D00C4B1B68032B5E
:1066B00006DC1FF0C3FA0CF07BFE03B05DF804FBB0
:1066C000074BD3F80435074A0092C122064904203B
:1066D00008F0AAFDEDE700BFF8300020F4300020FC
:1066E00000100140A89604001C95040008B503782A
:1066F000232B00D008BDFFF7D1FFFBE730B5C7B0B3
:1067000003781D2B04D00446142B09D047B030BDAC
:106710002C4801F071F90028F8D019F0E7F9F5E7F5
:10672000294B1B6813F4804F03D0284B1B68042BA4
:106730000FDC254B1B6813F4804FE7D0234B1B68FD
:10674000042BE3DD2369802B28BF80239E46002392
:1067500021E01F4BD3F80435C288018900790390EA
:10676000029101921B4A0092B8221B49052008F0B1
:106770005BFDDEE7E268D25C18490D68100959003C
:1067800015F800C005A800F813C002F00F0201318F
:10679000AA5C425401337345ECD305AA002302F8E6
:1067A0001E3003F1804303F58833D3F80435029299
:1067B0000B4A01920B4A0092BA220749052008F0C1
:1067C00033FDA3E7002E0020F8300020F430002035
:1067D00000100140C49604001C950400FC30002009
:1067E000F49604000097040030B583B00446451CBD
:1067F0004F4B1B6813F4804F03D04E4B1B68032B89
:106800001ADC022D32D0042D3BD0012D20D0484B74
:106810001B6813F4804F25D0464B1B68032B21DDEA
:10682000454BD3F80435454A00924FF482724449EF
:10683000042008F0F9FC15E03F4BD3F8043501952E
:10684000404A0092DD223E49042008F0EDFCD8E7E2
:106850003D4A1388B3F5804F38BF4FF48043A3F50A
:1068600080431380012C2AD903B030BD364A1388E7
:106870004BF6FF718B4228BF0B4603F58043138014
:10688000F0E70CF031FD98B9294B1B6813F4804FE9
:10689000E8D0284B1B68032BE4DD274BD3F80435E5
:1068A0002A4A0092FE222649042008F0BDFCD9E7BE
:1068B0000EF010FB0CF00CFDFFF7F0FED2E7224BC0
:1068C0001988234802F0ACF8224801F0F7F8044692
:1068D000174B1B6813F4804F03D0164B1B68032B18
:1068E00017DC002CC0D0124B1B6813F4804FBBD0B8
:1068F000104B1B68012BB7DD0F4BD3F80435019407
:10690000154A00924FF488720D49022008F08CFC61
:10691000AAE7094BD3F804350B4A128801920F4AB3
:10692000009240F20D120649042008F07DFCD8E7E1
:10693000F8300020F43000200010014018980400C6
:106940001C95040008970400843100201C97040063
:10695000A02F0020002E002054970400689504000A
:1069600000B583B03138032814D90D4B1B6813F4DC
:10697000804F11D00B4B1B68032B0DDD0A4BD3F856
:1069800004350A4A00924FF48F720949042008F036
:106990004BFC01E0FFF728FF03B05DF804FB00BFEC
:1069A000F8300020F4300020001001401898040056
:1069B0001C95040000B585B003A812F037FE0D4BFE
:1069C0001B6813F4804F03D00B4B1B68032B02DCB6
:1069D00005B05DF804FB094BD3F80435BDF80C2075
:1069E0000192074A00924FF493720649042008F07E
:1069F0001BFCEDE7F8300020F430002000100140CF
:106A0000849704001C95040000B58BB064212048D5
:106A100001F0FAFE1F4B1B789BB903930493059377
:106A200006930793089309931B4B04931B4B0893FE
:106A30001B4B099303A801F07DFE20B119F056F815
:106A400001E0FFF7B7FF02F0BBFC01F011FF1548B2
:106A500006F0E4F80CF09EFC58B9134B1B6813F4D5
:106A6000804F03D0114B1B68032B05DC0BB05DF886
:106A700004FB19F03BF8F0E70D4BD3F804350D4A51
:106A800000924FF4C6720C49042008F0CDFBEDE7EC
:106A90006169020060310020BD6A02009C97040019
:106AA00044990400F02D0020F8300020F43000203C
:106AB00000100140189804001C95040000B583B034
:106AC0000E4B1B6813F4804F03D00D4B1B68032B38
:106AD00008DC02F0EDF802F01BF9FFF76BFF03B0E2
:106AE0005DF804FB074BD3F80435074A009240F2E7
:106AF0002B120649042008F097FBEAE7F830002043
:106B0000F430002000100140CC9704001C950400D4
:106B100000B583B04FF0A0430322C3F83027C3F879
:106B20006427C3F87427FFF7F9FCFFF76DFF0C200B
:106B300002F0BAFA02F01CFB42F2B82002F0DCFAD2
:106B4000042002F035FB09E04FF47A744FF47A40E8
:106B5000194B43F001039847013CF7D1FFF720FCA4
:106B600002F084FA154B83ED000ADFED157A20EE72
:106B7000270A144CBCEEC00A10EE103A2380042001
:106B800002F016FB208802F0B7FA0F4B1B6813F4D3
:106B9000804FD9D00D4B1B68032BD5DD0C4BD3F8A0
:106BA0000435228801920B4A009240F2A7120A494A
:106BB000042008F039FBC7E700980400CC3100201E
:106BC0000000C84284310020F8300020F43000205A
:106BD00000100140E89704001C95040008B5D0F8A7
:106BE000C83013B1B0F8E810984708BD08B5A03810
:106BF00001F002FC08BD000010B582B0134B1C6808
:106C000007E0002204F8042CA4F19C0001F0F4FB3E
:106C10002468C4B114F8043C002BF9D00C4B1B6859
:106C200013F4804FEDD00B4B1B68032BE9DD0A4BAF
:106C3000D3F80435094A00924FF438720849042009
:106C400008F0F2FADDE7012002B010BDE4310020C7
:106C5000F8300020F430002000100140909904002A
:106C60007999040030B587B00446A0F1F805037F98
:106C7000012B03D033B1022B08D103E010F8062C0E
:106C8000002AF7D034F80A3C24F80C3C34F8083CCD
:106C900024F80E3C002344F8043C144B1B6813F406
:106CA000804F03D0124B1B68032B09DC54F8283C9F
:106CB00023B134F80E2C216A2846984707B030BD1E
:106CC0000C4BD3F8043514F83C2C34F80C1C206A17
:106CD0000490606A039002910192074A009240F288
:106CE00015320649042008F09FFADFE7F83000204B
:106CF000F430002000100140A099040079990400AC
:106D00000F4B1B6813F4804F03D00E4B1B68032BF3
:106D100000DC704700B585B00B4BD3F8043510F894
:106D20003C2C30F8101C02910192084A00924FF45A
:106D30003F720749042008F077FA05B05DF804FBBC
:106D4000F8300020F430002000100140E4990400E5
:106D50007999040038B50D46C4B20231204621F0BD
:106D6000EBF950B9291D204621F00EFA50B92946F9
:106D7000204621F0B9F950B938BD074A9B2118F0D7
:106D8000C3FEEFE7044A9C2118F0BEFEEFE7024A7B
:106D90009D2118F0B9FEEFE75499040010B582B0B8
:106DA0000C466946FFF7D6FFBDF80400A04207D3A2
:106DB000BDF80200A04202D914B9204600E02046E6
:106DC00002B010BD10B582B00446694690F8C40008
:106DD000FFF7C0FFB4F8E830BDF80210BDF804209A
:106DE0002BB18B4238BF0B46934228BF1346A4F801
:106DF000E8302046FFF7F2FE02B010BD08B580F87B
:106E00001431C0F80C112D23C0F810313AB11346DB
:106E10005268C0F828211B68C0F8083108BD00235B
:106E2000C0F8283100F5847190F8C40021F0FAF917
:106E30000028F3D0024A40F2BB3118F065FEEDE7BE
:106E4000549904002DE9F04188B004460D461746D8
:106E50009846A0F5CC76D6F8CC300DF11E01304620
:106E6000984707AA294696F8C40021F007FA002897
:106E700040D1A4F5CC75BDF81C1014F8D40CFFF764
:106E80008DFF0146A5F8F000B5F8E830A5F8EE3022
:106E900095F8C40021F08AF990BB34F8A81CA9BB6E
:106EA000CDF81480069714F8D33C2BB1BDF81E2002
:106EB000BDF81C309A421AD0A4F1A007384601F060
:106EC0009BFA34F8A80CBDF81E10002305AA411A3D
:106ED0003046FFF793FF1D4B1B6813F4804F03D020
:106EE0001B4B1B68032B1EDC384601F077FA08B0F9
:106EF000BDE8F081174A40F2E73118F005FEB8E727
:106F0000144A4FF47C7118F0FFFDC6E7002214F814
:106F1000D40C21F055F80028C2D00E4A40F2F531C9
:106F200018F0F2FDBCE70C4BD3F8043534F8A82C6C
:106F300005990391069902910192084A009240F244
:106F400006420749042008F06FF9CDE7F830002029
:106F5000F43000205499040000100140189A0400F5
:106F60007999040030B585B004460D4630F8B02C50
:106F700010F8D40C21F068F950B9124B1B6813F4C7
:106F8000804F03D0104B1B68042B07DC05B030BDCD
:106F90000E4A40F2CE3118F0B7FDEEE70C4BD3F8B5
:106FA000043514F8D42C34F8B01C039102950192E6
:106FB000084A009240F2D3320749052008F034F91C
:106FC000E4E700BFF8300020F430002054990400BA
:106FD00000100140509A04007999040038B5144615
:106FE000054638B132B1214695F8200021F01AF952
:106FF00020B938BD784601F071FFF4E7024A40F24B
:10700000ED1118F081FDF4E75499040030B583B018
:10701000054614467AB1694695F8C400FFF79AFE12
:10702000BDF802306380BDF80430A3809DF80030C5
:10703000237003B030BD784601F050FFEBE700004D
:1070400070B582B014461D46064688B182B12168EB
:1070500096F8200021F0D2F870B92368019301A9B5
:1070600030461FF031F80DB123682B6002B070BDBF
:10707000784601F033FFEAE7024A40F2052118F0B2
:1070800043FDEAE75499040010B582B00446B0F815
:10709000E830ADF80030B0F8EA30ADF802300191D8
:1070A000D0F8D4301BB16946D0F8D800984769466B
:1070B000201D20F01BFC02B010BD000030B585B0D3
:1070C0000446A0F1F80530F8083C20F80E3C90F892
:1070D0002C20022A01D020F8103C2846FFF772FE2F
:1070E000224B1B6813F4804F03D0214B1B68032BEA
:1070F00017DC54F8283C23B134F80E2C216A2846BA
:10710000984734F8101CF1B934F8101C14F8340CFA
:1071100021F04CF820BB00212846FFF7B5FF05B051
:1071200030BD144BD3F8043514F83C2C34F8101C43
:1071300002910192104A00924FF464720F490420A8
:1071400008F072F8D5E7012214F8340C20F038FF6B
:107150000028D9D00A4A40F29F3118F0D5FCD3E775
:10716000074A40F2A33118F0CFFCD4E7F8300020F2
:10717000F430002000100140949A04007999040032
:107180005499040030B587B01446054600B3FAB1EF
:10719000D5F8CC300DF1160128469847BDF81630C9
:1071A000238095F82431022B16D0B5F8EA3063809D
:1071B00005F1F80001F02EF960601D4B1B6813F417
:1071C000804F03D01B4B1B68042B1FDC07B030BD66
:1071D000784601F083FEDBE704A995F8C400FFF7C9
:1071E000B9FDB5F8EA20BDF814309A420BD000235F
:1071F0006380D5F8183123B1D5F81C310BB14FF0AD
:10720000FF336360D9E74FF6FF73F1E70A4BD3F81A
:107210000435228861886068039002910192074AD0
:107220000092D3220649052007F0FEFFCEE700BFFB
:10723000F8300020F430002000100140C89A04000B
:10724000799904002DE9F04182B00446A0F1F808D4
:1072500001F003F90546204601F0DCF8074694F8F2
:107260002C30022B35D034F80E3C34F80C6C9B1BC0
:107270004FEAE37CA3FB0501226AD31705FB0C113F
:1072800021F027FD0644694614F8340CFFF762FD2F
:1072900076B3BDF80430BDF802008642B8BF06469A
:1072A0009E42A8BF1E46B6B224F8106C4046FFF7B7
:1072B00095FC94F82C30022B1CD0B7F5FA7F05D939
:1072C00054F8043CEB1AB3F57A7F33D802B0BDE82A
:1072D000F08134F80C6C606A4FEAE07CA5FB000199
:1072E000226A002305FB0C1121F0F3FC0644CAE7D7
:1072F0000026D9E734F8102C636A002B03DDBDF8B3
:1073000004108A4212D0002B0ADB0023002BD4D0B9
:10731000012384F898300B4B186806F0AFFDCCE7DA
:10732000BDF802309A4203D00023EFE70123EDE7D6
:107330000123EBE744F8045C39464046FFF7A4FE1E
:10734000C4E700BFE0310020F8B138B50D4604466F
:107350000F4BC0F8C0300F4B0F4A1A600F4A5A60EB
:10736000C0F8B8300E4B0F4A1A600F4A5A60C0F886
:10737000AC30C43020F09AFF00B138BD84F8C500AD
:107380002946204620F0DEFAF7E70E20704700BFBE
:10739000CC9B0400D8310020DD730200AD730200E5
:1073A000D031002041700200DD6F020038B5144674
:1073B000054638B132B1214695F8600020F0EEFD67
:1073C00020B938BD784601F089FDF4E7024A40F261
:1073D000D51118F099FBF4E75499040070B51446E0
:1073E0001D46064650B14AB1217896F8600020F05B
:1073F000BFFD38B90DB123782B7070BD784601F010
:107400006DFDF1E7024A40F2C11118F07DFBF1E792
:1074100054990400F0B587B015461F460C9E0446EB
:1074200038B332B3D4F8DC302BB1B5F9001089B2DF
:10743000D4F8E000984702233A46B5F900102046F8
:10744000FFF7DCFCD4F8CC3004F1E8012046984783
:1074500004A994F8C400FFF77DFCB5F90030002BB7
:107460000BDDD4F8082142B1BDF81430A4F8F03097
:1074700009E0784601F032FDD4E7002B2EDBB4F8AA
:10748000E830A4F8F030284B1B6813F4804F03D089
:10749000264B1B68032B2ADC04F1F80000F09EFF4A
:1074A000B5F900301BB1D4F80831002B34D19EB1AE
:1074B000B4F8E8303380B4F8EA20BDF814309A42CA
:1074C0002FD000237380D4F8083123B1B5F90030F0
:1074D0000BB14FF0FF33736007B0F0BDD4F8083143
:1074E000002BCCD0BDF81230A4F8F030CBE7104B15
:1074F000D3F80435B5F90020D4F808110391D4F875
:107500002811029101920B4A00924FF4CB720A4962
:10751000042007F089FEBFE7D4F89C0100F044FE88
:10752000C5E74FF6FF73CDE7F8300020F4300020B8
:1075300000100140F09A040079990400F0B589B078
:1075400015461F460E9E0446002853D0002A51D0EF
:10755000D4F8DC301BB12988D4F8E0009847D4F87F
:10756000CC300DF11E0120469847298894F8C400BC
:10757000FFF714FC0146A4F8F000B4F8E830A4F8D2
:10758000EE3094F8C40020F011FE002836D1B4F893
:10759000F010002937D194F8C53023B12A88BDF8FE
:1075A0001E309A4251D0B4F8F000BDF81E100023EE
:1075B0003A46411A2046FFF721FCD4F80851244BE3
:1075C0001B6813F4804F03D0224B1B68032B26DC6F
:1075D00004F1F80000F002FFD4F89C0100F0E4FD93
:1075E00036B1B4F8E8303380B4F8F03073807560A9
:1075F00009B0F0BD784601F071FCA9E7164AF22106
:1076000018F082FAC3E7002294F8C40020F0D8FCF6
:107610000028C0D0104AF52118F076FABBE70F4BCE
:10762000D3F80435B4F8F020D4F80C110491039584
:10763000D4F8281102910192094A009240F20112F5
:107640000849042007F0F0FDC2E70025C8E700BFA5
:10765000F8300020F430002054990400001001405C
:10766000249B040079990400F0B589B015461F46A3
:107670000E9E044600284BD0002A49D0D4F8DC30B6
:107680001BB12988D4F8E000984704F108001EF0E7
:1076900089FB84F8F200444B1B6813F4804F13D02D
:1076A000424B1B68032B0FDD414BD3F804352A797D
:1076B00090B34049029101923F4A009240F2331246
:1076C0003E49042007F0B0FDD4F8CC3004F1E801C5
:1076D0002046984706A994F8C400FFF73BFB94F8AE
:1076E000F2301BB1B4F8E820A4F8EE20B3B1B4F83E
:1076F000E8102B681944002915DDBDF81C308B42B9
:1077000012DBBDF81A309942B8BF19468BB20BE0B4
:10771000784601F0E3FBB1E72949CBE7B4F8EE1076
:107720002B681944E7E70023A4F8F03001233A4618
:1077300029682046FFF762FB1B4B1B6813F4804F40
:1077400003D01A4B1B68032B11DC04F1F80000F086
:1077500045FE2B6813BB46B1B4F8E8303380B4F86B
:10776000F0307380D4F80831736009B0F0BD104B6D
:10777000D3F80435B4F8F0200492D4F80821039229
:10778000D4F8282102922A6801920E4A00924FF4FE
:10779000A8720A49042007F047FDD6E7D4F89C01F7
:1077A00000F002FDD7E700BFF8300020F4300020E1
:1077B00000100140849B04008C9B04007999040014
:1077C000649B0400989B040038B50C46054620B124
:1077D0002146281D20F0A8F838BD784601F07EFB30
:1077E000F6E7000070B582B005461C461646C2B1E9
:1077F000694695F8C400FFF7ADFA00238DF8003014
:10780000318891B901238DF8003044B1BDF80230C0
:107810006380BDF80430A3809DF80030237002B06F
:1078200070BD784601F05AFBE2E7ADF802107388AC
:10783000ADF8043095F8C40020F068FC90B9BDF8AC
:10784000041095F8C40020F089FC88B99DF8001058
:1078500095F8C40020F032FC80B969462846FFF74D
:10786000B3FFD2E7084A40F27F2118F04DF9E6E76E
:10787000054A4FF4207118F047F9E7E7024A40F251
:10788000812118F041F9E8E75499040030B583B03C
:107890000C460023ADF80430054638B1ADF804407D
:1078A00001A9281D20F033F803B030BD784601F05F
:1078B00015FBF3E770B504461D4616466AB13188DC
:1078C00094F8C40020F0D2FB58B931882046FFF765
:1078D000DDFF0DB133882B8070BD784601F0FEFAD4
:1078E000EDE7034A40F23E2118F00EF9EDE700BF44
:1078F0005499040038B50446154632B1294694F827
:10790000C40020F0C9FB20B938BD784601F0E6FA82
:10791000F4E7034A40F2252118F0F6F8F4E700BF37
:107920005499040038B50446154632B1294694F8F6
:10793000C40020F071FB20B938BD784601F0CEFAC2
:10794000F4E7034A40F21A2118F0DEF8F4E700BF2A
:107950005499040038B500283AD00446D0F8CC3009
:10796000002B37D0D0F8C83033B12046FFF7ECFCFD
:10797000054638B1284638BDD0F8D030002BF4D1B8
:107980000E25F7E7144BC4F89831144BC4F8F830BF
:10799000134BC4F8FC30134BC4F80031124BC4F83D
:1079A000043104F1F800C4F88001002384F8903118
:1079B00000F076FD05460028DCD104F5CA710B48BD
:1079C00007F071FB0A4806F039FA0A4B1860D1E754
:1079D0000E25CFE70E25CDE7F09B0400016D0200D8
:1079E000656C020045720200BD700200E4310020A7
:1079F000F96B0200E031002000285AD030B585B084
:107A0000054690F8C44002A9204620F06DFB30BB2B
:107A10000DF10A01204620F08FFB30BB03A9204660
:107A200020F0B2FB38BB6946204620F0B7FA40BBD5
:107A30000DF10201204620F0CFFB40BB01A92046FA
:107A400020F0EAFA48BB0DF10601204620F024FBA5
:107A500048BB6946284620F041F805B030BD164ABB
:107A60004FF48B6118F050F8D2E7134A40F25941B5
:107A700018F04AF8D2E7104A40F25A4118F044F898
:107A8000D1E70D4A40F25B4118F03EF8D0E70A4AD0
:107A900040F25C4118F038F8D0E7074A40F25D4107
:107AA00018F032F8CFE7044A40F25E4118F02CF8A3
:107AB000CFE70E20704700BF5499040000283FD044
:107AC00038B50446F83000F097FCB4F8E850D4F824
:107AD000CC3004F1E80120469847B4F8E810B9B971
:107AE000B4F8E81094F8C40020F060FBE8B9D4F8CA
:107AF000DC3023B1B4F8E810D4F8E0009847B4F8CB
:107B0000E830AB4217D100212046FFF7BDFA38BD5F
:107B1000012294F8C40020F053FA0028E0D0094A6A
:107B200040F2744117F0F0FFDAE7064A4FF48F6134
:107B300017F0EAFFDBE7D4F89C0100F035FBE2E741
:107B40000E2070475499040020B129B1C0F89C114F
:107B5000002070470E2070470E2070475038704745
:107B600010B586B0FFF7FAFF0446154B1B6813F4F7
:107B7000804F03D0134B1B68042B0BDC0023A4F8AD
:107B80004830236C23B1B4F84A20216F204698472F
:107B900006B010BD0C4BD3F8043590F83420B0F883
:107BA0004A10006F0490606F039002910192074A9F
:107BB00000924FF4C6720649052007F035FBDDE759
:107BC000F8300020F430002000100140309C040008
:107BD000219C040000B583B0FFF7C0FF0D4B1B686C
:107BE00013F4804F03D00C4B1B68042B02DC03B052
:107BF0005DF804FB094BD3F8043590F8342001926A
:107C0000074A009240F283120649052007F00CFB58
:107C1000EDE700BFF8300020F430002000100140F4
:107C2000749C0400219C040000B585B08DF80410FC
:107C3000B0F84830ADF80630B0F84A30ADF808304A
:107C4000039201A904301EF033FF05B05DF804FB78
:107C500010B584B0FFF782FF0446B0F84A20A0F8C0
:107C600048200023A0F84A30134B1B6813F4804FC0
:107C700003D0124B1B68042B0DDC236C23B1B4F82A
:107C80004A20216F20469847226F00212046FFF7A7
:107C9000CBFF04B010BD0A4BD3F8043590F8341074
:107CA00002920191074A00924FF4D27206490520D0
:107CB00007F0BAFAE1E700BFF8300020F430002006
:107CC00000100140909C0400219C040070B138B564
:107CD0000C4605463C301FF091F800B138BD044B0E
:107CE000AB63214628461EF0F1FEF7E70E207047F1
:107CF000FC9D040038B5044680F86C2001234366DF
:107D00002D2383660D4629B16B68C4F880302B683B
:107D1000236638BD784601F0E1F8F5E72DE9F0413A
:107D20008AB015461F46109E0446E0B1DAB1B4F899
:107D3000482029888A421AD1002246B13270B4F80C
:107D400048307380B4F84A30B380236EB360424B3E
:107D50001B6813F4804F03D0404B1B68032B67DC78
:107D60000AB0BDE8F081784601F0B8F8DFE70DF120
:107D70001B0294F83C001FF005F88046002855D1FE
:107D8000002308930993D7B1002239462046FFF714
:107D9000B1FF2B88A4F84A30D4F8EC30434520D802
:107DA0002D4B1B6813F4804F03D02C4B1B68042B06
:107DB00026DC04F1500000F011FB0022BDE7236B2C
:107DC0009B685B684BB1206B83685B6807AA0021E6
:107DD0009847079B089308AFD6E7784601F07EF8EE
:107DE000F1E708F13A0354F8230003685F68236E53
:107DF000D4F880209DF81B10B84708F10108CBE7A4
:107E0000174BD3F804352A88216E0491D4F88010DA
:107E100003919DF81B1002910192124A009240F2C8
:107E20002B121149052007F0FFF9C2E7022284E76F
:107E30000B4BD3F80435B4F84810B4F84A0003905B
:107E400002910192094A00924FF49F720649042060
:107E500007F0EAF984E700BFF8300020F430002092
:107E600000100140C89C0400219C0400009D0400F7
:107E700070B506460D46002401E0023501340F2C92
:107E80000CD82A46E1B296F83C001EF083FF002889
:107E9000F3D0034A622117F037FEEEE770BD00BF52
:107EA000FC9B040030B583B014460546A0B19AB1DE
:107EB00000232370B5F848306380211D2846FFF762
:107EC000D7FF0E4B1B6813F4804F03D00C4B1B687D
:107ED000032B05DC03B030BD784600F0FFFFE7E779
:107EE000084BD3F8043562880192074A0092F822C1
:107EF0000649042007F098F9ECE700BFF8300020AD
:107F0000F430002000100140349D0400219C040046
:107F100030B587B014460546E0B1DAB100232370CE
:107F2000B5F848306380B5F84A30A38095F87C30C6
:107F3000022B13D12B6F0BB14FF0FF33A360144B07
:107F40001B6813F4804F03D0124B1B68032B0BDC10
:107F500007B030BD784600F0C1FFDFE705F1500003
:107F600000F058FAA060EAE70B4BD3F804356288BA
:107F7000A188686F0490A068039002910192074A5B
:107F80000092E2220649042007F04EF9E0E700BF24
:107F9000F8300020F430002000100140589D04000B
:107FA000219C0400F0B587B016461D460446E0B19A
:107FB000DAB10DF11702318894F83C001EF004FF8D
:107FC000074620BBB4F8482033889A4203D0B4F85F
:107FD0004A20934217D104F1500000F00DFA00231B
:107FE000A4F84A30A4F848300DE0784600F076FF57
:107FF000DFE707F13A0354F8230003689B689DF814
:10800000171098470137D4F8EC30BB42F1D845B18E
:1080100000232B70B4F848306B80291D2046FFF7F1
:1080200027FF0E4B1B6813F4804F03D00C4B1B68CB
:10803000032B01DC07B0F0BD0A4BD3F80435B4F8CC
:108040004A20B4F8481002910192074A0092C322D4
:108050000649042007F0E8F8ECE700BFF8300020FC
:10806000F430002000100140A09D0400219C040079
:10807000F0B587B015461C46074628B322B30DF16C
:108080001702298897F83C001EF058FE064650BBA0
:108090002B88A7F84830D7F8EC30B34218D8002521
:1080A0003CB12570B7F848306380211D3846FFF792
:1080B000DFFE174B1B6813F4804F03D0154B1B6872
:1080C000032B12DC07B0F0BD784600F007FFD6E7BF
:1080D00006F13A0357F8230003681B689DF8171050
:1080E00098470136D7E70125DAE70B4BD3F804357B
:1080F000B7F84A20B7F84810039102920195074A51
:10810000009298220649042007F08EF8DAE700BFB3
:10811000F8300020F430002000100140C89D040019
:10812000219C040000B310B50446036CFBB1FFF7BB
:10813000CDFD034608B1184610BD0023A4F8483011
:108140000C4A22650C4A6265A3650C4BE36504F199
:108150005000C4F8D80000F0A3F903460028EAD183
:108160000022C4F8EC20E6E70E23184670470E23E1
:10817000E1E700BFD57B0200617B0200517C020079
:10818000034658B161B1D0F8EC0058B900F13A0299
:1081900043F82210421CC3F8EC2070470E207047B1
:1081A0000E207047042070470023A0F84830704725
:1081B00008B5034B53F820300846984708BD00BF68
:1081C000109E040008B5034B53F82030084698472A
:1081D00008BD00BF289E040008B5836803B1984716
:1081E00008BD006B003818BF012070470369013BD0
:1081F00013F1030F03D843691BB900207047002017
:1082000070470120704708B5024601218C300AF002
:108210002CF908BD08B50A4600230B63022102F1C0
:108220008C000AF022F908BD90F82C30022B01D105
:108230000020704710B5044638301DF026FE4FEA86
:10824000411C4CEAD06C4201121A6CEB010C4FEA53
:108250008C0C4CEA927C93001B1841EB0C01C9007A
:1082600041EA5371C3F3103343EA4143C90B226A15
:10827000934271F1000301D3012010BD0020FCE7FF
:1082800010B50446002303630362703004F07EFFE0
:1082900004F138001DF035FE10BD10B5044638302D
:1082A0001DF02FFE00232362E3680BB120469847A0
:1082B00010BD08B5844600F1200E00F110030FCB6D
:1082C0008EE80F006046FFF7E8FF08BD08B5FFF72E
:1082D000E4FF08BD70B5044600F1380528461DF0DE
:1082E00010FE04F1200604F110030FCB86E80F0006
:1082F000636A83EAE376A6EBE376002B43D0226A37
:10830000D30E5101891A63F100039B0043EA917374
:108310008900891843F100034FEAC30C3246002359
:10832000C8004CEA517120F06DFCA66AF20E730190
:108330009B1B62F10002920042EA93729B009B1920
:1083400042F10002D20042EA5372DB001E4694461C
:10835000984271EB020301D306468C46B6F57A7F4C
:108360007CF1000313D221220023C4E9102301234E
:1083700084F8383028461DF09BFD18B963680BB1AE
:108380002046984770BD784600F0A8FDB7E74FEA51
:10839000CC3141EA5641F60305483018054A4FF002
:1083A000000341F1000120F02DFCC4E91001DEE7DB
:1083B00020A1070040420F0010B5044604F032FF30
:1083C000236B4FF47A7101FB030104F1700004F098
:1083D000F5FE23680BB12046984710BD10B5044642
:1083E00030B12246002104F18C000AF03EF810BDA5
:1083F000784600F073FDF4E710B5044630B122462C
:10840000032104F18C000AF030F810BD784600F02A
:1084100065FDF4E738B50546D8B12C6A05F138009A
:108420001DF033FD4A0142EAD06243011B1A62EBA0
:108430000102920042EA93729B00181841EB02017C
:10844000C90041EA5071C0F3103040EA4140201A9F
:1084500038BD784600F042FDDFE710B50446D8B1DC
:1084600004F138001DF011FD84464A0142EAD06251
:1084700043011B1A62EB0102900040EA93709B00DB
:1084800013EB0C0341EB0000C00040EA5370C3F350
:10849000103343EA404010BD784600F01FFDDFE78F
:1084A00038B5044690B1C4F880400A4BA367A46471
:1084B000094BE36404F138001DF03AFD0546074915
:1084C00004F18C0009F0BBFF284638BD784600F067
:1084D00005FDE8E71582020007820200609E0400A5
:1084E00069DF704703781F2B00D07047014B0122D2
:1084F0001A70FAE7EB3100203F4B1B78002B79D044
:1085000000B587B0012804D003286CD007B05DF80F
:1085100004FB0023019301A9012016F0C7FD0028E8
:108520004BD100230393049305939DF80C20012362
:1085300063F303028DF80C20D2B263F307128DF8B7
:108540000C209DF80D2063F301028DF80D202123EE
:10855000ADF81630019A03A94120FFF7C1FF78BB9F
:1085600001A816F0FDFD70BB244B1B6803B19847B2
:108570000123029302A90DF1020011F0DBFD28BBDB
:10858000BDF8020011F048FA0DF1010111F0DCFB19
:10859000F8B90CF0E9F99DF8011000200CF0E4FCAA
:1085A000D0B904F0CDFAD8B9134B00221A70134B8E
:1085B0005B68002BAAD09847A8E717F097FAB0E7B6
:1085C00017F094FACCE717F091FACDE717F08EFA8E
:1085D000D6E717F08BFADCE7784600F07FFCE0E79F
:1085E00017F084FAE0E716F035FE00288ED017F079
:1085F0007DFA8BE7704700BFEA310020EC310020A4
:1086000008B5064B01221A70054804F007FB04F078
:10861000E9FA00B908BD17F069FAFBE7EA31002072
:10862000B030002008B503781C2B00D008BD074BE4
:108630001B78002BFAD016F051FE18B9044804F04C
:10864000F1FAF3E717F052FAF8E700BFEA31002039
:10865000B030002008B5094B1B7863B908490948B8
:1086600017F00CFF40B90323002207494969074866
:1086700017F020FF00E0082008BD00BFEB3100200C
:108680000832002074350020EC31002040340020F6
:1086900008B50378023B082B3FD8DFE803F01C0540
:1086A000113E3E2C3E3E36001E4B9B68002B34D0C4
:1086B000007A002831D01C4A0121117098472CE023
:1086C000184BDB684BB3184A127832B3164A0021B4
:1086D0001170984721E0154B1B784BB9114B1B6962
:1086E0001BB1114A002111709847FFF7B3FF14E046
:1086F000FFF786FF11E010220A4B99690C4817F02A
:1087000062FF50B117F0F2F907E08168C0680AF023
:108710006FFD18B9054B01221A7008BD17F0E6F974
:10872000F8E700BFEC310020E8310020E9310020FB
:108730004034002010B586B08446224A03AB07CAF5
:1087400003C323F8022B120C1A701F4CA646BCE878
:108750000F00AEE80F009CE807008EE80700A36951
:10876000002B2DD0194B009303AB194A19491A4815
:1087700017F042FE034610B1184606B010BD174868
:1087800019F0F6FB0146144817F062FE0346002874
:10879000F2D1134819F06CFD03460028ECD11048C3
:1087A00019F09EFD01460C4817F052FE03460028C2
:1087B000E2D10C4804F032FAFFF74CFF0346DBE746
:1087C0000723D9E7709E0400EC3100209186020057
:1087D0000832002074350020403400202832002068
:1087E000F0330020BC30002008B5064B1B681BB9D5
:1087F00006E0044B1B68984713F026FF0028F8DAC0
:1088000008BD00BFB435002010B50C46134B1860EE
:10881000134A0121134820F099F898B9610CE0033C
:1088200041F27073984271F1000310D34FF47A72E1
:10883000002320F0E7F9014600220B4820F09CF8C5
:1088400038B910BD094A4A2117F05EF9E6E705215B
:10885000F2E7064A4B2117F057F9F2E7B43500204A
:10886000E9870200B09E0400B83500207C9E040019
:10887000002800F082802DE9F04FD1B004463F4B34
:108880001B6813F4804F03D03D4B1B68032B31DC76
:108890003A4B1B6813F4804F03D0394B1B68032BF2
:1088A0002ADC51B0BDE8F08FE25C36490D68100952
:1088B00059002E5C0FA800F8136002F00F0201317E
:1088C000AA5C425401330F2BEED90FAA00238DF876
:1088D0005C3003F1804303F58833D3F8043502920A
:1088E000294A0192294A009242222949042006F08D
:1088F0009BFCCDE70023E6E7264BD3F804350D9328
:108900002068020202F47F0242EA0062010A01F4D6
:108910007F4142EA0108B4F804C04FEA0C2292B247
:10892000B4F806E04FEA0E2189B2257A667AA77A72
:10893000E37A94F80C9094F80DA094F80EB0E47BD0
:108940000B94CDF828B0CDF824A0CDF82090079353
:1089500006970596049541EA1E21039142EA1C22DE
:10896000029248EA106001900B4A00920D9B43224C
:108970000749042006F058FC93E77047F8300020C0
:10898000F4300020FC300020EC9E0400009704002E
:10899000D99E040000100140009F040010B582B071
:1089A00004464389CBB900226168206815F044FA77
:1089B000B8B9206815F03CFA6081144B1B6813F4B9
:1089C000804F03D0124B1B68032B0EDC6389C3B1AD
:1089D000206815F00BFB02B010BD784600F07EFA5F
:1089E000E1E7784600F07AFAE3E70A4BD3F804357A
:1089F0000190094A009258220849042006F014FC0C
:108A0000E4E7784600F06AFAE2E700BFF8300020B9
:108A1000F430002000100140749F0400659F0400A2
:108A200038B505460C46438973B16A89013A04FB9F
:108A300002F2074CA4FB0232D20B013292B2297A25
:108A4000286815F0B7F938BD784600F047FAECE72A
:108A50000180008072DF704773DF704774DF7047FA
:108A60002DE9F047A2B0074688469146324C0025D2
:108A700025606560A560E56030490B78C3EB431065
:108A80002F4E064426602F4A0244A2601F22A28075
:108A9000A281013303F001030B704FF03C0A5246F0
:108AA000294613A820F03DFA06238DF84F30ADF883
:108AB000487001238DF84A30ADF85C3012AA189244
:108AC000ADF83C70ADF84090CDF844800DEB0A0253
:108AD0001D928DF8783052462946684620F021FADA
:108AE00002238DF80030221D314613A816F0D0F96C
:108AF00090B9114B03F10C029968684616F0C8F959
:108B000068B9114A0C491148FFF7A4FF082809D099
:108B100070B922B0BDE8F08716F0E8FFE9E716F07B
:108B2000E5FFEEE7002204490848FFF793FFEFE76F
:108B300016F0DCFFEDE700BF1C360020D835002022
:108B4000DC3500202C360020CC300020C83000203E
:108B5000B0F5202F0AD2074BA3FB0023DB0808B196
:108B600003B90123044A9381916070474FF6FF7364
:108B7000F5E700BFCDCCCCCCCC30002008B501212E
:108B8000054B1878FFF768FF18B9002004F036FF8E
:108B900008BD16F0ABFFF8E7C830002008B5044B5D
:108BA0001878FFF75BFF00B908BD16F09FFFFBE7E1
:108BB000C830002076DF70477ADF70477CDF70476F
:108BC00069DF704708B516F091FF08BD08B504F0DD
:108BD0002DF808BD00B583B0037823B1012B0BD06D
:108BE00003B05DF804FB3B214088FFF7E3FF00285A
:108BF000F6D016F07BFFF3E7094B1B6813F4804FA8
:108C0000EED0084B1B68032BEADD074BD3F8043585
:108C1000064A009268220649042006F005FBDFE7B9
:108C2000F8300020F430002000100140C89F0400FC
:108C3000AD9F040000B585B016F00CFB60BB0023AF
:108C4000039303A9012016F031FA40BB00230093DF
:108C5000019302939DF80020012363F303028DF832
:108C60000020D2B263F307128DF800209DF8012096
:108C700063F301028DF801202123ADF80A30039A35
:108C800069464120FFF79CFF60B903A816F068FA17
:108C900058B905B05DF804FB16F028FFCFE716F0D1
:108CA00025FFD3E716F022FFEFE716F01FFFF0E7EE
:108CB00000B585B09DF80C30012262F303038DF8F6
:108CC0000C30DBB262F307138DF80C3021220F4910
:108CD00003A8FFF773FF98B9002301930293782349
:108CE000ADF80430C823ADF806304FF4C873ADF8C2
:108CF0000A3001A8FFF760FF28B905B05DF804FB52
:108D000016F0F4FEE8E716F0F1FEF6E7F49F040033
:108D100000B58BB001AA0023019302937821ADF82E
:108D20000410C821ADF806104FF4C871ADF80A1050
:108D3000039304930593069307930893099303926F
:108D400040F6CD4304934FF48033059303238DF80D
:108D50001830074B0893074B099303A816F066FCDD
:108D600010B90BB05DF804FB16F0C0FEF9E700BFC8
:108D7000D58B0200C58B02000620704700B587B076
:108D800044F2010398425DD01BD8012836D041F24D
:108D90000103984271D1474B1B6813F4804F36D0C2
:108DA000454B1B68002B32DD444BD3F8043502924F
:108DB0000191434A009263224249012006F034FAAD
:108DC00025E044F20203984257D13A4B1B6813F452
:108DD000804F1CD0384B1B68002B18DD374BD3F865
:108DE000043510680390526802920191364A00924D
:108DF00069223449012006F017FA08E02D4B1B6860
:108E000013F4804F03D02C4B1B68002B0DDC4FF06C
:108E1000A0434FF4F012C3F81825C3F80C25EFF364
:108E2000108372B64DF6AD6C3DE0244BD3F804359B
:108E300002920191254A009260222249012006F007
:108E4000F3F9E4E71B4B1B6813F4804FDFD01A4B98
:108E50001B68002BDBDD194BD3F804351068049038
:108E600050680390029192680192194A009273220D
:108E70001449012006F0D8F9C9E70E4B1B6813F41A
:108E8000804FC4D00C4B1B68002BC0DD0B4BD3F8BC
:108E9000043501910F4A00927B220A49012006F015
:108EA000C3F9B4E730BF0C4B1B78002BFAD107B0E5
:108EB0005DF804FBF8300020F43000200010014081
:108EC0006CA004003DA0040090A0040050A0040089
:108ED000B0A00400D4A00400E430002000B583B0AA
:108EE000014600230093054B01936A4644F20200B9
:108EF000FFF744FF03B05DF804FB00BFD0A00400FF
:108F000038B505464FF0A0430322C3F87C274FF045
:108F10000042C3F80C250C4C44F001044FF4A0703F
:108F2000A047012D09D04FF4A050A0474FF0A04317
:108F30004FF00042C3F8082538BD4FF0A0434FF072
:108F40000042C3F80825EEE7F0A0040038B5054656
:108F5000002407E045FA04F000F00100FFF7D0FF1D
:108F60000134E4B2072CF5D94FF4C850024B43F05A
:108F70000103984738BD00BFF0A0040070B54FF062
:108F8000A0440323C4F87C374FF00046C4F80C65B6
:108F90000D4D45F001054FF4FA40A847C4F80865A7
:108FA0000023C4F87C374FF4F060A847D4F810359C
:108FB0004FF4EB40A847D4F81035002B01DB00201C
:108FC00070BD0120FCE700BFF0A0040038B54FF0F1
:108FD000A0450323C5F87C374FF00043C5F80C3596
:108FE000094C44F00104C020A0470023C5F87C3799
:108FF0004FF42070A047D5F81055ED0F4FF4546092
:10900000A047284638BD00BFF0A0040038B50025B1
:10901000012401E06400E4B22CB1FFF7D7FF00287F
:10902000F8D02543F6E7284638BD70B506460D460C
:10903000FFF7A4FFCC20FFF789FFBE20FFF786FFD4
:10904000002404E0FFF7E2FF30550134E4B2AC4203
:10905000F8D3FFF793FF70BD08B5FFF78FFFCC2063
:10906000FFF774FF4420FFF771FF08BD00B585B01E
:10907000FFF7F2FF022101A8FFF7D7FF9DF80530A7
:109080001B021BB29DF8040018431FF07DFD002257
:10909000044B1FF0DDFC1FF08BFD00EE100A05B045
:1090A0005DF804FB0000B03F10B50446FFF766FF13
:1090B000CC20FFF74BFF4E20FFF748FF0020FFF7C3
:1090C00045FF6420FFF742FF0B2C0DD00C2C05D080
:1090D0000A2C0DD01F20FFF739FF02E07F20FFF799
:1090E00035FFFFF74BFF10BD5F20FFF72FFFF8E7BD
:1090F0003F20FFF72BFFF4E710B5184900230B6062
:10910000174A82FB00324FEAE07CCCEBA212CA7015
:109110004FF47A7303FB1202124B83FB024ED217F9
:10912000C2EB6E128A7083FB0023CCEB63136422C4
:1091300002FB13030C4A82FB034EDB17C3EBAE03A7
:109140004B7082FB0023CCEBA30303EB8303A0EB68
:1091500043030B70054B05221A7010BD6C360020BE
:10916000D34D62101F85EB5167666666E5300020BF
:1091700008B500F0A3F84FF0A0430322C3F8082776
:10918000C3F80C27C3F81027C3F814270422C3F828
:109190000C250822C3F80C251022C3F80C25202228
:1091A000C3F80C25014B00221A6008BD6C36002064
:1091B00008B54FF0A0430322C3F80827C3F80C27D3
:1091C000C3F81027C3F81427904217D8DFE800F03F
:1091D00002172C4E364B1B78364AD05C00F084F8D0
:1091E0004FF0A0430422C3F808250822C3F80C2539
:1091F0001022C3F80C252022C3F80C2508BD2C4BE7
:109200005B782C4AD05C00F06FF84FF0A043082246
:10921000C3F808250422C3F80C251022C3F80C2536
:109220002022C3F80C25E9E7234B1B78022B14D02E
:109230001F4B9B781F4AD05C00F056F84FF0A043BC
:109240001022C3F808250822C3F80C250422C3F80D
:109250000C252022C3F80C25D0E7154B9B78154A26
:10926000D05C40F0800000F03FF8E7E7124B1B783D
:10927000032B14D00E4BDB780E4AD05C00F034F890
:109280004FF0A0432022C3F808250822C3F80C257C
:109290001022C3F80C250422C3F80C25AEE7044BBA
:1092A000DB78044AD05C40F0800000F01DF8E7E76E
:1092B0006C360020F8A00400E53000204FF0A043F9
:1092C0000322C3F83027C3F87427C3F864274FF488
:1092D0008052C3F80C254FF00052C3F80C254FF014
:1092E0000072C3F80C25704708B54FF0A043032265
:1092F000C3F83027C3F87427C3F8642707220BE0AC
:10930000012B16D04FF0A0434FF00051C3F80815C1
:10931000C3F80C15013A52B2002A11DB0123934025
:109320000340EDD14FF0A0434FF00071C3F80C158E
:10933000E8E74FF0A0434FF00071C3F80815E1E7EC
:109340004FF0A0434FF48052C3F80825C3F80C2512
:109350004FF4C850024B43F00103984708BD00BFCB
:1093600010A1040010B40346044C006859689A68C0
:10937000DB680FC45DF8044B704700BF70360020F7
:109380000E4B4FF0805202F1600103C983E80300E5
:1093900003F1080CA43292E803008CE8030093F96F
:1093A000062002F00F0242F040029A7193F9082061
:1093B00002F03F0242F080021A72704770360020BD
:1093C0000048704770360020002308E0074901EB91
:1093D000C30000224280426001F8332001331F2B7A
:1093E000F4D9034B00221A60704700BF803600207A
:1093F0008037002000B58646114B1B684FF0000CEB
:109400000BE01F230F4A12F83300B0B102EBC30286
:109410005288724509D00CF1010CBCF11F0F0BD81A
:109420005A1E002BEDD01346ECE7064A02EBC302AE
:1094300052688A42EFD100E000205DF804FB00BFD3
:10944000803700208036002010B40B4A13680B4C84
:1094500004EBC30CACF80200CCF80410012104F8B2
:1094600033100B441360202B02D05DF8044B70477F
:10947000134600221A60F8E780370020803600206B
:109480000021072918D830B402E00131072910D88B
:109490004FEA011C094C34F80CC08445F5D104EBAB
:1094A0000114A568E4689C4208BF9542EDD10120F3
:1094B00000E0002030BC7047002070478837002053
:1094C00030B4C3698469C1884FEA132C1B06C4F306
:1094D0000C028A4218D28A1A2244A2F500529A1823
:1094E0004CF100010A4C23685D1C256003F0070362
:1094F000B0F814C007481C0100EB031320F804C0A7
:109500009A60D96030BC70478A1A2244E7E700BFEE
:109510000838002088370020C37D9BB1C3780A78C3
:1095200002F080020A7003F07F0313430B7002788D
:109530000B7803F07F030B7043EAC2130B700378C0
:109540009BB97047C3780A7802F0BF020A709B018A
:1095500003F0400313430B70027903F0C0030B7058
:1095600002F03F0213430B70E1E700B58378082B4C
:1095700014BF002201224B7803F07F034B7043EAB3
:10958000C2134B70B0F806E0DAB202F080024A7003
:10959000CEF3861C4CEA02024A708B7803F0030378
:1095A0008B7043EA8E038B7090F808E0DAB202F019
:1095B000FC028A70CEF3C10C4CEA02028A70CB78AE
:1095C00003F01F03CB7043EA4E13CB70437ACA7883
:1095D00002F0E002CA7003F01F031343CB705DF882
:1095E00004FB00000023032B31D810B402E0013348
:1095F000032B28D8C3EBC302164C04EB021292F8DB
:109600004820012AF3D1C3EBC30204EB0212948A6F
:10961000C2899442EBD1C3EBC3020E4C04EB02129D
:10962000D2888A42E3D1C3EBC30204EB0212B2F840
:10963000582012B1848AA242D9D1C3EBC303054892
:1096400000EB031000E000205DF8044B70470020A1
:10965000704700BF34380020002300E00133032BA3
:1096600016D8C3EBC3020B4901EB021292F8482053
:10967000022AF3D1C3EBC30201EB0212918A828A60
:109680009142EBD1C3EBC303024800EB03107047D8
:10969000002070473438002008B9042070470820A3
:1096A000704700B503468C460978C17000214162BD
:1096B000DCF808100B2904D89CF80C1029B3012100
:1096C00000E0012119700020987031B1DCF8081019
:1096D0000731C9080139597218720121D97503F18E
:1096E0000C0E0CF1100103C98EE80300BCF80E103B
:1096F0009982DCF8181019629CF81C109975DCF836
:109700002010D9629A625DF804FB0021DAE70000BC
:1097100000210E4B1B688B4216D9002300E0013359
:109720000B4A02EBC10252689A420BD9084A52F81E
:10973000312002EBC30C12F833208242EFD1DCF867
:10974000040070470131E4E7002070470C38002026
:109750001038002070B58CB006460D4614462C22F9
:10976000002101A81FF0DDFB0F238DF80430ADF8B8
:1097700008609DF80A3065F300038DF80A308DF813
:109780000B4001A801F014FA0CB070BD30B58DB0DB
:1097900005460C462C22002101A81FF0C2FB102315
:1097A0008DF8043002958DF80C4001A801F000FA04
:1097B0000DB030BD00B58DB010B913F1020F06D158
:1097C000074B186804F05AFB0DB05DF804FB01214B
:1097D0008DF804100293039201A801F0E9F9EFE774
:1097E0001838002070B5049C002962D01D468E46B2
:1097F000D2F800C051689668D368C4F80CC02161E3
:109800006661A361D2F810C05169C4F81CC021621E
:10981000002363700278D20922705AB3042373457F
:1098200049D8E17D41B3037803F07F03E37000235F
:10983000A3709AB143789B0103F4FE53827843EA04
:109840009203E3808378DB0003F01803C27843EAD5
:1098500052132372C37803F01F0363720023636201
:109860002B78032B21D82A78144B53F82230E3624B
:10987000002070BD0123D2E70178C1F38011E170AF
:10988000017801F03F01217142B190F90130002BC4
:1098900002DB0423A370CCE70823FBE70421A170BB
:1098A0000B447345C5D90920E3E77846FFF716FB5B
:1098B000D9E70920DDE70920DBE700BF8CA204001F
:1098C00070B50C461D4603789BB104263244A26055
:1098D00000F10C032360836A6360C36AE3600023C2
:1098E0002374204604F04AFE10B963691E442E60BA
:1098F00070BD0126EAE72DE9F0418EB00D4616460F
:109900001C46804600282DD0002D2FD0002C31D0B1
:10991000636A0233059304F10C00E378002B2DD029
:109920000121A27801AF3B46082A14BF0022012280
:1099300004F0F1FB0697CDF81C80B2B2ADF8202000
:109940000B9515440C95A3788DF83430237B022BAE
:1099500016D00023ADF8283005A804F0D4FB0EB0D3
:10996000BDE8F0817846FFF7B9FACDE77846FFF712
:10997000B5FACBE77846FFF7B1FAC9E70221D0E79D
:1099800023692BB1236909931023ADF82830E3E74D
:109990007846FFF7A3FAF5E72DE9F04188B00446D1
:1099A0000D46C37D002B3CD0082605FB06F8637AE4
:1099B000AB4238D0257201AB324602A92046FFF7F0
:1099C0007FFF074648BB4DB994F8533033B9A369BC
:1099D000C3F30C03E380012384F85330E37D7BB9A8
:1099E00094F8523063B91DBBE06EB4F84A10A27807
:1099F00023468A1A0146FFF77EFF012384F852307E
:109A000007992046FFF788FDE16E324641440198F0
:109A10001FF05EFA02A804F0D7FD384608B0BDE892
:109A2000F0810C26C1E7B4F84A60A6EB0806C1E74E
:109A30007846FFF753FAD7E770B505460E4609B1E9
:109A400000230B6095F85040002104E0631C85F86A
:109A500050300134E4B26B7AA34210D3EA6C012394
:109A6000A3401A42F5D121462846FFF795FF01464B
:109A700028B9002EEAD0336801333360E6E70846A0
:109A800070BDF0B589B004460E46154683789A1825
:109A9000C37D63B10B239A4221D801AB02A92046B2
:109AA000FFF70EFF074620B1384609B0F0BD0F237F
:109AB000F1E707992046FFF72FFDE37D43B12A46E2
:109AC000314601981FF004FA02A804F07DFDEBE78F
:109AD00023462A4601993046FFF70DFFF4E7092790
:109AE000E2E7000010B5044690F84830012B0CD195
:109AF00003F098FB237B012B0BD0094BD968014461
:109B000004F1300003F05AFB10BD7846FFF7E6F988
:109B1000EEE7A27D024BD9681B6903FB0211EEE759
:109B20001C38002030B583B0002403E02846FFF73E
:109B3000D9FF0134032C18D8C4EBC4030C4A02EB40
:109B4000031393F84830012BF3D100230193C4EBA6
:109B5000C40502EB051501A92846FFF76DFF04288F
:109B6000E4D0019B002BE4D0E0E703B030BD00BFA0
:109B70003438002038B5044690F84830022B09D11B
:109B8000064B1D6803F04EFB411904F1300003F051
:109B900015FB38BD7846FFF7A1F9F1E71C38002026
:109BA00038B5044690F84830022B10D10A4B5A7D44
:109BB0005D689B6803FB025503F034FB411904F117
:109BC000500003F0FBFA012384F8683038BD784672
:109BD000FFF784F9EAE700BF1C38002010B50446FF
:109BE000808A02F067FE01281CD1237BE3B194F93F
:109BF0001620002A1ADBE27D4AB1022B18D094F914
:109C00000330002B16DBA378B3B900200BE0E27819
:109C10000AB9012B12D1237893B9A378042B11D15F
:109C2000002000E0102010BD1020FCE70720FAE71C
:109C30001020F8E70720F6E70720F4E70720F2E70F
:109C40000020F0E70720EEE738B5044603784BB173
:109C5000C388C2698169808A06F036FE054645B927
:109C6000284638BDC2698169808A06F027FE05460C
:109C7000F5E7E169002201F00101A08AFFF76AFD22
:109C8000EEE700002DE9F04780460E4617464B1ED2
:109C9000DBB2012B0FD8B7F5C07F10D80024032CFE
:109CA0001AD8C4EBC403314A02EB031393F84830CB
:109CB0004BB10134F3E77846FFF710F9EBE778464C
:109CC000FFF70CF9EAE7C4EBC40502EB05153846CB
:109CD00009F065FAE86600E000255DB3EB6E002B45
:109CE00042D043462C4608F1300ED3F800C05868E5
:109CF0009968DA68C4F800C06060A160E26010335F
:109D000010347345F1D10023EB64A5F84A70012E9D
:109D100013D06FF00103AB62002385F86830144B59
:109D2000AB652D66134BAB632D64012002F048FA3E
:109D300085F848602846BDE8F0870F4B1B7D85F805
:109D40005130002385F8523085F8533085F8503073
:109D5000D8F828206A65A5F858306FF00103AB6287
:109D6000064BAB632D64E0E71D46E3E73438002083
:109D7000BFA70200D1A002001C3800201DA10200D4
:109D800000B585B000228DF80F20A0B10B46024629
:109D900002320A600DF10F01184604F0B8F99DF87F
:109DA0000F3043B10C4B1B6813F0040F03D00B4B67
:109DB0001B68032B04DC9DF80F0005B05DF804FB65
:109DC000074BD3F80435074A009240F21542064982
:109DD000042005F029FAEEE7F8300020F4300020E6
:109DE0000010014044A1040037A104002DE9F04314
:109DF00091B005460E4614461F46D0F818800378E9
:109E00004BB1C388C8F30C029A4230D29B1A434428
:109E1000A3F50053AB6105F10C00EB7853B30121BE
:109E2000AA780DF130094B46082A14BF00220122FE
:109E300004F071F9C5F81880CDF810900596AB784C
:109E4000E21A92B2ADF8182032440A9209978DF8BE
:109E50002C300023ADF82030EB78002B41D02B7B49
:109E6000022B09D000236B620193029316E09B1A28
:109E70004344CFE70221D3E71023ADF820302B690C
:109E80000793EFE710AB03EB840454F83C3C6B62A0
:109E9000002011B0BDE8F083019BB3B102AB01AA71
:109EA0002979286A10F054FC0024012CF4D810AB56
:109EB00003EB840353F83C0C0028EDD003A9FFF713
:109EC0005FFF0028DED10134EFE72B7B022B2CD182
:109ED00005F10C01E88910F0F5FC0028BFD1052040
:109EE000D7E72B7B012B01D00520D2E7EB89ADF81A
:109EF0000430AB8AADF806300024012C13D8294673
:109F0000002341F8243F10AB03EB440333F83C0C2F
:109F100010F043FC03A9686AFFF732FF08B9013467
:109F2000EBE70020B5E70520B3E70520B1E7000027
:109F300070B5F0B00E4614461D4610AB0A460146F9
:109F40002046FFF753FF50B1224B1B6813F0040F5C
:109F500003D0214B1B68052B2FDC70B070BD204651
:109F6000FFF772FE0028F8D103AB01228DF80C2018
:109F7000A28AADF80E20002204928DF8142010AAB7
:109F80000692A178711AADF81C1008AA93E8030094
:109F900082E803000AAB04F10C0292E8030083E8B4
:109FA0000300A37D8DF83830236A0C93636A0D9308
:109FB0000F9505A800F0FCFDCFE7084BD3F804355A
:109FC000074A009240F203720649062005F02CF978
:109FD000C3E700BFF8300020F4300020001001403B
:109FE00058A1040037A1040010B50446C06E09F062
:109FF000DAF804F1300003F0C9F894F84830022B85
:10A0000008D07022002120461EF08BFF002002F0B5
:10A01000D7F810BD04F1500003F0B8F8F1E710B51F
:10A020008CB0044690F84830012B0FD101238DF8F5
:10A030000430636D029303F0F5F8039001A800F07B
:10A04000B7FD2046FFF7D0FF0CB010BD7846FEF7F5
:10A0500045FFEBE730B585B00D460446A8B194F84E
:10A060004830022B15D02946606DFFF78FFB204644
:10A07000FFF7BAFF114B1B6813F0040F03D0104B0E
:10A080001B68032B09DC05B030BD7846FEF726FFC0
:10A09000E5E72046FFF714FAE5E70A4BD3F8043565
:10A0A00094F8482002950192074A009240F2F31278
:10A0B0000649042005F0B8F8E5E700BFF8300020B5
:10A0C000F43000200010014084A1040037A10400F6
:10A0D00008B508460021FFF7BDFF08BD08B5037BA2
:10A0E000012B02D0FFF79BFF08BD0121FFF7B2FF54
:10A0F000FAE7000008B590F8513053B1013B80F801
:10A100005130002380F85030034B186803F0B6FE3E
:10A1100008BDFFF7E3FFFBE71838002010B50C4639
:10A1200091F84830012B03D12046FFF7E3FF10BD23
:10A130007846FEF7D3FEF7E770B5C6B00E46154673
:10A1400082782A44C37D2BB14FF48073934278D335
:10A15000002303E04FF4C073F8E70133032B14D856
:10A16000C3EBC30C394C04EB0C1C9CF848100129C0
:10A17000F3D1BCF81440818A8C42EED1BCF80E4079
:10A18000C1898C42E9D1082554E00121FFF77AFD0D
:10A190000446002857D02A463146C06E1EF098FE6D
:10A1A0000023459345A92046FFF746FC054608B124
:10A1B000042842D1459B8BB9254B1B6813F0040F33
:10A1C00037D0244B1B68032B33DDB4F84AC0BCF1F5
:10A1D000800F28BF4FF0800C002313E02046FFF7CC
:10A1E00081FCE9E7E26ED25C1B490D681009590059
:10A1F0002E5C04A800F8136002F00F020131AA5C83
:10A20000425401336345EDD304AA002302F81C3005
:10A2100003F1804303F58833D3F8043502920F4AE3
:10A2200001920F4A00924FF4AC620E49042004F0F0
:10A23000FBFF0025284646B070BD2046FFF7D4FE40
:10A24000F8E70925F6E70425F4E700BF34380020D5
:10A25000F8300020F4300020FC300020A8A10400D9
:10A260000097040037A1040070B504460D46164659
:10A27000FFF7B4FC30B923782BB13246294620468B
:10A28000FFF75AFF70BD324629462046FFF7F9FB1B
:10A29000F8E7000038B504460D46CB695B780371DA
:10A2A000CB691B7883F00103C370CB6943628B8A4F
:10A2B0000B2B07D8CB7A002B35D10B7B012B02D08F
:10A2C000002300E001232370002B31D0287B0228DB
:10A2D0002BD0FFF7E1F9A070AB8A03440B33174A88
:10A2E00082FB03235B10013B637200232372002374
:10A2F000E37504F10C0395E8030083E80300AB6900
:10A3000023622B89A382AB7AA3752B6AA362DF2316
:10A31000E362284610F004FB20B12B78012B0AD011
:10A32000FF23E36238BD0123CDE7054B987DD0E7DD
:10A330000423A370DBE72023F3E700BFABAAAA2A1C
:10A340001C380020062979D1F0B585B0154690F863
:10A3500000C04FEA8C1202F4FE5241788478C37830
:10A360001B0443EA0463047943EA042344791C434D
:10A370004FFA8CF642EA91012846FFF733F9074677
:10A38000E0B1002E2FDBC289A98A8A422BD02C4B48
:10A390001B6813F0040F30D02A4B1B68012B2CDDF7
:10A3A000294BD3F8043502910192284A009240F2D9
:10A3B0007D622749022004F037FF1EE0204B1B6816
:10A3C00013F0040F19D01F4B1B68012B15DD1E4B1A
:10A3D000D3F804351F4A009240F279621C490220EA
:10A3E00004F022FF09E0002E09DBFD6C2543FD642B
:10A3F0004CB903213846FFF72DFE05B0F0BDAB8AFE
:10A40000A7F85830F1E73B7883B17B7A5A1C0123D7
:10A410009340013B9D420DD0002187F850103846F3
:10A42000FFF70AFB3846FFF75DFBE6E77846FEF7E5
:10A4300055FDEAE73846FFF7F2FDDEE7704700BF5B
:10A44000F8300020F430002000100140E8A10400A2
:10A4500037A10400B8A104002DE9F0438BB00746F2
:10A460000E4614461D461046FFF7EEFB50B994F811
:10A470000380B8F1000F08D12B46224631463846FA
:10A48000FFF760FF0BB0BDE8F0834046FFF740F9EF
:10A4900081460028F6D08DF80480236A0793A38AAA
:10A4A000ADF8123005AB04F10C0292E8030083E82A
:10A4B0000300A37D8DF820300297039623788DF852
:10A4C0001030E36A0993294601A8C847DAE792F8F1
:10A4D00001C01CF0010F08D010B5D47D14B1FFF7F6
:10A4E000BBFF10BDFFF724FDFBE7704708B501393E
:10A4F0000130FFF7ECFF08BD10B54FF4E07200210A
:10A5000013481EF00EFD06F0ABF90024114B1C6041
:10A510008022214610481EF004FD104B104A1A609C
:10A52000104A5A604CF250329A600F49D9601A6151
:10A5300004221A759C7508225A750C4803F07EFC9B
:10A540000B4B18600B4B1C600B4806F087FC10BDD2
:10A550003438002008380020883700201C380020BC
:10A5600080969800F049020020A10700B1A70200E0
:10A57000183800200C380020B597020008B506F006
:10A580008FF908BD98B110B58CB00446036983B14A
:10A59000C36983B1836983B101466846FFF77AFED8
:10A5A000A28A21696846FFF75FFE0CB010BD0E203D
:10A5B00070470E20F9E70E20F7E70E20F5E70000C0
:10A5C00058B310B590B00A46044643683BB383695C
:10A5D0003BB3014604A8FFF764F8134B1B6813F064
:10A5E000040F03D0114B1B68062B06DCA2686168C0
:10A5F00004A8FFF739FE10B010BD0D4BD3F8043599
:10A600002278A169029101920A4A009240F605025D
:10A610000949072004F008FEE8E70E2070470E20E5
:10A62000E9E70E20E7E700BFF8300020F430002013
:10A63000001001402CA2040037A10400037B012B71
:10A6400001D00020704730B591B004460D463F4B15
:10A650001B6813F0040F03D03D4B1B68032B5ADC1F
:10A6600004A8002304930593CDF81730B4F806E04E
:10A670009DF8101001F080018DF81010CEF3861CAB
:10A680004CEA01018DF810109DF8112002F0030230
:10A690008DF8112042EA8E028DF811202A0E8DF8D5
:10A6A00012202A0C8DF813202A0A8DF814208DF818
:10A6B00015506278022A0CBF012119469DF810201E
:10A6C00002F07F028DF8102042EAC1128DF81020AE
:10A6D0004FF0060209924FF001028DF82C20A28A59
:10A6E000ADF82E200C938DF81C300890226A0D9244
:10A6F0008DF82830E36A0F9319D0E389ADF82A303A
:10A70000A37DF3B98DF838306FF0010107A8FFF78A
:10A7100057FF11B030BD0F4BD3F804350E4A0092ED
:10A7200040F263220D49042004F07EFD98E70DF10C
:10A730000E0103A810F0E2F8BDF80C30ADF82A3095
:10A74000DEE7074B5B7D8DF83830DDE7F830002021
:10A75000F43000200010014058A2040037A104008A
:10A760001C38002090F84830022B00D0704710B5FC
:10A77000044690F86830022B00D010BDC16CFFF782
:10A780005DFF0028F9D1002384F86830F5E7000068
:10A7900010B5002407E0C4EBC402130103481844B9
:10A7A000FFF7E0FF0134032CF5D910BD3438002049
:10A7B00008B5FFF7B7F9FFF7EBFF012008BD10B5AB
:10A7C0000C4691F84830022B06D1022384F86830F9
:10A7D0002046FFF7C7FF10BD7846FEF77FFBF4E782
:10A7E000F0B583B00446C069A369E188060A000693
:10A7F000C3F30C0291422FD98A1A1A44A2F50052CF
:10A80000851846F100062A463346A08AFEF738FE30
:10A81000002840F089802046FEF71EFF074630B32F
:10A82000C269D0F818C0C388100A1206CCF30C0114
:10A83000994214D2591A6144A1F50051521840F1BD
:10A840000003AA4273EB06010DD3954276EB030396
:10A8500030D3384603B0F0BD891ACA18D0E75B1A66
:10A8600003EB0C01EAE705213846FFF7F3FBE38829
:10A87000E269A169A08A06F0F9F8E8B9627A0132C2
:10A88000E37DA3B3082101FB02F293B34FF480737D
:10A89000934231D302212046FFF7F4F907460028FE
:10A8A000D7D100212046FFF7C9FE02210020FEF784
:10A8B0006DFFCEE70027CCE7E388E269A169A08AB3
:10A8C00006F04CF908B90027C3E723785BB1637A37
:10A8D00001330121994001392046FFF7AFFE2046A0
:10A8E000FFF7B2F9EFE77846FEF7F8FAEFE70C2149
:10A8F000C9E74FF4C073CBE70C4B1B6813F0040F90
:10A9000003D00B4B1B68002B01DC0027A1E7094B90
:10A91000D3F804350192084A009240F27F32074989
:10A92000012004F081FCF0E7002792E7F8300020D6
:10A93000F43000200010014068A2040037A1040098
:10A940002DE9F04182B007460E461446984610465F
:10A95000FFF746FF002846D00546404B1B6813F022
:10A96000040F03D03E4B1B68032B3FDC2846FFF748
:10A9700001F92B7B012B47D0EB6C217A01228A4015
:10A98000134230D11343EB64043E237AE27D002A64
:10A9900042D04FF0080C0CFB03FC697A8B423ED08E
:10A9A000002A41D00823B34240D1AA69A3699A4240
:10A9B00009D205F10C0E0C340FCCAEE80F0094E870
:10A9C00003008EE80300E86E3246391D60441EF035
:10A9D0007FFAEC6C2B7873B36B7A5A1C012393408B
:10A9E000013B9C422BD002B0BDE8F0811D4BD3F857
:10A9F0000435227A01921C4A009240F2A3321B498C
:10AA0000042004F011FCB1E795F86830002BB3D1B5
:10AA10002846FFF7C5F8AFE74FF00C0CBBE70CEB8F
:10AA20000603A5F84A30C0E70C23BCE704212846FA
:10AA3000FFF710FBD7E77846FEF750FACCE7E96C52
:10AA40002846FFF7FBFD43462A46B5F84A10E86E54
:10AA5000FFF73DFD2846FFF7C7FAC4E7F8300020AE
:10AA6000F4300020001001407CA2040037A1040053
:10AA70002DE9F04190B000284CD00F4614461E46F8
:10AA80008046002A48D004AB00933346FEF7AAFE66
:10AA9000054618B1284610B0BDE8F08104A8FFF7BC
:10AAA0009DF805460028F5D100230293039302A9DF
:10AAB00060880FF007FF28B19DF8113043F00103C3
:10AAC0008DF811302269E168208905F087FF38B1DF
:10AAD0009DF8113003F0FE038DF81130002BD9D012
:10AAE0009DF81130002BD5D013F0010F01D0039B3E
:10AAF00008939DF8103033B1334604AA39464046D6
:10AB0000FFF71EFFC6E7334604AA39464046FFF763
:10AB1000EDFCBFE70E25BDE70E25BBE7F8B508B392
:10AB20000E460546164B1F68F7B93C46B4420FD295
:10AB300005EBC4035B68D3B115F8340015F9343064
:10AB4000002B16DBB8B1FEF7E3FDB0B90134EDE739
:10AB50000C4B43F8375003EBC7035E607B1C084A7D
:10AB6000136002E00E2700E004273846F8BD0E27E8
:10AB7000FBE70B27F9E70F27F7E70F27F5E700BFFC
:10AB80000C38002010380020084B196861B110B54E
:10AB900001E021463CB10C680B79002BF9D0034849
:10ABA00004F0ACFAF5E710BD704700BFF83900209B
:10ABB00038B5054630B1104B1C68C4B10F4B0122AB
:10ABC0001A7004E07846FEF789F9F4E724683CB18E
:10ABD0002379002BFAD154F8043C28469847F5E72E
:10ABE000064B1B78022B03D0044B00221A7038BD91
:10ABF000FFF7CAFFF8E700BFF8390020F43900205A
:10AC000010B5044630B100232372211D034804F01F
:10AC10004AFA10BD7846FEF761F9F4E7F8390020EA
:10AC200010B5044658B10A4B1B78013BDBB2012B2F
:10AC300009D8074B02221A700123237210BD7846EF
:10AC4000FEF74CF9EFE7211D024804F057FAF5E74B
:10AC5000F4390020F83900200A8883689B5A0733AA
:10AC60009BB223F0030313449BB20288043A93423D
:10AC700000D900230B80704710B582B0044683686A
:10AC8000C91AADF806100DF10601FFF7E5FFBDF892
:10AC90000630A068184402B010BD0088043880B2A5
:10ACA000704743888268D018D1520123837070475F
:10ACB00082680023937043808380704708B5073112
:10ACC00089B221F0030189B2428883889A4204D272
:10ACD0009B1A994220DC002008BD9A4212D9B0F894
:10ACE00000C0ACEB020C614518D98B4218D3BCF103
:10ACF000030F03D98368134404229A70002343800E
:10AD00001846E9E7826813449B780BB10420E3E717
:10AD1000FFF7CEFF0020DFE70420DDE70020DBE7C0
:10AD20000420D9E738B504460D4683688288134469
:10AD30008B4202D07846FEF7D1F80023AB70211D7C
:10AD40002046FFF789FFA288A36813449B78042B51
:10AD500000D038BD0023A380FBE710B50C46836804
:10AD6000428813448B4202D07846FEF7B7F800239E
:10AD7000A37010BD70B5054614460E46002944D098
:10AD8000002D46D0B6F1005F08D94FF08053D3F8BC
:10AD90000C3103F50023B6EB832F0ED3B6F5000F6D
:10ADA00008D94FF08053D3F80C3103F50053B6EBBC
:10ADB000832F02D37846FEF791F8631E3344B3F134
:10ADC000005F08D94FF08052D2F80C2102F5002222
:10ADD000B3EB822F0ED3B3F5000F08D94FF080529A
:10ADE000D2F80C2102F50052B3EB822F02D3784641
:10ADF000FEF774F8042C10D92C8000236B80AB80F4
:10AE0000AE60043C3480B37070BD7846FEF766F8DF
:10AE1000B6E77846FEF762F8B4E77846FEF75EF8E4
:10AE2000EAE738B50446A0B16288A36813449B786A
:10AE3000012B12D0EFF3108572B6A388A1681944D4
:10AE40008B78032B0DD02046FFF732FF05B962B691
:10AE500038BD7846FEF742F8E6E77846FEF73EF85A
:10AE6000E8E72046FFF708FFA368C31A63800023C2
:10AE70008370EBE72DE9F0410E4614460546D0B14C
:10AE8000EEB16A88AB6813449B78012B1BD024B3C6
:10AE90002846FFF702FFA04221D3EFF3108872B6D5
:10AEA00021462846FFF70AFF074680B1B8F1000F98
:10AEB00016D162B614E07846FEF710F8E0E778465F
:10AEC000FEF70CF8DDE77846FEF708F8DFE72146E5
:10AED0002846FFF7E6FE3060E8E7092700E009278B
:10AEE0003846BDE8F081F8B50C4615460646E0B197
:10AEF000FCB1A378012B20D12388AB4221D325B309
:10AF0000EFF3108772B625800223A370F118304644
:10AF1000FFF7A2FE7388B288934203D0B26813444D
:10AF200000229A7007B962B6F8BD7846FDF7D6FFE1
:10AF3000DEE77846FDF7D2FFDBE77846FDF7CEFF88
:10AF4000DAE77846FDF7CAFFD9E77846FDF7C6FF8E
:10AF5000D6E770B50C46054690B1ACB1EFF310865C
:10AF600072B6AA88AB6813449A78042A10D09A78EB
:10AF7000022A15D0032A18D0052006B962B670BD82
:10AF80007846FDF7ABFFE8E77846FDF7A7FFE5E772
:10AF9000291D2846FFF760FEAA88AB681344E6E740
:10AFA00003229A7023600020E7E77846FDF796FFBA
:10AFB0000020E2E738B5044680B1EFF3108572B6A1
:10AFC000A088A16801448B78042B0BD088780228D4
:10AFD00014BF0020012005B962B638BD7846FDF7E0
:10AFE0007DFFEAE72046FFF747FE0146EEE738B56A
:10AFF000054630B1EFF3108472B6A888A968014401
:10B0000007E07846FDF76AFFF4E72846FFF734FECD
:10B0100001468878C31EDBB2012BF6D9022814BF83
:10B020000020012004B962B638BD70B50C46064652
:10B0300078B194B1EFF3108572B6A378012B10D0DC
:10B04000032B13D121463046FFF76CFE05B962B6DB
:10B0500070BD7846FDF742FFEBE77846FDF73EFF0F
:10B06000E8E721463046FFF778FEEFE77846FDF740
:10B0700035FFEBE710B5EFF3108472B68388816873
:10B0800019448B78042B06D08878B0FA80F04009F8
:10B0900004B962B610BDFFF7EFFD0146F4E700000A
:10B0A000024B00221A769A6002207047FC39002079
:10B0B00008B5064B986800221A605A609A60DA60F8
:10B0C0001A615A619A6105F077F808BDFC390020D1
:10B0D00000B585B00A4BDB6802228DF80020019391
:10B0E0004FF480530293074A6946012001F0F8FAB1
:10B0F00018B9012005B05DF804FB0020FAE700BF95
:10B10000FC3900201A3A002000B585B00A4B1B68B4
:10B1100002228DF8002001934FF480530293074AD6
:10B120006946012001F0DCFA18B9012005B05DF88C
:10B1300004FB0020FAE700BF1C3A00201A3A002066
:10B14000164BDA68137951795B1A03F57F2303F6FE
:10B15000FF7302EB03339A4205D002F580520F4B86
:10B16000DA600320704700B585B00D4B1B680120E5
:10B170008DF8000001930B4B0393042302930A4ABA
:10B18000694601F0ADFA18B1002005B05DF804FB86
:10B19000024B01221A760220F7E700BFFC3900209B
:10B1A0001C3A0020203A00201A3A002000B585B051
:10B1B0000C4BDA680C4B1B68043301208DF800003F
:10B1C0000192039340F6FC730293084A694601F02A
:10B1D00087FA28B90120034B187605B05DF804FB07
:10B1E0000020FAE7FC3900201C3A00201A3A00201F
:10B1F00000B585B00A4B1B6801208DF80000019353
:10B20000084B039304230293074A694601F068FA46
:10B2100018B9012005B05DF804FB0020FAE700BF73
:10B220001C3A0020083A00201A3A002010B584B0D9
:10B23000104BDA681478104B1B68043301208DF82A
:10B2400000000193039202940C4A694601F048FA07
:10B2500070B9094B1B6804F0FC041C440434054B12
:10B260005C61D9680A780A441A61012004B010BDF3
:10B270000020FBE7FC3900201C3A00201A3A00208D
:10B2800008B500230A2B09D8064A52F82320824227
:10B2900001D00133F6E7044A536002E07846FDF737
:10B2A0001DFE08BD08A30400FC39002010B5214B89
:10B2B000DB6853B11F4B1B7E5BB91E4B5B680A2BCF
:10B2C00026D97846FDF70AFE22E07846FDF706FE0D
:10B2D000F0E77846FDF702FEEFE7164A53680133C0
:10B2E00053600A2B21D97846FDF7F8FD1DE0114B7C
:10B2F00000225A6019E00F4B1B7E1BB10D4B02223E
:10B300001A7012E0FFF7D4FE0FE00A4B1B7E83B9E0
:10B31000084B5A68084B53F82230984704460228D5
:10B32000E9D00328E3D00128D7D0012CEDD0032C9D
:10B33000EBD010BDFC39002008A30400104B1B68A3
:10B340001B685A1E12F1030F18D8C3F30B020AB17F
:10B350000020704710B50B4AD36000231376537654
:10B360000124147093600848FFF78AFF07492046BC
:10B3700001F0A4F9FFF79AFF204610BD00207047A6
:10B380001C3A0020FC390020D1B0020091B3020029
:10B3900008B50B78032B06D00B4B1B78012B06D07E
:10B3A000022B0BD008BD084B00221A76F4E7064B9F
:10B3B0001B7E002BF6D1FFF779FFF3E70B78032B09
:10B3C000F0D1FFF775FEEDE7FC39002000B585B040
:10B3D000174BDB6818784FF6FF7203F5805118445D
:10B3E00005F0F2FCE0B10246114BD9680B780B4432
:10B3F000984217D00E4B5B7E83B10E4B01208DF827
:10B40000000001920393042302930B4A694601F062
:10B4100067F948B90120064B187606E0074BEDE7BF
:10B42000012002E0012000E0002005B05DF804FBEF
:10B43000FC3900202CA504001A3A002028A504009D
:10B4400008B5104BDB681878002203F580511844CA
:10B4500005F0BAFC08B1012008BD0A4BDA6813797F
:10B4600051795B1A03F57F2303F6FF7302EB033375
:10B470009A4205D002F58052024BDA600320EBE7D6
:10B480000220E9E7FC390020F0B585B0514BDE68B9
:10B4900072793379591E8A4214D006F580510D789D
:10B4A0000D444D490968081D0F7907449B1A06EBA6
:10B4B00003366B88013B9BB247F6FE62934260D92C
:10B4C0002C461AE00120434B58767EE07846FDF783
:10B4D00005FD15E024F47F6424F00F0404F5805486
:10B4E00023781C44A6421CD9A5421CD26388013B88
:10B4F0009BB247F6FE62934211D92388002BE5D018
:10B50000238804EB830323F47F6222F00F0293422B
:10B51000E0D06288B2F5FE4FDCD01C46E2E725465B
:10B520002FE000252DE000252BE07846FDF7D6FC26
:10B5300015E024F47F6424F00F0404F5805423788C
:10B540001C44A6421CD9A54237D26388013B9BB25A
:10B5500047F6FE62934211D92388002BE5D0238859
:10B5600004EB830323F47F6222F00F029342E0D0C6
:10B570006288B2F5FE4FDCD01C46E2E7254600E0CB
:10B580000025E5B1144B19686A8801F580513846E9
:10B5900005F01AFC074690B101200E4B18768DF885
:10B5A000000001950D4B0393042302930C4A694656
:10B5B00001F096F858B92C46CEE70025E1E7B5FA38
:10B5C00085F56D09034B5D76012005B0F0BD0020C7
:10B5D000FBE700BFFC3900201C3A002024A5040032
:10B5E0001A3A00202DE9F04186B0654B1B6923B162
:10B5F000634B5B692BB1002748E07846FDF76EFC92
:10B60000F6E77846FDF76AFCF5E7A04618E07846CD
:10B61000FDF764FC18E028F47F6828F00F0808F5AF
:10B62000805898F800309844454520D944454AD27E
:10B63000B8F80230013B9BB247F6FE62934214D940
:10B64000B8F80030002BE2D0B8F8003008EB8303E4
:10B6500023F47F6222F00F029342DCD0B8F802207C
:10B66000B2F5FE4FD7D09846DEE7444600E000240E
:10B670003CBB00230093019B002B5CD10127002CD5
:10B6800078D0628847F6FF739A4273D0002F75D145
:10B690003B4B5A6922F47F6626F00F06B61A06F570
:10B6A00080561C69DD682B796A799B1A05EB033596
:10B6B000002301936388013B9BB247F6FE629342ED
:10B6C000A3D800940EE00024D2E77846FDF706FCEC
:10B6D00023E024F47F6424F00F0404F580542378DD
:10B6E00023441C46A542C6D92388019A02EB830253
:10B6F0009642C0D9009B634023F47F6323F00F037D
:10B70000002BB8D16388013B9BB247F6FE618B42A8
:10B71000B1D801922388002BD7D0238804EB830370
:10B7200023F47F6222F00F029342D2D06288B2F5F6
:10B73000FE4FD6D1CDE7124A526901208DF808009C
:10B740000392009A059204930E4A02A900F0C8FFE2
:10B7500070B90B49019B23F003024B6913444B6101
:10B7600014B1074B1C618AE77846FDF7B7FBF8E791
:10B77000002000E0012006B0BDE8F0810120FAE7DA
:10B78000FC3900201A3A002000B585B00023294A70
:10B790001370D3F8F83FB3F1FF3F09D0B3F1FF3F87
:10B7A0000DD08BB1B3F1FF3F39D0A3F5805211E03A
:10B7B0004FF010225269B2F1FF3FEFD104E04FF099
:10B7C00010225269002AEDD14FF080535A691B694B
:10B7D00003FB02F2A2F58052174B1A60174B1B684D
:10B7E00013F4801F16D0164B1B68062B12DD154B69
:10B7F000D3F804350021D1F8F81FB1F1FF3F14D080
:10B8000002920191104A009240F276220F490720DD
:10B8100003F00AFDFFF792FD05B05DF804FB4FF061
:10B8200010235A69A2F58052D4E74FF010214969DC
:10B83000E6E700BF183A00201C3A0020F83000204C
:10B84000F430002000100140D4A20400BBA2040088
:10B8500010B50446B0B1104B1B78BBB10E4BD96884
:10B86000E3685879A3EB0032914211D31A79121A86
:10B8700002F57F2202F6FF7203EB0233994209D8E8
:10B88000012004E07846FDF729FBE4E7002010BD25
:10B890000020FCE70020FAE7FC390020024B187872
:10B8A000003818BF01207047FC39002010B504464D
:10B8B000124B1B78BBB92378032B18D10F4B9C601C
:10B8C000E268DA600E4B1B78ABB10A220B4B5A6070
:10B8D00000221A76012018705A760A4900F0EEFE0E
:10B8E000FFF7E4FC10BD7846FDF7F8FAE3E7784689
:10B8F000FDF7F4FAE2E70022E8E700BFFC39002098
:10B90000183A002091B30200014B1868704700BF3D
:10B910001C3A002010B5044680B163681BB123684F
:10B920000BB1A36813B97846FDF7D8FAA3685A1E7D
:10B93000134207D10023E360236110BD7846FDF771
:10B94000CDFAEAE77846FDF7C9FAF3E770B508B330
:10B950000E4604468368FBB1EFF3108572B60369A7
:10B96000C268934212D001684268806800F1FF3CCF
:10B9700003EA0C0303FB021116B130461DF0A8FACE
:10B980002369013323614DB962B608E005B962B697
:10B99000052504E00E2502E0092500E000252846E3
:10B9A00070BD00000246C0F30B0030BB39B301F696
:10B9B000FF714FEA113C134B0221C3F80415114BE0
:10B9C000D3F80034002BFAD001460AE00D4BC3F83F
:10B9D00008250C4BD3F80034002BFAD002F5805226
:10B9E00001316145F2D3074B0022C3F80425054B12
:10B9F000D3F80034002BFAD070471020704709208C
:10BA0000704700BF00E00140844610F0030F2DD1C5
:10BA100011F0030F2CD16AB312F0030F2CD1900850
:10BA2000164B0122C3F80425144BD3F80034002B25
:10BA3000FAD003E00CF1040C04311046421E58B158
:10BA40000B68B3F1FF3FF5D0CCF800300B4BD3F8C7
:10BA50000034002BFAD0EDE7084B0022C3F8042590
:10BA6000064BD3F80034002BFAD0704710207047F3
:10BA700010207047092070470920704700E00140FE
:10BA8000094B1B7813F0040F02D00378122B00D05F
:10BA90007047064B1A68064B5A60034B1A786FF3CF
:10BAA00082021A70F4E700BFC83A0020B83A0020BA
:10BAB000543A002010B582B001900C46BDF8063013
:10BAC000012B11D123680A490B600A4B1A7842F006
:10BAD00001021A70D3B25B0883F0010303F0010383
