:020000022000DC
:1060000000F000206D630200556302005763020038
:10601000596302005B6302005D6302000000000040
:106020000000000000000000000000005F630200AC
:106030006163020000000000636302006563020008
:106040006763020067630200676302006763020020
:1060500067630200676302006DDC03006763020090
:106060006763020067630200F9B003006763020020
:1060700067630200676302006763020067630200F0
:10608000676302006159040025DE020067630200B5
:10609000C5590400676302004DE70300676302000F
:1060A00067630200676302006763020067630200C0
:1060B0006763020067630200000000000000000048
:1060C00067630200676302006763020067630200A0
:1060D000676302006763020067630200000000005C
:1060E00000000000000000000000000000000000B0
:1060F00000000000000000000000000000000000A0
:10610000000000000000000000000000000000008F
:10611000000000000000000000000000000000007F
:10612000000000000000000000000000000000006F
:10613000000000000000000000000000000000005F
:10614000000000000000000000000000000000004F
:10615000000000000000000000000000000000003F
:10616000000000000000000000000000000000002F
:10617000000000000000000000000000000000001F
:10618000000000000000000000000000000000000F
:1061900000000000000000000000000000000000FF
:1061A00000000000000000000000000000000000EF
:1061B00000000000000000000000000000000000DF
:1061C00000000000000000000000000000000000CF
:1061D00000000000000000000000000000000000BF
:1061E00000000000000000000000000000000000AF
:1061F000000000000000000000000000000000009F
:10620000344935480A1A02D0072291438D46334952
:1062100033480A1A06D00722914381F309880222E3
:1062200082F314882F483049304A00F042F8304851
:106230003049314A00F03DF830483149314A00F0E8
:1062400038F831483149324A00F033F831483249A0
:10625000324A00F02EF832483249334A00F029F829
:1062600032483349334A00F024F833483349002296
:1062700000F02AF832483349002200F025F832486D
:106280003249091A082902DB0022026041601F48D6
:106290001F49884205D00268043003B4904703BC0C
:1062A000F7E700208646EC4600200021284A904768
:1062B000FEE7884207D0521A05D0037801300B70F0
:1062C0000131013AF9D17047884202D002700130A1
:1062D000FAE7704700F0002000E8002000F00020FE
:1062E00000F0002008860400F02D0020002F002080
:1062F000A0630200A063020092600400088604000C
:10630000F02D0020F02D002064640400646404007B
:10631000646404006464040064640400646404004D
:1063200064640400646404000886040018870400A0
:10633000002F0020002F0020002F0020E45F00200D
:10634000E45F0020E45F0020E45F0020E4630020BD
:10635000216D0200FEE7FEE7FEE7FEE7FEE7FEE74F
:10636000FEE7FEE7FEE7FEE700F002B8FFF7FCBF3E
:1063700008484FF00701884385460748804707488B
:10638000016841F470010160BFF34F8FBFF36F8F5D
:10639000FFF736BF00F000208DEC030088ED00E031
:1063A00041DF704730B583B00C461D460A88DAB924
:1063B000184B1B6813F4804F03D0174B1B68032B3B
:1063C00006DC069B02221A8023882B8003B030BD96
:1063D000124BD3F80435124A00924FF4AB721149B4
:1063E000042008F025FEECE70A4B1B6813F4804FED
:1063F000E7D0094B1B68032BE3DD084BD3F80435CA
:106400000192094A009240F25B120649042008F00A
:106410000FFED6E7982E0020942E00200010014099
:10642000A064040097640400C464040030B583B021
:106430000C461D460A88DAB9184B1B6813F4804FC6
:1064400003D0174B1B68032B06DC069B02221A8025
:1064500023882B8003B030BD124BD3F80435124A89
:10646000009240F23D121149042008F0E1FDECE7F2
:106470000A4B1B6813F4804FE7D0094B1B68032BB2
:10648000E3DD084BD3F804350192094A009240F24B
:1064900043120649042008F0CBFDD6E7982E0020D1
:1064A000942E002000100140F06404009764040062
:1064B000C464040070B586B00E4615461C46104BE9
:1064C0001B6813F4804F03D00E4B1B68032B06DCB4
:1064D0000A9B042018802680658006B070BD0A4B98
:1064E000D3F804350492039202910191074A009275
:1064F0004FF492720649042008F09AFDE8E700BFC5
:10650000982E0020942E00200010014014650400F5
:106510009764040070B586B00E4614460B9D104B70
:106520001B6813F4804F03D00E4B1B68032B06DC53
:106530000C9B04221A802E806C8006B070BD0A4B22
:10654000D3F804350492039202910191074A009214
:1065500040F20F120649042008F06AFDE8E700BF88
:10656000982E0020942E0020001001401465040095
:106570009764040070B584B00C4615461E460D4B5A
:106580001B6813F4804F03D00B4B1B68032B04DCF8
:10659000022333802C8004B070BD084BD3F804353F
:1065A00002910191064A0092FC220649042008F05B
:1065B0003FFDEDE7982E0020942E002000100140B2
:1065C000686504009764040070B586B015461C46E3
:1065D0000E4651B342292AD0224B1B6813F4804F38
:1065E00003D0214B1B68002B12DC2188013189B2BA
:1065F00022888A422CD21B4B1B6813F4804F03D095
:10660000194B1B68002B14DC0023238006B070BDDF
:10661000164BD3F8043502910191154A0092D42209
:106620001449012008F004FDDFE70121E0E7012122
:10663000DEE70E4BD3F804350492039102960196DF
:106640000D4A0092DF220B49012008F0F1FCDBE744
:1066500000210A4B187801F093FB28700123238056
:10666000D4E700BF982E0020942E00200010014097
:106670009465040097640400BC6504000C3000209D
:1066800000B583B00F4B1B6813F4804F03D00E4B43
:106690001B68032B09DC0322C8210F2002F0D0F86D
:1066A0000CF08AFD03B05DF804FB084BD3F8043509
:1066B000074A00924FF4B6720649042008F0B8FC6D
:1066C000E9E700BF982E0020942E00200010014022
:1066D000086604009764040030B583B00546441C86
:1066E000494B1B6813F4804F03D0484B1B68032BA6
:1066F00007DC631E042B63D8DFE803F01028333B6C
:106700004300434BD3F804350194424A00924FF4BE
:10671000CB724149042008F08BFCEAE73F4A13881A
:10672000012B38BF0123013B1380032D0CD8364BBE
:106730001B6813F4804F03D0344B1B68032B54DCCD
:106740004221374801F0E0FD03B030BD334B1B88D8
:106750000A2B04D901339BB2304A1380E5E70023AA
:10676000FAE72E4A1388632B28BF63230133138073
:10677000DBE72A4A13885A2B28BF5A230A3313808F
:10678000D3E70CF0B5FCA0B91F4B1B6813F4804F86
:10679000CBD01E4B1B68032BC7DD1D4BD3F8043534
:1067A000204A009240F2C7121B49042008F040FC26
:1067B000BBE70EF093FA0CF08FFCFFF761FFB4E734
:1067C000114B1B6813F4804FAFD0104B1B68032B89
:1067D000ABDD0F4BD3F80435134A009240F2CD12D3
:1067E0000D49042008F024FC9FE7094BD3F8043539
:1067F0000A4A128801920D4A00924FF4EA72064941
:10680000042008F015FC9BE7982E0020942E002011
:106810000010014024660400976404000C3000203E
:10682000F42D0020386604008468040070660400BB
:1068300010B582B0A0F13104042C0AD90E4B1B68AC
:1068400013F4804F03D00D4B1B68032B08DC02B000
:1068500010BD2046FFF740FFB4F1FF3FF7D1EDE751
:10686000074BD3F80435074A00924FF4F2720649F9
:10687000042008F0DDFBEAE7982E0020942E00208B
:1068800000100140846804009764040008B5037890
:10689000232B00D008BDFFF7F3FEFBE700B58DB05A
:1068A0002422002103A81FF08FFB01238DF80C3058
:1068B00007238DF80F3006238DF814301D4B0793F6
:1068C0001D4B0B931D4903A80CF016FC60B30B285D
:1068D00029D11B4B1B6813F4804F03D0194B1B6845
:1068E000032B14DC164B1B6813F4804F1CD0154B84
:1068F0001B68032B18DD144BD3F80435134A0092A0
:106900004FF409721249042008F092FB0CE00E4B80
:10691000D3F804350F4A009240F223220C49042098
:1069200008F086FBDEE710B90DB05DF804FB18F047
:10693000CDFAF9E78D680200F5690200082F002002
:10694000982E0020942E002000100140E0660400E4
:10695000976404009066040000B583B01D4A0421CA
:106960004FF4C04008F048FB1B4B1B6813F4804FEA
:1069700003D01A4B1B68032B13DC1FF027F8E0B978
:1069800001F0A0FF164801F0D1FFE0B902F08CF948
:1069900002F0C8F902F0F6F9FFF780FF03B05DF8E6
:1069A00004FB104BD3F804350F4A009240F23B220F
:1069B0000E49042008F03CFBDFE70D4A40F23D2180
:1069C00018F092FADCE70A4A40F2412118F08CFAFA
:1069D000DCE700BFCDEF0200982E0020942E0020AF
:1069E000D9660200001001401C670400976404008F
:1069F0006464040000B583B01B4B1B6813F4804F24
:106A000003D01A4B1B68032B10DC0021184800F040
:106A1000E3FBB8B9144B1B6813F4804F03D0134B3E
:106A20001B68032B11DC03B05DF804FB114BD3F89A
:106A30000435114A009240F209221049042008F05E
:106A4000F7FAE2E718F042FAE4E70A4BD3F8043524
:106A5000074A128801920A4A009240F20F2207491F
:106A6000042008F0E5FADEE7982E0020942E00209E
:106A7000F42D0020001001404867040097640400D2
:106A80006867040010B582B00446114B1B6813F40C
:106A9000804F03D00F4B1B68032B0CDC00210F2011
:106AA00001F0B8FE04EB840462003221032001F0FF
:106AB000C7FE02B010BD084BD3F80435074A009258
:106AC0004FF4BE720649042008F0B2FAE6E700BFB0
:106AD000982E0020942E0020001001409C67040096
:106AE0009764040000B583B00C4B1B6813F4804F0F
:106AF00003D00B4B1B68032B04DC01F0D5FE03B065
:106B00005DF804FB074BD3F80435074A009240F2C6
:106B100003220649042008F08BFAEEE7982E0020A5
:106B2000942E002000100140BC670400976404000C
:106B300000B583B00C4B1B6813F4804F03D00B4B94
:106B40001B68032B04DC01F0AFFE03B05DF804FB0F
:106B5000074BD3F80435074A009240F285120649E4
:106B6000042008F065FAEEE7982E0020942E00200D
:106B700000100140D46704009764040000B585B09C
:106B800003A812F031FC0D4B1B6813F4804F03D0A7
:106B90000B4B1B68032B02DC05B05DF804FB094BB3
:106BA000D3F80435BDF80C200192074A00924FF447
:106BB000F6720649042008F03BFAEDE7982E002013
:106BC000942E002000100140F46704009764040034
:106BD00000B58BB06421294801F046FD284B1B7895
:106BE000E3B90393049305930693079308930993DA
:106BF000244B0493244B0593244B0693244B079377
:106C0000244B0893244B099303A801F0C3FC38B12B
:106C1000224A40F25F2118F067F901E0FFF7AEFF6A
:106C200002F0D2FA01F0BAFE0CF0B8FAA0B91C4B8F
:106C30001B6813F4804F03D01A4B1B68032B11DC25
:106C400000210F2001F0E6FD0222C8210F2001F0F3
:106C5000F7FD0BB05DF804FB104A4FF41A7118F001
:106C600043F9E4E7104BD3F80435104A009240F2A0
:106C70006A220F49042008F0DBF9E1E731680200DD
:106C8000082F0020B56C0200856A0200316B0200FB
:106C9000E56A02000C680400006A040064640400F1
:106CA000982E0020942E00200010014084680400DB
:106CB0009764040000B583B0144B1B6813F4804F35
:106CC00003D0134B1B68032B13DC02F02BF802F0EC
:106CD00059F8FFF753FF01F0E7FD00210F2001F005
:106CE00099FD0422C8210F2001F0AAFD03B05DF830
:106CF00004FB084BD3F80435074A009240F2F11226
:106D00000649042008F094F9DFE700BF982E002020
:106D1000942E0020001001402C68040097640400A9
:106D200000B585B04FF080430122C3F87825FFF706
:106D300013FEFFF74DFF0C2002F0F0F936E0394B5F
:106D4000D3F804350192384A009240F27D22374947
:106D5000042008F06DF944E0BFEE007AF4EEC77A43
:106D6000F1EE10FA51DD324A50E0F8EEC76A76EEE5
:106D7000E77ADFED306A67EEA67AFDEEE77ACDEDD1
:106D8000037A8DED027A01922B4A009240F27E2224
:106D90002649042008F04CF94FF4FA644FF47A4085
:106DA000264B43F001039847013CF7D1FFF7F8FA6F
:106DB00002F096F9224B83ED000ADFED1E7A20EEF9
:106DC000270ABCEEC00A10EE103A9AB21D4B1A8088
:106DD0001D4B1B6813F4804F03D01C4B1B68032B07
:106DE000ADDC194B1B6813F4804FD5D0174B1B68D3
:106DF000032BD1DD0B4BD3F80435114AD2ED007AC9
:106E0000F5EEC07AF1EE10FAA6D4114ABDEEE77A9B
:106E1000F5EEC07AF1EE10FAA7DDF8EEC76A77EE6C
:106E2000E67AA6E700100140486804009764040071
:106E3000546804000000C8425868040070680400E8
:106E4000503000200C300020982E0020942E00207E
:106E5000286E040070B5C56B046D002233E002EBB0
:106E6000820C05EB4C0104EBC20335F81C6024F8DE
:106E70003260B1F802C083F802C0CCF3032E93F85D
:106E800003C02CF00F0C4CEA0E0C83F803C0B1F8D1
:106E900004E00EF00F065FFA8CFC0CF00F0C4CEACD
:106EA000061C83F803C0CEF3071E83F804E091F8B4
:106EB00006C083F805C091F807C083F806C0097AB8
:106EC000D971013292B2038F9342C8D870BD00B518
:106ED000B1F838E0002301E001339BB273450AD2D8
:106EE000CA6B03EB830C32F81C208242F4D1086D8C
:106EF00000EBC30000E000205DF804FB30B583B078
:106F00000446056C01F0E6F90DF10602294620461B
:106F100001F01AF95223BDF806202946A01C1EF0E4
:106F200015F903B030BD2DE9F04182B015461E467B
:106F3000089FDDF82480044618B117B1B8F1000F9E
:106F400002D1784602F004F8236C3B60276ACDF842
:106F50000080324629462046B84702B0BDE8F0819D
:106F6000F8B516461C46069F054608B103B117B989
:106F7000784601F0EDFF2A6C2260AC693B46314651
:106F80002846A047F8BD2DE9F04182B015461E46BF
:106F9000089FDDF82480044618B117B1B8F1000F3E
:106FA00002D1784601F0D4FF236C3B60A76ACDF88C
:106FB0000080324629462046B84702B0BDE8F0813D
:106FC0002DE9F04182B015461E46089FDDF8248069
:106FD000044618B117B1B8F1000F02D1784601F09C
:106FE000B7FF236C3B60676ACDF8008032462946C4
:106FF0002046B84702B0BDE8F0812DE9F04385B0E6
:1070000016461F46DDF83890DDF83C80044628B16E
:10701000B9F1000F02D0B8F1000F02D1784601F0AB
:1070200097FF256CC9F80050CDF808800195BDF890
:10703000343000930C9B3A4631462046E669B0470F
:107040005B23B8F80020294620461EF089F805B0D9
:10705000BDE8F0832DE9F04385B015461C46DDF808
:107060003490DDF83880064630B12BB1B9F1000F0D
:1070700002D0B8F1000F02D1784601F069FF376CF9
:10708000C9F800702288AA420BD0174B1B6813F472
:10709000804F03D0154B1B68002B0FDC784601F0A6
:1070A00057FFCDF800803B46BDF8302021463046E2
:1070B00000F074FE80B905B0BDE8F0830C4BD3F846
:1070C0000435029201950B4A00924FF4AF720A49BF
:1070D000012007F0ADFFE1E75723B8F8002039465B
:1070E00030461EF03DF8E6E7982E0020942E002052
:1070F00000100140446A0400356A0400F8B51546E2
:107100001C46069F064608B103B117B9784601F040
:107110001FFF326C22603B462946304600F0F4FEE9
:10712000F8BD2DE9F04115461E46069F804608B180
:1071300003B117B9784601F00BFFD8F8404034602E
:10714000A5B93A462146404600F0FEFF3B885BB9B0
:1071500003233B80237843F001032370DBB243F029
:10716000FE032370A4F80150BDE8F0813B4622469F
:107170002946404600F068FFE8E72DE9F041144653
:107180001D46DDF81880064618B113B1B8F1000F9E
:1071900002D1784601F0DCFE376C2F60338FDB00C4
:1071A0009AB26CB131462046FFF791FE78B10822C1
:1071B000A8F80020026843683A607B60BDE8F0816F
:1071C000A8F80020316D38461EF0D5FEF6E7022300
:1071D000A8F800303C80F1E780B138B50D46044690
:1071E00000F0ACFE2046FFF735FE054B2361E36A55
:1071F000E360294620461DF0BDFF38BD0E207047D4
:107200006C6A0400422805D04D2801D00020704748
:107210000120704701207047422803D04D2801D03B
:107220000020704709B9012070470220704710B54F
:10723000044690F8A710B0F8A400FFF7EDFF023065
:10724000B4F8AA301844400080B210BDB0F8AA309B
:10725000013393422EDA10B4002308E09A1CD0F8D0
:10726000944014F803C001F802C001339BB2B0F897
:10727000AA209A42F2D8B0F8A4C0013AD2B20B7850
:107280006FF300030B70DBB262F344030B700CF07E
:107290000702DBB203F01F0343EA42130B70CCF387
:1072A000C70C81F801C0B0F8AA00023080B25DF8C6
:1072B000044B704700207047B0F8AA300233934265
:1072C00028DA10B4002308E0DA1CD0F8944014F84F
:1072D00003C001F802C001339BB2B0F8AA209A4261
:1072E000F2D8B0F8A4C09AB1D3B2013BDBB20A78AD
:1072F00042F001020A70D2B263F347020A70A1F8A9
:1073000001C0B0F8AA00033080B25DF8044B7047AA
:107310007F23ECE70020704770B504460D46B0F8B7
:10732000A4300B8090F8A63003F07F038B7090F8A8
:10733000A72043EAC2138B7090F8A710B0F8A400FE
:10734000FFF76AFF0023032209E0511CD4F8806094
:1073500016F803C005F802C001339BB28AB283421B
:10736000F3D3002309E0511CD4F8846016F803C05D
:1073700005F802C001339BB28AB28342F3D3531C97
:107380009BB294F8A810A954002207E0D4F8880012
:10739000591C805CE854013292B28BB2B4F8AA1046
:1073A0009142F3D8002207E0D4F88C00591C805C8D
:1073B000E854013292B28BB2B4F8AA109142F3D8D9
:1073C000284670BD102905D8B0F5006F02D20231F1
:1073D00088B27047033188B270472DE9F04180468A
:1073E0000D4616461F46FFF70DFF28800021404638
:1073F000FFF712FF044601214046FFF70DFFA042B0
:1074000038BF204680B230802B8800EB43005830D4
:10741000400038802B881BB1338823B9002000E05E
:107420000020BDE8F0810120FBE738B50C46054699
:1074300008B1A86C04E0784601F08AFDF9E700681D
:1074400018B1B0F8A430A342F9D138BD38B50D4613
:10745000044648B12046FFF7EAFE2880E36F196C26
:107460002046FFF759FF38BD784601F071FDF1E77E
:1074700010B5044680B1D4F894301A78D4F88C3022
:107480001978D4F888301B7899420DD3934207D8E5
:10749000914207D2002004E0784601F059FDEAE766
:1074A000002010BD0120FCE7934203D3914203D991
:1074B0000120F6E70120F4E70020F2E7F8B50446E2
:1074C000A0B30E4615461F46BDF8182000211EF039
:1074D0007BFDA4F8A460A4F8AA50A4F8AC702946D7
:1074E0003046FFF76FFFA4F8AE00102D04D8B6F5B4
:1074F000006F1DD30F4B00E00E4BC4F8A03004F119
:10750000B002C4F888205319C4F88C3002EB45034C
:10751000C4F8903005EB45031344C4F8943002EBF3
:107520008502C4F880203A44C4F884202046F8BD7F
:10753000014BE2E7B97202004D720200002937D018
:1075400070B586B00E4681421CD9091A89B21D4613
:10755000642404FB01F191FBF6F101EB810101EBE5
:1075600081018C00A4B21349096811F4804F03D043
:1075700011490968042909DCA5428CBF00200120BB
:1075800006B070BD411A89B21546E1E70B49D1F842
:10759000041505940493039202960190084B0093FE
:1075A0000B464FF49F720749052007F041FDE3E7C2
:1075B00001207047982E0020942E002000100140DA
:1075C000CC6A0400B96A0400F0B587B006460C46E0
:1075D00017461D461649096811F4804F16D0154B01
:1075E0001B68042B12DD144BD3F80435A04216D9C6
:1075F000021B059204950397029401960F4A00928C
:107600004FF48E720E49052007F012FDA64208D9EC
:10761000341BBC42B4BF0020012007B0F0BD221AC9
:10762000E7E7A41BAC42B4BF00200120F5E700BF90
:10763000982E0020942E0020001001402C6B040096
:10764000B96A040010B5044688B194F8A73093B124
:10765000D4F89400D4F89010D4F88420D4F8803072
:107660001B88128809780078FFF768FF10BD7846FC
:1076700001F06EFCE9E7D4F89400D4F89010D4F847
:107680008420D4F880301B78127809780078FFF7CE
:107690009BFFEBE730B587B00446B0F8AA30ADF8F1
:1076A0001630C06F45690DF11603D4F89420B4F874
:1076B000A410A847B4F8AA20BDF816108A420BD02F
:1076C0000D4B1B6813F4804F03D00C4B1B68002B31
:1076D00004DC784601F03CFC07B030BD084BD3F821
:1076E000043502910192074A009240F2C9220649EC
:1076F000012007F09DFCECE7982E0020942E00203E
:1077000000100140846B0400B96A0400F0B583B036
:1077100004460D461646FAB1F1B10CB3B4F8AE30DA
:1077200033802046FFF7B6FFB4F8AE70D4F8A0302F
:10773000328829462046984787420BD0104B1B6859
:1077400013F4804F03D00F4B1B68002B0BDC7846E3
:1077500001F0FEFB03B0F0BD784601F0F9FBDCE779
:1077600000233380F6E7084BD3F80435074A00922C
:1077700040F217320649012007F05AFCE7E700BF44
:10778000982E0020942E002000100140D06B0400A1
:10779000B96A0400002800F0B6802DE9F04F87B0E8
:1077A0008A460646022A40F2B0800988B0F8A40052
:1077B000884257D1023A94B20AF102089AF802506C
:1077C00015F0700F68D105F07F09ED092946FFF724
:1077D00023FD0746844240F29A800AF10301431CCC
:1077E0009BB21A189442C0F2948008EB030B92B239
:1077F0009442C0F0908018F802A0BAF11A0F67D82E
:10780000013292B2B6F8AA30D0188442C0F2858014
:1078100008EB020005901A4492B213449C427EDBAE
:10782000904486F8A69086F8A7503A46D6F880008D
:107830001EF0A1FB3A465946D6F884001EF09BFB89
:1078400086F8A8A0B6F8AA200599D6F888001EF0F8
:1078500092FBB6F8AA204146D6F88C001EF08BFBAE
:10786000002009E02F4B1B6813F4804F03D02E4BF0
:107870001B68002B03DC0B2007B0BDE8F08F2B4BFF
:10788000D3F8043502910190294A00929C2229499B
:10789000012007F0CDFBEEE7224B1B6813F4804F6D
:1078A00003D0214B1B68002B01DC0B20E4E71F4BAE
:1078B000D3F8043505F07F05002203920295019567
:1078C0001D4A0092AF221B49012007F0B1FBECE7F3
:1078D000144B1B6813F4804F03D0134B1B68002B11
:1078E00001DC0B20C8E7114BD3F804350392CDF827
:1078F00008A0CDF804A0114A0092D3220D4901201E
:1079000007F096FBEDE70E2070470920B4E7092049
:10791000B2E70920B0E70920AEE70920ACE709206B
:10792000AAE700BF982E0020942E002000100140EE
:10793000EC6B0400B96A0400246C0400746C04004D
:1079400008B5B0F8AA20D0F89410D0F890001EF036
:1079500012FB08BDF0B583B017461D460446D0B1F2
:1079600004F1080630461DF00AFDD4F89830204690
:107970009847A0B194F8A630C3F12000A3F12001EC
:1079800027FA03F205FA00F0024325FA01F10A434F
:1079900025FA03F305E0784601F0DAFAE0E73A4623
:1079A0002B46BA4273EB05014CD294F8A8504FF421
:1079B0007A70A5F12001C5F1200700FA01F120FA43
:1079C00007F73943A840824273EB010501D3104603
:1079D00019461E4B1A685B68904271EB030316D37D
:1079E000C90341EA5041C003194BC018194A4FF06E
:1079F000000341F100011EF07FF920616161002365
:107A0000237230461DF092FC20B901201BE021209A
:107A10000021F2E7104B1B6813F4804F03D00F4B8B
:107A20001B68002B01DC00200DE00D4BD3F8043562
:107A300001900C4A009240F295220B49012007F078
:107A4000F7FAF0E7012003B0F0BD00BF5830002086
:107A500020A1070040420F00982E0020942E002005
:107A600000100140C86C0400B96A040030B585B04C
:107A700004460DF10A0303AA0DF10E01FFF7ADFC58
:107A800090B1BDF80A000BF08EFA054680B1BDF842
:107A90000A300093BDF80C30BDF80E202146284670
:107AA000FFF70CFD05B030BD784601F051FAE8E76C
:107AB0000D4B1B6813F4804F03D00C4B1B68002B3D
:107AC00003DC784601F044FAE1E7094BD3F80435CA
:107AD000BDF80A200192074A009240F24F2206495F
:107AE000012007F0A5FAECE7982E0020942E002044
:107AF00000100140006D0400B96A040070B584B044
:107B00000446C56FB0F8AE60D0F8A030B5F84C2090
:107B1000154909689847864201D004B070BD5223C8
:107B2000B4F8AE2010490968A81C1DF00FFBB0B1D5
:107B30000E4B1B6813F4804FEFD00D4B1B68002BCE
:107B4000EBDD0C4BD3F80435029001900A4A009209
:107B50004FF4ED720949012007F06AFADDE720468B
:107B6000FFF7EEFED9E700BF60300020982E00201E
:107B7000942E002000100140246D0400B96A040016
:107B800038B500F1400590F878309BB304460023E7
:107B900080F87830FFF7B2FF94F8A8304FF47A708D
:107BA000A3F12001C3F1200200FA01F120FA02F250
:107BB00011439840114B1A685B68904271EB0303C4
:107BC0000DD3C90341EA5041C0030D4BC0180D4A03
:107BD0004FF0000341F100011EF08EF801E021207A
:107BE0000021A064E164002384F8403028461DF0A1
:107BF0009DFB38BD28461DF0C2FBFAE75830002037
:107C000020A1070040420F0038B5044600F14005AE
:107C100028461DF088FB18B1012384F8783038BD60
:107C20002046FFF76BFF94F8A8304FF47A70A3F169
:107C30002001C3F1200200FA01F120FA02F21143FF
:107C40009840104B1A685B68904271EB030315D3A0
:107C5000C90341EA5041C0030B4BC0180B4A4FF017
:107C6000000341F100011EF047F8A064E164002325
:107C700084F8403028461DF059FBD0E72120002130
:107C8000F3E700BF5830002020A1070040420F005A
:107C900070B584B00646C36F00228DF80F200DF139
:107CA0000F020DF10E0158880FF00AF848BB9DF83D
:107CB0000E20032A0ED8DFE802F0024605096422EE
:107CC000002520E042F2107200251CE04EF66022F2
:107CD000002518E0254B1B6813F4804F37D0244B48
:107CE0001B68002B36DD234BD3F804350192224A62
:107CF00000929B222149012007F09AF900221546A3
:107D000001E0002215469DF80F10A1FB023201FB95
:107D100005F5690141EAD3615A01D21A61EB050107
:107D2000890041EA92719200D21845EB0105ED00FD
:107D300045EA5275D4003046FFF7ACFC54EA05031F
:107D40000BD104B070BD4FF47A720025DBE700223E
:107D50001546D8E700221546D5E73046FFF754FF11
:107D600022462B463046FFF7F5FDEAE7982E002025
:107D7000942E002000100140946D0400826D0400D8
:107D800038B504460D46012903D86000C0B2284327
:107D900038BD784601F0DCF8F7E700002DE9F04740
:107DA00084B00C4616461D46DDF83080074620B1EB
:107DB00019B113B1B8F1000F02D1784601F0C8F83B
:107DC00000238DF80F300DF10F020DF10E017888B0
:107DD0000EF076FF48BB9DF80E20032A0ED8DFE890
:107DE00002F0025E05096420002220E042F21070D9
:107DF00000221CE04EF66020002218E03B4B1B687E
:107E000013F4804F4FD03A4B1B68002B4EDD394B9B
:107E1000D3F804350192384A00929B223749012059
:107E200007F006F90020024601E0002002469DF816
:107E30000F30A3FB001003FB02F2530143EAD163AE
:107E40004801401A63EB02039B0043EA90738000F1
:107E5000401842EB0303DB004FEAC00943EA507AC3
:107E600021883846FFF7E1FA074620B1324621461D
:107E7000FFF790FCE8B11D4B1B6813F4804F03D053
:107E80001B4B1B68002B21DC77B30023A8F80030C4
:107E900023882B800026304604B0BDE8F0874FF4DD
:107EA0007A700022C3E700200246C0E700200246A5
:107EB000BDE74A4653463846FFF74CFD06460028C4
:107EC000D9D041463846FFF7C1FAE4E7094BD3F869
:107ED0000435228801920A4A009240F2A7320949E9
:107EE000012007F0A5F8CFE70223CFE7982E002066
:107EF000942E002000100140946D0400826D040057
:107F0000C06D0400B96A0400F8B50E4617461C4659
:107F1000054608B102B113B9784601F019F80023FB
:107F2000238031462846FFF780FA18B12146FFF733
:107F30008DFAF8BD022323803E80FAE7F0B585B0C4
:107F4000064650B1354B4FF47A700021C3E9000169
:107F50000024A6F84C40B46438E0784600F0F8FFFE
:107F6000F0E7FFF783FD0546002380F8A63080F890
:107F7000A7300A2380F8A830C667336BA70003EB4D
:107F8000840383628061264BC36108301DF00EFAC2
:107F9000736B3B442B662D65224B6B6505F14000EE
:107FA0001DF004FA204BC5F89830204BC5F89C30E2
:107FB000B5F8AE30B6F84C201344A6F84C3029463C
:107FC00006F1480006F073FF0134E4B2F36A1A7850
:107FD000A2421BD9621C33F812004228C1D0144BB4
:107FE0001B6813F4804FEFD0124B1B68002BEBDDA6
:107FF000114BD3F8043502900190104A009240F2E0
:108000000A420F49012007F013F8DDE7B6F84C00EB
:108010000AF0C9FF0B4B186005B0F0BD58300020C6
:10802000917C0200817B020071740200457602009F
:10803000982E0020942E002000100140FC6D0400BA
:10804000B96A040060300020F0B585B00C461546D2
:108050001E46074608B102B113B9784600F078FF12
:1080600021463846FFF7E1F9044632462946FFF734
:108070004DFB002C51D000238DF80F300DF10F0275
:108080000DF10E0178880EF01BFE48BB9DF80E2006
:10809000032A0ED8DFE802F002430509642300201A
:1080A00020E042F2107300201CE04EF66023002016
:1080B00018E0204B1B6813F4804F34D01E4B1B6814
:1080C000002B33DD1D4BD3F8043501921C4A00927E
:1080D0009B221C49012006F0ABFF0023184601E05B
:1080E000002318469DF80F10A1FB032301FB00F0AD
:1080F000410141EAD26153019B1A61EB0001890001
:1081000041EA93719B009B1840EB0100C000DA002C
:1081100040EA53732046FFF71DFC05B0F0BD4FF455
:108120007A730020DEE700231846DBE700231846B9
:10813000D8E700BF982E0020942E002000100140A8
:10814000946D0400826D04002DE9F04F87B0039117
:108150009346824608B101B112B9784600F0F8FEA4
:1081600000238DF817300DF117020DF11601BAF842
:1081700002000EF0A5FD48BB9DF81620032A0ED87C
:10818000DFE802F0024B05096427002120E042F2FB
:10819000107700211CE04EF66027002118E0454BC7
:1081A0001B6813F4804F3CD0434B1B68002B3BDD16
:1081B000424BD3F804350192414A00929B22414937
:1081C000012006F035FF0027394601E00027394637
:1081D0009DF81720A2FB073702FB01F14A0142EA92
:1081E000D3625F01FF1A62EB0102920042EA9772CA
:1081F000BF00FF1841EB0202D2004FEAC70942EA72
:1082000057770023ABF80030BAF1000F4ED0BAF820
:108210004C50DAF848401E4618E04FF47A770021B7
:10822000D6E700273946D3E700273946D0E7784616
:1082300000F08EFE4A463B462046FFF78BFBB4F823
:10824000AE301E44B6B2EB1A9DB224681CB3204671
:10825000FFF720FAB4F8AE80D4F8A0301A4A1168BB
:108260002A463144204698478045E3D0114B1B688D
:1082700013F4804FDBD0104B1B68002BD7DD0F4B66
:10828000D3F80435114A009240F2414210490120CE
:1082900006F0CEFECBE7BAF84C20521B92B2ABF8F8
:1082A0000020094B196803981DF065FE504607B081
:1082B000BDE8F08F982E0020942E00200010014081
:1082C000946D0400826D0400603000202C6E040068
:1082D000B96A040070B5044610B1A46C002604E02D
:1082E000784600F035FEF8E724685CB194F8A830D1
:1082F00001259D4004F108001DF041F8AE42F3D283
:108300002E46F1E7304670BD30B583B0056CFFF7FF
:108310008CF890B104460DF106022946FFF7F6F9F4
:10832000D4F89C302046984710B9002003B030BDE7
:108330002046FFF769FC0020F8E70520F6E769DF33
:108340007047000003781F2B00D07047014B0122BB
:108350001A70FAE7673000203F4B1B78002B79D06A
:1083600000B587B0012804D003286CD007B05DF8B1
:1083700004FB0023019301A9012016F087F80028CF
:108380004BD100230393049305939DF80C20012304
:1083900063F303028DF80C20D2B263F307128DF859
:1083A0000C209DF80D2063F301028DF80D201E2393
:1083B000ADF81630019A03A94120FFF7C0FF78BB42
:1083C00001A816F0BDF870BB244B1B6803B1984799
:1083D0000123029302A90DF1020011F083FD28BBD5
:1083E000BDF8020011F0F0F90DF1010111F084FB6C
:1083F000F8B90CF0BDF99DF8011000200CF0B8FCA4
:10840000D0B904F0A1FAD8B9134B00221A70134B5B
:108410005B68002BAAD09847A8E716F057FDB0E795
:1084200016F054FDCCE716F051FDCDE716F04EFDE9
:10843000D6E716F04BFDDCE7784600F089FDE0E773
:1084400016F044FDE0E716F0F5F800288ED016F09F
:108450003DFD8BE7704700BF66300020683000208C
:1084600008B5064B01221A70054804F0DBFA04F047
:10847000BDFA00B908BD16F029FDFBE76630002003
:10848000502E002008B503781C2B00D008BD074BE8
:108490001B78002BFAD016F011F918B9044804F033
:1084A000C5FAF3E716F012FDF8E700BF66300020CA
:1084B000502E002008B5094B1B7863B908490948BC
:1084C00017F0CCF940B9032300220749496907484E
:1084D00017F0E0F900E0082008BD00BF6730002079
:1084E00084300020F033002068300020BC320020AF
:1084F00008B50378023B082B3FD8DFE803F01C05E2
:10850000113E3E2C3E3E36001E4B9B68002B34D065
:10851000007A002831D01C4A0121117098472CE0C4
:10852000184BDB684BB3184A127832B3164A002155
:108530001170984721E0154B1B784BB9114B1B6903
:108540001BB1114A002111709847FFF7B3FF14E0E7
:10855000FFF786FF11E010220A4B99690C4817F0CB
:1085600022FA50B116F0B2FC07E08168C0680AF048
:1085700043FD18B9054B01221A7008BD16F0A6FC80
:10858000F8E700BF6830002064300020653000202C
:10859000BC32002010B586B08446224A03AB07CA1D
:1085A00003C323F8022B120C1A701F4CA646BCE81A
:1085B0000F00AEE80F009CE807008EE80700A369F3
:1085C000002B2DD0194B009303AB194A19491A48B7
:1085D00017F002F9034610B1184606B010BD17484F
:1085E00018F0B6FE0146144817F022F90346002899
:1085F000F2D1134819F02CF803460028ECD11048AA
:1086000019F05EF801460C4817F012F903460028ED
:10861000E2D10C4804F006FAFFF74CFF0346DBE713
:108620000723D9E7486E040068300020F184020077
:1086300084300020F0330020BC320020A430002021
:108640006C3200205C2E002008B5064B1B681BB95D
:1086500006E0044B1B68984713F0CEFE0028F8DABA
:1086600008BD00BF3034002010B50C46134B186015
:10867000134A012113481DF0E3F998B9610CE00396
:1086800041F27073984271F1000310D34FF47A7283
:1086900000231DF031FB014600220B481DF0E6F9D6
:1086A00038B910BD094A4A2116F01EFCE6E705213B
:1086B000F2E7064A4B2116F017FCF2E730340020AF
:1086C00049860200886E040034340020546E040091
:1086D00070B50546002403E00D4A93420ED80134DC
:1086E000032C14D80B4B1B5DAB42F8D10A4B1E6810
:1086F00004F09CFC331AEFD5831BEDE704F096FCE5
:10870000054B1860054B1B6820469847E7E770BD8E
:10871000801A0600946E0400803400207C3400200F
:108720004FF0A043D3F80435C34013F0010F0CBF42
:10873000012000207047000070B505460024264641
:1087400000E00134032C0AD80123A3402B42F8D0C7
:10875000044B185DFFF7E4FFA0400643F1E7304605
:1087600070BD00BF986E040008B511B115F0AFF9E7
:1087700008BD15F0A5F9FBE770B50546002400E03B
:108780000134032C0FD80123A3402B42F8D0064B11
:108790001E5D3046FFF7C4FF80F00101C9B23046CC
:1087A000FFF7E2FFECE770BD986E040010B5144BC4
:1087B0001B684BB1134B1868FFF7DEFF104B1C68AA
:1087C000013C1C6024B110BD002016F07FFBF1E7D6
:1087D0000D481DF06DF900E00134032CF3D801239E
:1087E000A340084A12681342F6D0084B1968E140CA
:1087F00001F00101064B185DFFF7B6FFECE700BF83
:1088000054340020583400205C340020843400208C
:10881000986E040070B505460E46002400E0013451
:10882000032C09D80123A3402B42F8D03146034B37
:10883000185DFFF799FFF2E770BD00BF986E040066
:1088400042B310B50C461346132900D810BD124A86
:1088500010605B00013B114A1360FFF76DFF104B86
:108860001860610CE40314F5FA704FF47A724FF05B
:10887000000341F100011DF03FFA014600220948C2
:108880001DF0F4F80028E1D10121034B1868FFF72F
:10889000C1FFDBE7704700BF58340020543400208C
:1088A000843400205C34002008B504481DF000F931
:1088B0000021034B1868FFF7ADFF08BD5C340020B2
:1088C0005834002010B582B015F08EF840B1002465
:1088D000ADF804408DF8064001238DF8053007E01F
:1088E00015F03AF80028F2D016F0F0FAEFE701346C
:1088F000032C09D801A90A4B185D15F07FF8002850
:10890000F5D016F0E3FAF2E7064A012106481DF019
:1089100097F808B902B010BD16F0D8FAFAE700BF10
:10892000986E0400AD870200906E040060B310B52D
:1089300082B0164A106015F057F840B1144B1B680E
:10894000ADF804301B0C8DF8063000240CE015F057
:1089500003F80028F2D016F0B9FAEFE701210D4B29
:10896000185D15F025F90134032C0AD80A4A01A92B
:10897000084B185D15F0B2F80028EFD016F0A6FAF3
:10898000ECE7002002B010BD0E2070477C340020C0
:108990008C6E0400946E0400D1860200002800F062
:1089A00082802DE9F04FD1B004463F4B1B6813F491
:1089B000804F03D03D4B1B68032B31DC3A4B1B68C7
:1089C00013F4804F03D0394B1B68032B2ADC51B0C2
:1089D000BDE8F08FE25C36490D68100959002E5C45
:1089E0000FA800F8136002F00F020131AA5C425494
:1089F00001330F2BEED90FAA00238DF85C3003F161
:108A0000804303F58833D3F804350292294A019252
:108A1000294A009242222949042006F009FBCDE7A9
:108A20000023E6E7264BD3F804350D9320680202B5
:108A300002F47F0242EA0062010A01F47F4142EA45
:108A40000108B4F804C04FEA0C2292B2B4F806E070
:108A50004FEA0E2189B2257A667AA77AE37A94F8EA
:108A60000C9094F80DA094F80EB0E47B0B94CDF824
:108A700028B0CDF824A0CDF820900793069705964E
:108A8000049541EA1E21039142EA1C22029248EA1F
:108A9000106001900B4A00920D9B4322074904206D
:108AA00006F0C6FA93E77047982E0020942E002017
:108AB0009C2E0020D46E0400E86E0400C16E0400F9
:108AC00000100140F06E040072DF704773DF7047E2
:108AD00074DF70472DE9F047A2B0074688469146FB
:108AE000324C002525606560A560E56030490B7853
:108AF000C3EB43102F4E064426602F4A0244A26067
:108B00001F22A280A281013303F001030B704FF0FA
:108B10003C0A5246294613A81DF056FA06238DF842
:108B20004F30ADF8487001238DF84A30ADF85C3015
:108B300012AA1892ADF83C70ADF84090CDF8448080
:108B40000DEB0A021D928DF8783052462946684690
:108B50001DF03AFA02238DF80030221D314613A889
:108B600015F086FB90B9114B03F10C029968684629
:108B700015F07EFB68B9114A0C491148FFF7A4FFB4
:108B8000082809D070B922B0BDE8F08716F09EF928
:108B9000E9E716F09BF9EEE7002204490848FFF7E1
:108BA00093FFEFE716F092F9EDE700BFCC34002019
:108BB000883400208C340020DC3400206C2E00200F
:108BC000682E0020B0F5202F0AD2074BA3FB00230C
:108BD000DB0808B103B90123044A9381916070470F
:108BE0004FF6FF73F5E700BFCDCCCCCC6C2E002048
:108BF00008B50121054B1878FFF768FF18B9002068
:108C000004F000FE08BD16F061F9F8E7682E0020B8
:108C100008B5044B1878FFF75BFF00B908BD16F0E4
:108C200055F9FBE7682E002076DF70477ADF704742
:108C30007CDF704769DF704708B516F047F908BD5B
:108C400008B503F0F7FE08BD00B583B0037823B183
:108C5000012B0BD003B05DF804FB3B214088FFF7EC
:108C6000E3FF0028F6D016F031F9F3E7094B1B6853
:108C700013F4804FEED0084B1B68032BEADD074B43
:108C8000D3F80435064A009268220649042006F00B
:108C9000CFF9DFE7982E0020942E0020001001402D
:108CA000706F0400556F040000B585B015F0C2FC6C
:108CB00060BB0023039303A9012015F0E7FB40BB31
:108CC00000230093019302939DF80020012363F396
:108CD00003028DF80020D2B263F307128DF8002052
:108CE0009DF8012063F301028DF801201E23ADF8E9
:108CF0000A30039A69464120FFF79CFF60B903A838
:108D000015F01EFC58B905B05DF804FB16F0DEF84E
:108D1000CFE716F0DBF8D3E716F0D8F8EFE716F058
:108D2000D5F8F0E700B585B09DF80C30012262F36C
:108D300003038DF80C30DBB262F307138DF80C30AF
:108D40001E220F4903A8FFF773FF98B90023019370
:108D500002937823ADF80430C823ADF806304FF401
:108D6000C873ADF80A3001A8FFF760FF28B905B055
:108D70005DF804FB16F0AAF8E8E716F0A7F8F6E7A6
:108D80009C6F040000B58BB001AA002301930293ED
:108D90007821ADF80410C821ADF806104FF4C87161
:108DA000ADF80A1003930493059306930793089371
:108DB0000993039240F6CD4304934FF48033059317
:108DC00003238DF81830074B0893074B099303A82A
:108DD00015F01CFE10B90BB05DF804FB16F076F828
:108DE000F9E700BF498C0200398C02000620704769
:108DF00000B587B044F2010398425DD01BD801282A
:108E000036D041F20103984271D1474B1B6813F4ED
:108E1000804F36D0454B1B68002B32DD444BD3F8D6
:108E2000043502920191434A009263224249012093
:108E300006F0FEF825E044F20203984257D13A4B7F
:108E40001B6813F4804F1CD0384B1B68002B18DDB7
:108E5000374BD3F8043510680390526802920191A1
:108E6000364A009269223449012006F0E1F808E010
:108E70002D4B1B6813F4804F03D02C4B1B68002B29
:108E80000DDC4FF0A0434FF4F012C3F81825C3F8DF
:108E90000C25EFF3108372B64DF6AD6C3DE0244B1C
:108EA000D3F8043502920191254A009260222249AA
:108EB000012006F0BDF8E4E71B4B1B6813F4804F5C
:108EC000DFD01A4B1B68002BDBDD194BD3F80435C0
:108ED0001068049050680390029192680192194AB8
:108EE000009273221449012006F0A2F8C9E70E4B44
:108EF0001B6813F4804FC4D00C4B1B68002BC0DDE3
:108F00000B4BD3F8043501910F4A00927B220A499A
:108F1000012006F08DF8B4E730BF0C4B1B78002B16
:108F2000FAD107B05DF804FB982E0020942E0020A3
:108F30000010014010700400E16F04003470040060
:108F4000F46F04005470040078700400842E002034
:108F500000B583B0014600230093054B01936A4698
:108F600044F20200FFF744FF03B05DF804FB00BFCA
:108F7000286E040038B505464FF0A0430322C3F81D
:108F800058274FF48002C3F80C250C4C44F0010420
:108F90004FF4A070A047012D09D04FF4A050A04776
:108FA0004FF0A0434FF48002C3F8082538BD4FF0BE
:108FB000A0434FF48002C3F80825EEE7A070040038
:108FC00038B50546002407E045FA04F000F001003A
:108FD000FFF7D0FF0134E4B2072CF5D94FF4C850A5
:108FE000024B43F00103984738BD00BFA070040056
:108FF00070B54FF0A0440323C4F858374FF48006EF
:10900000C4F80C650D4D45F001054FF4FA40A84732
:10901000C4F808650023C4F858374FF4F060A84737
:10902000D4F810354FF4EB40A847D4F8103513F4BA
:10903000800F01D0012070BD0020FCE7A07004006B
:1090400038B54FF0A0450323C5F858374FF48003D7
:10905000C5F80C35094C44F00104C020A04700239A
:10906000C5F858374FF42070A047D5F81055C5F310
:1090700080554FF45460A047284638BDA0700400C6
:1090800038B50025012401E06400E4B22CB1FFF7FB
:10909000D7FF0028F8D02543F6E7284638BD70B53D
:1090A00006460D46FFF7A4FFCC20FFF789FFBE2040
:1090B000FFF786FF002404E0FFF7E2FF305501349C
:1090C000E4B2AC42F8D3FFF793FF70BD08B5FFF7E9
:1090D0008FFFCC20FFF774FF4420FFF771FF08BD1E
:1090E00000B585B0FFF7F2FF022101A8FFF7D7FF17
:1090F0009DF805301B021BB29DF8040018431CF0BC
:10910000BDFD0022044B1CF01DFD1CF0CBFD00EE4C
:10911000100A05B05DF804FB0000B03F10B504462E
:10912000FFF766FFCC20FFF74BFF4E20FFF748FF0D
:109130000020FFF745FF6420FFF742FF0B2C0DD006
:109140000C2C05D00A2C0DD01F20FFF739FF02E0B0
:109150007F20FFF735FFFFF74BFF10BD5F20FFF7C4
:109160002FFFF8E73F20FFF72BFFF4E710B403468B
:10917000044C006859689A68DB680FC45DF8044BBA
:10918000704700BF1C3500200E4B4FF0805202F19B
:10919000600103C983E8030003F1080CA43292E8DC
:1091A00003008CE8030093F9062002F00F0242F05E
:1091B00040029A7193F9082002F03F0242F08002C7
:1091C0001A7270471C350020004870471C3500207B
:1091D000002308E0074901EBC300002242804260FF
:1091E00001F8332001331F2BF4D9034B00221A60FE
:1091F000704700BF2C3500202C36002000B5864675
:10920000114B1B684FF0000C0BE01F230F4A12F8A4
:109210003300B0B102EBC3025288724509D00CF1A1
:10922000010CBCF11F0F0BD85A1E002BEDD01346BA
:10923000ECE7064A02EBC30252688A42EFD100E033
:1092400000205DF804FB00BF2C3600202C350020E8
:1092500010B40B4A13680B4C04EBC30CACF80200BF
:10926000CCF80410012104F833100B441360202BB8
:1092700002D05DF8044B7047134600221A60F8E7ED
:109280002C3600202C3500200021072918D830B4B6
:1092900002E00131072910D84FEA011C094C34F8CB
:1092A0000CC08445F5D104EB0114A568E4689C4228
:1092B00008BF9542EDD1012000E0002030BC70478E
:1092C000002070473036002030B4C3698469C188FB
:1092D0004FEA132C1B06C4F30C028A4218D28A1AD6
:1092E0002244A2F500529A184CF100010A4C23685E
:1092F0005D1C256003F00703B0F814C007481C018B
:1093000000EB031320F804C09A60D96030BC7047AA
:109310008A1A2244E7E700BFB0360020303600202A
:10932000C37D9BB1C3780A7802F080020A7003F013
:109330007F0313430B7002780B7803F07F030B70ED
:1093400043EAC2130B7003789BB97047C3780A785D
:1093500002F0BF020A709B0103F0400313430B703D
:10936000027903F0C0030B7002F03F0213430B704D
:10937000E1E700B58378082B14BF002201224B7867
:1093800003F07F034B7043EAC2134B70B0F806E062
:10939000DAB202F080024A70CEF3861C4CEA020276
:1093A0004A708B7803F003038B7043EA8E038B7053
:1093B00090F808E0DAB202F0FC028A70CEF3C10C39
:1093C0004CEA02028A70CB7803F01F03CB7043EAA9
:1093D0004E13CB70437ACA7802F0E002CA7003F0F1
:1093E0001F031343CB705DF804FB00000023032B25
:1093F00031D810B402E00133032B28D8C3EBC302E9
:10940000164C04EB021292F84820012AF3D1C3EB68
:10941000C30204EB0212948AC2899442EBD1C3EBDB
:10942000C3020E4C04EB0212D2888A42E3D1C3EB92
:10943000C30204EB0212B2F8582012B1848AA2428D
:10944000D9D1C3EBC303054800EB031000E00020B3
:109450005DF8044B70470020704700BFDC360020E9
:10946000002300E00133032B16D8C3EBC3020B49E2
:1094700001EB021292F84820022AF3D1C3EBC30297
:1094800001EB0212918A828A9142EBD1C3EBC303B2
:10949000024800EB0310704700207047DC360020C4
:1094A00008B9042070470820704700B503468C4671
:1094B0000978C17000214162DCF808100B2904D83A
:1094C0009CF80C1029B3012100E001211970002043
:1094D000987031B1DCF808100731C90801395972A8
:1094E00018720121D97503F10C0E0CF1100103C99A
:1094F0008EE80300BCF80E109982DCF8181019628F
:109500009CF81C109975DCF82010D9629A625DF8FD
:1095100004FB0021DAE7000000210E4B1B688B42A0
:1095200016D9002300E001330B4A02EBC102526856
:109530009A420BD9084A52F8312002EBC30C12F8B8
:1095400033208242EFD1DCF8040070470131E4E7B8
:1095500000207047B4360020B836002070B58CB0BB
:1095600006460D4614462C22002101A81CF02CFDB5
:109570000F238DF80430ADF808609DF80A3065F3CC
:1095800000038DF80A308DF80B4001A801F014FAA1
:109590000CB070BD30B58DB005460C462C220021B4
:1095A00001A81CF011FD10238DF8043002958DF8F0
:1095B0000C4001A801F000FA0DB030BD00B58DB02F
:1095C00010B913F1020F06D1074B186804F05AFBCB
:1095D0000DB05DF804FB01218DF804100293039295
:1095E00001A801F0E9F9EFE7C036002070B5049C4E
:1095F000002962D01D468E46D2F800C05168966898
:10960000D368C4F80CC021616661A361D2F810C0B0
:109610005169C4F81CC02162002363700278D2092A
:1096200022705AB30423734549D8E17D41B30378CE
:1096300003F07F03E3700023A3709AB143789B018A
:1096400003F4FE53827843EA9203E3808378DB00DD
:1096500003F01803C27843EA52132372C37803F06D
:109660001F036372002363622B78032B21D82A78AF
:10967000144B53F82230E362002070BD0123D2E77F
:109680000178C1F38011E170017801F03F0121718F
:1096900042B190F90130002B02DB0423A370CCE728
:1096A0000823FBE70421A1700B447345C5D90920A9
:1096B000E3E77846FFF74CFCD9E70920DDE709200E
:1096C000DBE700BF1C72040070B50C461D46037832
:1096D0009BB104263244A26000F10C032360836A2C
:1096E0006360C36AE36000232374204604F04AFEEB
:1096F00010B963691E442E6070BD0126EAE72DE9AA
:10970000F0418EB00D4616461C46804600282DD0EE
:10971000002D2FD0002C31D0636A0233059304F161
:109720000C00E378002B2DD00121A27801AF3B463D
:10973000082A14BF0022012204F0F1FB0697CDF89D
:109740001C80B2B2ADF820200B9515440C95A3787F
:109750008DF83430237B022B16D00023ADF828304F
:1097600005A804F0D4FB0EB0BDE8F0817846FFF701
:10977000EFFBCDE77846FFF7EBFBCBE77846FFF74B
:10978000E7FBC9E70221D0E723692BB123690993DD
:109790001023ADF82830E3E77846FFF7D9FBF5E76B
:1097A0002DE9F04188B004460D46C37D002B3CD026
:1097B000082605FB06F8637AAB4238D0257201AB68
:1097C000324602A92046FFF77FFF074648BB4DB946
:1097D00094F8533033B9A369C3F30C03E380012336
:1097E00084F85330E37D7BB994F8523063B91DBBE4
:1097F000E06EB4F84A10A27823468A1A0146FFF7B1
:109800007EFF012384F8523007992046FFF788FD38
:10981000E16E3246414401981CF0ADFB02A804F011
:10982000D7FD384608B0BDE8F0810C26C1E7B4F892
:109830004A60A6EB0806C1E77846FFF789FBD7E741
:1098400070B505460E4609B100230B6095F85040EF
:10985000002104E0631C85F850300134E4B26B7AD7
:10986000A34210D3EA6C0123A3401A42F5D121464A
:109870002846FFF795FF014628B9002EEAD0336845
:1098800001333360E6E7084670BDF0B589B00446A1
:109890000E46154683789A18C37D63B10B239A420E
:1098A00021D801AB02A92046FFF70EFF074620B1E1
:1098B000384609B0F0BD0F23F1E707992046FFF7BE
:1098C0002FFDE37D43B12A46314601981CF053FB3E
:1098D00002A804F07DFDEBE723462A4601993046B5
:1098E000FFF70DFFF4E70927E2E7000010B5044693
:1098F00090F84830012B0CD103F098FB237B012B0F
:109900000BD0094BD968014404F1300003F05AFB35
:1099100010BD7846FFF71CFBEEE7A27D024BD9682D
:109920001B6903FB0211EEE7C436002030B583B09B
:10993000002403E02846FFF7D9FF0134032C18D890
:10994000C4EBC4030C4A02EB031393F84830012B19
:10995000F3D100230193C4EBC40502EB051501A963
:109960002846FFF76DFF0428E4D0019B002BE4D0CC
:10997000E0E703B030BD00BFDC36002038B5044658
:1099800090F84830022B09D1064B1D6803F04EFBBE
:10999000411904F1300003F015FB38BD7846FFF79C
:1099A000D7FAF1E7C436002038B5044690F84830BD
:1099B000022B10D10A4B5A7D5D689B6803FB025550
:1099C00003F034FB411904F1500003F0FBFA0123CA
:1099D00084F8683038BD7846FFF7BAFAEAE700BF86
:1099E000C436002010B50446808A02F067FE0128C4
:1099F0001CD1237BE3B194F91620002A1ADBE27D07
:109A00004AB1022B18D094F90330002B16DBA3784F
:109A1000B3B900200BE0E2780AB9012B12D1237808
:109A200093B9A378042B11D1002000E0102010BDC1
:109A30001020FCE70720FAE71020F8E70720F6E7F8
:109A40000720F4E70720F2E70020F0E70720EEE721
:109A500038B5044603784BB1C388C2698169808AEE
:109A600006F036FE054645B9284638BDC26981690B
:109A7000808A06F027FE0546F5E7E169002201F03D
:109A80000101A08AFFF76AFDEEE700002DE9F0472B
:109A900080460E4617464B1EDBB2012B0FD8B7F59A
:109AA000C07F10D80024032C1AD8C4EBC403314A59
:109AB00002EB031393F848304BB10134F3E77846D7
:109AC000FFF746FAEBE77846FFF742FAEAE7C4EB1E
:109AD000C40502EB0515384609F065FAE86600E0B2
:109AE00000255DB3EB6E002B42D043462C4608F1B7
:109AF000300ED3F800C058689968DA68C4F800C01E
:109B00006060A160E260103310347345F1D100232E
:109B1000EB64A5F84A70012E13D06FF00103AB621D
:109B2000002385F86830144BAB652D66134BAB638F
:109B30002D64012002F048FA85F848602846BDE807
:109B4000F0870F4B1B7D85F85130002385F852308C
:109B500085F8533085F85030D8F828206A65A5F884
:109B600058306FF00103AB62064BAB632D64E0E746
:109B70001D46E3E7DC360020C7A50200D99E02009F
:109B8000C4360020259F020000B585B000228DF864
:109B90000F20A0B10B46024602320A600DF10F0100
:109BA000184604F0B8F99DF80F3043B10C4B1B6810
:109BB00013F0040F03D00B4B1B68032B04DC9DF840
:109BC0000F0005B05DF804FB074BD3F80435074AD6
:109BD000009240F215420649042005F029FAEEE70A
:109BE000982E0020942E002000100140D470040014
:109BF000C77004002DE9F04391B005460E461446A7
:109C00001F46D0F8188003784BB1C388C8F30C0204
:109C10009A4230D29B1A4344A3F50053AB6105F13D
:109C20000C00EB7853B30121AA780DF130094B46B3
:109C3000082A14BF0022012204F071F9C5F8188027
:109C4000CDF810900596AB78E21A92B2ADF81820D4
:109C500032440A9209978DF82C300023ADF8203059
:109C6000EB78002B41D02B7B022B09D000236B62B9
:109C70000193029316E09B1A4344CFE70221D3E7F6
:109C80001023ADF820302B690793EFE710AB03EBFF
:109C9000840454F83C3C6B62002011B0BDE8F083B2
:109CA000019BB3B102AB01AA2979286A10F028FC04
:109CB0000024012CF4D810AB03EB840353F83C0CC4
:109CC0000028EDD003A9FFF75FFF0028DED10134A3
:109CD000EFE72B7B022B2CD105F10C01E88910F06A
:109CE000C9FC0028BFD10520D7E72B7B012B01D071
:109CF0000520D2E7EB89ADF80430AB8AADF8063029
:109D00000024012C13D82946002341F8243F10AB2E
:109D100003EB440333F83C0C10F017FC03A9686A0A
:109D2000FFF732FF08B90134EBE70020B5E7052063
:109D3000B3E70520B1E7000070B5F0B00E46144659
:109D40001D4610AB0A4601462046FFF753FF50B1AF
:109D5000224B1B6813F0040F03D0214B1B68052B0B
:109D60002FDC70B070BD2046FFF772FE0028F8D1DE
:109D700003AB01228DF80C20A28AADF80E20002240
:109D800004928DF8142010AA0692A178711AADF8E9
:109D90001C1008AA93E8030082E803000AAB04F150
:109DA0000C0292E8030083E80300A37D8DF83830AD
:109DB000236A0C93636A0D930F9505A800F0FCFDD0
:109DC000CFE7084BD3F80435074A009240F20372FC
:109DD0000649062005F02CF9C3E700BF982E0020A5
:109DE000942E002000100140E8700400C7700400A9
:109DF00010B50446C06E09F0DAF804F1300003F043
:109E0000C9F894F84830022B08D07022002120466F
:109E10001CF0DAF8002002F0D7F810BD04F1500071
:109E200003F0B8F8F1E710B58CB0044690F848306C
:109E3000012B0FD101238DF80430636D029303F0E1
:109E4000F5F8039001A800F0B7FD2046FFF7D0FF1A
:109E50000CB010BD7846FFF77BF8EBE730B585B066
:109E60000D460446A8B194F84830022B15D0294677
:109E7000606DFFF78FFB2046FFF7BAFF114B1B68A1
:109E800013F0040F03D0104B1B68032B09DC05B043
:109E900030BD7846FFF75CF8E5E72046FFF714FA97
:109EA000E5E70A4BD3F8043594F84820029501926F
:109EB000074A009240F2F3120649042005F0B8F870
:109EC000E5E700BF982E0020942E002000100140EE
:109ED00014710400C770040008B508460021FFF79C
:109EE000BDFF08BD08B5037B012B02D0FFF79BFF28
:109EF00008BD0121FFF7B2FFFAE7000008B590F8AE
:109F0000513053B1013B80F85130002380F850307C
:109F1000034B186803F0B6FE08BDFFF7E3FFFBE74D
:109F2000C036002010B50C4691F84830012B03D103
:109F30002046FFF7E3FF10BD7846FFF709F8F7E783
:109F400070B5C6B00E46154682782A44C37D2BB143
:109F50004FF48073934278D3002303E04FF4C0732F
:109F6000F8E70133032B14D8C3EBC30C394C04EBD3
:109F70000C1C9CF848100129F3D1BCF81440818ACC
:109F80008C42EED1BCF80E40C1898C42E9D1082543
:109F900054E00121FFF77AFD0446002857D02A46F5
:109FA0003146C06E1BF0E7FF0023459345A92046CC
:109FB000FFF746FC054608B1042842D1459B8BB902
:109FC000254B1B6813F0040F37D0244B1B68032B61
:109FD00033DDB4F84AC0BCF1800F28BF4FF0800CCD
:109FE000002313E02046FFF781FCE9E7E26ED25C34
:109FF0001B490D68100959002E5C04A800F8136075
:10A0000002F00F020131AA5C425401336345EDD3E3
:10A0100004AA002302F81C3003F1804303F58833BF
:10A02000D3F8043502920F4A01920F4A00924FF47E
:10A03000AC620E49042004F0FBFF0025284646B020
:10A0400070BD2046FFF7D4FEF8E70925F6E70425A2
:10A05000F4E700BFDC360020982E0020942E00206C
:10A060009C2E002038710400E86E0400C7700400C4
:10A0700070B504460D461646FFF7B4FC30B9237898
:10A080002BB1324629462046FFF75AFF70BD3246B3
:10A0900029462046FFF7F9FBF8E7000038B50446EB
:10A0A0000D46CB695B780371CB691B7883F00103A4
:10A0B000C370CB6943628B8A0B2B07D8CB7A002BFA
:10A0C00035D10B7B012B02D0002300E0012323704C
:10A0D000002B31D0287B02282BD0FFF7E1F9A070AC
:10A0E000AB8A03440B33174A82FB03235B10013B0B
:10A0F0006372002323720023E37504F10C0395E8D7
:10A10000030083E80300AB6923622B89A382AB7A47
:10A11000A3752B6AA362DF23E362284610F0D8FA06
:10A1200020B12B78012B0AD0FF23E36238BD012335
:10A13000CDE7054B987DD0E70423A370DBE7202310
:10A14000F3E700BFABAAAA2AC4360020062979D1BA
:10A15000F0B585B0154690F800C04FEA8C1202F4B5
:10A16000FE5241788478C3781B0443EA046304797F
:10A1700043EA042344791C434FFA8CF642EA9101E6
:10A180002846FFF733F90746E0B1002E2FDBC289DE
:10A19000A98A8A422BD02C4B1B6813F0040F30D0B5
:10A1A0002A4B1B68012B2CDD294BD3F80435029177
:10A1B0000192284A009240F27D622749022004F071
:10A1C00037FF1EE0204B1B6813F0040F19D01F4B04
:10A1D0001B68012B15DD1E4BD3F804351F4A009276
:10A1E00040F279621C49022004F022FF09E0002EAF
:10A1F00009DBFD6C2543FD644CB903213846FFF7AC
:10A200002DFE05B0F0BDAB8AA7F85830F1E73B78DA
:10A2100083B17B7A5A1C01239340013B9D420DD0B0
:10A22000002187F850103846FFF70AFB3846FFF741
:10A230005DFBE6E77846FEF78BFEEAE73846FFF778
:10A24000F2FDDEE7704700BF982E0020942E00201C
:10A250000010014078710400C770040048710400C8
:10A260002DE9F0438BB007460E4614461D461046B6
:10A27000FFF7EEFB50B994F80380B8F1000F08D156
:10A280002B46224631463846FFF760FF0BB0BDE84B
:10A29000F0834046FFF740F981460028F6D08DF85C
:10A2A0000480236A0793A38AADF8123005AB04F14A
:10A2B0000C0292E8030083E80300A37D8DF82030B0
:10A2C0000297039623788DF81030E36A09932946A4
:10A2D00001A8C847DAE792F801C01CF0010F08D0C6
:10A2E00010B5D47D14B1FFF7BBFF10BDFFF724FDFF
:10A2F000FBE7704708B501390130FFF7ECFF08BDF7
:10A3000010B54FF4E072002113481BF05DFE06F01B
:10A31000ABF90024114B1C608022214610481BF031
:10A3200053FE104B104A1A60104A5A604CF25032D9
:10A330009A600F49D9601A6104221A759C75082227
:10A340005A750C4803F07EFC0B4B18600B4B1C60DD
:10A350000B4806F087FC10BDDC360020B03600202C
:10A3600030360020C436002080969800F049020064
:10A3700020A10700B9A50200C0360020B436002095
:10A38000BD95020008B506F08FF908BD98B110B56B
:10A390008CB00446036983B1C36983B1836983B117
:10A3A00001466846FFF77AFEA28A21696846FFF7F0
:10A3B0005FFE0CB010BD0E2070470E20F9E70E2096
:10A3C000F7E70E20F5E7000058B310B590B00A4645
:10A3D000044643683BB383693BB3014604A8FFF7D7
:10A3E00064F8134B1B6813F0040F03D0114B1B6868
:10A3F000062B06DCA268616804A8FFF739FE10B0DE
:10A4000010BD0D4BD3F804352278A1690291019259
:10A410000A4A009240F605020949072004F008FEA6
:10A42000E8E70E2070470E20E9E70E20E7E700BFBF
:10A43000982E0020942E002000100140BC710400D2
:10A44000C7700400037B012B01D00020704730B59A
:10A4500091B004460D463F4B1B6813F0040F03D028
:10A460003D4B1B68032B5ADC04A80023049305937F
:10A47000CDF81730B4F806E09DF8101001F0800117
:10A480008DF81010CEF3861C4CEA01018DF81010E7
:10A490009DF8112002F003028DF8112042EA8E028D
:10A4A0008DF811202A0E8DF812202A0C8DF8132019
:10A4B0002A0A8DF814208DF815506278022A0CBFF4
:10A4C000012119469DF8102002F07F028DF810201E
:10A4D00042EAC1128DF810204FF0060209924FF0A7
:10A4E00001028DF82C20A28AADF82E200C938DF855
:10A4F0001C300890226A0D928DF82830E36A0F9381
:10A5000019D0E389ADF82A30A37DF3B98DF838303E
:10A510006FF0010107A8FFF757FF11B030BD0F4BD7
:10A52000D3F804350E4A009240F263220D4904200C
:10A5300004F07EFD98E70DF10E0103A810F0B6F8C7
:10A54000BDF80C30ADF82A30DEE7074B5B7D8DF8A7
:10A550003830DDE7982E0020942E002000100140B6
:10A56000E8710400C7700400C436002090F8483039
:10A57000022B00D0704710B5044690F86830022BCB
:10A5800000D010BDC16CFFF75DFF0028F9D100239A
:10A5900084F86830F5E7000010B5002407E0C4EB4C
:10A5A000C402130103481844FFF7E0FF0134032CF1
:10A5B000F5D910BDDC36002008B5FFF7B7F9FFF775
:10A5C000EBFF012008BD10B50C4691F84830022B76
:10A5D00006D1022384F868302046FFF7C7FF10BD7C
:10A5E0007846FEF7B5FCF4E7F0B583B00446C069E1
:10A5F000A369E188060A0006C3F30C0291422FD931
:10A600008A1A1A44A2F50052851846F100062A4615
:10A610003346A08AFEF738FE002840F089802046A5
:10A62000FEF71EFF074630B3C269D0F818C0C388D2
:10A63000100A1206CCF30C01994214D2591A614443
:10A64000A1F50051521840F10003AA4273EB060134
:10A650000DD3954276EB030330D3384603B0F0BDFB
:10A66000891ACA18D0E75B1A03EB0C01EAE7052147
:10A670003846FFF7F3FBE388E269A169A08A06F098
:10A68000F9F8E8B9627A0132E37DA3B3082101FB4E
:10A6900002F293B34FF48073934231D302212046E8
:10A6A000FFF7F4F907460028D7D100212046FFF72D
:10A6B000C9FE02210020FEF76DFFCEE70027CCE7A0
:10A6C000E388E269A169A08A06F04CF908B900277D
:10A6D000C3E723785BB1637A0133012199400139E3
:10A6E0002046FFF7AFFE2046FFF7B2F9EFE77846C6
:10A6F000FEF72EFCEFE70C21C9E74FF4C073CBE760
:10A700000C4B1B6813F0040F03D00B4B1B68002B82
:10A7100001DC0027A1E7094BD3F804350192084A70
:10A72000009240F27F320749012004F081FCF0E7FB
:10A73000002792E7982E0020942E00200010014060
:10A74000F8710400C77004002DE9F04182B007469B
:10A750000E46144698461046FFF746FF002846D09E
:10A760000546404B1B6813F0040F03D03E4B1B689B
:10A77000032B3FDC2846FFF701F92B7B012B47D049
:10A78000EB6C217A01228A40134230D11343EB64EF
:10A79000043E237AE27D002A42D04FF0080C0CFBE5
:10A7A00003FC697A8B423ED0002A41D00823B34291
:10A7B00040D1AA69A3699A4209D205F10C0E0C3462
:10A7C0000FCCAEE80F0094E803008EE80300E86EBB
:10A7D0003246391D60441BF0CEFBEC6C2B7873B312
:10A7E0006B7A5A1C01239340013B9C422BD002B050
:10A7F000BDE8F0811D4BD3F80435227A01921C4A42
:10A80000009240F2A3321B49042004F011FCB1E78E
:10A8100095F86830002BB3D12846FFF7C5F8AFE7AD
:10A820004FF00C0CBBE70CEB0603A5F84A30C0E771
:10A830000C23BCE704212846FFF710FBD7E7784636
:10A84000FEF786FBCCE7E96C2846FFF7FBFD4346A5
:10A850002A46B5F84A10E86EFFF73DFD2846FFF797
:10A86000C7FAC4E7982E0020942E00200010014063
:10A870000C720400C77004002DE9F04190B000286C
:10A880004CD00F4614461E468046002A48D004ABE2
:10A8900000933346FEF7AAFE054618B1284610B0CD
:10A8A000BDE8F08104A8FFF79DF805460028F5D122
:10A8B00000230293039302A960880FF0DBFE28B106
:10A8C0009DF8113043F001038DF811302269E168E1
:10A8D000208905F087FF38B19DF8113003F0FE03A1
:10A8E0008DF81130002BD9D09DF81130002BD5D028
:10A8F00013F0010F01D0039B08939DF8103033B182
:10A90000334604AA39464046FFF71EFFC6E73346E2
:10A9100004AA39464046FFF7EDFCBFE70E25BDE728
:10A920000E25BBE7F8B508B30E460546164B1F6863
:10A93000F7B93C46B4420FD205EBC4035B68D3B110
:10A9400015F8340015F93430002B16DBB8B1FEF7DA
:10A95000E3FDB0B90134EDE70C4B43F8375003EB9E
:10A96000C7035E607B1C084A136002E00E2700E00C
:10A9700004273846F8BD0E27FBE70B27F9E70F271A
:10A98000F7E70F27F5E700BFB4360020B836002000
:10A99000084B196861B110B501E021463CB10C6863
:10A9A0000B79002BF9D0034804F0ACFAF5E710BDA1
:10A9B000704700BFA038002038B5054630B1104BB5
:10A9C0001C68C4B10F4B01221A7004E07846FEF7F0
:10A9D000BFFAF4E724683CB12379002BFAD154F88C
:10A9E000043C28469847F5E7064B1B78022B03D01A
:10A9F000044B00221A7038BDFFF7CAFFF8E700BF0A
:10AA0000A03800209C38002010B5044630B1002347
:10AA10002372211D034804F04AFA10BD7846FEF760
:10AA200097FAF4E7A038002010B5044658B10A4B55
:10AA30001B78013BDBB2012B09D8074B02221A70AD
:10AA40000123237210BD7846FEF782FAEFE7211D3D
:10AA5000024804F057FAF5E79C380020A03800209F
:10AA60000A8883689B5A07339BB223F0030313447D
:10AA70009BB20288043A934200D900230B807047AE
:10AA800010B582B004468368C91AADF806100DF1FE
:10AA90000601FFF7E5FFBDF80630A068184402B0D4
:10AAA00010BD0088043880B2704743888268D0188F
:10AAB000D1520123837070478268002393704380D2
:10AAC0008380704708B5073189B221F0030189B24C
:10AAD000428883889A4204D29B1A994220DC002043
:10AAE00008BD9A4212D9B0F800C0ACEB020C614527
:10AAF00018D98B4218D3BCF1030F03D983681344D0
:10AB000004229A70002343801846E9E782681344C0
:10AB10009B780BB10420E3E7FFF7CEFF0020DFE7CF
:10AB20000420DDE70020DBE70420D9E738B5044640
:10AB30000D468368828813448B4202D07846FEF724
:10AB400007FA0023AB70211D2046FFF789FFA2887A
:10AB5000A36813449B78042B00D038BD0023A38046
:10AB6000FBE710B50C468368428813448B4202D041
:10AB70007846FEF7EDF90023A37010BD70B50546C9
:10AB800014460E46002944D0002D46D0B6F1005F91
:10AB900008D94FF08053D3F80C3103F50023B6EBFE
:10ABA000832F0ED3B6F5000F08D94FF08053D3F89A
:10ABB0000C3103F50053B6EB832F02D37846FEF732
:10ABC000C7F9631E3344B3F1005F08D94FF08052D8
:10ABD000D2F80C2102F50022B3EB822F0ED3B3F58D
:10ABE000000F08D94FF08052D2F80C2102F5005224
:10ABF000B3EB822F02D37846FEF7AAF9042C10D9C2
:10AC00002C8000236B80AB80AE60043C3480B3703A
:10AC100070BD7846FEF79CF9B6E77846FEF798F9DE
:10AC2000B4E77846FEF794F9EAE738B50446A0B1F0
:10AC30006288A36813449B78012B12D0EFF3108530
:10AC400072B6A388A16819448B78032B0DD02046D7
:10AC5000FFF732FF05B962B638BD7846FEF778F9DE
:10AC6000E6E77846FEF774F9E8E72046FFF708FFC5
:10AC7000A368C31A638000238370EBE72DE9F041DA
:10AC80000E4614460546D0B1EEB16A88AB6813444F
:10AC90009B78012B1BD024B32846FFF702FFA0426C
:10ACA00021D3EFF3108872B621462846FFF70AFF3A
:10ACB000074680B1B8F1000F16D162B614E07846AD
:10ACC000FEF746F9E0E77846FEF742F9DDE7784619
:10ACD000FEF73EF9DFE721462846FFF7E6FE306043
:10ACE000E8E7092700E009273846BDE8F081F8B514
:10ACF0000C4615460646E0B1FCB1A378012B20D1E5
:10AD00002388AB4221D325B3EFF3108772B6258099
:10AD10000223A370F1183046FFF7A2FE7388B288B1
:10AD2000934203D0B268134400229A7007B962B606
:10AD3000F8BD7846FEF70CF9DEE77846FEF708F92D
:10AD4000DBE77846FEF704F9DAE77846FEF700F924
:10AD5000D9E77846FEF7FCF8D6E770B50C4605460D
:10AD600090B1ACB1EFF3108672B6AA88AB68134409
:10AD70009A78042A10D09A78022A15D0032A18D07B
:10AD8000052006B962B670BD7846FEF7E1F8E8E73F
:10AD90007846FEF7DDF8E5E7291D2846FFF760FE57
:10ADA000AA88AB681344E6E703229A702360002068
:10ADB000E7E77846FEF7CCF80020E2E738B504462E
:10ADC00080B1EFF3108572B6A088A16801448B783A
:10ADD000042B0BD08878022814BF0020012005B96D
:10ADE00062B638BD7846FEF7B3F8EAE72046FFF7CB
:10ADF00047FE0146EEE738B5054630B1EFF3108463
:10AE000072B6A888A968014407E07846FEF7A0F862
:10AE1000F4E72846FFF734FE01468878C31EDBB20C
:10AE2000012BF6D9022814BF0020012004B962B614
:10AE300038BD70B50C46064678B194B1EFF3108575
:10AE400072B6A378012B10D0032B13D121463046C4
:10AE5000FFF76CFE05B962B670BD7846FEF778F86C
:10AE6000EBE77846FEF774F8E8E721463046FFF74F
:10AE700078FEEFE77846FEF76BF8EBE710B5EFF3F7
:10AE8000108472B68388816819448B78042B06D0AD
:10AE90008878B0FA80F0400904B962B610BDFFF7B7
:10AEA000EFFD0146F4E70000024B00221A769A609B
:10AEB00002207047A438002008B5064B986800228D
:10AEC0001A605A609A60DA601A615A619A6105F0F4
:10AED00077F808BDA438002000B585B00A4BDB68C0
:10AEE00002228DF8002001934FF480530293074A09
:10AEF0006946012001F0F8FA18B9012005B05DF8A3
:10AF000004FB0020FAE700BFA4380020C23800206C
:10AF100000B585B00A4B1B6802228DF80020019312
:10AF20004FF480530293074A6946012001F0DCFA8E
:10AF300018B9012005B05DF804FB0020FAE700BF56
:10AF4000C4380020C2380020164BDA6813795179D2
:10AF50005B1A03F57F2303F6FF7302EB03339A4278
:10AF600005D002F580520F4BDA600320704700B520
:10AF700085B00D4B1B6801208DF8000001930B4B31
:10AF80000393042302930A4A694601F0ADFA18B10B
:10AF9000002005B05DF804FB024B01221A76022066
:10AFA000F7E700BFA4380020C4380020C8380020CC
:10AFB000C238002000B585B00C4BDA680C4B1B681A
:10AFC000043301208DF800000192039340F6FC73D6
:10AFD0000293084A694601F087FA28B90120034B19
:10AFE000187605B05DF804FB0020FAE7A4380020CD
:10AFF000C4380020C238002000B585B00A4B1B6859
:10B0000001208DF800000193084B03930423029361
:10B01000074A694601F068FA18B9012005B05DF8E1
:10B0200004FB0020FAE700BFC4380020B03800203D
:10B03000C238002010B584B0104BDA681478104B79
:10B040001B68043301208DF80000019303920294E1
:10B050000C4A694601F048FA70B9094B1B6804F0C4
:10B06000FC041C440434054B5C61D9680A780A442A
:10B070001A61012004B010BD0020FBE7A4380020B5
:10B08000C4380020C238002008B500230A2B09D894
:10B09000064A52F82320824201D00133F6E7044ADF
:10B0A000536002E07846FDF753FF08BD9872040034
:10B0B000A438002010B5214BDB6853B11F4B1B7E19
:10B0C0005BB91E4B5B680A2B26D97846FDF740FF1B
:10B0D00022E07846FDF73CFFF0E77846FDF738FFC1
:10B0E000EFE7164A5368013353600A2B21D978469B
:10B0F000FDF72EFF1DE0114B00225A6019E00F4BA7
:10B100001B7E1BB10D4B02221A7012E0FFF7D4FE1A
:10B110000FE00A4B1B7E83B9084B5A68084B53F863
:10B120002230984704460228E9D00328E3D00128BA
:10B13000D7D0012CEDD0032CEBD010BDA4380020CB
:10B1400098720400104B1B681B685A1E12F1030F03
:10B1500018D8C3F30B020AB10020704710B50B4A90
:10B16000D36000231376537601241470936008484B
:10B17000FFF78AFF0749204601F0A4F9FFF79AFF7D
:10B18000204610BD00207047C4380020A43800209D
:10B19000D9AE020099B1020008B50B78032B06D096
:10B1A0000B4B1B78012B06D0022B0BD008BD084B94
:10B1B00000221A76F4E7064B1B7E002BF6D1FFF730
:10B1C00079FFF3E70B78032BF0D1FFF775FEEDE77E
:10B1D000A438002000B585B0174BDB6818784FF60F
:10B1E000FF7203F58051184405F0F2FCE0B102460D
:10B1F000114BD9680B780B44984217D00E4B5B7EED
:10B2000083B10E4B01208DF80000019203930423BB
:10B2100002930B4A694601F067F948B90120064BD1
:10B22000187606E0074BEDE7012002E0012000E080
:10B23000002005B05DF804FBA4380020BC740400B5
:10B24000C2380020B874040008B5104BDB681878C9
:10B25000002203F58051184405F0BAFC08B1012022
:10B2600008BD0A4BDA68137951795B1A03F57F231D
:10B2700003F6FF7302EB03339A4205D002F58052C6
:10B28000024BDA600320EBE70220E9E7A438002054
:10B29000F0B585B0514BDE6872793379591E8A4218
:10B2A00014D006F580510D780D444D490968081DEC
:10B2B0000F7907449B1A06EB03366B88013B9BB260
:10B2C00047F6FE62934260D92C461AE00120434BB8
:10B2D00058767EE07846FDF73BFE15E024F47F6467
:10B2E00024F00F0404F5805423781C44A6421CD992
:10B2F000A5421CD26388013B9BB247F6FE62934293
:10B3000011D92388002BE5D0238804EB830323F491
:10B310007F6222F00F029342E0D06288B2F5FE4FC6
:10B32000DCD01C46E2E725462FE000252DE0002575
:10B330002BE07846FDF70CFE15E024F47F6424F042
:10B340000F0404F5805423781C44A6421CD9A5425E
:10B3500037D26388013B9BB247F6FE62934211D914
:10B360002388002BE5D0238804EB830323F47F623A
:10B3700022F00F029342E0D06288B2F5FE4FDCD09B
:10B380001C46E2E7254600E00025E5B1144B1968AC
:10B390006A8801F58051384605F01AFC074690B1DD
:10B3A00001200E4B18768DF8000001950D4B03938C
:10B3B000042302930C4A694601F096F858B92C46CA
:10B3C000CEE70025E1E7B5FA85F56D09034B5D761B
:10B3D000012005B0F0BD0020FBE700BFA43800202D
:10B3E000C4380020B4740400C23800202DE9F041B4
:10B3F00086B0654B1B6923B1634B5B692BB100279A
:10B4000048E07846FDF7A4FDF6E77846FDF7A0FD95
:10B41000F5E7A04618E07846FDF79AFD18E028F415
:10B420007F6828F00F0808F5805898F80030984495
:10B43000454520D944454AD2B8F80230013B9BB279
:10B4400047F6FE62934214D9B8F80030002BE2D0E0
:10B45000B8F8003008EB830323F47F6222F00F0278
:10B460009342DCD0B8F80220B2F5FE4FD7D0984610
:10B47000DEE7444600E000243CBB00230093019B30
:10B48000002B5CD10127002C78D0628847F6FF732F
:10B490009A4273D0002F75D13B4B5A6922F47F66D4
:10B4A00026F00F06B61A06F580561C69DD682B7962
:10B4B0006A799B1A05EB0335002301936388013BEE
:10B4C0009BB247F6FE629342A3D800940EE000249C
:10B4D000D2E77846FDF73CFD23E024F47F6424F0B6
:10B4E0000F0404F58054237823441C46A542C6D992
:10B4F0002388019A02EB83029642C0D9009B6340E5
:10B5000023F47F6323F00F03002BB8D16388013B42
:10B510009BB247F6FE618B42B1D801922388002B83
:10B52000D7D0238804EB830323F47F6222F00F0239
:10B530009342D2D06288B2F5FE4FD6D1CDE7124AFF
:10B54000526901208DF808000392009A0592049335
:10B550000E4A02A900F0C8FF70B90B49019B23F005
:10B5600003024B6913444B6114B1074B1C618AE71A
:10B570007846FDF7EDFCF8E7002000E0012006B07A
:10B58000BDE8F0810120FAE7A4380020C23800208D
:10B5900000B585B00023294A1370D3F8F83FB3F102
:10B5A000FF3F09D0B3F1FF3F0DD08BB1B3F1FF3FA7
:10B5B00039D0A3F5805211E04FF010225269B2F158
:10B5C000FF3FEFD104E04FF010225269002AEDD185
:10B5D0004FF080535A691B6903FB02F2A2F58052B7
:10B5E000174B1A60174B1B6813F4801F16D0164BAD
:10B5F0001B68062B12DD154BD3F804350021D1F85A
:10B60000F81FB1F1FF3F14D002920191104A00924D
:10B6100040F276220F49072003F00AFDFFF792FD62
:10B6200005B05DF804FB4FF010235A69A2F5805273
:10B63000D4E74FF010214969E6E700BFC038002089
:10B64000C4380020982E0020942E002000100140C5
:10B65000647204004B72040010B50446B0B1104B84
:10B660001B78BBB10E4BD968E3685879A3EB003265
:10B67000914211D31A79121A02F57F2202F6FF7253
:10B6800003EB0233994209D8012004E07846FDF724
:10B690005FFCE4E7002010BD0020FCE70020FAE793
:10B6A000A4380020024B1878003818BF01207047DA
:10B6B000A438002010B50446124B1B78BBB9237880
:10B6C000032B18D10F4B9C60E268DA600E4B1B789D
:10B6D000ABB10A220B4B5A6000221A760120187077
:10B6E0005A760A4900F0EEFEFFF7E4FC10BD7846FA
:10B6F000FDF72EFCE3E77846FDF72AFCE2E700229F
:10B70000E8E700BFA4380020C038002099B102004B
:10B71000014B1868704700BFC438002010B50446BC
:10B7200080B163681BB123680BB1A36813B9784675
:10B73000FDF70EFCA3685A1E134207D10023E360F5
:10B74000236110BD7846FDF703FCEAE77846FDF774
:10B75000FFFBF3E770B508B30E4604468368FBB100
:10B76000EFF3108572B60369C268934212D0016884
:10B770004268806800F1FF3C03EA0C0303FB0211FE
:10B7800016B130461AF0F7FB2369013323614DB936
:10B7900062B608E005B962B6052504E00E2502E0B0
:10B7A000092500E00025284670BD00000246C0F3D0
:10B7B0000B0030BB39B301F6FF714FEA113C134B5C
:10B7C0000221C3F80415114BD3F80034002BFAD032
:10B7D00001460AE00D4BC3F808250C4BD3F80034A2
:10B7E000002BFAD002F5805201316145F2D3074BAC
:10B7F0000022C3F80425054BD3F80034002BFAD0FF
:10B800007047102070470920704700BF00E00140DA
:10B81000844610F0030F2DD111F0030F2CD16AB321
:10B8200012F0030F2CD19008164B0122C3F8042507
:10B83000144BD3F80034002BFAD003E00CF1040CC5
:10B8400004311046421E58B10B68B3F1FF3FF5D0EA
:10B85000CCF800300B4BD3F80034002BFAD0EDE7D6
:10B86000084B0022C3F80425064BD3F80034002B04
:10B87000FAD0704710207047102070470920704799
:10B880000920704700E00140094B1B7813F0040FBA
:10B8900002D00378122B00D07047064B1A68064B73
:10B8A0005A60034B1A786FF382021A70F4E700BFF4
:10B8B0007039002060390020FC38002010B582B0BB
:10B8C00001900C46BDF80630012B11D123680A49BE
:10B8D0000B600A4B1A7842F001021A70D3B25B086F
:10B8E00083F0010303F001030B71002002B010BDCF
:10B8F0007846FDF72DFBE9E760390020703900201C
:10B9000010B582B001900C46BDF80630022B0FD165
:10B910002268094B1A6022791A71002058719871B7
:10B92000D871064A137843F00203137002B010BDB9
:10B930007846FDF70DFBEBE7583900207039002001
:10B9400010B582B001900C46BDF80630032B06D12D
:10B95000054B186820601B79237102B010BD784632
:10B96000FDF7F6FAF4E700BF6039002010B582B0A9
:10B9700001900C46BDF80630032B0CD1084B206813
:10B98000186022791A71074A137843F00103137083
:10B99000002002B010BD7846FDF7DAFAEEE700BFEE
:10B9A000603900207039002010B582B001900C463B
:10B9B000BDF80630042B05D1044B03CB2060616039
:10B9C00002B010BD7846FDF7C3FAF5E758390020FC
:10B9D00010B582B001900C46BDF80630042B0BD197
:10B9E000074B2068616803C3064A137843F00203DB
:10B9F0001370002002B010BD7846FDF7A9FAEFE7FA
:10BA0000583900207039002000B583B00190BDF88E
:10BA10000630032B06D1054B00221A601A7103B0C1
:10BA20005DF804FB7846FDF793FAF4E760390020EF
:10BA300000B583B00190BDF80630042B06D1054B4C
:10BA400000221A605A6003B05DF804FB7846FDF7E7
:10BA50007FFAF4E75839002000B585B01A4B1B78FF
:10BA600013F0400F13D0184B1B7813F0040F0BD1B9
:10BA7000002301938DF80830144B5B6803F50053E5
:10BA80000193B3F1807F06D905B05DF804FB7846D9
:10BA9000FDF75EFAE7E70E4B1B788DF808300A4A8F
:10BAA000137843F0040313700023ADF80C30032324
:10BAB000ADF80E3001A9039806F06CFA0028E3D027
:10BAC0007846FDF745FADFE770390020FC380020A2
:10BAD0007139002000B585B00022019202920F4B0F
