:020000022000DC
:1060000000F000206D630200556302005763020038
:10601000596302005B6302005D6302000000000040
:106020000000000000000000000000005F630200AC
:106030006163020000000000636302006563020008
:106040006763020067630200676302006763020020
:10605000676302006763020059E30300676302009D
:1060600067630200E5DD03002DAE030067630200F5
:1060700067630200676302006763020067630200F0
:10608000676302005183040001DB020067630200C2
:10609000B58304006763020051EE030067630200EA
:1060A00067630200676302006763020067630200C0
:1060B0006763020067630200000000000000000048
:1060C00067630200676302006763020067630200A0
:1060D000676302006763020067630200000000005C
:1060E00000000000000000000000000000000000B0
:1060F00000000000000000000000000000000000A0
:10610000000000000000000000000000000000008F
:10611000000000000000000000000000000000007F
:10612000000000000000000000000000000000006F
:10613000000000000000000000000000000000005F
:10614000000000000000000000000000000000004F
:10615000000000000000000000000000000000003F
:10616000000000000000000000000000000000002F
:10617000000000000000000000000000000000001F
:10618000000000000000000000000000000000000F
:1061900000000000000000000000000000000000FF
:1061A00000000000000000000000000000000000EF
:1061B00000000000000000000000000000000000DF
:1061C00000000000000000000000000000000000CF
:1061D00000000000000000000000000000000000BF
:1061E00000000000000000000000000000000000AF
:1061F000000000000000000000000000000000009F
:10620000344935480A1A02D0072291438D46334952
:1062100033480A1A06D00722914381F309880222E3
:1062200082F314882F483049304A00F042F8304851
:106230003049314A00F03DF830483149314A00F0E8
:1062400038F831483149324A00F033F831483249A0
:10625000324A00F02EF832483249334A00F029F829
:1062600032483349334A00F024F833483349002296
:1062700000F02AF832483349002200F025F832486D
:106280003249091A082902DB0022026041601F48D6
:106290001F49884205D00268043003B4904703BC0C
:1062A000F7E700208646EC4600200021284A904768
:1062B000FEE7884207D0521A05D0037801300B70F0
:1062C0000131013AF9D17047884202D002700130A1
:1062D000FAE7704700F0002000E8002000F00020FE
:1062E00000F00020B8B10400F02D00206031002043
:1062F000A0630200A063020020890400B8B104007A
:10630000F02D0020F02D0020108E0400108E0400CF
:10631000108E0400108E0400108E0400108E0400F5
:10632000108E0400108E0400B8B1040028B50400DB
:10633000603100206031002060310020486600207C
:10634000486600204866002048660020486A002011
:10635000156B0200FEE7FEE7FEE7FEE7FEE7FEE75D
:10636000FEE7FEE7FEE7FEE700F002B8FFF7FCBF3E
:1063700008484FF00701884385460748804707488B
:10638000016841F470010160BFF34F8FBFF36F8F5D
:10639000FFF736BF00F0002091F3030088ED00E026
:1063A00041DF7047014B1B880B8070478431002010
:1063B0000D4B1B6813F4804F03D00C4B1B68032B51
:1063C00000DC704700B585B0094BD3F80435029264
:1063D0000191084A0092AE220749042008F096FC79
:1063E00005B05DF804FB00BFF8300020F430002059
:1063F000001001404C8E0400458E04000D4B1B68BC
:1064000013F4804F03D00C4B1B68032B00DC704748
:1064100000B585B0094BD3F8043502920191084AC2
:106420000092A5220749042008F070FC05B05DF831
:1064300004FB00BFF8300020F430002000100140C1
:10644000748E0400458E040000B58DB01FF024F951
:106450002422002103A822F0FCF901238DF80C303E
:1064600007238DF80F3006238DF81430224B079345
:10647000224B0B93224903A80CF0ACFC034618B343
:10648000002B32D00B2B2FD11FF04AF91D4B1B686C
:1064900013F4804F03D01C4B1B68032B18DC194BE3
:1064A0001B6813F4804F20D0174B1B68032B1CDD97
:1064B000164BD3F80435164A00924FF4B8721549BA
:1064C000042008F023FC10E01FF006F90346D7E78C
:1064D0000E4BD3F80435104A00924FF4B7720D49B1
:1064E000042008F013FCDAE713B90DB05DF804FBE3
:1064F000184619F06DF8F8E7ED6602009D65020098
:1065000060310020F8300020F430002000100140FD
:10651000F08E0400458E0400A08E040000B583B008
:10652000174A04214FF4C04008F0D4FB154B1B68F8
:1065300013F4804F03D0144B1B68032B10DC13485B
:1065400002F0D0F921F03AFFB0B902F017FB02F0E7
:1065500053FB02F081FBFFF777FF03B05DF804FB0C
:106560000B4BD3F804350B4A00924FF4BE720A4924
:10657000042008F0CBFBE2E719F02AF8E5E700BFBA
:10658000A9EC0200F8300020F4300020A02F0020F9
:10659000001001402C8F0400458E040000B585B02A
:1065A00000212E4801F07AF918BB2D4B1B6813F41B
:1065B000804F03D02B4B1B68032B1DDC00212A4886
:1065C00001F054FD48BB2949274801F07DFD48BB37
:1065D0002549224801F05CFA48BB214B1B6813F4A3
:1065E000804F03D01F4B1B68032B25DC05B05DF8E3
:1065F00004FB18F0EDFFD8E71D4BD3F80435174A1C
:10660000118892F8BC20029201911A4A0092B72296
:106610001949042008F07AFBD0E7184ABD2118F088
:10662000E5FFD0E7154ABE2118F0E0FFD0E7134A96
:10663000BF2118F0DBFFD0E70D4BD3F804350A4A31
:10664000118892F83420029201910D4A0092C122E1
:106650000949042008F05AFBC8E700BF002E0020BB
:10666000F8300020F4300020C02F0020982F0020A8
:1066700000100140648F0400458E0400108E040059
:10668000A08F040008B5034B1980034802F06CF991
:1066900008BD00BF84310020A02F002000B583B0CA
:1066A0000D4B1B6813F4804F03D00C4B1B68032B5E
:1066B00006DC1FF035F80CF0EDFB03B05DF804FBD1
:1066C000074BD3F80435074A0092DE22064904201E
:1066D00008F01CFBEDE700BFF8300020F43000208C
:1066E00000100140D08F0400458E040008B50378E7
:1066F000232B00D008BDFFF7D1FFFBE730B5C7B0B3
:1067000003781D2B04D00446142B09D047B030BDAC
:106710002C4801F015F90028F8D018F059FFF5E7DA
:10672000294B1B6813F4804F03D0284B1B68042BA4
:106730000FDC254B1B6813F4804FE7D0234B1B68FD
:10674000042BE3DD2369802B28BF80239E46002392
:1067500021E01F4BD3F80435C288018900790390EA
:10676000029101921B4A0092D5221B49052008F094
:10677000CDFADEE7E268D25C18490D6810095900CD
:1067800015F800C005A800F813C002F00F0201318F
:10679000AA5C425401337345ECD305AA002302F8E6
:1067A0001E3003F1804303F58833D3F80435029299
:1067B0000B4A01920B4A0092D7220749052008F0A4
:1067C000A5FAA3E7002E0020F8300020F4300020C6
:1067D00000100140EC8F0400458E0400FC300020C6
:1067E0001C9004002890040030B583B00446451C7A
:1067F000504B1B6813F4804F03D04F4B1B68032B87
:106800001ADC022D32D0042D3BD0012D20D0494B73
:106810001B6813F4804F25D0474B1B68032B21DDE9
:10682000464BD3F80435464A009240F221124549BE
:10683000042008F06BFA15E0404BD3F804350195BD
:10684000414A0092FA223F49042008F05FFAD8E753
:106850003E4A1388B3F5804F38BF4FF48043A3F509
:1068600080431380012C2BD903B030BD374A1388E5
:106870004BF6FF718B4228BF0B4603F58043138014
:10688000F0E70CF0A3FAA0B92A4B1B6813F4804F71
:10689000E8D0294B1B68032BE4DD284BD3F80435E3
:1068A0002B4A009240F21B122649042008F02EFACF
:1068B000D8E70EF081F80CF07DFAFFF7EFFED1E794
:1068C000224B1988234802F04FF8234801F09AF828
:1068D0000446184B1B6813F4804F03D0164B1B68FB
:1068E000032B17DC002CBFD0124B1B6813F4804F16
:1068F000BAD0114B1B68012BB6DD104BD3F8043511
:106900000194164A00924FF496720E49022008F044
:10691000FDF9A9E7094BD3F804350C4A1288019216
:106920000F4A009240F229120649042008F0EEF9BD
:10693000D8E700BFF8300020F430002000100140FC
:1069400028910400458E040030900400843100201A
:1069500044900400A02F0020002E00207C90040012
:10696000908E040000B583B03138032814D90D4B44
:106970001B6813F4804F11D00B4B1B68032B0DDDEC
:106980000A4BD3F804350A4A00924FF49D72094924
:10699000042008F0BBF901E0FFF726FF03B05DF823
:1069A00004FB00BFF8300020F4300020001001404C
:1069B00028910400458E040000B585B003A812F0AC
:1069C000A7FB0D4B1B6813F4804F03D00B4B1B68C8
:1069D000032B02DC05B05DF804FB094BD3F804354A
:1069E000BDF80C200192074A00924FF4A1720649AB
:1069F000042008F08BF9EDE7F8300020F430002097
:106A000000100140AC900400458E040000B58BB02E
:106A10006421204801F09CFE1F4B1B789BB9039317
:106A20000493059306930793089309931B4B0493D0
:106A30001B4B08931B4B099303A801F01FFE20B1C9
:106A400018F0C6FD01E0FFF7B7FF02F02BFA01F0E6
:106A5000B3FE154805F054FE0CF00EFA58B9134B6E
:106A60001B6813F4804F03D0114B1B68032B05DC0C
:106A70000BB05DF804FB18F0ABFDF0E70D4BD3F85D
:106A800004350D4A00924FF4D4720C49042008F0EA
:106A90003DF9EDE76569020060310020C16A02003E
:106AA000C490040054920400F02D0020F83000201F
:106AB000F43000200010014028910400458E0400AD
:106AC00000B583B00E4B1B6813F4804F03D00D4B01
:106AD0001B68032B08DC02F08FF802F0BDF8FFF70B
:106AE0006BFF03B05DF804FB074BD3F80435074A8E
:106AF000009240F247120649042008F007F9EAE73D
:106B0000F8300020F430002000100140F490040020
:106B1000458E040008B5FFF701FDFFF777FFFFF78B
:106B20003FFCFCE708B5D0F8C83013B1B0F8E81066
:106B3000984708BD08B5A03801F002FC08BD000068
:106B400010B582B0134B1C6807E0002204F8042C37
:106B5000A4F19C0001F0F4FB2468C4B114F8043CD7
:106B6000002BF9D00C4B1B6813F4804FEDD00B4B6E
:106B70001B68032BE9DD0A4BD3F80435094A009260
:106B80004FF438720849042008F0C0F8DDE701200E
:106B900002B010BDE0310020F8300020F4300020B9
:106BA00000100140A09204008992040030B587B023
:106BB0000446A0F1F805037F012B03D033B1022B6B
:106BC00008D103E010F8062C002AF7D034F80A3C6C
:106BD00024F80C3C34F8083C24F80E3C002344F81C
:106BE000043C144B1B6813F4804F03D0124B1B68FA
:106BF000032B09DC54F8283C23B134F80E2C216A0D
:106C00002846984707B030BD0C4BD3F8043514F82C
:106C10003C2C34F80C1C206A0490606A03900291AA
:106C20000192074A009240F215320649042008F00A
:106C30006DF8DFE7F8300020F4300020001001404C
:106C4000B0920400899204000F4B1B6813F4804F2C
:106C500003D00E4B1B68032B00DC704700B585B0DA
:106C60000B4BD3F8043510F83C2C30F8101C029173
:106C70000192084A00924FF43F720749042008F03D
:106C800045F805B05DF804FBF8300020F430002032
:106C900000100140F49204008992040038B50D46BA
:106CA000C4B20231204620F0B9FF50B9291D204658
:106CB00020F0DCFF50B92946204620F087FF50B96C
:106CC00038BD074A9B2118F091FCEFE7044A9C214C
:106CD00018F08CFCEFE7024A9D2118F087FCEFE7E3
:106CE0006492040010B582B00C466946FFF7D6FFE7
:106CF000BDF80400A04207D3BDF80200A04202D9AB
:106D000014B9204600E0204602B010BD10B582B094
:106D10000446694690F8C400FFF7C0FFB4F8E830B5
:106D2000BDF80210BDF804202BB18B4238BF0B46D2
:106D3000934228BF1346A4F8E8302046FFF7F2FE3E
:106D400002B010BD08B580F81431C0F80C112D2325
:106D5000C0F810313AB113465268C0F828211B68B8
:106D6000C0F8083108BD0023C0F8283100F584714F
:106D700090F8C40020F0C8FF0028F3D0024A40F287
:106D8000BB3118F033FCEDE7649204002DE9F041CB
:106D900088B004460D4617469846A0F5CC76D6F83E
:106DA000CC300DF11E013046984707AA294696F8C7
:106DB000C40020F0D5FF002840D1A4F5CC75BDF863
:106DC0001C1014F8D40CFFF78DFF0146A5F8F00055
:106DD000B5F8E830A5F8EE3095F8C40020F058FF7B
:106DE00090BB34F8A81CA9BBCDF81480069714F802
:106DF000D33C2BB1BDF81E20BDF81C309A421AD0EE
:106E0000A4F1A007384601F09BFA34F8A80CBDF8AD
:106E10001E10002305AA411A3046FFF793FF1D4BB1
:106E20001B6813F4804F03D01B4B1B68032B1EDC25
:106E3000384601F077FA08B0BDE8F081174A40F211
:106E4000E73118F0D3FBB8E7144A4FF47C7118F01F
:106E5000CDFBC6E7002214F8D40C20F023FE002856
:106E6000C2D00E4A40F2F53118F0C0FBBCE70C4B23
:106E7000D3F8043534F8A82C0599039106990291AA
:106E80000192084A009240F206420749042007F0A6
:106E90003DFFCDE7F8300020F4300020649204007C
:106EA00000100140289304008992040030B585B099
:106EB00004460D4630F8B02C10F8D40C20F036FF04
:106EC00050B9124B1B6813F4804F03D0104B1B6852
:106ED000042B07DC05B030BD0E4A40F2CE3118F06D
:106EE00085FBEEE70C4BD3F8043514F8D42C34F8BA
:106EF000B01C039102950192084A009240F2D332ED
:106F00000749052007F002FFE4E700BFF830002042
:106F1000F4300020649204000010014060930400EB
:106F20008992040038B51446054638B132B121467D
:106F300095F8200020F0E8FE20B938BD784601F031
:106F400071FFF4E7024A40F2ED1118F04FFBF4E74D
:106F50006492040030B583B0054614467AB16946A0
:106F600095F8C400FFF79AFEBDF802306380BDF8C3
:106F70000430A3809DF80030237003B030BD784604
:106F800001F050FFEBE7000070B582B014461D46DB
:106F9000064688B182B1216896F8200020F0A0FE54
:106FA00070B92368019301A930461EF0FFFD0DB1B1
:106FB00023682B6002B070BD784601F033FFEAE72A
:106FC000024A40F2052118F011FBEAE7649204003E
:106FD00010B582B00446B0F8E830ADF80030B0F833
:106FE000EA30ADF802300191D0F8D4301BB16946D7
:106FF000D0F8D80098476946201D20F0E9F902B082
:1070000010BD000030B585B00446A0F1F80530F899
:10701000083C20F80E3C90F82C20022A01D020F8E1
:10702000103C2846FFF772FE224B1B6813F4804F7A
:1070300003D0214B1B68032B17DC54F8283C23B1E9
:1070400034F80E2C216A2846984734F8101CF1B900
:1070500034F8101C14F8340C20F01AFE20BB002168
:107060002846FFF7B5FF05B030BD144BD3F8043503
:1070700014F83C2C34F8101C02910192104A009232
:107080004FF464720F49042007F040FED5E7012257
:1070900014F8340C20F006FD0028D9D00A4A40F23A
:1070A0009F3118F0A3FAD3E7074A40F2A33118F052
:1070B0009DFAD4E7F8300020F430002000100140A1
:1070C000A4930400899204006492040030B587B050
:1070D0001446054600B3FAB1D5F8CC300DF11601CF
:1070E00028469847BDF81630238095F82431022BA6
:1070F00016D0B5F8EA30638005F1F80001F02EF9FA
:1071000060601D4B1B6813F4804F03D01B4B1B6842
:10711000042B1FDC07B030BD784601F083FEDBE7AF
:1071200004A995F8C400FFF7B9FDB5F8EA20BDF849
:1071300014309A420BD000236380D5F8183123B164
:10714000D5F81C310BB14FF0FF336360D9E74FF630
:10715000FF73F1E70A4BD3F8043522886188606831
:10716000039002910192074A0092D322064905201A
:1071700007F0CCFDCEE700BFF8300020F43000204F
:1071800000100140D8930400899204002DE9F041D9
:1071900082B00446A0F1F80801F003F90546204644
:1071A00001F0DCF8074694F82C30022B35D034F887
:1071B0000E3C34F80C6C9B1B4FEAE37CA3FB0501EF
:1071C000226AD31705FB0C1121F01BFA064469460D
:1071D00014F8340CFFF762FD76B3BDF80430BDF847
:1071E00002008642B8BF06469E42A8BF1E46B6B2FF
:1071F00024F8106C4046FFF795FC94F82C30022BD5
:107200001CD0B7F5FA7F05D954F8043CEB1AB3F556
:107210007A7F33D802B0BDE8F08134F80C6C606A34
:107220004FEAE07CA5FB0001226A002305FB0C115C
:1072300021F0E7F90644CAE70026D9E734F8102C14
:10724000636A002B03DDBDF804108A4212D0002BC4
:107250000ADB0023002BD4D0012384F898300B4B99
:10726000186806F07DFBCCE7BDF802309A4203D0E7
:107270000023EFE70123EDE70123EBE744F8045C8B
:1072800039464046FFF7A4FEC4E700BFDC310020CA
:10729000F8B138B50D4604460F4BC0F8C0300F4B5F
:1072A0000F4A1A600F4A5A60C0F8B8300E4B0F4AA6
:1072B0001A600F4A5A60C0F8AC30C43020F068FD44
:1072C00000B138BD84F8C5002946204620F0ACF84E
:1072D000F7E70E20704700BFDC940400D431002093
:1072E00025730200F5720200CC310020896F020084
:1072F000256F020038B51446054638B132B1214633
:1073000095F8600020F0BCFB20B938BD784601F04C
:1073100089FDF4E7024A40F2D51118F067F9F4E765
:107320006492040070B514461D46064650B14AB139
:10733000217896F8600020F08DFB38B90DB12378E4
:107340002B7070BD784601F06DFDF1E7024A40F206
:10735000C11118F04BF9F1E764920400F0B587B061
:1073600015461F460C9E044638B332B3D4F8DC30C1
:107370002BB1B5F9001089B2D4F8E0009847022388
:107380003A46B5F900102046FFF7DCFCD4F8CC30C3
:1073900004F1E8012046984704A994F8C400FFF7D7
:1073A0007DFCB5F90030002B0BDDD4F8082142B18B
:1073B000BDF81430A4F8F03009E0784601F032FD51
:1073C000D4E7002B2EDBB4F8E830A4F8F030284BDB
:1073D0001B6813F4804F03D0264B1B68032B2ADC59
:1073E00004F1F80000F09EFFB5F900301BB1D4F8AD
:1073F0000831002B34D19EB1B4F8E8303380B4F8B2
:10740000EA20BDF814309A422FD000237380D4F8BC
:10741000083123B1B5F900300BB14FF0FF33736081
:1074200007B0F0BDD4F80831002BCCD0BDF8123035
:10743000A4F8F030CBE7104BD3F80435B5F90020B1
:10744000D4F808110391D4F82811029101920B4A43
:1074500000924FF4CB720A49042007F057FCBFE7B3
:10746000D4F89C0100F044FEC5E74FF6FF73CDE76A
:10747000F8300020F4300020001001400094040097
:1074800089920400F0B589B015461F460E9E044649
:10749000002853D0002A51D0D4F8DC301BB1298801
:1074A000D4F8E0009847D4F8CC300DF11E01204606
:1074B0009847298894F8C400FFF714FC0146A4F803
:1074C000F000B4F8E830A4F8EE3094F8C40020F0EE
:1074D000DFFB002836D1B4F8F010002937D194F83A
:1074E000C53023B12A88BDF81E309A4251D0B4F875
:1074F000F000BDF81E1000233A46411A2046FFF75F
:1075000021FCD4F80851244B1B6813F4804F03D09E
:10751000224B1B68032B26DC04F1F80000F002FF6D
:10752000D4F89C0100F0E4FD36B1B4F8E8303380C3
:10753000B4F8F0307380756009B0F0BD784601F0A2
:1075400071FCA9E7164AF22118F050F8C3E70022AF
:1075500094F8C40020F0A6FA0028C0D0104AF52103
:1075600018F044F8BBE70F4BD3F80435B4F8F0201B
:10757000D4F80C1104910395D4F8281102910192CA
:10758000094A009240F201120849042007F0BEFBAC
:10759000C2E70025C8E700BFF8300020F430002023
:1075A00064920400001001403494040089920400A5
:1075B000F0B589B015461F460E9E044600284BD0F4
:1075C000002A49D0D4F8DC301BB12988D4F8E00077
:1075D000984704F108001EF057F984F8F200444B74
:1075E0001B6813F4804F13D0424B1B68032B0FDD35
:1075F000414BD3F804352A7990B340490291019266
:107600003F4A009240F233123E49042007F07EFBCD
:10761000D4F8CC3004F1E8012046984706A994F844
:10762000C400FFF73BFB94F8F2301BB1B4F8E8203C
:10763000A4F8EE20B3B1B4F8E8102B68194400297F
:1076400015DDBDF81C308B4212DBBDF81A309942B3
:10765000B8BF19468BB20BE0784601F0E3FBB1E707
:107660002949CBE7B4F8EE102B681944E7E700236B
:10767000A4F8F03001233A4629682046FFF762FB60
:107680001B4B1B6813F4804F03D01A4B1B68032B52
:1076900011DC04F1F80000F045FE2B6813BB46B185
:1076A000B4F8E8303380B4F8F0307380D4F808319F
:1076B000736009B0F0BD104BD3F80435B4F8F02076
:1076C0000492D4F808210392D4F8282102922A685F
:1076D00001920E4A00924FF4A8720A49042007F062
:1076E00015FBD6E7D4F89C0100F002FDD7E700BFF8
:1076F000F8300020F4300020001001409494040081
:107700009C9404008992040074940400A8940400DA
:1077100038B50C46054620B12146281D1FF076FEDF
:1077200038BD784601F07EFBF6E7000070B582B008
:1077300005461C461646C2B1694695F8C400FFF7D7
:10774000ADFA00238DF80030318891B901238DF80E
:10775000003044B1BDF802306380BDF80430A3802E
:107760009DF80030237002B070BD784601F05AFBDE
:10777000E2E7ADF802107388ADF8043095F8C40064
:1077800020F036FA90B9BDF8041095F8C40020F046
:1077900057FA88B99DF8001095F8C40020F000FA57
:1077A00080B969462846FFF7B3FFD2E7084A40F29E
:1077B0007F2117F01BFFE6E7054A4FF4207117F011
:1077C00015FFE7E7024A40F2812117F00FFFE8E7D3
:1077D0006492040030B583B00C460023ADF8043049
:1077E000054638B1ADF8044001A9281D1FF001FE7F
:1077F00003B030BD784601F015FBF3E770B50446E1
:107800001D4616466AB1318894F8C40020F0A0F9EC
:1078100058B931882046FFF7DDFF0DB133882B8042
:1078200070BD784601F0FEFAEDE7034A40F23E21D2
:1078300017F0DCFEEDE700BF6492040038B50446A3
:10784000154632B1294694F8C40020F097F920B9C2
:1078500038BD784601F0E6FAF4E7034A40F2252104
:1078600017F0C4FEF4E700BF6492040038B5044684
:10787000154632B1294694F8C40020F03FF920B9EA
:1078800038BD784601F0CEFAF4E7034A40F21A21F7
:1078900017F0ACFEF4E700BF6492040038B500288E
:1078A0003AD00446D0F8CC30002B37D0D0F8C830CE
:1078B00033B12046FFF7ECFC054638B1284638BD09
:1078C000D0F8D030002BF4D10E25F7E7144BC4F8D4
:1078D0009831144BC4F8F830134BC4F8FC30134BF8
:1078E000C4F80031124BC4F8043104F1F800C4F8B4
:1078F0008001002384F8903100F076FD05460028D1
:10790000DCD104F5CA710B4807F03FF90A4806F0CC
:1079100007F80A4B1860D1E70E25CFE70E25CDE713
:1079200000950400496C0200AD6B02008D710200ED
:1079300005700200E0310020416B0200DC310020C4
:1079400000285AD030B585B0054690F8C44002A949
:10795000204620F03BF930BB0DF10A01204620F013
:107960005DF930BB03A9204620F080F938BB694699
:10797000204620F085F840BB0DF10201204620F0A2
:107980009DF940BB01A9204620F0B8F848BB0DF195
:107990000601204620F0F2F848BB694628461FF051
:1079A0000FFE05B030BD164A4FF48B6117F01EFE76
:1079B000D2E7134A40F2594117F018FED2E7104AB5
:1079C00040F25A4117F012FED1E70D4A40F25B41F6
:1079D00017F00CFED0E70A4A40F25C4117F006FEB1
:1079E000D0E7074A40F25D4117F000FECFE7044AB6
:1079F00040F25E4117F0FAFDCFE70E20704700BF5E
:107A00006492040000283FD038B50446F83000F0F6
:107A100097FCB4F8E850D4F8CC3004F1E8012046E3
:107A20009847B4F8E810B9B9B4F8E81094F8C4006D
:107A300020F02EF9E8B9D4F8DC3023B1B4F8E8101E
:107A4000D4F8E0009847B4F8E830AB4217D10021F1
:107A50002046FFF7BDFA38BD012294F8C40020F09B
:107A600021F80028E0D0094A40F2744117F0BEFD29
:107A7000DAE7064A4FF48F6117F0B8FDDBE7D4F878
:107A80009C0100F035FBE2E70E2070476492040091
:107A900020B129B1C0F89C11002070470E2070471A
:107AA0000E2070475038704710B586B0FFF7FAFFC8
:107AB0000446154B1B6813F4804F03D0134B1B680F
:107AC000042B0BDC0023A4F84830236C23B1B4F85A
:107AD0004A20216F2046984706B010BD0C4BD3F8C2
:107AE000043590F83420B0F84A10006F0490606FAD
:107AF000039002910192074A00924FF4C672064920
:107B0000052007F003F9DDE7F8300020F43000200D
:107B100000100140409504003195040000B583B089
:107B2000FFF7C0FF0D4B1B6813F4804F03D00C4BC5
:107B30001B68042B02DC03B05DF804FB094BD3F88F
:107B4000043590F834200192074A009240F28312E3
:107B50000649052007F0DAF8EDE700BFF83000200D
:107B6000F430002000100140849504003195040099
:107B700000B585B08DF80410B0F84830ADF8063087
:107B8000B0F84A30ADF80830039201A904301EF075
:107B900001FD05B05DF804FB10B584B0FFF782FF6E
:107BA0000446B0F84A20A0F848200023A0F84A3044
:107BB000134B1B6813F4804F03D0124B1B68042B2C
:107BC0000DDC236C23B1B4F84A20216F204698477E
:107BD000226F00212046FFF7CBFF04B010BD0A4BF7
:107BE000D3F8043590F8341002920191074A0092BC
:107BF0004FF4D2720649052007F088F8E1E700BF8C
:107C0000F8300020F430002000100140A09504005E
:107C10003195040070B138B50C4605463C301EF075
:107C20005FFE00B138BD044BAB63214628461EF011
:107C3000BFFCF7E70E2070470C97040038B50446E8
:107C400080F86C20012343662D2383660D4629B1FD
:107C50006B68C4F880302B68236638BD784601F025
:107C6000E1F8F5E72DE9F0418AB015461F46109E70
:107C70000446E0B1DAB1B4F8482029888A421AD122
:107C8000002246B13270B4F848307380B4F84A30FC
:107C9000B380236EB360424B1B6813F4804F03D054
:107CA000404B1B68032B67DC0AB0BDE8F0817846C7
:107CB00001F0B8F8DFE70DF11B0294F83C001EF06C
:107CC000D3FD8046002855D1002308930993D7B1EE
:107CD000002239462046FFF7B1FF2B88A4F84A302E
:107CE000D4F8EC30434520D82D4B1B6813F4804F5B
:107CF00003D02C4B1B68042B26DC04F1500000F051
:107D000011FB0022BDE7236B9B685B684BB1206BC6
:107D100083685B6807AA00219847079B089308AF10
:107D2000D6E7784601F07EF8F1E708F13A0354F817
:107D3000230003685F68236ED4F880209DF81B1031
:107D4000B84708F10108CBE7174BD3F804352A8868
:107D5000216E0491D4F8801003919DF81B100291BC
:107D60000192124A009240F22B121149052006F0AE
:107D7000CDFFC2E7022284E70B4BD3F80435B4F8F9
:107D80004810B4F84A00039002910192094A009207
:107D90004FF49F720649042006F0B8FF84E700BF45
:107DA000F8300020F430002000100140D895040085
:107DB000319504001096040070B506460D46002467
:107DC00001E0023501340F2C0CD82A46E1B296F8B6
:107DD0003C001EF051FD0028F3D0034A622117F049
:107DE00005FCEEE770BD00BF0C95040030B583B014
:107DF00014460546A0B19AB100232370B5F8483067
:107E00006380211D2846FFF7D7FF0E4B1B6813F434
:107E1000804F03D00C4B1B68032B05DC03B030BD37
:107E2000784600F0FFFFE7E7084BD3F80435628897
:107E30000192074A0092F8220649042006F066FFE4
:107E4000ECE700BFF8300020F430002000100140C3
:107E5000449604003195040030B587B014460546B9
:107E6000E0B1DAB100232370B5F848306380B5F88B
:107E70004A30A38095F87C30022B13D12B6F0BB1C5
:107E80004FF0FF33A360144B1B6813F4804F03D0F3
:107E9000124B1B68032B0BDC07B030BD784600F09B
:107EA000C1FFDFE705F1500000F058FAA060EAE7F3
:107EB0000B4BD3F804356288A188686F0490A068E2
:107EC000039002910192074A0092E222064904209F
:107ED00006F01CFFE0E700BFF8300020F43000207F
:107EE000001001406896040031950400F0B587B099
:107EF00016461D460446E0B1DAB10DF1170231888D
:107F000094F83C001EF0D2FC074620BBB4F8482091
:107F100033889A4203D0B4F84A20934217D104F12F
:107F2000500000F00DFA0023A4F84A30A4F84830BD
:107F30000DE0784600F076FFDFE707F13A0354F8EA
:107F4000230003689B689DF8171098470137D4F801
:107F5000EC30BB42F1D845B100232B70B4F8483067
:107F60006B80291D2046FFF727FF0E4B1B6813F47B
:107F7000804F03D00C4B1B68032B01DC07B0F0BD16
:107F80000A4BD3F80435B4F84A20B4F848100291EB
:107F90000192074A0092C3220649042006F0B6FE69
:107FA000ECE700BFF8300020F43000200010014062
:107FB000B096040031950400F0B587B015461C4614
:107FC000074628B322B30DF11702298897F83C0021
:107FD0001EF026FC064650BB2B88A7F84830D7F881
:107FE000EC30B34218D800253CB12570B7F84830C2
:107FF0006380211D3846FFF7DFFE174B1B6813F423
:10800000804F03D0154B1B68032B12DC07B0F0BD6B
:10801000784600F007FFD6E706F13A0357F8230049
:1080200003681B689DF8171098470136D7E70125AC
:10803000DAE70B4BD3F80435B7F84A20B7F8481005
:10804000039102920195074A009298220649042062
:1080500006F05CFEDAE700BFF8300020F4300020C4
:1080600000100140D89604003195040000B310B50B
:108070000446036CFBB1FFF7CDFD034608B118467B
:1080800010BD0023A4F848300C4A22650C4A6265F2
:10809000A3650C4BE36504F15000C4F8D80000F070
:1080A000A3F903460028EAD10022C4F8EC20E6E751
:1080B0000E23184670470E23E1E700BF1D7B020028
:1080C000A97A0200997B0200034658B161B1D0F849
:1080D000EC0058B900F13A0243F82210421CC3F8F0
:1080E000EC2070470E2070470E2070470420704728
:1080F0000023A0F84830704708B5034B53F82030F0
:108100000846984708BD00BF2097040008B5034BF8
:1081100053F820300846984708BD00BF3897040040
:1081200008B5836803B1984708BD006B003818BFD5
:10813000012070470369013B13F1030F03D8436922
:108140001BB900207047002070470120704708B518
:10815000024601218C3009F0FAFE08BD08B50A4636
:1081600000230B63022102F18C0009F0F0FE08BD30
:1081700090F82C30022B01D10020704710B5044636
:1081800038301DF0F4FB4FEA411C4CEAD06C420140
:10819000121A6CEB010C4FEA8C0C4CEA927C9300A7
:1081A0001B1841EB0C01C90041EA5371C3F31033B2
:1081B00043EA4143C90B226A934271F1000301D3A0
:1081C000012010BD0020FCE710B504460023036326
:1081D0000362703004F04CFD04F138001DF003FC24
:1081E00010BD10B5044638301DF0FDFB002323629E
:1081F000E3680BB12046984710BD08B5844600F1EE
:10820000200E00F110030FCB8EE80F006046FFF741
:10821000E8FF08BD08B5FFF7E4FF08BD70B50446E8
:1082200000F1380528461DF0DEFB04F1200604F1BC
:1082300010030FCB86E80F00636A83EAE376A6EBB0
:10824000E376002B43D0226AD30E5101891A63F1E1
:1082500000039B0043EA91738900891843F10003EE
:108260004FEAC30C32460023C8004CEA517120F09B
:1082700061F9A66AF20E73019B1B62F10002920083
:1082800042EA93729B009B1942F10002D20042EA3B
:108290005372DB001E469446984271EB020301D3F1
:1082A00006468C46B6F57A7F7CF1000313D2212274
:1082B0000023C4E91023012384F8383028461DF038
:1082C00069FB18B963680BB12046984770BD7846C2
:1082D00000F0A8FDB7E74FEACC3141EA5641F6037A
:1082E00005483018054A4FF0000341F1000120F025
:1082F00021F9C4E91001DEE720A1070040420F0088
:1083000010B5044604F000FD236B4FF47A7101FBB5
:10831000030104F1700004F0C3FC23680BB1204694
:10832000984710BD10B5044630B12246002104F133
:108330008C0009F00CFE10BD784600F073FDF4E7E8
:1083400010B5044630B12246032104F18C0009F037
:10835000FEFD10BD784600F065FDF4E738B5054632
:10836000D8B12C6A05F138001DF001FB4A0142EA40
:10837000D06243011B1A62EB0102920042EA93723F
:108380009B00181841EB0201C90041EA5071C0F38B
:10839000103040EA4140201A38BD784600F042FDD6
:1083A000DFE710B50446D8B104F138001DF0DFFA5C
:1083B00084464A0142EAD06243011B1A62EB010281
:1083C000900040EA93709B0013EB0C0341EB00001C
:1083D000C00040EA5370C3F3103343EA404010BD7D
:1083E000784600F01FFDDFE738B5044690B1C4F8C9
:1083F00080400A4BA367A464094BE36404F138008E
:108400001DF008FB0546074904F18C0009F089FDC1
:10841000284638BD784600F005FDE8E75D8102009A
:108420004F8102007097040069DF704703781F2BAB
:1084300000D07047014B01221A70FAE7E7310020A3
:108440003F4B1B78002B79D000B587B0012804D0B2
:1084500003286CD007B05DF804FB0023019301A949
:10846000012016F095FB00284BD1002303930493C1
:1084700005939DF80C20012363F303028DF80C2073
:10848000D2B263F307128DF80C209DF80D2063F330
:1084900001028DF80D202123ADF81630019A03A9B1
:1084A0004120FFF7C1FF78BB01A816F0CBFB70BBE2
:1084B000244B1B6803B198470123029302A90DF1D5
:1084C000020011F0A9FB28BBBDF8020011F016F85C
:1084D0000DF1010111F0AAF9F8B90BF0B7FF9DF801
:1084E000011000200CF0B2FAD0B904F09BF8D8B912
:1084F000134B00221A70134B5B68002BAAD09847CD
:10850000A8E717F065F8B0E717F062F8CCE717F0C6
:108510005FF8CDE717F05CF8D6E717F059F8DCE71D
:10852000784600F07FFCE0E717F052F8E0E716F03D
:1085300003FC00288ED017F04BF88BE7704700BF84
:10854000E6310020E831002008B5064B01221A7000
:10855000054804F0D5F804F0B7F800B908BD17F0E5
:1085600037F8FBE7E6310020B030002008B503788B
:108570001C2B00D008BD074B1B78002BFAD016F03F
:108580001FFC18B9044804F0BFF8F3E717F020F80F
:10859000F8E700BFE6310020B030002008B5094BF5
:1085A0001B7863B90849094817F0DAFC40B903237E
:1085B000002207494969074817F0EEFC00E008204F
:1085C00008BD00BFE73100200432002070350020D4
:1085D000E83100203C34002008B50378023B082B2A
:1085E0003FD8DFE803F01C05113E3E2C3E3E36002E
:1085F0001E4B9B68002B34D0007A002831D01C4AD7
:108600000121117098472CE0184BDB684BB3184AD6
:10861000127832B3164A00211170984721E0154BA9
:108620001B784BB9114B1B691BB1114A002111700A
:108630009847FFF7B3FF14E0FFF786FF11E0102221
:108640000A4B99690C4817F030FD50B116F0C0FF85
:1086500007E08168C0680AF03DFB18B9054B0122AC
:108660001A7008BD16F0B4FFF8E700BFE83100202B
:10867000E4310020E53100203C34002010B586B004
:108680008446224A03AB07CA03C323F8022B120C09
:108690001A701F4CA646BCE80F00AEE80F009CE81D
:1086A00007008EE80700A369002B2DD0194B00931B
:1086B00003AB194A19491A4817F010FC034610B1C8
:1086C000184606B010BD174819F0C4F90146144801
:1086D00017F030FC03460028F2D1134819F03AFB9A
:1086E00003460028ECD1104819F06CFB01460C48F9
:1086F00017F020FC03460028E2D10C4804F000F8F3
:10870000FFF74CFF0346DBE70723D9E78097040018
:10871000E8310020D98502000432002070350020A5
:108720003C34002024320020EC330020BC300020F8
:1087300008B5064B1B681BB906E0044B1B6898473D
:1087400013F0F4FC0028F8DA08BD00BFB0350020B3
:1087500010B50C46134B1860134A012113481FF043
:1087600067FE98B9610CE00341F27073984271F1B1
:10877000000310D34FF47A7200231FF0DBFE014692
:1087800000220B481FF06AFE38B910BD094A4A2181
:1087900016F02CFFE6E70521F2E7064A4B2116F01A
:1087A00025FFF2E7B035002031870200C0970400B2
:1087B000B43500208C970400002800F082802DE959
:1087C000F04FD1B004463F4B1B6813F4804F03D0E9
:1087D0003D4B1B68032B31DC3A4B1B6813F4804F75
:1087E00003D0394B1B68032B2ADC51B0BDE8F08F56
:1087F000E25C36490D68100959002E5C0FA800F89C
:10880000136002F00F020131AA5C425401330F2BB6
:10881000EED90FAA00238DF85C3003F1804303F5F5
:108820008833D3F804350292294A0192294A0092EA
:1088300042222949042006F069FACDE70023E6E741
:10884000264BD3F804350D932068020202F47F0210
:1088500042EA0062010A01F47F4142EA0108B4F8E9
:1088600004C04FEA0C2292B2B4F806E04FEA0E219F
:1088700089B2257A667AA77AE37A94F80C9094F80C
:108880000DA094F80EB0E47B0B94CDF828B0CDF891
:1088900024A0CDF82090079306970596049541EA09
:1088A0001E21039142EA1C22029248EA10600190C4
:1088B0000B4A00920D9B43220749042006F026FA3A
:1088C00093E77047F8300020F4300020FC3000209F
:1088D000FC97040028900400E99704000010014070
:1088E0001098040010B582B004464389CBB9002229
:1088F0006168206815F012F8B8B9206815F00AF818
:108900006081144B1B6813F4804F03D0124B1B681B
:10891000032B0EDC6389C3B1206815F0D9F802B0CF
:1089200010BD784600F07EFAE1E7784600F07AFA6A
:10893000E3E70A4BD3F804350190094A0092582224
:108940000849042006F0E2F9E4E7784600F06AFA04
:10895000E2E700BFF8300020F430002000100140B2
:10896000849804007598040038B505460C46438980
:1089700073B16A89013A04FB02F2074CA4FB02328C
:10898000D20B013292B2297A286814F085FF38BDE3
:10899000784600F047FAECE70180008072DF70470C
:1089A00073DF704774DF70472DE9F047A2B00746C8
:1089B00088469146324C002525606560A560E560DB
:1089C00030490B78C3EB43102F4E064426602F4AE4
:1089D0000244A2601F22A280A281013303F001039E
:1089E0000B704FF03C0A5246294613A81FF031FF86
:1089F00006238DF84F30ADF8487001238DF84A30CA
:108A0000ADF85C3012AA1892ADF83C70ADF8409009
:108A1000CDF844800DEB0A021D928DF87830524655
:108A2000294668461FF015FF02238DF80030221DED
:108A3000314613A815F09EFF90B9114B03F10C02BB
:108A40009968684615F096FF68B9114A0C491148B3
:108A5000FFF7A4FF082809D070B922B0BDE8F0875D
:108A600016F0B6FDE9E716F0B3FDEEE70022044983
:108A70000848FFF793FFEFE716F0AAFDEDE700BF08
:108A800018360020D4350020D835002028360020A4
:108A9000CC300020C8300020B0F5202F0AD2074B80
:108AA000A3FB0023DB0808B103B90123044A938127
:108AB000916070474FF6FF73F5E700BFCDCCCCCC8B
:108AC000CC30002008B50121054B1878FFF768FF6E
:108AD00018B9002004F004FD08BD16F079FDF8E790
:108AE000C830002008B5044B1878FFF75BFF00B9C9
:108AF00008BD16F06DFDFBE7C830002076DF70473B
:108B00007ADF70477CDF704769DF704708B516F081
:108B10005FFD08BD08B503F0FBFD08BD00B583B0DF
:108B2000037823B1012B0BD003B05DF804FB3B218C
:108B30004088FFF7E3FF0028F6D016F049FDF3E781
:108B4000094B1B6813F4804FEED0084B1B68032BB6
:108B5000EADD074BD3F80435064A0092682206493D
:108B6000042006F0D3F8DFE7F8300020F4300020CE
:108B700000100140D8980400BD98040000B585B0ED
:108B800016F0DAF860BB0023039303A9012015F067
:108B9000FFFF40BB00230093019302939DF8002048
:108BA000012363F303028DF80020D2B263F30712AE
:108BB0008DF800209DF8012063F301028DF801205B
:108BC0002123ADF80A30039A69464120FFF79CFF44
:108BD00060B903A816F036F858B905B05DF804FB83
:108BE00016F0F6FCCFE716F0F3FCD3E716F0F0FC36
:108BF000EFE716F0EDFCF0E700B585B09DF80C301E
:108C0000012262F303038DF80C30DBB262F3071329
:108C10008DF80C3021220F4903A8FFF773FF98B994
:108C20000023019302937823ADF80430C823ADF8F4
:108C300006304FF4C873ADF80A3001A8FFF760FFA3
:108C400028B905B05DF804FB16F0C2FCE8E716F0A1
:108C5000BFFCF6E70499040000B58BB001AA00231D
:108C6000019302937821ADF80410C821ADF80610E5
:108C70004FF4C871ADF80A1003930493059306935B
:108C8000079308930993039240F6CD4304934FF45E
:108C90008033059303238DF81830074B0893074B57
:108CA000099303A816F034FA10B90BB05DF804FB71
:108CB00016F08EFCF9E700BF1D8B02000D8B020041
:108CC0000620704700B587B044F2010398425DD09A
:108CD0001BD8012836D041F20103984271D1474B8D
:108CE0001B6813F4804F36D0454B1B68002B32DDD8
:108CF000444BD3F8043502920191434A0092632217
:108D00004249012006F002F825E044F202039842AD
:108D100057D13A4B1B6813F4804F1CD0384B1B685B
:108D2000002B18DD374BD3F80435106803905268D8
:108D300002920191364A009269223449012005F0DD
:108D4000E5FF08E02D4B1B6813F4804F03D02C4B3C
:108D50001B68002B0DDC4FF0A0434FF4F012C3F85A
:108D60001825C3F80C25EFF3108372B64DF6AD6CE1
:108D70003DE0244BD3F8043502920191254A00923C
:108D800060222249012005F0C1FFE4E71B4B1B686C
:108D900013F4804FDFD01A4B1B68002BDBDD194B1F
:108DA000D3F80435106804905068039002919268DB
:108DB0000192194A009273221449012005F0A6FF7E
:108DC000C9E70E4B1B6813F4804FC4D00C4B1B68D3
:108DD000002BC0DD0B4BD3F8043501910F4A0092F4
:108DE0007B220A49012005F091FFB4E730BF0C4B0C
:108DF0001B78002BFAD107B05DF804FBF830002097
:108E0000F4300020001001407C9904004D990400CA
:108E1000A099040060990400C0990400E49904003A
:108E2000E430002000B583B0014600230093054BD9
:108E300001936A4644F20200FFF744FF03B05DF875
:108E400004FB00BFE099040010B40346044C006822
:108E500059689A68DB680FC45DF8044B704700BF1F
:108E6000683600200E4B4FF0805202F1600103C9BA
:108E700083E8030003F1080CA43292E803008CE8B5
:108E8000030093F9062002F00F0242F040029A71AB
:108E900093F9082002F03F0242F080021A727047F4
:108EA000683600200048704768360020002308E03C
:108EB000074901EBC30000224280426001F83320E1
:108EC00001331F2BF4D9034B00221A60704700BFF7
:108ED000783600207837002000B58646114B1B6895
:108EE0004FF0000C0BE01F230F4A12F83300B0B113
:108EF00002EBC3025288724509D00CF1010CBCF19F
:108F00001F0F0BD85A1E002BEDD01346ECE7064A74
:108F100002EBC30252688A42EFD100E000205DF804
:108F200004FB00BF783700207836002010B40B4ACD
:108F300013680B4C04EBC30CACF80200CCF8041023
:108F4000012104F833100B441360202B02D05DF88C
:108F5000044B7047134600221A60F8E77837002068
:108F6000783600200021072918D830B402E00131FA
:108F7000072910D84FEA011C094C34F80CC084456D
:108F8000F5D104EB0114A568E4689C4208BF954242
:108F9000EDD1012000E0002030BC70470020704778
:108FA0008037002030B4C3698469C1884FEA132C2C
:108FB0001B06C4F30C028A4218D28A1A2244A2F574
:108FC00000529A184CF100010A4C23685D1C256080
:108FD00003F00703B0F814C007481C0100EB0313AB
:108FE00020F804C09A60D96030BC70478A1A2244C5
:108FF000E7E700BF0038002080370020C37D9BB129
:10900000C3780A7802F080020A7003F07F031343EA
:109010000B7002780B7803F07F030B7043EAC213E6
:109020000B7003789BB97047C3780A7802F0BF02CF
:109030000A709B0103F0400313430B70027903F0A5
:10904000C0030B7002F03F0213430B70E1E700B561
:109050008378082B14BF002201224B7803F07F0392
:109060004B7043EAC2134B70B0F806E0DAB202F07C
:1090700080024A70CEF3861C4CEA02024A708B785A
:1090800003F003038B7043EA8E038B7090F808E0C3
:10909000DAB202F0FC028A70CEF3C10C4CEA020292
:1090A0008A70CB7803F01F03CB7043EA4E13CB706A
:1090B000437ACA7802F0E002CA7003F01F03134338
:1090C000CB705DF804FB00000023032B31D810B4F3
:1090D00002E00133032B28D8C3EBC302164C04EB88
:1090E000021292F84820012AF3D1C3EBC30204EB29
:1090F0000212948AC2899442EBD1C3EBC3020E4C94
:1091000004EB0212D2888A42E3D1C3EBC30204EB20
:109110000212B2F8582012B1848AA242D9D1C3EB0C
:10912000C303054800EB031000E000205DF8044B8A
:1091300070470020704700BF2C380020002300E05B
:109140000133032B16D8C3EBC3020B4901EB021208
:1091500092F84820022AF3D1C3EBC30201EB0212BA
:10916000918A828A9142EBD1C3EBC303024800EBA0
:1091700003107047002070472C38002008B90420E5
:1091800070470820704700B503468C460978C170C7
:1091900000214162DCF808100B2904D89CF80C105F
:1091A00029B3012100E0012119700020987031B12C
:1091B000DCF808100731C908013959721872012109
:1091C000D97503F10C0E0CF1100103C98EE80300F0
:1091D000BCF80E109982DCF8181019629CF81C106B
:1091E0009975DCF82010D9629A625DF804FB0021C1
:1091F000DAE7000000210E4B1B688B4216D90023D2
:1092000000E001330B4A02EBC10252689A420BD9CB
:10921000084A52F8312002EBC30C12F83320824284
:10922000EFD1DCF8040070470131E4E7002070471B
:10923000043800200838002070B58CB006460D4672
:1092400014462C22002101A81FF003FB0F238DF8E8
:109250000430ADF808609DF80A3065F300038DF81E
:109260000A308DF80B4001A801F014FA0CB070BD63
:1092700030B58DB005460C462C22002101A81FF008
:10928000E8FA10238DF8043002958DF80C4001A8FF
:1092900001F000FA0DB030BD00B58DB010B913F17A
:1092A000020F06D1074B186804F05AFB0DB05DF8A9
:1092B00004FB01218DF804100293039201A801F030
:1092C000E9F9EFE71038002070B5049C002962D05E
:1092D0001D468E46D2F800C051689668D368C4F81F
:1092E0000CC021616661A361D2F810C05169C4F855
:1092F0001CC02162002363700278D20922705AB325
:109300000423734549D8E17D41B3037803F07F031B
:10931000E3700023A3709AB143789B0103F4FE53DA
:10932000827843EA9203E3808378DB0003F018033A
:10933000C27843EA52132372C37803F01F036372A7
:10934000002363622B78032B21D82A78144B53F81F
:109350002230E362002070BD0123D2E70178C1F31F
:109360008011E170017801F03F01217142B190F963
:109370000130002B02DB0423A370CCE70823FBE7BA
:109380000421A1700B447345C5D90920E3E7784651
:10939000FFF748FDD9E70920DDE70920DBE700BF3B
:1093A000749B040070B50C461D4603789BB10426DF
:1093B0003244A26000F10C032360836A6360C36AD5
:1093C000E36000232374204604F04AFE10B9636969
:1093D0001E442E6070BD0126EAE72DE9F0418EB0F3
:1093E0000D4616461C46804600282DD0002D2FD055
:1093F000002C31D0636A0233059304F10C00E3784A
:10940000002B2DD00121A27801AF3B46082A14BFC2
:109410000022012204F0F1FB0697CDF81C80B2B2C5
:10942000ADF820200B9515440C95A3788DF83430B9
:10943000237B022B16D00023ADF8283005A804F0BA
:10944000D4FB0EB0BDE8F0817846FFF7EBFCCDE72A
:109450007846FFF7E7FCCBE77846FFF7E3FCC9E780
:109460000221D0E723692BB1236909931023ADF8BA
:109470002830E3E77846FFF7D5FCF5E72DE9F04122
:1094800088B004460D46C37D002B3CD0082605FB62
:1094900006F8637AAB4238D0257201AB324602A996
:1094A0002046FFF77FFF074648BB4DB994F853307D
:1094B00033B9A369C3F30C03E380012384F8533069
:1094C000E37D7BB994F8523063B91DBBE06EB4F80C
:1094D0004A10A27823468A1A0146FFF77EFF01232D
:1094E00084F8523007992046FFF788FDE16E324636
:1094F000414401981FF084F902A804F0D7FD3846D2
:1095000008B0BDE8F0810C26C1E7B4F84A60A6EBCC
:109510000806C1E77846FFF785FCD7E770B5054632
:109520000E4609B100230B6095F85040002104E07D
:10953000631C85F850300134E4B26B7AA34210D337
:10954000EA6C0123A3401A42F5D121462846FFF7D1
:1095500095FF014628B9002EEAD033680133336005
:10956000E6E7084670BDF0B589B004460E461546DC
:1095700083789A18C37D63B10B239A4221D801AB3B
:1095800002A92046FFF70EFF074620B1384609B072
:10959000F0BD0F23F1E707992046FFF72FFDE37D8C
:1095A00043B12A46314601981FF02AF902A804F077
:1095B0007DFDEBE723462A4601993046FFF70DFF74
:1095C000F4E70927E2E7000010B5044690F84830B8
:1095D000012B0CD103F098FB237B012B0BD0094B03
:1095E000D968014404F1300003F05AFB10BD7846FD
:1095F000FFF718FCEEE7A27D024BD9681B6903FB5D
:109600000211EEE71438002030B583B0002403E0E7
:109610002846FFF7D9FF0134032C18D8C4EBC40344
:109620000C4A02EB031393F84830012BF3D10023CB
:109630000193C4EBC40502EB051501A92846FFF709
:109640006DFF0428E4D0019B002BE4D0E0E703B0D9
:1096500030BD00BF2C38002038B5044690F84830A3
:10966000022B09D1064B1D6803F04EFB411904F192
:10967000300003F015FB38BD7846FFF7D3FBF1E768
:109680001438002038B5044690F84830022B10D129
:109690000A4B5A7D5D689B6803FB025503F034FB5F
:1096A000411904F1500003F0FBFA012384F86830FB
:1096B00038BD7846FFF7B6FBEAE700BF1438002054
:1096C00010B50446808A02F067FE01281CD1237B76
:1096D000E3B194F91620002A1ADBE27D4AB1022B8D
:1096E00018D094F90330002B16DBA378B3B900200F
:1096F0000BE0E2780AB9012B12D1237893B9A37851
:10970000042B11D1002000E0102010BD1020FCE738
:109710000720FAE71020F8E70720F6E70720F4E72C
:109720000720F2E70020F0E70720EEE738B504460F
:1097300003784BB1C388C2698169808A06F036FE1E
:10974000054645B9284638BDC2698169808A06F058
:1097500027FE0546F5E7E169002201F00101A08A34
:10976000FFF76AFDEEE700002DE9F04780460E4660
:1097700017464B1EDBB2012B0FD8B7F5C07F10D8B0
:109780000024032C1AD8C4EBC403314A02EB0313A0
:1097900093F848304BB10134F3E77846FFF742FBCA
:1097A000EBE77846FFF73EFBEAE7C4EBC40502EBC4
:1097B0000515384609F065FAE86600E000255DB356
:1097C000EB6E002B42D043462C4608F1300ED3F806
:1097D00000C058689968DA68C4F800C06060A16089
:1097E000E260103310347345F1D10023EB64A5F827
:1097F0004A70012E13D06FF00103AB62002385F88D
:109800006830144BAB652D66134BAB632D640120A0
:1098100002F048FA85F848602846BDE8F0870F4B0B
:109820001B7D85F85130002385F8523085F8533080
:1098300085F85030D8F828206A65A5F858306FF0C0
:109840000103AB62064BAB632D64E0E71D46E3E723
:109850002C380020A3A20200B59B0200143800207F
:10986000019C020000B585B000228DF80F20A0B148
:109870000B46024602320A600DF10F01184604F051
:10988000B8F99DF80F3043B10C4B1B6813F0040F6F
:1098900003D00B4B1B68032B04DC9DF80F0005B0B5
:1098A0005DF804FB074BD3F80435074A009240F2F9
:1098B00015420649042005F029FAEEE7F8300020A9
:1098C000F4300020001001402C9A04001F9A04007C
:1098D0002DE9F04391B005460E4614461F46D0F8D8
:1098E000188003784BB1C388C8F30C029A4230D277
:1098F0009B1A4344A3F50053AB6105F10C00EB78D0
:1099000053B30121AA780DF130094B46082A14BF40
:109910000022012204F071F9C5F81880CDF81090EA
:109920000596AB78E21A92B2ADF8182032440A924A
:1099300009978DF82C300023ADF82030EB78002B00
:1099400041D02B7B022B09D000236B620193029341
:1099500016E09B1A4344CFE70221D3E71023ADF86A
:1099600020302B690793EFE710AB03EB840454F826
:109970003C3C6B62002011B0BDE8F083019BB3B1A9
:1099800002AB01AA2979286A10F054FC0024012CAA
:10999000F4D810AB03EB840353F83C0C0028EDD053
:1099A00003A9FFF75FFF0028DED10134EFE72B7B2F
:1099B000022B2CD105F10C01E88910F0F5FC0028F0
:1099C000BFD10520D7E72B7B012B01D00520D2E7A3
:1099D000EB89ADF80430AB8AADF806300024012CD9
:1099E00013D82946002341F8243F10AB03EB44036E
:1099F00033F83C0C10F043FC03A9686AFFF732FF10
:109A000008B90134EBE70020B5E70520B3E70520EE
:109A1000B1E7000070B5F0B00E4614461D4610AB1D
:109A20000A4601462046FFF753FF50B1224B1B6800
:109A300013F0040F03D0214B1B68052B2FDC70B0F3
:109A400070BD2046FFF772FE0028F8D103AB01225B
:109A50008DF80C20A28AADF80E20002204928DF819
:109A6000142010AA0692A178711AADF81C1008AA49
:109A700093E8030082E803000AAB04F10C0292E8C9
:109A8000030083E80300A37D8DF83830236A0C932C
:109A9000636A0D930F9505A800F0FCFDCFE7084B16
:109AA000D3F80435074A009240F2037206490620B3
:109AB00005F02CF9C3E700BFF8300020F430002097
:109AC00000100140409A04001F9A040010B504469B
:109AD000C06E09F0DAF804F1300003F0C9F894F828
:109AE0004830022B08D07022002120461EF0B1FE23
:109AF000002002F0D7F810BD04F1500003F0B8F8D0
:109B0000F1E710B58CB0044690F84830012B0FD126
:109B100001238DF80430636D029303F0F5F8039090
:109B200001A800F0B7FD2046FFF7D0FF0CB010BD34
:109B30007846FFF777F9EBE730B585B00D46044678
:109B4000A8B194F84830022B15D02946606DFFF774
:109B50008FFB2046FFF7BAFF114B1B6813F0040F71
:109B600003D0104B1B68032B09DC05B030BD7846D1
:109B7000FFF758F9E5E72046FFF714FAE5E70A4B47
:109B8000D3F8043594F8482002950192074A0092D0
:109B900040F2F3120649042005F0B8F8E5E700BFEB
:109BA000F8300020F4300020001001406C9A0400CE
:109BB0001F9A040008B508460021FFF7BDFF08BD45
:109BC00008B5037B012B02D0FFF79BFF08BD0121E5
:109BD000FFF7B2FFFAE7000008B590F8513053B133
:109BE000013B80F85130002380F85030034B186857
:109BF00003F0B6FE08BDFFF7E3FFFBE710380020D7
:109C000010B50C4691F84830012B03D12046FFF7E0
:109C1000E3FF10BD7846FFF705F9F7E770B5C6B06A
:109C20000E46154682782A44C37D2BB14FF48073CB
:109C3000934278D3002303E04FF4C073F8E7013375
:109C4000032B14D8C3EBC30C394C04EB0C1C9CF84D
:109C500048100129F3D1BCF81440818A8C42EED11E
:109C6000BCF80E40C1898C42E9D1082554E001219D
:109C7000FFF77AFD0446002857D02A463146C06EC9
:109C80001EF0BEFD0023459345A92046FFF746FC84
:109C9000054608B1042842D1459B8BB9254B1B686A
:109CA00013F0040F37D0244B1B68032B33DDB4F8BB
:109CB0004AC0BCF1800F28BF4FF0800C002313E096
:109CC0002046FFF781FCE9E7E26ED25C1B490D6894
:109CD000100959002E5C04A800F8136002F00F026E
:109CE0000131AA5C425401336345EDD304AA002339
:109CF00002F81C3003F1804303F58833D3F80435B0
:109D000002920F4A01920F4A00924FF4AC620E4940
:109D1000042004F0FBFF0025284646B070BD204615
:109D2000FFF7D4FEF8E70925F6E70425F4E700BFBE
:109D30002C380020F8300020F4300020FC300020C7
:109D4000909A0400289004001F9A040070B50446FD
:109D50000D461646FFF7B4FC30B923782BB13246D6
:109D600029462046FFF75AFF70BD32462946204655
:109D7000FFF7F9FBF8E7000038B504460D46CB695C
:109D80005B780371CB691B7883F00103C370CB69E7
:109D900043628B8A0B2B07D8CB7A002B35D10B7BF8
:109DA000012B02D0002300E001232370002B31D0CF
:109DB000287B02282BD0FFF7E1F9A070AB8A03447F
:109DC0000B33174A82FB03235B10013B63720023B2
:109DD00023720023E37504F10C0395E8030083E884
:109DE0000300AB6923622B89A382AB7AA3752B6A2C
:109DF000A362DF23E362284610F004FB20B12B7836
:109E0000012B0AD0FF23E36238BD0123CDE7054BC8
:109E1000987DD0E70423A370DBE72023F3E700BF9E
:109E2000ABAAAA2A14380020062979D1F0B585B04A
:109E3000154690F800C04FEA8C1202F4FE524178A9
:109E40008478C3781B0443EA0463047943EA042357
:109E500044791C434FFA8CF642EA91012846FFF7F9
:109E600033F90746E0B1002E2FDBC289A98A8A4266
:109E70002BD02C4B1B6813F0040F30D02A4B1B68DF
:109E8000012B2CDD294BD3F8043502910192284A8D
:109E9000009240F27D622749022004F037FF1EE065
:109EA000204B1B6813F0040F19D01F4B1B68012BAC
:109EB00015DD1E4BD3F804351F4A009240F279623B
:109EC0001C49022004F022FF09E0002E09DBFD6C92
:109ED0002543FD644CB903213846FFF72DFE05B03C
:109EE000F0BDAB8AA7F85830F1E73B7883B17B7AB5
:109EF0005A1C01239340013B9D420DD0002187F85D
:109F000050103846FFF70AFB3846FFF75DFBE6E7DF
:109F10007846FEF787FFEAE73846FFF7F2FDDEE70F
:109F2000704700BFF8300020F430002000100140DE
:109F3000D09A04001F9A0400A09A04002DE9F0436F
:109F40008BB007460E4614461D461046FFF7EEFB43
:109F500050B994F80380B8F1000F08D12B4622467F
:109F600031463846FFF760FF0BB0BDE8F08340464E
:109F7000FFF740F981460028F6D08DF80480236A67
:109F80000793A38AADF8123005AB04F10C0292E8F6
:109F9000030083E80300A37D8DF820300297039629
:109FA00023788DF81030E36A0993294601A8C84741
:109FB000DAE792F801C01CF0010F08D010B5D47D8B
:109FC00014B1FFF7BBFF10BDFFF724FDFBE770479F
:109FD00008B501390130FFF7ECFF08BD10B54FF4AB
:109FE000E072002113481EF034FC06F0ABF90024A7
:109FF000114B1C608022214610481EF02AFC104B99
:10A00000104A1A60104A5A604CF250329A600F4956
:10A01000D9601A6104221A759C7508225A750C4879
:10A0200003F07EFC0B4B18600B4B1C600B4806F0DA
:10A0300087FC10BD2C38002000380020803700201D
:10A040001438002080969800F049020020A10700F3
:10A0500095A20200103800200438002099920200D6
:10A0600008B506F08FF908BD98B110B58CB004465C
:10A07000036983B1C36983B1836983B101466846CB
:10A08000FFF77AFEA28A21696846FFF75FFE0CB0EF
:10A0900010BD0E2070470E20F9E70E20F7E70E20C6
:10A0A000F5E7000058B310B590B00A46044643687F
:10A0B0003BB383693BB3014604A8FFF764F8134B35
:10A0C0001B6813F0040F03D0114B1B68062B06DC32
:10A0D000A268616804A8FFF739FE10B010BD0D4BEF
:10A0E000D3F804352278A169029101920A4A0092BC
:10A0F00040F605020949072004F008FEE8E70E20B3
:10A1000070470E20E9E70E20E7E700BFF830002097
:10A11000F430002000100140149B04001F9A04003A
:10A12000037B012B01D00020704730B591B004466D
:10A130000D463F4B1B6813F0040F03D03D4B1B68CB
:10A14000032B5ADC04A8002304930593CDF81730A1
:10A15000B4F806E09DF8101001F080018DF81010A1
:10A16000CEF3861C4CEA01018DF810109DF81120E9
:10A1700002F003028DF8112042EA8E028DF81120C0
:10A180002A0E8DF812202A0C8DF813202A0A8DF839
:10A1900014208DF815506278022A0CBF012119464F
:10A1A0009DF8102002F07F028DF8102042EAC112C3
:10A1B0008DF810204FF0060209924FF001028DF841
:10A1C0002C20A28AADF82E200C938DF81C3008901C
:10A1D000226A0D928DF82830E36A0F9319D0E38933
:10A1E000ADF82A30A37DF3B98DF838306FF0010156
:10A1F00007A8FFF757FF11B030BD0F4BD3F8043558
:10A200000E4A009240F263220D49042004F07EFDC4
:10A2100098E70DF10E0103A810F0E2F8BDF80C303C
:10A22000ADF82A30DEE7074B5B7D8DF83830DDE78F
:10A23000F8300020F430002000100140409B040062
:10A240001F9A04001438002090F84830022B00D0E8
:10A25000704710B5044690F86830022B00D010BD4E
:10A26000C16CFFF75DFF0028F9D1002384F8683046
:10A27000F5E7000010B5002407E0C4EBC4021301A9
:10A2800003481844FFF7E0FF0134032CF5D910BD53
:10A290002C38002008B5FFF7B7F9FFF7EBFF0120D6
:10A2A00008BD10B50C4691F84830022B06D10223A8
:10A2B00084F868302046FFF7C7FF10BD7846FEF7E8
:10A2C000B1FDF4E7F0B583B00446C069A369E18845
:10A2D000060A0006C3F30C0291422FD98A1A1A44C7
:10A2E000A2F50052851846F100062A463346A08A98
:10A2F000FEF738FE002840F089802046FEF71EFF5A
:10A30000074630B3C269D0F818C0C388100A1206D5
:10A31000CCF30C01994214D2591A6144A1F50051B1
:10A32000521840F10003AA4273EB06010DD3954287
:10A3300076EB030330D3384603B0F0BD891ACA1850
:10A34000D0E75B1A03EB0C01EAE705213846FFF77B
:10A35000F3FBE388E269A169A08A06F0F9F8E8B99D
:10A36000627A0132E37DA3B3082101FB02F293B3C9
:10A370004FF48073934231D302212046FFF7F4F962
:10A3800007460028D7D100212046FFF7C9FE022149
:10A390000020FEF76DFFCEE70027CCE7E388E269F7
:10A3A000A169A08A06F04CF908B90027C3E7237811
:10A3B0005BB1637A01330121994001392046FFF7EF
:10A3C000AFFE2046FFF7B2F9EFE77846FEF72AFD29
:10A3D000EFE70C21C9E74FF4C073CBE70C4B1B68C8
:10A3E00013F0040F03D00B4B1B68002B01DC00277C
:10A3F000A1E7094BD3F804350192084A009240F2D4
:10A400007F320749012004F081FCF0E7002792E742
:10A41000F8300020F430002000100140509B040070
:10A420001F9A04002DE9F04182B007460E461446FB
:10A4300098461046FFF746FF002846D00546404B99
:10A440001B6813F0040F03D03E4B1B68032B3FDC4B
:10A450002846FFF701F92B7B012B47D0EB6C217AC3
:10A4600001228A40134230D11343EB64043E237A25
:10A47000E27D002A42D04FF0080C0CFB03FC697A05
:10A480008B423ED0002A41D00823B34240D1AA6972
:10A49000A3699A4209D205F10C0E0C340FCCAEE838
:10A4A0000F0094E803008EE80300E86E3246391D81
:10A4B00060441EF0A5F9EC6C2B7873B36B7A5A1CD0
:10A4C00001239340013B9C422BD002B0BDE8F081B8
:10A4D0001D4BD3F80435227A01921C4A009240F2B7
:10A4E000A3321B49042004F011FCB1E795F8683051
:10A4F000002BB3D12846FFF7C5F8AFE74FF00C0C9F
:10A50000BBE70CEB0603A5F84A30C0E70C23BCE719
:10A5100004212846FFF710FBD7E77846FEF782FCB8
:10A52000CCE7E96C2846FFF7FBFD43462A46B5F821
:10A530004A10E86EFFF73DFD2846FFF7C7FAC4E76B
:10A54000F8300020F430002000100140649B04002B
:10A550001F9A04002DE9F04190B000284CD00F461E
:10A5600014461E468046002A48D004AB009333466A
:10A57000FEF7AAFE054618B1284610B0BDE8F081E6
:10A5800004A8FFF79DF805460028F5D100230293A3
:10A59000039302A960880FF007FF28B19DF81130DE
:10A5A00043F001038DF811302269E168208905F03C
:10A5B00087FF38B19DF8113003F0FE038DF811309C
:10A5C000002BD9D09DF81130002BD5D013F0010FFE
:10A5D00001D0039B08939DF8103033B1334604AA91
:10A5E00039464046FFF71EFFC6E7334604AA394600
:10A5F0004046FFF7EDFCBFE70E25BDE70E25BBE7A4
:10A60000F8B508B30E460546164B1F68F7B93C4629
:10A61000B4420FD205EBC4035B68D3B115F8340024
:10A6200015F93430002B16DBB8B1FEF7E3FDB0B9F5
:10A630000134EDE70C4B43F8375003EBC7035E6082
:10A640007B1C084A136002E00E2700E0042738460E
:10A65000F8BD0E27FBE70B27F9E70F27F7E70F27D2
:10A66000F5E700BF0438002008380020084B1968BF
:10A6700061B110B501E021463CB10C680B79002BAB
:10A68000F9D0034804F0ACFAF5E710BD704700BFFD
:10A69000F039002038B5054630B1104B1C68C4B104
:10A6A0000F4B01221A7004E07846FEF7BBFBF4E77B
:10A6B00024683CB12379002BFAD154F8043C284695
:10A6C0009847F5E7064B1B78022B03D0044B00227A
:10A6D0001A7038BDFFF7CAFFF8E700BFF039002055
:10A6E000EC39002010B5044630B100232372211D3F
:10A6F000034804F04AFA10BD7846FEF793FBF4E7EE
:10A70000F039002010B5044658B10A4B1B78013BC4
:10A71000DBB2012B09D8074B02221A7001232372E6
:10A7200010BD7846FEF77EFBEFE7211D024804F0DE
:10A7300057FAF5E7EC390020F03900200A888368E1
:10A740009B5A07339BB223F0030313449BB2028846
:10A75000043A934200D900230B80704710B582B0B1
:10A7600004468368C91AADF806100DF10601FFF71B
:10A77000E5FFBDF80630A068184402B010BD00889F
:10A78000043880B2704743888268D018D1520123C0
:10A790008370704782680023937043808380704782
:10A7A00008B5073189B221F0030189B24288838854
:10A7B0009A4204D29B1A994220DC002008BD9A429A
:10A7C00012D9B0F800C0ACEB020C614518D98B422D
:10A7D00018D3BCF1030F03D98368134404229A7081
:10A7E000002343801846E9E7826813449B780BB145
:10A7F0000420E3E7FFF7CEFF0020DFE70420DDE7DA
:10A800000020DBE70420D9E738B504460D4683680D
:10A81000828813448B4202D07846FEF703FB002364
:10A82000AB70211D2046FFF789FFA288A36813445F
:10A830009B78042B00D038BD0023A380FBE710B524
:10A840000C468368428813448B4202D07846FEF758
:10A85000E9FA0023A37010BD70B5054614460E46F4
:10A86000002944D0002D46D0B6F1005F08D94FF042
:10A870008053D3F80C3103F50023B6EB832F0ED3AE
:10A88000B6F5000F08D94FF08053D3F80C3103F51B
:10A890000053B6EB832F02D37846FEF7C3FA631E4C
:10A8A0003344B3F1005F08D94FF08052D2F80C2145
:10A8B00002F50022B3EB822F0ED3B3F5000F08D9B7
:10A8C0004FF08052D2F80C2102F50052B3EB822FE8
:10A8D00002D37846FEF7A6FA042C10D92C80002368
:10A8E0006B80AB80AE60043C3480B37070BD784642
:10A8F000FEF798FAB6E77846FEF794FAB4E778469A
:10A90000FEF790FAEAE738B50446A0B16288A3687A
:10A9100013449B78012B12D0EFF3108572B6A388F5
:10A92000A16819448B78032B0DD02046FFF732FF26
:10A9300005B962B638BD7846FEF774FAE6E77846A0
:10A94000FEF770FAE8E72046FFF708FFA368C31A8E
:10A95000638000238370EBE72DE9F0410E46144637
:10A960000546D0B1EEB16A88AB6813449B78012BE1
:10A970001BD024B32846FFF702FFA04221D3EFF3F8
:10A98000108872B621462846FFF70AFF074680B1B5
:10A99000B8F1000F16D162B614E07846FEF742FA1D
:10A9A000E0E77846FEF73EFADDE77846FEF73AFA4A
:10A9B000DFE721462846FFF7E6FE3060E8E7092793
:10A9C00000E009273846BDE8F081F8B50C46154689
:10A9D0000646E0B1FCB1A378012B20D12388AB421D
:10A9E00021D325B3EFF3108772B625800223A3701D
:10A9F000F1183046FFF7A2FE7388B288934203D065
:10AA0000B268134400229A7007B962B6F8BD78465E
:10AA1000FEF708FADEE77846FEF704FADBE7784649
:10AA2000FEF700FADAE77846FEF7FCF9D9E7784650
:10AA3000FEF7F8F9D6E770B50C46054690B1ACB113
:10AA4000EFF3108672B6AA88AB6813449A78042A8A
:10AA500010D09A78022A15D0032A18D0052006B9FA
:10AA600062B670BD7846FEF7DDF9E8E77846FEF796
:10AA7000D9F9E5E7291D2846FFF760FEAA88AB68EB
:10AA80001344E6E703229A7023600020E7E7784644
:10AA9000FEF7C8F90020E2E738B5044680B1EFF3CD
:10AAA000108572B6A088A16801448B78042B0BD066
:10AAB0008878022814BF0020012005B962B638BD8D
:10AAC0007846FEF7AFF9EAE72046FFF747FE014672
:10AAD000EEE738B5054630B1EFF3108472B6A888BA
:10AAE000A968014407E07846FEF79CF9F4E7284698
:10AAF000FFF734FE01468878C31EDBB2012BF6D97E
:10AB0000022814BF0020012004B962B638BD70B518
:10AB10000C46064678B194B1EFF3108572B6A3786F
:10AB2000012B10D0032B13D121463046FFF76CFECA
:10AB300005B962B670BD7846FEF774F9EBE7784662
:10AB4000FEF770F9E8E721463046FFF778FEEFE7B9
:10AB50007846FEF767F9EBE710B5EFF3108472B6AD
:10AB60008388816819448B78042B06D08878B0FAE2
:10AB700080F0400904B962B610BDFFF7EFFD014651
:10AB8000F4E70000024B00221A769A600220704718
:10AB9000F439002008B5064B986800221A605A6004
:10ABA0009A60DA601A615A619A6105F077F808BD17
:10ABB000F439002000B585B00A4BDB6802228DF81D
:10ABC000002001934FF480530293074A6946012005
:10ABD00001F0F8FA18B9012005B05DF804FB002077
:10ABE000FAE700BFF4390020123A002000B585B022
:10ABF0000A4B1B6802228DF8002001934FF480530A
:10AC00000293074A6946012001F0DCFA18B90120D5
:10AC100005B05DF804FB0020FAE700BF143A0020FD
:10AC2000123A0020164BDA68137951795B1A03F552
:10AC30007F2303F6FF7302EB03339A4205D002F53C
:10AC400080520F4BDA600320704700B585B00D4B82
:10AC50001B6801208DF8000001930B4B0393042324
:10AC600002930A4A694601F0ADFA18B1002005B016
:10AC70005DF804FB024B01221A760220F7E700BFC1
:10AC8000F4390020143A0020183A0020123A00202B
:10AC900000B585B00C4BDA680C4B1B6804330120FF
:10ACA0008DF800000192039340F6FC730293084A6A
:10ACB000694601F087FA28B90120034B187605B0E0
:10ACC0005DF804FB0020FAE7F4390020143A002074
:10ACD000123A002000B585B00A4B1B6801208DF8A0
:10ACE00000000193084B039304230293074A69462B
:10ACF00001F068FA18B9012005B05DF804FB0020E6
:10AD0000FAE700BF143A0020003A0020123A00206F
:10AD100010B584B0104BDA681478104B1B680433FC
:10AD200001208DF800000193039202940C4A6946B9
:10AD300001F048FA70B9094B1B6804F0FC041C448C
:10AD40000434054B5C61D9680A780A441A61012011
:10AD500004B010BD0020FBE7F4390020143A0020B5
:10AD6000123A002008B500230A2B09D8064A52F8E7
:10AD70002320824201D00133F6E7044A536002E007
:10AD80007846FEF74FF808BDF09B0400F439002028
:10AD900010B5214BDB6853B11F4B1B7E5BB91E4BBB
:10ADA0005B680A2B26D97846FEF73CF822E0784605
:10ADB000FEF738F8F0E77846FEF734F8EFE7164A82
:10ADC0005368013353600A2B21D97846FEF72AF8DD
:10ADD0001DE0114B00225A6019E00F4B1B7E1BB186
:10ADE0000D4B02221A7012E0FFF7D4FE0FE00A4B5F
:10ADF0001B7E83B9084B5A68084B53F8223098479A
:10AE000004460228E9D00328E3D00128D7D0012C3A
:10AE1000EDD0032CEBD010BDF4390020F09B0400E2
:10AE2000104B1B681B685A1E12F1030F18D8C3F38E
:10AE30000B020AB10020704710B50B4AD360002303
:10AE4000137653760124147093600848FFF78AFF45
:10AE50000749204601F0A4F9FFF79AFF204610BDEC
:10AE600000207047143A0020F4390020B5AB0200EE
:10AE700075AE020008B50B78032B06D00B4B1B7880
:10AE8000012B06D0022B0BD008BD084B00221A76EE
:10AE9000F4E7064B1B7E002BF6D1FFF779FFF3E7B3
:10AEA0000B78032BF0D1FFF775FEEDE7F4390020A6
:10AEB00000B585B0174BDB6818784FF6FF7203F5C5
:10AEC0008051184405F0F2FCE0B10246114BD968FC
:10AED0000B780B44984217D00E4B5B7E83B10E4B20
:10AEE00001208DF8000001920393042302930B4A82
:10AEF000694601F067F948B90120064B187606E06B
:10AF0000074BEDE7012002E0012000E0002005B042
:10AF10005DF804FBF4390020149E0400123A00206E
:10AF2000109E040008B5104BDB681878002203F56A
:10AF30008051184405F0BAFC08B1012008BD0A4B45
:10AF4000DA68137951795B1A03F57F2303F6FF73EF
:10AF500002EB03339A4205D002F58052024BDA60CD
:10AF60000320EBE70220E9E7F4390020F0B585B0D3
:10AF7000514BDE6872793379591E8A4214D006F536
:10AF800080510D780D444D490968081D0F7907441B
:10AF90009B1A06EB03366B88013B9BB247F6FE62B9
:10AFA000934260D92C461AE00120434B58767EE04C
:10AFB0007846FDF737FF15E024F47F6424F00F0492
:10AFC00004F5805423781C44A6421CD9A5421CD207
:10AFD0006388013B9BB247F6FE62934211D92388F6
:10AFE000002BE5D0238804EB830323F47F6222F057
:10AFF0000F029342E0D06288B2F5FE4FDCD01C46CF
:10B00000E2E725462FE000252DE000252BE07846DD
:10B01000FDF708FF15E024F47F6424F00F0404F525
:10B02000805423781C44A6421CD9A54237D2638899
:10B03000013B9BB247F6FE62934211D92388002B55
:10B04000E5D0238804EB830323F47F6222F00F0210
:10B050009342E0D06288B2F5FE4FDCD01C46E2E7B6
:10B06000254600E00025E5B1144B19686A8801F512
:10B070008051384605F01AFC074690B101200E4B6E
:10B0800018768DF8000001950D4B0393042302936D
:10B090000C4A694601F096F858B92C46CEE70025CF
:10B0A000E1E7B5FA85F56D09034B5D76012005B042
:10B0B000F0BD0020FBE700BFF4390020143A002067
:10B0C0000C9E0400123A00202DE9F04186B0654B39
:10B0D0001B6923B1634B5B692BB1002748E07846BD
:10B0E000FDF7A0FEF6E77846FDF79CFEF5E7A046E3
:10B0F00018E07846FDF796FE18E028F47F6828F0FF
:10B100000F0808F5805898F800309844454520D934
:10B1100044454AD2B8F80230013B9BB247F6FE6282
:10B12000934214D9B8F80030002BE2D0B8F80030C0
:10B1300008EB830323F47F6222F00F029342DCD0FA
:10B14000B8F80220B2F5FE4FD7D09846DEE7444665
:10B1500000E000243CBB00230093019B002B5CD14A
:10B160000127002C78D0628847F6FF739A4273D08B
:10B17000002F75D13B4B5A6922F47F6626F00F06EB
:10B18000B61A06F580561C69DD682B796A799B1A18
:10B1900005EB0335002301936388013B9BB247F61F
:10B1A000FE629342A3D800940EE00024D2E77846D2
:10B1B000FDF738FE23E024F47F6424F00F0404F547
:10B1C0008054237823441C46A542C6D92388019A7B
:10B1D00002EB83029642C0D9009B634023F47F6355
:10B1E00023F00F03002BB8D16388013B9BB247F6D5
:10B1F000FE618B42B1D801922388002BD7D02388DF
:10B2000004EB830323F47F6222F00F029342D2D037
:10B210006288B2F5FE4FD6D1CDE7124A52690120BD
:10B220008DF808000392009A059204930E4A02A931
:10B2300000F0C8FF70B90B49019B23F003024B6972
:10B2400013444B6114B1074B1C618AE77846FDF744
:10B25000E9FDF8E7002000E0012006B0BDE8F0813C
:10B260000120FAE7F4390020123A002000B585B039
:10B270000023294A1370D3F8F83FB3F1FF3F09D0F8
:10B28000B3F1FF3F0DD08BB1B3F1FF3F39D0A3F540
:10B29000805211E04FF010225269B2F1FF3FEFD11E
:10B2A00004E04FF010225269002AEDD14FF0805394
:10B2B0005A691B6903FB02F2A2F58052174B1A6010
:10B2C000174B1B6813F4801F16D0164B1B68062BF8
:10B2D00012DD154BD3F804350021D1F8F81FB1F178
:10B2E000FF3F14D002920191104A009240F2762260
:10B2F0000F49072003F00AFDFFF792FD05B05DF846
:10B3000004FB4FF010235A69A2F58052D4E74FF0A6
:10B3100010214969E6E700BF103A0020143A0020E6
:10B32000F8300020F430002000100140BC9B0400E5
:10B33000A39B040010B50446B0B1104B1B78BBB101
:10B340000E4BD968E3685879A3EB0032914211D3D0
:10B350001A79121A02F57F2202F6FF7203EB02330A
:10B36000994209D8012004E07846FDF75BFDE4E747
:10B37000002010BD0020FCE70020FAE7F43900208F
:10B38000024B1878003818BF01207047F4390020AC
:10B3900010B50446124B1B78BBB92378032B18D188
:10B3A0000F4B9C60E268DA600E4B1B78ABB10A224F
:10B3B0000B4B5A6000221A76012018705A760A49FF
:10B3C00000F0EEFEFFF7E4FC10BD7846FDF72AFD25
:10B3D000E3E77846FDF726FDE2E70022E8E700BF55
:10B3E000F4390020103A002075AE0200014B1868B5
:10B3F000704700BF143A002010B5044680B163685E
:10B400001BB123680BB1A36813B97846FDF70AFD99
:10B41000A3685A1E134207D10023E360236110BDC5
:10B420007846FDF7FFFCEAE77846FDF7FBFCF3E71B
:10B4300070B508B30E4604468368FBB1EFF3108580
:10B4400072B60369C268934212D00168426880688C
:10B4500000F1FF3C03EA0C0303FB021116B1304676
:10B460001DF0CEF92369013323614DB962B608E0BE
:10B4700005B962B6052504E00E2502E0092500E0C5
:10B480000025284670BD00000246C0F30B0030BB0B
:10B4900039B301F6FF714FEA113C134B0221C3F897
:10B4A0000415114BD3F80034002BFAD001460AE002
:10B4B0000D4BC3F808250C4BD3F80034002BFAD001
:10B4C00002F5805201316145F2D3074B0022C3F8E7
:10B4D0000425054BD3F80034002BFAD07047102018
:10B4E00070470920704700BF00E00140844610F01B
:10B4F000030F2DD111F0030F2CD16AB312F0030FFB
:10B500002CD19008164B0122C3F80425144BD3F814
:10B510000034002BFAD003E00CF1040C0431104687
:10B52000421E58B10B68B3F1FF3FF5D0CCF80030A4
:10B530000B4BD3F80034002BFAD0EDE7084B002278
:10B54000C3F80425064BD3F80034002BFAD070471B
:10B55000102070471020704709207047092070475D
:10B5600000E00140094B1B7813F0040F02D0037870
:10B57000122B00D07047064B1A68064B5A60034BDB
:10B580001A786FF382021A70F4E700BFC03A002005
:10B59000B03A00204C3A002010B582B001900C4621
:10B5A000BDF80630012B11D123680A490B600A4B04
:10B5B0001A7842F001021A70D3B25B0883F00103DB
:10B5C00003F001030B71002002B010BD7846FDF7B7
:10B5D00029FCE9E7B03A0020C03A002010B582B05B
:10B5E00001900C46BDF80630022B0FD12268094BA2
:10B5F0001A6022791A71002058719871D871064A20
:10B60000137843F00203137002B010BD7846FDF7C3
:10B6100009FCEBE7A83A0020C03A002010B582B040
:10B6200001900C46BDF80630032B06D1054B186877
:10B6300020601B79237102B010BD7846FDF7F2FB44
:10B64000F4E700BFB03A002010B582B001900C467C
:10B65000BDF80630032B0CD1084B20681860227906
:10B660001A71074A137843F001031370002002B0E7
:10B6700010BD7846FDF7D6FBEEE700BFB03A0020DC
:10B68000C03A002010B582B001900C46BDF80630DB
:10B69000042B05D1044B03CB2060616002B010BDC8
:10B6A0007846FDF7BFFBF5E7A83A002010B582B059
:10B6B00001900C46BDF80630042B0BD1074B2068D7
:10B6C000616803C3064A137843F002031370002035
:10B6D00002B010BD7846FDF7A5FBEFE7A83A0020C1
:10B6E000C03A002000B583B00190BDF80630032BAE
:10B6F00006D1054B00221A601A7103B05DF804FBF5
:10B700007846FDF78FFBF4E7B03A002000B583B030
:10B710000190BDF80630042B06D1054B00221A60BB
:10B720005A6003B05DF804FB7846FDF77BFBF4E755
:10B73000A83A002000B585B01A4B1B7813F0400FD3
:10B7400013D0184B1B7813F0040F0BD10023019377
:10B750008DF80830144B5B6803F500530193B3F187
:10B76000807F06D905B05DF804FB7846FDF75AFBEB
:10B77000E7E70E4B1B788DF808300A4A137843F040
:10B78000040313700023ADF80C300323ADF80E3022
:10B7900001A9039806F06CFA0028E3D07846FDF77B
:10B7A00041FBDFE7C03A00204C3A0020C13A0020BC
:10B7B00000B585B00022019202920F4B9968019169
:10B7C0001B7B8DF808300D490B780133DBB20B7011
:10B7D0008DF80B30ADF80C200423ADF80E300DEBD6
:10B7E0000301039806F044FA10B905B05DF804FBB4
:10B7F0007846FDF717FBF8E74C3A0020C13A0020E5
:10B8000000B585B00023019302930F4A916801911E
:10B81000117B8DF80810128AADF809200B4A1278B6
:10B820008DF80B20ADF80C300423ADF80E300DEB85
:10B830000301039806F01CFA10B905B05DF804FB8B
:10B840007846FDF7EFFAF8E74C3A0020C13A0020BD
:10B8500000B58DB00B4B1B7B012B0ED0094A9268B3
:10B8600004928DF80830039002238DF8043001A86B
:10B87000FEF710FF0DB05DF804FB024A9268013A32
:10B880000492EEE74C3A002008B51D481D4B0360BA
:10B8900000F036FF1C4B1B7813F0200F2AD103F069
:10B8A0000303032B14D1194B1968194A91601979B4
:10B8B0001173B3F805001082DB79164A1370164A2B
:10B8C0001279934217D0B1B9114B00221A6007E0E8
:10B8D0000F4B00221A609A601A731A82FFF768FFF2
:10B8E0000B4B1A685A60084A137843F040031370F0
:10B8F000FFF720FF08BD084B1A68054B1A60EFE7F9
:10B900009C3A002065B50200C03A0020A83A002009
:10B910004C3A0020C13A0020B03A002010B582B065
:10B920000024ADF800400123ADF80230009806F085
:10B93000D0F9ADF804400223ADF80630019806F0C6
:10B94000C8F902B010BD000008B5002006F0E8F903
:10B95000094A0023136053609360D3601361074A60
:10B96000117863F345111170CBB243F040031370AB
:10B97000FFF7E0FE08BD00BF4C3A0020C03A0020AF
:10B9800038B50C4D00242C606C60AC60EC602C6110
:10B9900001F0BAF9084B5860084A9A60084ADA6020
:10B9A0001C615C61074B1A7864F3C3021A706C6007
:10B9B00038BD00BF4C3A0020283A002021BB0200CD
:10B9C00000879303C03A002008B50C4B1B7813F096
:10B9D000100F00D008BD0A480A4B036000F090FE2B
:10B9E000FFF752FFFFF79AFF074801F011F9034AEA
:10B9F000137843F010031370ECE700BFC03A002047
:10BA0000403A002079BC0200283A0020034B187805
:10BA1000800880F0010000F001007047C03A00206B
:10BA200010B501F0FFFE174B1B7B1BBB154B9B7B1F
:10BA30002BBB144B1A8A41F282639A4206D8124BEE
:10BA40001B7813F0080F05D0012300E001231BB978
:10BA5000082410E00023FAE70A4B01221A7300249D
:10BA60001C829A6801329A60FFF7A2FE2046FFF717
:10BA7000EFFE00E0082401F01BFF204610BD082463
:10BA8000F9E700BF4C3A0020C03A002010B501F0A1
:10BA9000C9FE214B5B7BABB11F4B9B7B03BB1E4B9A
:10BAA0001A8A41F282639A4206D81C4B1B7813F023
:10BAB000080F05D0012300E001239BB1012302E020
:10BAC0000023FAE700231C460BB3134B00225A73E2
:10BAD0001B7B4BB1012B0ED07846FDF7A3F916E086
