:020000022000DC
:1060000000F000206D630200556302005763020038
:10601000596302005B6302005D6302000000000040
:106020000000000000000000000000005F630200AC
:106030006163020000000000636302006563020008
:10604000676302006763020059E7020067630200AA
:1060500067630200676302001D9603006763020026
:106060006763020067630200196D03006763020043
:1060700067630200676302006763020067630200F0
:10608000676302002D040400F5AE0200676302009E
:106090009104040067630200A5990300676302008E
:1060A00067630200676302006763020067630200C0
:1060B0006763020067630200000000000000000048
:1060C00067630200676302006763020067630200A0
:1060D000676302006763020067630200000000005C
:1060E00000000000000000000000000000000000B0
:1060F00000000000000000000000000000000000A0
:10610000000000000000000000000000000000008F
:10611000000000000000000000000000000000007F
:10612000000000000000000000000000000000006F
:10613000000000000000000000000000000000005F
:10614000000000000000000000000000000000004F
:10615000000000000000000000000000000000003F
:10616000000000000000000000000000000000002F
:10617000000000000000000000000000000000001F
:10618000000000000000000000000000000000000F
:1061900000000000000000000000000000000000FF
:1061A00000000000000000000000000000000000EF
:1061B00000000000000000000000000000000000DF
:1061C00000000000000000000000000000000000CF
:1061D00000000000000000000000000000000000BF
:1061E00000000000000000000000000000000000AF
:1061F000000000000000000000000000000000009F
:10620000344935480A1A02D0072291438D46334952
:1062100033480A1A06D00722914381F309880222E3
:1062200082F314882F483049304A00F042F8304851
:106230003049314A00F03DF830483149314A00F0E8
:1062400038F831483149324A00F033F831483249A0
:10625000324A00F02EF832483249334A00F029F829
:1062600032483349334A00F024F833483349002296
:1062700000F02AF832483349002200F025F832486D
:106280003249091A082902DB0022026041601F48D6
:106290001F49884205D00268043003B4904703BC0C
:1062A000F7E700208646EC4600200021284A904768
:1062B000FEE7884207D0521A05D0037801300B70F0
:1062C0000131013AF9D17047884202D002700130A1
:1062D000FAE7704700F0002000E8002000F00020FE
:1062E00000F00020A8240400F02D00204C2E0020F7
:1062F000A0630200A063020090090400A824040027
:10630000F02D0020F02D0020340D0400340D040089
:10631000340D0400340D0400340D0400340D040069
:10632000340D0400340D0400A824040004250400E6
:106330004C2E00204C2E00204C2E00208464002087
:106340008464002084640020846400208468002029
:10635000E9650200FEE7FEE7FEE7FEE7FEE7FEE78F
:10636000FEE7FEE7FEE7FEE700F002B8FFF7FCBF3E
:1063700008484FF00701884385460748804707488B
:10638000016841F470010160BFF34F8FBFF36F8F5D
:10639000FFF736BF00F00020959B030088ED00E07A
:1063A00041DF704700B58DB02422002103A81AF008
:1063B00088FA01238DF80C3007238DF80F3006235F
:1063C0008DF81430384903A80AF0CCFB50B30B28E1
:1063D00027D1364B1B6813F4804F03D0344B1B6816
:1063E000032B13DC314B1B6813F4804F1AD0304B56
:1063F0001B68032B16DD2F4BD3F804352E4A009271
:1064000050222E49042005F0CBFD0BE0294BD3F898
:1064100004352B4A00924F222849042005F0C0FD84
:10642000E0E7E0B9214B1B6813F4804F03D0204B09
:106430001B68032B18DC012015F040FAF8B91B4B40
:106440001B6813F4804F03D0194B1B68032B1BDC14
:1064500000200AF025FB10BB0DB05DF804FB194AC3
:10646000552113F0C5FCDDE7124BD3F80435164A6D
:10647000009258221149042005F092FDDBE7114AF1
:10648000592113F0B5FCDAE70A4BD3F804350F4A6B
:1064900000925B220949042005F082FDD8E7094AF1
:1064A0005C2113F0A5FCD7E74C2E0020042E002021
:1064B000002E002000100140B00D0400590D040012
:1064C000600D0400340D0400EC0D04000C0E0400FB
:1064D00000B583B01F4A04214EF2070005F044FDC9
:1064E0001D4B1B6813F4804F03D01C4B1B68032B00
:1064F00014DC19F0D1FFE0B900F04AF900F01AFA03
:10650000FFF750FF144B1B6813F4804F03D0134B5D
:106510001B68032B12DC03B05DF804FB104BD3F8AF
:106520000435104A009266220F49042005F038FD18
:10653000DFE70E4A682113F05BFCDDE7084BD3F878
:1065400004350B4A00926F220749042005F028FD0C
:10655000E1E700BF3DBF0200042E0020002E002016
:1065600000100140300E0400590D0400340D0400E9
:106570006C0E040000B583B00AF0ADFA90B900F0DB
:1065800023FB00F039F90AF0D9FA80B9104B1B68E7
:1065900013F4804F03D00F4B1B68032B0CDC03B0AC
:1065A0005DF804FB0C4A742113F022FCE7E70A4A69
:1065B000782113F01DFCE9E7084BD3F80435084AAD
:1065C00000927A220749042005F0EAFCE7E700BFC1
:1065D000042E0020002E0020340D04000010014085
:1065E000880E0400590D040008B5FFF771FFFFF78E
:1065F000C1FF00210F2000F081F80222C8210F20E6
:1066000000F092F8FFF7CCFEFCE74FF0A043D3F880
:106610000435C34013F0010F0CBF01200020704768
:1066200070B505460024264600E00134032C0AD844
:106630000123A3402B42F8D0044B185DFFF7E5FF80
:10664000A0400643F1E7304670BD00BFC40E040011
:1066500008B511B112F0DBFF08BD12F0D1FFFBE766
:1066600070B50546002400E00134032C0FD8012347
:10667000A3402B42F8D0064B1E5D3046FFF7C5FF06
:1066800080F00101C9B23046FFF7E2FFECE770BDD0
:10669000C40E040010B5144B1B684BB1134B1868A3
:1066A000FFF7DEFF104B1C68013C1C6024B110BDDD
:1066B000002013F08FFBF1E70D4819F05FFF00E0B9
:1066C0000134032CF3D80123A340084A1268134273
:1066D000F6D0084B1968E14001F00101064B185D46
:1066E000FFF7B6FFECE700BF502E0020542E00202D
:1066F000582E0020782E0020C40E040070B50546E8
:106700000E46002400E00134032C09D80123A340E5
:106710002B42F8D03146034B185DFFF799FFF2E7A3
:1067200070BD00BFC40E040042B310B50C46134642
:10673000132900D810BD124A10605B00013B114ABA
:106740001360FFF76DFF104B1860610CE40314F544
:10675000FA704FF47A724FF0000341F1000119F022
:106760004DFF01460022094819F0E6FE0028E1D15C
:106770000121034B1868FFF7C1FFDBE7704700BF3B
:10678000542E0020502E0020782E0020582E00205D
:1067900010B582B012F0C8FE40B10024ADF804403C
:1067A0008DF8064001238DF8053007E012F074FEE5
:1067B0000028F2D013F00EFBEFE70134032C09D8C8
:1067C00001A90A4B185D12F0B9FE0028F5D013F0AC
:1067D00001FBF2E7064A0121064819F097FE08B9C5
:1067E00002B010BD13F0F6FAFAE700BFC40E0400C1
:1067F00095660200C00E0400002800F082802DE99A
:10680000F04FD1B004463F4B1B6813F4804F03D0C8
:106810003D4B1B68032B31DC3A4B1B6813F4804F54
:1068200003D0394B1B68032B2ADC51B0BDE8F08F35
:10683000E25C36490D68100959002E5C0FA800F87B
:10684000136002F00F020131AA5C425401330F2B96
:10685000EED90FAA00238DF85C3003F1804303F5D5
:106860008833D3F804350292294A0192294A0092CA
:1068700042222949042005F093FBCDE70023E6E7F7
:10688000264BD3F804350D932068020202F47F02F0
:1068900042EA0062010A01F47F4142EA0108B4F8C9
:1068A00004C04FEA0C2292B2B4F806E04FEA0E217F
:1068B00089B2257A667AA77AE37A94F80C9094F8EC
:1068C0000DA094F80EB0E47B0B94CDF828B0CDF871
:1068D00024A0CDF82090079306970596049541EAE9
:1068E0001E21039142EA1C22029248EA10600190A4
:1068F0000B4A00920D9B43220749042005F050FBF0
:1069000093E77047042E0020002E0020082E002060
:10691000000F0400140F0400ED0E040000100140ED
:106920001C0F040060DF704769DF704708B503F093
:10693000C9F808BD10B588B012F0DAFF00282CD1D4
:10694000224B0793079A069200230393049305931F
:1069500003A90120FFF7E8FF10BB00230393049372
:106960000593F8230393069A03A9A120FFF7DCFF00
:10697000C8B906A8FFF7D6FF0446069A079B9A42B5
:1069800008D0134B1B6813F4804F03D0114B1B68C6
:10699000012B0BDCB4B908B010BD13F01BFACFE724
:1069A00013F018FAD9E713F015FAE2E70A4BD3F817
:1069B00004350192094A0092AB220949022005F0F0
:1069C000EFFAE7E7204613F005FAE4E7F02D0020A0
:1069D000042E0020002E0020001001409C0F040017
:1069E000810F04000620704700B587B044F2010310
:1069F00098425DD01BD8012836D041F2010398425D
:106A000071D1474B1B6813F4804F36D0454B1B6840
:106A1000002B32DD444BD3F8043502920191434AF6
:106A2000009263224249012005F0BAFA25E044F2BF
:106A30000203984257D13A4B1B6813F4804F1CD085
:106A4000384B1B68002B18DD374BD3F80435106822
:106A50000390526802920191364A009269223449A9
:106A6000012005F09DFA08E02D4B1B6813F4804FC0
:106A700003D02C4B1B68002B0DDC4FF0A0434FF4D0
:106A8000F012C3F81825C3F80C25EFF3108372B683
:106A90004DF6AD6C3DE0244BD3F8043502920191E4
:106AA000254A009260222249012005F079FAE4E7A4
:106AB0001B4B1B6813F4804FDFD01A4B1B68002B55
:106AC000DBDD194BD3F8043510680490506803904F
:106AD000029192680192194A00927322144901208E
:106AE00005F05EFAC9E70E4B1B6813F4804FC4D063
:106AF0000C4B1B68002BC0DD0B4BD3F80435019108
:106B00000F4A00927B220A49012005F049FAB4E7B6
:106B100030BF0C4B1B78002BFAD107B05DF804FB9B
:106B2000042E0020002E0020001001402C10040034
:106B3000FD0F040050100400101004007010040039
:106B400094100400F02D002000B583B0014600230E
:106B50000093054B01936A4644F20200FFF744FF9D
:106B600003B05DF804FB00BF9010040010B40346AE
:106B7000044C006859689A68DB680FC45DF8044BE0
:106B8000704700BF7C2E00200E4B4FF0805202F168
:106B9000600103C983E8030003F1080CA43292E802
:106BA00003008CE8030093F9062002F00F0242F084
:106BB00040029A7193F9082002F03F0242F08002ED
:106BC0001A7270477C2E0020004870477C2E0020EF
:106BD000002308E0074901EBC30000224280426025
:106BE00001F8332001331F2BF4D9034B00221A6024
:106BF000704700BF8C2E00208C2F002000B58646E9
:106C0000114B1B684FF0000C0BE01F230F4A12F8CA
:106C10003300B0B102EBC3025288724509D00CF1C7
:106C2000010CBCF11F0F0BD85A1E002BEDD01346E0
:106C3000ECE7064A02EBC30252688A42EFD100E059
:106C400000205DF804FB00BF8C2F00208C2E00205C
:106C500010B40B4A13680B4C04EBC30CACF80200E5
:106C6000CCF80410012104F833100B441360202BDE
:106C700002D05DF8044B7047134600221A60F8E713
:106C80008C2F00208C2E00200021072918D830B42A
:106C900002E00131072910D84FEA011C094C34F8F1
:106CA0000CC08445F5D104EB0114A568E4689C424E
:106CB00008BF9542EDD1012000E0002030BC7047B4
:106CC00000207047902F002030B4C3698469C188C8
:106CD0004FEA132C1B06C4F30C028A4218D28A1AFC
:106CE0002244A2F500529A184CF100010A4C236884
:106CF0005D1C256003F00703B0F814C007481C01B1
:106D000000EB031320F804C09A60D96030BC7047D0
:106D10008A1A2244E7E700BF10300020902F00209D
:106D2000C37D9BB1C3780A7802F080020A7003F039
:106D30007F0313430B7002780B7803F07F030B7013
:106D400043EAC2130B7003789BB97047C3780A7883
:106D500002F0BF020A709B0103F0400313430B7063
:106D6000027903F0C0030B7002F03F0213430B7073
:106D7000E1E700B58378082B14BF002201224B788D
:106D800003F07F034B7043EAC2134B70B0F806E088
:106D9000DAB202F080024A70CEF3861C4CEA02029C
:106DA0004A708B7803F003038B7043EA8E038B7079
:106DB00090F808E0DAB202F0FC028A70CEF3C10C5F
:106DC0004CEA02028A70CB7803F01F03CB7043EACF
:106DD0004E13CB70437ACA7802F0E002CA7003F017
:106DE0001F031343CB705DF804FB00000023032B4B
:106DF00031D810B402E00133032B28D8C3EBC3020F
:106E0000164C04EB021292F84820012AF3D1C3EB8E
:106E1000C30204EB0212948AC2899442EBD1C3EB01
:106E2000C3020E4C04EB0212D2888A42E3D1C3EBB8
:106E3000C30204EB0212B2F8582012B1848AA242B3
:106E4000D9D1C3EBC303054800EB031000E00020D9
:106E50005DF8044B70470020704700BF3C300020B5
:106E6000002300E00133032B16D8C3EBC3020B4908
:106E700001EB021292F84820022AF3D1C3EBC302BD
:106E800001EB0212918A828A9142EBD1C3EBC303D8
:106E9000024800EB03107047002070473C30002090
:106EA00008B9042070470820704700B503468C4697
:106EB0000978C17000214162DCF808100B2904D860
:106EC0009CF80C1029B3012100E001211970002069
:106ED000987031B1DCF808100731C90801395972CE
:106EE00018720121D97503F10C0E0CF1100103C9C0
:106EF0008EE80300BCF80E109982DCF818101962B5
:106F00009CF81C109975DCF82010D9629A625DF823
:106F100004FB0021DAE7000000210E4B1B688B42C6
:106F200016D9002300E001330B4A02EBC10252687C
:106F30009A420BD9084A52F8312002EBC30C12F8DE
:106F400033208242EFD1DCF8040070470131E4E7DE
:106F500000207047143000201830002070B58CB02D
:106F600006460D4614462C22002101A819F0A9FC62
:106F70000F238DF80430ADF808609DF80A3065F3F2
:106F800000038DF80A308DF80B4001A801F014FAC7
:106F90000CB070BD30B58DB005460C462C220021DA
:106FA00001A819F08EFC10238DF8043002958DF89D
:106FB0000C4001A801F000FA0DB030BD00B58DB055
:106FC00010B913F1020F06D1074B186803F0C2FE87
:106FD0000DB05DF804FB01218DF8041002930392BB
:106FE00001A801F0E9F9EFE72030002070B5049C1A
:106FF000002962D01D468E46D2F800C051689668BE
:10700000D368C4F80CC021616661A361D2F810C0D6
:107010005169C4F81CC02162002363700278D20950
:1070200022705AB30423734549D8E17D41B30378F4
:1070300003F07F03E3700023A3709AB143789B01B0
:1070400003F4FE53827843EA9203E3808378DB0003
:1070500003F01803C27843EA52132372C37803F093
:107060001F036372002363622B78032B21D82A78D5
:10707000144B53F82230E362002070BD0123D2E7A5
:107080000178C1F38011E170017801F03F012171B5
:1070900042B190F90130002B02DB0423A370CCE74E
:1070A0000823FBE70421A1700B447345C5D90920CF
:1070B000E3E77846FFF748FDD9E70920DDE7092037
:1070C000DBE700BF2412040070B50C461D460378B0
:1070D0009BB104263244A26000F10C032360836A52
:1070E0006360C36AE36000232374204604F0A8F9B8
:1070F00010B963691E442E6070BD0126EAE72DE9D0
:10710000F0418EB00D4616461C46804600282DD014
:10711000002D2FD0002C31D0636A0233059304F187
:107120000C00E378002B2DD00121A27801AF3B4663
:10713000082A14BF0022012203F059FF0697CDF858
:107140001C80B2B2ADF820200B9515440C95A378A5
:107150008DF83430237B022B16D00023ADF8283075
:1071600005A803F03CFF0EB0BDE8F0817846FFF7BC
:10717000EBFCCDE77846FFF7E7FCCBE77846FFF777
:10718000E3FCC9E70221D0E723692BB12369099306
:107190001023ADF82830E3E77846FFF7D5FCF5E794
:1071A0002DE9F04188B004460D46C37D002B3CD04C
:1071B000082605FB06F8637AAB4238D0257201AB8E
:1071C000324602A92046FFF77FFF074648BB4DB96C
:1071D00094F8533033B9A369C3F30C03E38001235C
:1071E00084F85330E37D7BB994F8523063B91DBB0A
:1071F000E06EB4F84A10A27823468A1A0146FFF7D7
:107200007EFF012384F8523007992046FFF788FD5E
:10721000E16E32464144019819F02AFB02A804F0BD
:1072200035F9384608B0BDE8F0810C26C1E7B4F85E
:107230004A60A6EB0806C1E77846FFF785FCD7E76A
:1072400070B505460E4609B100230B6095F8504015
:10725000002104E0631C85F850300134E4B26B7AFD
:10726000A34210D3EA6C0123A3401A42F5D1214670
:107270002846FFF795FF014628B9002EEAD033686B
:1072800001333360E6E7084670BDF0B589B00446C7
:107290000E46154683789A18C37D63B10B239A4234
:1072A00021D801AB02A92046FFF70EFF074620B107
:1072B000384609B0F0BD0F23F1E707992046FFF7E4
:1072C0002FFDE37D43B12A463146019819F0D0FAEB
:1072D00002A804F0DBF8EBE723462A460199304682
:1072E000FFF70DFFF4E70927E2E7000010B50446B9
:1072F00090F84830012B0CD102F0DCFE237B012BEF
:107300000BD0094BD968014404F1300002F09EFE15
:1073100010BD7846FFF718FCEEE7A27D024BD96856
:107320001B6903FB0211EEE72430002030B583B067
:10733000002403E02846FFF7D9FF0134032C18D8B6
:10734000C4EBC4030C4A02EB031393F84830012B3F
:10735000F3D100230193C4EBC40502EB051501A989
:107360002846FFF76DFF0428E4D0019B002BE4D0F2
:10737000E0E703B030BD00BF3C30002038B5044624
:1073800090F84830022B09D1064B1D6802F092FE9E
:10739000411904F1300002F059FE38BD7846FFF77C
:1073A000D3FBF1E72430002038B5044690F848308C
:1073B000022B10D10A4B5A7D5D689B6803FB025576
:1073C00002F078FE411904F1500002F03FFE012363
:1073D00084F8683038BD7846FFF7B6FBEAE700BFAF
:1073E0002430002010B50446808A02F0AFF901284D
:1073F0001CD1237BE3B194F91620002A1ADBE27D2D
:107400004AB1022B18D094F90330002B16DBA37875
:10741000B3B900200BE0E2780AB9012B12D123782E
:1074200093B9A378042B11D1002000E0102010BDE7
:107430001020FCE70720FAE71020F8E70720F6E71E
:107440000720F4E70720F2E70020F0E70720EEE747
:1074500038B5044603784BB1C388C2698169808A14
:1074600005F0BCF9054645B9284638BDC2698169B1
:10747000808A05F0ADF90546F5E7E169002201F0E3
:107480000101A08AFFF76AFDEEE700002DE9F04751
:1074900080460E4617464B1EDBB2012B0FD8B7F5C0
:1074A000C07F10D80024032C1AD8C4EBC403314A7F
:1074B00002EB031393F848304BB10134F3E77846FD
:1074C000FFF742FBEBE77846FFF73EFBEAE7C4EB4A
:1074D000C40502EB0515384607F0BBF8E86600E086
:1074E00000255DB3EB6E002B42D043462C4608F1DD
:1074F000300ED3F800C058689968DA68C4F800C044
:107500006060A160E260103310347345F1D1002354
:10751000EB64A5F84A70012E13D06FF00103AB6243
:10752000002385F86830144BAB652D66134BAB63B5
:107530002D64012001F058FE85F848602846BDE81A
:10754000F0870F4B1B7D85F85130002385F85230B2
:1075500085F8533085F85030D8F828206A65A5F8AA
:1075600058306FF00103AB62064BAB632D64E0E76C
:107570001D46E3E73C300020C77F0200D9780200B7
:10758000243000202579020000B585B000228DF856
:107590000F20A0B10B46024602320A600DF10F0126
:1075A000184603F020FD9DF80F3043B10C4B1B68CB
:1075B00013F0040F03D00B4B1B68032B04DC9DF866
:1075C0000F0005B05DF804FB074BD3F80435074AFC
:1075D000009240F215420649042004F0E1FCEEE777
:1075E000042E0020002E002000100140DC100400BA
:1075F000CF1004002DE9F04391B005460E46144625
:107600001F46D0F8188003784BB1C388C8F30C022A
:107610009A4230D29B1A4344A3F50053AB6105F163
:107620000C00EB7853B30121AA780DF130094B46D9
:10763000082A14BF0022012203F0D9FCC5F81880E3
:10764000CDF810900596AB78E21A92B2ADF81820FA
:1076500032440A9209978DF82C300023ADF820307F
:10766000EB78002B41D02B7B022B09D000236B62DF
:107670000193029316E09B1A4344CFE70221D3E71C
:107680001023ADF820302B690793EFE710AB03EB25
:10769000840454F83C3C6B62002011B0BDE8F083D8
:1076A000019BB3B102AB01AA2979286A0EF006FD4D
:1076B0000024012CF4D810AB03EB840353F83C0CEA
:1076C0000028EDD003A9FFF75FFF0028DED10134C9
:1076D000EFE72B7B022B2CD105F10C01E8890EF092
:1076E000A7FD0028BFD10520D7E72B7B012B01D0B8
:1076F0000520D2E7EB89ADF80430AB8AADF806304F
:107700000024012C13D82946002341F8243F10AB54
:1077100003EB440333F83C0C0EF0F5FC03A9686A54
:10772000FFF732FF08B90134EBE70020B5E7052089
:10773000B3E70520B1E7000070B5F0B00E4614467F
:107740001D4610AB0A4601462046FFF753FF50B1D5
:10775000224B1B6813F0040F03D0214B1B68052B31
:107760002FDC70B070BD2046FFF772FE0028F8D104
:1077700003AB01228DF80C20A28AADF80E20002266
:1077800004928DF8142010AA0692A178711AADF80F
:107790001C1008AA93E8030082E803000AAB04F176
:1077A0000C0292E8030083E80300A37D8DF83830D3
:1077B000236A0C93636A0D930F9505A800F0FCFDF6
:1077C000CFE7084BD3F80435074A009240F2037222
:1077D0000649062004F0E4FBC3E700BF042E0020A6
:1077E000002E002000100140F0100400CF10040013
:1077F00010B50446C06E06F030FF04F1300002F010
:107800000DFC94F84830022B08D07022002120464D
:1078100019F057F8002001F0E7FC10BD04F150000A
:1078200002F0FCFBF1E710B58CB0044690F848304C
:10783000012B0FD101238DF80430636D029302F008
:1078400039FC039001A800F0B7FD2046FFF7D0FFF8
:107850000CB010BD7846FFF777F9EBE730B585B08F
:107860000D460446A8B194F84830022B15D029469D
:10787000606DFFF78FFB2046FFF7BAFF114B1B68C7
:1078800013F0040F03D0104B1B68032B09DC05B069
:1078900030BD7846FFF758F9E5E72046FFF714FAC0
:1078A000E5E70A4BD3F8043594F848200295019295
:1078B000074A009240F2F3120649042004F070FBDC
:1078C000E5E700BF042E0020002E0020001001403C
:1078D0001C110400CF10040008B508460021FFF772
:1078E000BDFF08BD08B5037B012B02D0FFF79BFF4E
:1078F00008BD0121FFF7B2FFFAE7000008B590F8D4
:10790000513053B1013B80F85130002380F85030A2
:10791000034B186803F01EFA08BDFFF7E3FFFBE70F
:107920002030002010B50C4691F84830012B03D1CF
:107930002046FFF7E3FF10BD7846FFF705F9F7E7AC
:1079400070B5C6B00E46154682782A44C37D2BB169
:107950004FF48073934278D3002303E04FF4C07355
:10796000F8E70133032B14D8C3EBC30C394C04EBF9
:107970000C1C9CF848100129F3D1BCF81440818AF2
:107980008C42EED1BCF80E40C1898C42E9D1082569
:1079900054E00121FFF77AFD0446002857D02A461B
:1079A0003146C06E18F064FF0023459345A9204678
:1079B000FFF746FC054608B1042842D1459B8BB928
:1079C000254B1B6813F0040F37D0244B1B68032B87
:1079D00033DDB4F84AC0BCF1800F28BF4FF0800CF3
:1079E000002313E02046FFF781FCE9E7E26ED25C5A
:1079F0001B490D68100959002E5C04A800F813609B
:107A000002F00F020131AA5C425401336345EDD309
:107A100004AA002302F81C3003F1804303F58833E5
:107A2000D3F8043502920F4A01920F4A00924FF4A4
:107A3000AC620E49042004F0B3FA0025284646B093
:107A400070BD2046FFF7D4FEF8E70925F6E70425C8
:107A5000F4E700BF3C300020042E0020002E002060
:107A6000082E002040110400140F0400CF10040061
:107A700070B504460D461646FFF7B4FC30B92378BE
:107A80002BB1324629462046FFF75AFF70BD3246D9
:107A900029462046FFF7F9FBF8E7000038B5044611
:107AA0000D46CB695B780371CB691B7883F00103CA
:107AB000C370CB6943628B8A0B2B07D8CB7A002B20
:107AC00035D10B7B012B02D0002300E00123237072
:107AD000002B31D0287B02282BD0FFF7E1F9A070D2
:107AE000AB8A03440B33174A82FB03235B10013B31
:107AF0006372002323720023E37504F10C0395E8FD
:107B0000030083E80300AB6923622B89A382AB7A6D
:107B1000A3752B6AA362DF23E36228460EF0B6FB4F
:107B200020B12B78012B0AD0FF23E36238BD01235B
:107B3000CDE7054B987DD0E70423A370DBE7202336
:107B4000F3E700BFABAAAA2A24300020062979D186
:107B5000F0B585B0154690F800C04FEA8C1202F4DB
:107B6000FE5241788478C3781B0443EA04630479A5
:107B700043EA042344791C434FFA8CF642EA91010C
:107B80002846FFF733F90746E0B1002E2FDBC28904
:107B9000A98A8A422BD02C4B1B6813F0040F30D0DB
:107BA0002A4B1B68012B2CDD294BD3F8043502919D
:107BB0000192284A009240F27D622749022004F097
:107BC000EFF91EE0204B1B6813F0040F19D01F4B78
:107BD0001B68012B15DD1E4BD3F804351F4A00929C
:107BE00040F279621C49022004F0DAF909E0002E23
:107BF00009DBFD6C2543FD644CB903213846FFF7D2
:107C00002DFE05B0F0BDAB8AA7F85830F1E73B7800
:107C100083B17B7A5A1C01239340013B9D420DD0D6
:107C2000002187F850103846FFF70AFB3846FFF767
:107C30005DFBE6E77846FEF787FFEAE73846FFF7A1
:107C4000F2FDDEE7704700BF042E0020002E00206A
:107C50000010014080110400CF10040050110400F6
:107C60002DE9F0438BB007460E4614461D461046DC
:107C7000FFF7EEFB50B994F80380B8F1000F08D17C
:107C80002B46224631463846FFF760FF0BB0BDE871
:107C9000F0834046FFF740F981460028F6D08DF882
:107CA0000480236A0793A38AADF8123005AB04F170
:107CB0000C0292E8030083E80300A37D8DF82030D6
:107CC0000297039623788DF81030E36A09932946CA
:107CD00001A8C847DAE792F801C01CF0010F08D0EC
:107CE00010B5D47D14B1FFF7BBFF10BDFFF724FD25
:107CF000FBE7704708B501390130FFF7ECFF08BD1D
:107D000010B54FF4E0720021134818F0DAFD04F0CA
:107D100031FD0024114B1C6080222146104818F0D0
:107D2000D0FD104B104A1A60104A5A604CF2503283
:107D30009A600F49D9601A6104221A759C7508224D
:107D40005A750C4802F0E6FF0B4B18600B4B1C6099
:107D50000B4805F00DF810BD3C300020103000201D
:107D6000902F00202430002080969800F0490200D7
:107D700020A10700B97F020020300020143000202D
:107D8000BD6F020008B504F015FD08BD98B110B52F
:107D90008CB00446036983B1C36983B1836983B13D
:107DA00001466846FFF77AFEA28A21696846FFF716
:107DB0005FFE0CB010BD0E2070470E20F9E70E20BC
:107DC000F7E70E20F5E7000058B310B590B00A466B
:107DD000044643683BB383693BB3014604A8FFF7FD
:107DE00064F8134B1B6813F0040F03D0114B1B688E
:107DF000062B06DCA268616804A8FFF739FE10B004
:107E000010BD0D4BD3F804352278A169029101927F
:107E10000A4A009240F605020949072004F0C0F81A
:107E2000E8E70E2070470E20E9E70E20E7E700BFE5
:107E3000042E0020002E002000100140C411040078
:107E4000CF100400037B012B01D00020704730B518
:107E500091B004460D463F4B1B6813F0040F03D04E
:107E60003D4B1B68032B5ADC04A8002304930593A5
:107E7000CDF81730B4F806E09DF8101001F080013D
:107E80008DF81010CEF3861C4CEA01018DF810100D
:107E90009DF8112002F003028DF8112042EA8E02B3
:107EA0008DF811202A0E8DF812202A0C8DF813203F
:107EB0002A0A8DF814208DF815506278022A0CBF1A
:107EC000012119469DF8102002F07F028DF8102044
:107ED00042EAC1128DF810204FF0060209924FF0CD
:107EE00001028DF82C20A28AADF82E200C938DF87B
:107EF0001C300890226A0D928DF82830E36A0F93A7
:107F000019D0E389ADF82A30A37DF3B98DF8383064
:107F10006FF0010107A8FFF757FF11B030BD0F4BFD
:107F2000D3F804350E4A009240F263220D49042032
:107F300004F036F898E70DF10E0103A80EF094F95D
:107F4000BDF80C30ADF82A30DEE7074B5B7D8DF8CD
:107F50003830DDE7042E0020002E00200010014004
:107F6000F0110400CF1004002430002090F84830B5
:107F7000022B00D0704710B5044690F86830022BF1
:107F800000D010BDC16CFFF75DFF0028F9D10023C0
:107F900084F86830F5E7000010B5002407E0C4EB72
:107FA000C402130103481844FFF7E0FF0134032C17
:107FB000F5D910BD3C30002008B5FFF7B7F9FFF741
:107FC000EBFF012008BD10B50C4691F84830022B9C
:107FD00006D1022384F868302046FFF7C7FF10BDA2
:107FE0007846FEF7B1FDF4E7F0B583B00446C0690A
:107FF000A369E188060A0006C3F30C0291422FD957
:108000008A1A1A44A2F50052851846F100062A463B
:108010003346A08AFEF738FE002840F089802046CB
:10802000FEF71EFF074630B3C269D0F818C0C388F8
:10803000100A1206CCF30C01994214D2591A614469
:10804000A1F50051521840F10003AA4273EB06015A
:108050000DD3954276EB030330D3384603B0F0BD21
:10806000891ACA18D0E75B1A03EB0C01EAE705216D
:108070003846FFF7F3FBE388E269A169A08A04F0C0
:108080007FFCE8B9627A0132E37DA3B3082101FBEA
:1080900002F293B34FF48073934231D3022120460E
:1080A000FFF7F4F907460028D7D100212046FFF753
:1080B000C9FE02210020FEF76DFFCEE70027CCE7C6
:1080C000E388E269A169A08A04F0D2FC08B900271C
:1080D000C3E723785BB1637A013301219940013909
:1080E0002046FFF7AFFE2046FFF7B2F9EFE77846EC
:1080F000FEF72AFDEFE70C21C9E74FF4C073CBE789
:108100000C4B1B6813F0040F03D00B4B1B68002BA8
:1081100001DC0027A1E7094BD3F804350192084A96
:10812000009240F27F320749012003F039FFF0E767
:10813000002792E7042E0020002E002000100140AE
:1081400000120400CF1004002DE9F04182B0074670
:108150000E46144698461046FFF746FF002846D0C4
:108160000546404B1B6813F0040F03D03E4B1B68C1
:10817000032B3FDC2846FFF701F92B7B012B47D06F
:10818000EB6C217A01228A40134230D11343EB6415
:10819000043E237AE27D002A42D04FF0080C0CFB0B
:1081A00003FC697A8B423ED0002A41D00823B342B7
:1081B00040D1AA69A3699A4209D205F10C0E0C3488
:1081C0000FCCAEE80F0094E803008EE80300E86EE1
:1081D0003246391D604418F04BFBEC6C2B7873B3BE
:1081E0006B7A5A1C01239340013B9C422BD002B076
:1081F000BDE8F0811D4BD3F80435227A01921C4A68
:10820000009240F2A3321B49042003F0C9FEB1E7FB
:1082100095F86830002BB3D12846FFF7C5F8AFE7D3
:108220004FF00C0CBBE70CEB0603A5F84A30C0E797
:108230000C23BCE704212846FFF710FBD7E778465C
:10824000FEF782FCCCE7E96C2846FFF7FBFD4346CE
:108250002A46B5F84A10E86EFFF73DFD2846FFF7BD
:10826000C7FAC4E7042E0020002E002000100140B1
:1082700014120400CF1004002DE9F04190B0002842
:108280004CD00F4614461E468046002A48D004AB08
:1082900000933346FEF7AAFE054618B1284610B0F3
:1082A000BDE8F08104A8FFF79DF805460028F5D148
:1082B00000230293039302A960880DF0B9FF28B14F
:1082C0009DF8113043F001038DF811302269E16807
:1082D000208904F00DFB38B19DF8113003F0FE0346
:1082E0008DF81130002BD9D09DF81130002BD5D04E
:1082F00013F0010F01D0039B08939DF8103033B1A8
:10830000334604AA39464046FFF71EFFC6E7334608
:1083100004AA39464046FFF7EDFCBFE70E25BDE74E
:108320000E25BBE7F8B508B30E460546164B1F6889
:10833000F7B93C46B4420FD205EBC4035B68D3B136
:1083400015F8340015F93430002B16DBB8B1FEF700
:10835000E3FDB0B90134EDE70C4B43F8375003EBC4
:10836000C7035E607B1C084A136002E00E2700E032
:1083700004273846F8BD0E27FBE70B27F9E70F2740
:10838000F7E70F27F5E700BF143000201830002072
:10839000084B196861B110B501E021463CB10C6889
:1083A0000B79002BF9D0034803F065FDF5E710BD0C
:1083B000704700BF0032002038B5054630B1104B81
:1083C0001C68C4B10F4B01221A7004E07846FEF716
:1083D000BBFBF4E724683CB12379002BFAD154F8B5
:1083E000043C28469847F5E7064B1B78022B03D040
:1083F000044B00221A7038BDFFF7CAFFF8E700BF30
:1084000000320020FC31002010B5044630B10023BA
:108410002372211D034803F003FD10BD7846FEF7CB
:1084200093FBF4E70032002010B5044658B10A4B24
:108430001B78013BDBB2012B09D8074B02221A70D3
:108440000123237210BD7846FEF77EFBEFE7211D66
:10845000024803F010FDF5E7FC3100200032002057
:108460000A8883689B5A07339BB223F003031344A3
:108470009BB20288043A934200D900230B807047D4
:1084800010B582B004468368C91AADF806100DF124
:108490000601FFF7E5FFBDF80630A068184402B0FA
:1084A00010BD0088043880B2704743888268D018B5
:1084B000D1520123837070478268002393704380F8
:1084C0008380704708B5073189B221F0030189B272
:1084D000428883889A4204D29B1A994220DC002069
:1084E00008BD9A4212D9B0F800C0ACEB020C61454D
:1084F00018D98B4218D3BCF1030F03D983681344F6
:1085000004229A70002343801846E9E782681344E6
:108510009B780BB10420E3E7FFF7CEFF0020DFE7F5
:108520000420DDE70020DBE70420D9E738B5044666
:108530000D468368828813448B4202D07846FEF74A
:1085400003FB0023AB70211D2046FFF789FFA288A3
:10855000A36813449B78042B00D038BD0023A3806C
:10856000FBE710B50C468368428813448B4202D067
:108570007846FEF7E9FA0023A37010BD10B5044653
:1085800030B12388042B07D92046FFF78AFF10BD9E
:108590007846FEF7D9FAF4E77846FEF7D5FAF3E71E
:1085A00070B5054614460E46002944D0002D46D02D
:1085B000B6F1005F08D94FF08053D3F80C3103F5C2
:1085C0000023B6EB832F0ED3B6F5000F08D94FF07A
:1085D0008053D3F80C3103F50053B6EB832F02D34D
:1085E0007846FEF7B1FA631E3344B3F1005F08D951
:1085F0004FF08052D2F80C2102F50022B3EB822F0B
:108600000ED3B3F5000F08D94FF08052D2F80C21E9
:1086100002F50052B3EB822F02D37846FEF794FAAC
:10862000042C10D92C8000236B80AB80AE60043CFE
:108630003480B37070BD7846FEF786FAB6E77846A8
:10864000FEF782FAB4E77846FEF77EFAEAE738B535
:108650000446A0B16288A36813449B78012B12D012
:10866000EFF3108572B6A388A16819448B78032BA9
:108670000DD02046FFF720FF05B962B638BD784619
:10868000FEF762FAE6E77846FEF75EFAE8E720468C
:10869000FFF7F6FEA368C31A638000238370EBE73D
:1086A0002DE9F0410E4614460546D0B1EEB16A8878
:1086B000AB6813449B78012B1BD024B32846FFF7EB
:1086C000F0FEA04221D3EFF3108872B6214628466F
:1086D000FFF7F8FE074680B1B8F1000F16D162B679
:1086E00014E07846FEF730FAE0E77846FEF72CFA19
:1086F000DDE77846FEF728FADFE721462846FFF750
:10870000D4FE3060E8E7092700E009273846BDE8D5
:10871000F081F8B50C4615460646E0B1FCB1A378E9
:10872000012B20D12388AB4221D325B3EFF310874F
:1087300072B625800223A370F1183046FFF790FE31
:108740007388B288934203D0B268134400229A70AF
:1087500007B962B6F8BD7846FEF7F6F9DEE7784667
:10876000FEF7F2F9DBE77846FEF7EEF9DAE778464E
:10877000FEF7EAF9D9E77846FEF7E6F9D6E770B5ED
:108780000C46054690B1ACB1EFF3108672B6AA88DC
:10879000AB6813449A78042A10D09A78022A15D02C
:1087A000032A18D0052006B962B670BD7846FEF7D8
:1087B000CBF9E8E77846FEF7C7F9E5E7291D284633
:1087C000FFF74EFEAA88AB681344E6E703229A70CF
:1087D00023600020E7E77846FEF7B6F90020E2E7DD
:1087E00038B5044680B1EFF3108572B6A088A16851
:1087F00001448B78042B0BD08878022814BF00200A
:10880000012005B962B638BD7846FEF79DF9EAE762
:108810002046FFF735FE0146EEE738B5054630B194
:10882000EFF3108472B6A888A968014407E078467F
:10883000FEF78AF9F4E72846FFF722FE014688781A
:10884000C31EDBB2012BF6D9022814BF0020012081
:1088500004B962B638BD70B50C46064678B194B11D
:10886000EFF3108572B6A378012B10D0032B13D130
:1088700021463046FFF75AFE05B962B670BD78460C
:10888000FEF762F9EBE77846FEF75EF9E8E7214686
:108890003046FFF766FEEFE77846FEF755F9EBE75F
:1088A00010B5EFF3108472B68388816819448B7811
:1088B000042B06D08878B0FA80F0400904B962B67B
:1088C00010BDFFF7DDFD0146F4E70000024B18780C
:1088D000003818BF0120704704320020014B18688F
:1088E000704700BF2032002010B5044680B1636895
:1088F0001BB123680BB1A36813B97846FEF724F9BE
:10890000A3685A1E134207D10023E360236110BD00
:108910007846FEF719F9EAE77846FEF715F9F3E726
:1089200070B5F0B10446F1B18368F3B1EFF310858F
:1089300072B6036986689A19C3689A420DD00068B6
:108940006268013E334003FB020017F091FFE368C9
:108950000133E3605DB962B60AE005B962B6042589
:1089600006E00E2504E00E2502E0092500E00025C2
:10897000284670BD70B508B30E4604468368FBB147
:10898000EFF3108572B60369C268934212D0016892
:108990004268806800F1FF3C03EA0C0303FB02110C
:1089A00016B1304617F064FF2369013323614DB9D6
:1089B00062B608E005B962B6052504E00E2502E0BE
:1089C000092500E00025284670BD00000246C0F3DE
:1089D0000B0030BB39B301F6FF714FEA113C134B6A
:1089E0000221C3F80415114BD3F80034002BFAD040
:1089F00001460AE00D4BC3F808250C4BD3F80034B0
:108A0000002BFAD002F5805201316145F2D3074BB9
:108A10000022C3F80425054BD3F80034002BFAD00C
:108A20007047102070470920704700BF00E00140E8
:108A3000844610F0030F2DD111F0030F2CD16AB32F
:108A400012F0030F2CD19008164B0122C3F8042515
:108A5000144BD3F80034002BFAD003E00CF1040CD3
:108A600004311046421E58B10B68B3F1FF3FF5D0F8
:108A7000CCF800300B4BD3F80034002BFAD0EDE7E4
:108A8000084B0022C3F80425064BD3F80034002B12
:108A9000FAD07047102070471020704709207047A7
:108AA0000920704700E00140094B1B7813F0040FC8
:108AB00002D00378122B00D07047064B1A68064B81
:108AC0005A60034B1A786FF382021A70F4E700BF02
:108AD000C8320020B83200205432002010B582B0D5
:108AE00001900C46BDF80630012B11D123680A49CC
:108AF0000B600A4B1A7842F001021A70D3B25B087D
:108B000083F0010303F001030B71002002B010BDDC
:108B10007846FEF719F8E9E7B8320020C83200209D
:108B200010B582B001900C46BDF80630022B0FD173
:108B30002268094B1A6022791A71002058719871C5
:108B4000D871064A137843F00203137002B010BDC7
:108B50007846FDF7F9FFEBE7B0320020C83200207D
:108B600010B582B001900C46BDF80630032B06D13B
:108B7000054B186820601B79237102B010BD784640
:108B8000FDF7E2FFF4E700BFB832002010B582B075
:108B900001900C46BDF80630032B0CD1084B206821
:108BA000186022791A71074A137843F00103137091
:108BB000002002B010BD7846FDF7C6FFEEE700BF0B
:108BC000B8320020C832002010B582B001900C46A7
:108BD000BDF80630042B05D1044B03CB2060616047
:108BE00002B010BD7846FDF7AFFFF5E7B0320020C8
:108BF00010B582B001900C46BDF80630042B0BD1A5
:108C0000074B2068616803C3064A137843F00203E8
:108C10001370002002B010BD7846FDF795FFEFE716
:108C2000B0320020C832002000B583B00190BDF8FA
:108C30000630032B06D1054B00221A601A7103B0CF
:108C40005DF804FB7846FDF77FFFF4E7B8320020BB
:108C500000B583B00190BDF80630042B06D1054B5A
:108C600000221A605A6003B05DF804FB7846FDF7F5
:108C70006BFFF4E7B032002000B585B01A4B1B78CB
:108C800013F0400F13D0184B1B7813F0040F0BD1C7
:108C9000002301938DF80830144B5B6803F50053F3
:108CA0000193B3F1807F06D905B05DF804FB7846E7
:108CB000FDF74AFFE7E70E4B1B788DF808300A4AAC
:108CC000137843F0040313700023ADF80C30032332
:108CD000ADF80E3001A9039805F062F80028E3D042
:108CE0007846FDF731FFDFE7C8320020543200201C
:108CF000C932002000B585B00022019202920F4BCC
:108D0000996801911B7B8DF808300D490B78013370
:108D1000DBB20B708DF80B30ADF80C200423ADF8EE
:108D20000E300DEB0301039805F03AF810B905B0C9
:108D30005DF804FB7846FDF707FFF8E754320020A2
:108D4000C932002000B585B00023019302930F4A79
:108D500091680191117B8DF80810128AADF80920F5
:108D60000B4A12788DF80B20ADF80C300423ADF8C7
:108D70000E300DEB0301039805F012F810B905B0A1
:108D80005DF804FB7846FDF7DFFEF8E7543200207B
:108D9000C932002000B58DB00B4B1B7B012B0ED0D0
:108DA000094A926804928DF80830039002238DF8E6
:108DB000043001A8FFF700FB0DB05DF804FB024A88
:108DC0009268013A0492EEE75432002008B51D483B
:108DD0001D4B036000F06EFE1C4B1B7813F0200F40
:108DE0002AD103F00303032B14D1194B1968194A34
:108DF000916019791173B3F805001082DB79164A76
:108E00001370164A1279934217D0B1B9114B002250
:108E10001A6007E00F4B00221A609A601A731A82D8
:108E2000FFF768FF0B4B1A685A60084A137843F043
:108E300040031370FFF720FF08BD084B1A68054B6D
:108E40001A60EFE7A4320020A98A0200C83200208D
:108E5000B032002054320020C9320020B832002045
:108E600010B582B00024ADF800400123ADF8023007
:108E7000009804F0C7FFADF804400223ADF80630B7
:108E8000019804F0BFFF02B010BD000008B500203B
:108E900004F0E4FF094A0023136053609360D36039
:108EA0001361074A117863F345111170CBB243F097
:108EB00040031370FFF7E0FE08BD00BF54320020EE
:108EC000C832002038B50C4D00242C606C60AC60BA
:108ED000EC602C6101F0EEF8084B5860084A9A608B
:108EE000084ADA601C615C61074B1A7864F3C302BC
:108EF0001A706C6038BD00BF543200203032002040
:108F00006590020000879303C832002008B50C4B1F
:108F10001B7813F0100F00D008BD0A480A4B0360FD
:108F200000F0C8FDFFF752FFFFF79AFF074801F076
:108F300045F8034A137843F010031370ECE700BFC1
:108F4000C832002048320020BD910200303200209B
:108F5000034B1878800880F0010000F00100704792
:108F6000C832002010B501F057FE174B1B7B1BBB0E
:108F7000154B9B7B2BBB144B1A8A41F282639A429E
:108F800006D8124B1B7813F0080F05D0012300E020
:108F900001231BB9082410E00023FAE70A4B012241
:108FA0001A7300241C829A6801329A60FFF7A2FEAD
:108FB0002046FFF7EFFE00E0082401F073FE204694
:108FC00010BD0824F9E700BF54320020C832002049
:108FD00010B501F021FE214B5B7BABB11F4B9B7B9E
:108FE00003BB1E4B1A8A41F282639A4206D81C4B7D
:108FF0001B7813F0080F05D0012300E001239BB17B
:10900000012302E00023FAE700231C460BB3134BB5
:1090100000225A731B7B4BB1012B0ED07846FDF713
:1090200093FD16E00023F0E70023EEE7FFF79AFF39
:1090300078B17846FDF788FD0BE0084B00201860FA
:10904000586018731882FFF7A5FEFFF753FEFFF76D
:1090500013FE01F027FE204610BD00BF5432002051
:10906000C832002008B52C4B1B7BDBB1012B2ED066
:109070007846FDF769FD284A138A01339BB21382B3
:10908000264AA2FB03121209C2EB0212A3EB42030F
:109090009BB2002B3DD0204B5B8A13B1013B1E4A93
:1090A000538208BD1C4B1A8A41F282639A4206D849
:1090B0001B4B1B7813F0080F07D0012300E001239E
:1090C000002BD8D0FFF784FFE5E70023F8E7124B29
:1090D0001B8A41F28262934206D8114A127812F03A
:1090E000080F14D0012200E00122002AC3D042F26E
:1090F000B012934202D9084B01225A73FFF768FF5E
:109100000028C8D1044B5B7B012BB4D1C3E70022FC
:10911000EBE7FFF717FEBEE7543200208988888806
:10912000C832002010B5244B1B7B002B35D10446E0
:10913000214B5B8A2BBB1AB91F4B9B688B4205D313
:10914000FAB11D4B9B6801338B421AD21A4B9B68B4
:109150002A338B4223D3184B9B7B03BB164B99605E
:1091600000221A605A601A8242F6065159825A73D6
:109170001A73FFF7BFFDFFF77FFD2046FFF70AFEDA
:109180000DE062B10C4B9B6801338B4207D10A4B57
:1091900001225A73FFF71CFF01E0012B00D010BD24
:1091A000002AFCD1044B9B688B42F8D1024B012270
:1091B0005A73FFF70DFFF2E7543200200378042BB7
:1091C00000D0704743681B78002BFAD010B5846834
:1091D000027E437E012A14BF00220122416904F16C
:1091E0001000FFF79FFF10BD08B538B10D4B0122ED
:1091F0009A730D4A13680133136008BD0A4B1B684C
:109200005BB1094A1368013B1360002BF5D1054B94
:1092100000229A73FFF7DCFEEFE77846FDF794FC37
:10922000EFE700BF543200202432002000B58DB09B
:10923000ADF808008DF81020039103238DF8043059
:1092400001A8FFF7B9F80DB05DF804FB014B986871
:10925000704700BF54320020054B1B7B012B02D00E
:10926000034B98687047024B98680138704700BFFD
:10927000543200201D4B1B7813F0400F34D070B5D2
:1092800004460D461A4B1A685B689A4228D2184B5E
:109290001B7B012B17D0174B9A4216D2144B1A681E
:1092A0005B68403B9A4218D2EFF3108672B6104AC0
:1092B0001368591C11602B60FFF7CEFF206006B9C0
:1092C00062B6002070BD0C4BE6E7094B01225A73D1
:1092D000FFF77EFE0028E7D1E0E7FFF7CDFCE3E7EC
:1092E000FFF7CAFC0F20EDE70F207047C8320020BF
:1092F00054320020FFFF7F0000E0FF00044B9B681A
:10930000584010F0010F00D0013B1846704700BFD5
:1093100054320020014B187B704700BF54320020AC
:10932000F8B5104B1B7813F0200F01D00820F8BDC2
:1093300017460C4E43F0200333700B4DA860297381
:1093400000242C82FFF7D6FC2046FFF723FD2F6078
:109350006F60337843F040033370FFF78DFC204695
:10936000E5E700BFC8320020543200202DE9F0416B
:10937000002625E0134604FB03F3244AD25A304664
:10938000C0472249BC2304FB03F3CA5A0132CA5224
:109390000221284602F044FC01370221284602F04F
:1093A0000FFC014649B1194BBC2202FB0433D3F830
:1093B0000880B8F1000FDDD1E3E797B90136F6B2C6
:1093C000022E1FD83446BC2306FB03F308330F4D8F
:1093D0001D4404350221284602F0F2FB0146002715
:1093E000E0E7284602F084FC0828E7D1074BBC22BE
:1093F00002FB0434A368002BE0D00022044930466D
:109400009847DBE70120BDE8F08100BFD43200209F
:109410004412040008B5082383731023437300F13A
:109420001C0343610323037300F1180303610C3031
:1094300002F030FC08BD000008B50378012B06D00F
:10944000022B07D07846FDF77FFB002003E04FF4A6
:10945000A97000E0004808BD645E010008B503780B
:10946000012B07D0022B13D07846FDF76DFB4FF48C
:10947000FA7308E083685B1A9B084FF4A97000FB3D
:1094800003F303F5FA730748984228BF184608BD4E
:1094900083685B1A1B0B044800FB03F303F5FA73A4
:1094A000F1E700BF60850100645E010038B5044645
:1094B00001210C3002F084FB054678B1084BC4F85A
:1094C0009C300023C4F8A0306168FFF7C7FFC4F8E0
:1094D000A800C4F8AC40012384F8B830284638BD51
:1094E0000196020010B50446FFF7E0FF20B104F139
:1094F0009C000DF0BDFC00B910BD7846FDF724FBC3
:10950000FAE70000F8B505460C46164617680378DA
:10951000012B19D11249A1FB0431C9098B00AC6898
:10952000E41BB4EB810F00D31C468CB1686827F0B4
:109530000307E968224639443844FFF779FA58B9F5
:10954000336823443360F8BD7846FDF7FDFAE1E760
:109550007846FDF7F9FAE9E77846FDF7F5FAEFE71F
:10956000EB5DF260F8B506460C46154617680378C1
:10957000022B17D1114BA3FB04231B0C1A03B46855
:10958000E41BB4EB033F00D314467CB1706827F0B2
:10959000030721463844FFF719FA58B92B682344CA
:1095A0002B60F8BD7846FDF7CFFAE3E77846FDF784
:1095B000CBFAEBE77846FDF7C7FAEFE7B77609BBDA
:1095C00038B505460C4611462378012B06D0022BF0
:1095D0000FD07846FDF7B8FA002004E0021D2046BF
:1095E000FFF790FFA0686B68834214BF0020012042
:1095F00038BD021D2046FFF7B5FFA068F3E7000065
:109600002DE9F8430F46D1F8A850254B1B786BB9CC
:109610000446A5F5FA7501F10C080121404602F057
:10962000CFFA064648B14FF0000922E00DF05CFC8D
:10963000002387F8B830BDE8F8837846FDF784FA50
:10964000F1E70DF051FC0121404602F0E9FA002358
:109650007B6087F8B830134B186801F07BFB384605
:10966000FFF740FFE7E73046FFF7E6FE4844A84231
:109670000FD8A5EB090231463846FFF7A1FF0028B5
:10968000DFD101F06DF9B0EB0409ECD5A4EB0009D2
:10969000E9E70DF029FC3846FFF724FFCBE700BFD0
:1096A000D0320020CC32002010B5084801F032FB47
:1096B000074B1860002406E0064BBC2000FB04307A
:1096C000FFF7A8FE0134022CF6D910BD6D930200FD
:1096D000CC320020D432002038B50446EFF3108598
:1096E00072B610B9164B1B6873B18CB1144A13686B
:1096F00001331360124B1B68003B18BF0123114A52
:10970000137005B962B638BD7846FDF71DFAECE76F
:109710000B4B1C68013C1C600CB1EBE70134022CC4
:10972000E8D8094BBC2202FB043393F8B830002B75
:10973000F4D1054B02FB0430FFF7D4FEEEE700BF87
:1097400008350020D0320020D432002018B1830B1D
:10975000024AD05C70470020704700BF54120400DA
:1097600012DF704700B583B001F040FF40B10C4BF1
:109770001B6813F0400F03D00A4B1B68012B02DC5F
:1097800003B05DF804FB084BD3F804350190074A99
:10979000009275220649022002F002FCF0E700BFA9
:1097A000042E0020002E002000100140841204002E
:1097B0007712040000B58DB0114B1B78022B06D038
:1097C0007846FDF7C1F901200DB05DF804FBFFF705
:1097D000BFFB18B90B48FEF717FEF4E70EF0C2F80E
:1097E000074B03221A702C22002101A817F069F8F8
:1097F0001D238DF8043001A8FEF7DEFDE3E700BF6E
:1098000010350020F42D00200B4B1B78042B00D0CA
:10981000704700B58DB0084B05221A702C2200212C
:1098200001A817F04EF81C238DF8043001A8FEF7AC
:10983000C3FD0DB05DF804FB1035002008B50378BA
:10984000122B00D008BD0448FEF7EEFD034B18684C
:1098500001F080FAF6E700BFF42D00200C3500205F
:1098600010B58AB00EF0C2F870B3044600238DF82C
:1098700010300DF1140C8646BEE80F00ACE80F0066
:10988000DEF80030CCF80030627D052A04D9237D53
:1098900003F00F03072B1ED1164B1A688AB104ABD5
:1098A0000393237DC3F303038DF80430637D062BFC
:1098B0001BD9063B8DF8053004F11D03029301A866
:1098C000904720460EF070F80EF0ACF880F00100E2
:1098D000C0B20AB010BD207D04AB063A04F11D01F0
:1098E00000F00F000CF044FDD6E700238DF80530A2
:1098F0000293E4E71435002070B582B0314B1B7839
:10990000002B54D10446002855D0067A0F2E01D0E2
:10991000062E52D104F09CFEE06870B1FDF726F9E6
:109920000DF10700FFF71CFF0546002840D19DF808
:109930000730012B04D002253AE0FDF725F9EFE7C7
:10994000FDF746F900F022FB304601F0EFF8E07831
:1099500000F03CF900F0CEFE0DF00CFA1A480EF0C3
:10996000FDF80CF0B1FE0CF0E5FCFFF79DFE04F0F5
:10997000F9F900F01BFD04F02BFE04F0E5FB204696
:1099800001F048FDFEF7BCF903F04CFDFDF72AF8A5
:1099900008B1062813D10D4801F0BCF90C4B186032
:1099A0000C4B00221A60074B01221A7000E00825B8
:1099B000284602B070BD0E25FAE70725F8E70546F0
:1099C000F6E700BF1035002061980200B59702004D
:1099D0000C3500201435002010B582B0204B1B78C8
:1099E000012B0DD05AB2002A35D0043BDBB2012B3B
:1099F00033D80DF02DFA044628B3204602B010BD2E
:109A000001F018FDFEF7BEF9FCF7ECFF0446B8B113
:109A1000062815D0134B1B6813F4804FEDD0124B62
:109A20001B68012BE9DD114BD3F804350190104A76
:109A300000924FF4C2720F49022002F0B1FADCE743
:109A400001F0AAF8D5E7064B02221A700A4B1868F3
:109A500001F080F9D1E70824CFE70824CDE700BF63
:109A600010350020042E0020002E002000100140A0
:109A7000B0120400771204000C35002008B5094B21
:109A80001B78032B01D0082008BD064B04221A7056
:109A900005480DF091F90028F6D07846FDF754F806
:109AA0000020F1E7103500200998020008B5FEF704
:109AB0006DF908BD08B5FEF7A7FC08BD08B5FEF7AF
:109AC000B3FC08BD08B500F0DBFD002008BD704701
:109AD000074A136801331360B3F1704F02D0044B8F
:109AE00018687047134600221A6001221A60F6E7D0
:109AF0001835002010B5044618B1002323606360B8
:109B000010BD7846FDF720F8F7E738B50C46054656
:109B100068B184B100236360EFF3108372B62A68E2
:109B20006AB16A6854606C6003B962B638BD784641
:109B3000FDF70AF8EDE77846FDF706F8EAE72C604E
:109B4000F1E710B5044658B1EFF3108372B6206800
:109B500008B142682260226832B103B962B610BD12
:109B60007846FCF7F1FFEFE76260F6E710B50446D0
:109B700008B1206810BD7846FCF7E6FFF9E735DF4D
:109B800070473CDF70473DDF7047000010B504466A
:109B90004FF0FF30FFF7F3FFFF210020FFF7F3FF47
:109BA00021460020FFF7EDFFBFF34F8F0549CA683C
:109BB00002F4E062044B1343CB60BFF34F8F00BF4E
:109BC000FDE700BF00ED00E00400FA05072814D807
:109BD000DFE800F0080C1504110F0A066420704736
:109BE00014207047FA2070471E2070474FF4FA7017
:109BF0007047322070474B207047FA2070479620FC
:109C000070470000024B5868103840B2704700BFE0
:109C100000ED00E0034600280FDB5B11084A52F814
:109C20002330424200F01F0002F01F0258BF504292
:109C300023FA00F000F00100704700F11F03ECE789
:109C400000E100E046DF704738B504460D464B1E84
:109C5000DBB2012B0AD8002323616361A361E361B6
:109C60002046FFF7EFFF4FF0010C1AE07846FCF7B3
:109C70006BFFF0E7CA5CC8185200D2B2CA544078F1
:109C800042EAD012CA5401339BB20E2BF2D9CB7BDD
:109C90005B00CB73BEF1000F0ADB0CF1010C5FFA25
:109CA0008CFCAC450BD8214611F920EF0023ECE7E2
:109CB00094F82F3083F0870384F82F30EDE738BD18
:109CC0002DE9F04190B084460C4696461F4602F1BD
:109CD0000F084FEA281604AD0068DCF80410DCF821
:109CE0000820DCF80C300FC50EF00F055FEA1813E2
:109CF00002D07DB1002300E00023984663B101212A
:109D000004A8FFF7A1FFB8F1000F1BD0701E0001DF
:109D100010230FE00123F0E70221F1E7013B9BB2A2
:109D20002218D25C03F14001694411F8101C4A402A
:109D30000DF80320002BF1D100250C950D950E9503
:109D40000F9535E0711EADB22A4604EB011168464D
:109D500016F08EFD80230DF805306B1C03E0002209
:109D60000DF8032001330F2BF9DD10230BE0013B2D
:109D70009BB21DF8032003F14001694411F8101C47
:109D80004A400DF80320002BF1D1D5E7013A92B2F9
:109D900002F140036B4413F8100C63189B5C5840AD
:109DA00008AB9854002AF1D104A8FFF74BFF013506
:109DB000731EAB4202DD29011022F3E710230CE0F1
:109DC000013B9BB203F140020DEB020111F8402C64
:109DD00011F8101C4A4008A9CA54002BF0D104A85D
:109DE000FFF730FF0CAC0FCC38607960BA60FB60D5
:109DF00010B0BDE8F081000010B50446134B1B689D
:109E000093B14168114B1B685B68CB1A002B0BDBCD
:109E10000E4B1B6818465B691BB15A68521A002A20
:109E2000F8DB6361446103E0084B1A6862611C60FF
:109E3000064A93889BB201339BB2938013B10123EE
:109E4000237010BD7846FCF77FFEF8E7243500202C
:109E500038B5054619E06369214A13600023636140
:109E600093889BB2591E89B291800BB3A3681BB330
:109E700002232370A36821692846984700F01AF945
:109E800005462378DBB2022B1AD0154B1B6833B37F
:109E9000134B1B685B685B1B642B20D5104B1C6845
:109EA0002378DBB2012BD6D07846FCF74DFED2E703
:109EB0007846FCF749FED9E77846FCF745FED7E738
:109EC000E26812B900232370DFE76368134463601C
:109ED0005B1B642BF9D42046FFF78EFFD5E738BD16
:109EE0002435002010B50446144B1B68834207D06C
:109EF000124B1B68D3B15A69A2420ED01346F9E740
:109F000043690E4A136093889BB2591E89B29180AF
:109F100063B97846FCF718FE08E062695A610749A0
:109F20008B889BB25A1E92B28A8013B10023237091
:109F300010BD7846FCF708FEF8E700BF2435002086
:109F400008B5064B1B6833B1044B1B6804495868BD
:109F500000F05CF908BD00F0B7F9FBE724350020FC
:109F60007D9F020008B500F0A5F8FFF771FF00F033
:109F7000A1F8FFF7E5FF012008BD000008B5024B7E
:109F8000186800F0E7FE08BD1C35002008B5002366
:109F9000064A1370064A13605360064800F0BAFE82
:109FA000054B186000F078F808BD00BF2035002090
:109FB00024350020659F02001C35002010B50446A2
:109FC000154B1B789BB900F099FFA0B1BCB1A368F9
:109FD000CBB12378DBB2012B19D00023636120467B
:109FE000FFF70AFF00F066F8FFF7AAFF10BD7846FA
:109FF000FCF7AAFDE7E77846FCF7A6FDE6E778461A
:10A00000FCF7A2FDE3E77846FCF79EFDE1E7784622
:10A01000FCF79AFDE1E700BF2035002010B50446AB
:10A0200000F06CFF50B16CB12046FFF75BFF0023DE
:10A03000636100F03FF8FFF783FF10BD7846FCF73F
:10A0400083FDF0E77846FCF77FFDEDE738B5044681
:10A050000D46104B1B788BB900F050FF90B1ACB19E
:10A060002046FFF73FFF0023636165602046FFF74E
:10A07000C3FE00F01FF8FFF763FF38BD7846FCF71A
:10A0800063FDE9E77846FCF75FFDE8E77846FCF713
:10A090005BFDE5E72035002008B516F085FA00B134
:10A0A00008BD16F0F9F90028FAD07846FCF74CFD07
:10A0B000F6E70000EFF3108172B6194B1B68194ADE
:10A0C000D2F80405D2F80421012A24D001B962B6DD
:10A0D00040EA03634FEAD36C5901C91A6CF1000CD2
:10A0E0004FEA4C2242EAD1524802C11842F1000C18
:10A0F0004FEA8C1242EA91628801401A62EB0C022C
:10A10000C01842F1000210F5804042F10002C00B7D
:10A1100040EA42407047034AD2F804050133D5E7CC
:10A120002C3500200010014010B50A4B4FF40032CE
:10A13000C3F84823C3F80823074B1B682BB1064B11
:10A140001C68FFF7B7FFA04710BD7846FCF7FCFC82
:10A15000F5E700BF0010014038350020EFF3108113
:10A1600072B6254B0022C3F80421244A1368013338
:10A17000136001B962B6224B1B68002B3AD0204B0A
:10A180001A68013A1A601B68002B33D103F180432F
:10A1900003F58833D3F804251A4B1B689A421BD267
:10A1A000EFF3108272B6144BD3F80435981C15499E
:10A1B000096888420DD303330F49C1F8443502B909
:10A1C00062B60D4B4FF40032C3F84423C3F80423A6
:10A1D00070470C4B1B68EFE710B50B4B1B682BB19E
:10A1E000094B1C68FFF766FFA04710BD7846FCF7D7
:10A1F000ABFCF5E7704700BF001001402C35002094
:10A2000030350020343500203835002030B583B09B
:10A210000446002301930D46002936D0244B1D60CF
:10A22000FFF748FF031B002B33DB0020410CC0036A
:10A23000204BC018204A4FF0000341F1000116F0F6
:10A24000DDF9EFF31083019372B61C4BD3F804359C
:10A25000032838BF0320C3F1FF1202F57F42824278
:10A2600019D30344154AC2F844354FF40033C2F8F9
:10A270004433C2F804330023114A1360114A1360B7
:10A28000019B03B962B603B030BD7846FCF75CFCB5
:10A29000C4E7201ACAE7034403F17F4301331A0ECF
:10A2A000013207490A6023F07F43064A1360E7E75B
:10A2B0003835002020A1070040420F000010014067
:10A2C0003035002034350020074B4FF40032C3F8FE
:10A2D0004823C3F808230023044A1360044A136088
:10A2E000044A1360704700BF001001403035002061
:10A2F000343500203835002030DF704731DF7047BB
:10A3000010B4034602684068A2EB70129C6880EAB1
:10A31000F4301860D9680C445C60114499601044B2
:10A32000D8605DF8044B704770B582B00D460646A4
:10A3300008B100240BE07846FCF706FCF9E79DF82D
:10A3400007103019FFF7DAFF9DF807301C44A542CB
:10A350000DD90DF10700FFF7CFFF9DF80730002B57
:10A36000F7D02A1B9342EAD98DF80720E7E702B01D
:10A3700070BD000030B583B005460024019404216F
:10A380000DEB0100FFF7D0FF074B2B60019B6B60CB
:10A39000AB60EB6003E02846FFF7B2FF0134132CFB
:10A3A000F9D903B030BD00BFED5EEAF1704708B5E2
:10A3B000032003F053FD08BD48DF704749DF7047B5
:10A3C0004ADF7047044B01225A7143F2B0629A602F
:10A3D00043F69822DA60704798350020094B032233
:10A3E0001A74094A5A611A6840F6D8639A4204D925
:10A3F000054B43F2B0629A607047034B40F6D86257
:10A400009A607047783500209835002008B50F4BCA
:10A410001B78022B12D0032B08D0012B03D07846D7
:10A42000FCF792FB0EE0022303740BE0084B0022C2
:10A430005A71084999600849D960827103230374ED
:10A44000034B4361014B00221A7008BDA93500205F
:10A4500098350020A0860100FF1FA10738B50446EB
:10A4600000250574012343710E4A136801331360FC
:10A4700000F0D4FA0CF0B2FD23680B4A11682831C1
:10A4800003FB01F1094AA2FB0121A3EB9141084A18
:10A490007839284600F03EFA00B938BD7846FCF716
:10A4A00053FBFAE7AC3500209435002083DE1B43D4
:10A4B000DDA3020010B5044600238360C360036877
:10A4C0000D4A92680260817991B10121017403B94A
:10A4D0000A4B991A6161B1F57A7F01D39A4202D988
:10A4E0004FF47A736361FFF76DFF0123A37110BD11
:10A4F000FFF7B4FFF7E700BF98350020809698007B
:10A5000010B50C4631B1C3680133C36042690368BA
:10A51000134403608368013383600122027442693B
:10A5200052084261012B0DD0022B19D042690368F9
:10A53000134417498B4222D840F6D7639A4221D858
:10A5400000231DE0B2F5FA7F05D040F6D8639A42A9
:10A55000ECD84361EAE7002CF7D100234361E5E73B
:10A56000C368022B06D0012BE0D1002CDED10023E2
:10A570004361DBE70268064B9B1A4361D6E7002381
:10A5800013B110BD0123FBE7FFF768FFF9E700BF38
:10A590008096980043791BB90D4B00221A707047C2
:10A5A00010B504460CF036FD23680A4A10682830BE
:10A5B00003FB00F0084AA2FB0020A3EB9040783890
:10A5C00000F05CFA00236371014B00221A7010BD89
:10A5D000A83500209435002083DE1B4308B5254BA9
:10A5E00001221A71244B1B7813B1244B1B781BB327
:10A5F000204B00221A7404281AD8DFE800F0031454
:10A60000110C07001B48FFF755FF1CE001211948FA
:10A61000FFF776FF17E000211648FFF771FF12E001
:10A620000CF088FC0FE000F0BBF90CF0BDFC0AE078
:10A630007846FCF789FA06E000F092F90D4B1860B5
:10A640001846FFF7E3FE0B4B1B7C023BDBB2012BF2
:10A6500008D9084B1B7C022B08D006480023037145
:10A66000103008BD0348FFF795FFF2E7014B0122C8
:10A670001A76F2E778350020A9350020A8350020A9
:10A6800008B50438042814D8DFE800F018261403AD
:10A690000E00164B1B7E012B0BD1FFF78FFE40B136
:10A6A0007846FCF751FA04E0104B00221A760CF0C1
:10A6B000D9FC08BD7846FCF747FAFAE7FFF782FEB7
:10A6C0000B4840F6D8638360FFF77AFE0028F0D08D
:10A6D0007846FCF739FAECE70548FFF771FE0028E9
:10A6E000E7D07846FCF730FAE3E700BF7835002082
:10A6F0009835002010B40E4A002313701371012105
:10A70000517143F2B064946043F69824D460094ACE
:10A710001060094A1370094A1370094A1360094A04
:10A72000137153711360137691715DF8044B704788
:10A730009835002094350020A8350020A935002048
:10A74000AC3500207835002008B5104B1B7E012B5E
:10A7500008D0022B17D00BB1002008BD0C48FFF722
:10A760002BFE40B90B48FFF72BFE40B9074B0222E6
:10A770001A760020F1E77846FCF7E6F9F2E778462A
:10A78000FCF7E2F9F2E71120E7E700BF7835002097
:10A79000DDA50200983500200B4B1B7C023BDBB291
:10A7A000012B0BD9094B1B78012B09D0022B09D0A7
:10A7B000032B01D000207047012070470120704713
:10A7C000012070470120704778350020A93500200E
:10A7D000014B1868704700BF783500200D4B5B793E
:10A7E0000BB90020704710B50A4B1C680A4B1B6858
:10A7F000283304FB03F3094AA2FB0323A4EB93448D
:10A80000783C00F0ADF80346201A00D410BD181BA8
:10A81000FCE700BF783500209435002083DE1B4321
:10A82000014B5879704700BF78350020014B1879EB
:10A83000704700BF78350020024B187E003818BFE3
:10A840000120704778350020EFF3108372B6054A77
:10A85000527922B1044A4FF48071C2F8001103B951
:10A8600062B670477835002000E100E008B5054B7E
:10A870001B7E022B00D008BD034B01221A70FFF78C
:10A88000E3FFF8E778350020A935002008B5074B2D
:10A890001B7E022B00D008BD012804D0044A13708F
:10A8A000FFF7D2FFF7E70323F8E700BF7835002072
:10A8B000A935002008B5094B1B782BB148B9084BC6
:10A8C0001B7813B1012300E00023044A107013B970
:10A8D00008BD0023F9E7FFF7B7FFF9E7A835002027
:10A8E000A935002010B40A4B00F15002002443F8AF
:10A8F000224000F1100C012202FA0CF2C3F80423EA
:10A9000000F5A87043F820105DF8044B704700BFB5
:10A9100000800040022817D810B5EFF310840C4BCC
:10A920001C6072B60B4B43F820200B4B002243F8FF
:10A9300020200A4B1B7823B9054B186830B962B642
:10A9400005E0FFF7CFFFF7E707207047002010BDB5
:10A95000C0350020B0350020CC350020BC350020AB
:10A96000EFF310820A4B1A6072B60A4B1B7863B180
:10A97000094B0022C3F84C210122DA64D3F84C05BC
:10A98000034B1B6803B962B67047044B1868F7E7BE
:10A99000C0350020BC35002000800040C4350020B8
:10A9A0002DE9F041002411E00027174B43F82470F3
:10A9B000012303FA05F5154EC6F80853FFF7D0FF3B
:10A9C000C04704F1500346F823700134022C18D814
:10A9D00004F150030D4A52F82330002BF5D0D2F881
:10A9E000043304F11005EB4013F0010FEDD0064BDA
:10A9F00053F82480B8F1000FD6D17846FCF7A4F8BC
:10AA0000D2E7BDE8F08100BFB035002000800040F3
:10AA1000014B1B6818447047C835002010B500234F
:10AA20000CE0114A03F5A871002042F8210003F15F
:10AA3000500142F8210052F821200133022BF0D9B5
:10AA40000A4B1B681BB90A4B4FF480721A60094B02
:10AA500001221A70FFF72EFB0446FFF781FF241A2C
:10AA6000054B1C6010BD00BF00800040C0350020B9
:10AA700000E100E0BC350020C8350020002307E0DD
:10AA800000220C4941F823200B4941F823200133CF
:10AA9000022BF5D9094B1860094B00221A70094B9B
:10AAA0004FF0FF32C3F80823074B4FF48072C3F80E
:10AAB00080217047B0350020CC350020C4350020FF
:10AAC000BC3500200080004000E100E008B50378BC
:10AAD0003BB1012B04D1436813B1C168806898472A
:10AAE00008BD4368002BFBD080689847F8E700005A
:10AAF000044B1B780F2B04D0034B4FF48022C3F878
:10AB0000002170473C37002000E100E010B501460D
:10AB10000548FDF705FF10B10424204610BD04468A
:10AB2000FFF7E6FFF9E700BFD835002010B5154C58
:10AB300020701548154B0360102343608360FDF7B8
:10AB4000D3FE1348FEF7D6FF23780F2B00D110BD9C
:10AB5000072B10D8EC221A4112F0010F0ED05B0126
:10AB6000DBB20C4A82F812330023002BEFD0784678
:10AB7000FBF7EAFFEBE742F20203F6E742F20203D9
:10AB8000F3E700BF3C370020D8350020EC3500202B
:10AB90004037002000E100E008B5124B1B780F2B76
:10ABA00000D108BD104B93F812335A09EC2313411E
:10ABB00013F0010F13D00D4B9B685BB10B4A136868
:10ABC00043F4802313600023002BEAD07846FBF780
:10ABD000BBFFE6E7044A4FF480211160F4E742F23C
:10ABE0000203F1E73C37002000E100E0F0620020C2
:10ABF00030B585B00C46054648B100238DF80030CD
:10AC0000019502946846FFF781FF05B030BD784694
:10AC1000FBF79AFFF1E7000038B5EFF3108472B646
:10AC20001A4A1368591C11601BB9194B1B780F2B5A
:10AC300005D1164B1B682BB304B962B638BDEFF3D0
:10AC4000108272B6134B9B68C3B9124901238B6003
:10AC5000114BD3F88000114D28400860C3F8805094
:10AC6000D3F8840048604FF0FF31C3F884100C4BD8
:10AC700000211970002ADCD162B6DAE7084B012105
:10AC80001970F7E77846FBF75FFFD5E7EC36002051
:10AC90003C370020F062002000E100E0FC06FFBD30
:10ACA0003D37002010B5EFF3108472B6144B1B68CB
:10ACB0005BB1134A1368013B13601BB9114B1B783E
:10ACC0000F2B06D104B962B610BD7846FBF73CFFE6
:10ACD000EFE70D4B1A780D4B9B68002BF2D0002A42
:10ACE000F0D1EFF3108172B6084B1868084A106073
:10ACF0005868506000229A600029E3D162B6E1E70B
:10AD0000EC3600203C3700203D370020F062002068
:10AD100000E100E010B5044680B10C4B1B68102B1D
:10AD200010D8EFF3108272B6084B1868411C1960F6
:10AD3000074B43F8204002B962B610BD7846FBF7D6
:10AD400003FFEAE77846FBF7FFFEEAE7F03600206C
:10AD5000F436002038B504460D4B1B68834213D9E6
:10AD6000EFF3108572B661090A4A04F01F0401234B
:10AD700003FA04F452F82130234342F82130FFF75C
:10AD8000B7FE05B962B638BD7846FBF7DDFEE7E7EA
:10AD9000F03600203837002070B50D4616460446C0
:10ADA00058B175B1EFF3108372B6A560E66000226A
:10ADB0002274246003B962B670BD7846FBF7C4FE06
:10ADC000EFE77846FBF7C0FEECE7000038B5044635
:10ADD00050B1A36863B1EFF3108572B6237C5BB109
:10ADE000112005B962B638BD7846FBF7ADFEF0E735
:10ADF0007846FBF7A9FEEEE70123237421460348BA
:10AE0000FEF783FEFFF774FE0020EAE740370020DC
:10AE100010B5044608B1207C10BD7846FBF794FEBF
:10AE2000F9E7000070B584B02C4B1B7823B90125DD
:10AE30002A4B1D7000240AE07846FBF785FEF6E7F2
:10AE4000274B53F8243098470646F0B10134254B80
:10AE50001B68A3421ED96109234A52F8213004F02D
:10AE60001F00C34013F0010FF0D0EFF3108672B64D
:10AE7000012303FA00F052F8213023EA000342F8DC
:10AE80002130002EDCD162B6DAE72046FFF762FF00
:10AE90003546DBE71548FEF754FE07E0A368E06897
:10AEA0009847002323741148FEF74BFE50B1046805
:10AEB000237C002BF2D17846FBF746FEEEE768468E
:10AEC000FFF704FE69460A48FDF754FD0028F6D056
:10AED000024B00221A70284604B070BD483700208B
:10AEE000F4360020F03600203837002040370020AC
:10AEF000D835002008B5FFF795FF08BD00B583B031
:10AF0000FEF780FE8DF807009DF807305BB213F165
:10AF1000100F0FD11B4B1B780F2B03D1012003B057
:10AF20005DF804FB1220FEF775FE08B10020F6E77D
:10AF30000120F4E79DF807305BB2002B11DB03F131
:10AF4000604303F5614393F800335B0900930D4BB5
:10AF50001B78009A934210D0009A934207D30020A6
:10AF6000DDE703F00F03084AD35C5B09EEE712202C
:10AF7000FEF750FE18B10020D1E70120CFE70120F5
:10AF8000CDE700BF3C37002014ED00E046DF7047FE
:10AF900010B58CB003468E461446EC4600685968DE
:10AFA0009A68DB68ACE80F00DEF80000DEF80410F9
:10AFB000DEF80820DEF80C30ACE80F006846FFF73A
:10AFC000E5FF0DF1200CBCE80F0020606160A2607D
:10AFD000E3600CB010BD08B5FEF772FE08BD08B501
:10AFE00001F08AF908BD08B501F0C1F908BD10B536
:10AFF000022932D84CB2002C56D1002940F0828070
:10B000001970817A5A7861F306025A70C17AD2B205
:10B0100061F3C7125A70C168C1F3074201F47F445B
:10B02000224300249A70120ADA70197101890A0AFF
:10B0300042EA0122A3F80520DC711C7201690A02B0
:10B0400002F47F0242EA0162080A00F47F400243F0
:10B0500042EA1162C3F8092010BD032952D11970C8
:10B0600000215970C468C4F3074204F47F4C42EADB
:10B070000C029A70120ADA701C710489220A42EAE0
:10B080000422A3F80520D971197201690A0202F499
:10B090007F0242EA0162080A00F47F40024342EA6A
:10B0A0001162C3F80920D7E7197059786FF30601C8
:10B0B0005970C9B262F3C7115970C168C1F3074230
:10B0C00001F47F4422439A70120ADA7019710189DF
:10B0D0000A0A42EA0122A3F8052041880A0A42EA44
:10B0E0000122A3F8072001690A0202F47F0242EA62
:10B0F0000162080A00F47F40024342EA1162C3F889
:10B100000920A9E77846FBF71FFDA5E770B584B0D5
:10B110000D461446064668B162B1002000900190C9
:10B120000290039023462A4631466846FFF753FFB4
:10B1300004B070BD7846FBF707FDEEE72DE9F0415E
:10B1400084B00E4614461D460B9F804610B10AB1CE
:10B1500003B117B97846FBF7F7FC6B463246414618
:10B160002046FFF738FF3B469DF8282029466846D1
:10B17000FFF731FF04B0BDE8F0810000F0B58FB0FB
:10B180000F4614461E46054608B101B113B978466C
:10B19000FBF7DAFC002C50D0102C52D82B4B049328
:10B1A00005AA042104A8FFF7B1FF6B461022294627
:10B1B00005A8FFF710FF2246394605A815F058FBF1
:10B1C00004F138036B44012203F8242CA21805ABC8
:10B1D00092B219466846FFF7FEFE9DF8233003F051
:10B1E0007F03354605F8013B2246394609A815F08C
:10B1F0003FFB04F148030DEB0307022307F8243C4F
:10B200001134A4B22B46224605A96846FFF7E3FE97
:10B210000DF1140CD6F801006968AA68EB68ACE877
:10B220000F00032307F8243C06F11103224605A969
:10B230006846FFF7D0FE0FB0F0BD7846FBF784FC00
:10B24000AAE77846FBF780FCA8E700BF736D6B3276
:10B2500030B589B00C460546F8B1F1B1114B0393F6
:10B2600004AA042103A8FFF751FF04AB10222946CA
:10B270001846FFF7B0FE0C4B93E8030001908DF8E1
:10B28000081004AB052201A91846FFF7A4FE06AB7F
:10B2900003CB2060616009B030BD7846FBF754FCF9
:10B2A000DCE700BF736D6B33D812040030B587B094
:10B2B0000C460546E8B1E1B1104B019302AA042106
:10B2C0000DEB0100FFF722FF02AB102229461846C2
:10B2D000FFF781FE0A4B009302AB04226946184631
:10B2E000FFF779FE9DF8173003F03F03237007B096
:10B2F00030BD7846FBF728FCDEE700BF736D6B348A
:10B300006964360110B5044678B123789BB1E268D0
:10B31000B2F1807F11D2E27A0AB1022B0FD094F9F8
:10B320000A30002B05DB012006E07846FBF70CFC19
:10B33000EBE7002000E0002010BD0020FCE700202B
:10B34000FAE730B587B00446037C8DF80030026818
:10B350008368D27A32B308221344093301932368F5
:10B36000029363680393E368049305A9684601F0B8
:10B3700005FD50EA01031AD0237C012B07D0206879
:10B3800000F10C011030FDF775FF054660B921682A
:10B39000059800F010FA059B0933636100252846E3
:10B3A00007B030BD0422D7E701F08EFDF7E7042592
:10B3B000F5E7000070B582B00446694600890AF0DE
:10B3C00037FF18B10025284602B070BD064601209F
:10B3D00003F02CF905460028F5D0A37A012B14D9E7
:10B3E0002378012B09D00A4B1B68002BEBD0A27AE3
:10B3F0006188208998470546E5E7694660880AF034
:10B4000017FF0028EFD03546DDE73546DBE700BF04
:10B410004C37002008B538B14268054B1A60FDF77B
:10B4200051FD02F03DFA08BD014B00221A60F6E71B
:10B430004C37002008B5FDF769FD02F071FA08BD30
:10B4400010B5044668B123687BB123685B6983B19A
:10B45000237C012B11D8E3689BB12046FFF771FFD5
:10B4600010BD7846FBF770FBEDE77846FBF76CFB09
:10B47000EBE77846FBF768FBEAE77846FBF764FB07
:10B48000E9E77846FBF760FBE7E7000030B5C7B0B7
:10B490000546E8B16B69FBB12B680BB32B685B69A0
:10B4A00013B3686900F0F1F90446284B1B6813F0E8
:10B4B000020F03D0264B1B68042B44DC00232246DA
:10B4C000A968286800F032FB01F0C6FC47B030BD27
:10B4D0007846FBF739FBDDE77846FBF735FBDBE722
:10B4E0007846FBF731FBD9E77846FBF72DFBD8E729
:10B4F000E15C184A126808094FEA430C105C0DF130
:10B50000140E0EF8130001F00F010CF1010C525C47
:10B510000EF80C2001331C2BEAD905AA00238DF864
:10B520004E3003F1804303F58833D3F8043502929B
:10B53000094A0192094A00924FF49772084905207E
:10B5400000F02EFDBAE70023E5E700BF042E00203F
:10B55000002E0020082E00200C130400140F0400FD
:10B56000FF120400F0B589B004460E461546837AF2
:10B57000013B8372029004924FF0FF330393DF2369
:10B58000059301238DF8183002A8FFF7DAFE07466D
:10B5900098B1114B1B6813F0020F16D00F4B1B68AC
:10B5A000012B12DD0E4BD3F804350E4A0092AD226A
:10B5B0000D49022000F0F4FC07E02A4631460798C6
:10B5C00015F056F902A8FFF761FFA37A0133A372C1
:10B5D000384609B0F0BD00BF042E0020002E002028
:10B5E0000010014014130400FF120400F0B5D5B0A0
:10B5F000002800F0BA800D461646044600F049F9CE
:10B60000021B21464CA815F033F9594B1B6813F067
:10B61000020F35D0574B1B68042B31DD2F46802D90
:10B6200028BF8027002014E014F800C0524B1A688D
:10B630004FEA1C134FEA400ED15C05AB03F8101023
:10B640000CF00F0C0EF1010E12F80C2003F80E2076
:10B650000130B842E8D305AA002302F8173003F1FD
:10B66000804303F58833D3F804350292434A0192AC
:10B67000434A009240F253124249052000F090FCE8
:10B68000002300934CAB2246294646A800F002FA5C
:10B69000044610B1204655B0F0BD46A8FFF732FE73
:10B6A0000028F7D0324B1B6813F0020F30D0314B1B
:10B6B0001B68042B2CDDAC46802D28BF4FF0800C7E
:10B6C0000FE04CAB1B5D2C4A106819096200475C07
:10B6D00005A901F8147003F00F030132C35C8B5409
:10B6E00001346445EDD305AA002302F81C3003F1B0
:10B6F000804303F58833D3F804350292224A01923D
:10B700001F4A00924FF4AE721E49052000F048FC1B
:10B710004B9B03B3294646A800F0AFF8C5B23346A9
:10B7200046AA29460DF23910FCF7A6FD044631461B
:10B7300046A8FFF73FFE90B133462A460DF2391175
:10B7400046A8FFF70FFF0028A4D14999BDF82001B2
:10B75000FBF77EFA9EE77846FBF7F6F9DAE74999B8
:10B76000BDF82001FBF774FA94E70E2492E700BFBE
:10B77000042E0020002E0020082E00204413040078
:10B78000140F0400FF120400541304004B78DB096B
:10B79000C3724B7803F07F0383728A78CB781B02E5
:10B7A00043EA02430A791343C3604A798B7943EA37
:10B7B00002230381704738B50D460446002844D063
:10B7C000002D46D02889FDF7C1FF012845D195F904
:10B7D0000A30002B45DBEB68B3F1807F45D26B6903
:10B7E000002B46D02B6903F00102237803F07F037E
:10B7F000237043EAC21323706A69127803F080034E
:10B80000237002F07F0213432370EA7A637803F017
:10B810007F03637043EAC213DBB26370AA7A03F05A
:10B820008003637002F07F0213436370EB681A0CAD
:10B83000A2701A0AE27023712B891A0A6271A3712D
:10B840006B881A0AE271237238BD7846FBF77CF9DF
:10B85000B6E77846FBF778F9B4E77846FBF774F972
:10B86000B5E77846FBF770F9B5E77846FBF76CF972
:10B87000B5E77846FBF768F9B4E7C37A1BB108204F
:10B88000081A093870470420FAE70938704707306A
:10B8900070470130704770B588B004460D461646B3
:10B8A000002300938DF804300269130203F47F0330
:10B8B00043EA0263110A01F47F410B4343EA126336
:10B8C000CDF805302846FFF7E2FF0368CDF80930D0
:10B8D00082888379ADF80D208DF80F30606904AA55
:10B8E00069461130FFF754FB3046FFF7D2FF04469C
:10B8F0002846FFF7CEFF062309E0013B9BB2C25C5E
:10B9000003F12001694411F8101C4A40E254002B55
:10B91000F3D108B070BD00002DE9F041D2B004466B
:10B920000D4617461E469DF8648100238DF8473169
:10B93000ADF8283149934EAB46931046FFF7A7FF69
:10B9400047903046FFF7A3FF4B90589B6361324608
:10B9500039462046FFF79FFF31462046FFF716FF86
:10B960002089FDF7F3FE012811D1A5F10902E37A40
:10B9700023B108239A4203D2002309E00423F9E704
:10B98000E1682089FBF73AF9E8B9012300E00023D8
:10B9900083B3E37ACBB10821C9B28DF834116D1AA3
:10B9A000073DADB2ADF82051479B1D444C95B8F111
:10B9B000000F0ED0B8F1010F09D07846FBF7C4F89C
:10B9C0004FF0000805E00023E2E70421E4E74FF030
:10B9D00003084EAB002241462046FFF708FB63698F
:10B9E000013345930DF2471145A8FFF7FCFA9DF886
:10B9F000473123B99DF8470152B0BDE8F081F37992
:10BA0000307A40EA03206080FDF7A0FE20701B4BD7
:10BA10001B6813F0020FEDD0194B1B68032BE9DDF7
:10BA2000BDF82061802E28BF80260023B34210D2AB
:10BA30004B9AD25C13490C6810095900255C04A884
:10BA400000F8135002F00F020131A25C425401339E
:10BA5000ECE704AA002302F8163003F1804303F553
:10BA60008833D3F804350292074A0192074A0092BC
:10BA7000E4220749042000F093FABBE7042E0020DB
:10BA8000002E0020082E002090130400140F040044
:10BA9000831304002DE9F04784B00E4615461F4677
:10BAA0009DF83090804618B112B10BB19A4202D184
:10BAB0007846FBF749F8082E30D91D2E30D8287863
:10BAC000C009FDF71BFCC8F810000023C8F81430AB
:10BAD00095F800A00AF07F0A0293039301E0029B0D
