:020000022000DC
:1060000000F000206D630200556302005763020038
:10601000596302005B6302005D6302000000000040
:106020000000000000000000000000005F630200AC
:106030006163020000000000636302006563020008
:106040006763020067630200676302006763020020
:106050006763020067630200B5290400F946040083
:1060600067630200812804001901040067630200CD
:1060700067630200676302006763020067630200F0
:10608000676302006DED0400E9FF02006763020030
:10609000D1ED040067630200053604006763020067
:1060A00067630200676302006763020067630200C0
:1060B0006763020067630200000000000000000048
:1060C00067630200676302006763020067630200A0
:1060D000676302006763020067630200000000005C
:1060E00000000000000000000000000000000000B0
:1060F00000000000000000000000000000000000A0
:10610000000000000000000000000000000000008F
:10611000000000000000000000000000000000007F
:10612000000000000000000000000000000000006F
:10613000000000000000000000000000000000005F
:10614000000000000000000000000000000000004F
:10615000000000000000000000000000000000003F
:10616000000000000000000000000000000000002F
:10617000000000000000000000000000000000001F
:10618000000000000000000000000000000000000F
:1061900000000000000000000000000000000000FF
:1061A00000000000000000000000000000000000EF
:1061B00000000000000000000000000000000000DF
:1061C00000000000000000000000000000000000CF
:1061D00000000000000000000000000000000000BF
:1061E00000000000000000000000000000000000AF
:1061F000000000000000000000000000000000009F
:10620000344935480A1A02D0072291438D46334952
:1062100033480A1A06D00722914381F309880222E3
:1062200082F314882F483049304A00F042F8304851
:106230003049314A00F03DF830483149314A00F0E8
:1062400038F831483149324A00F033F831483249A0
:10625000324A00F02EF832483249334A00F029F829
:1062600032483349334A00F024F833483349002296
:1062700000F02AF832483349002200F025F832486D
:106280003249091A082902DB0022026041601F48D6
:106290001F49884205D00268043003B4904703BC0C
:1062A000F7E700208646EC4600200021284A904768
:1062B000FEE7884207D0521A05D0037801300B70F0
:1062C0000131013AF9D17047884202D002700130A1
:1062D000FAE7704700F0002000E8002000F00020FE
:1062E00000F00020C84D0500F02D0020D034002023
:1062F000A0630200A0630200380E0500C84D05002F
:10630000F02D0020F02D00207414050074140500F9
:106310007414050074140500741405007414050049
:106320007414050074140500C84D0500A854050038
:10633000D0340020D0340020D0340020E498002055
:10634000E4980020E8980020E8980020E89C0020CD
:10635000996E0200FEE7FEE7FEE7FEE7FEE7FEE7D6
:10636000FEE7FEE7FEE7FEE700F002B8FFF7FCBF3E
:1063700008484FF00701884385460748804707488B
:10638000016841F470010160BFF34F8FBFF36F8F5D
:10639000FFF736BF00F00020C53B040088ED00E0A9
:1063A00041DF7047014B1960704700BF583500202E
:1063B000014B1B680B80704758350020024B0022B0
:1063C0001A609A80704700BF503500207047000067
:1063D0000E48006810F4804F03D00D480068032871
:1063E00000DC704700B585B00A48D0F80405039377
:1063F00002920191084B00930346CF2207490420E3
:106400000FF0AAF805B05DF804FB00BF743400205B
:106410007034002000100140B4140500AC140500D5
:1064200000B587B006A800E90C00104B1B6813F4F8
:10643000804F03D00E4B1B68032B02DC07B05DF8C6
:1064400004FB0C4BD3F804350B48A0FB0202BDF84B
:1064500014000390C2F3CF3202920191074A0092D6
:10646000EC22074904200FF077F8E7E774340020A6
:10647000703400200010014001800080F0140500FD
:10648000AC14050010B582B00C46194B1A680A60AE
:106490009B888B80174B1B6813F4804F03D0164BDF
:1064A0001B68032B0ADC134B1B6813F4804F03D0CB
:1064B000114B1B68032B0DDC02B010BD0F4BD3F842
:1064C000043501920E4A0092E3220E4904200FF097
:1064D00043F8E8E7094BD3F80435226801920A4AE9
:1064E0000092E422074904200FF036F8E4E700BFE9
:1064F000503500207434002070340020001001401A
:1065000034150500AC140500481505000D4B1B683B
:1065100013F4804F03D00C4B1B68032B00DC704737
:1065200000B585B0094BD3F8043502920191084AB1
:1065300000924FF48372074904200FF00DF805B064
:106540005DF804FB7434002070340020001001401A
:1065500060150500AC1405000E4B1A880A800E4B1E
:106560001B6813F4804F03D00C4B1B68032B00DC1B
:10657000704700B583B00A4BD3F804350192094A3D
:106580000092FE22084904200EF0E6FF03B05DF8F9
:1065900004FB00BF4C350020743400207034002010
:1065A000001001408C150500AC1405000D4B19803E
:1065B0000D4B1B6813F4804F03D00C4B1B68032B4F
:1065C00000DC704700B583B0094BD3F80435019166
:1065D000084A0092F522084904200EF0BDFF03B0DE
:1065E0005DF804FB4C35002074340020703400202A
:1065F000001001408C150500AC1405000D4B1B6804
:1066000013F4804F03D00C4B1B68032B00DC704746
:1066100000B585B0094BD3F8043502920191084AC0
:10662000009240F21712074904200EF095FF05B0C2
:106630005DF804FB74340020703400200010014029
:10664000A4150500AC1405000D4B1B6813F4804F16
:1066500003D00C4B1B68032B00DC704700B585B0E2
:10666000094BD3F8043502920191084A009240F296
:106670000F12074904200EF06FFF05B05DF804FB10
:10668000743400207034002000100140A41505006F
:10669000AC14050000B58DB024F0A0FA242200212E
:1066A00003A829F058FB01238DF80C3007238DF83F
:1066B0000F3006238DF81430244B0793244B0B9393
:1066C000244903A811F0B0F8034618B3002B32D0C8
:1066D0000B2B2FD124F0C6FA1F4B1B6813F4804FED
:1066E00003D01E4B1B68032B18DC1B4B1B6813F4D9
:1066F000804F20D0194B1B68032B1CDD184BD3F89F
:106700000435184A009240F20A22174904200EF07C
:1067100023FF10E024F082FA0346D7E7104BD3F8AA
:106720000435124A00924FF402720F4904200EF011
:1067300013FFDAE72BB90E4808F08EF90DB05DF8BB
:1067400004FB18461DF05EFBF5E700BFDD6B0200A1
:1067500001690200D034002074340020703400201D
:10676000001001401C160500AC140500CC150500F6
:10677000F02D002000B583B0164A04214FF4C0402C
:106780000EF0CEFE144B1B6813F4804F03D0134B56
:106790001B68032B0FDC28F01FFBC0B903F07CFD46
:1067A00003F0B8FD03F0E6FD10F002FAFFF772FF08
:1067B00003B05DF804FB0A4BD3F80435094A009294
:1067C00040F21B22084904200EF0C6FEE3E71DF04C
:1067D00019FBE3E7F5540300743400207034002003
:1067E0000010014058160500AC14050030B5C7B0C4
:1067F00003781D2B04D00446142B17D047B030BDAE
:10680000344802F0C9FC58B9334801F02DFD50B9A5
:10681000324804F039FB0028F0D01DF0F3FAEDE720
:106820001DF0F0FAF0E71DF0EDFAF1E72C4B1B68D4
:1068300013F4804F03D02B4B1B68042B0FDC284B29
:106840001B6813F4804FD9D0264B1B68042BD5DD71
:106850002369802B28BF80239E46002322E0224B01
:10686000D3F80435C288018900790390029101921E
:106870001E4A00924FF4AF721D4905200EF06CFEC7
:10688000DDE7E268D25C1B490D681009590015F874
:1068900000C005A800F813C002F00F020131AA5C85
:1068A000425401337345ECD305AA002302F81E308D
:1068B00003F1804303F58833D3F8043502920E4A7E
:1068C00001920E4A00924FF4B072094905200EF071
:1068D00043FE93E780300020F82E0020002E002099
:1068E0007434002070340020001001408816050028
:1068F000AC14050078340020B8160500C416050055
:1069000000B585B000218E4802F0F4FB002840F06D
:1069100081808C4B1B6813F4804F03D08A4B1B681B
:10692000032B7ADC864A0021884801F03BFC0028D2
:1069300040F08580834B1B6813F4804F03D0824B5B
:106940001B68032B7EDC0221814804F05DFA0028DD
:1069500040F08A807B4B1B6813F4804F04D07A4B45
:106960001B68032B00F3868000217A4802F066FF43
:10697000002840F08E807849764802F08DFF00288C
:1069800040F08D8073496E4802F068FC002840F0AA
:106990008C8072496F4802F07FFF002840F08B80A6
:1069A0006C496A4801F0E0FC002840F08A8002212E
:1069B0006B4804F0ABFA002840F08980614B1B68FB
:1069C00013F4804F04D0604B1B68032B00F38580C9
:1069D0000221644802F032FF002840F08D806249B5
:1069E000604802F059FF002840F08C805D4958480B
:1069F00004F064FA002840F08B80524B1B6813F4BB
:106A0000804F04D0504B1B68032B00F3878005B0E8
:106A10005DF804FB1DF0F6F97BE7544BD3F8043521
:106A2000474A118892F8BC2002920191504A009284
:106A300040F221124F4904200EF08EFD72E71DF046
:106A4000E1F977E7494BD3F80435404A118892F8C9
:106A5000902002920191484A00924FF49372454966
:106A600004200EF079FD6EE7444A40F22B111DF030
:106A7000D7F96FE73D4BD3F80435354A12880192B8
:106A80003F4A00924FF496723A4904200EF064FD9A
:106A90006AE73A4A40F231111DF0C2F96BE7374A12
:106AA00040F233111DF0BCF96CE7344A4FF49A718F
:106AB0001DF0B6F96DE7314A4FF49B711DF0B0F946
:106AC0006EE72E4A40F237111DF0AAF96FE72B4A04
:106AD0004FF49D711DF0A4F970E7244BD3F80435F1
:106AE0001F4A12880192274A009240F23B12214924
:106AF00004200EF031FD6BE7204A40F23F111DF0FB
:106B00008FF96CE71D4A4FF4A0711DF089F96DE70C
:106B10001A4A40F241111DF083F96EE7134BD3F886
:106B200004350C4A118892F8342002920191164AD9
:106B3000009240F243120F4904200EF00DFD66E76B
:106B4000803000207434002070340020F82E0020A3
:106B5000002E002020320020183200207830002043
:106B6000D434002018330020F02E00200010014003
:106B7000CC160500AC1405000817050074140500B8
:106B800038170500541705007017050000B583B0CD
:106B90000D4B1B6813F4804F03D00C4B1B68032B69
:106BA00006DC24F05FF810F0A9FE03B05DF804FBEA
:106BB000074BD3F80435074A009240F27B1206498E
:106BC00004200EF0C9FCECE774340020703400207F
:106BD00000100140A0170500AC14050008B50378AB
:106BE000232B00D008BDFFF7D1FFFBE710B582B023
:106BF000441C284B1B6813F4804F03D0264B1B68A2
:106C0000032B1BDC032C26D9042C25D110F008FE05
:106C100068BB204B1B6813F4804F26D01E4B1B68AB
:106C2000032B22DD1D4BD3F804351D4A009240F2A0
:106C3000BF121C4904200EF08FFC16E0174BD3F84E
:106C400004350194184A009240F299121549042023
:106C50000EF082FCD6E744B90E4B1B6813F4804F4C
:106C600003D00D4B1B68032B08DC02B010BD12F0E3
:106C7000D7FB10F0C9FDFFF789FFF6E7074BD3F804
:106C800004350A4A009240F2C512064904200EF06B
:106C900063FCEAE7743400207034002000100140E7
:106CA000D0170500AC140500BC170500CC18050072
:106CB00000B583B03138032814D90D4B1B6813F489
:106CC000804F11D00B4B1B68032B0DDD0A4BD3F803
:106CD00004350A4A00924FF4EA72094904200EF082
:106CE0003BFC01E0FFF782FF03B05DF804FB00BF4F
:106CF000743400207034002000100140CC180500CE
:106D0000AC14050000B585B003A817F0B7F80D4B1B
:106D10001B6813F4804F03D00B4B1B68032B02DC62
:106D200005B05DF804FB094BD3F80435BDF80C2021
:106D30000192074A00924FF4EE72064904200EF0C9
:106D40000BFCEDE77434002070340020001001408B
:106D500008180500AC14050000B58BB064211F486D
:106D600003F0E0F81E4B1B789BB903930493059343
:106D700006930793089309931A4B04931A4B0893AD
:106D80001A4B099303A803F063F820B11DF03AF8F9
:106D900001E0FFF7B7FF04F0F9F803F0F7F810F09F
:106DA0009DFD58B9124B1B6813F4804F03D0114B53
:106DB0001B68032B05DC0BB05DF804FB1DF022F80B
:106DC000F0E70D4BD3F804350C4A009240F24A220A
:106DD0000B4904200EF0C0FBEDE700BFB16C0200D0
:106DE000D0340020056E020020180500A01A05000E
:106DF000743400207034002000100140CC180500CD
:106E0000AC14050000B583B00E4B1B6813F4804F23
:106E100003D00D4B1B68032B08DC03F07BFA03F057
:106E2000A9FAFFF76FFF03B05DF804FB074BD3F837
:106E30000435074A009240F2E112064904200EF0A0
:106E40008BFBEAE77434002070340020001001400E
:106E500048180500AC14050000B585B00B4A01AB1D
:106E600007CA03C31A700A490A481DF01DFD38B944
:106E700001A900201DF06EFD28B905B05DF804FBE6
:106E80001CF0C0FFF4E71CF0BDFFF6E7A0180500FA
:106E9000CD630200AC18050010B584B0FFF76AFCA2
:106EA000FFF75AFFFFF7D8FF0023ADF80E300C2094
:106EB00003F02CFC18E03A4BD3F80435BDF90E2052
:106EC0000192384A00924FF42072374904200EF0A4
:106ED00043FB19E04FF47A744FF47A40334B43F09C
:106EE00001039847013CF7D1FFF75AFA0DF10E0163
:106EF00000201DF081FD2E4B1B6813F4804F03D042
:106F00002C4B1B68032BD6DCBDF90E0028F0E4FBEC
:106F100021A3D3E9002328F01DFB0022264B28F0F3
:106F200019FB02460B46254828F0B6FE03F0D0FBBD
:106F3000234B83ED000A234B1A6864321A602249FE
:106F40000B8864339BB20B8041F288318B4202D9AB
:106F50001D4B0021198041F288339A4202DD194B02
:106F600000221A60124B1B6813F4804FB2D0114BF1
:106F70001B68032BAEDD0A4BD3F80435124A128886
:106F80000192124A00924FF42372074904200EF036
:106F9000E3FA9FE7AFF300806666666666660E40BA
:106FA0000010014064180500AC140500B01805007D
:106FB00074340020703400200000103F7C1805005D
:106FC0009C350020583500204C35002088180500DD
:106FD00010B40D4CA4FB0202C2F3CF32A4FB01019A
:106FE000C1F3CF31521ABDF90400C01A82EAE2712E
:106FF000A1EBE27180EAE073A3EBE073994200DD5C
:1070000010465DF8044B704701800080E0387047FF
:1070100010B582B00446D0F8B03000930A684968D1
:107020008B4228BF0B46934238BF13460093B0F8FB
:10703000B430ADF80430D0F8A0300BB169469847B1
:10704000009BC4F8B03002B010BD08B5A03802F003
:1070500061FD08BD10B5094B1C6800E024685CB1F7
:1070600014F8023C002BF9D0002204F8022CA4F101
:107070009C0002F04FFDF1E7012010BDA435002077
:1070800030B58BB0FFF7C2FF0446D0F8A43008A992
:10709000984794F8FC30012B03D033B1022B0CD16C
:1070A00003E094F8D420002AF7D0D4F8C830C4F80C
:1070B000C030B4F9D030A4F8C430D4F8CC30C4F81F
:1070C000B830B4F9D230A4F8BC301D4B1B6813F4AF
:1070D000804F03D01B4B1B68032B14DC0023C4F828
:1070E000D830D4F8A85065B1B4F8BC30ADF81C3035
:1070F000D4F8B830069306AB0CCBD4F80011204678
:10710000A8470BB030BD104BD3F8043594F890105D
:10711000D4F8C0200D48A0FB0202D4F8000104906E
:10712000D4F804010390C2F3CF3202920191084ACD
:10713000009240F23D32074904200EF00DFACDE7EF
:107140007434002070340020001001400180008061
:10715000E81A0500D51A050000B583B0FFF756FF01
:107160000D4B1B6813F4804F03D00C4B1B68032B93
:1071700002DC03B05DF804FB094BD3F8043590F84A
:1071800090200192074A009240F2233206490420DF
:107190000EF0E2F9EDE700BF7434002070340020F7
:1071A000001001402C1B0500D51A050008B580F819
:1071B000FC30C0F8F4102D23C0F8F8303AB1134673
:1071C0005268C0F810211B68C0F8F03008BD0023D9
:1071D000C0F81031D0F89C3000F1F00193F8C400F1
:1071E00026F0C6FE0028F1D0024A40F209411CF008
:1071F00017FEEBE7B01A05002DE9F0418CB004460C
:107200000E4617469846A0F5C075012385F87831DB
:10721000D5F8A4300AA92846984709AA314695F816
:10722000980025F049FC002856D10DF12202314684
:1072300014F8E80C25F070FC002853D1099944F8A3
:10724000B41CBDF9223024F8AE3C54F8D03C44F8CC
:10725000B83C34F9CC3C24F8B03C14F8E80C25F0E8
:1072600053FB002844D134F9AE1C14F8E80C25F087
:1072700071FB002842D1CDF81880079714F8E73C3D
:107280001BB10A9A099B9A423ED0A4F5C076A4F19C
:10729000A007384602F03EFCB6F9D2300093BDF9A3
:1072A0002C30D6F8CC200A992846FFF791FE0146EB
:1072B000002306AA2846FFF779FF264B1B6813F424
:1072C000804F03D0244B1B68032B24DC384602F08C
:1072D00013FC0CB0BDE8F081204A4FF488611CF02B
:1072E0009FFDA2E71D4A40F244411CF099FDA5E72D
:1072F0001A4A40F24E411CF093FDB4E7174A4FF48E
:107300008A611CF08DFDB6E7BDF82C20BDF9223056
:107310009A42BAD1DDE7124BD3F80435099A1149E4
:10732000A1FB021254F88C1C059154F8901C049196
:1073300054F8701C0391BDF922100291C2F3CF32B0
:107340000192094A009240F26342084904200EF07B
:1073500003F9BBE77434002070340020B01A050034
:107360000010014001800080481B0500D51A05006F
:1073700030B587B004460D4650F8D02C10F8E80C14
:1073800025F082FB90B934F9CC2C294614F8E80C8E
:1073900025F0A8FB80B91A4B1B6813F4804F03D06B
:1073A000184B1B68042B0DDC07B030BD164A40F2A9
:1073B0001C411CF035FDE6E7134A4FF484611CF0D4
:1073C0002FFDE8E7114BD3F80435A4F5C07114F88C
:1073D000E80C54F8D02C0E4CA4FB0242B1F9B410C6
:1073E0000491C2F3CF32039202950190094A0092B0
:1073F00040F22542084905200EF0AEF8D4E700BF60
:107400007434002070340020B01A050000100140D0
:1074100001800080941B0500D51A050010B584B0CA
:10742000144602A990F8980025F01CFB60B90023CF
:107430002370029B6360039AA26011498B4209D0BA
:107440008A4207D004B010BD0E4A40F2D3111CF09E
:10745000E7FCECE70C4B1B6813F4804FF2D00B4BAE
:107460001B68012BEEDD0A4BD3F80435094A009264
:107470004FF4EC72084902200EF06EF8E2E700BF0C
:107480000100FEFFB01A05007434002070340020A3
:1074900000100140E81B0500D51A050030B589B081
:1074A00004461546D0F8A43006A99847069B2B60E1
:1074B000BDF81C30AB80B4F8BC30AB8194F80C3113
:1074C000022B12D0D4F8B830AB6004F1E00002F027
:1074D0002FFB2861224B1B6813F4804F03D0214BF4
:1074E0001B68032B21DC09B030BD04A994F8980077
:1074F00025F0B8FA80B9D4F8B820059B9A4211D08B
:10750000194BAB60D4F8003123B1D4F804310BB17E
:107510004FF0FF332B61DDE7144A4FF4A2711CF0EA
:107520007FFCE8E747F6FF73EBE7114BD3F8043530
:107530002A681048A0FB0212A968A0FB0101286973
:107540000390C1F3CF310291C2F3CF3201920A4AC4
:1075500000924FF4AA72094904200DF0FDFFC2E722
:1075600074340020703400200080FFFFB01A050042
:1075700000100140018000800C1C0500D51A050098
:10758000F0B58DB004461546D0F8A4300AA9984746
:10759000D4F89C00D0F8CC300DF126019847BDF806
:1075A00026302B80D4F89C30B3F8EA302B810A9B2C
:1075B0006B60D4F8B830EB6094F80C31022B10D12A
:1075C000D4F800310BB14FF0FF332B61184B1B681F
:1075D00013F4804F03D0174B1B68042B07DC0DB04E
:1075E000F0BD04F1E00002F0A3FA2861EEE7124BCF
:1075F000D3F804352E886A681048A0FB02122F8940
:10760000E968A0FB0101D4F80401069028690590FF
:10761000C1F3CF3104910397C2F3CF3202920196A6
:10762000074A0092D522074905200DF095FFD6E7BD
:10763000743400207034002000100140018000806C
:10764000301C0500D51A050090F89930EBB130B523
:1076500089B004460D4690F87831A3B9D0F8A4302B
:1076600006A998472B88ADF804306B88ADF80C302C
:107670006B680593069B0293D4F8B830049301A974
:10768000201D24F035FE09B030BD704770B58EB0B6
:1076900004460E46D0F8A43002A99847D4F89C00BE
:1076A000D0F8CC300DF10601984794F87931002BD1
:1076B0003CD1D4F89C00D0F8183163BB0D96BDF8CE
:1076C0000630ADF82430029B0A93D4F89C30B3F80E
:1076D000EA30ADF82C30D4F8B8300C9309A9201D4D
:1076E00024F006FE0546029B0493BDF80C30ADF86D
:1076F0001430D4F8B8300693B4F8BC30ADF81C3070
:10770000089604A904F1300024F00DFE05B90546E1
:1077100028460EB070BDF83002F00AFA0346002881
:10772000CCD0B04238BF33460D93C8E70025DAE726
:1077300030B587B0FFF76AFC0446D0F8CC30C0F80B
:10774000B830B0F9D230A0F8BC30444B1B6813F409
:10775000804F03D0424B1B68032B48DC94F80C315C
:10776000022B07D0D4F8B830C4F8B030B4F9BC302C
:10777000A4F8B43004A994F8980025F073F900280F
:1077800044D1049A374B9A4246D0059A9A4243D044
:1077900004A92046FFF73CFCD4F8A85065B1B4F822
:1077A000BC30ADF80C30D4F8B830029302AB0CCB3F
:1077B000D4F800112046A847D4F8B01094F89800E7
:1077C00025F0A2F800283CD1B4F9B41094F8980040
:1077D00025F0C0F800283AD100212046FFF756FFD7
:1077E000002384F8783184F8793107B030BD1E4B1E
:1077F000D3F8043590F8902001921C4A00924FF47F
:1078000074721B4904200DF0A7FEA7E7194A40F245
:10781000D9311CF005FBB4E7104B1B6813F4804F03
:10782000B6D00F4B1B68012BB2DD0F4BD3F80435DC
:10783000114A009240F2DA320D4902200DF08CFE1E
:10784000A6E70C4A4FF47A711CF0EAFABCE7094A41
:1078500040F2E9311CF0E4FABEE700BF74340020C6
:10786000703400200100FEFF001001407C1C050068
:10787000D51A0500B01A0500E81B05002DE9F043F4
:1078800085B00546FFF7C2FB0446D0F800612846E4
:1078900002F071F90546371A94F80C31022B4AD0E0
:1078A000D4F8B810D4F8C090B1EB09006CEB0C0C14
:1078B000A5FB00014FEAE6783246434605FB0C1172
:1078C00028F047F84844C4F8B000B4F9BC00B4F953
:1078D000C430C01A1FFA83F94FEAE07CA5FB00010F
:1078E0003246434605FB0C1128F033F84844A4F80F
:1078F000B40002A994F8980025F0B4F8B0BB029A3D
:107900003B4B9A4238D0039A9A4235D002A920467E
:10791000FFF77EFB94F80C31022B42D040F2DC538F
:107920009F4205D9D4F8D830EB1AB3F57A7F57D8EF
:1079300005B0BDE8F083D4F80401C317D4F8C060E3
:10794000A0FB050105FB03114FEA014C4CEA104C6A
:107950000304181AD4F800214FF000036CEB010166
:1079600027F0F7FF0644C4F8B060C2E7214A40F2AE
:10797000AD311CF055FAC2E71F4B1B6813F4804F62
:10798000C4D01E4B1B68012BC0DD1D4BD3F8043542
:107990001C4A009240F2AF321B4902200DF0DCFD80
:1079A000B4E7D4F8B020D4F80431002B02DD0399F9
:1079B0008A4211D0002B0ADB0023002BAED001231A
:1079C00084F87A31114B186808F03EFAA6E7029B5A
:1079D0009A4203D00023F0E70123EEE70123ECE70E
:1079E000C4F8D85039462046FFF750FEA0E700BF44
:1079F0000100FEFFB01A050074340020703400202E
:107A000000100140E81B0500D51A0500A035002034
:107A100038B504460D46084BC0F89430983025F030
:107A200093F800B138BD84F899002A46D4F89C1028
:107A3000204624F0ADFCF5E7D41D05002DE9F04308
:107A400089B016469846109F0446002800F08180B1
:107A5000002A7ED0012384F8793104F1080023F054
:107A6000B5F984F8D400504B1B6813F4804F14D040
:107A70004E4B1B68032B10DD4D4BD3F80435327988
:107A800000286AD04B49029101924B4A009240F281
:107A900025224A4904200DF05FFDD4F8A43006A940
:107AA0002046984731684FEAE1794FEA094242EAB5
:107AB00011420D046D1A62EB090904A994F89800AB
:107AC00024F0D0FF00284AD194F8D4303BB1D4F848
:107AD000B020C4F8C820B4F9B420A4F8D020002BFA
:107AE00043D0069B5D1949F10002059BAB424FF064
:107AF0000001914108DB04990B46A9424FF00001B7
:107B000071EB020200DA2B46C4F8CC300123424666
:107B100031682046FFF74AFB234B1B6813F4804F64
:107B200003D0224B1B68032B25DC04F1E00001F09D
:107B3000E3FF3368002B32D147B1D4F8B0303B605B
:107B4000D4F8CC30BB60D4F8F0303B6109B0BDE86C
:107B5000F083784602F0F4FC7CE7194993E7194A70
:107B600040F22E211CF05CF9AEE7D4F8C0305D196C
:107B700049F10002B9E70E4BD3F80435D4F8F020F0
:107B80000392D4F810210292326801920E4A0092B8
:107B90004FF41072094904200DF0DEFCC5E7D4F85B
:107BA000840101F08FFEC7E7743400207034002098
:107BB00000100140C01C0500C81C0500D51A0500B6
:107BC000A01C0500B01A0500D41C0500F0B589B052
:107BD000044615461F460E9E012380F87931D0F8E1
:107BE000A43004A99847049BC4F8B030BDF9143000
:107BF000A4F8B43006A994F8980024F033FF78B9BB
:107C000002233A4629682046FFF7D0FA2B68002B5A
:107C10000CDDD4F8F0204AB1079BC4F8CC300BE05F
:107C20002B4A40F26B211CF0FBF8E9E7002B2BDB21
:107C3000D4F8B030C4F8CC30264B1B6813F4804F16
:107C400003D0254B1B68032B26DC04F1E00001F078
:107C500053FF2B681BB1D4F8F030002B30D18EB11C
:107C6000D4F8B0303360D4F8CC20079B9A422CD0A3
:107C70000023B360D4F8F0301BB12B680BB14FF088
:107C8000FF33336109B0F0BDD4F8F030002BCFD012
:107C9000069BC4F8CC30CFE7104BD3F80435D4F8AA
:107CA000F0200392D4F8102102922A6801920C4A23
:107CB000009240F27D220B4904200DF04DFCC4E7F8
:107CC000D4F8840101F0FEFDC9E74FF0FF33D0E79F
:107CD000B01A0500743400207034002000100140F8
:107CE000001D0500D51A0500F0B589B004461546FB
:107CF0001F460E9E012380F87931D0F8A43006A9E2
:107D000098472968C4F8CC10B5F90430A4F8D230EB
:107D1000D4F8B030C4F8C830B4F9B430A4F8D030D6
:107D200094F8980024F0F0FD002842D1B4F9D21064
:107D300094F8980024F00EFE002840D194F8993071
:107D40001BB12B68069A9A423FD0B4F9D230009307
:107D5000BDF91C30D4F8CC2006992046FFF738F93D
:107D6000014600233A462046FFF720FAD4F8F07087
:107D7000274B1B6813F4804F03D0264B1B68032B43
:107D80002ADC04F1E00001F0B7FED4F8840101F030
:107D900099FD66B1D4F8B0303360D4F8CC30B3601C
:107DA000B4F8B430B380B4F8D230B381376109B0DD
:107DB000F0BD194A4FF4B9711CF032F8B6E7164A13
:107DC00040F273111CF02CF8B8E7BDF81C20AB880A
:107DD0009A42BAD10027DCE7104BD3F804352A6861
:107DE0000F49A1FB0212A988D4F8F400059004976A
:107DF000D4F8100103900291C2F3CF320192094AE4
:107E000000924FF4C072084904200DF0A5FBB8E7BA
:107E10007434002070340020B01A050000100140B6
:107E200001800080281D0500D51A05002DE9F041CC
:107E30008EB0044615461F46149E012280F8782114
:107E40002A88ADF82C20AA7A8DF82E20D0F89C0034
:107E5000D0F8C020D2F8048009AA00920BAAC0472B
:107E6000D4F8A4300CA9204698476968C4F8CC100F
:107E7000B5F90830A4F8D230D4F8B030C4F8C8301E
:107E8000B4F9B430A4F8D03094F8980024F03CFD54
:107E9000002843D1B4F9D21094F8980024F05AFD88
:107EA000002841D194F899301BB16B680C9A9A4222
:107EB00040D0B4F9D2300093BDF93430D4F8CC209E
:107EC0000C992046FFF784F8014600233A462046E5
:107ED000FFF76CF9D4F8F070294B1B6813F4804F4E
:107EE00003D0284B1B68032B2BDC04F1E00001F0CE
:107EF00003FED4F8840101F0E5FC66B1BDF824303E
:107F00003380BDF826303381D4F8B0307360D4F8B4
:107F1000CC30F36037610EB0BDE8F0811A4A4FF4FF
:107F200081711BF07DFFB5E7174A40F203111BF08A
:107F300077FFB7E7BDF834202B899A42B9D10027E3
:107F4000DBE7124BD3F8043529886A681048A0FB98
:107F500002022889D4F8F45006950597D4F81051F8
:107F600004950390C2F3CF3202920191094A009224
:107F70004FF48872084904200DF0EEFAB5E700BF0F
:107F80007434002070340020B01A05000010014045
:107F900001800080781D0500D51A050038B504461B
:107FA0001546D0F89C30114693F8C40025F01AFF0E
:107FB00068B9291D94F8980024F008FD68B905F106
:107FC000080194F8980024F029FD60B938BD094AE9
:107FD0004FF4D4711BF024FFEBE7064A4FF4D57140
:107FE0001BF01EFFEBE7034A40F2AB111BF018FF3A
:107FF000ECE700BFB01A050070B584B00446164621
:108000001D46D0F89C30118893F8C40025F0D4FEAA
:1080100060BB716894F8980024F0C4FC60BBB6F9AA
:10802000081094F8980024F0E3FC58BBD4F89C3076
:1080300001A993F8C40025F0D5FE48BB02A994F825
:10804000980024F0C3FC48BB03A994F8980024F0DE
:10805000E5FC48BB01A9201D24F08DF925B104AB36
:1080600013E9070085E8070004B070BD114A40F22B
:10807000B9111BF0D5FECCE70E4A40F2BB111BF044
:10808000CFFECCE70B4A4FF4DE711BF0C9FECDE703
:10809000084A4FF4DF711BF0C3FECFE7054A4FF4E7
:1080A000E0711BF0BDFECFE7024A40F2C1111BF0A8
:1080B000B7FECFE7B01A050070B588B00646154682
:1080C0001C4603A990F8980024F0CCFC30BB039A1E
:1080D0002B4B9A4228D0049A9A4225D000238DF83F
:1080E0001430039B0693049B07932A68254B9A42FE
:1080F00002D201238DF814306A68234B9A4202D9C8
:1081000002238DF814309DF8143013B324B108AB5A
:1081100013E9070084E8070008B070BD1B4A40F26D
:10812000E3111BF07DFED2E7194B1B6813F4804F5F
:10813000D4D0184B1B68012BD0DD174BD3F8043576
:10814000164A00924FF4F372154902200DF004FA1A
:10815000C4E72A6806926B6807930392049303A905
:1081600096F8980024F06CFC20B905A9301D24F085
:10817000F5F8CBE7054A40F203211BF051FEF4E786
:108180000100FEFFE0FC1F03E0B11F4EB01A050026
:10819000743400207034002000100140E81B0500FA
:1081A000D51A050038B5002845D00446002A44D029
:1081B000D0F8A430002B42D0D0F8A0307BB1C4F866
:1081C0009C20C2F8D840D4F89C301E4AC3F8D42072
:1081D0002046FFF71DFC054638B1284638BDD0F8CB
:1081E000A830002BEBD10E25F7E7174BC4F88031F0
:1081F000164BC4F8E030164BC4F8E430154BC4F805
:10820000E830154BC4F8EC3004F1E000C4F8680124
:10821000002384F87A3101F0D1FC05460028DCD136
:1082200004F5BE710D4808F062FF0D4807F0ECFD43
:108230000C4B1860D1E70E25CFE70E25CDE70E25B4
:10824000CBE700BF49760200FC1D05005971020012
:10825000817002007D78020031770200A435002091
:1082600055700200A035002000286CD030B589B0D0
:10827000054690F89840D0F89C3002A993F8C400C5
:1082800025F032FD30BB03A9204624F051FB38BB5A
:1082900004A9204624F09AFB40BB05A9204624F0FF
:1082A0006FFB48BB0DF11601204624F0B7FB48BB1D
:1082B00006A9204624F0D6FB50BB069A234B9A42CF
:1082C0002CD0079A9A4229D002A9284624F03AF9DC
:1082D00009B030BD1E4A40F2C3411BF0A1FDD2E7F8
:1082E0001B4A40F2C4411BF09BFDD1E7184A40F203
:1082F000C5411BF095FDD0E7154A40F2C6411BF081
:108300008FFDCFE7124A40F2C7411BF089FDCFE74E
:108310000F4A4FF499611BF083FDCEE70D4B1B68AC
:1083200013F4804FD0D00C4B1B68012BCCDD0B4BD2
:10833000D3F804350A4A009240F2CB4209490220A0
:108340000DF00AF9C0E70E20704700BF0100FEFFE4
:10835000B01A050074340020703400200010014071
:10836000E81B0500D51A050020B129B1C0F8841119
:10837000002070470E2070470E20704708B5D0F8D7
:10838000C83013B1B0F8E810984708BD08B5A03858
:1083900001F0C0FB08BD000010B582B0134B1C6893
:1083A00007E0002204F8042CA4F19C0001F0B2FBC9
:1083B0002468C4B114F8043C002BF9D00C4B1B68A2
:1083C00013F4804FEDD00B4B1B68032BE9DD0A4BF8
:1083D000D3F80435094A00924FF438720849042052
:1083E0000DF0BAF8DDE7012002B010BDBC35002069
:1083F000743400207034002000100140441E050039
:108400002D1E050030B587B00446A0F1F805037FA6
:10841000012B03D033B1022B08D103E010F8062C56
:10842000002AF7D034F80A3C24F80C3C34F8083C15
:1084300024F80E3C002344F8043C144B1B6813F44E
:10844000804F03D0124B1B68032B09DC54F8283CE7
:1084500023B134F80E2C216A2846984707B030BD66
:108460000C4BD3F8043514F83C2C34F80C1C206A5F
:108470000490606A039002910192074A009240F2D0
:108480001532064904200DF067F8DFE77434002048
:108490007034002000100140541E05002D1E050000
:1084A0000F4B1B6813F4804F03D00E4B1B68032B3C
:1084B00000DC704700B585B00B4BD3F8043510F8DD
:1084C0003C2C30F8101C02910192084A00924FF4A3
:1084D0003F72074904200DF03FF805B05DF804FB3A
:1084E000743400207034002000100140981E0500F4
:1084F0002D1E050038B50D46C4B20231204625F0C8
:10850000C1FC50B9291D204625F0E4FC50B929468C
:10851000204625F08FFC50B938BD074A9B211BF03F
:108520007FFCEFE7044A9C211BF07AFCEFE7024A4C
:108530009D211BF075FCEFE7081E050010B582B009
:108540000C466946FFF7D6FFBDF80400A04207D3EA
:10855000BDF80200A04202D914B9204600E020462E
:1085600002B010BD10B582B00446694690F8C40050
:10857000FFF7C0FFB4F8E830BDF80210BDF80420E2
:108580002BB18B4238BF0B46934228BF1346A4F849
:10859000E8302046FFF7F2FE02B010BD08B580F8C3
:1085A0001431C0F80C112D23C0F810313AB1134624
:1085B0005268C0F828211B68C0F8083108BD0023A4
:1085C000C0F8283100F5847190F8C40025F0D0FC83
:1085D0000028F3D0024A40F2BB311BF021FCEDE74A
:1085E000081E05002DE9F04188B004460D461746E7
:1085F0009846A0F5CC76D6F8CC300DF11E01304669
:10860000984707AA294696F8C40025F0DDFC002803
:1086100040D1A4F5CC75BDF81C1014F8D40CFFF7AC
:108620008DFF0146A5F8F000B5F8E830A5F8EE306A
:1086300095F8C40025F060FC90BB34F8A81CA9BBD9
:10864000CDF81480069714F8D33C2BB1BDF81E204A
:10865000BDF81C309A421AD0A4F1A007384601F0A8
:1086600059FA34F8A80CBDF81E10002305AA411AC7
:108670003046FFF793FF1D4B1B6813F4804F03D068
:108680001B4B1B68032B1EDC384601F035FA08B083
:10869000BDE8F081174A40F2E7311BF0C1FBB8E7B3
:1086A000144A4FF47C711BF0BBFBC6E7002214F8A0
:1086B000D40C25F02BFB0028C2D00E4A40F2F53135
:1086C0001BF0AEFBBCE70C4BD3F8043534F8A82CF8
:1086D00005990391069902910192084A009240F28D
:1086E0000642074904200CF037FFCDE77434002020
:1086F00070340020081E050000100140CC1E05004B
:108700002D1E050030B585B004460D4630F8B02C5E
:1087100010F8D40C25F03EFC50B9124B1B6813F432
:10872000804F03D0104B1B68042B07DC05B030BD15
:108730000E4A40F2CE311BF073FBEEE70C4BD3F840
:10874000043514F8D42C34F8B01C0391029501922E
:10875000084A009240F2D332074905200CF0FCFE93
:10876000E4E700BF7434002070340020081E0500C8
:1087700000100140041F05002D1E050038B51446E9
:10878000054638B132B1214695F8200025F0F0FBBE
:1087900020B938BD784601F0D3FEF4E7024A40F232
:1087A000ED111BF03DFBF4E7081E050030B583B06A
:1087B000054614467AB1694695F8C400FFF79AFE5B
:1087C000BDF802306380BDF80430A3809DF800300E
:1087D000237003B030BD784601F0B2FEEBE7000035
:1087E00070B582B014461D46064688B182B1216834
:1087F00096F8200025F0A8FB70B92368019301A921
:10880000304622F075FC0DB123682B6002B070BDBC
:10881000784601F095FEEAE7024A40F205211BF096
:10882000FFFAEAE7081E050010B582B00446B0F86A
:10883000E830ADF80030B0F8EA30ADF80230019120
:10884000D0F8D4301BB16946D0F8D80098476946B3
:10885000201D24F0F1FE02B010BD000030B585B03F
:108860000446A0F1F80530F8083C20F80E3C90F8DA
:108870002C20022A01D020F8103C2846FFF772FE77
:10888000224B1B6813F4804F03D0214B1B68032B32
:1088900017DC54F8283C23B134F80E2C216A284602
:1088A000984734F8101CF1B934F8101C14F8340C43
:1088B00025F022FB20BB00212846FFF7B5FF05B0BD
:1088C00030BD144BD3F8043514F83C2C34F8101C8C
:1088D00002910192104A00924FF464720F490420F1
:1088E0000CF03AFED5E7012214F8340C25F00EFA0C
:1088F0000028D9D00A4A40F29F311BF091FAD3E701
:10890000074A40F2A3311BF08BFAD4E774340020FD
:108910007034002000100140481F05002D1E050086
:10892000081E050030B587B01446054600B3FAB1FD
:10893000D5F8CC300DF1160128469847BDF8163011
:10894000238095F82431022B16D0B5F8EA306380E5
:1089500005F1F80001F0ECF860601D4B1B6813F4A2
:10896000804F03D01B4B1B68042B1FDC07B030BDAE
:10897000784601F0E5FDDBE704A995F8C400FFF7B0
:10898000B9FDB5F8EA20BDF814309A420BD00023A7
:108990006380D5F8183123B1D5F81C310BB14FF0F5
:1089A000FF336360D9E74FF6FF73F1E70A4BD3F863
:1089B0000435228861886068039002910192074A19
:1089C0000092D322064905200CF0C6FDCEE700BF79
:1089D0007434002070340020001001407C1F05001A
:1089E0002D1E05002DE9F04182B00446A0F1F808E3
:1089F00001F0C1F80546204601F09AF8074694F8C0
:108A00002C30022B35D034F80E3C34F80C6C9B1B08
:108A10004FEAE37CA3FB0501226AD31705FB0C1187
:108A200026F097FF0644694614F8340CFFF762FD00
:108A300076B3BDF80430BDF802008642B8BF0646E2
:108A40009E42A8BF1E46B6B224F8106C4046FFF7FF
:108A500095FC94F82C30022B1CD0B7F5FA7F05D981
:108A600054F8043CEB1AB3F57A7F33D802B0BDE872
:108A7000F08134F80C6C606A4FEAE07CA5FB0001E1
:108A8000226A002305FB0C1126F063FF0644CAE7A7
:108A90000026D9E734F8102C636A002B03DDBDF8FB
:108AA00004108A4212D0002B0ADB0023002BD4D002
:108AB000012384F898300B4B186807F0C5F9CCE710
:108AC000BDF802309A4203D00023EFE70123EDE71F
:108AD0000123EBE744F8045C39464046FFF7A4FE67
:108AE000C4E700BFB8350020F8B138B50D460446DC
:108AF0000F4BC0F8C0300F4B0F4A1A600F4A5A6034
:108B0000C0F8B8300E4B0F4A1A600F4A5A60C0F8CE
:108B1000AC30C43025F070FA00B138BD84F8C5001F
:108B20002946204624F0B4FDF7E70E20704700BF29
:108B30004C200500B03500207D8B02004D8B0200DB
:108B4000A8350020E18702007D87020038B5144671
:108B5000054638B132B1214695F8600025F0C4F8D9
:108B600020B938BD784601F0EBFCF4E7024A40F248
:108B7000D5111BF055F9F4E7081E050070B5144631
:108B80001D46064650B14AB1217896F8600025F09E
:108B900095F838B90DB123782B7070BD784601F087
:108BA000CFFCF1E7024A40F2C1111BF039F9F1E7BD
:108BB000081E0500F0B587B015461F460C9E0446FA
:108BC00038B332B3D4F8DC302BB1B5F9001089B228
:108BD000D4F8E000984702233A46B5F90010204641
:108BE000FFF7DCFCD4F8CC3004F1E80120469847CC
:108BF00004A994F8C400FFF77DFCB5F90030002B00
:108C00000BDDD4F8082142B1BDF81430A4F8F030DF
:108C100009E0784601F094FCD4E7002B2EDBB4F891
:108C2000E830A4F8F030284B1B6813F4804F03D0D1
:108C3000264B1B68032B2ADC04F1F80000F05CFFD4
:108C4000B5F900301BB1D4F80831002B34D19EB1F6
:108C5000B4F8E8303380B4F8EA20BDF814309A4212
:108C60002FD000237380D4F8083123B1B5F9003038
:108C70000BB14FF0FF33736007B0F0BDD4F808318B
:108C8000002BCCD0BDF81230A4F8F030CBE7104B5D
:108C9000D3F80435B5F90020D4F808110391D4F8BD
:108CA0002811029101920B4A00924FF4CB720A49AB
:108CB00004200CF051FCBFE7D4F89C0100F002FE48
:108CC000C5E74FF6FF73CDE7743400207034002001
:108CD00000100140A41F05002D1E0500F0B589B04D
:108CE00015461F460E9E0446002853D0002A51D038
:108CF000D4F8DC301BB12988D4F8E0009847D4F8C8
:108D0000CC300DF11E0120469847298894F8C40004
:108D1000FFF714FC0146A4F8F000B4F8E830A4F81A
:108D2000EE3094F8C40025F0E7F8002836D1B4F806
:108D3000F010002937D194F8C53023B12A88BDF846
:108D40001E309A4251D0B4F8F000BDF81E10002336
:108D50003A46411A2046FFF721FCD4F80851244B2B
:108D60001B6813F4804F03D0224B1B68032B26DCB7
:108D700004F1F80000F0C0FED4F89C0100F0A2FD60
:108D800036B1B4F8E8303380B4F8F03073807560F1
:108D900009B0F0BD784601F0D3FBA9E7164AF221ED
:108DA0001BF03EF8C3E7002294F8C40024F0AEFFA5
:108DB0000028C0D0104AF5211BF032F8BBE70F4B5A
:108DC000D3F80435B4F8F020D4F80C1104910395CD
:108DD000D4F8281102910192094A009240F201123E
:108DE000084904200CF0B8FBC2E70025C8E700BF23
:108DF0007434002070340020081E0500001001406B
:108E0000D81F05002D1E0500F0B589B015461F4678
:108E10000E9E044600284BD0002A49D0D4F8DC30FE
:108E20001BB12988D4F8E000984704F1080021F02C
:108E3000CDFF84F8F200444B1B6813F4804F13D02D
:108E4000424B1B68032B0FDD414BD3F804352A79C5
:108E500090B34049029101923F4A009240F233128E
:108E60003E4904200CF078FBD4F8CC3004F1E80142
:108E70002046984706A994F8C400FFF73BFB94F8F6
:108E8000F2301BB1B4F8E820A4F8EE20B3B1B4F886
:108E9000E8102B681944002915DDBDF81C308B4201
:108EA00012DBBDF81A309942B8BF19468BB20BE0FD
:108EB000784601F045FBB1E72949CBE7B4F8EE105D
:108EC0002B681944E7E70023A4F8F03001233A4661
:108ED00029682046FFF762FB1B4B1B6813F4804F89
:108EE00003D01A4B1B68032B11DC04F1F80000F0CF
:108EF00003FE2B6813BB46B1B4F8E8303380B4F8F6
:108F0000F0307380D4F80831736009B0F0BD104BB5
:108F1000D3F80435B4F8F0200492D4F80821039271
:108F2000D4F8282102922A6801920E4A00924FF446
:108F3000A8720A4904200CF00FFBD6E7D4F89C0174
:108F400000F0C0FCD7E700BF74340020703400206C
:108F500000100140C01C0500C81C05002D1E0500A6
:108F6000A01C05001820050038B50C46054620B1A8
:108F70002146281D24F07EFB38BD784601F0E0FA3A
:108F8000F6E7000070B582B005461C461646C2B131
:108F9000694695F8C400FFF7ADFA00238DF800305C
:108FA000318891B901238DF8003044B1BDF8023009
:108FB0006380BDF80430A3809DF80030237002B0B8
:108FC00070BD784601F0BCFAE2E7ADF80210738894
:108FD000ADF8043095F8C40024F03EFF90B9BDF818
:108FE000041095F8C40024F05FFF88B99DF80010C4
:108FF00095F8C40024F008FF80B969462846FFF7B9
:10900000B3FFD2E7084A40F27F211AF009FFE6E7F2
:10901000054A4FF420711AF003FFE7E7024A40F2D5
:1090200081211AF0FDFEE8E7081E050030B583B087
:109030000C460023ADF80430054638B1ADF80440C5
:1090400001A9281D24F009FB03B030BD784601F0CA
:1090500077FAF3E770B504461D4616466AB13188C3
:1090600094F8C40024F0A8FE58B931882046FFF7D0
:10907000DDFF0DB133882B8070BD784601F060FABA
:10908000EDE7034A40F23E211AF0CAFEEDE700BFC9
:10909000081E050038B50446154632B1294694F835
:1090A000C40024F09FFE20B938BD784601F048FA8C
:1090B000F4E7034A40F225211AF0B2FEF4E700BFBC
:1090C000081E050038B50446154632B1294694F805
:1090D000C40024F047FE20B938BD784601F030FACC
:1090E000F4E7034A40F21A211AF09AFEF4E700BFAF
:1090F000081E050038B500283AD00446D0F8CC3018
:10910000002B37D0D0F8C83033B12046FFF7ECFC45
:10911000054638B1284638BDD0F8D030002BF4D100
:109120000E25F7E7144BC4F89831144BC4F8F83007
:10913000134BC4F8FC30134BC4F80031124BC4F885
:10914000043104F1F800C4F88001002384F8903160
:1091500000F034FD05460028DCD104F5CA710B4847
:1091600007F0C5FF0A4806F04FFE0A4B1860D1E72A
:109170000E25CFE70E25CDE770200500A184020063
:1091800005840200E58902005D880200BC350020EC
:1091900099830200B835002000285AD030B585B038
:1091A000054690F8C44002A9204624F043FE30BB97
:1091B0000DF10A01204624F065FE30BB03A92046CC
:1091C00024F088FE38BB6946204624F08DFD40BB64
:1091D0000DF10201204624F0A5FE40BB01A9204666
:1091E00024F0C0FD48BB0DF10601204624F0FAFD35
:1091F00048BB6946284624F017FB05B030BD164A27
:109200004FF48B611AF00CFED2E7134A40F2594139
:109210001AF006FED2E7104A40F25A411AF000FE58
:10922000D1E70D4A40F25B411AF0FAFDD0E70A4A55
:1092300040F25C411AF0F4FDD0E7074A40F25D418C
:109240001AF0EEFDCFE7044A40F25E411AF0E8FD65
:10925000CFE70E20704700BF081E050020B129B1DE
:10926000C0F89C11002070470E2070470E207047F8
:109270005038704710B586B0FFF7FAFF0446154B1B
:109280001B6813F4804F03D0134B1B68042B0BDCBB
:109290000023A4F84830236C23B1B4F84A20216F8E
:1092A0002046984706B010BD0C4BD3F8043590F813
:1092B0003420B0F84A10006F0490606F0390029160
:1092C0000192074A00924FF4C672064905200CF03D
:1092D00043F9DDE7743400207034002000100140B1
:1092E000B0200500A120050000B583B0FFF7C0FF46
:1092F0000D4B1B6813F4804F03D00C4B1B68042BE1
:1093000002DC03B05DF804FB094BD3F8043590F898
:1093100034200192074A009240F283120649052048
:109320000CF01AF9EDE700BF74340020703400200F
:10933000001001402C1B0500A120050000B585B0E0
:109340008DF80410B0F84830ADF80630B0F84A3067
:10935000ADF80830039201A9043025F081F805B07A
:109360005DF804FB10B584B0FFF782FF0446B0F847
:109370004A20A0F848200023A0F84A30134B1B686D
:1093800013F4804F03D0124B1B68042B0DDC236CAD
:1093900023B1B4F84A20216F20469847226F00215C
:1093A0002046FFF7CBFF04B010BD0A4BD3F80435BD
:1093B00090F8341002920191074A00924FF4D27251
:1093C000064905200CF0C8F8E1E700BF743400201E
:1093D0007034002000100140F4200500A120050099
:1093E00070B138B50C4605463C3025F0DFF900B1C8
:1093F00038BD044BAB632146284625F03FF8F7E71C
:109400000E2070476022050038B5044680F86C20B5
:10941000012343662D2383660D4629B16B68C4F88A
:1094200080302B68236638BD784601F089F8F5E76F
:109430002DE9F0418AB015469846109E0446E0B1E9
:10944000DAB1B4F8482029888A421AD1002246B1FC
:109450003270B4F848307380B4F84A30B380236E69
:10946000B360434B1B6813F4804F03D0414B1B6820
:10947000032B6ADC0AB0BDE8F081784601F060F8A1
:10948000DFE70DF11B0294F83C0025F053F9074685
:10949000002858D1002308930993B8F1000F1AD07F
:1094A000002241462046FFF7AFFF2B88A4F84A3040
:1094B000D4F8F030BB4221D907F13A0354F8230025
:1094C0000368D3F80480236ED4F880209DF81B1025
:1094D000C0470137ECE7236B9B685B6853B1206B97
:1094E00083685B6807AA00219847079B08930DF1E2
:1094F0002008D5E7784601F023F8F0E71C4B1B68FD
:1095000013F4804F03D01B4B1B68042B05DC04F1C4
:10951000500000F0F1FA002299E7174BD3F8043518
:109520002A88216E0491D4F8801003919DF81B10B5
:1095300002910192114A009240F22B12104905202B
:109540000CF00AF8E3E7022281E70B4BD3F804356D
:10955000B4F84810B4F84A00039002910192094A05
:1095600000924FF49F72064904200BF0F5FF81E74B
:109570007434002070340020001001402C210500BC
:10958000A12005006421050070B506460D460024A3
:1095900001E0023501340F2C0CD82A46E1B296F8CE
:1095A0003C0025F0CFF80028F3D0034A62211AF0DE
:1095B00037FCEEE770BD00BF7C20050030B583B0FE
:1095C00014460546A0B19AB100232370B5F848307F
:1095D0006380211D2846FFF7D7FF0E4B1B6813F44D
:1095E000804F03D00C4B1B68032B05DC03B030BD50
:1095F000784600F0A5FFE7E7084BD3F8043562880A
:109600000192074A0092F822064904200BF0A4FFB9
:10961000ECE700BF743400207034002000100140DB
:1096200098210500A120050030B587B014460546F5
:10963000E0B1DAB100232370B5F848306380B5F8A3
:109640004A30A38095F87C30022B13D12B6F0BB1DD
:109650004FF0FF33A360144B1B6813F4804F03D00B
:10966000124B1B68032B0BDC07B030BD784600F0B3
:1096700067FFDFE705F1500000F05AFAA060EAE763
:109680000B4BD3F804356288A188686F0490A068FA
:10969000039002910192074A0092E22206490420B7
:1096A0000BF05AFFE0E700BF743400207034002054
:1096B00000100140BC210500A1200500F0B587B0D5
:1096C00017461D460446E0B1DAB10DF1170239889C
:1096D00094F83C0025F050F8064620BBB4F848202A
:1096E0003B889A4203D0B4F84A20934217D104F140
:1096F000500000F00FFA0023A4F84A30A4F84830D4
:109700000DE0784600F01CFFDFE706F13A0354F85D
:10971000230003689B689DF8171098470136D4F81A
:10972000F030B342F1D845B100232B70B4F8483083
:109730006B80291D2046FFF727FF0E4B1B6813F493
:10974000804F03D00C4B1B68032B01DC07B0F0BD2E
:109750000A4BD3F80435B4F84A20B4F84810029103
:109760000192074A0092C322064904200BF0F4FE3E
:10977000ECE700BF7434002070340020001001407A
:1097800004220500A1200500F0B587B017461D464C
:10979000044668B162B10DF11702398894F83C00B3
:1097A00024F0A4FF0646B8B93B88A4F848300DE081
:1097B000784600F0C5FEEEE706F13A0354F82300C0
:1097C00003681B689DF8171098470136D4F8F030ED
:1097D000B342F1D8002600E001263DB12E70B4F866
:1097E00048306B80291D2046FFF7CEFE0E4B1B68CC
:1097F00013F4804F03D00D4B1B68032B01DC07B023
:10980000F0BD0B4BD3F80435B4F84A20B4F8481037
:10981000039102920196074A009298220649042079
:109820000BF09AFEEBE700BF743400207034002088
:10983000001001402C220500A120050000B310B546
:109840000446036CFBB1FFF7CBFD034608B1184695
:1098500010BD0023A4F848300C4A22650C4A62650A
:10986000A3650C4BE36504F15000C4F8D80000F088
:10987000A5F903460028EAD10022C4F8F020E6E763
:109880000E23184670470E23E1E700BFE99202005D
:109890007592020065930200024668B171B1D0F87A
:1098A000F030012B0CD803F13A0042F820100133BC
:1098B000C2F8F030002070470E2070470E2070472D
:1098C000042070470023A0F84830704708B5034BC8
:1098D00053F820300846984708BD00BF74220500A1
:1098E00008B5034B53F820300846984708BD00BF21
:1098F0008C22050008B5836803B1984708BD006B4A
:10990000003818BF012070470369013B13F1030FB2
:1099100003D843691BB9002070470020704701201D
:10992000704708B5024601218C300AF08AFD08BD57
:1099300008B50A4600230B63022102F18C000AF0ED
:1099400080FD08BD90F82C30022B01D1002070471B
:1099500010B50446383021F0ACFA4FEA411C4CEA0D
:10996000D06C4201121A6CEB010C4FEA8C0C4CEAE1
:10997000927C93001B1841EB0C01C90041EA537122
:10998000C3F3103343EA4143C90B226A934271F196
:10999000000301D3012010BD0020FCE710B50446F0
:1099A000002303630362703005F070FB04F138009C
:1099B00021F0BBFA10BD10B50446383021F0B5FADD
:1099C00000232362E3680BB12046984710BD08B519
:1099D000844600F1200E00F110030FCB8EE80F003B
:1099E0006046FFF7E8FF08BD08B5FFF7E4FF08BDD4
:1099F00070B5044600F13805284621F096FA04F1C6
:109A0000200604F110030FCB86E80F00636A83EA97
:109A1000E376A6EBE376002B43D0226AD30E510106
:109A2000891A63F100039B0043EA91738900891846
:109A300043F100034FEAC30C32460023C8004CEA4E
:109A4000517125F01FFFA66AF20E73019B1B62F194
:109A50000002920042EA93729B009B1942F10002BD
:109A6000D20042EA5372DB001E469446984271EBE4
:109A7000020301D306468C46B6F57A7F7CF10003DB
:109A800013D221220023C4E91023012384F83830A3
:109A9000284621F021FA18B963680BB1204698478F
:109AA00070BD784600F04CFDB7E74FEACC3141EA93
:109AB0005641F60305483018054A4FF0000341F1BE
:109AC000000125F0DFFEC4E91001DEE720A1070058
:109AD00040420F0010B5044605F024FB236B4FF401
:109AE0007A7101FB030104F1700005F0E7FA2368C5
:109AF0000BB12046984710BD10B5044630B1224640
:109B0000002104F18C000AF09CFC10BD784600F0A6
:109B100017FDF4E710B5044630B12246032104F1E5
:109B20008C000AF08EFC10BD784600F009FDF4E7C9
:109B300038B50546D8B12C6A05F1380021F0B9F9DD
:109B40004A0142EAD06243011B1A62EB0102920011
:109B500042EA93729B00181841EB0201C90041EAE6
:109B60005071C0F3103040EA4140201A38BD7846A9
:109B700000F0E6FCDFE710B50446D8B104F1380088
:109B800021F097F984464A0142EAD06243011B1A48
:109B900062EB0102900040EA93709B0013EB0C0310
:109BA00041EB0000C00040EA5370C3F3103343EAB6
:109BB000404010BD784600F0C3FCDFE738B50446EE
:109BC00090B1C4F880400A4BA367A464094BE364D6
:109BD00004F1380021F0C0F90546074904F18C0072
:109BE0000AF019FC284638BD784600F0A9FCE8E7E1
:109BF0003199020023990200C422050069DF7047F1
:109C000003781F2B00D07047014B01221A70FAE72E
:109C1000C33500203F4B1B78002B79D000B587B0AF
:109C2000012804D003286CD007B05DF804FB0023A2
:109C3000019301A9012019F0D5FA00284BD1002386
:109C40000393049305939DF80C20012363F303020F
:109C50008DF80C20D2B263F307128DF80C209DF81A
:109C60000D2063F301028DF80D201823ADF8163096
:109C7000019A03A94120FFF7C1FF78BB01A819F0A1
:109C80007FFB70BB244B1B6803B1984701230293F1
:109C900002A90DF1020014F06DFF28BBBDF802000F
:109CA00014F008FB0DF1010114F0AAFCF8B90FF053
:109CB00001F99DF8011000200FF0FCFBD0B904F071
:109CC0005DFED8B9134B00221A70134B5B68002B52
:109CD000AAD09847A8E71AF095F8B0E71AF092F8DA
:109CE000CCE71AF08FF8CDE71AF08CF8D6E71AF027
:109CF00089F8DCE7784600F023FCE0E71AF082F808
:109D0000E0E719F0F3FB00288ED01AF07BF88BE720
:109D1000704700BFC2350020C435002008B5064B8F
:109D200001221A70054804F097FE04F079FE00B98C
:109D300008BD1AF067F8FBE7C23500201034002098
:109D400008B503781C2B00D008BD074B1B78002BEF
:109D5000FAD019F00FFC18B9044804F081FEF3E7BB
:109D60001AF050F8F8E700BFC23500201034002088
:109D700008B5094B1B7863B9084909481BF064FB17
:109D800040B9032300220749496907481BF078FBC3
:109D900000E0082008BD00BFC3350020E0350020EA
:109DA0004C390020C43500201838002008B503784D
:109DB000023B082B3FD8DFE803F01C05113E3E2C88
:109DC0003E3E36001E4B9B68002B34D0007A0028A4
:109DD00031D01C4A0121117098472CE0184BDB68E8
:109DE0004BB3184A127832B3164A002111709847C3
:109DF00021E0154B1B784BB9114B1B691BB1114A64
:109E0000002111709847FFF7B3FF14E0FFF786FFBA
:109E100011E010220A4B99690C481BF0BAFB50B1B3
:109E200019F0F0FF07E08168C0680DF07DFC18B9FB
:109E3000054B01221A7008BD19F0E4FFF8E700BFD6
:109E4000C4350020C0350020C1350020183800205E
:109E500010B586B08446224A03AB07CA03C323F871
:109E6000022B120C1A701F4CA646BCE80F00AEE87D
:109E70000F009CE807008EE80700A369002B2DD097
:109E8000194B009303AB194A19491A481BF09AFA67
:109E9000034610B1184606B010BD17481DF050F823
:109EA000014614481BF0BAFA03460028F2D11348C1
:109EB0001DF0C6F903460028ECD110481DF0F8F952
:109EC00001460C481BF0AAFA03460028E2D10C48D0
:109ED00004F0C2FDFFF74CFF0346DBE70723D9E799
:109EE000D4220500C4350020AD9D0200E0350020DD
:109EF0004C3900201838002000360020C8370020D8
:109F00001C34002008B5064B1B681BB906E0044B47
:109F10001B68984717F0AAFA0028F8DA08BD00BFB6
:109F20008C39002010B50C46134B1860134A0121E0
:109F3000134824F08BFF98B9610CE00341F2707371
:109F4000984271F1000310D34FF47A72002325F088
:109F500099FC014600220B4824F08EFF38B910BD51
:109F6000094A4A2119F05CFFE6E70521F2E7064AB3
:109F70004B2119F055FFF2E78C390020059F0200B4
:109F80001423050090390020E0220500002800F08D
:109F900082802DE9F04FD1B004463F4B1B6813F48B
:109FA000804F03D03D4B1B68032B31DC3A4B1B68C1
:109FB00013F4804F03D0394B1B68032B2ADC51B0BC
:109FC000BDE8F08FE25C36490D68100959002E5C3F
:109FD0000FA800F8136002F00F020131AA5C42548E
:109FE00001330F2BEED90FAA00238DF85C3003F15B
:109FF000804303F58833D3F804350292294A01924D
:10A00000294A00924222294904200BF0A5FACDE703
:10A010000023E6E7264BD3F804350D9320680202AF
:10A0200002F47F0242EA0062010A01F47F4142EA3F
:10A030000108B4F804C04FEA0C2292B2B4F806E06A
:10A040004FEA0E2189B2257A667AA77AE37A94F8E4
:10A050000C9094F80DA094F80EB0E47B0B94CDF81E
:10A0600028B0CDF824A0CDF8209007930697059648
:10A07000049541EA1E21039142EA1C22029248EA19
:10A08000106001900B4A00920D9B43220749042067
:10A090000BF062FA93E770477434002070340020AC
:10A0A0007834002050230500C41605003D23050028
:10A0B000001001406423050072DF704773DF7047B2
:10A0C00074DF70472DE9F047A2B0074688469146F5
:10A0D000324C002525606560A560E56030490B784D
:10A0E000C3EB43102F4E064426602F4A0244A26061
:10A0F0001F22A280A281013303F001030B704FF0F5
:10A100003C0A5246294613A825F025FE06238DF861
:10A110004F30ADF8487001238DF84A30ADF85C300F
:10A1200012AA1892ADF83C70ADF84090CDF844807A
:10A130000DEB0A021D928DF878305246294668468A
:10A1400025F009FE02238DF80030221D314613A8A8
:10A1500018F032FF90B9114B03F10C029968684670
:10A1600018F02AFF68B9114A0C491148FFF7A4FFFB
:10A17000082809D070B922B0BDE8F08719F042FE76
:10A18000E9E719F03FFEEEE7002204490848FFF72F
:10A1900093FFEFE719F036FEEDE700BFF43900203A
:10A1A000B0390020B4390020043A00202C340020BB
:10A1B00028340020B0F5202F0AD2074BA3FB002340
:10A1C000DB0808B103B90123044A93819160704709
:10A1D0004FF6FF73F5E700BFCDCCCCCC2C3400207C
:10A1E00008B50121054B1878FFF768FF18B9002062
:10A1F00005F0EAFB08BD19F005FEF8E72834002059
:10A2000008B5044B1878FFF75BFF00B908BD19F0DB
:10A21000F9FDFBE72834002076DF70477ADF7047CE
:10A220007CDF704769DF704708B519F0EBFD08BDAA
:10A2300008B504F019FC08BD00B583B0037823B15C
:10A24000012B0BD003B05DF804FB3B214088FFF7E6
:10A25000E3FF0028F6D019F0D5FDF3E7094B1B68A2
:10A2600013F4804FEED0084B1B68032BEADD074B3D
:10A27000D3F80435064A00926822064904200BF000
:10A280006BF9DFE7743400207034002000100140C7
:10A29000E4230500C923050000B585B019F026F9AF
:10A2A00060BB0023039303A9012018F09BFF40BB70
:10A2B00000230093019302939DF80020012363F390
:10A2C00003028DF80020D2B263F307128DF800204C
:10A2D0009DF8012063F301028DF801201823ADF8E9
:10A2E0000A30039A69464120FFF79CFF60B903A832
:10A2F00019F046F858B905B05DF804FB19F082FD75
:10A30000CFE719F07FFDD3E719F07CFDEFE719F0F7
:10A3100079FDF0E700B585B09DF80C30012262F3BD
:10A3200003038DF80C30DBB262F307138DF80C30A9
:10A3300018220F4903A8FFF773FF98B90023019370
:10A3400002937823ADF80430C823ADF806304FF4FB
:10A35000C873ADF80A3001A8FFF760FF28B905B04F
:10A360005DF804FB19F04EFDE8E719F04BFDF6E748
:10A370001024050000B58BB001AA002301930293BD
:10A380007821ADF80410C821ADF806104FF4C8715B
:10A39000ADF80A100393049305930693079308936B
:10A3A0000993039240F6CD4304934FF48033059311
:10A3B00003238DF81830074B0893074B099303A824
:10A3C00019F080FA10B90BB05DF804FB19F01AFD12
:10A3D000F9E700BF39A2020029A202000620704757
:10A3E00000B587B044F2010398425DD01BD8012824
:10A3F00036D041F20103984271D1474B1B6813F4E8
:10A40000804F36D0454B1B68002B32DD444BD3F8D0
:10A41000043502920191434A00926322424901208D
:10A420000BF09AF825E044F20203984257D13A4BD8
:10A430001B6813F4804F1CD0384B1B68002B18DDB1
:10A44000374BD3F80435106803905268029201919B
:10A45000364A00926922344901200BF07DF808E069
:10A460002D4B1B6813F4804F03D02C4B1B68002B23
:10A470000DDC4FF0A0434FF4F012C3F81825C3F8D9
:10A480000C25EFF3108372B64DF6AD6C3DE0244B16
:10A49000D3F8043502920191254A009260222249A4
:10A4A00001200BF059F8E4E71B4B1B6813F4804FB5
:10A4B000DFD01A4B1B68002BDBDD194BD3F80435BA
:10A4C0001068049050680390029192680192194AB2
:10A4D00000927322144901200BF03EF8C9E70E4B9D
:10A4E0001B6813F4804FC4D00C4B1B68002BC0DDDD
:10A4F0000B4BD3F8043501910F4A00927B220A4995
:10A5000001200BF029F8B4E730BF0C4B1B78002B6F
:10A51000FAD107B05DF804FB7434002070340020D9
:10A52000001001408024050051240500A4240500EA
:10A5300064240500C4240500E824050044340020F8
:10A5400000B583B0014600230093054B01936A4692
:10A5500044F20200FFF744FF03B05DF804FB00BFC4
:10A56000901B050038B505464FF0A0430322C3F801
:10A570007C274FF00042C3F80C250C4C44F001043A
:10A580004FF4A070A047012D09D04FF4A050A04770
:10A590004FF0A0434FF00042C3F8082538BD4FF0FC
:10A5A000A0434FF00042C3F80825EEE71025050050
:10A5B00038B50546002407E045FA04F000F0010034
:10A5C000FFF7D0FF0134E4B2072CF5D94FF4C8509F
:10A5D000024B43F00103984738BD00BF102505002A
:10A5E00070B54FF0A0440323C4F87C374FF0004609
:10A5F000C4F80C650D4D45F001054FF4FA40A8472D
:10A60000C4F808650023C4F87C374FF4F060A8470D
:10A61000D4F810354FF4EB40A847D4F81035002B90
:10A6200001DB002070BD0120FCE700BF1025050004
:10A6300038B54FF0A0450323C5F87C374FF00043F1
:10A64000C5F80C35094C44F00104C020A047002394
:10A65000C5F87C374FF42070A047D5F81055ED0FA2
:10A660004FF45460A047284638BD00BF10250500B0
:10A6700038B50025012401E06400E4B22CB1FFF7F5
:10A68000D7FF0028F8D02543F6E7284638BD70B537
:10A6900006460D46FFF7A4FFCC20FFF789FFBE203A
:10A6A000FFF786FF002404E0FFF7E2FF3055013496
:10A6B000E4B2AC42F8D3FFF793FF70BD08B5FFF7E3
:10A6C0008FFFCC20FFF774FF4420FFF771FF08BD18
:10A6D00000B585B0FFF7F2FF022101A8FFF7D7FF11
:10A6E0009DF805301B021BB29DF80400184324F0AE
:10A6F000F3FF0022044B24F02DFF25F001F800EEBB
:10A70000100A05B05DF804FB0000B03F10B5044628
:10A71000FFF766FFCC20FFF74BFF4E20FFF748FF07
:10A720000020FFF745FF6420FFF742FF0B2C0DD000
:10A730000C2C05D00A2C0DD01F20FFF739FF02E0AA
:10A740007F20FFF735FFFFF74BFF10BD5F20FFF7BE
:10A750002FFFF8E73F20FFF72BFFF4E710B582B09B
:10A76000044680F87430C1662D2303673AB113465E
:10A770005268C0F888201B68836602B010BD0021B3
:10A78000C0F888100191D0F8F430186B83685B68CA
:10A7900001AA9847019BA366EFE708B59838FFF731
:10A7A000B9F908BD10B582B00146436A40F80C3CC7
:10A7B00030F9063C20F8083C30F9042C20F80E2C27
:10A7C00050F81C4C2CB1583891F82C3092B2096AD0
:10A7D000A0470B4B1B6813F4804F03D0094B1B6839
:10A7E000042B01DC02B010BD074BD3F80435074A37
:10A7F0000092AF22064905200AF0AEFEF2E700BF44
:10A800007434002070340020001001404C250500F5
:10A810003D2505000C4B1B6813F4804F03D00B4BF8
:10A820001B68042B00DC704700B583B0084BD3F8DD
:10A830000435084A00929C22074905200AF08CFE44
:10A8400003B05DF804FB00BF7434002070340020B6
:10A8500000100140642505003D250500F0B589B0D4
:10A86000044615461E46A0F1F0070DF11E0210F831
:10A87000F00C24F055FC58BBBDF91E1024F89C1CAC
:10A8800034F9A83C24F89E3C14F8C00C24F006FCD3
:10A8900020BB05960695A4F198052846FFF73AF9DE
:10A8A00034F99C0C34F99E1C002305AA411A384641
:10A8B000FFF754FF164B1B6813F4804F03D0154B62
:10A8C0001B68042B10DC2846FFF716F909B0F0BD11
:10A8D000114A40F2B71119F0A3FACDE70E4A40F23F
:10A8E000BD1119F09DFAD4E70C4BD3F8043534F9B7
:10A8F0009C2C05990391069902910192084A0092B5
:10A900004FF4E572074905200AF026FEDBE700BF99
:10A910007434002070340020182505000010014018
:10A92000742505003D25050008B530F9A82C10F860
:10A93000F00C24F0DBFB00B908BD034A40F2AB1178
:10A9400019F06EFAF8E700BF1825050070B584B05D
:10A95000044615461A46089EB5F90030002B2BDD3B
:10A9600047F6FF73A0F85430B4F94830A4F85230D9
:10A970000223B5F900102046FFF7F0FE1D4B1B68BF
:10A9800013F4804F03D01C4B1B68032B19DC04F11C
:10A990005800FFF7B1F8B5F9003033BB56B1B4F940
:10A9A00048303380B4F954307380A36E0BB14FF04C
:10A9B000FF33736004B070BD4FF40043A0F854300F
:10A9C000D2E70E4BD3F80435B5F90020A16E039100
:10A9D000D4F8881002910192094A009240F28B1239
:10A9E000084904200AF0B8FDD1E7D4F8F400FEF7D6
:10A9F00069FFD3E774340020703400200010014058
:10AA0000A82505003D250500F0B587B0044615468C
:10AA10001F460C9EB2F90010A0F85410B0F948304F
:10AA2000A0F8523090F8300024F038FB38BBB4F96D
:10AA30005400B4F9521000233A46411A2046FFF759
:10AA40008DFE214B1B6813F4804F03D01F4B1B68F6
:10AA5000032B1ADC04F15800FFF74EF8B4F9482034
:10AA6000B5F900309A4229D13EB1B4F9483033806B
:10AA7000B4F954307380A36E736007B0F0BD144A0C
:10AA800040F21F1119F0CCF9D1E7124BD3F804357D
:10AA9000B4F9542094F874100591E16E0491A16EFC
:10AAA0000391D4F88810029101920B4A009240F26F
:10AAB00027120A4904200AF04FFDCBE7D4F8F4002E
:10AAC000FEF700FFD0E700BF743400207034002090
:10AAD0001825050000100140D82505003D2505007A
:10AAE00070B586B00446A0F1580630F9043C20F851
:10AAF0000E3C90F82C20022A01D020F8103C34F9AA
:10AB0000103CADF8103034F90E3CADF81230002393
:10AB1000059304A9A4F1580020F0B8FD54F8243C92
:10AB20001BB134F9101C3046984754F81C5C3DB1F9
:10AB300034F90E2C94F82C3092B2216A3046A84792
:10AB40000D4B1B6813F4804F03D00C4B1B68042B78
:10AB500001DC06B070BD0A4BD3F8043534F9102C73
:10AB600034F90E1C02910192064A0092EF22064926
:10AB700005200AF0F1FCECE774340020703400206A
:10AB8000001001401C2605003D250500F0B583B0EE
:10AB90000446A0F1580690F82C30022B27D030F94B
:10ABA0000E5C30F9080C2D1A87B22046FEF7E3FF41
:10ABB0008446E917A5FB0005226A00230CFB01511E
:10ABC00024F0C7FE384424F8100C54F8243C1BB180
:10ABD00034F9101C30469847174B1B6813F4804F0C
:10ABE00003D0164B1B68062B16DC03B0F0BD30F803
:10ABF000087CFEF7C0FF054654F80C0C4FEAE07CD9
:10AC0000A5FB0001226A002305FB0C1124F0A1FE24
:10AC1000074424F8107CD8E7094BD3F804552046A4
:10AC2000FEF7A9FF0190074B00932B46CA22064965
:10AC300007200AF091FCD8E774340020703400201B
:10AC400000100140502605003D2505002DE9F0418A
:10AC500084B00446164698460A9F15686B42ADB20A
:10AC60009BB258BF5D42043020F0B0F8B0B93C4B05
:10AC70001B6813F4804F15D03A4B1B68032B11DD72
:10AC8000394BD3F8043532790192384A00924FF4A7
:10AC9000A672374904200AF05FFC03E0B4F948309B
:10ACA000A4F85230B4F852302B44A4F854300123A5
:10ACB000424629462046FFF751FD294B1B6813F4F5
:10ACC000804F03D0274B1B68032B1BDC244B1B68D6
:10ACD00013F4804F03D0234B1B68032B25DC04F1B6
:10ACE0005800FEF709FF3368002B33D13FB1B4F9A8
:10ACF00048303B80B4F954307B80A36E7B6004B055
:10AD0000BDE8F081184BD3F80435A26E0392D4F855
:10AD10008820029232680192164A009240F257123D
:10AD2000134904200AF018FCD0E70F4BD3F8043580
:10AD3000B4F95220B4F94810B4F9540003900291C8
:10AD400001920D4A00924FF4AD72094904200AF0B5
:10AD500003FCC4E7D4F8F400FEF7B4FDC6E700BF77
:10AD60007434002070340020001001406426050077
:10AD70003D250500D41C05009826050030B585B09A
:10AD800004461546836B00F148019847B4F94830F2
:10AD90002B80B4F94A306B8094F88430022B0FD1A9
:10ADA000A36F0BB14FF0FF336B60124B1B6813F4B2
:10ADB000804F03D0104B1B68032B07DC05B030BD60
:10ADC00004F15800FEF7B4FE6860EEE70B4BD3F8D1
:10ADD0000435B5F90020B5F90210686803900291B6
:10ADE0000192074A00924FF48772064904200AF044
:10ADF000B3FBE3E7743400207034002000100140FE
:10AE0000DC2605003D25050068B310B50446836BBC
:10AE100063B3436B43B1164BE362204620F0FCFB67
:10AE2000034630B1184610BDC36B002BF3D10E237F
:10AE3000F8E704F1300024F089F903460028F1D145
:10AE40000C4BC4F8F0300C4BA3650C4BE3650C4B7A
:10AE500023660C4B6366C4F8E04004F15800FEF72B
:10AE6000ADFE0346DEE70E23184670470E23D9E7F2
:10AE7000102705002027050015A80200A5A702003D
:10AE80008DAB0200E1AA020010B582B004460DF1BC
:10AE9000060190F8300024F017F930B9BDF906101A
:10AEA000204620F0FFFB02B010BD034A40F22D21E6
:10AEB00018F0B6FFF2E700BF1825050020B129B150
:10AEC000C0F8F410002070470E2070470E20704725
:10AED00008B51146007B24F0EBF900B908BD024A21
:10AEE0004B2118F09DFFF9E72C27050008B51168E4
:10AEF0001960007B24F0C8F900B908BD024A562148
:10AF000018F08EFFF9E700BF2C27050060B110B5DF
:10AF10000446064B836020F0B9F800B110BD04F17F
:10AF20000C0024F0D7F9F9E70E2070475C270500E4
:10AF300010B40346044C006859689A68DB680FC473
:10AF40005DF8044B704700BF443A00200E4B4FF0B1
:10AF5000805202F1600103C983E8030003F1080C89
:10AF6000A43292E803008CE8030093F9062002F073
:10AF70000F0242F040029A7193F9082002F03F025A
:10AF800042F080021A727047443A0020004870472D
:10AF9000443A0020002308E0074901EBC3000022E7
:10AFA0004280426001F8332001331F2BF4D9034B58
:10AFB00000221A60704700BF543A0020543B002022
:10AFC00000B58646114B1B684FF0000C0BE01F23A9
:10AFD0000F4A12F83300B0B102EBC3025288724537
:10AFE00009D00CF1010CBCF11F0F0BD85A1E002B1D
:10AFF000EDD01346ECE7064A02EBC30252688A42E0
:10B00000EFD100E000205DF804FB00BF543B0020BE
:10B01000543A002010B40B4A13680B4C04EBC30CD9
:10B02000ACF80200CCF80410012104F833100B44F2
:10B030001360202B02D05DF8044B704713460022AA
:10B040001A60F8E7543B0020543A0020006F024B8E
:10B05000C01A18BF012070471C3C0020002107299E
:10B0600018D830B402E00131072910D84FEA011C8A
:10B07000094C34F80CC08445F5D104EB0114A568E3
:10B08000E4689C4208BF9542EDD1012000E0002019
:10B0900030BC704700207047583B002030B4C36973
:10B0A0008469C1884FEA132C1B06C4F30C028A4240
:10B0B00018D28A1A2244A2F500529A184CF10001C3
:10B0C0000A4C23685D1C256003F00703B0F814C028
:10B0D00007481C0100EB031320F804C09A60D960F4
:10B0E00030BC70478A1A2244E7E700BFD83B0020F3
:10B0F000583B0020C37D9BB1C3780A7802F08002E0
:10B100000A7003F07F0313430B7002780B7803F08F
:10B110007F030B7043EAC2130B7003789BB970472F
:10B12000C3780A7802F0BF020A709B0103F0400363
:10B1300013430B70027903F0C0030B7002F03F025F
:10B1400013430B70E1E700B58378082B14BF00228E
:10B1500001224B7803F07F034B7043EAC2134B701C
:10B16000B0F806E0DAB202F080024A70CEF3861C34
:10B170004CEA02024A708B7803F003038B7043EAB7
:10B180008E038B7090F808E0DAB202F0FC028A704D
:10B19000CEF3C10C4CEA02028A70CB7803F01F0395
:10B1A000CB7043EA4E13CB70437ACA7802F0E002C8
:10B1B000CA7003F01F031343CB705DF804FB00005B
:10B1C000002300E00133032B27D8154A4FF0740CFD
:10B1D0000CFB032292F84C20012AF3D1104A0CFBFD
:10B1E0000322B2F814C0C2899445EBD10C4A4FF047
:10B1F000740C0CFB0322D2888A42E3D1084A0CFB70
:10B200000322B2F85C201AB1B0F814C06245D9D15B
:10B210000348742202FB030070470020704700BF00
:10B220009C3D0020002300E00133032B13D80B4A80
:10B23000742101FB032292F84C20022AF4D1074A20
:10B2400001FB0322918A828A9142EDD10348742244
:10B2500002FB030070470020704700BF9C3D0020A8
:10B2600008B90420704708207047000000210E4BE9
:10B270001B688B4216D9002300E001330B4A02EB16
:10B28000C10252689A420BD9084A52F8312002EBA7
:10B29000C30C12F833208242EFD1DCF8040070476F
:10B2A0000131E4E700207047DC3B0020E03B002058
:10B2B00030B58DB005460C462C22002101A824F0A3
:10B2C0004AFD10238DF8043002958DF80C4001A83A
:10B2D00001F084FB0DB030BD70B58CB006460D4654
:10B2E00014462C22002101A824F035FD0F238DF8EF
:10B2F0000430ADF808609DF80A3065F300038DF85E
:10B300000A308DF80B4001A801F068FB0CB070BD4D
:10B3100000B58DB010B913F1020F06D1074B1868B4
:10B3200004F092FD0DB05DF804FB01218DF80410CE
:10B330000293039201A801F051FBEFE7003C0020CB
:10B3400070B5049C002962D01D468E46D2F800C01C
:10B3500051689668D368C4F80CC021616661A36126
:10B36000D2F810C05169C4F81CC021620023637078
:10B370000278D20922705AB30423734549D8E17D7B
:10B3800041B3037803F07F03E3700023A3709AB105
:10B3900043789B0103F4FE53827843EA9203E380EF
:10B3A0008378DB0003F01803C27843EA5213237258
:10B3B000C37803F01F036372002363622B78032BAF
:10B3C00021D82A78144B53F82230E362002070BD54
:10B3D0000123D2E70178C1F38011E170017801F017
:10B3E0003F01217142B190F90130002B02DB0423AF
:10B3F000A370CCE70823FBE70421A1700B4473453D
:10B40000C5D90920E3E77846FFF79AF8D9E709207C
:10B41000DDE70920DBE700BF0429050070B50C4615
:10B420001D4603789BB104263244A26000F10C0350
:10B430002360836A6360C36AE36000232374204649
:10B4400005F080F810B963691E442E6070BD0126B6
:10B45000EAE72DE9F0418EB00D4616461C468046BF
:10B4600000282DD0002D2FD0002C31D0636A02335C
:10B47000059304F10C00E378002B2DD00121A27874
:10B4800001AF3B46082A14BF0022012204F029FE26
:10B490000697CDF81C80B2B2ADF820200B9515446C
:10B4A0000C95A3788DF83430237B022B16D0002323
:10B4B000ADF8283005A804F00CFE0EB0BDE8F08110
:10B4C0007846FFF73DF8CDE77846FFF739F8CBE748
:10B4D0007846FFF735F8C9E70221D0E723692BB199
:10B4E000236909931023ADF82830E3E77846FFF786
:10B4F00027F8F5E72DE9F04188B004460D46C37DF5
:10B50000002B3CD0082605FB06F8637AAB4238D006
:10B51000257201AB324602A92046FFF77FFF07469E
:10B5200048BB4DB994F8573033B9A369C3F30C0342
:10B53000E380012384F85730E37D7BB994F85630DB
:10B5400063B91DBB206FB4F84E10A27823468A1A47
:10B550000146FFF77EFF012384F856300799204605
:10B56000FFF7C8FD216F32464144019824F0CAFB21
:10B5700002A805F00DF8384608B0BDE8F0810C26A9
:10B58000C1E7B4F84E60A6EB0806C1E77846FEF7BF
:10B59000D7FFD7E770B505460E4609B100230B600B
:10B5A00095F85440002104E0631C85F854300134C0
:10B5B000E4B26B7AA34210D32A6D0123A3401A424E
:10B5C000F5D121462846FFF795FF014628B9002E00
:10B5D000EAD0336801333360E6E7084670BDF0B562
:10B5E00089B004460E46154683789A18C37D63B128
:10B5F0000B239A4221D801AB02A92046FFF70EFF88
:10B60000074620B1384609B0F0BD0F23F1E707998E
:10B610002046FFF76FFDE37D43B12A46314601988E
:10B6200024F070FB02A804F0B3FFEBE723462A46A0
:10B6300001993046FFF70DFFF4E70927E2E7000024
:10B6400010B5044690F84C30012B0FD103F06AFD81
:10B65000237B012B0ED00B4BD968012384F8483093
:10B66000014404F1300003F029FD10BD7846FEF7D7
:10B6700067FFEBE7A27D034BD9681B6903FB02114F
:10B68000EBE700BF043C002030B583B0002403E0AA
:10B690002846FFF7D5FF0134032C16D80C4B742233
:10B6A00002FB043393F84C30012BF4D100230193B7
:10B6B000074D02FB045501A92846FFF76BFF04283C
:10B6C000E6D0019B002BE6D0E2E703B030BD00BF1F
:10B6D0009C3D002038B5044690F84C30022B09D12F
:10B6E000064B1D6803F01EFD411904F1300003F004
:10B6F000E5FC38BD7846FEF723FFF1E7043C002067
:10B7000038B5044690F84C30022B10D10A4B5A7DC4
:10B710005D689B6803FB025503F004FD411904F1C9
:10B72000540003F0CBFC012384F86C3038BD78461C
:10B73000FEF706FFEAE700BF043C002010B5044610
:10B74000FFF784FC80B904F1300003F09FFC94F80B
:10B750004C30022B0CD074220021204624F0FBFA3E
:10B76000002002F04DFC10BD206F09F0BEFEEAE79C
:10B7700004F1540003F08AFCEDE7000030B585B019
:10B780000D460446D0B1E18894F84C30022B19D014
:10B7900094F84C30022B1ED02946A06DFFF788FD8F
:10B7A0002046FFF7CBFF164B1B6813F0040F03D0A6
:10B7B000144B1B68032B12DC05B030BD7846FEF736
:10B7C000BFFEE0E7637813F0020FE1D00022A08A09
:10B7D0000BF08CFBDCE72046FFF760FCDCE70A4B54
:10B7E000D3F8043594F84C2002950192074A009250
:10B7F00040F2F3120649042009F0AEFEDCE700BF78
:10B80000743400207034002000100140902705009F
:10B810008327050038B50546002400E00134032CD9
:10B820000ED8084B742202FB043393F84C30022BE1
:10B83000F4D12946034B02FB0430FFF79FFFEDE7ED
:10B8400038BD00BF9C3D002008B508460021FFF729
:10B8500095FF08BD10B58CB0044690F84C30012B14
:10B860000FD101238DF80430A36D029303F05AFC2D
:10B87000039001A801F0B2F82046FFF75FFF0CB07B
:10B8800010BD7846FEF75CFEEBE708B5037B012BA5
:10B8900002D0FFF7DFFF08BD0121FFF76FFFFAE7D6
:10B8A00008B590F8553053B1013B80F8553000236E
:10B8B00080F85430034B186804F0C6FA08BDFFF74F
:10B8C000E4FFFBE7003C002010B5002400E0013459
:10B8D000032C14D80A4B742202FB043393F84C3027
:10B8E000012BF4D1064B02FB043393F84830022BB2
:10B8F000EDD1034B02FB0430FFF7D2FFE7E710BDA9
:10B900009C3D002008B50378192B13D01A2B08D0C2
:10B91000182B00D008BD0820FFF77CFFFFF7D4FFED
:10B92000F8E70379012BF5D10620FFF773FFFFF746
:10B93000CBFFEFE70379012BECD10720FFF76AFF7C
:10B94000E8E710B504460B460978C1700021416252
:10B9500099680B2903D8197B51B3012100E001211B
:10B9600021700020A07029B199680731C9080139F8
:10B97000617220720121E17504F10C0C03F11001D8
:10B9800003C98CE80300D989A18299692162197FD2
:10B99000A1751B6AE362A26220460BF04BFA30B13C
:10B9A000237B012B06D0E36A43F02003E36210BD42
:10B9B0000021D5E72023E362F9E710B50446808A29
:10B9C00002F098FE01281CD1237BE3B194F91620E4
:10B9D000002A1ADBE27D4AB1022B18D094F9033019
:10B9E000002B16DBA378B3B900200BE0E2780AB98C
:10B9F000012B12D1237893B9A378042B11D1002005
:10BA000000E0102010BD1020FCE70720FAE710200E
:10BA1000F8E70720F6E70720F4E70720F2E7002021
:10BA2000F0E70720EEE738B5044603784BB1C3884A
:10BA3000C2698169808A06F02DFF054645B928460E
:10BA400038BDC2698169808A06F01EFF0546F5E7A8
:10BA5000E169002201F00101A08AFFF73DFCEEE759
:10BA60002DE9F04107460D4616464B1EDBB2012B71
:10BA700006D8B6F5C07F07D8012D09D0002413E001
:10BA80007846FEF75DFDF4E77846FEF759FDF3E7EB
:10BA9000012409E0304609F024FD394B742202FBF1
:10BAA0000434206716E00134032C11D8344B4FF0D6
:10BAB000740C0CFB043393F84C30002BF3D1304B57
:10BAC0000CFB0438002CE5D12E4BC8F8703001E097
:10BAD0004FF00008B8F1000F32D0D8F87030002BCA
