:020000022000DC
:1060000000F000206D630200556302005763020038
:10601000596302005B6302005D6302000000000040
:106020000000000000000000000000005F630200AC
:106030006163020000000000636302006563020008
:106040006763020067630200676302006763020020
:106050006763020067630200C5DD03006763020037
:10606000676302006763020051B2030067630200C6
:1060700067630200676302006763020067630200F0
:10608000676302002D6E0400CDD902006763020031
:10609000916E04006763020015EA03006763020063
:1060A00067630200676302006763020067630200C0
:1060B0006763020067630200000000000000000048
:1060C00067630200676302006763020067630200A0
:1060D000676302006763020067630200000000005C
:1060E00000000000000000000000000000000000B0
:1060F00000000000000000000000000000000000A0
:10610000000000000000000000000000000000008F
:10611000000000000000000000000000000000007F
:10612000000000000000000000000000000000006F
:10613000000000000000000000000000000000005F
:10614000000000000000000000000000000000004F
:10615000000000000000000000000000000000003F
:10616000000000000000000000000000000000002F
:10617000000000000000000000000000000000001F
:10618000000000000000000000000000000000000F
:1061900000000000000000000000000000000000FF
:1061A00000000000000000000000000000000000EF
:1061B00000000000000000000000000000000000DF
:1061C00000000000000000000000000000000000CF
:1061D00000000000000000000000000000000000BF
:1061E00000000000000000000000000000000000AF
:1061F000000000000000000000000000000000009F
:10620000344935480A1A02D0072291438D46334952
:1062100033480A1A06D00722914381F309880222E3
:1062200082F314882F483049304A00F042F8304851
:106230003049314A00F03DF830483149314A00F0E8
:1062400038F831483149324A00F033F831483249A0
:10625000324A00F02EF832483249334A00F029F829
:1062600032483349334A00F024F833483349002296
:1062700000F02AF832483349002200F025F832486D
:106280003249091A082902DB0022026041601F48D6
:106290001F49884205D00268043003B4904703BC0C
:1062A000F7E700208646EC4600200021284A904768
:1062B000FEE7884207D0521A05D0037801300B70F0
:1062C0000131013AF9D17047884202D002700130A1
:1062D000FAE7704700F0002000E8002000F00020FE
:1062E00000F000206CDA0400F02D0020B83000200F
:1062F000A0630200A0630200FEA404006CDA0400A4
:10630000F02D0020F02D0020A4A90400A4A9040071
:10631000A4A90400A4A90400A4A90400A4A9040039
:10632000A4A90400A4A904006ADA040034DD04006E
:10633000B8300020B8300020B8300020CC770020E2
:10634000CC770020CC770020CC770020CC7B0020BD
:10635000C56A0200FEE7FEE7FEE7FEE7FEE7FEE7AE
:10636000FEE7FEE7FEE7FEE700F002B8FFF7FCBF3E
:1063700008484FF00701884385460748804707488B
:10638000016841F470010160BFF34F8FBFF36F8F5D
:10639000FFF736BF00F00020D5EF030088ED00E0E6
:1063A00041DF704700230B80704700000D4B1B68D6
:1063B00013F4804F03D00C4B1B68032B00DC704799
:1063C00000B585B0094BD3F8043502920191084A13
:1063D00000928E220749042008F03CFC05B05DF8CD
:1063E00004FB00BF303000202C30002000100140A2
:1063F00000AA0400F6A904000D4B1B6813F4804F9B
:1064000003D00C4B1B68032B00DC704700B585B034
:10641000094BD3F8043502920191084A0092852273
:106420000749042008F016FC05B05DF804FB00BF26
:10643000303000202C3000200010014028AA040039
:10644000F6A904000C4B1B6813F4804F03D00B4BD0
:106450001B68032B00DC704700B583B0084BD3F8F2
:1064600004350191074A009274220749042008F07C
:10647000F1FB03B05DF804FB303000202C3000202D
:106480000010014050AA0400F6A9040000B583B032
:106490000F4B1B6813F4804F03D00E4B1B68032B6C
:1064A0000BDC1FF019FB0322C8210F2001F06EF94D
:1064B0000CF0AAFC03B05DF804FB074BD3F80435DD
:1064C000064A0092B2220649042008F0C3FBE8E71E
:1064D000303000202C3000200010014064AA04005D
:1064E000F6A9040010B582B0441C254B1B6813F4B8
:1064F000804F03D0234B1B68032B0CDC022C16D0DF
:106500001F4B1B6813F4804F03D01E4B1B68032BDB
:106510002BDC02B010BD1C4BD3F8043501941B4A90
:106520000092CE221A49042008F094FBE6E70CF012
:10653000FDFB98B9124B1B6813F4804FE9D0114B47
:106540001B68032BE5DD104BD3F80435114A00928C
:10655000EA220F49042008F07DFBDAE70EF0E6F9A5
:106560000CF0D8FBFFF792FFD3E7074BD3F80435C5
:10657000094A0092F0220649042008F06BFBC8E7A4
:10658000303000202C3000200010014080AA040090
:10659000F6A9040094AA040080AC040000B583B0FE
:1065A0003138032813D90C4B1B6813F4804F10D0DB
:1065B0000A4B1B68032B0CDD094BD3F80435094A41
:1065C0000092FE220849042008F044FB01E0FFF796
:1065D00089FF03B05DF804FB303000202C30002030
:1065E0000010014080AC0400F6A9040008B503784F
:1065F000232B00D008BDFFF749FFFBE700B58DB0A6
:106600001FF026FA2422002103A823F013FF012300
:106610008DF80C3007238DF80F3006238DF81430D9
:10662000244B0793244B0B93244903A80CF082FBC3
:10663000034618B3002B32D00B2B2FD11FF04CFA8E
:106640001F4B1B6813F4804F03D01E4B1B68032B9A
:1066500018DC1B4B1B6813F4804F20D0194B1B68B0
:10666000032B1CDD184BD3F80435184A009240F276
:1066700049121749042008F0EDFA10E01FF008FA5B
:106680000346D7E7104BD3F80435124A00924FF473
:10669000A4720F49042008F0DDFADAE713B90DB04F
:1066A0005DF804FB0C4A4FF4A771184618F0C0FDC2
:1066B000F5E700BFED650200AD680200B8300020CC
:1066C000303000202C300020001001401CAB0400B2
:1066D000F6A90400CCAA0400C0A9040000B583B048
:1066E0001D4A05214FF4103008F098FA1B4B1B6827
:1066F00013F4804F03D01A4B1B68032B13DC20F0DC
:10670000CBFBE0B901F084F8164801F0B5F8E0B928
:1067100001F008FC01F044FC01F072FCFFF76EFF91
:1067200003B05DF804FB104BD3F804350F4A009218
:1067300040F255120E49042008F08CFADFE70D4AAA
:1067400040F2571118F074FDDCE70A4A40F25B1181
:1067500018F06EFDDCE700BFF1EB020030300020E6
:106760002C300020E56402000010014058AB04000A
:10677000F6A90400C0A9040000B583B000213F4879
:1067800002F048F9002835D13D4B1B6813F4804FC7
:1067900003D03C4B1B68032B31DC00213A4800F04E
:1067A00039FA002839D1364B1B6813F4804F03D0D7
:1067B000344B1B68032B35DC0021344800F020FDEE
:1067C00000283DD13249314800F048FD00283CD135
:1067D0002E492A4802F059F900283BD1284B1B6862
:1067E00013F4804F03D0274B1B68032B37DC03B017
:1067F0005DF804FB274A962118F01AFDC4E7264BE2
:10680000D3F804351D4A12880192244A0092972237
:106810002349042008F01EFABFE71E4A9B2118F006
:1068200007FDC0E71C4BD3F80435174A12880192C4
:106830001C4A00929C221A49042008F00BFABBE77C
:10684000144A9F2118F0F4FCBCE7124AA02118F06A
:10685000EFFCBDE70F4AA12118F0EAFCBEE70E4BA2
:10686000D3F80435094A128801920F4A0092A222F5
:106870000B49042008F0EEF9B9E700BF002E002014
:10688000303000202C300020BC300020F82E0020BA
:10689000F02E0020C0A904000010014088AB0400C5
:1068A000F6A90400A4AB0400C0AB040000B583B09B
:1068B0000C4B1B6813F4804F03D00B4B1B68032B4E
:1068C00004DCFFF759FF03B05DF804FB074BD3F876
:1068D0000435074A009240F229120649042008F0C4
:1068E000B9F9EEE7303000202C30002000100140D4
:1068F000DCAB0400F6A9040010B5044600210F200B
:1069000000F02EFF04EB840462003221032000F02B
:106910003DFF10BD08B503781D2B00D008BD04480D
:1069200002F0AEF80028F9D018F074FCF6E700BFCA
:10693000002E002008B500F05DFF08BD00B585B051
:1069400003A812F01BFC0D4B1B6813F4804F03D0FF
:106950000B4B1B68032B02DC05B05DF804FB094BF5
:10696000D3F80435BDF80C200192074A009240F29A
:1069700013120649042008F06DF9EDE730300020CD
:106980002C30002000100140FCAB0400F6A90400EC
:1069900010B58AB06421264800F00CFE254B1B7808
:1069A0009BB90DF10C0C244C0FCCACE80F0094E813
:1069B00007008CE8070003A800F092FD38B11F4AD9
:1069C00040F2791118F034FC01E0FFF7B7FF02F054
:1069D00095F800F089FF1A4805F030FD0CF004FA34
:1069E00098B9184B1B6813F4804F03D0164B1B68E3
:1069F000032B10DC00210C2000F0B2FE0222C82183
:106A00000C2000F0C3FE0AB010BD0C4A40F2851104
:106A100018F00EFCE5E70D4BD3F804350C4A009254
:106A200040F287120B49042008F014F9E2E700BF96
:106A30009D650200B830002054AC0400C0A90400D9
:106A4000F02D0020303000202C30002000100140BC
:106A500080AC0400F6A9040000B583B0144B1B6899
:106A600013F4804F03D0134B1B68032B13DC01F08E
:106A700097FA01F0C5FAFFF761FF00F0BBFE0021B5
:106A80000F2000F06DFE0422C8210F2000F07EFED2
:106A900003B05DF804FB084BD3F80435074A0092B5
:106AA0004FF48C720649042008F0D4F8DFE700BFE9
:106AB000303000202C3000200010014014AC0400C5
:106AC000F6A9040010B584B0FFF708FEFFF760FFD9
:106AD0000C2001F061FC32E0FFEE007AB4EEE70A30
:106AE000F1EE10FA43DD314A42E0B8EEE77A37EED4
:106AF000400A9FED2F7A20EE070ABDEEC00A8DED09
:106B0000030ACDED027A01922A4A00924FF4CE7226
:106B10002949042008F09EF8284B1B6813F4804F85
:106B200003D0274B1B68032B2EDC4FF47A744FF4F1
:106B30007A40244B43F001039847013CF7D1FFF71B
:106B40002FFC01F00BFC204B83ED000A1B4B1B6854
:106B500013F4804FE0D01A4B1B68032BDCDD1B4B7A
:106B6000D3F80435B5EEC00AF1EE10FAB4D4184AE1
:106B7000FDEEC07AB5EEC00AF1EE10FAB5DDB8EE62
:106B8000E77A30EE470AB4E7104BD3F80435002219
:106B900003920C2202920E4A01920E4A009240F297
:106BA0009D120549042008F055F8BEE730AC0400FA
:106BB0000000C84234AC0400F6A9040030300020C4
:106BC0002C30002070AC0400143100200010014073
:106BD00090B2040044AC040008B51146007B1FF0DD
:106BE00059FA00B908BD024A4B2118F021FBF9E718
:106BF000C4AD040008B511681960007B1FF036FAB7
:106C000000B908BD024A562118F012FBF9E700BF8F
:106C1000C4AD040060B110B50446064B83601FF09C
:106C20006FF900B110BD04F10C001FF045FAF9E74F
:106C30000E207047F4AD04005038704710B586B090
:106C4000FFF7FAFF0446154B1B6813F4804F03D07F
:106C5000134B1B68042B0BDC0023A4F84830236C77
:106C600023B1B4F84A20216F2046984706B010BDE2
:106C70000C4BD3F8043590F83420B0F84A10006F6C
:106C80000490606F039002910192074A00924FF4C2
:106C9000C6720649052007F0DDFFDDE73030002031
:106CA0002C3000200010014030AE040021AE040062
:106CB00000B583B0FFF7C0FF0D4B1B6813F4804F86
:106CC00003D00C4B1B68042B02DC03B05DF804FB03
:106CD000094BD3F8043590F834200192074A00920A
:106CE00040F283120649052007F0B4FFEDE700BF2C
:106CF000303000202C3000200010014074AE040021
:106D000021AE040000B585B08DF80410B0F848300D
:106D1000ADF80630B0F84A30ADF80830039201A95A
:106D200004301FF0FDFB05B05DF804FB10B584B026
:106D3000FFF782FF0446B0F84A20A0F8482000235D
:106D4000A0F84A30134B1B6813F4804F03D0124B4A
:106D50001B68042B0DDC236C23B1B4F84A20216F8F
:106D600020469847226F00212046FFF7CBFF04B052
:106D700010BD0A4BD3F8043590F8341002920191FB
:106D8000074A00924FF4D2720649052007F062FFCD
:106D9000E1E700BF303000202C300020001001401F
:106DA00090AE040021AE040070B138B50C46054623
:106DB0003C301FF05BFD00B138BD044BAB63214696
:106DC00028461FF0BBFBF7E70E207047FCAF04001E
:106DD00038B5044680F86C20012343662D23836672
:106DE0000D4629B16B68C4F880302B68236638BD26
:106DF000784601F0EBF9F5E72DE9F0418AB0154648
:106E00001F46109E0446E0B1DAB1B4F84820298844
:106E10008A421AD1002246B13270B4F848307380E9
:106E2000B4F84A30B380236EB360424B1B6813F44E
:106E3000804F03D0404B1B68032B67DC0AB0BDE8D2
:106E4000F081784601F0C2F9DFE70DF11B0294F8FA
:106E50003C001FF0CFFC8046002855D1002308934A
:106E60000993D7B1002239462046FFF7B1FF2B889E
:106E7000A4F84A30D4F8EC30434520D82D4B1B6899
:106E800013F4804F03D02C4B1B68042B26DC04F139
:106E9000500000F0D5FE0022BDE7236B9B685B68C5
:106EA0004BB1206B83685B6807AA00219847079B5A
:106EB000089308AFD6E7784601F088F9F1E708F1C2
:106EC0003A0354F8230003685F68236ED4F88020E7
:106ED0009DF81B10B84708F10108CBE7174BD3F812
:106EE00004352A88216E0491D4F8801003919DF80E
:106EF0001B1002910192124A009240F22B1211498A
:106F0000052007F0A7FEC2E7022284E70B4BD3F867
:106F10000435B4F84810B4F84A0003900291019285
:106F2000094A00924FF49F720649042007F092FE2E
:106F300084E700BF303000202C30002000100140DA
:106F4000C8AE040021AE040000AF040070B50646D0
:106F50000D46002401E0023501340F2C0CD82A46DE
:106F6000E1B296F83C001FF04DFC0028F3D0034A34
:106F7000622118F05DF9EEE770BD00BFFCAD0400C2
:106F800030B583B014460546A0B19AB100232370F2
:106F9000B5F848306380211D2846FFF7D7FF0E4B18
:106FA0001B6813F4804F03D00C4B1B68032B05DCCC
:106FB00003B030BD784601F009F9E7E7084BD3F894
:106FC000043562880192074A0092F822064904209B
:106FD00007F040FEECE700BF303000202C300020EE
:106FE0000010014034AF040021AE040030B587B07A
:106FF00014460546E0B1DAB100232370B5F84830F5
:107000006380B5F84A30A38095F87C30022B13D109
:107010002B6F0BB14FF0FF33A360144B1B6813F4BD
:10702000804F03D0124B1B68032B0BDC07B030BD25
:10703000784601F0CBF8DFE705F1500000F01CFEC8
:10704000A060EAE70B4BD3F804356288A188686F2B
:107050000490A068039002910192074A0092E222F4
:107060000649042007F0F6FDE0E700BF30300020BD
:107070002C3000200010014058AF040021AE040065
:10708000F0B587B016461D460446E0B1DAB10DF101
:107090001702318894F83C001FF0CEFB074620BB56
:1070A000B4F8482033889A4203D0B4F84A20934277
:1070B00017D104F1500000F0D1FD0023A4F84A30AC
:1070C000A4F848300DE0784601F080F8DFE707F1DA
:1070D0003A0354F8230003689B689DF817109847FB
:1070E0000137D4F8EC30BB42F1D845B100232B7006
:1070F000B4F848306B80291D2046FFF727FF0E4B60
:107100001B6813F4804F03D00C4B1B68032B01DC6E
:1071100007B0F0BD0A4BD3F80435B4F84A20B4F8F0
:10712000481002910192074A0092C32206490420A6
:1071300007F090FDECE700BF303000202C3000203D
:1071400000100140A0AF040021AE0400F0B587B0EC
:1071500015461C46074628B322B30DF117022988AD
:1071600097F83C001FF022FB064650BB2B88A7F87F
:107170004830D7F8EC30B34218D800253CB1257020
:10718000B7F848306380211D3846FFF7DFFE174B04
:107190001B6813F4804F03D0154B1B68032B12DCC4
:1071A00007B0F0BD784601F011F8D6E706F13A03D2
:1071B00057F8230003681B689DF81710984701369D
:1071C000D7E70125DAE70B4BD3F80435B7F84A20A7
:1071D000B7F84810039102920195074A009298224D
:1071E0000649042007F036FDDAE700BF3030002002
:1071F0002C30002000100140C8AF040021AE040074
:1072000000B310B50446036CFBB1FFF7CDFD034698
:1072100008B1184610BD0023A4F848300C4A226576
:107220000C4A6265A3650C4BE36504F15000C4F899
:10723000D80000F067FD03460028EAD10022C4F818
:10724000EC20E6E70E23184670470E23E1E700BF67
:10725000B16C02003D6C02002D6D0200034658B176
:1072600061B1D0F8EC0058B900F13A0243F82210AD
:10727000421CC3F8EC2070470E2070470E20704768
:10728000042070470023A0F84830704769DF70473A
:1072900003781F2B00D07047014B01221A70FAE7C8
:1072A0001B3100203F4B1B78002B79D000B587B0F5
:1072B000012804D003286CD007B05DF804FB00233C
:1072C000019301A9012017F095F900284BD1002363
:1072D0000393049305939DF80C20012363F30302A9
:1072E0008DF80C20D2B263F307128DF80C209DF8B4
:1072F0000D2063F301028DF80D201023ADF8163038
:10730000019A03A94120FFF7C1FF78BB01A817F03C
:107310003FFA70BB244B1B6803B1984701230293CB
:1073200002A90DF1020012F00BFD28BBBDF802000E
:1073300012F014F90DF1010112F0B6FAF8B90DF0DE
:107340003FF89DF8011000200DF03AFBD0B905F090
:1073500007F8D8B9134B00221A70134B5B68002B47
:10736000AAD09847A8E717F055FFB0E717F052FFEB
:10737000CCE717F04FFFCDE717F04CFFD6E717F03B
:1073800049FFDCE7784600F021FFE0E717F042FF15
:10739000E0E717F0B3FA00288ED017F03BFF8BE739
:1073A000704700BF1A3100201C31002008B5064B81
:1073B00001221A70054805F041F805F023F800B9DC
:1073C00008BD17F027FFFBE71A310020E82F002047
:1073D00008B503781C2B00D008BD074B1B78002B89
:1073E000FAD017F0CFFA18B9044805F02BF8F3E7F4
:1073F00017F010FFF8E700BF1A310020E82F002037
:1074000008B5094B1B7863B90849094818F0F2FE22
:1074100040B90323002207494969074818F006FFCD
:1074200000E0082008BD00BF1B31002038310020DB
:10743000A43400201C3100207033002008B50378EC
:10744000023B082B3FD8DFE803F01C05113E3E2C21
:107450003E3E36001E4B9B68002B34D0007A00283D
:1074600031D01C4A0121117098472CE0184BDB6881
:107470004BB3184A127832B3164A0021117098475C
:1074800021E0154B1B784BB9114B1B691BB1114AFD
:10749000002111709847FFF7B3FF14E0FFF786FF54
:1074A00011E010220A4B99690C4818F048FF50B1BE
:1074B00017F0B0FE07E08168C0680BF0BBFB18B99D
:1074C000054B01221A7008BD17F0A4FEF8E700BFB3
:1074D0001C310020183100201931002070330020A9
:1074E00010B586B08446224A03AB07CA03C323F80B
:1074F000022B120C1A701F4CA646BCE80F00AEE817
:107500000F009CE807008EE80700A369002B2DD030
:10751000194B009303AB194A19491A4818F028FE71
:10752000034610B1184606B010BD17481AF0DCFB30
:107530000146144818F048FE03460028F2D11348CB
:107540001AF052FD03460028ECD110481AF084FDD1
:1075500001460C4818F038FE03460028E2D10C48DA
:1075600004F06CFFFFF74CFF0346DBE70723D9E786
:1075700010B004001C3100203D740200383100209E
:10758000A434002070330020583100202033002024
:10759000F42F002008B5064B1B681BB906E0044B0E
:1075A0001B68984714F0D4FF0028F8DA08BD00BF24
:1075B000E434002010B50C46134B1860134A012127
:1075C00013481FF0A3FC98B9610CE00341F27073FB
:1075D000984271F1000310D34FF47A72002322F025
:1075E00037FD014600220B481FF0A6FC38B910BD3C
:1075F000094A4A2117F01CFEE6E70521F2E7064A90
:107600004B2117F015FEF2E7E434002095750200D7
:1076100050B00400E83400201CB0040070B50546EA
:10762000002403E00D4A93420ED80134032C14D8F1
:107630000B4B1B5DAB42F8D10A4B1E6805F064FA98
:10764000331AEFD5831BEDE705F05EFA054B1860A2
:10765000054B1B6820469847E7E770BD801A060077
:107660005CB0040034350020303500204FF0A043DA
:10767000D3F80435C34013F0010F0CBF01200020E4
:107680007047000070B505460024264600E001342E
:10769000032C0AD80123A3402B42F8D0044B185DD9
:1076A000FFF7E4FFA0400643F1E7304670BD00BF9E
:1076B00060B0040008B511B116F0B5FA08BD16F0B7
:1076C000ABFAFBE770B50546002400E00134032C5B
:1076D0000FD80123A3402B42F8D0064B1E5D304645
:1076E000FFF7C4FF80F00101C9B23046FFF7E2FFA7
:1076F000ECE770BD60B0040010B5144B1B684BB1D3
:10770000134B1868FFF7DEFF104B1C68013C1C6030
:1077100024B110BD002017F07DFDF1E70D481FF0EA
:107720002DFC00E00134032CF3D80123A340084AC8
:1077300012681342F6D0084B1968E14001F00101CC
:10774000064B185DFFF7B6FFECE700BF08350020D9
:107750000C350020103500203835002060B00400C2
:1077600070B505460E46002400E00134032C09D80C
:107770000123A3402B42F8D03146034B185DFFF79D
:1077800099FFF2E770BD00BF60B0040042B310B5CE
:107790000C461346132900D810BD124A10605B0036
:1077A000013B114A1360FFF76DFF104B1860610C2D
:1077B000E40314F5FA704FF47A724FF0000341F1CC
:1077C000000122F045FC0146002209481FF0B4FBED
:1077D0000028E1D10121034B1868FFF7C1FFDBE767
:1077E000704700BF0C3500200835002038350020D8
:1077F0001035002008B504481FF0C0FB0021034BE2
:107800001868FFF7ADFF08BD103500200C350020CB
:1078100010B582B016F094F940B10024ADF80440E0
:107820008DF8064001238DF8053007E016F040F989
:107830000028F2D017F0EEFCEFE70134032C09D852
:1078400001A90A4B185D16F085F90028F5D017F04C
:10785000E1FCF2E7064A012106481FF057FB08B990
:1078600002B010BD17F0D6FCFAE700BF60B004000C
:10787000F976020058B0040060B310B582B0164A21
:10788000106016F05DF940B1144B1B68ADF8043080
:107890001B0C8DF8063000240CE016F009F90028C6
:1078A000F2D017F0B7FCEFE701210D4B185D16F091
:1078B0002BFA0134032C0AD80A4A01A9084B185D97
:1078C00016F0B8F90028EFD017F0A4FCECE7002080
:1078D00002B010BD0E2070473035002054B00400B7
:1078E0005CB004001D760200002800F082802DE9C3
:1078F000F04FD1B004463F4B1B6813F4804F03D0C8
:107900003D4B1B68032B31DC3A4B1B6813F4804F53
:1079100003D0394B1B68032B2ADC51B0BDE8F08F34
:10792000E25C36490D68100959002E5C0FA800F87A
:10793000136002F00F020131AA5C425401330F2B95
:10794000EED90FAA00238DF85C3003F1804303F5D4
:107950008833D3F804350292294A0192294A0092C9
:1079600042222949042007F075F9CDE70023E6E714
:10797000264BD3F804350D932068020202F47F02EF
:1079800042EA0062010A01F47F4142EA0108B4F8C8
:1079900004C04FEA0C2292B2B4F806E04FEA0E217E
:1079A00089B2257A667AA77AE37A94F80C9094F8EB
:1079B0000DA094F80EB0E47B0B94CDF828B0CDF870
:1079C00024A0CDF82090079306970596049541EAE8
:1079D0001E21039142EA1C22029248EA10600190A3
:1079E0000B4A00920D9B43220749042007F032F90D
:1079F00093E77047303000202C30002034300020D6
:107A00009CB00400B0B0040089B004000010014034
:107A1000B8B0040008B5034B53F820300846984727
:107A200008BD00BFF8B0040008B5034B53F8203080
:107A30000846984708BD00BF10B1040008B5836828
:107A400003B1984708BD006B003818BF012070478C
:107A50000369013B13F1030F03D843691BB90020ED
:107A60007047002070470120704708B50246012189
:107A70008C300AF01CFA08BD08B50A4600230B63D7
:107A8000022102F18C000AF012FA08BD90F82C30A5
:107A9000022B01D10020704710B5044638301EF08B
:107AA00042F94FEA411C4CEAD06C4201121A6CEBCD
:107AB000010C4FEA8C0C4CEA927C93001B1841EBB2
:107AC0000C01C90041EA5371C3F3103343EA414347
:107AD000C90B226A934271F1000301D3012010BD4A
:107AE0000020FCE710B504460023036303627030F6
:107AF00004F0BEFF04F138001EF051F910BD10B5BE
:107B0000044638301EF04BF900232362E3680BB1C2
:107B10002046984710BD08B5844600F1200E00F1BC
:107B200010030FCB8EE80F006046FFF7E8FF08BD9B
:107B300008B5FFF7E4FF08BD70B5044600F138054D
:107B400028461EF02CF904F1200604F110030FCB97
:107B500086E80F00636A83EAE376A6EBE376002B00
:107B600043D0226AD30E5101891A63F100039B00AE
:107B700043EA91738900891843F100034FEAC30C6B
:107B800032460023C8004CEA517122F061FAA66A1D
:107B9000F20E73019B1B62F10002920042EA9372A3
:107BA0009B009B1942F10002D20042EA5372DB00B3
:107BB0001E469446984271EB020301D306468C465A
:107BC000B6F57A7F7CF1000313D221220023C4E9A9
:107BD0001023012384F8383028461EF0B7F818B96E
:107BE00063680BB12046984770BD784600F0EEFA06
:107BF000B7E74FEACC3141EA5641F6030548301861
:107C0000054A4FF0000341F1000122F021FAC4E9D6
:107C10001001DEE720A1070040420F0010B5044626
:107C200004F072FF236B4FF47A7101FB030104F13E
:107C3000700004F035FF23680BB12046984710BD53
:107C400010B5044630B12246002104F18C000AF040
:107C50002EF910BD784600F0B9FAF4E710B50446E5
:107C600030B12246032104F18C000AF020F910BD46
:107C7000784600F0ABFAF4E738B50546D8B12C6A7F
:107C800005F138001EF04FF84A0142EAD062430184
:107C90001B1A62EB0102920042EA93729B001818D1
:107CA00041EB0201C90041EA5071C0F3103040EAD3
:107CB0004140201A38BD784600F088FADFE710B559
:107CC0000446D8B104F138001EF02DF884464A016C
:107CD00042EAD06243011B1A62EB0102900040EAC3
:107CE00093709B0013EB0C0341EB0000C00040EAD3
:107CF0005370C3F3103343EA404010BD784600F0A0
:107D000065FADFE738B5044690B1C4F880400A4B05
:107D1000A367A464094BE36404F138001EF056F82D
:107D20000546074904F18C000AF0ABF8284638BD37
:107D3000784600F04BFAE8E7797A02006B7A0200A5
:107D400048B1040072DF704773DF704774DF70471B
:107D50002DE9F047A2B0074688469146324C0025EF
:107D600025606560A560E56030490B78C3EB431082
:107D70002F4E064426602F4A0244A2601F22A28092
:107D8000A281013303F001030B704FF03C0A52460D
:107D9000294613A822F04EFB06238DF84F30ADF88C
:107DA000487001238DF84A30ADF85C3012AA189261
:107DB000ADF83C70ADF84090CDF844800DEB0A0270
:107DC0001D928DF8783052462946684622F032FBE3
:107DD00002238DF80030221D314613A816F0F4FA64
:107DE00090B9114B03F10C029968684616F0ECFA51
:107DF00068B9114A0C491148FFF7A4FF082809D0B7
:107E000070B922B0BDE8F08717F004FAE9E717F07F
:107E100001FAEEE7002204490848FFF793FFEFE775
:107E200017F0F8F9EDE700BF803500203C35002061
:107E30004035002090350020043000200030002024
:107E4000B0F5202F0AD2074BA3FB0023DB0808B1B3
:107E500003B90123044A9381916070474FF6FF7381
:107E6000F5E700BFCDCCCCCC0430002008B5012113
:107E7000054B1878FFF768FF18B9002005F096FA4F
:107E800008BD17F0C7F9F8E70030002008B5044B2B
:107E90001878FFF75BFF00B908BD17F0BBF9FBE7E7
:107EA0000030002076DF70477ADF70477CDF704754
:107EB00069DF704708B517F0ADF908BD08B504F0E3
:107EC000C5FA08BD00B583B0037823B1012B0BD0F0
:107ED00003B05DF804FB3B214088FFF7E3FF002877
:107EE000F6D017F097F9F3E7094B1B6813F4804FAE
:107EF000EED0084B1B68032BEADD074BD3F80435A3
:107F0000064A009268220649042006F0A3FEDFE735
:107F1000303000202C3000200010014098B10400C7
:107F20007DB1040000B585B016F0E8FC60BB00230D
:107F3000039303A9012016F05DFB40BB00230093CF
:107F4000019302939DF80020012363F303028DF84F
:107F50000020D2B263F307128DF800209DF80120B3
:107F600063F301028DF801201023ADF80A30039A63
:107F700069464120FFF79CFF60B903A816F008FC92
:107F800058B905B05DF804FB17F044F9CFE717F0D6
:107F900041F9D3E717F03EF9EFE717F03BF9F0E7C7
:107FA00000B585B09DF80C30012262F303038DF813
:107FB0000C30DBB262F307138DF80C3010220F493E
:107FC00003A8FFF773FF98B9002301930293782366
:107FD000ADF80430C823ADF806304FF4C873ADF8DF
:107FE0000A3001A8FFF760FF28B905B05DF804FB6F
:107FF00017F010F9E8E717F00DF9F6E7C4B104003F
:1080000000B58BB001AA0023019302937821ADF84B
:108010000410C821ADF806104FF4C871ADF80A106D
:10802000039304930593069307930893099303928C
:1080300040F6CD4304934FF48033059303238DF82A
:108040001830074B0893074B099303A816F042FE1C
:1080500010B90BB05DF804FB17F0DCF8F9E700BFCE
:10806000C57E0200B57E02000620704700B587B0CD
:1080700044F2010398425DD01BD8012836D041F26A
:108080000103984271D1474B1B6813F4804F36D0DF
:10809000454B1B68002B32DD444BD3F8043502926C
:1080A0000191434A009263224249012006F0D2FD29
:1080B00025E044F20203984257D13A4B1B6813F46F
:1080C000804F1CD0384B1B68002B18DD374BD3F882
:1080D000043510680390526802920191364A00926A
:1080E00069223449012006F0B5FD08E02D4B1B68DC
:1080F00013F4804F03D02C4B1B68002B0DDC4FF08A
:10810000A0434FF4F012C3F81825C3F80C25EFF381
:10811000108372B64DF6AD6C3DE0244BD3F80435B8
:1081200002920191254A009260222249012006F024
:1081300091FDE4E71B4B1B6813F4804FDFD01A4B13
:108140001B68002BDBDD194BD3F804351068049055
:1081500050680390029192680192194A009273222A
:108160001449012006F076FDC9E70E4B1B6813F495
:10817000804FC4D00C4B1B68002BC0DD0B4BD3F8D9
:10818000043501910F4A00927B220A49012006F032
:1081900061FDB4E730BF0C4B1B78002BFAD107B060
:1081A0005DF804FB303000202C300020001001402E
:1081B0002CB20400FDB1040050B2040010B204005F
:1081C00070B2040094B204001C30002000B583B0EB
:1081D000014600230093054B01936A4644F20200D6
:1081E000FFF744FF03B05DF804FB00BF90B204004A
:1081F00038B505464FF0A0430322C3F858274FF483
:108200008002C3F80C250C4C44F001044FF4A0701C
:10821000A047012D09D04FF4A050A0474FF0A04334
:108220004FF48002C3F8082538BD4FF0A0434FF447
:108230008002C3F80825EEE7B0B2040038B5054661
:10824000002407E045FA04F000F00100FFF7D0FF3A
:108250000134E4B2072CF5D94FF4C850024B43F077
:108260000103984738BD00BFB0B2040070B54FF0AD
:10827000A0440323C4F858374FF48006C4F80C65B3
:108280000D4D45F001054FF4FA40A847C4F80865C4
:108290000023C4F858374FF4F060A847D4F81035DD
:1082A0004FF4EB40A847D4F8103513F4800F01D0F9
:1082B000012070BD0020FCE7B0B2040038B54FF0DB
:1082C000A0450323C5F858374FF48003C5F80C3593
:1082D000094C44F00104C020A0470023C5F85837DA
:1082E0004FF42070A047D5F81055C5F380554FF4D2
:1082F0005460A047284638BDB0B2040038B5002508
:10830000012401E06400E4B22CB1FFF7D7FF00289C
:10831000F8D02543F6E7284638BD70B506460D4629
:10832000FFF7A4FFCC20FFF789FFBE20FFF786FFF1
:10833000002404E0FFF7E2FF30550134E4B2AC4220
:10834000F8D3FFF793FF70BD08B5FFF78FFFCC2080
:10835000FFF774FF4420FFF771FF08BD00B585B03B
:10836000FFF7F2FF022101A8FFF7D7FF9DF80530C4
:108370001B021BB29DF80400184321F02BFE0022C3
:10838000044B21F065FD21F039FE00EE100A05B026
:108390005DF804FB0000B03F10B50446FFF766FF30
:1083A000CC20FFF74BFF4E20FFF748FF0020FFF7E0
:1083B00045FF6420FFF742FF0B2C0DD00C2C05D09D
:1083C0000A2C0DD01F20FFF739FF02E07F20FFF7B6
:1083D00035FFFFF74BFF10BD5F20FFF72FFFF8E7DA
:1083E0003F20FFF72BFFF4E710B582B0044680F87A
:1083F0007430C1662D2303673AB113465268C0F842
:1084000088201B68836602B010BD0021C0F8881068
:108410000191D0F8F430186B83685B6801AA984723
:10842000019BA366EFE7704708B59838FFF716FC85
:1084300008BD000010B582B00146436A40F80C3C0C
:1084400030F9063C20F8083C30F9042C20F80E2CBA
:1084500050F81C4C2CB1583891F82C3092B2096A63
:10846000A0470B4B1B6813F4804F03D0094B1B68CC
:10847000042B01DC02B010BD074BD3F80435074ACA
:108480000092AF220649052006F0E4FBF2E700BFA8
:10849000303000202C30002000100140ECB20400ED
:1084A000DDB204000C4B1B6813F4804F03D00B4B60
:1084B0001B68042B00DC704700B583B0084BD3F871
:1084C0000435084A00929C220749052006F0C2FBA9
:1084D00003B05DF804FB00BF303000202C300020DA
:1084E0000010014004B30400DDB20400F0B587B011
:1084F00004460026A0F1F00720F89C6C30F9A81C77
:1085000020F89E1C04930592A0F198052846FFF7D9
:10851000A5FB34F99C0C34F99E1C334604AA411A7D
:108520003846FFF761FF104B1B6813F4804F03D0F0
:108530000E4B1B68042B04DC2846FFF781FB07B0B9
:10854000F0BD0B4BD3F8043534F99C2C04990391FE
:10855000059902910192074A00924FF4E57206498B
:10856000052006F077FBE7E7303000202C300020B4
:108570000010014014B30400DDB2040070B584B0F3
:10858000044615461A46089EB5F90030002B2BDD2F
:1085900047F6FF73A0F85430B4F94830A4F85230CD
:1085A0000223B5F900102046FFF71EFF1D4B1B6884
:1085B00013F4804F03D01C4B1B68032B19DC04F110
:1085C0005800FFF73DFBB5F9003033BB56B1B4F9A5
:1085D00048303380B4F954307380A36E0BB14FF040
:1085E000FF33736004B070BD4FF40043A0F8543003
:1085F000D2E70E4BD3F80435B5F90020A16E0391F4
:10860000D4F8881002910192094A009240F28B122C
:108610000849042006F01EFBD1E7D4F8F400FEF769
:1086200031FED3E7303000202C3000200010014014
:1086300048B30400DDB2040070B586B004461546A8
:108640001A460A9EB5F900C0A0F854C0B0F9481007
:10865000A0F852100023ACEB0101FFF7C5FE1E4B42
:108660001B6813F4804F03D01C4B1B68032B14DCD6
:1086700004F15800FFF7E4FAB4F94820B5F90030E6
:108680009A4223D13EB1B4F948303380B4F9543022
:108690007380A36E736006B070BD114BD3F80435C0
:1086A000B4F9542094F874100591E16E0491A16E10
:1086B0000391D4F88810029101920A4A009240F284
:1086C00027120949042006F0C5FAD1E7D4F8F400CE
:1086D000FEF7D8FDD6E700BF303000202C30002058
:1086E0000010014078B30400DDB2040070B586B01C
:1086F0000446A0F1580630F9043C20F80E3C90F8EE
:108700002C20022A01D020F8103C34F9103CADF89E
:10871000103034F90E3CADF812300023059304A953
:10872000A4F158001DF0E6F854F8243C1BB134F9CC
:10873000101C3046984754F81C5C3DB134F90E2C9F
:1087400094F82C3092B2216A3046A8470D4B1B6832
:1087500013F4804F03D00C4B1B68042B01DC06B0D4
:1087600070BD0A4BD3F8043534F9102C34F90E1CC3
:1087700002910192064A0092EF220649052006F076
:1087800069FAECE7303000202C3000200010014066
:10879000BCB30400DDB20400F0B583B00446A0F120
:1087A000580690F82C30022B27D030F90E5C30F9A7
:1087B000080C2D1A87B22046FFF781FA8446E91784
:1087C000A5FB0005226A00230CFB015121F0A7FC48
:1087D000384424F8100C54F8243C1BB134F9101C14
:1087E00030469847174B1B6813F4804F03D0164B45
:1087F0001B68062B16DC03B0F0BD30F8087CFFF7D1
:108800005EFA054654F80C0C4FEAE07CA5FB00012B
:10881000226A002305FB0C1121F081FC074424F897
:10882000107CD8E7094BD3F804552046FFF747FAE8
:108830000190074B00932B46CA220649072006F0F9
:1088400009FAD8E7303000202C3000200010014019
:10885000F0B30400DDB204002DE9F04184B0044619
:10886000164698460A9F15686B42ADB29BB258BF38
:108870005D4204301DF0E4F9B0B93C4B1B6813F4C1
:10888000804F15D03A4B1B68032B11DD394BD3F8C1
:10889000043532790192384A00924FF4A672374972
:1088A000042006F0D7F903E0B4F94830A4F85230B8
:1088B000B4F852302B44A4F85430012342462946E0
:1088C0002046FFF791FD294B1B6813F4804F03D01E
:1088D000274B1B68032B1BDC244B1B6813F4804FB6
:1088E00003D0234B1B68032B25DC04F15800FFF752
:1088F000A7F93368002B33D13FB1B4F948303B803E
:10890000B4F954307B80A36E7B6004B0BDE8F08185
:10891000184BD3F80435A26E0392D4F88820029243
:1089200032680192164A009240F25712134904200D
:1089300006F090F9D0E70F4BD3F80435B4F9522084
:10894000B4F94810B4F954000390029101920D4A11
:1089500000924FF4AD720949042006F07BF9C4E798
:10896000D4F8F400FEF78EFCC6E700BF30300020DC
:108970002C3000200010014004B40400DDB20400DB
:1089800038B4040064B4040030B585B0044615461C
:10899000836B00F148019847B4F948302B80B4F953
:1089A0004A306B8094F88430022B0FD1A36F0BB147
:1089B0004FF0FF336B60124B1B6813F4804F03D0F2
:1089C000104B1B68032B07DC05B030BD04F15800C9
:1089D000FFF752F96860EEE70B4BD3F80435B5F9B1
:1089E0000020B5F902106868039002910192074ACD
:1089F00000924FF487720649042006F02BF9E3E752
:108A0000303000202C30002000100140A8B40400B9
:108A1000DDB2040018B310B50446836B0BB3436B8F
:108A200033B1114BE36220461CF02AFF28B110BD80
:108A3000C36B002BF5D10E20F9E70C4BC4F8F030D6
:108A40000B4BA3650B4BE3650B4B23660B4B63662C
:108A5000C4F8E04004F15800FFF754F9E7E70E20AE
:108A600070470E20E3E700BFDCB40400ECB4040060
:108A7000A58402003584020099870200ED86020079
:108A800008B500211CF042FF08BD20B129B1C0F893
:108A9000F410002070470E2070470E207047000031
:108AA00010B40346044C006859689A68DB680FC428
:108AB0005DF8044B704700BFD03500200E4B4FF0DF
:108AC000805202F1600103C983E8030003F1080C3E
:108AD000A43292E803008CE8030093F9062002F028
:108AE0000F0242F040029A7193F9082002F03F020F
:108AF00042F080021A727047D0350020004870475B
:108B0000D0350020002308E0074901EBC300002214
:108B10004280426001F8332001331F2BF4D9034B0C
:108B200000221A60704700BFE0350020E0360020C8
:108B300000B58646114B1B684FF0000C0BE01F235D
:108B40000F4A12F83300B0B102EBC30252887245EB
:108B500009D00CF1010CBCF11F0F0BD85A1E002BD1
:108B6000EDD01346ECE7064A02EBC30252688A4294
:108B7000EFD100E000205DF804FB00BFE0360020EC
:108B8000E035002010B40B4A13680B4C04EBC30C07
:108B9000ACF80200CCF80410012104F833100B44A7
:108BA0001360202B02D05DF8044B7047134600225F
:108BB0001A60F8E7E0360020E035002000210729A0
:108BC00018D830B402E00131072910D84FEA011C4F
:108BD000094C34F80CC08445F5D104EB0114A568A8
:108BE000E4689C4208BF9542EDD1012000E00020DE
:108BF00030BC704700207047E836002030B4C369AD
:108C00008469C1884FEA132C1B06C4F30C028A4204
:108C100018D28A1A2244A2F500529A184CF1000187
:108C20000A4C23685D1C256003F00703B0F814C0EC
:108C300007481C0100EB031320F804C09A60D960B8
:108C400030BC70478A1A2244E7E700BF683700202B
:108C5000E8360020C37D9BB1C3780A7802F0800219
:108C60000A7003F07F0313430B7002780B7803F054
:108C70007F030B7043EAC2130B7003789BB97047F4
:108C8000C3780A7802F0BF020A709B0103F0400328
:108C900013430B70027903F0C0030B7002F03F0224
:108CA00013430B70E1E700B58378082B14BF002253
:108CB00001224B7803F07F034B7043EAC2134B70E1
:108CC000B0F806E0DAB202F080024A70CEF3861CF9
:108CD0004CEA02024A708B7803F003038B7043EA7C
:108CE0008E038B7090F808E0DAB202F0FC028A7012
:108CF000CEF3C10C4CEA02028A70CB7803F01F035A
:108D0000CB7043EA4E13CB70437ACA7802F0E0028C
:108D1000CA7003F01F031343CB705DF804FB00001F
:108D20000023032B31D810B402E00133032B28D8E1
:108D3000C3EBC302164C04EB021292F84820012A3E
:108D4000F3D1C3EBC30204EB0212948AC2899442AA
:108D5000EBD1C3EBC3020E4C04EB0212D2888A4261
:108D6000E3D1C3EBC30204EB0212B2F8582012B1F4
:108D7000848AA242D9D1C3EBC303054800EB031098
:108D800000E000205DF8044B70470020704700BFF2
:108D90009C370020002300E00133032B16D8C3EBDF
:108DA000C3020B4901EB021292F84820022AF3D1C8
:108DB000C3EBC30201EB0212918A828A9142EBD18A
:108DC000C3EBC303024800EB031070470020704759
:108DD0009C37002008B90420704708207047000025
:108DE00000210E4B1B688B4216D9002300E0013393
:108DF0000B4A02EBC10252689A420BD9084A52F858
:108E0000312002EBC30C12F833208242EFD1DCF8A0
:108E1000040070470131E4E7002070476C37002000
:108E20007037002070B58CB006460D4614462C22D3
:108E3000002101A821F0FEFA0F238DF80430ADF8CF
:108E400008609DF80A3065F300038DF80A308DF84C
:108E50000B4001A801F0BCFA0CB070BD30B58DB06C
:108E600005460C462C22002101A821F0E3FA10232C
:108E70008DF8043002958DF80C4001A801F0A8FA95
:108E80000DB030BD00B58DB010B913F1020F06D191
:108E9000074B186804F0CAFC0DB05DF804FB012113
:108EA0008DF804100293039201A801F091FAEFE704
:108EB0008037002070B5049C002962D01D468E4684
:108EC000D2F800C051689668D368C4F80CC021611C
:108ED0006661A361D2F810C05169C4F81CC0216258
:108EE000002363700278D20922705AB304237345B9
:108EF00049D8E17D41B3037803F07F03E370002399
:108F0000A3709AB143789B0103F4FE53827843EA3D
:108F10009203E3808378DB0003F01803C27843EA0E
:108F200052132372C37803F01F036372002363623A
:108F30002B78032B21D82A78144B53F82230E36284
:108F4000002070BD0123D2E70178C1F38011E170E8
:108F5000017801F03F01217142B190F90130002BFD
:108F600002DB0423A370CCE70823FBE70421A170F4
:108F70000B447345C5D90920E3E77846FFF726F986
:108F8000D9E70920DDE70920DBE700BF6CB6040064
:108F900070B50C461D4603789BB104263244A2608E
:108FA00000F10C032360836A6360C36AE3600023FB
:108FB0002374204604F0BAFF10B963691E442E6082
:108FC00070BD0126EAE72DE9F0418EB00D46164648
:108FD0001C46804600282DD0002D2FD0002C31D0EB
:108FE000636A0233059304F10C00E378002B2DD063
:108FF0000121A27801AF3B46082A14BF00220122BA
:1090000004F061FD0697CDF81C80B2B2ADF82020C7
:109010000B9515440C95A3788DF83430237B022BE7
:1090200016D00023ADF8283005A804F044FD0EB09A
:10903000BDE8F0817846FFF7C9F8CDE77846FFF73D
:10904000C5F8CBE77846FFF7C1F8C9E70221D0E7BA
:1090500023692BB1236909931023ADF82830E3E786
:109060007846FFF7B3F8F5E72DE9F04188B00446FC
:109070000D46C37D002B3CD0082605FB06F8637A1D
:10908000AB4238D0257201AB324602A92046FFF729
:109090007FFF074648BB4DB994F8533033B9A369F5
:1090A000C3F30C03E380012384F85330E37D7BB9E1
:1090B00094F8523063B91DBBE06EB4F84A10A27840
:1090C00023468A1A0146FFF77EFF012384F85230B7
:1090D00007992046FFF7BEFDE16E324641440198F4
:1090E00021F07FF902A804F047FF384608B0BDE838
:1090F000F0810C26C1E7B4F84A60A6EB0806C1E788
:109100007846FFF763F8D7E770B505460E4609B114
:1091100000230B6095F85040002104E0631C85F8A3
:1091200050300134E4B26B7AA34210D3EA6C0123CD
:10913000A3401A42F5D121462846FFF795FF014684
:1091400028B9002EEAD0336801333360E6E70846D9
:1091500070BDF0B589B004460E46154683789A185E
:10916000C37D63B10B239A4221D801AB02A92046EB
:10917000FFF70EFF074620B1384609B0F0BD0F23B8
:10918000F1E707992046FFF765FDE37D43B12A46E5
:109190003146019821F025F902A804F0EDFEEBE735
:1091A00023462A4601993046FFF70DFFF4E70927C9
:1091B000E2E7000010B5044690F84830012B0CD1CE
:1091C00003F0A2FC237B012B0BD0094BD96801448F
:1091D00004F1300003F064FC10BD7846FEF7F6FFA2
:1091E000EEE7A27D024BD9681B6903FB0211EEE793
:1091F0008437002030B583B0002403E02846FFF711
:10920000D9FF0134032C18D8C4EBC4030C4A02EB79
:10921000031393F84830012BF3D100230193C4EBDF
:10922000C40502EB051501A92846FFF76DFF0428C8
:10923000E4D0019B002BE4D0E0E703B030BD00BFD9
:109240009C37002038B5044690F84830022B09D1ED
:10925000064B1D6803F058FC411904F1300003F07F
:109260001FFC38BD7846FEF7B1FFF1E784370020D8
:1092700038B5044690F84830022B10D10A4B5A7D7D
:109280005D689B6803FB025503F03EFC411904F145
:10929000500003F005FC012384F8683038BD78469F
:1092A000FEF794FFEAE700BF8437002010B50446BC
:1092B0000B460978C1700021416299680B2903D8D7
:1092C000197B51B3012100E0012121700020A07021
:1092D00029B199680731C9080139617220720121E9
:1092E000E17504F10C0C03F1100103C98CE80300D3
:1092F000D989A18299692162197FA1751B6AE362EC
:10930000A26220461FF0DAFA30B1237B012B06D08F
:10931000E36A43F02003E36210BD0021D5E7202378
:10932000E362F9E710B50446808A02F0D3FE012813
:109330001CD1237BE3B194F91620002A1ADBE27DCD
:109340004AB1022B18D094F90330002B16DBA37816
:10935000B3B900200BE0E2780AB9012B12D12378CF
:1093600093B9A378042B11D1002000E0102010BD88
:109370001020FCE70720FAE71020F8E70720F6E7BF
:109380000720F4E70720F2E70020F0E70720EEE7E8
:1093900038B5044603784BB1C388C2698169808AB5
:1093A00006F0A8FF054645B9284638BDC26981695F
:1093B000808A06F099FF0546F5E7E169002201F091
:1093C0000101A08AFFF72EFDEEE700002DE9F0472E
:1093D00080460E4617464B1EDBB2012B0FD8B7F561
:1093E000C07F10D80024032C1AD8C4EBC403314A20
:1093F00002EB031393F848304BB10134F3E778469E
:10940000FEF7E4FEEBE77846FEF7E0FEEAE7C4EBA2
:10941000C40502EB0515384609F0E3FBE86600E0F9
:1094200000255DB3EB6E002B42D043462C4608F17D
:10943000300ED3F800C058689968DA68C4F800C0E4
:109440006060A160E260103310347345F1D10023F5
:10945000EB64A5F84A70012E13D06FF00103AB62E4
:10946000002385F86830144BAB652D66134BAB6356
:109470002D64012002F0B4FA85F848602846BDE862
:10948000F0870F4B1B7D85F85130002385F8523053
:1094900085F8533085F85030D8F828206A65A5F84B
:1094A00058306FF00103AB62064BAB632D64E0E70D
:1094B0001D46E3E79C3700205F9F020035980200BD
:1094C000843700208198020000B585B000228DF815
:1094D0000F20A0B10B46024602320A600DF10F01C7
:1094E000184604F0ECFA9DF80F3043B10C4B1B68A2
:1094F00013F0040F03D00B4B1B68032B04DC9DF807
:109500000F0005B05DF804FB074BD3F80435074A9C
:10951000009240F215420649042005F09BFBEEE75D
:10952000303000202C3000200010014024B5040011
:1095300017B504002DE9F04391B005460E461446D8
:109540001F46D0F8188003784BB1C388C8F30C02CB
:109550009A4230D29B1A4344A3F50053AB6105F104
:109560000C00EB7853B30121AA780DF130094B467A
:10957000082A14BF0022012204F0A5FAC5F81880B9
:10958000CDF810900596AB78E21A92B2ADF818209B
:1095900032440A9209978DF82C300023ADF8203020
:1095A000EB78002B41D02B7B022B09D000236B6280
:1095B0000193029316E09B1A4344CFE70221D3E7BD
:1095C0001023ADF820302B690793EFE710AB03EBC6
:1095D000840454F83C3C6B62002011B0BDE8F08379
:1095E000019BB3B102AB01AA2979286A10F0F2FEFF
:1095F0000024012CF4D810AB03EB840353F83C0C8B
:109600000028EDD003A9FFF75FFF0028DED1013469
:10961000EFE72B7B022B2CD105F10C01E88910F030
:1096200093FF0028BFD10520D7E72B7B012B01D06A
:109630000520D2E7EB89ADF80430AB8AADF80630EF
:109640000024012C13D82946002341F8243F10ABF5
:1096500003EB440333F83C0C10F0E1FE03A9686A05
:10966000FFF732FF08B90134EBE70020B5E705202A
:10967000B3E70520B1E7000070B5F0B00E46144620
:109680001D4610AB0A4601462046FFF753FF50B176
:10969000224B1B6813F0040F03D0214B1B68052BD2
:1096A0002FDC70B070BD2046FFF772FE0028F8D1A5
:1096B00003AB01228DF80C20A28AADF80E20002207
:1096C00004928DF8142010AA0692A178711AADF8B0
:1096D0001C1008AA93E8030082E803000AAB04F117
:1096E0000C0292E8030083E80300A37D8DF8383074
:1096F000236A0C93636A0D930F9505A800F068FE2A
:10970000CFE7084BD3F80435074A009240F20372C2
:109710000649062005F09EFAC3E700BF303000205E
:109720002C3000200010014038B5040017B50400AB
:1097300010B50446C06E09F058FA04F1300003F089
:1097400097F994F84830022B08D070220021204667
:1097500020F070FE002002F043F910BD04F150002B
:1097600003F086F9F1E710B58CB0044690F8483064
:10977000012B0FD101238DF80430636D029303F0A8
:10978000C3F9039001A800F023FE2046FFF7D0FFA5
:109790000CB010BD7846FEF719FDEBE730B585B08B
:1097A0000D460446D0B1E18894F84830022B19D018
:1097B00094F84830022B1ED02946606DFFF74EFB0F
:1097C0002046FFF7B5FF164B1B6813F0040F03D0BC
:1097D000144B1B68032B12DC05B030BD7846FEF736
:1097E000F5FCE0E7637813F0020FE1D00022A08AD5
:1097F0001FF0C0F8DCE72046FFF700FADCE70A4B71
:10980000D3F8043594F8482002950192074A009253
:1098100040F2F3120649042005F01CFADCE700BF11
:10982000303000202C3000200010014064B50400CE
:1098300017B5040008B508460021FFF7AFFF08BDC3
:1098400008B5037B012B02D0FFF78DFF08BD012176
:10985000FFF7A4FFFAE7000008B590F8513053B1C4
:10986000013B80F85130002380F85030034B1868DA
:1098700003F0DCFF08BDFFF7E3FFFBE780370020C4
:1098800010B50C4691F84830012B03D12046FFF764
:10989000E3FF10BD7846FEF799FCF7E770B5C6B058
:1098A0000E46154682782A44C37D2BB14FF480734F
:1098B000934278D3002303E04FF4C073F8E70133F9
:1098C000032B14D8C3EBC30C394C04EB0C1C9CF8D1
:1098D00048100129F3D1BCF81440818A8C42EED1A2
:1098E000BCF80E40C1898C42E9D1082554E0012121
:1098F000FFF76CFD0446002857D02A463146C06E5B
:1099000020F06FFD0023459345A92046FFF7FCFB9F
:10991000054608B1042842D1459B8BB9254B1B68ED
:1099200013F0040F37D0244B1B68032B33DDB4F83E
:109930004AC0BCF1800F28BF4FF0800C002313E019
:109940002046FFF737FCE9E7E26ED25C1B490D6861
:10995000100959002E5C04A800F8136002F00F02F1
:109960000131AA5C425401336345EDD304AA0023BC
:1099700002F81C3003F1804303F58833D3F8043533
:1099800002920F4A01920F4A00924FF4AC620E49C4
:10999000042005F05FF90025284646B070BD20463A
:1099A000FFF7C6FEF8E70925F6E70425F4E700BF50
:1099B0009C370020303000202C3000203430002034
:1099C00088B50400B0B0040017B5040070B50446B3
:1099D0000D461646FFF7A6FC30B923782BB1324668
:1099E00029462046FFF75AFF70BD324629462046D9
:1099F000FFF7AFFBF8E7000038B504460D46CB692A
:109A00005B780371CB691B7883F00103C370CB696A
:109A100043628B8A0B2B07D8CB7A002B40D10B7B70
:109A2000012B02D0002300E001232370002B3CD047
:109A3000287B022836D0FFF7CDF9A070AB8A03440B
:109A40000B331E4A82FB03235B10013B637200232E
:109A500023720023E37504F10C0395E8030083E807
:109A60000300AB6923622B89A382AB7AA3752B6AAF
:109A7000A362DF23E362284610F0D6FE20B12B78E4
:109A8000012B15D0FF23E36220461EF017FF30B1F3
:109A9000237B012B0ED0E36A43F02003E36238BD41
:109AA0000123C2E7064B987DC5E70423A370D0E7E6
:109AB0002023E8E72023E362F1E700BFABAAAA2A4C
:109AC00084370020062979D1F0B585B0154690F885
:109AD00000C04FEA8C1202F4FE5241788478C378B9
:109AE0001B0443EA0463047943EA042344791C43D6
:109AF0004FFA8CF642EA91012846FFF711F9074622
:109B0000E0B1002E2FDBC289A98A8A422BD02C4BD0
:109B10001B6813F0040F30D02A4B1B68012B2CDD7F
:109B2000294BD3F8043502910192284A009240F261
:109B30007D622749022005F08DF81EE0204B1B684E
:109B400013F0040F19D01F4B1B68012B15DD1E4BA2
:109B5000D3F804351F4A009240F279621C49022072
:109B600005F078F809E0002E09DBFD6C2543FD6463
:109B70004CB903213846FFF711FE05B0F0BDAB8AA2
:109B8000A7F85830F1E73B7883B17B7A5A1C012360
:109B90009340013B9D420DD0002187F8501038467C
:109BA000FFF7B2FA3846FFF705FBE6E77846FEF71F
:109BB0000DFBEAE73846FFF7D6FDDEE7704700BF4A
:109BC000303000202C30002000100140C8B50400C7
:109BD00017B5040098B504002DE9F0438BB0074693
:109BE0000E4614461D461046FFF7D2FB50B994F8B6
:109BF0000380B8F1000F08D12B4622463146384683
:109C0000FFF760FF0BB0BDE8F0834046FFF7E8F8D0
:109C100081460028F6D08DF80480236A0793A38A32
:109C2000ADF8123005AB04F10C0292E8030083E8B2
:109C30000300A37D8DF820300297039623788DF8DA
:109C40001030E36A0993294601A8C847DAE792F879
:109C500001C01CF0010F08D010B5D47D14B1FFF77E
:109C6000BBFF10BDFFF708FDFBE77047F8B50546E1
:109C70000E4614461F46537813F0020F06D13B469A
:109C80002246711E681CFFF7E2FFF8BD0123C9B22E
:109C90001EF086FDF3E7000010B54FF4E0720021DE
:109CA000134820F0C7FB06F0F1FA0024114B1C60AA
:109CB00080222146104820F0BDFB104B104A1A604C
:109CC000104A5A604CF250329A600F49D9601A61BA
:109CD00004221A759C7508225A750C4803F086FDFB
:109CE0000B4B18600B4B1C600B4806F0CDFD10BDF4
:109CF0009C37002068370020E83600208437002099
:109D000080969800F049020020A10700519F0200B0
:109D1000803700206C370020858E020008B506F0E1
:109D2000D5FA08BD98B110B58CB00446036983B16B
:109D3000C36983B1836983B101466846FFF75CFE5E
:109D4000A28A21696846FFF741FE0CB010BD0E20C3
:109D500070470E20F9E70E20F7E70E20F5E7000028
:109D600058B310B590B00A46044643683BB38369C4
:109D70003BB3014604A8FFF799FA134B1B6813F095
:109D8000040F03D0114B1B68062B06DCA268616828
:109D900004A8FFF71BFE10B010BD0D4BD3F804351F
:109DA0002278A169029101920A4A009240F60502C6
:109DB0000949072004F04EFFE8E70E2070470E2007
:109DC000E9E70E20E7E700BF303000202C3000200C
:109DD000001001400CB6040017B50400037B012BF2
:109DE00001D00020704730B591B004460D463F4B7E
:109DF0001B6813F0040F03D03D4B1B68032B5ADC88
:109E000004A8002304930593CDF81730B4F806E0B6
:109E10009DF8101001F080018DF81010CEF3861C13
:109E20004CEA01018DF810109DF8112002F0030298
:109E30008DF8112042EA8E028DF811202A0E8DF83D
:109E400012202A0C8DF813202A0A8DF814208DF880
:109E500015506278022A0CBF012119469DF8102086
:109E600002F07F028DF8102042EAC1128DF8102016
:109E70004FF0060209924FF001028DF82C20A28AC1
:109E8000ADF82E200C938DF81C300890226A0D92AC
:109E90008DF82830E36A0F9319D0E389ADF82A30A2
:109EA000A37DF3B98DF838306FF0010107A8FFF7F3
:109EB00057FF11B030BD0F4BD3F804350E4A009256
:109EC00040F263220D49042004F0C4FE98E70DF12E
:109ED0000E0103A810F054FBBDF80C30ADF82A3089
:109EE000DEE7074B5B7D8DF83830DDE73030002052
:109EF0002C3000200010014038B6040017B50400D3
:109F00008437002090F84830022B00D0704710B5FD
:109F1000044690F86830022B00D010BDC16CFFF7EA
:109F20005DFF0028F9D1002384F86830F5E70000D0
:109F300010B5002407E0C4EBC40213010348184421
:109F4000FFF7E0FF0134032CF5D910BD9C3700204A
:109F500008B5FFF74FF9FFF7EBFF012008BD10B57B
:109F60000C4691F84830022B06D1022384F8683061
:109F70002046FFF7C7FF10BD7846FEF727F9F4E744
:109F8000F0B583B00446C069A369E188060A0006FB
:109F9000C3F30C0291422FD98A1A1A44A2F5005237
:109FA000851846F100062A463346A08AFEF706FECB
:109FB000002840F0A2802046FEF7ECFE074630B3B2
:109FC000C269D0F818C0C388100A1206CCF30C017D
:109FD000994214D2591A6144A1F50051521840F126
:109FE0000003AA4273EB06010DD3954276EB0303FF
:109FF00039D3384603B0F0BD891ACA18D0E75B1AC6
:10A0000003EB0C01EAE705213846FFF7C7FBE388BD
:10A01000E269A169A08A06F03FFA30BB2A463346BE
:10A02000A08A1EF0CBFC00283AD1627A0132E37D8F
:10A03000002B45D0082101FB02F2002B42D04FF447
:10A040008073934241D302212046FFF7BFF90746B0
:10A050000028CED100212046FFF7C0FE02210020BB
:10A06000FEF7FCFEC5E70027C3E7E388E269A169C4
:10A07000A08A06F089FA08B90027BAE723785BB10D
:10A08000617A4B1C0121994001392046FFF7A6FE59
:10A090002046FFF77DF9EFE77846FEF797F8EFE700
:10A0A00023784BB1617A4B1C01219940013920463C
:10A0B000FFF794FE00279CE77846FEF787F8F1E764
:10A0C0000C21B8E74FF4C073BBE70D4B1B6813F0CE
:10A0D000040F03D00B4B1B68002B01DC002788E723
:10A0E000094BD3F804350192084A009240F27F32BE
:10A0F0000749012004F0AEFDF0E7002779E700BF33
:10A10000303000202C3000200010014048B6040000
:10A1100017B504002DE9F04782B007460E461546F4
:10A1200098461046FFF72CFF00284ED004464D4BB2
:10A130001B6813F0040F03D04B4B1B68032B47DC49
:10A140002046FFF77FF8237B012B4FD0E16C2B7A61
:10A1500001229A40114238D10A43E264A6F1040A6E
:10A160002B7AEA7D002A49D04FF0080C0CFB03FC47
:10A17000617A8B4245D0002A48D00823534547D105
:10A18000A269AB699A420BD204F10C0E05F10C09DD
:10A19000B9E80F00AEE80F0099E803008EE803006D
:10A1A000E06E5246391D604420F01BF96B7813F0C5
:10A1B000020F32D1E66C2378002B35D0637A5A1C1B
:10A1C00001239340013B9E4232D002B0BDE8F087AC
:10A1D000264BD3F804352A7A0192254A009240F2A0
:10A1E000A3322449042004F035FDA9E794F868302F
:10A1F000002BABD12046FFF73BF8A7E74FF00C0C44
:10A20000B4E70CEB0A03A4F84A30B9E70C23B5E72E
:10A2100004212046FFF7C2FAD7E701232A46F1B20C
:10A2200038461EF0BDFAC5E77846FDF7CFFFC5E713
:10A23000E16C2046FFF7D2FD6B7813F0020F0AD1D4
:10A2400043462246B4F84A10E06EFFF700FD204670
:10A25000FFF76EFAB9E70122E988A88A1EF08AFBA7
:10A26000EEE700BF303000202C300020001001400D
:10A270005CB6040017B504002DE9F04190B0002849
:10A2800056D00F4614461E468046002A52D004ABD4
:10A2900000933346FEF70EFE054618B1284610B06F
:10A2A000BDE8F08104A8FFF73DF805460028F5D188
:10A2B00004A81EF003FB28B19DF8113043F00203FF
:10A2C0008DF8113000230293039302A9608810F0E7
:10A2D0003BF928B19DF8113043F001038DF811309E
:10A2E0002269E168208906F08FF838B19DF81130B5
:10A2F00003F0FE038DF81130002BCFD09DF8113004
:10A30000002BCBD013F0010F01D0039B08939DF8D5
:10A31000103033B1334604AA39464046FFF7FAFEFF
:10A32000BCE7334604AA39464046FFF79FFCB5E731
:10A330000E25B3E70E25B1E738B3F8B50E4605464E
:10A34000174B1F68012F22D8002400E00134B442CB
:10A3500010D205EBC4035B68DBB115F8340015F9C6
:10A360003430002B17DBC0B1FEF73AFD0028EDD0EA
:10A370000F200DE00B4B43F8375003EBC7035E6033
:10A380000137074B1F60002002E00E2070470420B9
:10A39000F8BD0E20FCE70B20FAE70F20F8E700BF1E
:10A3A0006C37002070370020084B196861B110B578
:10A3B00001E021463CB10C680B79002BF9D0034831
:10A3C00004F0B2FBF5E710BD704700BF6039002014
:10A3D00038B5054630B1104B1C68C4B10F4B012293
:10A3E0001A7004E07846FDF7F1FEF4E724683CB10A
:10A3F0002379002BFAD154F8043C28469847F5E716
:10A40000064B1B78022B03D0044B00221A7038BD78
:10A41000FFF7CAFFF8E700BF603900205C39002071
:10A4200010B5044630B100232372211D034804F007
:10A4300050FB10BD7846FDF7C9FEF4E760390020F7
:10A4400010B5044658B10A4B1B78013BDBB2012B17
:10A4500009D8074B02221A700123237210BD7846D7
:10A46000FDF7B4FEEFE7211D024804F05DFBF5E7C0
:10A470005C390020603900200A8883689B5A0733C2
:10A480009BB223F0030313449BB20288043A934225
:10A4900000D900230B80704710B582B00446836852
:10A4A000C91AADF806100DF10601FFF7E5FFBDF87A
:10A4B0000630A068184402B010BD0088043880B28D
:10A4C000704743888268D018D15201238370704747
:10A4D00082680023937043808380704708B50731FA
:10A4E00089B221F0030189B2428883889A4204D25A
:10A4F0009B1A994220DC002008BD9A4212D9B0F87C
:10A5000000C0ACEB020C614518D98B4218D3BCF1EA
:10A51000030F03D98368134404229A7000234380F5
:10A520001846E9E7826813449B780BB10420E3E7FF
:10A53000FFF7CEFF0020DFE70420DDE70020DBE7A8
:10A540000420D9E738B504460D4683688288134451
:10A550008B4202D07846FDF739FE0023AB70211DF7
:10A560002046FFF789FFA288A36813449B78042B39
:10A5700000D038BD0023A380FBE710B50C468368EC
:10A58000428813448B4202D07846FDF71FFE002319
:10A59000A37010BD70B5054614460E46002944D080
:10A5A000002D46D0B6F1005F08D94FF08053D3F8A4
:10A5B0000C3103F50023B6EB832F0ED3B6F5000F55
:10A5C00008D94FF08053D3F80C3103F50053B6EBA4
:10A5D000832F02D37846FDF7F9FD631E3344B3F1B0
:10A5E000005F08D94FF08052D2F80C2102F500220A
:10A5F000B3EB822F0ED3B3F5000F08D94FF0805282
:10A60000D2F80C2102F50052B3EB822F02D3784628
:10A61000FDF7DCFD042C10D92C8000236B80AB806F
:10A62000AE60043C3480B37070BD7846FDF7CEFD5B
:10A63000B6E77846FDF7CAFDB4E77846FDF7C6FDF4
:10A64000EAE738B50446A0B16288A36813449B7852
:10A65000012B12D0EFF3108572B6A388A1681944BC
:10A660008B78032B0DD02046FFF732FF05B962B679
:10A6700038BD7846FDF7AAFDE6E77846FDF7A6FD6A
:10A68000E8E72046FFF708FFA368C31A63800023AA
:10A690008370EBE72DE9F0410E4614460546D0B134
:10A6A000EEB16A88AB6813449B78012B1BD024B3AE
:10A6B0002846FFF702FFA04221D3EFF3108872B6BD
:10A6C00021462846FFF70AFF074680B1B8F1000F80
:10A6D00016D162B614E07846FDF778FDE0E77846DB
:10A6E000FDF774FDDDE77846FDF770FDDFE72146F5
:10A6F0002846FFF7E6FE3060E8E7092700E0092773
:10A700003846BDE8F081F8B50C4615460646E0B17E
:10A71000FCB1A378012B20D12388AB4221D325B3F0
:10A72000EFF3108772B625800223A370F11830462C
:10A73000FFF7A2FE7388B288934203D0B268134435
:10A7400000229A7007B962B6F8BD7846FDF73EFD63
:10A75000DEE77846FDF73AFDDBE77846FDF736FDA4
:10A76000DAE77846FDF732FDD9E77846FDF72EFDAA
:10A77000D6E770B50C46054690B1ACB1EFF3108644
:10A7800072B6AA88AB6813449A78042A10D09A78D3
:10A79000022A15D0032A18D0052006B962B670BD6A
:10A7A0007846FDF713FDE8E77846FDF70FFDE5E78E
:10A7B000291D2846FFF760FEAA88AB681344E6E728
:10A7C00003229A7023600020E7E77846FDF7FEFC3D
:10A7D0000020E2E738B5044680B1EFF3108572B689
:10A7E000A088A16801448B78042B0BD088780228BC
:10A7F00014BF0020012005B962B638BD7846FDF7C8
:10A80000E5FCEAE72046FFF747FE0146EEE738B5EC
:10A81000054630B1EFF3108472B6A888A9680144E8
:10A8200007E07846FDF7D2FCF4E72846FFF734FE50
:10A8300001468878C31EDBB2012BF6D9022814BF6B
:10A840000020012004B962B638BD70B50C4606463A
:10A8500078B194B1EFF3108572B6A378012B10D0C4
:10A86000032B13D121463046FFF76CFE05B962B6C3
:10A8700070BD7846FDF7AAFCEBE77846FDF7A6FC2D
:10A88000E8E721463046FFF778FEEFE77846FDF728
:10A890009DFCEBE710B5EFF3108472B683888168F6
:10A8A00019448B78042B06D08878B0FA80F04009E0
:10A8B00004B962B610BDFFF7EFFD0146F4E70000F2
:10A8C000024B00221A769A600220704764390020F9
:10A8D00008B5064B986800221A605A609A60DA60E0
:10A8E0001A615A619A6105F07DF908BD643900204A
:10A8F00000B585B00A4BDB6802228DF80020019379
:10A900004FF480530293074A6946012001F0F8FA98
:10A9100018B9012005B05DF804FB0020FAE700BF7C
:10A92000643900208239002000B585B00A4B1B68CD
:10A9300002228DF8002001934FF480530293074ABE
:10A940006946012001F0DCFA18B9012005B05DF874
:10A9500004FB0020FAE700BF843900208239002080
:10A96000164BDA68137951795B1A03F57F2303F6E6
:10A97000FF7302EB03339A4205D002F580520F4B6E
:10A98000DA600320704700B585B00D4B1B680120CD
:10A990008DF8000001930B4B0393042302930A4AA2
:10A9A000694601F0ADFA18B1002005B05DF804FB6E
:10A9B000024B01221A760220F7E700BF643900201B
:10A9C00084390020883900208239002000B585B004
:10A9D0000C4BDA680C4B1B68043301208DF8000027
:10A9E0000192039340F6FC730293084A694601F012
:10A9F00087FA28B90120034B187605B05DF804FBEF
:10AA00000020FAE7643900208439002082390020D0
:10AA100000B585B00A4B1B6801208DF8000001933A
:10AA2000084B039304230293074A694601F068FA2E
:10AA300018B9012005B05DF804FB0020FAE700BF5B
:10AA400084390020703900208239002010B584B08C
:10AA5000104BDA681478104B1B68043301208DF812
:10AA600000000193039202940C4A694601F048FAEF
:10AA700070B9094B1B6804F0FC041C440434054BFA
:10AA80005C61D9680A780A441A61012004B010BDDB
:10AA90000020FBE76439002084390020823900203F
:10AAA00008B500230A2B09D8064A52F8232082420F
:10AAB00001D00133F6E7044A536002E07846FDF71F
:10AAC00085FB08BDE8B604006439002010B5214BB1
:10AAD000DB6853B11F4B1B7E5BB91E4B5B680A2BB7
:10AAE00026D97846FDF772FB22E07846FDF76EFB2B
:10AAF000F0E77846FDF76AFBEFE7164A5368013343
:10AB000053600A2B21D97846FDF760FB1DE0114BFD
:10AB100000225A6019E00F4B1B7E1BB10D4B022225
:10AB20001A7012E0FFF7D4FE0FE00A4B1B7E83B9C8
:10AB3000084B5A68084B53F82230984704460228BD
:10AB4000E9D00328E3D00128D7D0012CEDD0032C85
:10AB5000EBD010BD64390020E8B60400104B1B6830
:10AB60001B685A1E12F1030F18D8C3F30B020AB167
:10AB70000020704710B50B4AD3600023137653763C
:10AB80000124147093600848FFF78AFF07492046A4
:10AB900001F0A4F9FFF79AFF204610BD002070478E
:10ABA0008439002064390020F1A80200B1AB020012
:10ABB00008B50B78032B06D00B4B1B78012B06D066
:10ABC000022B0BD008BD084B00221A76F4E7064B87
:10ABD0001B7E002BF6D1FFF779FFF3E70B78032BF1
:10ABE000F0D1FFF775FEEDE76439002000B585B0C0
:10ABF000174BDB6818784FF6FF7203F58051184445
:10AC000005F0F8FDE0B10246114BD9680B780B4412
:10AC1000984217D00E4B5B7E83B10E4B01208DF80E
:10AC2000000001920393042302930B4A694601F04A
:10AC300067F948B90120064B187606E0074BEDE7A7
:10AC4000012002E0012000E0002005B05DF804FBD7
:10AC5000643900200CB904008239002008B90400CE
:10AC600008B5104BDB681878002203F580511844B2
:10AC700005F0C0FD08B1012008BD0A4BDA68137960
:10AC800051795B1A03F57F2303F6FF7302EB03335D
:10AC90009A4205D002F58052024BDA600320EBE7BE
:10ACA0000220E9E764390020F0B585B0514BDE6839
:10ACB00072793379591E8A4214D006F580510D7885
:10ACC0000D444D490968081D0F7907449B1A06EB8E
:10ACD00003366B88013B9BB247F6FE62934260D914
:10ACE0002C461AE00120434B58767EE07846FDF76B
:10ACF0006DFA15E024F47F6424F00F0404F5805409
:10AD000023781C44A6421CD9A5421CD26388013B6F
:10AD10009BB247F6FE62934211D92388002BE5D0FF
:10AD2000238804EB830323F47F6222F00F02934213
:10AD3000E0D06288B2F5FE4FDCD01C46E2E7254643
:10AD40002FE000252DE000252BE07846FDF73EFAA8
:10AD500015E024F47F6424F00F0404F58054237874
:10AD60001C44A6421CD9A54237D26388013B9BB242
:10AD700047F6FE62934211D92388002BE5D0238841
:10AD800004EB830323F47F6222F00F029342E0D0AE
:10AD90006288B2F5FE4FDCD01C46E2E7254600E0B3
:10ADA0000025E5B1144B19686A8801F580513846D1
:10ADB00005F020FD074690B101200E4B18768DF866
:10ADC000000001950D4B0393042302930C4A69463E
:10ADD00001F096F858B92C46CEE70025E1E7B5FA20
:10ADE00085F56D09034B5D76012005B0F0BD0020AF
:10ADF000FBE700BF643900208439002004B9040057
:10AE0000823900202DE9F04186B0654B1B6923B1E2
:10AE1000634B5B692BB1002748E07846FDF7D6F914
:10AE2000F6E77846FDF7D2F9F5E7A04618E0784650
:10AE3000FDF7CCF918E028F47F6828F00F0808F532
:10AE4000805898F800309844454520D944454AD266
:10AE5000B8F80230013B9BB247F6FE62934214D928
:10AE6000B8F80030002BE2D0B8F8003008EB8303CC
:10AE700023F47F6222F00F029342DCD0B8F8022064
:10AE8000B2F5FE4FD7D09846DEE7444600E00024F6
:10AE90003CBB00230093019B002B5CD10127002CBD
:10AEA00078D0628847F6FF739A4273D0002F75D12D
:10AEB0003B4B5A6922F47F6626F00F06B61A06F558
:10AEC00080561C69DD682B796A799B1A05EB03357E
:10AED000002301936388013B9BB247F6FE629342D5
:10AEE000A3D800940EE00024D2E77846FDF76EF96F
:10AEF00023E024F47F6424F00F0404F580542378C5
:10AF000023441C46A542C6D92388019A02EB83023A
:10AF10009642C0D9009B634023F47F6323F00F0364
:10AF2000002BB8D16388013B9BB247F6FE618B4290
:10AF3000B1D801922388002BD7D0238804EB830358
:10AF400023F47F6222F00F029342D2D06288B2F5DE
:10AF5000FE4FD6D1CDE7124A526901208DF8080084
:10AF60000392009A059204930E4A02A900F0C8FFCA
:10AF700070B90B49019B23F003024B6913444B61E9
:10AF800014B1074B1C618AE77846FDF71FF9F8E713
:10AF9000002000E0012006B0BDE8F0810120FAE7C2
:10AFA000643900208239002000B585B00023294A89
:10AFB0001370D3F8F83FB3F1FF3F09D0B3F1FF3F6F
:10AFC0000DD08BB1B3F1FF3F39D0A3F5805211E022
:10AFD0004FF010225269B2F1FF3FEFD104E04FF081
:10AFE00010225269002AEDD14FF080535A691B6933
:10AFF00003FB02F2A2F58052174B1A60174B1B6835
:10B0000013F4801F16D0164B1B68062B12DD154B50
:10B01000D3F804350021D1F8F81FB1F1FF3F14D067
:10B0200002920191104A009240F276220F490720C5
:10B0300003F010FEFFF792FD05B05DF804FB4FF042
:10B0400010235A69A2F58052D4E74FF010214969C4
:10B05000E6E700BF8039002084390020303000202E
:10B060002C30002000100140B4B604009BB6040050
:10B0700010B50446B0B1104B1B78BBB10E4BD9686C
:10B08000E3685879A3EB0032914211D31A79121A6E
:10B0900002F57F2202F6FF7203EB0233994209D8D0
:10B0A000012004E07846FDF791F8E4E7002010BDA8
:10B0B0000020FCE70020FAE764390020024B1878F2
:10B0C000003818BF012070476439002010B50446CD
:10B0D000124B1B78BBB92378032B18D10F4B9C6004
:10B0E000E268DA600E4B1B78ABB10A220B4B5A6058
:10B0F00000221A76012018705A760A4900F0EEFEF6
:10B10000FFF7E4FC10BD7846FDF760F8E3E778460A
:10B11000FDF75CF8E2E70022E8E700BF64390020B1
:10B1200080390020B1AB0200014B1868704700BFA6
:10B130008439002010B5044680B163681BB12368D0
:10B140000BB1A36813B97846FDF740F8A3685A1EFF
:10B15000134207D10023E360236110BD7846FDF759
:10B1600035F8EAE77846FDF731F8F3E770B508B34C
:10B170000E4604468368FBB1EFF3108572B603698F
:10B18000C268934212D001684268806800F1FF3CB7
:10B1900003EA0C0303FB021116B130461FF021F93C
:10B1A0002369013323614DB962B608E005B962B67F
:10B1B000052504E00E2502E0092500E000252846CB
:10B1C00070BD00000246C0F30B0030BB39B301F67E
:10B1D000FF714FEA113C134B0221C3F80415114BC8
:10B1E000D3F80034002BFAD001460AE00D4BC3F827
:10B1F00008250C4BD3F80034002BFAD002F580520E
:10B2000001316145F2D3074B0022C3F80425054BF9
:10B21000D3F80034002BFAD0704710207047092073
:10B22000704700BF00E00140844610F0030F2DD1AD
:10B2300011F0030F2CD16AB312F0030F2CD1900838
:10B24000164B0122C3F80425144BD3F80034002B0D
:10B25000FAD003E00CF1040C04311046421E58B140
:10B260000B68B3F1FF3FF5D0CCF800300B4BD3F8AF
:10B270000034002BFAD0EDE7084B0022C3F8042578
:10B28000064BD3F80034002BFAD0704710207047DB
:10B2900010207047092070470920704700E00140E6
:10B2A000094B1B7813F0040F02D00378122B00D047
:10B2B0007047064B1A68064B5A60034B1A786FF3B7
:10B2C00082021A70F4E700BF303A0020203A0020D2
:10B2D000BC39002010B582B001900C46BDF8063094
:10B2E000012B11D123680A490B600A4B1A7842F0EE
:10B2F00001021A70D3B25B0883F0010303F001036B
:10B300000B71002002B010BD7846FCF75FFFE9E743
:10B31000203A0020303A002010B582B001900C464F
:10B32000BDF80630022B0FD12268094B1A60227932
:10B330001A71002058719871D871064A137843F039
:10B340000203137002B010BD7846FCF73FFFEBE735
:10B35000183A0020303A002010B582B001900C4617
:10B36000BDF80630032B06D1054B186820601B7909
:10B37000237102B010BD7846FCF728FFF4E700BF48
:10B38000203A002010B582B001900C46BDF806307E
:10B39000032B0CD1084B2068186022791A71074AD8
:10B3A000137843F001031370002002B010BD7846FB
:10B3B000FCF70CFFEEE700BF203A0020303A0020F7
:10B3C00010B582B001900C46BDF80630042B05D1B3
:10B3D000044B03CB2060616002B010BD7846FCF7DF
:10B3E000F5FEF5E7183A002010B582B001900C4642
:10B3F000BDF80630042B0BD1074B2068616803C3EE
:10B40000064A137843F002031370002002B010BD07
:10B410007846FCF7DBFEEFE7183A0020303A0020D0
:10B4200000B583B00190BDF80630032B06D1054B63
:10B4300000221A601A7103B05DF804FB7846FCF72D
:10B44000C5FEF4E7203A002000B583B00190BDF8B6
:10B450000630042B06D1054B00221A605A6003B057
:10B460005DF804FB7846FCF7B1FEF4E7183A0020DB
:10B4700000B585B01A4B1B7813F0400F13D0184B52
:10B480001B7813F0040F0BD1002301938DF80830C3
:10B49000144B5B6803F500530193B3F1807F06D929
:10B4A00005B05DF804FB7846FCF790FEE7E70E4B2D
:10B4B0001B788DF808300A4A137843F004031370A0
:10B4C0000023ADF80C300323ADF80E3001A903982A
:10B4D00006F07EFB0028E3D07846FCF777FEDFE736
:10B4E000303A0020BC390020313A002000B585B048
:10B4F0000022019202920F4B996801911B7B8DF8FB
:10B5000008300D490B780133DBB20B708DF80B302E
:10B51000ADF80C200423ADF80E300DEB03010398B9
:10B5200006F056FB10B905B05DF804FB7846FCF751
:10B530004DFEF8E7BC390020313A002000B585B057
:10B540000023019302930F4A91680191117B8DF8BA
:10B550000810128AADF809200B4A12788DF80B20DA
:10B56000ADF80C300423ADF80E300DEB0301039859
:10B5700006F02EFB10B905B05DF804FB7846FCF729
:10B5800025FEF8E7BC390020313A002000B58DB027
:10B590000B4B1B7B012B0ED0094A926804928DF84D
:10B5A0000830039002238DF8043001A8FEF710FF45
:10B5B0000DB05DF804FB024A9268013A0492EEE78E
:10B5C000BC39002008B51D481D4B036000F036FF54
:10B5D0001C4B1B7813F0200F2AD103F00303032B1D
:10B5E00014D1194B1968194A916019791173B3F87C
:10B5F00005001082DB79164A1370164A12799342BD
:10B6000017D0B1B9114B00221A6007E00F4B00228E
:10B610001A609A601A731A82FFF768FF0B4B1A6858
:10B620005A60084A137843F040031370FFF720FF75
:10B6300008BD084B1A68054B1A60EFE70C3A00206A
:10B64000A1B20200303A0020183A0020BC39002094
:10B65000313A0020203A002010B582B00024ADF825
:10B6600000400123ADF80230009806F0E2FAADF890
:10B6700004400223ADF80630019806F0DAFA02B071
:10B6800010BD000008B5002006F0FAFA094A0023B0
:10B69000136053609360D3601361074A117863F3BA
:10B6A00045111170CBB243F040031370FFF7E0FE79
:10B6B00008BD00BFBC390020303A002038B50C4D21
:10B6C00000242C606C60AC60EC602C6101F01CFA12
:10B6D000084B5860084A9A60084ADA601C615C614D
:10B6E000074B1A7864F3C3021A706C6038BD00BF50
:10B6F000BC390020983900205DB802000087930310
:10B70000303A002008B50C4B1B7813F0100F00D016
:10B7100008BD0A480A4B036000F090FEFFF752FF95
:10B72000FFF79AFF074801F073F9034A137843F0D3
:10B7300010031370ECE700BF303A0020B03900204E
:10B74000B5B9020098390020034B1878800880F0C2
:10B75000010000F001007047303A002010B501F000
:10B76000C7FF174B1B7B1BBB154B9B7B2BBB144B8A
:10B770001A8A41F282639A4206D8124B1B7813F060
:10B78000080F05D0012300E001231BB9082410E0B5
:10B790000023FAE70A4B01221A7300241C829A68DC
:10B7A00001329A60FFF7A2FE2046FFF7EFFE00E0AD
:10B7B000082401F0E3FF204610BD0824F9E700BF8C
:10B7C000BC390020303A002010B501F091FF214B28
:10B7D0005B7BABB11F4B9B7B03BB1E4B1A8A41F2B9
:10B7E00082639A4206D81C4B1B7813F0080F05D0D1
:10B7F000012300E001239BB1012302E00023FAE7CB
:10B8000000231C460BB3134B00225A731B7B4BB116
:10B81000012B0ED07846FCF7D9FC16E00023F0E7A8
:10B820000023EEE7FFF79AFF78B17846FCF7CEFCED
:10B830000BE0084B00201860586018731882FFF75F
:10B84000A5FEFFF753FEFFF713FE01F097FF20461A
:10B8500010BD00BFBC390020303A002008B52C4B89
:10B860001B7BDBB1012B2ED07846FCF7AFFC284ABE
:10B87000138A01339BB21382264AA2FB03121209D8
:10B88000C2EB0212A3EB42039BB2002B3DD0204B34
:10B890005B8A13B1013B1E4A538208BD1C4B1A8AB6
:10B8A00041F282639A4206D81B4B1B7813F0080FB3
:10B8B00007D0012300E00123002BD8D0FFF784FF3D
:10B8C000E5E70023F8E7124B1B8A41F282629342BC
:10B8D00006D8114A127812F0080F14D0012200E0A5
:10B8E0000122002AC3D042F2B012934202D9084B7F
:10B8F00001225A73FFF768FF0028C8D1044B5B7B15
:10B90000012BB4D1C3E70022EBE7FFF717FEBEE738
:10B91000BC39002089888888303A002010B5244B33
:10B920001B7B002B35D10446214B5B8A2BBB1AB9FC
:10B930001F4B9B688B4205D3FAB11D4B9B680133AB
:10B940008B421AD21A4B9B682A338B4223D3184B53
:10B950009B7B03BB164B996000221A605A601A82C7
:10B9600042F6065159825A731A73FFF7BFFDFFF76B
:10B970007FFD2046FFF70AFE0DE062B10C4B9B688D
:10B9800001338B4207D10A4B01225A73FFF71CFF88
:10B9900001E0012B00D010BD002AFCD1044B9B68B4
:10B9A0008B42F8D1024B01225A73FFF70DFFF2E7E9
:10B9B000BC3900200378042B00D0704743681B7803
:10B9C000002BFAD010B58468027E437E012A14BF92
:10B9D00000220122416904F11000FFF79FFF10BD12
:10B9E00008B538B10D4B01229A730D4A1368013323
:10B9F000136008BD0A4B1B685BB1094A1368013B21
:10BA00001360002BF5D1054B00229A73FFF7DCFE83
:10BA1000EFE77846FCF7DAFBEFE700BFBC39002020
:10BA20008C39002000B58DB0ADF808008DF81020DD
:10BA3000039103238DF8043001A8FEF7C9FC0DB073
:10BA40005DF804FB014B9868704700BFBC390020CB
:10BA5000054B1B7B012B02D0034B98687047024BB0
:10BA600098680138704700BFBC3900201D4B1B7817
:10BA700013F0400F34D070B504460D461A4B1A68C7
:10BA80005B689A4228D2184B1B7B012B17D0174BAF
:10BA90009A4216D2144B1A685B68403B9A4218D2FD
:10BAA000EFF3108672B6104A1368591C11602B60B0
:10BAB000FFF7CEFF206006B962B6002070BD0C4BC8
:10BAC000E6E7094B01225A73FFF77EFE0028E7D113
:10BAD000E0E7FFF7CDFCE3E7FFF7CAFC0F20EDE757
