:020000022000DC
:1060000000F000206D630200556302005763020038
:10601000596302005B6302005D6302000000000040
:106020000000000000000000000000005F630200AC
:106030006163020000000000636302006563020008
:106040006763020067630200676302006763020020
:106050006763020067630200D1CA0300676302003E
:1060600067630200676302005D9F030067630200CD
:1060700067630200676302006763020067630200F0
:10608000676302002959040095CB02006763020090
:106090008D5904006763020021D703006763020083
:1060A00067630200676302006763020067630200C0
:1060B0006763020067630200000000000000000048
:1060C00067630200676302006763020067630200A0
:1060D000676302006763020067630200000000005C
:1060E00000000000000000000000000000000000B0
:1060F00000000000000000000000000000000000A0
:10610000000000000000000000000000000000008F
:10611000000000000000000000000000000000007F
:10612000000000000000000000000000000000006F
:10613000000000000000000000000000000000005F
:10614000000000000000000000000000000000004F
:10615000000000000000000000000000000000003F
:10616000000000000000000000000000000000002F
:10617000000000000000000000000000000000001F
:10618000000000000000000000000000000000000F
:1061900000000000000000000000000000000000FF
:1061A00000000000000000000000000000000000EF
:1061B00000000000000000000000000000000000DF
:1061C00000000000000000000000000000000000CF
:1061D00000000000000000000000000000000000BF
:1061E00000000000000000000000000000000000AF
:1061F000000000000000000000000000000000009F
:10620000344935480A1A02D0072291438D46334952
:1062100033480A1A06D00722914381F309880222E3
:1062200082F314882F483049304A00F042F8304851
:106230003049314A00F03DF830483149314A00F0E8
:1062400038F831483149324A00F033F831483249A0
:10625000324A00F02EF832483249334A00F029F829
:1062600032483349334A00F024F833483349002296
:1062700000F02AF832483349002200F025F832486D
:106280003249091A082902DB0022026041601F48D6
:106290001F49884205D00268043003B4904703BC0C
:1062A000F7E700208646EC4600200021284A904768
:1062B000FEE7884207D0521A05D0037801300B70F0
:1062C0000131013AF9D17047884202D002700130A1
:1062D000FAE7704700F0002000E8002000F00020FE
:1062E00000F0002078910400F02D0020BC2E00204A
:1062F000A0630200A06302004E5F040078910400D6
:10630000F02D0020F02D00206C6304006C6304006D
:106310006C6304006C6304006C6304006C63040031
:106320006C6304006C6304007691040044920400E2
:10633000BC2E0020BC2E0020BC2E00203864002083
:106340003864002038640020386400203868002059
:1063500099720200FEE7FEE7FEE7FEE7FEE7FEE7D2
:10636000FEE7FEE7FEE7FEE700F002B8FFF7FCBF3E
:1063700008484FF00701884385460748804707488B
:10638000016841F470010160BFF34F8FBFF36F8F5D
:10639000FFF736BF00F00020E1DC030088ED00E0ED
:1063A00041DF70470C4B1B6813F4804F03D00B4B3D
:1063B0001B68012B00DC704700B583B0084BD3F895
:1063C0000435084A0092B7220749022007F0E8FC8A
:1063D00003B05DF804FB00BF382E0020342E0020EF
:1063E00000100140B0630400A6630400124B1B6858
:1063F00013F4804F03D0114B1B68032B00DC704754
:1064000030B587B00E4BD3F80435488814885168EE
:106410000C4DA5FB015112890492C1F3CF310391B8
:1064200002940190084A00924FF48E7207490420AA
:1064300007F0B6FC07B030BD382E0020342E002007
:106440000010014001800080D0630400A6630400B6
:10645000164B1B6813F4804F27D0154B1B68032B7A
:1064600023DD30B587B0134BD3F804354C88117851
:10647000C9B9114D51681148A0FB01C19268A0FB38
:106480000202C2F3CF320492C1F3CF3103910295DD
:1064900001940B4A00924FF488720A49042007F0D5
:1064A0007FFC07B030BD084DE4E77047382E002070
:1064B000342E002000100140286404000180008078
:1064C00030640400A663040018640400F0B589B0C9
:1064D000106948B3244B1B6813F4804F03D0234B3F
:1064E0001B68032B01DC09B0F0BD214BD3F8043548
:1064F0004D8811681F4CA4FB016196889768A4FB26
:10650000074C928906900592CCF3CF320492039601
:10651000C1F3CF3102910195174A0092F722174932
:10652000042007F03DFCDEE70F4B1B6813F4804F9F
:10653000D9D00E4B1B68032BD5DD0D4BD3F804359A
:10654000488811680B4CA4FB014192880392C1F367
:10655000CF31029101900A4A00924FF481720749AB
:10656000042007F01DFCBEE7382E0020342E00204A
:10657000001001400180008078640400A6630400DC
:10658000E8640400F0B589B0106948B3244B1B6877
:1065900013F4804F03D0234B1B68032B01DC09B09D
:1065A000F0BD214BD3F804354D88168851681F4C37
:1065B000A4FB01711789D268A4FB02420690C2F3C2
:1065C000CF3205920497C1F3CF3103910296019522
:1065D000174A0092DE221749042007F0E1FBDEE7AC
:1065E0000F4B1B6813F4804FD9D00E4B1B68032B45
:1065F000D5DD0D4BD3F804354988108852680B4C13
:10660000A4FB0242C2F3CF320392029001910A4AE4
:106610000092E9220749042007F0C2FBBFE700BF50
:10662000382E0020342E0020001001400180008010
:1066300024650400A66304009C65040030B58BB09B
:106640000446092800D80134924B1B6813F4804F8C
:1066500003D0914B1B68032B18DC631E132B35D81A
:10666000DFE813F0210068007C008B009A00A9008D
:106670003400340034003400B800C400D000DC0022
:10668000E800F40000010C0138014401834BD3F809
:1066900004350194824A009240F255128149042047
:1066A00007F07EFBD9E7804B18884DF6EF0142F2E8
:1066B0001072884294BF121852181A807B4A1168CF
:1066C000596092881A819A7A01329A7205F066FBB3
:1066D000774B1B6803F5371303F5D863834207D262
:1066E000724A9379013393716F4A937A01339372AB
:1066F0006F4B1860002309934FF47A730893013CA1
:10670000142C00F2A482DFE814F0FD00FD00480123
:106710004801480148017B019A01B901D801F701FC
:10672000F701F701F701F701F70153025302530292
:10673000530282025C4A138842F210718B4238BFC6
:106740000B46A3F51C53103B1380584B196851603E
:106750009B881381937A01339372B7E7534B1B687D
:10676000544A934207D8544A1A44504B1A609A79B3
:1067700001329A71AAE7514AF7E74C4B1B68504A1D
:10678000934207D94F4A1A44484B1A609A7901320A
:106790009A719BE74C4AF7E7444B98884DF6EF0116
:1067A00042F21072884294BF121852189A809A7955
:1067B00001329A718AE73D4A938842F210718B4206
:1067C00038BF0B46A3F51C53103B938093790133DC
:1067D00093717BE73D4A10884DF6EF0142F210734A
:1067E000884294BF1B185B1813806FE7374A1388E1
:1067F00042F210718B4238BF0B46A3F51C53103B7D
:10680000138063E7314B5A682A4B9A4204D82A4BCB
:1068100013442E4A536059E7284BFAE72B4B5A682A
:10682000274B9A4204D9274B1344284A53604DE71B
:10683000254BFAE7254A10894DF6EF0142F2107315
:10684000884294BF1B185B1813813FE71F4A1389C6
:1068500042F210718B4238BF0B46A3F51C53103B1C
:10686000138133E71A4B1A68124B9A4204D8124B21
:106870001344174A136029E7104BFAE7144B1A68C0
:106880000F4B9A4204D90F4B1344114A13601DE772
:106890000D4BFAE7382E0020342E00200010014066
:1068A000D8650400A6630400482F0020542F002060
:1068B0005C2F002067C5973A78EC8713E0B11F4E34
:1068C00058E9A716881378ECE0FC1F03302F00204E
:1068D000402F0020934B5A68934B9A4204D8934B15
:1068E0001344904A5360F1E6914BFAE78D4B5A6896
:1068F000904B9A4204D9904B13448A4A5360E5E680
:106900008E4BFAE78E4B1B6813F4804F03D08D4BF0
:106910001B68032B22DC8C4B1878C0EBC0000023D3
:1069200008AA8A498A4C04EBC0001EF075FB1128A6
:1069300000F2DA81DFE810F0AE01D801D801D80109
:10694000A001D801D801C001A001D801D801D80107
:10695000D801D801D801D801D801A0017D4BD3F8C6
:1069600004357A4908884A687B4CA4FB02420C89AA
:10697000897A002506954FF47A750595049103945C
:10698000C2F3CF3202920190744A00924FF4ED723A
:106990007349042007F004FABDE7694B1B6813F440
:1069A000804F03D0674B1B68032B0CDC664B1878B9
:1069B000C0EBC000002308AA6A49654C04EBC00084
:1069C0001EF05BFBB3E7634BD3F8043565490A68F7
:1069D0006148A0FB020288888979002405944FF45D
:1069E0007A74049403910290C2F3CF3201925E4A0A
:1069F000009240F2EB125A49042007F0D1F9D5E792
:106A00004F4B1B6813F4804F03D04E4B1B68032B76
:106A100009DC4D4B1878C0EBC0004D4B03EBC000B8
:106A20001EF0BCFB83E74B4BD3F804354F4A009272
:106A30004FF4FD724A49042007F0B2F9E9E7404BF0
:106A40001B6813F4804F03D03E4B1B68032B09DCFB
:106A50003D4B1878C0EBC0003D4B03EBC0001EF06F
:106A6000C0FB64E73B4BD3F80435414A009240F247
:106A7000FF123B49042007F093F9E9E7304B1B680C
:106A800013F4804F03D02F4B1B68032B09DC2E4BD4
:106A90001878C0EBC0002E4B03EBC0001EF0E7FBE4
:106AA00045E72C4BD3F80435324A00924FF401727B
:106AB0002B49042007F074F9E9E7214B1B6813F414
:106AC000804F03D01F4B1B68032B09DC1E4B18782B
:106AD000C0EBC0001E4B03EBC0001EF0A5FB26E779
:106AE0001C4BD3F80435244A009240F209221C4979
:106AF000042007F055F9E9E7114B1B6813F4804FA8
:106B000003D0104B1B68032B3ADC0F4B1878C0EBFB
:106B1000C000002219490E4B03EBC0001EF0DEFA44
:106B200005E700BF402F002067C5973A78EC871330
:106B3000E0B11F4E58E9A716881378ECE0FC1F035C
:106B4000382E0020342E0020BC2E0020482F00209C
:106B5000C02E00200010014001800080EC65040080
:106B6000A6630400542F00205C660400C86604007D
:106B7000E0660400046704002C670400302F002046
:106B80005D4BD3F804355D4908884A685C4CA4FB2A
:106B9000024209890391C2F3CF3202920190594A0D
:106BA00000924FF405725849042007F0F9F8ACE759
:106BB000564B1B6813F4804F03D0554B1B68032BB7
:106BC0000BDC544B1878C0EBC00000225249534BE9
:106BD00003EBC0001EF0AAFAA9E6474BD3F8043530
:106BE0004D490A684648A0FB02424968A0FB0101E2
:106BF000C1F3CF310291C2F3CF320192484A0092E1
:106C000040F222224049042007F0CAF8D9E7414B5C
:106C10001A780132D2B21A70012A00D900223D4BF3
:106C20001A703A4B1B6813F4804F33D0384B1B68F3
:106C3000032B2FDD304BD3F804350192394A0092F3
:106C40004FF40B723049042007F0AAF822E02F4BD2
:106C50001B6813F4804F1DD02D4B1B68032B19DDCF
:106C6000254BD3F80435304A009240F22F222649B2
:106C7000042007F095F80DE0244B1B6813F4804FB7
:106C800003D0234B1B68032B06DC062232210F2086
:106C900000F08AFD0BB030BD174BD3F804350290DD
:106CA0001C4A12780192214A009240F23B22164976
:106CB000042007F075F8E8E7144B1B6813F4804FC5
:106CC000E8D0134B1B68032BE4DD0B4BD3F80435E2
:106CD000104A12780192164A009240F247220A495D
:106CE000042007F05DF8D5E70028D3D0114A40F220
:106CF0004B2117F023F9CDE700100140302F002081
:106D0000018000804C670400A6630400382E002038
:106D1000342E0020BC2E0020402F0020C02E00204A
:106D20009C670400DC670400186A04000068040023
:106D3000246804006C63040000B583B00346313856
:106D4000082818D9A3F161020B2A19D90F4B1B6827
:106D500013F4804F11D00E4B1B68032B0DDD0D4B30
:106D6000D3F804350C4A00924FF418720B490420F2
:106D700007F016F801E0FFF761FC03B05DF804FBD3
:106D8000A3F15700FFF75AFCF7E700BF382E0020A9
:106D9000342E002000100140186A0400A66304008D
:106DA00000B583B0012A1ED0022A35D03AB1244A58
:106DB000D221032017F0C2F803B05DF804FB214B89
:106DC0001B6813F4804FF7D01F4B1B68032BF3DDB8
:106DD0001E4BD3F804351E4A0092C5221D490420DB
:106DE00006F0DEFFE8E7062232210F2000F0DCFC8F
:106DF000144B1B6813F4804FDED0134B1B68032B1E
:106E0000DADD124BD3F80435134A0092CA22114935
:106E1000042006F0C5FFCFE70A4B1B6813F4804F30
:106E2000CAD0094B1B68032BC6DD084BD3F80435C9
:106E30000A4A0092CE220749042006F0B1FFBBE7C0
:106E40006C630400382E0020342E00200010014016
:106E500050680400A6630400706804009068040091
:106E600000B58DB02422002103A81FF00BF80123E8
:106E70008DF80C3007238DF80F3006238DF8143071
:106E80001D4B07931D4B0B931D4903A80AF0ECFF04
:106E900060B30B2829D11B4B1B6813F4804F03D020
:106EA000194B1B68032B14DC164B1B6813F4804F23
:106EB0001CD0154B1B68032B18DD144BD3F804357D
:106EC000134A00924FF421721249042006F068FF21
:106ED0000CE00E4BD3F804350F4A009240F28222A8
:106EE0000C49042006F05CFFDEE710B90DB05DF838
:106EF00004FB17F015F8F9E7CD700200E56F02000A
:106F00003C2F0020382E0020342E0020001001409D
:106F100004690400A6630400B468040000B583B0EB
:106F2000234A04214FF4C04006F01EFF214B1B688A
:106F300013F4804F03D0204B1B68032B20DC1F4A27
:106F40001F4B136047F6FF7191801E4A13601E4865
:106F500050601E4A536011811EF01CFDE0B900F024
:106F600065FC1B4800F096FCE0B900F051FE00F013
:106F70008DFE00F0BBFEFFF773FF03B05DF804FB6E
:106F8000144BD3F80435144A00924FF42472134979
:106F9000042006F005FFD2E7114A40F2992116F0CD
:106FA000CDFFDCE70E4A40F29D2116F0C7FFDCE77B
:106FB0003DDD0200382E0020342E0020542F00200A
:106FC000E0FC1F03402F0020E0B11F4E302F0020B7
:106FD0003D6602000010014040690400A663040001
:106FE0006C63040010B582B01A4B1B6813F4804F19
:106FF00003D0194B1B68032B01DC00240CE0174B5A
:10700000D3F80435164A009240F26622154904204E
:1070100006F0C6FEF1E70134012C18D8C4EBC40019
:10702000114B03EBC000114B43630023C36280F894
:10703000303080F83130611CC9B21DF0A9FF002842
:10704000E9D00B4A40F26F2116F078FFE3E702B077
:1070500010BD00BF382E0020342E0020001001404B
:107060006C690400A6630400C02E0020006A0400BE
:107070006C63040000B583B00F4B1B6813F4804FA2
:1070800003D00E4B1B68032B09DC0322C8210F2001
:1070900000F08AFB0AF048FF03B05DF804FB084BE0
:1070A000D3F80435074A00924FF49272064904203F
:1070B00006F076FEE9E700BF382E0020342E0020CF
:1070C000001001408C690400A663040008B5037831
:1070D000232B00D008BDFFF7CDFFFBE710B504461A
:1070E00000210F2000F04AFB04EB840462003221EF
:1070F000032000F059FB10BD08B500F089FB08BD66
:1071000000B585B003A811F0A1F80D4B1B6813F46E
:10711000804F03D00B4B1B68032B02DC05B05DF8DE
:1071200004FB094BD3F80435BDF80C200192074A43
:107130000092A0220649042006F032FEEEE700BFCE
:10714000382E0020342E002000100140A8690400D1
:10715000A663040000B58BB06421284800F038FA1B
:10716000274B1B78D3B90393049305930693079396
:1071700008930993234B0493234B0593234B0793C5
:10718000234B0893234B099303A800F0B7F938B1B8
:10719000214A40F2BA2116F0D1FE01E0FFF7B0FF1C
:1071A00000F0CAFE00F0AEFB0AF0B0FEA0B91B4B27
:1071B0001B6813F4804F03D0194B1B68032B11DCA1
:1071C00000210F2000F0DAFA0222C8210F2000F07F
:1071D000EBFA0BB05DF804FB0F4A40F2C32116F046
:1071E000ADFEE4E70F4BD3F804350F4A009240F2AE
:1071F000C5220E49042006F0D3FDE1E7396D0200F7
:107200003C2F002031720200DD700200F970020094
:10721000C0690400506F04006C630400382E002025
:10722000342E002000100140186A0400A6630400F8
:1072300000B583B0134B1B6813F4804F03D0124B7F
:107240001B68032B13DC00F021FD00F04FFDFFF75E
:1072500057FF00F0DDFA00210F2000F08FFA042222
:10726000C8210F2000F0A0FA03B05DF804FB074B23
:10727000D3F80435064A0092A5220649042006F0F8
:107280008FFDE0E7382E0020342E00200010014052
:10729000E4690400A663040008B5FFF73FFEFFF7AA
:1072A00059FFFFF77DF8FCE769DF704703781F2B74
:1072B00000D07047014B01221A70FAE7632F0020BB
:1072C0003F4B1B78002B79D000B587B0012804D044
:1072D00003286CD007B05DF804FB0023019301A9DB
:1072E000012016F00DF800284BD1002303930493DE
:1072F00005939DF80C20012363F303028DF80C2005
:10730000D2B263F307128DF80C209DF80D2063F3C1
:1073100001028DF80D201B23ADF81630019A03A948
:107320004120FFF7C1FF78BB01A816F0B7F870BB8A
:10733000244B1B6803B198470123029302A90DF166
:10734000020011F001FD28BBBDF8020011F06EF93A
:107350000DF1010111F002FBF8B90CF0C1F89DF834
:10736000011000200CF0BCFBD0B904F0A5F9D8B98D
:10737000134B00221A70134B5B68002BAAD098475E
:10738000A8E716F0CDFDB0E716F0CAFDCCE716F081
:10739000C7FDCDE716F0C4FDD6E716F0C1FDDCE76A
:1073A000784600F089FDE0E716F0BAFDE0E716F058
:1073B0002BF900288ED016F0B3FD8BE7704700BF85
:1073C000622F0020642F002008B5064B01221A709E
:1073D000054804F0DFF904F0C1F900B908BD16F062
:1073E0009FFDFBE7622F0020F02D002008B50378F9
:1073F0001C2B00D008BD074B1B78002BFAD016F0D1
:1074000047F918B9044804F0C9F9F3E716F088FD04
:10741000F8E700BF622F0020F02D002008B5094BCF
:107420001B7863B90849094818F0B2FA40B9032338
:10743000002207494969074818F0C6FA00E0082009
:1074400008BD00BF632F0020802F0020EC320020F9
:10745000642F0020B831002008B50378023B082BC8
:107460003FD8DFE803F01C05113E3E2C3E3E3600BF
:107470001E4B9B68002B34D0007A002831D01C4A68
:107480000121117098472CE0184BDB684BB3184A68
:10749000127832B3164A00211170984721E0154B3B
:1074A0001B784BB9114B1B691BB1114A002111709C
:1074B0009847FFF7B3FF14E0FFF786FF11E01022B3
:1074C0000A4B99690C4818F008FB50B116F028FDDA
:1074D00007E08168C0680AF047FC18B9054B012233
:1074E0001A7008BD16F01CFDF8E700BF642F0020DD
:1074F000602F0020612F0020B831002010B586B029
:107500008446224A03AB07CA03C323F8022B120C9A
:107510001A701F4CA646BCE80F00AEE80F009CE8AE
:1075200007008EE80700A369002B2DD0194B0093AC
:1075300003AB194A19491A4818F0E8F9034610B183
:10754000184606B010BD174819F09CFF01461448B4
:1075500018F008FA03460028F2D113481AF012F97D
:1075600003460028ECD110481AF044F901460C48B3
:1075700018F0F8F903460028E2D10C4804F00AF9A3
:10758000FFF74CFF0346DBE70723D9E7606F0400F2
:10759000642F002059740200802F0020EC3200205C
:1075A000B8310020A02F002068310020FC2D0020E1
:1075B00008B5064B1B681BB906E0044B1B689847CF
:1075C00013F04CFE0028F8DA08BD00BF2C33002071
:1075D00010B50C46134B1860134A012113481EF0D6
:1075E00013FA98B9610CE00341F27073984271F19B
:1075F000000310D34FF47A7200231EF07DFA014687
:1076000000220B481EF016FA38B910BD094A4A216B
:1076100016F094FCE6E70521F2E7064A4B2116F046
:107620008DFCF2E72C330020B1750200A06F04003E
:10763000303300206C6F040070B50546002403E071
:107640000D4A93420ED80134032C14D80B4B1B5D0A
:10765000AB42F8D10A4B1E6804F0A0FB331AEFD5F9
:10766000831BEDE704F09AFB054B1860054B1B6884
:1076700020469847E7E770BD801A0600AC6F04000B
:107680007C330020783300204FF0A043D3F804353A
:10769000C34013F0010F0CBF012000207047000011
:1076A00070B505460024264600E00134032C0AD8B4
:1076B0000123A3402B42F8D0044B185DFFF7E4FFF1
:1076C000A0400643F1E7304670BD00BFB06F040034
:1076D00008B511B115F02DF908BD15F023F9FBE738
:1076E00070B50546002400E00134032C0FD80123B7
:1076F000A3402B42F8D0064B1E5D3046FFF7C4FF77
:1077000080F00101C9B23046FFF7E2FFECE770BD3F
:10771000B06F040010B5144B1B684BB1134B1868C5
:10772000FFF7DEFF104B1C68013C1C6024B110BD4C
:10773000002016F0F5FBF1E70D481EF09DF900E082
:107740000134032CF3D80123A340084A12681342E2
:10775000F6D0084B1968E14001F00101064B185DB5
:10776000FFF7B6FFECE700BF503300205433002092
:107770005833002080330020B06F040070B50546F8
:107780000E46002400E00134032C09D80123A34055
:107790002B42F8D03146034B185DFFF799FFF2E713
:1077A00070BD00BFB06F040042B310B50C46134665
:1077B000132900D810BD124A10605B00013B114A2A
:1077C0001360FFF76DFF104B1860610CE40314F5B4
:1077D000FA704FF47A724FF0000341F100011EF08D
:1077E0008BF90146002209481EF024F90028E1D156
:1077F0000121034B1868FFF7C1FFDBE7704700BFAB
:1078000054330020503300208033002058330020B0
:1078100008B504481EF030F90021034B1868FFF743
:10782000ADFF08BD583300205433002010B582B09E
:1078300015F00CF840B10024ADF804408DF8064076
:1078400001238DF8053007E014F0B8FF0028F2D0CE
:1078500016F066FBEFE70134032C09D801A90A4BA7
:10786000185D14F0FDFF0028F5D016F059FBF2E783
:10787000064A012106481EF0C7F808B902B010BD3B
:1078800016F04EFBFAE700BFB06F04001577020058
:10789000A86F040060B310B582B0164A106014F0EF
:1078A000D5FF40B1144B1B68ADF804301B0C8DF8AC
:1078B000063000240CE014F081FF0028F2D016F00E
:1078C0002FFBEFE701210D4B185D15F0A3F80134F4
:1078D000032C0AD80A4A01A9084B185D15F030F8A4
:1078E0000028EFD016F01CFBECE7002002B010BD22
:1078F0000E20704778330020A46F0400AC6F0400A2
:1079000039760200002800F082802DE9F04FD1B0D6
:1079100004463F4B1B6813F4804F03D03D4B1B685C
:10792000032B31DC3A4B1B6813F4804F03D0394BE7
:107930001B68032B2ADC51B0BDE8F08FE25C3649AE
:107940000D68100959002E5C0FA800F8136002F0B2
:107950000F020131AA5C425401330F2BEED90FAA5A
:1079600000238DF85C3003F1804303F58833D3F8AE
:1079700004350292294A0192294A00924222294959
:10798000042006F00DFACDE70023E6E7264BD3F8F6
:1079900004350D932068020202F47F0242EA00627D
:1079A000010A01F47F4142EA0108B4F804C04FEA39
:1079B0000C2292B2B4F806E04FEA0E2189B2257A81
:1079C000667AA77AE37A94F80C9094F80DA094F86C
:1079D0000EB0E47B0B94CDF828B0CDF824A0CDF800
:1079E0002090079306970596049541EA1E2103917E
:1079F00042EA1C22029248EA106001900B4A00926F
:107A00000D9B43220749042006F0CAF993E770470B
:107A1000382E0020342E00203C2E0020EC6F040075
:107A200000700400D96F04000010014008700400C9
:107A300072DF704773DF704774DF70472DE9F047DE
:107A4000A2B0074688469146324C00252560656005
:107A5000A560E56030490B78C3EB43102F4E064418
:107A600026602F4A0244A2601F22A280A281013315
:107A700003F001030B704FF03C0A5246294613A84D
:107A80001EF000FA06238DF84F30ADF84870012340
:107A90008DF84A30ADF85C3012AA1892ADF83C70FF
:107AA000ADF84090CDF844800DEB0A021D928DF8A0
:107AB00078305246294668461EF0E4F902238DF8D4
:107AC0000030221D314613A815F004FB90B9114B6C
:107AD00003F10C029968684615F0FCFA68B9114A7E
:107AE0000C491148FFF7A4FF082809D070B922B04B
:107AF000BDE8F08716F014FAE9E716F011FAEEE7A0
:107B0000002204490848FFF793FFEFE716F008FA50
:107B1000EDE700BFC8330020843300208833002005
:107B2000D83300200C2E0020082E0020B0F5202F86
:107B30000AD2074BA3FB0023DB0808B103B90123DA
:107B4000044A9381916070474FF6FF73F5E700BFD9
:107B5000CDCCCCCC0C2E002008B50121054B1878DB
:107B6000FFF768FF18B9002004F004FD08BD16F007
:107B7000D7F9F8E7082E002008B5044B1878FFF76E
:107B80005BFF00B908BD16F0CBF9FBE7082E00201B
:107B900076DF70477ADF70477CDF704769DF7047B8
:107BA00008B516F0BDF908BD08B503F0FBFD08BD2A
:107BB00000B583B0037823B1012B0BD003B05DF87F
:107BC00004FB3B214088FFF7E3FF0028F6D016F0C6
:107BD000A7F9F3E7094B1B6813F4804FEED0084B6D
:107BE0001B68032BEADD074BD3F80435064A0092E5
:107BF00068220649042006F0D3F8DFE7382E00207B
:107C0000342E002000100140887004006D700400C4
:107C100000B585B015F0F8FC60BB0023039303A901
:107C2000012015F06DFB40BB0023009301930293EC
:107C30009DF80020012363F303028DF80020D2B2E7
:107C400063F307128DF800209DF8012063F3010211
:107C50008DF801201B23ADF80A30039A69464120B4
:107C6000FFF79CFF60B903A815F018FC58B905B0E0
:107C70005DF804FB16F054F9CFE716F051F9D3E79D
:107C800016F04EF9EFE716F04BF9F0E700B585B0C6
:107C90009DF80C30012262F303038DF80C30DBB247
:107CA00062F307138DF80C301B220F4903A8FFF76E
:107CB00073FF98B90023019302937823ADF8043041
:107CC000C823ADF806304FF4C873ADF80A3001A8E8
:107CD000FFF760FF28B905B05DF804FB16F020F946
:107CE000E8E716F01DF9F6E7B470040000B58BB0B4
:107CF00001AA0023019302937821ADF80410C82152
:107D0000ADF806104FF4C871ADF80A100393049350
:107D100005930693079308930993039240F6CD4386
:107D200004934FF48033059303238DF81830074BE9
:107D30000893074B099303A815F052FE10B90BB036
:107D40005DF804FB16F0ECF8F9E700BFB17B020028
:107D5000A17B02000620704700B587B044F2010302
:107D600098425DD01BD8012836D041F201039842D9
:107D700071D1474B1B6813F4804F36D0454B1B68BD
:107D8000002B32DD444BD3F8043502920191434A73
:107D9000009263224249012006F002F825E044F2F5
:107DA0000203984257D13A4B1B6813F4804F1CD002
:107DB000384B1B68002B18DD374BD3F8043510689F
:107DC0000390526802920191364A00926922344926
:107DD000012005F0E5FF08E02D4B1B6813F4804FF0
:107DE00003D02C4B1B68002B0DDC4FF0A0434FF44D
:107DF000F012C3F81825C3F80C25EFF3108372B600
:107E00004DF6AD6C3DE0244BD3F804350292019160
:107E1000254A009260222249012005F0C1FFE4E7D3
:107E20001B4B1B6813F4804FDFD01A4B1B68002BD1
:107E3000DBDD194BD3F804351068049050680390CB
:107E4000029192680192194A00927322144901200A
:107E500005F0A6FFC9E70E4B1B6813F4804FC4D092
:107E60000C4B1B68002BC0DD0B4BD3F80435019184
:107E70000F4A00927B220A49012005F091FFB4E7E6
:107E800030BF0C4B1B78002BFAD107B05DF804FB18
:107E9000382E0020342E00200010014024710400F0
:107EA000F570040048710400087104006871040052
:107EB0008C710400242E002000B583B001460023FD
:107EC0000093054B01936A4644F20200FFF744FF1A
:107ED00003B05DF804FB00BFD867040010B403468C
:107EE000044C006859689A68DB680FC45DF8044B5D
:107EF000704700BF183400200E4B4FF0805202F143
:107F0000600103C983E8030003F1080CA43292E87E
:107F100003008CE8030093F9062002F00F0242F000
:107F200040029A7193F9082002F03F0242F0800269
:107F30001A72704718340020004870471834002027
:107F4000002308E0074901EBC300002242804260A1
:107F500001F8332001331F2BF4D9034B00221A60A0
:107F6000704700BF283400202835002000B5864621
:107F7000114B1B684FF0000C0BE01F230F4A12F847
:107F80003300B0B102EBC3025288724509D00CF144
:107F9000010CBCF11F0F0BD85A1E002BEDD013465D
:107FA000ECE7064A02EBC30252688A42EFD100E0D6
:107FB00000205DF804FB00BF283500202834002095
:107FC00010B40B4A13680B4C04EBC30CACF8020062
:107FD000CCF80410012104F833100B441360202B5B
:107FE00002D05DF8044B7047134600221A60F8E790
:107FF00028350020283400200021072918D830B463
:1080000002E00131072910D84FEA011C094C34F86D
:108010000CC08445F5D104EB0114A568E4689C42CA
:1080200008BF9542EDD1012000E0002030BC704730
:10803000002070473035002030B4C3698469C1889E
:108040004FEA132C1B06C4F30C028A4218D28A1A78
:108050002244A2F500529A184CF100010A4C236800
:108060005D1C256003F00703B0F814C007481C012D
:1080700000EB031320F804C09A60D96030BC70474D
:108080008A1A2244E7E700BFB035002030350020CF
:10809000C37D9BB1C3780A7802F080020A7003F0B6
:1080A0007F0313430B7002780B7803F07F030B7090
:1080B00043EAC2130B7003789BB97047C3780A7800
:1080C00002F0BF020A709B0103F0400313430B70E0
:1080D000027903F0C0030B7002F03F0213430B70F0
:1080E000E1E700B58378082B14BF002201224B780A
:1080F00003F07F034B7043EAC2134B70B0F806E005
:10810000DAB202F080024A70CEF3861C4CEA020218
:108110004A708B7803F003038B7043EA8E038B70F5
:1081200090F808E0DAB202F0FC028A70CEF3C10CDB
:108130004CEA02028A70CB7803F01F03CB7043EA4B
:108140004E13CB70437ACA7802F0E002CA7003F093
:108150001F031343CB705DF804FB00000023032BC7
:1081600031D810B402E00133032B28D8C3EBC3028B
:10817000164C04EB021292F84820012AF3D1C3EB0B
:10818000C30204EB0212948AC2899442EBD1C3EB7E
:10819000C3020E4C04EB0212D2888A42E3D1C3EB35
:1081A000C30204EB0212B2F8582012B1848AA24230
:1081B000D9D1C3EBC303054800EB031000E0002056
:1081C0005DF8044B70470020704700BFDC3500208D
:1081D000002300E00133032B16D8C3EBC3020B4985
:1081E00001EB021292F84820022AF3D1C3EBC3023A
:1081F00001EB0212918A828A9142EBD1C3EBC30355
:10820000024800EB0310704700207047DC35002067
:1082100008B9042070470820704700B503468C4613
:108220000978C17000214162DCF808100B2904D8DC
:108230009CF80C1029B3012100E0012119700020E5
:10824000987031B1DCF808100731C908013959724A
:1082500018720121D97503F10C0E0CF1100103C93C
:108260008EE80300BCF80E109982DCF81810196231
:108270009CF81C109975DCF82010D9629A625DF8A0
:1082800004FB0021DAE7000000210E4B1B688B4243
:1082900016D9002300E001330B4A02EBC1025268F9
:1082A0009A420BD9084A52F8312002EBC30C12F85B
:1082B00033208242EFD1DCF8040070470131E4E75B
:1082C00000207047B4350020B835002070B58CB060
:1082D00006460D4614462C22002101A81DF0D2FDB1
:1082E0000F238DF80430ADF808609DF80A3065F36F
:1082F00000038DF80A308DF80B4001A801F014FA44
:108300000CB070BD30B58DB005460C462C22002156
:1083100001A81DF0B7FD10238DF8043002958DF8EB
:108320000C4001A801F000FA0DB030BD00B58DB0D1
:1083300010B913F1020F06D1074B186804F05AFB6D
:108340000DB05DF804FB01218DF804100293039237
:1083500001A801F0E9F9EFE7C035002070B5049CF1
:10836000002962D01D468E46D2F800C0516896683A
:10837000D368C4F80CC021616661A361D2F810C053
:108380005169C4F81CC02162002363700278D209CD
:1083900022705AB30423734549D8E17D41B3037871
:1083A00003F07F03E3700023A3709AB143789B012D
:1083B00003F4FE53827843EA9203E3808378DB0080
:1083C00003F01803C27843EA52132372C37803F010
:1083D0001F036372002363622B78032B21D82A7852
:1083E000144B53F82230E362002070BD0123D2E722
:1083F0000178C1F38011E170017801F03F01217132
:1084000042B190F90130002B02DB0423A370CCE7CA
:108410000823FBE70421A1700B447345C5D909204B
:10842000E3E77846FFF748FDD9E70920DDE70920B3
:10843000DBE700BF1C73040070B50C461D460378D3
:108440009BB104263244A26000F10C032360836ACE
:108450006360C36AE36000232374204604F04AFE8D
:1084600010B963691E442E6070BD0126EAE72DE94C
:10847000F0418EB00D4616461C46804600282DD091
:10848000002D2FD0002C31D0636A0233059304F104
:108490000C00E378002B2DD00121A27801AF3B46E0
:1084A000082A14BF0022012204F0F1FB0697CDF840
:1084B0001C80B2B2ADF820200B9515440C95A37822
:1084C0008DF83430237B022B16D00023ADF82830F2
:1084D00005A804F0D4FB0EB0BDE8F0817846FFF7A4
:1084E000EBFCCDE77846FFF7E7FCCBE77846FFF7F4
:1084F000E3FCC9E70221D0E723692BB12369099383
:108500001023ADF82830E3E77846FFF7D5FCF5E710
:108510002DE9F04188B004460D46C37D002B3CD0C8
:10852000082605FB06F8637AAB4238D0257201AB0A
:10853000324602A92046FFF77FFF074648BB4DB9E8
:1085400094F8533033B9A369C3F30C03E3800123D8
:1085500084F85330E37D7BB994F8523063B91DBB86
:10856000E06EB4F84A10A27823468A1A0146FFF753
:108570007EFF012384F8523007992046FFF788FDDB
:10858000E16E3246414401981DF053FC02A804F00C
:10859000D7FD384608B0BDE8F0810C26C1E7B4F835
:1085A0004A60A6EB0806C1E77846FFF785FCD7E7E7
:1085B00070B505460E4609B100230B6095F8504092
:1085C000002104E0631C85F850300134E4B26B7A7A
:1085D000A34210D3EA6C0123A3401A42F5D12146ED
:1085E0002846FFF795FF014628B9002EEAD03368E8
:1085F00001333360E6E7084670BDF0B589B0044644
:108600000E46154683789A18C37D63B10B239A42B0
:1086100021D801AB02A92046FFF70EFF074620B183
:10862000384609B0F0BD0F23F1E707992046FFF760
:108630002FFDE37D43B12A46314601981DF0F9FB39
:1086400002A804F07DFDEBE723462A460199304657
:10865000FFF70DFFF4E70927E2E7000010B5044635
:1086600090F84830012B0CD103F098FB237B012BB1
:108670000BD0094BD968014404F1300003F05AFBD8
:1086800010BD7846FFF718FCEEE7A27D024BD968D3
:108690001B6903FB0211EEE7C435002030B583B03F
:1086A000002403E02846FFF7D9FF0134032C18D833
:1086B000C4EBC4030C4A02EB031393F84830012BBC
:1086C000F3D100230193C4EBC40502EB051501A906
:1086D0002846FFF76DFF0428E4D0019B002BE4D06F
:1086E000E0E703B030BD00BFDC35002038B50446FC
:1086F00090F84830022B09D1064B1D6803F04EFB61
:10870000411904F1300003F015FB38BD7846FFF73E
:10871000D3FBF1E7C435002038B5044690F8483063
:10872000022B10D10A4B5A7D5D689B6803FB0255F2
:1087300003F034FB411904F1500003F0FBFA01236C
:1087400084F8683038BD7846FFF7B6FBEAE700BF2B
:10875000C435002010B50446808A02F067FE012867
:108760001CD1237BE3B194F91620002A1ADBE27DA9
:108770004AB1022B18D094F90330002B16DBA378F2
:10878000B3B900200BE0E2780AB9012B12D12378AB
:1087900093B9A378042B11D1002000E0102010BD64
:1087A0001020FCE70720FAE71020F8E70720F6E79B
:1087B0000720F4E70720F2E70020F0E70720EEE7C4
:1087C00038B5044603784BB1C388C2698169808A91
:1087D00006F036FE054645B9284638BDC2698169AE
:1087E000808A06F027FE0546F5E7E169002201F0E0
:1087F0000101A08AFFF76AFDEEE700002DE9F047CE
:1088000080460E4617464B1EDBB2012B0FD8B7F53C
:10881000C07F10D80024032C1AD8C4EBC403314AFB
:1088200002EB031393F848304BB10134F3E7784679
:10883000FFF742FBEBE77846FFF73EFBEAE7C4EBC6
:10884000C40502EB0515384609F065FAE86600E054
:1088500000255DB3EB6E002B42D043462C4608F159
:10886000300ED3F800C058689968DA68C4F800C0C0
:108870006060A160E260103310347345F1D10023D1
:10888000EB64A5F84A70012E13D06FF00103AB62C0
:10889000002385F86830144BAB652D66134BAB6332
:1088A0002D64012002F048FA85F848602846BDE8AA
:1088B000F0870F4B1B7D85F85130002385F852302F
:1088C00085F8533085F85030D8F828206A65A5F827
:1088D00058306FF00103AB62064BAB632D64E0E7E9
:1088E0001D46E3E7DC35002037930200498C020087
:1088F000C4350020958C020000B585B000228DF8AB
:108900000F20A0B10B46024602320A600DF10F01A2
:10891000184604F0B8F99DF80F3043B10C4B1B68B2
:1089200013F0040F03D00B4B1B68032B04DC9DF8E2
:108930000F0005B05DF804FB074BD3F80435074A78
:10894000009240F215420649042005F029FAEEE7AC
:10895000382E0020342E002000100140D471040075
:10896000C77104002DE9F04391B005460E46144648
:108970001F46D0F8188003784BB1C388C8F30C02A7
:108980009A4230D29B1A4344A3F50053AB6105F1E0
:108990000C00EB7853B30121AA780DF130094B4656
:1089A000082A14BF0022012204F071F9C5F81880CA
:1089B000CDF810900596AB78E21A92B2ADF8182077
:1089C00032440A9209978DF82C300023ADF82030FC
:1089D000EB78002B41D02B7B022B09D000236B625C
:1089E0000193029316E09B1A4344CFE70221D3E799
:1089F0001023ADF820302B690793EFE710AB03EBA2
:108A0000840454F83C3C6B62002011B0BDE8F08354
:108A1000019BB3B102AB01AA2979286A10F0A2FC2C
:108A20000024012CF4D810AB03EB840353F83C0C66
:108A30000028EDD003A9FFF75FFF0028DED1013445
:108A4000EFE72B7B022B2CD105F10C01E88910F00C
:108A500043FD0028BFD10520D7E72B7B012B01D098
:108A60000520D2E7EB89ADF80430AB8AADF80630CB
:108A70000024012C13D82946002341F8243F10ABD1
:108A800003EB440333F83C0C10F091FC03A9686A33
:108A9000FFF732FF08B90134EBE70020B5E7052006
:108AA000B3E70520B1E7000070B5F0B00E461446FC
:108AB0001D4610AB0A4601462046FFF753FF50B152
:108AC000224B1B6813F0040F03D0214B1B68052BAE
:108AD0002FDC70B070BD2046FFF772FE0028F8D181
:108AE00003AB01228DF80C20A28AADF80E200022E3
:108AF00004928DF8142010AA0692A178711AADF88C
:108B00001C1008AA93E8030082E803000AAB04F1F2
:108B10000C0292E8030083E80300A37D8DF838304F
:108B2000236A0C93636A0D930F9505A800F0FCFD72
:108B3000CFE7084BD3F80435074A009240F203729E
:108B40000649062005F02CF9C3E700BF382E0020A7
:108B5000342E002000100140E8710400C7710400A9
:108B600010B50446C06E09F0DAF804F1300003F0E5
:108B7000C9F894F84830022B08D070220021204612
:108B80001DF080F9002002F0D7F810BD04F150006C
:108B900003F0B8F8F1E710B58CB0044690F848300F
:108BA000012B0FD101238DF80430636D029303F084
:108BB000F5F8039001A800F0B7FD2046FFF7D0FFBD
:108BC0000CB010BD7846FFF777F9EBE730B585B00C
:108BD0000D460446A8B194F84830022B15D029461A
:108BE000606DFFF78FFB2046FFF7BAFF114B1B6844
:108BF00013F0040F03D0104B1B68032B09DC05B0E6
:108C000030BD7846FFF758F9E5E72046FFF714FA3C
:108C1000E5E70A4BD3F8043594F848200295019211
:108C2000074A009240F2F3120649042005F0B8F812
:108C3000E5E700BF382E0020342E00200010014050
:108C400014720400C771040008B508460021FFF73C
:108C5000BDFF08BD08B5037B012B02D0FFF79BFFCA
:108C600008BD0121FFF7B2FFFAE7000008B590F850
:108C7000513053B1013B80F85130002380F850301F
:108C8000034B186803F0B6FE08BDFFF7E3FFFBE7F0
:108C9000C035002010B50C4691F84830012B03D1A7
:108CA0002046FFF7E3FF10BD7846FFF705F9F7E729
:108CB00070B5C6B00E46154682782A44C37D2BB1E6
:108CC0004FF48073934278D3002303E04FF4C073D2
:108CD000F8E70133032B14D8C3EBC30C394C04EB76
:108CE0000C1C9CF848100129F3D1BCF81440818A6F
:108CF0008C42EED1BCF80E40C1898C42E9D10825E6
:108D000054E00121FFF77AFD0446002857D02A4697
:108D10003146C06E1DF08DF80023459345A92046CD
:108D2000FFF746FC054608B1042842D1459B8BB9A4
:108D3000254B1B6813F0040F37D0244B1B68032B03
:108D400033DDB4F84AC0BCF1800F28BF4FF0800C6F
:108D5000002313E02046FFF781FCE9E7E26ED25CD6
:108D60001B490D68100959002E5C04A800F8136017
:108D700002F00F020131AA5C425401336345EDD386
:108D800004AA002302F81C3003F1804303F5883362
:108D9000D3F8043502920F4A01920F4A00924FF421
:108DA000AC620E49042004F0FBFF0025284646B0C3
:108DB00070BD2046FFF7D4FEF8E70925F6E7042545
:108DC000F4E700BFDC350020382E0020342E0020D0
:108DD0003C2E00203872040000700400C7710400AB
:108DE00070B504460D461646FFF7B4FC30B923783B
:108DF0002BB1324629462046FFF75AFF70BD324656
:108E000029462046FFF7F9FBF8E7000038B504468D
:108E10000D46CB695B780371CB691B7883F0010346
:108E2000C370CB6943628B8A0B2B07D8CB7A002B9C
:108E300035D10B7B012B02D0002300E001232370EE
:108E4000002B31D0287B02282BD0FFF7E1F9A0704E
:108E5000AB8A03440B33174A82FB03235B10013BAD
:108E60006372002323720023E37504F10C0395E879
:108E7000030083E80300AB6923622B89A382AB7AEA
:108E8000A3752B6AA362DF23E362284610F052FB2E
:108E900020B12B78012B0AD0FF23E36238BD0123D8
:108EA000CDE7054B987DD0E70423A370DBE72023B3
:108EB000F3E700BFABAAAA2AC4350020062979D15E
:108EC000F0B585B0154690F800C04FEA8C1202F458
:108ED000FE5241788478C3781B0443EA0463047922
:108EE00043EA042344791C434FFA8CF642EA910189
:108EF0002846FFF733F90746E0B1002E2FDBC28981
:108F0000A98A8A422BD02C4B1B6813F0040F30D057
:108F10002A4B1B68012B2CDD294BD3F80435029119
:108F20000192284A009240F27D622749022004F013
:108F300037FF1EE0204B1B6813F0040F19D01F4BA6
:108F40001B68012B15DD1E4BD3F804351F4A009218
:108F500040F279621C49022004F022FF09E0002E51
:108F600009DBFD6C2543FD644CB903213846FFF74E
:108F70002DFE05B0F0BDAB8AA7F85830F1E73B787D
:108F800083B17B7A5A1C01239340013B9D420DD053
:108F9000002187F850103846FFF70AFB3846FFF7E4
:108FA0005DFBE6E77846FEF787FFEAE73846FFF71E
:108FB000F2FDDEE7704700BF382E0020342E00207F
:108FC0000010014078720400C77104004872040068
:108FD0002DE9F0438BB007460E4614461D46104659
:108FE000FFF7EEFB50B994F80380B8F1000F08D1F9
:108FF0002B46224631463846FFF760FF0BB0BDE8EE
:10900000F0834046FFF740F981460028F6D08DF8FE
:109010000480236A0793A38AADF8123005AB04F1EC
:109020000C0292E8030083E80300A37D8DF8203052
:109030000297039623788DF81030E36A0993294646
:1090400001A8C847DAE792F801C01CF0010F08D068
:1090500010B5D47D14B1FFF7BBFF10BDFFF724FDA1
:10906000FBE7704708B501390130FFF7ECFF08BD99
:1090700010B54FF4E072002113481CF003FF06F016
:10908000ABF90024114B1C608022214610481CF0D3
:10909000F9FE104B104A1A60104A5A604CF25032D6
:1090A0009A600F49D9601A6104221A759C750822CA
:1090B0005A750C4803F07EFC0B4B18600B4B1C6080
:1090C0000B4806F087FC10BDDC350020B0350020D1
:1090D00030350020C435002080969800F049020009
:1090E00020A1070029930200C0350020B4350020DC
:1090F0002D83020008B506F08FF908BD98B110B5B0
:109100008CB00446036983B1C36983B1836983B1B9
:1091100001466846FFF77AFEA28A21696846FFF792
:109120005FFE0CB010BD0E2070470E20F9E70E2038
:10913000F7E70E20F5E7000058B310B590B00A46E7
:10914000044643683BB383693BB3014604A8FFF779
:1091500064F8134B1B6813F0040F03D0114B1B680A
:10916000062B06DCA268616804A8FFF739FE10B080
:1091700010BD0D4BD3F804352278A16902910192FC
:109180000A4A009240F605020949072004F008FE49
:10919000E8E70E2070470E20E9E70E20E7E700BF62
:1091A000382E0020342E002000100140BC72040034
:1091B000C7710400037B012B01D00020704730B53C
:1091C00091B004460D463F4B1B6813F0040F03D0CB
:1091D0003D4B1B68032B5ADC04A800230493059322
:1091E000CDF81730B4F806E09DF8101001F08001BA
:1091F0008DF81010CEF3861C4CEA01018DF810108A
:109200009DF8112002F003028DF8112042EA8E022F
:109210008DF811202A0E8DF812202A0C8DF81320BB
:109220002A0A8DF814208DF815506278022A0CBF96
:10923000012119469DF8102002F07F028DF81020C0
:1092400042EAC1128DF810204FF0060209924FF049
:1092500001028DF82C20A28AADF82E200C938DF8F7
:109260001C300890226A0D928DF82830E36A0F9323
:1092700019D0E389ADF82A30A37DF3B98DF83830E1
:109280006FF0010107A8FFF757FF11B030BD0F4B7A
:10929000D3F804350E4A009240F263220D490420AF
:1092A00004F07EFD98E70DF10E0103A810F030F9EF
:1092B000BDF80C30ADF82A30DEE7074B5B7D8DF84A
:1092C0003830DDE7382E0020342E00200010014019
:1092D000E8720400C7710400C435002090F84830DB
:1092E000022B00D0704710B5044690F86830022B6E
:1092F00000D010BDC16CFFF75DFF0028F9D100233D
:1093000084F86830F5E7000010B5002407E0C4EBEE
:10931000C402130103481844FFF7E0FF0134032C93
:10932000F5D910BDDC35002008B5FFF7B7F9FFF718
:10933000EBFF012008BD10B50C4691F84830022B18
:1093400006D1022384F868302046FFF7C7FF10BD1E
:109350007846FEF7B1FDF4E7F0B583B00446C06986
:10936000A369E188060A0006C3F30C0291422FD9D3
:109370008A1A1A44A2F50052851846F100062A46B8
:109380003346A08AFEF738FE002840F08980204648
:10939000FEF71EFF074630B3C269D0F818C0C38875
:1093A000100A1206CCF30C01994214D2591A6144E6
:1093B000A1F50051521840F10003AA4273EB0601D7
:1093C0000DD3954276EB030330D3384603B0F0BD9E
:1093D000891ACA18D0E75B1A03EB0C01EAE70521EA
:1093E0003846FFF7F3FBE388E269A169A08A06F03B
:1093F000F9F8E8B9627A0132E37DA3B3082101FBF1
:1094000002F293B34FF48073934231D3022120468A
:10941000FFF7F4F907460028D7D100212046FFF7CF
:10942000C9FE02210020FEF76DFFCEE70027CCE742
:10943000E388E269A169A08A06F04CF908B900271F
:10944000C3E723785BB1637A013301219940013985
:109450002046FFF7AFFE2046FFF7B2F9EFE7784668
:10946000FEF72AFDEFE70C21C9E74FF4C073CBE705
:109470000C4B1B6813F0040F03D00B4B1B68002B25
:1094800001DC0027A1E7094BD3F804350192084A13
:10949000009240F27F320749012004F081FCF0E79E
:1094A000002792E7382E0020342E002000100140C3
:1094B000F8720400C77104002DE9F04182B007463C
:1094C0000E46144698461046FFF746FF002846D041
:1094D0000546404B1B6813F0040F03D03E4B1B683E
:1094E000032B3FDC2846FFF701F92B7B012B47D0EC
:1094F000EB6C217A01228A40134230D11343EB6492
:10950000043E237AE27D002A42D04FF0080C0CFB87
:1095100003FC697A8B423ED0002A41D00823B34233
:1095200040D1AA69A3699A4209D205F10C0E0C3404
:109530000FCCAEE80F0094E803008EE80300E86E5D
:109540003246391D60441CF074FCEC6C2B7873B30C
:109550006B7A5A1C01239340013B9C422BD002B0F2
:10956000BDE8F0811D4BD3F80435227A01921C4AE4
:10957000009240F2A3321B49042004F011FCB1E731
:1095800095F86830002BB3D12846FFF7C5F8AFE750
:109590004FF00C0CBBE70CEB0603A5F84A30C0E714
:1095A0000C23BCE704212846FFF710FBD7E77846D9
:1095B000FEF782FCCCE7E96C2846FFF7FBFD43464B
:1095C0002A46B5F84A10E86EFFF73DFD2846FFF73A
:1095D000C7FAC4E7382E0020342E002000100140C6
:1095E0000C730400C77104002DE9F04190B000280D
:1095F0004CD00F4614461E468046002A48D004AB85
:1096000000933346FEF7AAFE054618B1284610B06F
:10961000BDE8F08104A8FFF79DF805460028F5D1C4
:1096200000230293039302A960880FF055FF28B12D
:109630009DF8113043F001038DF811302269E16883
:10964000208905F087FF38B19DF8113003F0FE0343
:109650008DF81130002BD9D09DF81130002BD5D0CA
:1096600013F0010F01D0039B08939DF8103033B124
:10967000334604AA39464046FFF71EFFC6E7334685
:1096800004AA39464046FFF7EDFCBFE70E25BDE7CB
:109690000E25BBE7F8B508B30E460546164B1F6806
:1096A000F7B93C46B4420FD205EBC4035B68D3B1B3
:1096B00015F8340015F93430002B16DBB8B1FEF77D
:1096C000E3FDB0B90134EDE70C4B43F8375003EB41
:1096D000C7035E607B1C084A136002E00E2700E0AF
:1096E00004273846F8BD0E27FBE70B27F9E70F27BD
:1096F000F7E70F27F5E700BFB4350020B8350020A5
:10970000084B196861B110B501E021463CB10C6805
:109710000B79002BF9D0034804F0ACFAF5E710BD43
:10972000704700BFA037002038B5054630B1104B58
:109730001C68C4B10F4B01221A7004E07846FEF792
:10974000BBFBF4E724683CB12379002BFAD154F831
:10975000043C28469847F5E7064B1B78022B03D0BC
:10976000044B00221A7038BDFFF7CAFFF8E700BFAC
:10977000A03700209C37002010B5044630B10023EC
:109780002372211D034804F04AFA10BD7846FEF703
:1097900093FBF4E7A037002010B5044658B10A4BFC
:1097A0001B78013BDBB2012B09D8074B02221A7050
:1097B0000123237210BD7846FEF77EFBEFE7211DE3
:1097C000024804F057FAF5E79C370020A037002044
:1097D0000A8883689B5A07339BB223F00303134420
:1097E0009BB20288043A934200D900230B80704751
:1097F00010B582B004468368C91AADF806100DF1A1
:109800000601FFF7E5FFBDF80630A068184402B076
:1098100010BD0088043880B2704743888268D01831
:10982000D152012383707047826800239370438074
:109830008380704708B5073189B221F0030189B2EE
:10984000428883889A4204D29B1A994220DC0020E5
:1098500008BD9A4212D9B0F800C0ACEB020C6145C9
:1098600018D98B4218D3BCF1030F03D98368134472
:1098700004229A70002343801846E9E78268134463
:109880009B780BB10420E3E7FFF7CEFF0020DFE772
:109890000420DDE70020DBE70420D9E738B50446E3
:1098A0000D468368828813448B4202D07846FEF7C7
:1098B00003FB0023AB70211D2046FFF789FFA28820
:1098C000A36813449B78042B00D038BD0023A380E9
:1098D000FBE710B50C468368428813448B4202D0E4
:1098E0007846FEF7E9FA0023A37010BD70B505466F
:1098F00014460E46002944D0002D46D0B6F1005F34
:1099000008D94FF08053D3F80C3103F50023B6EBA0
:10991000832F0ED3B6F5000F08D94FF08053D3F83C
:109920000C3103F50053B6EB832F02D37846FEF7D4
:10993000C3FA631E3344B3F1005F08D94FF080527D
:10994000D2F80C2102F50022B3EB822F0ED3B3F52F
:10995000000F08D94FF08052D2F80C2102F50052C6
:10996000B3EB822F02D37846FEF7A6FA042C10D967
:109970002C8000236B80AB80AE60043C3480B370DD
:1099800070BD7846FEF798FAB6E77846FEF794FA87
:10999000B4E77846FEF790FAEAE738B50446A0B196
:1099A0006288A36813449B78012B12D0EFF31085D3
:1099B00072B6A388A16819448B78032B0DD020467A
:1099C000FFF732FF05B962B638BD7846FEF774FA84
:1099D000E6E77846FEF770FAE8E72046FFF708FF6B
:1099E000A368C31A638000238370EBE72DE9F0417D
:1099F0000E4614460546D0B1EEB16A88AB681344F2
:109A00009B78012B1BD024B32846FFF702FFA0420E
:109A100021D3EFF3108872B621462846FFF70AFFDC
:109A2000074680B1B8F1000F16D162B614E078464F
:109A3000FEF742FAE0E77846FEF73EFADDE77846C1
:109A4000FEF73AFADFE721462846FFF7E6FE3060E8
:109A5000E8E7092700E009273846BDE8F081F8B5B6
:109A60000C4615460646E0B1FCB1A378012B20D187
:109A70002388AB4221D325B3EFF3108772B625803C
:109A80000223A370F1183046FFF7A2FE7388B28854
:109A9000934203D0B268134400229A7007B962B6A9
:109AA000F8BD7846FEF708FADEE77846FEF704FAD6
:109AB000DBE77846FEF700FADAE77846FEF7FCF9CE
:109AC000D9E77846FEF7F8F9D6E770B50C460546B3
:109AD00090B1ACB1EFF3108672B6AA88AB681344AC
:109AE0009A78042A10D09A78022A15D0032A18D01E
:109AF000052006B962B670BD7846FEF7DDF9E8E7E5
:109B00007846FEF7D9F9E5E7291D2846FFF760FEFC
:109B1000AA88AB681344E6E703229A70236000200A
:109B2000E7E77846FEF7C8F90020E2E738B50446D3
:109B300080B1EFF3108572B6A088A16801448B78DC
:109B4000042B0BD08878022814BF0020012005B90F
:109B500062B638BD7846FEF7AFF9EAE72046FFF770
:109B600047FE0146EEE738B5054630B1EFF3108405
:109B700072B6A888A968014407E07846FEF79CF908
:109B8000F4E72846FFF734FE01468878C31EDBB2AF
:109B9000012BF6D9022814BF0020012004B962B6B7
:109BA00038BD70B50C46064678B194B1EFF3108518
:109BB00072B6A378012B10D0032B13D12146304667
:109BC000FFF76CFE05B962B670BD7846FEF774F912
:109BD000EBE77846FEF770F9E8E721463046FFF7F5
:109BE00078FEEFE77846FEF767F9EBE710B5EFF39D
:109BF000108472B68388816819448B78042B06D050
:109C00008878B0FA80F0400904B962B610BDFFF759
:109C1000EFFD0146F4E70000024B00221A769A603D
:109C200002207047A437002008B5064B9868002230
:109C30001A605A609A60DA601A615A619A6105F096
:109C400077F808BDA437002000B585B00A4BDB6863
:109C500002228DF8002001934FF480530293074AAB
:109C60006946012001F0F8FA18B9012005B05DF845
:109C700004FB0020FAE700BFA4370020C237002011
:109C800000B585B00A4B1B6802228DF800200193B5
:109C90004FF480530293074A6946012001F0DCFA31
:109CA00018B9012005B05DF804FB0020FAE700BFF9
:109CB000C4370020C2370020164BDA681379517977
:109CC0005B1A03F57F2303F6FF7302EB03339A421B
:109CD00005D002F580520F4BDA600320704700B5C3
:109CE00085B00D4B1B6801208DF8000001930B4BD4
:109CF0000393042302930A4A694601F0ADFA18B1AE
:109D0000002005B05DF804FB024B01221A76022008
:109D1000F7E700BFA4370020C4370020C837002071
:109D2000C237002000B585B00C4BDA680C4B1B68BD
:109D3000043301208DF800000192039340F6FC7378
:109D40000293084A694601F087FA28B90120034BBB
:109D5000187605B05DF804FB0020FAE7A437002070
:109D6000C4370020C237002000B585B00A4B1B68FD
:109D700001208DF800000193084B03930423029304
:109D8000074A694601F068FA18B9012005B05DF884
:109D900004FB0020FAE700BFC4370020B0370020E2
:109DA000C237002010B584B0104BDA681478104B1D
:109DB0001B68043301208DF8000001930392029484
:109DC0000C4A694601F048FA70B9094B1B6804F067
:109DD000FC041C440434054B5C61D9680A780A44CD
:109DE0001A61012004B010BD0020FBE7A437002059
:109DF000C4370020C237002008B500230A2B09D839
:109E0000064A52F82320824201D00133F6E7044A81
:109E1000536002E07846FEF74FF808BD98730400DF
:109E2000A437002010B5214BDB6853B11F4B1B7EBC
:109E30005BB91E4B5B680A2B26D97846FEF73CF8C7
:109E400022E07846FEF738F8F0E77846FEF734F877
:109E5000EFE7164A5368013353600A2B21D978463D
:109E6000FEF72AF81DE0114B00225A6019E00F4B53
:109E70001B7E1BB10D4B02221A7012E0FFF7D4FEBD
:109E80000FE00A4B1B7E83B9084B5A68084B53F806
:109E90002230984704460228E9D00328E3D001285D
:109EA000D7D0012CEDD0032CEBD010BDA43700206F
:109EB00098730400104B1B681B685A1E12F1030FA5
:109EC00018D8C3F30B020AB10020704710B50B4A33
:109ED000D3600023137653760124147093600848EE
:109EE000FFF78AFF0749204601F0A4F9FFF79AFF20
:109EF000204610BD00207047C4370020A437002042
:109F0000499C0200099F020008B50B78032B06D07C
:109F10000B4B1B78012B06D0022B0BD008BD084B36
:109F200000221A76F4E7064B1B7E002BF6D1FFF7D2
:109F300079FFF3E70B78032BF0D1FFF775FEEDE720
:109F4000A437002000B585B0174BDB6818784FF6B2
:109F5000FF7203F58051184405F0F2FCE0B10246AF
:109F6000114BD9680B780B44984217D00E4B5B7E8F
:109F700083B10E4B01208DF800000192039304235E
:109F800002930B4A694601F067F948B90120064B74
:109F9000187606E0074BEDE7012002E0012000E023
:109FA000002005B05DF804FBA4370020BC75040058
:109FB000C2370020B875040008B5104BDB6818786C
:109FC000002203F58051184405F0BAFC08B10120C5
:109FD00008BD0A4BDA68137951795B1A03F57F23C0
:109FE00003F6FF7302EB03339A4205D002F5805269
:109FF000024BDA600320EBE70220E9E7A4370020F8
:10A00000F0B585B0514BDE6872793379591E8A42BA
:10A0100014D006F580510D780D444D490968081D8E
:10A020000F7907449B1A06EB03366B88013B9BB202
:10A0300047F6FE62934260D92C461AE00120434B5A
:10A0400058767EE07846FDF737FF15E024F47F640C
:10A0500024F00F0404F5805423781C44A6421CD934
:10A06000A5421CD26388013B9BB247F6FE62934235
:10A0700011D92388002BE5D0238804EB830323F434
:10A080007F6222F00F029342E0D06288B2F5FE4F69
:10A09000DCD01C46E2E725462FE000252DE0002518
:10A0A0002BE07846FDF708FF15E024F47F6424F0E8
:10A0B0000F0404F5805423781C44A6421CD9A54201
:10A0C00037D26388013B9BB247F6FE62934211D9B7
:10A0D0002388002BE5D0238804EB830323F47F62DD
:10A0E00022F00F029342E0D06288B2F5FE4FDCD03E
:10A0F0001C46E2E7254600E00025E5B1144B19684F
:10A100006A8801F58051384605F01AFC074690B17F
:10A1100001200E4B18768DF8000001950D4B03932E
:10A12000042302930C4A694601F096F858B92C466C
:10A13000CEE70025E1E7B5FA85F56D09034B5D76BD
:10A14000012005B0F0BD0020FBE700BFA4370020D0
:10A15000C4370020B4750400C23700202DE9F04157
:10A1600086B0654B1B6923B1634B5B692BB100273C
:10A1700048E07846FDF7A0FEF6E77846FDF79CFE3E
:10A18000F5E7A04618E07846FDF796FE18E028F4BB
:10A190007F6828F00F0808F5805898F80030984438
:10A1A000454520D944454AD2B8F80230013B9BB21C
:10A1B00047F6FE62934214D9B8F80030002BE2D083
:10A1C000B8F8003008EB830323F47F6222F00F021B
:10A1D0009342DCD0B8F80220B2F5FE4FD7D09846B3
:10A1E000DEE7444600E000243CBB00230093019BD3
:10A1F000002B5CD10127002C78D0628847F6FF73D2
:10A200009A4273D0002F75D13B4B5A6922F47F6676
:10A2100026F00F06B61A06F580561C69DD682B7904
:10A220006A799B1A05EB0335002301936388013B90
:10A230009BB247F6FE629342A3D800940EE000243E
:10A24000D2E77846FDF738FE23E024F47F6424F05B
:10A250000F0404F58054237823441C46A542C6D934
:10A260002388019A02EB83029642C0D9009B634087
:10A2700023F47F6323F00F03002BB8D16388013BE5
:10A280009BB247F6FE618B42B1D801922388002B26
:10A29000D7D0238804EB830323F47F6222F00F02DC
:10A2A0009342D2D06288B2F5FE4FD6D1CDE7124AA2
:10A2B000526901208DF808000392009A05920493D8
:10A2C0000E4A02A900F0C8FF70B90B49019B23F0A8
:10A2D00003024B6913444B6114B1074B1C618AE7BD
:10A2E0007846FDF7E9FDF8E7002000E0012006B020
:10A2F000BDE8F0810120FAE7A4370020C237002032
:10A3000000B585B00023294A1370D3F8F83FB3F1A4
:10A31000FF3F09D0B3F1FF3F0DD08BB1B3F1FF3F49
:10A3200039D0A3F5805211E04FF010225269B2F1FA
:10A33000FF3FEFD104E04FF010225269002AEDD127
:10A340004FF080535A691B6903FB02F2A2F5805259
:10A35000174B1A60174B1B6813F4801F16D0164B4F
:10A360001B68062B12DD154BD3F804350021D1F8FC
:10A37000F81FB1F1FF3F14D002920191104A0092F0
:10A3800040F276220F49072003F00AFDFFF792FD05
:10A3900005B05DF804FB4FF010235A69A2F5805216
:10A3A000D4E74FF010214969E6E700BFC03700202D
:10A3B000C4370020382E0020342E00200010014029
:10A3C000647304004B73040010B50446B0B1104B25
:10A3D0001B78BBB10E4BD968E3685879A3EB003208
:10A3E000914211D31A79121A02F57F2202F6FF72F6
:10A3F00003EB0233994209D8012004E07846FDF7C7
:10A400005BFDE4E7002010BD0020FCE70020FAE738
:10A41000A4370020024B1878003818BF012070477D
:10A42000A437002010B50446124B1B78BBB9237823
:10A43000032B18D10F4B9C60E268DA600E4B1B783F
:10A44000ABB10A220B4B5A6000221A760120187019
:10A450005A760A4900F0EEFEFFF7E4FC10BD78469C
:10A46000FDF72AFDE3E77846FDF726FDE2E7002247
:10A47000E8E700BFA4370020C0370020099F020092
:10A48000014B1868704700BFC437002010B5044660
:10A4900080B163681BB123680BB1A36813B9784618
:10A4A000FDF70AFDA3685A1E134207D10023E3609B
:10A4B000236110BD7846FDF7FFFCEAE77846FDF71B
:10A4C000FBFCF3E770B508B30E4604468368FBB1A6
:10A4D000EFF3108572B60369C268934212D0016827
:10A4E0004268806800F1FF3C03EA0C0303FB0211A1
:10A4F00016B130461BF09DFC2369013323614DB931
:10A5000062B608E005B962B6052504E00E2502E052
:10A51000092500E00025284670BD00000246C0F372
:10A520000B0030BB39B301F6FF714FEA113C134BFE
:10A530000221C3F80415114BD3F80034002BFAD0D4
:10A5400001460AE00D4BC3F808250C4BD3F8003444
:10A55000002BFAD002F5805201316145F2D3074B4E
:10A560000022C3F80425054BD3F80034002BFAD0A1
:10A570007047102070470920704700BF00E001407D
:10A58000844610F0030F2DD111F0030F2CD16AB3C4
:10A5900012F0030F2CD19008164B0122C3F80425AA
:10A5A000144BD3F80034002BFAD003E00CF1040C68
:10A5B00004311046421E58B10B68B3F1FF3FF5D08D
:10A5C000CCF800300B4BD3F80034002BFAD0EDE779
:10A5D000084B0022C3F80425064BD3F80034002BA7
:10A5E000FAD070471020704710207047092070473C
:10A5F0000920704700E00140094B1B7813F0040F5D
:10A6000002D00378122B00D07047064B1A68064B15
:10A610005A60034B1A786FF382021A70F4E700BF96
:10A620007038002060380020FC37002010B582B060
:10A6300001900C46BDF80630012B11D123680A4960
:10A640000B600A4B1A7842F001021A70D3B25B0811
:10A6500083F0010303F001030B71002002B010BD71
:10A660007846FDF729FCE9E76038002070380020C3
:10A6700010B582B001900C46BDF80630022B0FD108
:10A680002268094B1A6022791A710020587198715A
:10A69000D871064A137843F00203137002B010BD5C
:10A6A0007846FDF709FCEBE75838002070380020A9
:10A6B00010B582B001900C46BDF80630032B06D1D0
:10A6C000054B186820601B79237102B010BD7846D5
:10A6D000FDF7F2FBF4E700BF6038002010B582B050
:10A6E00001900C46BDF80630032B0CD1084B2068B6
:10A6F000186022791A71074A137843F00103137026
:10A70000002002B010BD7846FDF7D6FBEEE700BF93
:10A71000603800207038002010B582B001900C46DF
:10A72000BDF80630042B05D1044B03CB20606160DB
:10A7300002B010BD7846FDF7BFFBF5E758380020A2
:10A7400010B582B001900C46BDF80630042B0BD139
:10A75000074B2068616803C3064A137843F002037D
:10A760001370002002B010BD7846FDF7A5FBEFE79F
:10A77000583800207038002000B583B00190BDF833
:10A780000630032B06D1054B00221A601A7103B064
:10A790005DF804FB7846FDF78FFBF4E76038002096
:10A7A00000B583B00190BDF80630042B06D1054BEF
:10A7B00000221A605A6003B05DF804FB7846FDF78A
:10A7C0007BFBF4E75838002000B585B01A4B1B78A6
:10A7D00013F0400F13D0184B1B7813F0040F0BD15C
:10A7E000002301938DF80830144B5B6803F5005388
:10A7F0000193B3F1807F06D905B05DF804FB78467C
:10A80000FDF75AFBE7E70E4B1B788DF808300A4A34
:10A81000137843F0040313700023ADF80C300323C6
:10A82000ADF80E3001A9039806F06CFA0028E3D0C9
:10A830007846FDF741FBDFE770380020FC37002049
:10A840007138002000B585B00022019202920F4BB2
:10A85000996801911B7B8DF808300D490B78013305
:10A86000DBB20B708DF80B30ADF80C200423ADF883
:10A870000E300DEB0301039806F044FA10B905B051
:10A880005DF804FB7846FDF717FBF8E7FC3700207E
:10A890007138002000B585B00023019302930F4A60
:10A8A00091680191117B8DF80810128AADF809208A
:10A8B0000B4A12788DF80B20ADF80C300423ADF85C
:10A8C0000E300DEB0301039806F01CFA10B905B029
:10A8D0005DF804FB7846FDF7EFFAF8E7FC37002057
:10A8E0007138002000B58DB00B4B1B7B012B0ED0B7
:10A8F000094A926804928DF80830039002238DF87B
:10A90000043001A8FEF710FF0DB05DF804FB024A09
:10A910009268013A0492EEE7FC37002008B51D4822
:10A920001D4B036000F036FF1C4B1B7813F0200F0B
:10A930002AD103F00303032B14D1194B1968194AC8
:10A94000916019791173B3F805001082DB79164A0A
:10A950001370164A1279934217D0B1B9114B0022E5
:10A960001A6007E00F4B00221A609A601A731A826D
:10A97000FFF768FF0B4B1A685A60084A137843F0D8
:10A9800040031370FFF720FF08BD084B1A68054B02
:10A990001A60EFE74C380020F9A50200703800205B
:10A9A00058380020FC370020713800206038002023
:10A9B00010B582B00024ADF800400123ADF802309C
:10A9C000009806F0D0F9ADF804400223ADF8063047
:10A9D000019806F0C8F902B010BD000008B50020CB
:10A9E00006F0E8F9094A0023136053609360D360CE
:10A9F0001361074A117863F345111170CBB243F02C
:10AA000040031370FFF7E0FE08BD00BFFC370020D5
:10AA10007038002038B50C4D00242C606C60AC60A0
:10AA2000EC602C6101F0BAF9084B5860084A9A6052
:10AA3000084ADA601C615C61074B1A7864F3C30250
:10AA40001A706C6038BD00BFFC370020D83700207A
:10AA5000B5AB0200008793037038002008B50C4B9B
:10AA60001B7813F0100F00D008BD0A480A4B036092
:10AA700000F090FEFFF752FFFFF79AFF074801F042
:10AA800011F9034A137843F010031370ECE700BF89
:10AA900070380020F03700200DAD0200D8370020BC
:10AAA000034B1878800880F0010000F00100704727
:10AAB0007038002010B501F0FFFE174B1B7B1BBB4D
:10AAC000154B9B7B2BBB144B1A8A41F282639A4233
:10AAD00006D8124B1B7813F0080F05D0012300E0B5
:10AAE00001231BB9082410E00023FAE70A4B0122D6
:10AAF0001A7300241C829A6801329A60FFF7A2FE42
:10AB00002046FFF7EFFE00E0082401F01BFF20467F
:10AB100010BD0824F9E700BFFC3700207038002082
:10AB200010B501F0C9FE214B5B7BABB11F4B9B7B8A
:10AB300003BB1E4B1A8A41F282639A4206D81C4B11
:10AB40001B7813F0080F05D0012300E001239BB10F
:10AB5000012302E00023FAE700231C460BB3134B4A
:10AB600000225A731B7B4BB1012B0ED07846FDF7A8
:10AB7000A3F916E00023F0E70023EEE7FFF79AFFC2
:10AB800078B17846FDF798F90BE0084B0020186083
:10AB9000586018731882FFF7A5FEFFF753FEFFF702
:10ABA00013FE01F0CFFE204610BD00BFFC37002091
:10ABB0007038002008B52C4B1B7BDBB1012B2ED04D
:10ABC0007846FDF779F9284A138A01339BB213823C
:10ABD000264AA2FB03121209C2EB0212A3EB4203A4
:10ABE0009BB2002B3DD0204B5B8A13B1013B1E4A28
:10ABF000538208BD1C4B1A8A41F282639A4206D8DE
:10AC00001B4B1B7813F0080F07D0012300E0012332
:10AC1000002BD8D0FFF784FFE5E70023F8E7124BBD
:10AC20001B8A41F28262934206D8114A127812F0CE
:10AC3000080F14D0012200E00122002AC3D042F202
:10AC4000B012934202D9084B01225A73FFF768FFF2
:10AC50000028C8D1044B5B7B012BB4D1C3E7002291
:10AC6000EBE7FFF717FEBEE7FC37002089888888EE
:10AC70007038002010B5244B1B7B002B35D10446C7
:10AC8000214B5B8A2BBB1AB91F4B9B688B4205D3A8
:10AC9000FAB11D4B9B6801338B421AD21A4B9B6849
:10ACA0002A338B4223D3184B9B7B03BB164B9960F3
:10ACB00000221A605A601A8242F6065159825A736B
:10ACC0001A73FFF7BFFDFFF77FFD2046FFF70AFE6F
:10ACD0000DE062B10C4B9B6801338B4207D10A4BEC
:10ACE00001225A73FFF71CFF01E0012B00D010BDB9
:10ACF000002AFCD1044B9B688B42F8D1024B012205
:10AD00005A73FFF70DFFF2E7FC3700200378042B9E
:10AD100000D0704743681B78002BFAD010B58468C8
:10AD2000027E437E012A14BF00220122416904F100
:10AD30001000FFF79FFF10BD08B538B10D4B012281
:10AD40009A730D4A13680133136008BD0A4B1B68E0
:10AD50005BB1094A1368013B1360002BF5D1054B29
:10AD600000229A73FFF7DCFEEFE77846FDF7A4F8C0
:10AD7000EFE700BFFC370020CC37002000B58DB0D6
:10AD8000ADF808008DF81020039103238DF80430EE
:10AD900001A8FEF7C9FC0DB05DF804FB014B9868F3
:10ADA000704700BFFC370020054B1B7B012B02D0F6
:10ADB000034B98687047024B98680138704700BF92
:10ADC000FC3700201D4B1B7813F0400F34D070B5BA
:10ADD00004460D461A4B1A685B689A4228D2184BF3
:10ADE0001B7B012B17D0174B9A4216D2144B1A68B3
:10ADF0005B68403B9A4218D2EFF3108672B6104A55
:10AE00001368591C11602B60FFF7CEFF206006B954
:10AE100062B6002070BD0C4BE6E7094B01225A7365
:10AE2000FFF77EFE0028E7D1E0E7FFF7CDFCE3E780
:10AE3000FFF7CAFC0F20EDE70F20704770380020A5
:10AE4000FC370020FFFF7F0000E0FF00044B9B6801
:10AE5000584010F0010F00D0013B1846704700BF6A
:10AE6000FC370020014B187B704700BFFC370020E7
:10AE7000F8B5104B1B7813F0200F01D00820F8BD57
:10AE800017460C4E43F0200333700B4DA860297316
:10AE900000242C82FFF7D6FC2046FFF723FD2F600D
:10AEA0006F60337843F040033370FFF78DFC20462A
:10AEB000E5E700BF70380020FC37002008B500220D
:10AEC000FFF7D6FF08BD00002DE9F041002625E080
:10AED000134604FB03F3244AD25A3046C0472249A2
:10AEE000BC2304FB03F3CA5A0132CA52022128468A
:10AEF00002F008FD01370221284602F0D3FC01468A
:10AF000049B1194BBC2202FB0433D3F80880B8F1D5
:10AF1000000FDDD1E3E797B90136F6B2022E1FD854
:10AF20003446BC2306FB03F308330F4D1D440435A0
:10AF30000221284602F0B6FC01460027E0E7284639
:10AF400002F048FD0828E7D1074BBC2202FB04347D
:10AF5000A368002BE0D00022044930469847DBE785
:10AF60000120BDE8F08100BF7C380020D4730400CC
:10AF700008B5082383731023437300F11C03436156
:10AF80000323037300F1180303610C3002F0F4FC97
:10AF900008BD000008B50378012B06D0022B07D0AE
:10AFA0007846FCF789FF002003E04FF4A97000E029
:10AFB000004808BD645E010008B50378012B07D086
:10AFC000022B13D07846FCF777FF4FF4FA7308E0B2
:10AFD00083685B1A9B084FF4A97000FB03F303F529
:10AFE000FA730748984228BF184608BD83685B1A61
:10AFF0001B0B044800FB03F303F5FA73F1E700BFF2
:10B0000060850100645E010038B5044601210C3002
:10B0100002F048FC054678B1084BC4F89C30002388
:10B02000C4F8A0306168FFF7C7FFC4F8A800C4F8EF
:10B03000AC40012384F8B830284638BD5DB1020029
:10B0400010B50446FFF7E0FF20B104F19C000FF0BB
:10B0500031F800B910BD7846FCF72EFFFAE7000082
:10B06000F8B505460C46164617680378012B19D12A
:10B070001249A1FB0431C9098B00AC68E41BB4EB95
:10B08000810F00D31C468CB1686827F00307E9687C
:10B09000224639443844FFF773FA58B933682344D9
:10B0A0003360F8BD7846FCF707FFE1E77846FCF728
:10B0B00003FFE9E77846FCF7FFFEEFE7EB5DF260A0
:10B0C000F8B506460C46154617680378022B17D1CB
:10B0D000114BA3FB04231B0C1A03B468E41BB4EB51
:10B0E000033F00D314467CB1706827F00307214664
:10B0F0003844FFF713FA58B92B6823442B60F8BD86
:10B100007846FCF7D9FEE3E77846FCF7D5FEEBE797
:10B110007846FCF7D1FEEFE7B77609BB38B50546B0
:10B120000C4611462378012B06D0022B0FD078460F
:10B13000FCF7C2FE002004E0021D2046FFF790FF4E
:10B14000A0686B68834214BF0020012038BD021D37
:10B150002046FFF7B5FFA068F3E700002DE9F843AC
:10B160000F46D1F8A850254B1B786BB90446A5F5BE
:10B17000FA7501F10C080121404602F093FB0646E6
:10B1800048B14FF0000922E00EF0D0FF002387F80D
:10B19000B830BDE8F8837846FCF78EFEF1E70EF094
:10B1A000C5FF0121404602F0ADFB00237B6087F81C
:10B1B000B830134B186801F01DFC3846FFF740FF0C
:10B1C000E7E73046FFF7E6FE4844A8420FD8A5EB74
:10B1D000090231463846FFF7A1FF0028DFD101F010
:10B1E00033FAB0EB0409ECD5A4EB0009E9E70EF063
:10B1F0009DFF3846FFF724FFCBE700BF78380020DB
:10B200007438002010B5084801F0D4FB074B1860D3
:10B21000002406E0064BBC2000FB0430FFF7A8FE2C
:10B220000134022CF6D910BDC9AE020074380020DA
:10B230007C38002038B504460D46022805D805485C
:10B24000BC2303FB0404A56038BD7846FCF734FE3C
:10B25000F5E700BF7C3800202DE9F84305460C4691
:10B260001746022816D8CCB12378012B1AD0022B0E
:10B270003ED16368C3F30B03002B31D1A368C3F342
:10B280000B03002B30D1A368002B34D17846FCF798
:10B2900013FE30E07846FCF70FFEE4E77846FCF753
:10B2A0000BFEE1E7636813F0030F0DD1E36813F0C1
:10B2B000030F0DD1A36813F0030F0DD1A368D3B909
:10B2C0007846FCF7F9FD16E07846FCF7F5FDEDE76A
:10B2D0007846FCF7F1FDEDE77846FCF7EDFDEDE78C
:10B2E0007846FCF7E9FDC9E77846FCF7E5FDCAE7D3
:10B2F0007846FCF7E1FDEFF3108872B6BC2605FB3B
:10B3000006F606F108032A4E1E4404360021304694
:10B3100002F0C8FA814678B30021304602F0F2FA12
:10B3200020686168A268E368C9F80000C9F80410E1
:10B33000C9F80820C9F80C302FB11D4BBC2202FB04
:10B3400005335B883B801A4BBC2202FB05335A88CD
:10B3500001325A8093F8B83083B9164B1B7813B179
:10B360000024A1460CE0124BBC2000FB0530FFF787
:10B370004BFE8146002403E0042401E00024A146A2
:10B38000B8F1000F00D162B6B9F1000F09D0BC20AE
:10B3900005FB00F09830064D284404300EF08AFE7C
:10B3A00010B92046BDE8F8837846FCF785FDF8E73C
:10B3B0007C3800207838002038B50446EFF310853B
:10B3C00072B610B9164B1B6873B18CB1144A13686E
:10B3D00001331360124B1B68003B18BF0123114A55
:10B3E000137005B962B638BD7846FCF765FDECE729
:10B3F0000B4B1C68013C1C600CB1EBE70134022CC8
:10B40000E8D8094BBC2202FB043393F8B830002B78
:10B41000F4D1054B02FB0430FFF712FEEEE700BF4C
:10B42000B03A0020783800207C38002018B1830B17
:10B43000024AD05C70470020704700BFE4730400EC
:10B4400012DF704700B583B001F036FF40B10C4BFE
:10B450001B6813F0400F03D00A4B1B68012B02DC62
:10B4600003B05DF804FB084BD3F804350190074A9C
:10B47000009275220649022002F092FCF0E700BF1C
:10B48000382E0020342E00200010014014740400D7
:10B490000774040000B58DB0114B1B78022B06D049
:10B4A0007846FCF709FD01200DB05DF804FBFFF7BD
:10B4B000F7FA18B90B48FEF75FF9F4E70FF074FBE1
:10B4C000074B03221A702C22002101A81AF0DAFC83
:10B4D0001D238DF8043001A8FEF726F9E3E700BF2D
:10B4E000B83A0020282E00200B4B1B78042B00D0EC
:10B4F000704700B58DB0084B05221A702C22002130
:10B5000001A81AF0BFFC1C238DF8043001A8FEF737
:10B510000BF90DB05DF804FBB83A002008B50378CC
:10B52000122B00D008BD0448FEF736F9034B18680B
:10B5300001F060FAF6E700BF282E0020B43A0020A0
:10B5400010B58AB00FF074FB70B3044600238DF879
:10B5500010300DF1140C8646BEE80F00ACE80F0069
:10B56000DEF80030CCF80030627D052A04D9237D56
:10B5700003F00F03072B1ED1164B1A688AB104ABD8
:10B580000393237DC3F303038DF80430637D062BFF
:10B590001BD9063B8DF8053004F11D03029301A869
:10B5A000904720460FF022FB0FF05EFB80F0010079
:10B5B000C0B20AB010BD207D04AB063A04F11D01F3
:10B5C00000F00F000EF028F8D6E700238DF80530C4
:10B5D0000293E4E7BC3A002070B582B0314B1B788F
:10B5E000002B54D10446002855D0067A0F2E01D0E6
:10B5F000062E52D106F08EFBE06870B1FCF76EFCAF
:10B600000DF10700FFF71CFF0546002840D19DF80B
:10B610000730012B04D002253AE0FCF76DFCEFE780
:10B62000FCF78EFC00F026FB304601F0E3F8E078F2
:10B6300000F040F900F0D2FE0EF0BEFC1A480FF008
:10B64000AFFB0EF095F90DF0C9FFFFF7DBFD05F03C
:10B650001DFB00F01FFD06F01DFB06F0B9F82046AB
:10B6600001F032FDFDF704FD04F01AFDFCF772FB5A
:10B6700008B1062813D10D4801F09CF90C4B186055
:10B680000C4B00221A60074B01221A7000E00825BB
:10B69000284602B070BD0E25FAE70725F8E70546F3
:10B6A000F6E700BFB83A002041B5020095B40200A9
:10B6B000B43A0020BC3A002010B582B0204B1B7871
:10B6C000012B0DD05AB2002A35D0043BDBB2012B3E
:10B6D00033D80EF0DFFC044628B3204602B010BD7C
:10B6E00001F002FDFDF706FDFCF734FB0446B8B19E
:10B6F000062815D0134B1B6813F4804FEDD0124B66
:10B700001B68012BE9DD114BD3F804350190104A79
:10B7100000924FF4C2720F49022002F041FBDCE7B5
:10B7200001F09EF8D5E7064B02221A700A4B186802
:10B7300001F060F9D1E70824CFE70824CDE700BF86
:10B74000B83A0020382E0020342E0020001001408E
:10B750004074040007740400B43A002008B5094B93
:10B760001B78032B01D0082008BD064B04221A7059
:10B7700005480EF043FC0028F6D07846FCF79CFB09
:10B780000020F1E7B83A0020E9B4020008B5FDF75F
:10B79000B5FC08BD08B5FDF7EFFF08BD08B5FDF71E
:10B7A000FBFF08BD08B500F0DFFD002008BD08B5AF
:10B7B00007F02AFF08BD0000074A13680133136031
:10B7C000B3F1704F02D0044B186870471346002243
:10B7D0001A6001221A60F6E7C03A002010B504464C
:10B7E00018B100232360636010BD7846FCF764FB4A
:10B7F000F7E738B50C46054668B184B100236360AD
:10B80000EFF3108372B62A686AB16A6854606C609C
:10B8100003B962B638BD7846FCF74EFBEDE77846D3
:10B82000FCF74AFBEAE72C60F1E710B5044658B193
:10B83000EFF3108372B6206808B142682260226874
:10B8400032B103B962B610BD7846FCF735FBEFE7BD
:10B850006260F6E710B5044608B1206810BD78466E
:10B86000FCF72AFBF9E735DF70473CDF70473DDF27
:10B870007047000010B504464FF0FF30FFF7F3FFAC
:10B88000FF210020FFF7F3FF21460020FFF7EDFF27
:10B89000BFF34F8F0549CA6802F4E062044B1343BB
:10B8A000CB60BFF34F8F00BFFDE700BF00ED00E0AE
:10B8B0000400FA05072814D8DFE800F0080C150486
:10B8C000110F0A066420704714207047FA20704751
:10B8D0001E2070474FF4FA707047322070474B209B
:10B8E0007047FA207047962070470000024B586856
:10B8F000103840B2704700BF00ED00E0034600285A
:10B900000FDB5B11084A52F82330424200F01F005F
:10B9100002F01F0258BF504223FA00F000F001006D
:10B92000704700F11F03ECE700E100E046DF7047DD
:10B9300038B504460D464B1EDBB2012B0AD8002356
:10B9400023616361A361E3612046FFF7EFFF4FF0DE
:10B95000010C1AE07846FCF7AFFAF0E7CA5CC818A9
:10B960005200D2B2CA54407842EAD012CA540133CB
:10B970009BB20E2BF2D9CB7B5B00CB73BEF1000FD9
:10B980000ADB0CF1010C5FFA8CFCAC450BD82146AC
:10B9900011F920EF0023ECE794F82F3083F08703B0
:10B9A00084F82F30EDE738BD2DE9F04190B08446A2
:10B9B0000C4696461F4602F10F084FEA281604ADC2
:10B9C0000068DCF80410DCF80820DCF80C300FC547
:10B9D0000EF00F055FEA181302D07DB1002300E0DE
:10B9E0000023984663B1012104A8FFF7A1FFB8F135
:10B9F000000F1BD0701E000110230FE00123F0E7A1
:10BA00000221F1E7013B9BB22218D25C03F1400115
:10BA1000694411F8101C4A400DF80320002BF1D1A5
:10BA200000250C950D950E950F9535E0711EADB264
:10BA30002A4604EB011168461AF0FBF980230DF841
:10BA400005306B1C03E000220DF8032001330F2B9F
:10BA5000F9DD10230BE0013B9BB21DF8032003F13D
:10BA60004001694411F8101C4A400DF80320002BD6
:10BA7000F1D1D5E7013A92B202F140036B4413F8D9
:10BA8000100C63189B5C584008AB9854002AF1D105
:10BA900004A8FFF74BFF0135731EAB4202DD2901FD
:10BAA0001022F3E710230CE0013B9BB203F14002AC
:10BAB0000DEB020111F8402C11F8101C4A4008A9A6
:10BAC000CA54002BF0D104A8FFF730FF0CAC0FCC08
:10BAD00038607960BA60FB6010B0BDE8F0810000AA
