:020000022000DC
:1070000000F003206D7302005573020057730200F5
:10701000597302005B7302005D7302000000000000
:107020000000000000000000000000005F7302008C
:1070300061730200000000006373020065730200C8
:1070400067730200677302006773020067730200D0
:10705000677302006773020089E803006773020028
:10706000677302006773020035BC03006773020098
:1070700067730200677302006773020067730200A0
:1070800067730200216204006DE80200677302006A
:1070900085620400677302007DF3030067730200DA
:1070A0006773020067730200677302006773020070
:1070B0006773020067730200000000000000000018
:1070C0006773020067730200677302006773020050
:1070D0006773020067730200677302006773020040
:1070E000677302006773020067730200000000000C
:1070F00000000000677302000000000067730200D8
:10710000000000000000000000000000000000007F
:10711000000000000000000000000000000000006F
:10712000000000000000000000000000000000005F
:10713000000000000000000000000000000000004F
:10714000000000000000000000000000000000003F
:10715000000000000000000000000000000000002F
:10716000000000000000000000000000000000001F
:10717000000000000000000000000000000000000F
:1071800000000000000000000000000000000000FF
:1071900000000000000000000000000000000000EF
:1071A00000000000000000000000000000000000DF
:1071B00000000000000000000000000000000000CF
:1071C00000000000000000000000000000000000BF
:1071D00000000000000000000000000000000000AF
:1071E000000000000000000000000000000000009F
:1071F000000000000000000000000000000000008F
:10720000344935480A1A02D0072291438D46334942
:1072100033480A1A06D00722914381F309880222D3
:1072200082F314882F483049304A00F042F8304841
:107230003049314A00F03DF830483149314A00F0D8
:1072400038F831483149324A00F033F83148324990
:10725000324A00F02EF832483249334A00F029F819
:1072600032483349334A00F024F833483349002286
:1072700000F02AF832483349002200F025F832485D
:107280003249091A082902DB0022026041601F48C6
:107290001F49884205D00268043003B4904703BCFC
:1072A000F7E700208646EC4600200021284A904758
:1072B000FEE7884207D0521A05D0037801300B70E0
:1072C0000131013AF9D17047884202D00270013091
:1072D000FAE7704700F0032000E8032000F00320E5
:1072E00000F0032008900400002E0020B02E0020A3
:1072F000A0730200A07302008A67040008900400D3
:10730000002E0020002E00205C6B04005C6B04004B
:107310005C6B04005C6B04005C6B04005C6B040041
:107320005C6B04005C6B040008900400B8900400DF
:10733000B02E0020B02E0020B02E0020EC6E0020D9
:10734000EC6E0020EC6E0020EC6E0020EC72002051
:10735000D5890200FEE7FEE7FEE7FEE7FEE7FEE76F
:10736000FEE7FEE7FEE7FEE700F002B8FFF7FCBF2E
:1073700008484FF00701884385460748804707487B
:10738000016841F470010160BFF34F8FBFF36F8F4D
:10739000FFF736BF00F00320B9F7030088ED00E0E7
:1073A00041DF70470C4B1B6813F4804F03D00B4B2D
:1073B0001B68012B00DC704700B583B0084BD3F885
:1073C00004350190074A0092B2220749022008F0D2
:1073D00053FB03B05DF804FB482E0020442E002030
:1073E00000100140986B04008F6B04002DE9F04100
:1073F000C6B014461D461688578892F80480364B4E
:107400001B6813F4804F03D0344B1B68032B1ADC2A
:10741000314B1B6813F4804F03D0304B1B68032B98
:107420001FDC2D4B1B6813F4804F52D02B4B1B6875
:10743000032B4EDDA5F1050CBCF1800F28BF4FF0EA
:10744000800C00232EE0264BD3F804354A880192A5
:10745000244A009240F2D1122349042008F00CFB88
:10746000D6E71F4BD3F80435CDF80C800297019670
:107470001E4A00924FF4E9721B49042008F0FCFAFE
:10748000CFE7E21851791A4A15680A09580015F829
:1074900002E005AA02F813E001F00F010130695C77
:1074A000115401336345ECD305AA002302F81C30C4
:1074B00003F1804303F58833D3F8043502920D4A73
:1074C00001920D4A009240F2D7120749042008F0B9
:1074D000D3FA46B0BDE8F081482E0020442E0020AB
:1074E00000100140B86B04008F6B0400E46B0400D3
:1074F0004C2E0020086C0400186C040070B584B099
:1075000016461D4614883F4B1B6813F4804F03D06A
:107510003D4B1B68032B18DC3A4B1B6813F4804F60
:1075200003D0394B1B68032B1DDC022D53D9354B7F
:107530001B6813F4804F03D0334B1B68032B20DCF4
:10754000023DC5F34F05002429E0304BD3F8043544
:107550004A8801922E4A00924FF4D9722D49042094
:1075600008F08AFAD8E7294BD3F80435029501943C
:10757000294A009240F2B3122649042008F07CFA0E
:10758000D3E7224BD3F80435244A009240F2B712D5
:107590002049042008F070FAD2E70134A4B2AC42CA
:1075A00022D2184B1B6813F4804FF6D0164B1B6881
:1075B000032BF2DD154BD3F8043506EB4402528859
:1075C00002920192164A009240F2BB121149042025
:1075D00008F052FAE1E70B4B1B6813F4804F03D01D
:1075E000094B1B68032B01DC04B070BD074BD3F8BB
:1075F00004350C4A009240F2C1120649042008F0FA
:107600003BFAF1E7482E0020442E002000100140F4
:10761000206C04008F6B0400506C0400686C040044
:10762000806C04008C6C040030B5C7B015461C4655
:10763000294A126812F4804F03D0284B1B68032B91
:107640000EDC254A126812F4804F42D0234B1B688F
:10765000032B3EDD802C28BF8024A646002321E09A
:107660001F4BD3F804354A882988029101921D4A9C
:10767000009240F2A3121C49042008F0FDF9E0E753
:10768000EA189178194A14680A095800A25C0DF1A9
:10769000140C0CF8132001F00F010130625C0CF89F
:1076A000002001337345EBD305AA002302F81E30F6
:1076B00003F1804303F58833D3F8043502920C4A72
:1076C00001920C4A00924FF4D3720749042008F04B
:1076D000D3F947B030BD00BF482E0020442E002013
:1076E000001001409C6C04008F6B04004C2E0020A5
:1076F000D86C0400186C040030B5C7B015461C46A1
:10770000294A126812F4804F03D0284B1B68032BC0
:107710000EDC254A126812F4804F42D0234B1B68BE
:10772000032B3EDD802C28BF8024A646002321E0C9
:107730001F4BD3F804354A882988029101921D4ACB
:10774000009240F295121C49042008F095F9E0E7F8
:10775000EA189178194A14680A095800A25C0DF1D8
:10776000140C0CF8132001F00F010130625C0CF8CE
:10777000002001337345EBD305AA002302F81E3025
:1077800003F1804303F58833D3F8043502920C4AA1
:1077900001920C4A00924FF4CC720749042008F081
:1077A0006BF947B030BD00BF482E0020442E0020AA
:1077B00000100140EC6C04008F6B04004C2E002084
:1077C000D86C0400186C0400F0B587B00F4616465C
:1077D0001D46002411E0234BD3F804357A88318804
:1077E00002910192204A00924FF49E721F49042098
:1077F00008F042F90CE00134A4B2AC422FD21C4B89
:10780000186810F4804F03D01A4B1B68032BE2DC7E
:107810001748006810F4804FEDD0164B1B68032BFF
:10782000E9DD104BD3F8043504EB840206EB420289
:107830005188908892F806C092F807E0127A059273
:10784000CDF810E0CDF80CC0029001910A4A0092E8
:107850004FF4A0720549042008F00EF9CBE707B0F9
:10786000F0BD00BF00100140286D04008F6B0400C4
:10787000482E0020442E0020546D040010B5D6B0D0
:10788000B823ADF85631441C914B1B6813F4804F5C
:1078900003D0904B1B68032B0EDC601E082800F2FF
:1078A000C782DFE810F016004C006C008C00670106
:1078B000270247026702A502874BD3F804350194DB
:1078C000864A009240F207228549042008F0D4F845
:1078D000E3E77F4B1B6813F4804F03D07D4B1B689D
:1078E000032B20DC7F4B1878C0EBC00000217E4BBF
:1078F00003EBC0001EF045F9112800F2D782DFE843
:1079000010F0AC02D502D502D5029E02D502D502F6
:10791000BD029E02D502D502D502D502D502D502FE
:10792000D502D5029E026C4BD3F804356F4A009203
:1079300040F20D226A49042008F09EF8D2E7644B19
:107940001B6813F4804F03D0624B1B68032B0ADCC7
:10795000644B1878C0EBC0004221634B03EBC000BE
:107960001EF00FF9C8E75C4BD3F804355F4A00926C
:1079700040F213225A49042008F07EF8E8E7544BFD
:107980001B6813F4804F03D0524B1B68032B0ADC97
:10799000544B1878C0EBC0004221534B03EBC0009E
:1079A0001EF01EF9A8E74C4BD3F80435504A00925C
:1079B00040F219224A49042008F05EF8E8E70DF584
:1079C000AB724C49422001F082FA0346002838D0BD
:1079D000072280F8A620002180F8A710D0F88000A8
:1079E00001220270D3F88400027083F8A820D3F833
:1079F00088201170D3F88C20312111704022ADF80D
:107A0000542155AA45A9184601F0A5FABDF85431EC
:107A1000002B4ED12E4B1B6813F4804F00F01D82BB
:107A20002C4B1B68032B40F318822B4BD3F80435E7
:107A3000314A009240F241222949042008F01CF802
:107A40000BE2BDF85621B82A19D9214B1B6813F453
:107A5000804F00F002821F4B1B68032B40F3FD8117
:107A60001D4BD3F804350292B8220192234A0092AA
:107A700040F226221A49042007F0FEFFEDE1144BE4
:107A80001B6813F4804F00F0E881124B1B68032B36
:107A900040F3E381104BD3F8043542220292019265
:107AA000174A009240F22D220D49042007F0E4FF0E
:107AB000D3E1074A126812F4804F4ED0054A12688B
:107AC000032A4ADD802B28BF80239C4600232DE01B
:107AD000482E0020442E002000100140886D040034
:107AE0008F6B0400682F00206C2F00209C6D040019
:107AF000AC6D0400B02E0020346E0400C86D04008C
:107B0000086E040003F5AC726A4412F8442CA949CB
:107B10000C681009590014F800E004A800F813E0FC
:107B200002F00F020131A25C425401336345E9D3F4
:107B300004AA002302F81C3003F1804303F58833C4
:107B4000D3F8043502929C4A01929C4A009240F27A
:107B500045229B49042007F08FFF9A4B1878C0EB11
:107B6000C000BDF8542145A9974B03EBC0001DF0A0
:107B700045FFC1E60DF5AB729449422001F0A7F92B
:107B80000346002836D0002180F8A61080F8A71000
:107B9000D0F8800001220270D3F88400027083F8CC
:107BA000A820D3F888000270D3F88C2011704022EE
:107BB000ADF8542155AA45A9184601F0CCF9BDF8F5
:107BC0005431002B4ED1824B1B6813F4804F00F0D0
:107BD0004481804B1B68032B40F33F817E4BD3F8DD
:107BE00004357E4A00924FF41C727549042007F058
:107BF00043FF32E1BDF85621B82A19D9744B1B68EE
:107C000013F4804F00F02981724B1B68032B40F363
:107C10002481714BD3F804350292B8220192704A44
:107C2000009240F253226649042007F025FF14E138
:107C3000674B1B6813F4804F00F00F81654B1B6886
:107C4000032B40F30A81644BD3F80435422202929D
:107C50000192644A009240F25A225949042007F0E6
:107C60000BFFFAE05A4A126812F4804F34D0594A96
:107C70001268032A30DD802B28BF80239C46002316
:107C800013E003F5AC726A4412F8442C49490C68BD
:107C90001009590014F800E004A800F813E002F0FD
:107CA0000F020131A25C425401336345E9D304AAB7
:107CB000002302F81C3003F1804303F58833D3F826
:107CC000043502923C4A01923C4A00924FF41D72E4
:107CD0003B49042007F0D0FE3A4B1878C0EBC000B7
:107CE0000323BDF8542145A9374C04EBC0001DF017
:107CF000F3FE01E6364B1B6813F4804F03D0354B7F
:107D00001B68032B0ADC2F4B1878C0EBC000422104
:107D10002D4B03EBC0001DF090FFEDE52E4BD3F88B
:107D20000435314A009240F27D222549042007F0B3
:107D3000A3FEE8E7264B1B6813F4804F03D0254BC6
:107D40001B68032B0ADC1F4B1878C0EBC000002116
:107D50001D4B03EBC0001DF0E0FECDE51E4BD3F83C
:107D60000435224A00924FF421721549042007F08D
:107D700083FEE8E7164B1B6813F4804F03D0154BC6
:107D80001B68032B0ADC0F4B1878C0EBC0004221A4
:107D90000D4B03EBC0001DF0C0FEADE50E4BD3F85C
:107DA0000435124A009240F28A220549042007F065
:107DB00063FEE8E74C2E0020546E0400186C0400AB
:107DC0008F6B0400682F00206C2F0020B02E002045
:107DD000482E0020442E002000100140346E040084
:107DE000C86D0400086E04006C6E0400886E040008
:107DF000324B1A780132D2B21A70012A00D900220D
:107E00002E4B1A702E4B1B6813F4804F25D02D4B30
:107E10001B68032B21DD2C4BD3F8043501922B4A30
:107E2000009240F291222A49042007F025FE14E036
:107E3000284A40F29521032017F0BAFD0DE0204BAF
:107E40001B6813F4804F03D01E4B1B68032B06DC0A
:107E5000062232210F2001F01FFB56B010BD1A4B35
:107E6000D3F80435154A127801921B4A009240F269
:107E7000A1221749042007F0FFFDE9E7104B1B681A
:107E800013F4804FE9D00F4B1B68032BE5DD0E4B3D
:107E9000D3F80435094A12780192104A009240F250
:107EA000B2220B49042007F0E7FDD6E70028D4D022
:107EB000084A40F2B62117F07BFDCEE7682F00207C
:107EC000482E0020442E0020001001409C6E04002B
:107ED0008F6B04005C6B0400C06E0400D86E04005D
:107EE00010B582B0A0F13104082C0AD90E4B1B68E2
:107EF00013F4804F03D00D4B1B68032B08DC02B03A
:107F000010BD2046FFF7BAFCB4F1FF3FF7D1EDE713
:107F1000074BD3F80435074A009240F2C6220649BF
:107F2000042007F0A9FDEAE7482E0020442E002097
:107F300000100140F07204008F6B040000B583B0A4
:107F4000012A1ED0022A35D03AB1244ACD2103207D
:107F500017F02EFD03B05DF804FB214B1B6813F4F2
:107F6000804FF7D01F4B1B68032BF3DD1E4BD3F85C
:107F700004351E4A0092C0221D49042007F07CFDF2
:107F8000E8E7062232210F2001F086FA144B1B6825
:107F900013F4804FDED0134B1B68032BDADD124B3A
:107FA000D3F80435134A0092C5221149042007F082
:107FB00063FDCFE70A4B1B6813F4804FCAD0094B0F
:107FC0001B68032BC6DD084BD3F804350A4A009220
:107FD000C9220749042007F04FFDBBE75C6B040092
:107FE000482E0020442E002000100140046F0400A1
:107FF0008F6B0400246F0400446F040000B58DB043
:108000002422002103A81EF05BFB01238DF80C3015
:1080100007238DF80F3006238DF814301D4B07937E
:108020001D4B0B931D4903A80BF08AFD60B30B2871
:1080300029D11B4B1B6813F4804F03D0194B1B68CD
:10804000032B14DC164B1B6813F4804F1CD0154B0C
:108050001B68032B18DD144BD3F80435134A009228
:1080600040F2EA221249042007F006FD0CE00E4B14
:10807000D3F804350F4A009240F2E9220C4904205B
:1080800007F0FAFCDEE710B90DB05DF804FB17F05D
:1080900081FCF9E72988020055810200DC2F0020CD
:1080A000482E0020442E002000100140B86F04002C
:1080B0008F6B0400686F040000B583B01D4A042173
:1080C0004FF4C04007F0BCFC1B4B1B6813F4804FFF
:1080D00003D01A4B1B68032B13DC1EF0D7F8E0B952
:1080E00001F01CFA164801F04DFAE0B901F008FC65
:1080F00001F044FC01F072FCFFF780FF03B05DF873
:1081000004FB104BD3F804350F4A009240F2F622DC
:108110000E49042007F0B0FCDFE70D4A40F2F921D8
:1081200017F046FCDCE70A4A40F2FD2117F040FC5C
:10813000DCE700BF15FA0200482E0020442E002084
:108140007D78020000100140F46F04008F6B040082
:108150005C6B040010B582B0002406E01C4A40F2BB
:10816000D52117F025FC1BE00134012C2ED8C4EBDF
:10817000C400184B03EBC000174BC36200234362DB
:1081800080F8283080F82930144B03EB8413036304
:1081900040238386611C89B21DF0CEFB0028DDD10F
:1081A0000F4B1B6813F4804FDED00E4B1B68032B64
:1081B000DADD0D4BD3F8043501940C4A009240F2FD
:1081C000D6220B49042007F057FCCDE702B010BDC2
:1081D0005C6B04006C2F0020CC720400E02F0020A8
:1081E000482E0020442E0020001001402070040082
:1081F0008F6B0400F0B5F5B015461F46B823ADF8F7
:1082000016311688A34B1B6813F4804F03D0A24B82
:108210001B68032B0FDC9F4B1B6813F4804F45D06A
:108220009D4B1B68032B41DD3846802F28BF8020E3
:108230004FF0000C23E0994BD3F804354A8803969D
:1082400002970192964A009240F2571295490420F3
:1082500007F012FCDFE715F80CE0934B1A684FEAC1
:108260001E134FEA4C04D15C05AB03F81C100EF052
:108270000F0E013412F80E201A550CF1010C844532
:10828000E9D305AA002302F8103003F1804303F577
:108290008833D3F804350292844A0192844A0092CA
:1082A00040F25D127F49042007F0E6FB0DF58B7369
:1082B00046AA3946284600F030FE0446002800F061
:1082C0001881744B1B6813F4804F03D0724B1B68EA
:1082D000032B22DC6F4B1B6813F4804F47D06E4B8F
:1082E0001B68032B43DDB4F8AA70802F28BF8027BA
:1082F0000023BB4226D2D4F88020D25C6A490D68A4
:10830000100959002E5C05A800F8136002F00F0256
:108310000131AA5C42540133EBE7604BD3F80435DA
:1083200090F8A62090F8A71090F8A800039002916A
:108330000192604A00924FF4B3725A49042007F048
:108340009BFBC7E705AA002302F8173003F180431F
:1083500003F58833D3F804350292574A0192544A00
:1083600000924FF4B6724F49042007F085FB494B49
:108370001B6813F4804F32D0474B1B68032B2EDD54
:10838000B4F8AA70802F28BF80270023BB4211D2E7
:10839000D4F88420D25C44490D68100959002E5C41
:1083A00005A800F8136002F00F020131AA5C4254E4
:1083B0000133EBE705AA002302F8173003F18043ED
:1083C00003F58833D3F8043502923C4A0192384AC7
:1083D00000924FF4B8723349042007F04DFB2D4B47
:1083E0001B6813F4804F32D02B4B1B68032B2EDD00
:1083F000B4F8AA70802F28BF80270023BB4211D277
:10840000D4F88820D25C28490D68100959002E5CE8
:1084100005A800F8136002F00F020131AA5C425473
:108420000133EBE705AA002302F8173003F180437C
:1084300003F58833D3F804350292214A01921C4A8D
:1084400000924FF4BA721749042007F015FB114B44
:108450001B6813F4804F4AD00F4B1B68032B46DD7B
:10846000B4F8AA70802F28BF80270023BB4229D2EE
:10847000D4F88C20D25C0C490D68100959002E5C90
:1084800005A800F8136002F00F020131AA5C425403
:108490000133EBE7482E0020442E0020001001405D
:1084A000447004008F6B04004C2E00209470040074
:1084B000186C04009C700400E0700400F870040064
:1084C0000C71040005AA002302F8173003F1804361
:1084D00003F58833D3F8043502921F4A01921F4AEC
:1084E00000924FF4BC721E49042007F0C5FA75B023
:1084F000F0BDBDF81621B82A17D91A4B1B6813F422
:10850000804FF4D0184B1B68032BF0DD174BD3F8CA
:1085100004350292B8220192154A009240F281126B
:108520000F49042007F0A8FAE1E70E4B1B6813F48B
:10853000804FDCD00C4B1B68032BD8DD0B4BD3F8E2
:10854000043501960B4A009240F289120449042036
:1085500007F092FACBE700BF20710400186C04000A
:108560008F6B0400482E0020442E00200010014094
:10857000C86D0400387104002DE9F04782B005464B
:108580000F4691469846DDF828A000268AF800603C
:108590000846344605E007EB090383420DD9013450
:1085A000A4B26EB92B1D0093AB1C6A1C294600F0C7
:1085B00043FC4445EFD10126EDE701238AF8003062
:1085C000304602B0BDE8F0872DE9F041CAB00F4651
:1085D00016461D4600248DF8274123E00134A4B23D
:1085E000BDF81E20422A31D04D2A58D06B4B1B6853
:1085F00013F4804F03D06A4B1B68032B73DC674B6B
:108600001B6813F4804F03D0654B1B68032B77DC8A
:10861000624B1B6813F4804F04D0614B1B68032B23
:1086200000F383809DF82701002840F0B3800DF20D
:108630002713009323462A46314607A8FFF79CFFDD
:108640000028CBD101238DF82731EBE7089B09A93E
:10865000187800F02FFC514B1B6813F4804FCED0DC
:108660004F4B1B68032BCADD4E4BD3F804357A8879
:108670003978DDF820C09CF800C09DF824E0CDF8E2
:1086800014E00490CDF80CC002910192464A009289
:108690004FF48A724549042007F0EEF9AFE7089BD2
:1086A0001A783E4B1B6813F4804FA8D03C4B1B68D4
:1086B000032BA4DD3B4BD3F80435798838787AB1A5
:1086C000DFF804C1CDF810C0039202900191384A3E
:1086D000009240F21D123549042007F0CDF98EE7D3
:1086E000DFF8E8C0EEE72F4BD3F804350192314AAA
:1086F000009240F225122D49042007F0BDF97EE7D3
:10870000284BD3F804359DF81C209DF81D10BDF8AA
:108710001E00039002910192274A009240F2271214
:108720002249042007F0A8F972E79DF81D80B8F1EE
:10873000800F28BF4FF080080020404514D2089BCE
:1087400013F800C01D4B19684FEA1C12430011F8C2
:1087500002E009AA02F810E00CF00F0C013311F846
:108760000C10D1540130E8E709AA002302F81830B0
:1087700003F1804303F58833D3F804350292104A9D
:108780000192104A009240F22D120849042007F08D
:1087900073F947E74AB0BDE8F08100BF482E0020DA
:1087A000442E002000100140887104008F6B0400EB
:1087B000C871040004720400247204004C2E0020CE
:1087C00050720400186C0400747104005C710400A1
:1087D00000B583B00F4B1B6813F4804F03D00E4BD2
:1087E0001B68032B09DC0322C8210F2000F054FE74
:1087F0000BF006FA03B05DF804FB084BD3F8043520
:10880000074A009240F2DF120649042007F034F9CB
:10881000E9E700BF482E0020442E00200010014050
:108820005C7204008F6B040008B50378232B00D022
:1088300008BDFFF7CDFFFBE700B58BB064212848EA
:1088400000F036FD274B1B78E3B101F0EDF900F0A5
:10885000D1FE0BF0C7F9002830D1234B1B6813F46D
:10886000804F03D0214B1B68032B2DDC00210F20F0
:1088700000F0FCFD0222C8210F2000F00DFE0BB01D
:108880005DF804FB03930493059306930793089301
:108890000993174B0493174B0593174B0793174BEB
:1088A0000893174B099303A800F098FC0028CCD03C
:1088B000144A40F21A3117F07BF8C6E7114A40F229
:1088C0001F3117F075F8C8E70F4BD3F804350F4A7E
:1088D000009240F221320E49042007F0CDF8C5E79E
:1088E000E17E0200DC2F0020482E0020442E0020D4
:1088F000398902001589020031890200787204006A
:10890000F87504005C6B040000100140F072040074
:108910008F6B040010B5044600210F2000F0A6FD67
:1089200004EB840462003221032000F0B5FD10BD89
:1089300008B500F0E5FD08BD00B585B01F4B1B680C
:1089400013F4804F03D01E4B1B68032B1DDC01F07A
:1089500015F801F043F803A811F0E4FA174B1B686F
:1089600013F4804F03D0164B1B68032B18DC00F068
:10897000C7FD00210F2000F079FD0422C8210F203F
:1089800000F08AFD05B05DF804FB0E4BD3F804350A
:108990000D4A00929B220D49042007F06DF8D6E79E
:1089A000084BD3F80435BDF80C200192084A009218
:1089B000A7220649042007F05FF8D8E7482E0020D8
:1089C000442E002000100140987204008F6B0400B8
:1089D000B472040008B5FFF76FFBFFF72DFFFEF739
:1089E000DFFCFCE7422805D04D2801D0002070476D
:1089F0000120704701207047422803D04D2801D044
:108A00000020704709B9012070470220704710B557
:108A1000044690F8A710B0F8A400FFF7EDFF02306D
:108A2000B4F8AA301844400080B210BDB0F8AA30A3
:108A3000013393422EDA10B4002308E09A1CD0F8D8
:108A4000944014F803C001F802C001339BB2B0F89F
:108A5000AA209A42F2D8B0F8A4C0013AD2B20B7858
:108A60006FF300030B70DBB262F344030B700CF086
:108A70000702DBB203F01F0343EA42130B70CCF38F
:108A8000C70C81F801C0B0F8AA00023080B25DF8CE
:108A9000044B704700207047B0F8AA30023393426D
:108AA00028DA10B4002308E0DA1CD0F8944014F857
:108AB00003C001F802C001339BB2B0F8AA209A4269
:108AC000F2D8B0F8A4C09AB1D3B2013BDBB20A78B5
:108AD00042F001020A70D2B263F347020A70A1F8B1
:108AE00001C0B0F8AA00033080B25DF8044B7047B3
:108AF0007F23ECE70020704770B504460D46B0F8C0
:108B0000A4300B8090F8A63003F07F038B7090F8B0
:108B1000A72043EAC2138B7090F8A710B0F8A40006
:108B2000FFF76AFF0023032209E0511CD4F880609C
:108B300016F803C005F802C001339BB28AB2834223
:108B4000F3D3002309E0511CD4F8846016F803C065
:108B500005F802C001339BB28AB28342F3D3531C9F
:108B60009BB294F8A810A954002207E0D4F888001A
:108B7000591C805CE854013292B28BB2B4F8AA104E
:108B80009142F3D8002207E0D4F88C00591C805C95
:108B9000E854013292B28BB2B4F8AA109142F3D8E1
:108BA000284670BD102905D8B0F5006F02D20231F9
:108BB00088B27047033188B270472DE9F041804692
:108BC0000D4616461F46FFF70DFF28800021404640
:108BD000FFF712FF044601214046FFF70DFFA042B8
:108BE00038BF204680B230802B8800EB43005830DD
:108BF000400038802B881BB1338823B9002000E067
:108C00000020BDE8F0810120FBE70000F8B5044634
:108C1000A0B30E4615461F46BDF8182000211DF0D2
:108C20004FFDA4F8A460A4F8AA50A4F8AC7029469B
:108C30003046FFF7B7FFA4F8AE00102D04D8B6F504
:108C4000006F1DD30F4B00E00E4BC4F8A03004F1B1
:108C5000B002C4F888205319C4F88C3002EB4503E5
:108C6000C4F8903005EB45031344C4F8943002EB8C
:108C70008502C4F880203A44C4F884202046F8BD18
:108C8000014BE2E7998A02002D8A0200002800F0D9
:108C9000B6802DE9F04F87B08A460646022A40F298
:108CA000B0800988B0F8A400884257D1023A94B243
:108CB0000AF102089AF8025015F0700F68D105F019
:108CC0007F09ED092946FFF797FE0746844240F2E7
:108CD0009A800AF10301431C9BB21A189442C0F215
:108CE000948008EB030B92B29442C0F0908018F885
:108CF00002A0BAF11A0F67D8013292B2B6F8AA30C0
:108D0000D0188442C0F2858008EB020005901A4416
:108D100092B213449C427EDB904486F8A69086F87B
:108D2000A7503A46D6F880001DF0A1FC3A465946B5
:108D3000D6F884001DF09BFC86F8A8A0B6F8AA20FF
:108D40000599D6F888001DF092FCB6F8AA20414695
:108D5000D6F88C001DF08BFC002009E02F4B1B681F
:108D600013F4804F03D02E4B1B68002B03DC0B2029
:108D700007B0BDE8F08F2B4BD3F80435029101907A
:108D8000294A00929C222949012006F075FEEEE74F
:108D9000224B1B6813F4804F03D0214B1B68002B20
:108DA00001DC0B20E4E71F4BD3F8043505F07F0509
:108DB00000220392029501951D4A0092AF221B49A1
:108DC000012006F059FEECE7144B1B6813F4804FAA
:108DD00003D0134B1B68002B01DC0B20C8E7114BA1
:108DE000D3F804350392CDF808A0CDF804A0114AB9
:108DF0000092D3220D49012006F03EFEEDE70E2041
:108E000070470920B4E70920B2E70920B0E709203C
:108E1000AEE70920ACE70920AAE700BF482E0020F2
:108E2000442E002000100140A07604002D7604009E
:108E3000D8760400287704002DE9F0410D46164647
:108E40001F46DDF81880044628B121B11AB113B1CC
:108E5000B8F1000F02D1784600F0A6FE237813F097
:108E6000010F13D11946C3F34300421C6378DB00A2
:108E700043EA51133B800234C8F8004032700023AB
:108E80002B70D8F800001044BDE8F081207840082D
:108E90007F280DD0431CB4F801203A800334C8F871
:108EA0000040337001222A70D8F800001844EBE724
:108EB0000023F0E738B504460D4621B104F0010364
:108EC0002B70600838BD784600F06EFEF6E7F0B50E
:108ED00085B0054614460F46B9B1B2B1268823467F
:108EE00003AA0DF10E012846FFF767FE88B123881B
:108EF000B34210D80093BDF80C30BDF80E202946BF
:108F00003846FFF783FE05B0F0BD784600F04CFE12
:108F1000E4E70020F7E70020F5E7F8B50C46154632
:108F20001E46074608B102B113B9784600F03CFE70
:108F3000012C0CD9324629463888FFF7C8FF054670
:108F400022463946FFF7A2FE18B92846F8BD00258B
:108F5000FBE70025F9E770B50D461446064608B153
:108F600001B112B9784600F01FFE3046FFF74FFD01
:108F70002388834200D20020208000B970BD29469A
:108F80003046FFF7B9FDF9E769DF704703781F2B1B
:108F900000D07047014B01221A70FAE763300020BD
:108FA0003F4B1B78002B79D000B587B0012804D047
:108FB00003286CD007B05DF804FB0023019301A9DE
:108FC000012016F07BF800284BD100230393049373
:108FD00005939DF80C20012363F303028DF80C2008
:108FE000D2B263F307128DF80C209DF80D2063F3C5
:108FF00001028DF80D201823ADF81630019A03A94F
:109000004120FFF7C1FF78BB01A816F0B1F870BB93
:10901000244B1B6803B198470123029302A90DF169
:10902000020011F0FDFC28BBBDF8020011F06AF946
:109030000DF1010111F0FEFAF8B90CF0BDF89DF840
:10904000011000200CF0B8FBD0B904F0AFF9D8B98A
:10905000134B00221A70134B5B68002BAAD0984761
:10906000A8E716F097FCB0E716F094FCCCE716F0F2
:1090700091FCCDE716F08EFCD6E716F08BFCDCE712
:10908000784600F091FDE0E716F084FCE0E716F08A
:10909000E9F800288ED016F07DFC8BE7704700BF02
:1090A000623000206430002008B5064B01221A709F
:1090B000054804F0E9F904F0CBF900B908BD16F051
:1090C00069FCFBE762300020002E002008B5037821
:1090D0001C2B00D008BD074B1B78002BFAD016F0D4
:1090E00005F918B9044804F0D3F9F3E716F052FC77
:1090F000F8E700BF62300020002E002008B5094BC1
:109100001B7863B90849094817F00CF940B90323E3
:10911000002207494969074817F020F900E00820B4
:1091200008BD00BF6330002080300020EC330020F9
:1091300064300020B832002008B50378023B082BC9
:109140003FD8DFE803F01C05113E3E2C3E3E3600C2
:109150001E4B9B68002B34D0007A002831D01C4A6B
:109160000121117098472CE0184BDB684BB3184A6B
:10917000127832B3164A00211170984721E0154B3E
:109180001B784BB9114B1B691BB1114A002111709F
:109190009847FFF7B3FF14E0FFF786FF11E01022B6
:1091A0000A4B99690C4817F062F950B116F0F2FBBE
:1091B00007E08168C0680AF043FC18B9054B01223A
:1091C0001A7008BD16F0E6FBF8E700BF6430002017
:1091D0006030002061300020B832002010B586B029
:1091E0008446224A03AB07CA03C323F8022B120C9E
:1091F0001A701F4CA646BCE80F00AEE80F009CE8B2
:1092000007008EE80700A369002B2DD0194B0093AF
:1092100003AB194A19491A4817F042F8034610B12E
:10922000184606B010BD174818F0F6FD0146144860
:1092300017F062F803460028F2D1134818F06CFFCB
:1092400003460028ECD1104818F09EFF01460C4858
:1092500017F052F803460028E2D10C4804F014F944
:10926000FFF74CFF0346DBE70723D9E77C770400D1
:10927000643000203991020080300020EC3300205F
:10928000B8320020A0300020683200200C2E0020D0
:1092900008B5064B1B681BB906E0044B1B689847D2
:1092A00013F048FE0028F8DA08BD00BF2C34002077
:1092B00010B50C46134B1860134A012113481DF0DA
:1092C0001FF898B9610CE00341F27073984271F194
:1092D000000310D34FF47A7200231DF089F8014681
:1092E00000220B481DF022F838B910BD094A4A2166
:1092F00016F05EFBE6E70521F2E7064A4B2116F081
:1093000057FBF2E72C34002091920200BC77040056
:10931000303400208877040070B50546002403E04F
:109320000D4A93420ED80134032C14D80B4B1B5D0D
:10933000AB42F8D10A4B1E6804F09CFB331AEFD500
:10934000831BEDE704F096FB054B1860054B1B688B
:1093500020469847E7E770BD801A0600C8770400EA
:109360007C340020783400201F280CD900F01F0026
:10937000064BD3F8043523FA00F010F0010F0CBFB0
:109380000120002070474FF0A043F2E70003005097
:1093900070B505460024264600E00134032C0AD8A7
:1093A0000123A3402B42F8D0044B185DFFF7DCFFEC
:1093B000A0400643F1E7304670BD00BFCC77040003
:1093C00008B511B115F06AF908BD15F057F9FBE7BA
:1093D00070B50546002400E00134032C0FD80123AA
:1093E000A3402B42F8D0064B1E5D3046FFF7BCFF72
:1093F00080F00101C9B23046FFF7E2FFECE770BD33
:10940000CC77040010B5144B1B684BB1134B186894
:10941000FFF7DEFF104B1C68013C1C6024B110BD3F
:10942000002016F0B7FAF1E70D481CF0A1FF00E0AC
:109430000134032CF3D80123A340084A12681342D5
:10944000F6D0084B1968E14001F00101064B185DA8
:10945000FFF7B6FFECE700BF503400205434002083
:109460005834002080340020CC77040070B50546C5
:109470000E46002400E00134032C09D80123A34048
:109480002B42F8D03146034B185DFFF799FFF2E706
:1094900070BD00BFCC77040042B310B50C46134634
:1094A000132900D810BD124A10605B00013B114A1D
:1094B0001360FFF76DFF104B1860610CE40314F5A7
:1094C000FA704FF47A724FF0000341F100011CF082
:1094D0008FFF0146002209481CF028FF0028E1D137
:1094E0000121034B1868FFF7C1FFDBE7704700BF9E
:1094F00054340020503400208034002058340020A0
:1095000008B504481CF034FF0021034B1868FFF72E
:10951000ADFF08BD583400205434002010B582B08F
:1095200015F028F840B10024ADF804408DF806404D
:1095300001238DF8053007E014F0CCFF0028F2D0AD
:1095400016F028FAEFE70134032C09D801A90A4BD9
:10955000185D15F019F80028F5D016F01BFAF2E79F
:10956000064A012106481CF0CBFE08B902B010BD26
:1095700016F010FAFAE700BFCC7704000594020059
:10958000C477040060B310B582B0164A106014F0BE
:10959000F1FF40B1144B1B68ADF804301B0C8DF883
:1095A000063000240CE014F095FF0028F2D016F0ED
:1095B000F1F9EFE701210D4B185D15F0F9F80134D1
:1095C000032C0AD80A4A01A9084B185D15F076F851
:1095D0000028EFD016F0DEF9ECE7002002B010BD55
:1095E0000E20704778340020C0770400C87704004C
:1095F00019930200002800F082802DE9F04FD1B0CD
:1096000004463F4B1B6813F4804F03D03D4B1B684F
:10961000032B31DC3A4B1B6813F4804F03D0394BDA
:109620001B68032B2ADC51B0BDE8F08FE25C3649A1
:109630000D68100959002E5C0FA800F8136002F0A5
:109640000F020131AA5C425401330F2BEED90FAA4D
:1096500000238DF85C3003F1804303F58833D3F8A1
:1096600004350292294A0192294A0092422229494C
:10967000042006F001FACDE70023E6E7264BD3F8F5
:1096800004350D932068020202F47F0242EA006270
:10969000010A01F47F4142EA0108B4F804C04FEA2C
:1096A0000C2292B2B4F806E04FEA0E2189B2257A74
:1096B000667AA77AE37A94F80C9094F80DA094F85F
:1096C0000EB0E47B0B94CDF828B0CDF824A0CDF8F3
:1096D0002090079306970596049541EA1E21039171
:1096E00042EA1C22029248EA106001900B4A009262
:1096F0000D9B43220749042006F0BEF993E770470B
:10970000482E0020442E00204C2E00200878040013
:10971000186C0400F5770400001001401C78040068
:1097200072DF704773DF704774DF70472DE9F047D1
:10973000A2B0074688469146324C002525606560F8
:10974000A560E56030490B78C3EB43102F4E06440B
:1097500026602F4A0244A2601F22A280A281013308
:1097600003F001030B704FF03C0A5246294613A840
:109770001CF0A6FF06238DF84F30ADF8487001238A
:109780008DF84A30ADF85C3012AA1892ADF83C70F2
:10979000ADF84090CDF844800DEB0A021D928DF893
:1097A00078305246294668461CF08AFF02238DF81D
:1097B0000030221D314613A815F072FB90B9114BF1
:1097C00003F10C029968684615F06AFB68B9114A02
:1097D0000C491148FFF7A4FF082809D070B922B03E
:1097E000BDE8F08716F0D6F8E9E716F0D3F8EEE713
:1097F000002204490848FFF793FFEFE716F0CAF884
:10980000EDE700BFC83400208434002088340020F5
:10981000D83400201C2E0020182E0020B0F5202F58
:109820000AD2074BA3FB0023DB0808B103B90123CD
:10983000044A9381916070474FF6FF73F5E700BFCC
:10984000CDCCCCCC1C2E002008B50121054B1878BE
:10985000FFF768FF18B9002004F0F8FC08BD16F007
:1098600099F8F8E7182E002008B5044B1878FFF790
:109870005BFF00B908BD16F08DF8FBE7182E00203D
:1098800076DF70477ADF70477CDF704769DF7047AB
:1098900008B516F07FF808BD08B503F0FDFD08BD5A
:1098A00000B583B0037823B1012B0BD003B05DF872
:1098B00004FB3B214088FFF7E3FF0028F6D016F0B9
:1098C00069F8F3E7094B1B6813F4804FEED0084B9F
:1098D0001B68032BEADD074BD3F80435064A0092D8
:1098E00068220649042006F0C7F8DFE7482E00206A
:1098F000442E0020001001409C7804008178040070
:1099000000B585B015F0AEFC60BB0023039303A93E
:10991000012015F0D3FB40BB002300930193029379
:109920009DF80020012363F303028DF80020D2B2DA
:1099300063F307128DF800209DF8012063F3010204
:109940008DF801201823ADF80A30039A69464120AA
:10995000FFF79CFF60B903A815F00AFC58B905B0E1
:109960005DF804FB16F016F8CFE716F013F8D3E70E
:1099700016F010F8EFE716F00DF8F0E700B585B037
:109980009DF80C30012262F303038DF80C30DBB23A
:1099900062F307138DF80C3018220F4903A8FFF764
:1099A00073FF98B90023019302937823ADF8043034
:1099B000C823ADF806304FF4C873ADF80A3001A8DB
:1099C000FFF760FF28B905B05DF804FB15F0E2FF72
:1099D000E8E715F0DFFFF6E7C878040000B58BB0C4
:1099E00001AA0023019302937821ADF80410C82145
:1099F000ADF806104FF4C871ADF80A100393049344
:109A000005930693079308930993039240F6CD4379
:109A100004934FF48033059303238DF81830074BDC
:109A20000893074B099303A815F008FE10B90BB073
:109A30005DF804FB15F0AEFFF9E700BFA198020046
:109A4000919802000620704700B587B044F20103E8
:109A500098425DD01BD8012836D041F201039842CC
:109A600071D1474B1B6813F4804F36D0454B1B68B0
:109A7000002B32DD444BD3F8043502920191434A66
:109A8000009263224249012005F0F6FF25E044F2EE
:109A90000203984257D13A4B1B6813F4804F1CD0F5
:109AA000384B1B68002B18DD374BD3F80435106892
:109AB0000390526802920191364A00926922344919
:109AC000012005F0D9FF08E02D4B1B6813F4804FEF
:109AD00003D02C4B1B68002B0DDC4FF0A0434FF440
:109AE000F032C3F81825C3F80C25EFF3108372B6D3
:109AF0004DF6AD6C3DE0244BD3F804350292019154
:109B0000254A009260222249012005F0B5FFE4E7D2
:109B10001B4B1B6813F4804FDFD01A4B1B68002BC4
:109B2000DBDD194BD3F804351068049050680390BE
:109B3000029192680192194A0092732214490120FD
:109B400005F09AFFC9E70E4B1B6813F4804FC4D091
:109B50000C4B1B68002BC0DD0B4BD3F80435019177
:109B60000F4A00927B220A49012005F085FFB4E7E5
:109B700030BF0C4B1B78002BFAD107B05DF804FB0B
:109B8000482E0020442E00200010014038790400A7
:109B9000097904005C7904001C7904007C790400D4
:109BA000A0790400342E002000B583B001460023C4
:109BB0000093054B01936A4644F20200FFF744FF0D
:109BC00003B05DF804FB00BFD476040010B4034674
:109BD000044C006859689A68DB680FC45DF8044B50
:109BE000704700BF183500200E4B4FF0805202F135
:109BF000600103C983E8030003F1080CA43292E872
:109C000003008CE8030093F9062002F00F0242F0F3
:109C100040029A7193F9082002F03F0242F080025C
:109C20001A72704718350020004870471835002018
:109C3000002308E0074901EBC30000224280426094
:109C400001F8332001331F2BF4D9034B00221A6093
:109C5000704700BF283500202836002000B5864612
:109C6000114B1B684FF0000C0BE01F230F4A12F83A
:109C70003300B0B102EBC3025288724509D00CF137
:109C8000010CBCF11F0F0BD85A1E002BEDD0134650
:109C9000ECE7064A02EBC30252688A42EFD100E0C9
:109CA00000205DF804FB00BF283600202835002086
:109CB00010B40B4A13680B4C04EBC30CACF8020055
:109CC000CCF80410012104F833100B441360202B4E
:109CD00002D05DF8044B7047134600221A60F8E783
:109CE00028360020283500200021072918D830B454
:109CF00002E00131072910D84FEA011C094C34F861
:109D00000CC08445F5D104EB0114A568E4689C42BD
:109D100008BF9542EDD1012000E0002030BC704723
:109D2000002070473036002030B4C3698469C18890
:109D30004FEA132C1B06C4F30C028A4218D28A1A6B
:109D40002244A2F500529A184CF100010A4C2368F3
:109D50005D1C256003F00703B0F814C007481C0120
:109D600000EB031320F804C09A60D96030BC704740
:109D70008A1A2244E7E700BFB036002030360020C0
:109D8000C37D9BB1C3780A7802F080020A7003F0A9
:109D90007F0313430B7002780B7803F07F030B7083
:109DA00043EAC2130B7003789BB97047C3780A78F3
:109DB00002F0BF020A709B0103F0400313430B70D3
:109DC000027903F0C0030B7002F03F0213430B70E3
:109DD000E1E700B58378082B14BF002201224B78FD
:109DE00003F07F034B7043EAC2134B70B0F806E0F8
:109DF000DAB202F080024A70CEF3861C4CEA02020C
:109E00004A708B7803F003038B7043EA8E038B70E8
:109E100090F808E0DAB202F0FC028A70CEF3C10CCE
:109E20004CEA02028A70CB7803F01F03CB7043EA3E
:109E30004E13CB70437ACA7802F0E002CA7003F086
:109E40001F031343CB705DF804FB00000023032BBA
:109E500031D810B402E00133032B28D8C3EBC3027E
:109E6000164C04EB021292F84820012AF3D1C3EBFE
:109E7000C30204EB0212948AC2899442EBD1C3EB71
:109E8000C3020E4C04EB0212D2888A42E3D1C3EB28
:109E9000C30204EB0212B2F8582012B1848AA24223
:109EA000D9D1C3EBC303054800EB031000E0002049
:109EB0005DF8044B70470020704700BFDC3600207F
:109EC000002300E00133032B16D8C3EBC3020B4978
:109ED00001EB021292F84820022AF3D1C3EBC3022D
:109EE00001EB0212918A828A9142EBD1C3EBC30348
:109EF000024800EB0310704700207047DC3600205A
:109F000008B9042070470820704700B503468C4606
:109F10000978C17000214162DCF808100B2904D8CF
:109F20009CF80C1029B3012100E0012119700020D8
:109F3000987031B1DCF808100731C908013959723D
:109F400018720121D97503F10C0E0CF1100103C92F
:109F50008EE80300BCF80E109982DCF81810196224
:109F60009CF81C109975DCF82010D9629A625DF893
:109F700004FB0021DAE7000000210E4B1B688B4236
:109F800016D9002300E001330B4A02EBC1025268EC
:109F90009A420BD9084A52F8312002EBC30C12F84E
:109FA00033208242EFD1DCF8040070470131E4E74E
:109FB00000207047B4360020B836002070B58CB051
:109FC00006460D4614462C22002101A81CF078FB01
:109FD0000F238DF80430ADF808609DF80A3065F362
:109FE00000038DF80A308DF80B4001A801F014FA37
:109FF0000CB070BD30B58DB005460C462C2200214A
:10A0000001A81CF05DFB10238DF8043002958DF83B
:10A010000C4001A801F000FA0DB030BD00B58DB0C4
:10A0200010B913F1020F06D1074B186804F04EFB6C
:10A030000DB05DF804FB01218DF80410029303922A
:10A0400001A801F0E9F9EFE7C036002070B5049CE3
:10A05000002962D01D468E46D2F800C0516896682D
:10A06000D368C4F80CC021616661A361D2F810C046
:10A070005169C4F81CC02162002363700278D209C0
:10A0800022705AB30423734549D8E17D41B3037864
:10A0900003F07F03E3700023A3709AB143789B0120
:10A0A00003F4FE53827843EA9203E3808378DB0073
:10A0B00003F01803C27843EA52132372C37803F003
:10A0C0001F036372002363622B78032B21D82A7845
:10A0D000144B53F82230E362002070BD0123D2E715
:10A0E0000178C1F38011E170017801F03F01217125
:10A0F00042B190F90130002B02DB0423A370CCE7BE
:10A100000823FBE70421A1700B447345C5D909203E
:10A11000E3E77846FFF748FDD9E70920DDE70920A6
:10A12000DBE700BF307B040070B50C461D460378AA
:10A130009BB104263244A26000F10C032360836AC1
:10A140006360C36AE36000232374204604F03EFE8C
:10A1500010B963691E442E6070BD0126EAE72DE93F
:10A16000F0418EB00D4616461C46804600282DD084
:10A17000002D2FD0002C31D0636A0233059304F1F7
:10A180000C00E378002B2DD00121A27801AF3B46D3
:10A19000082A14BF0022012204F0E5FB0697CDF83F
:10A1A0001C80B2B2ADF820200B9515440C95A37815
:10A1B0008DF83430237B022B16D00023ADF82830E5
:10A1C00005A804F0C8FB0EB0BDE8F0817846FFF7A3
:10A1D000EBFCCDE77846FFF7E7FCCBE77846FFF7E7
:10A1E000E3FCC9E70221D0E723692BB12369099376
:10A1F0001023ADF82830E3E77846FFF7D5FCF5E704
:10A200002DE9F04188B004460D46C37D002B3CD0BB
:10A21000082605FB06F8637AAB4238D0257201ABFD
:10A22000324602A92046FFF77FFF074648BB4DB9DB
:10A2300094F8533033B9A369C3F30C03E3800123CB
:10A2400084F85330E37D7BB994F8523063B91DBB79
:10A25000E06EB4F84A10A27823468A1A0146FFF746
:10A260007EFF012384F8523007992046FFF788FDCE
:10A27000E16E3246414401981CF0F9F902A804F05D
:10A28000CBFD384608B0BDE8F0810C26C1E7B4F834
:10A290004A60A6EB0806C1E77846FFF785FCD7E7DA
:10A2A00070B505460E4609B100230B6095F8504085
:10A2B000002104E0631C85F850300134E4B26B7A6D
:10A2C000A34210D3EA6C0123A3401A42F5D12146E0
:10A2D0002846FFF795FF014628B9002EEAD03368DB
:10A2E00001333360E6E7084670BDF0B589B0044637
:10A2F0000E46154683789A18C37D63B10B239A42A4
:10A3000021D801AB02A92046FFF70EFF074620B176
:10A31000384609B0F0BD0F23F1E707992046FFF753
:10A320002FFDE37D43B12A46314601981CF09FF989
:10A3300002A804F071FDEBE723462A460199304656
:10A34000FFF70DFFF4E70927E2E7000010B5044628
:10A3500090F84830012B0CD103F08CFB237B012BB0
:10A360000BD0094BD968014404F1300003F04EFBD7
:10A3700010BD7846FFF718FCEEE7A27D024BD968C6
:10A380001B6903FB0211EEE7C436002030B583B031
:10A39000002403E02846FFF7D9FF0134032C18D826
:10A3A000C4EBC4030C4A02EB031393F84830012BAF
:10A3B000F3D100230193C4EBC40502EB051501A9F9
:10A3C0002846FFF76DFF0428E4D0019B002BE4D062
:10A3D000E0E703B030BD00BFDC36002038B50446EE
:10A3E00090F84830022B09D1064B1D6803F042FB60
:10A3F000411904F1300003F009FB38BD7846FFF73E
:10A40000D3FBF1E7C436002038B5044690F8483055
:10A41000022B10D10A4B5A7D5D689B6803FB0255E5
:10A4200003F028FB411904F1500003F0EFFA012377
:10A4300084F8683038BD7846FFF7B6FBEAE700BF1E
:10A44000C436002010B50446808A02F069FE012857
:10A450001CD1237BE3B194F91620002A1ADBE27D9C
:10A460004AB1022B18D094F90330002B16DBA378E5
:10A47000B3B900200BE0E2780AB9012B12D123789E
:10A4800093B9A378042B11D1002000E0102010BD57
:10A490001020FCE70720FAE71020F8E70720F6E78E
:10A4A0000720F4E70720F2E70020F0E70720EEE7B7
:10A4B00038B5044603784BB1C388C2698169808A84
:10A4C00006F02AFE054645B9284638BDC2698169AD
:10A4D000808A06F01BFE0546F5E7E169002201F0DF
:10A4E0000101A08AFFF76AFDEEE700002DE9F047C1
:10A4F00080460E4617464B1EDBB2012B0FD8B7F530
:10A50000C07F10D80024032C1AD8C4EBC403314AEE
:10A5100002EB031393F848304BB10134F3E778466C
:10A52000FFF742FBEBE77846FFF73EFBEAE7C4EBB9
:10A53000C40502EB0515384609F059FAE86600E053
:10A5400000255DB3EB6E002B42D043462C4608F14C
:10A55000300ED3F800C058689968DA68C4F800C0B3
:10A560006060A160E260103310347345F1D10023C4
:10A57000EB64A5F84A70012E13D06FF00103AB62B3
:10A58000002385F86830144BAB652D66134BAB6325
:10A590002D64012002F048FA85F848602846BDE89D
:10A5A000F0870F4B1B7D85F85130002385F8523022
:10A5B00085F8533085F85030D8F828206A65A5F81A
:10A5C00058306FF00103AB62064BAB632D64E0E7DC
:10A5D0001D46E3E7DC36002027B0020039A902005F
:10A5E000C436002085A9020000B585B000228DF890
:10A5F0000F20A0B10B46024602320A600DF10F0196
:10A60000184604F0ACF99DF80F3043B10C4B1B68B1
:10A6100013F0040F03D00B4B1B68032B04DC9DF8D5
:10A620000F0005B05DF804FB074BD3F80435074A6B
:10A63000009240F215420649042005F01DFAEEE7AB
:10A64000482E0020442E002000100140E87904002C
:10A65000DB7904002DE9F04391B005460E4614461F
:10A660001F46D0F8188003784BB1C388C8F30C029A
:10A670009A4230D29B1A4344A3F50053AB6105F1D3
:10A680000C00EB7853B30121AA780DF130094B4649
:10A69000082A14BF0022012204F065F9C5F81880C9
:10A6A000CDF810900596AB78E21A92B2ADF818206A
:10A6B00032440A9209978DF82C300023ADF82030EF
:10A6C000EB78002B41D02B7B022B09D000236B624F
:10A6D0000193029316E09B1A4344CFE70221D3E78C
:10A6E0001023ADF820302B690793EFE710AB03EB95
:10A6F000840454F83C3C6B62002011B0BDE8F08348
:10A70000019BB3B102AB01AA2979286A10F096FC2B
:10A710000024012CF4D810AB03EB840353F83C0C59
:10A720000028EDD003A9FFF75FFF0028DED1013438
:10A73000EFE72B7B022B2CD105F10C01E88910F0FF
:10A7400037FD0028BFD10520D7E72B7B012B01D097
:10A750000520D2E7EB89ADF80430AB8AADF80630BE
:10A760000024012C13D82946002341F8243F10ABC4
:10A7700003EB440333F83C0C10F085FC03A9686A32
:10A78000FFF732FF08B90134EBE70020B5E70520F9
:10A79000B3E70520B1E7000070B5F0B00E461446EF
:10A7A0001D4610AB0A4601462046FFF753FF50B145
:10A7B000224B1B6813F0040F03D0214B1B68052BA1
:10A7C0002FDC70B070BD2046FFF772FE0028F8D174
:10A7D00003AB01228DF80C20A28AADF80E200022D6
:10A7E00004928DF8142010AA0692A178711AADF87F
:10A7F0001C1008AA93E8030082E803000AAB04F1E6
:10A800000C0292E8030083E80300A37D8DF8383042
:10A81000236A0C93636A0D930F9505A800F0FCFD65
:10A82000CFE7084BD3F80435074A009240F2037291
:10A830000649062005F020F9C3E700BF482E002096
:10A84000442E002000100140FC790400DB79040054
:10A8500010B50446C06E09F0CEF804F1300003F0E4
:10A86000BDF894F84830022B08D070220021204611
:10A870001BF026FF002002F0D7F810BD04F15000B5
:10A8800003F0ACF8F1E710B58CB0044690F848300E
:10A89000012B0FD101238DF80430636D029303F077
:10A8A000E9F8039001A800F0B7FD2046FFF7D0FFBC
:10A8B0000CB010BD7846FFF777F9EBE730B585B0FF
:10A8C0000D460446A8B194F84830022B15D029460D
:10A8D000606DFFF78FFB2046FFF7BAFF114B1B6837
:10A8E00013F0040F03D0104B1B68032B09DC05B0D9
:10A8F00030BD7846FFF758F9E5E72046FFF714FA30
:10A90000E5E70A4BD3F8043594F848200295019204
:10A91000074A009240F2F3120649042005F0ACF811
:10A92000E5E700BF482E0020442E00200010014023
:10A93000287A0400DB79040008B508460021FFF7F7
:10A94000BDFF08BD08B5037B012B02D0FFF79BFFBD
:10A9500008BD0121FFF7B2FFFAE7000008B590F843
:10A96000513053B1013B80F85130002380F8503012
:10A97000034B186803F0AAFE08BDFFF7E3FFFBE7EF
:10A98000C036002010B50C4691F84830012B03D199
:10A990002046FFF7E3FF10BD7846FFF705F9F7E71C
:10A9A00070B5C6B00E46154682782A44C37D2BB1D9
:10A9B0004FF48073934278D3002303E04FF4C073C5
:10A9C000F8E70133032B14D8C3EBC30C394C04EB69
:10A9D0000C1C9CF848100129F3D1BCF81440818A62
:10A9E0008C42EED1BCF80E40C1898C42E9D10825D9
:10A9F00054E00121FFF77AFD0446002857D02A468B
:10AA00003146C06E1BF033FE0023459345A9204616
:10AA1000FFF746FC054608B1042842D1459B8BB997
:10AA2000254B1B6813F0040F37D0244B1B68032BF6
:10AA300033DDB4F84AC0BCF1800F28BF4FF0800C62
:10AA4000002313E02046FFF781FCE9E7E26ED25CC9
:10AA50001B490D68100959002E5C04A800F813600A
:10AA600002F00F020131AA5C425401336345EDD379
:10AA700004AA002302F81C3003F1804303F5883355
:10AA8000D3F8043502920F4A01920F4A00924FF414
:10AA9000AC620E49042004F0EFFF0025284646B0C2
:10AAA00070BD2046FFF7D4FEF8E70925F6E7042538
:10AAB000F4E700BFDC360020482E0020442E0020A2
:10AAC0004C2E00204C7A0400186C0400DB79040042
:10AAD00070B504460D461646FFF7B4FC30B923782E
:10AAE0002BB1324629462046FFF75AFF70BD324649
:10AAF00029462046FFF7F9FBF8E7000038B5044681
:10AB00000D46CB695B780371CB691B7883F0010339
:10AB1000C370CB6943628B8A0B2B07D8CB7A002B8F
:10AB200035D10B7B012B02D0002300E001232370E1
:10AB3000002B31D0287B02282BD0FFF7E1F9A07041
:10AB4000AB8A03440B33174A82FB03235B10013BA0
:10AB50006372002323720023E37504F10C0395E86C
:10AB6000030083E80300AB6923622B89A382AB7ADD
:10AB7000A3752B6AA362DF23E362284610F046FB2D
:10AB800020B12B78012B0AD0FF23E36238BD0123CB
:10AB9000CDE7054B987DD0E70423A370DBE72023A6
:10ABA000F3E700BFABAAAA2AC4360020062979D150
:10ABB000F0B585B0154690F800C04FEA8C1202F44B
:10ABC000FE5241788478C3781B0443EA0463047915
:10ABD00043EA042344791C434FFA8CF642EA91017C
:10ABE0002846FFF733F90746E0B1002E2FDBC28974
:10ABF000A98A8A422BD02C4B1B6813F0040F30D04B
:10AC00002A4B1B68012B2CDD294BD3F8043502910C
:10AC10000192284A009240F27D622749022004F006
:10AC20002BFF1EE0204B1B6813F0040F19D01F4BA5
:10AC30001B68012B15DD1E4BD3F804351F4A00920B
:10AC400040F279621C49022004F016FF09E0002E50
:10AC500009DBFD6C2543FD644CB903213846FFF741
:10AC60002DFE05B0F0BDAB8AA7F85830F1E73B7870
:10AC700083B17B7A5A1C01239340013B9D420DD046
:10AC8000002187F850103846FFF70AFB3846FFF7D7
:10AC90005DFBE6E77846FEF787FFEAE73846FFF711
:10ACA000F2FDDEE7704700BF482E0020442E002052
:10ACB000001001408C7A0400DB7904005C7A040007
:10ACC0002DE9F0438BB007460E4614461D4610464C
:10ACD000FFF7EEFB50B994F80380B8F1000F08D1EC
:10ACE0002B46224631463846FFF760FF0BB0BDE8E1
:10ACF000F0834046FFF740F981460028F6D08DF8F2
:10AD00000480236A0793A38AADF8123005AB04F1DF
:10AD10000C0292E8030083E80300A37D8DF8203045
:10AD20000297039623788DF81030E36A0993294639
:10AD300001A8C847DAE792F801C01CF0010F08D05B
:10AD400010B5D47D14B1FFF7BBFF10BDFFF724FD94
:10AD5000FBE7704708B501390130FFF7ECFF08BD8C
:10AD600010B54FF4E072002113481BF0A9FC06F067
:10AD70009FF90024114B1C608022214610481BF0D3
:10AD80009FFC104B104A1A60104A5A604CF2503225
:10AD90009A600F49D9601A6104221A759C750822BD
:10ADA0005A750C4803F072FC0B4B18600B4B1C607F
:10ADB0000B4806F07BFC10BDDC360020B0360020CE
:10ADC00030360020C436002080969800F0490200FA
:10ADD00020A1070019B00200C0360020B4360020C0
:10ADE0001DA0020008B506F083F908BD98B110B5A2
:10ADF0008CB00446036983B1C36983B1836983B1AD
:10AE000001466846FFF77AFEA28A21696846FFF785
:10AE10005FFE0CB010BD0E2070470E20F9E70E202B
:10AE2000F7E70E20F5E7000058B310B590B00A46DA
:10AE3000044643683BB383693BB3014604A8FFF76C
:10AE400064F8134B1B6813F0040F03D0114B1B68FD
:10AE5000062B06DCA268616804A8FFF739FE10B073
:10AE600010BD0D4BD3F804352278A16902910192EF
:10AE70000A4A009240F605020949072004F0FCFD49
:10AE8000E8E70E2070470E20E9E70E20E7E700BF55
:10AE9000482E0020442E002000100140D07A0400EB
:10AEA000DB790400037B012B01D00020704730B513
:10AEB00091B004460D463F4B1B6813F0040F03D0BE
:10AEC0003D4B1B68032B5ADC04A800230493059315
:10AED000CDF81730B4F806E09DF8101001F08001AD
:10AEE0008DF81010CEF3861C4CEA01018DF810107D
:10AEF0009DF8112002F003028DF8112042EA8E0223
:10AF00008DF811202A0E8DF812202A0C8DF81320AE
:10AF10002A0A8DF814208DF815506278022A0CBF89
:10AF2000012119469DF8102002F07F028DF81020B3
:10AF300042EAC1128DF810204FF0060209924FF03C
:10AF400001028DF82C20A28AADF82E200C938DF8EA
:10AF50001C300890226A0D928DF82830E36A0F9316
:10AF600019D0E389ADF82A30A37DF3B98DF83830D4
:10AF70006FF0010107A8FFF757FF11B030BD0F4B6D
:10AF8000D3F804350E4A009240F263220D490420A2
:10AF900004F072FD98E70DF10E0103A810F024F9FA
:10AFA000BDF80C30ADF82A30DEE7074B5B7D8DF83D
:10AFB0003830DDE7482E0020442E002000100140EC
:10AFC000FC7A0400DB790400C436002090F8483095
:10AFD000022B00D0704710B5044690F86830022B61
:10AFE00000D010BDC16CFFF75DFF0028F9D1002330
:10AFF00084F86830F5E7000010B5002407E0C4EBE2
:10B00000C402130103481844FFF7E0FF0134032C86
:10B01000F5D910BDDC36002008B5FFF7B7F9FFF70A
:10B02000EBFF012008BD10B50C4691F84830022B0B
:10B0300006D1022384F868302046FFF7C7FF10BD11
:10B040007846FEF7B1FDF4E7F0B583B00446C06979
:10B05000A369E188060A0006C3F30C0291422FD9C6
:10B060008A1A1A44A2F50052851846F100062A46AB
:10B070003346A08AFEF738FE002840F0898020463B
:10B08000FEF71EFF074630B3C269D0F818C0C38868
:10B09000100A1206CCF30C01994214D2591A6144D9
:10B0A000A1F50051521840F10003AA4273EB0601CA
:10B0B0000DD3954276EB030330D3384603B0F0BD91
:10B0C000891ACA18D0E75B1A03EB0C01EAE70521DD
:10B0D0003846FFF7F3FBE388E269A169A08A06F02E
:10B0E000EDF8E8B9627A0132E37DA3B3082101FBF0
:10B0F00002F293B34FF48073934231D3022120467E
:10B10000FFF7F4F907460028D7D100212046FFF7C2
:10B11000C9FE02210020FEF76DFFCEE70027CCE735
:10B12000E388E269A169A08A06F040F908B900271E
:10B13000C3E723785BB1637A013301219940013978
:10B140002046FFF7AFFE2046FFF7B2F9EFE778465B
:10B15000FEF72AFDEFE70C21C9E74FF4C073CBE7F8
:10B160000C4B1B6813F0040F03D00B4B1B68002B18
:10B1700001DC0027A1E7094BD3F804350192084A06
:10B18000009240F27F320749012004F075FCF0E79D
:10B19000002792E7482E0020442E00200010014096
:10B1A0000C7B0400DB7904002DE9F04182B00746F6
:10B1B0000E46144698461046FFF746FF002846D034
:10B1C0000546404B1B6813F0040F03D03E4B1B6831
:10B1D000032B3FDC2846FFF701F92B7B012B47D0DF
:10B1E000EB6C217A01228A40134230D11343EB6485
:10B1F000043E237AE27D002A42D04FF0080C0CFB7B
:10B2000003FC697A8B423ED0002A41D00823B34226
:10B2100040D1AA69A3699A4209D205F10C0E0C34F7
:10B220000FCCAEE80F0094E803008EE80300E86E50
:10B230003246391D60441BF01AFAEC6C2B7873B35C
:10B240006B7A5A1C01239340013B9C422BD002B0E5
:10B25000BDE8F0811D4BD3F80435227A01921C4AD7
:10B26000009240F2A3321B49042004F005FCB1E730
:10B2700095F86830002BB3D12846FFF7C5F8AFE743
:10B280004FF00C0CBBE70CEB0603A5F84A30C0E707
:10B290000C23BCE704212846FFF710FBD7E77846CC
:10B2A000FEF782FCCCE7E96C2846FFF7FBFD43463E
:10B2B0002A46B5F84A10E86EFFF73DFD2846FFF72D
:10B2C000C7FAC4E7482E0020442E00200010014099
:10B2D000207B0400DB7904002DE9F04190B00028C8
:10B2E0004CD00F4614461E468046002A48D004AB78
:10B2F00000933346FEF7AAFE054618B1284610B063
:10B30000BDE8F08104A8FFF79DF805460028F5D1B7
:10B3100000230293039302A960880FF049FF28B12C
:10B320009DF8113043F001038DF811302269E16876
:10B33000208905F07BFF38B19DF8113003F0FE0342
:10B340008DF81130002BD9D09DF81130002BD5D0BD
:10B3500013F0010F01D0039B08939DF8103033B117
:10B36000334604AA39464046FFF71EFFC6E7334678
:10B3700004AA39464046FFF7EDFCBFE70E25BDE7BE
:10B380000E25BBE7F8B508B30E460546164B1F68F9
:10B39000F7B93C46B4420FD205EBC4035B68D3B1A6
:10B3A00015F8340015F93430002B16DBB8B1FEF770
:10B3B000E3FDB0B90134EDE70C4B43F8375003EB34
:10B3C000C7035E607B1C084A136002E00E2700E0A2
:10B3D00004273846F8BD0E27FBE70B27F9E70F27B0
:10B3E000F7E70F27F5E700BFB4360020B836002096
:10B3F000084B196861B110B501E021463CB10C68F9
:10B400000B79002BF9D0034804F0A0FAF5E710BD42
:10B41000704700BFA038002038B5054630B1104B4A
:10B420001C68C4B10F4B01221A7004E07846FEF785
:10B43000BBFBF4E724683CB12379002BFAD154F824
:10B44000043C28469847F5E7064B1B78022B03D0AF
:10B45000044B00221A7038BDFFF7CAFFF8E700BF9F
:10B46000A03800209C38002010B5044630B10023DD
:10B470002372211D034804F03EFA10BD7846FEF702
:10B4800093FBF4E7A038002010B5044658B10A4BEE
:10B490001B78013BDBB2012B09D8074B02221A7043
:10B4A0000123237210BD7846FEF77EFBEFE7211DD6
:10B4B000024804F04BFAF5E79C380020A038002041
:10B4C0000A8883689B5A07339BB223F00303134413
:10B4D0009BB20288043A934200D900230B80704744
:10B4E00010B582B004468368C91AADF806100DF194
:10B4F0000601FFF7E5FFBDF80630A068184402B06A
:10B5000010BD0088043880B2704743888268D01824
:10B51000D152012383707047826800239370438067
:10B520008380704708B5073189B221F0030189B2E1
:10B53000428883889A4204D29B1A994220DC0020D8
:10B5400008BD9A4212D9B0F800C0ACEB020C6145BC
:10B5500018D98B4218D3BCF1030F03D98368134465
:10B5600004229A70002343801846E9E78268134456
:10B570009B780BB10420E3E7FFF7CEFF0020DFE765
:10B580000420DDE70020DBE70420D9E738B50446D6
:10B590000D468368828813448B4202D07846FEF7BA
:10B5A00003FB0023AB70211D2046FFF789FFA28813
:10B5B000A36813449B78042B00D038BD0023A380DC
:10B5C000FBE710B50C468368428813448B4202D0D7
:10B5D0007846FEF7E9FA0023A37010BD70B5054662
:10B5E00014460E46002944D0002D46D0B6F1005F27
:10B5F00008D94FF08053D3F80C3103F50023B6EB94
:10B60000832F0ED3B6F5000F08D94FF08053D3F82F
:10B610000C3103F50053B6EB832F02D37846FEF7C7
:10B62000C3FA631E3344B3F1005F08D94FF0805270
:10B63000D2F80C2102F50022B3EB822F0ED3B3F522
:10B64000000F08D94FF08052D2F80C2102F50052B9
:10B65000B3EB822F02D37846FEF7A6FA042C10D95A
:10B660002C8000236B80AB80AE60043C3480B370D0
:10B6700070BD7846FEF798FAB6E77846FEF794FA7A
:10B68000B4E77846FEF790FAEAE738B50446A0B189
:10B690006288A36813449B78012B12D0EFF31085C6
:10B6A00072B6A388A16819448B78032B0DD020466D
:10B6B000FFF732FF05B962B638BD7846FEF774FA77
:10B6C000E6E77846FEF770FAE8E72046FFF708FF5E
:10B6D000A368C31A638000238370EBE72DE9F04170
:10B6E0000E4614460546D0B1EEB16A88AB681344E5
:10B6F0009B78012B1BD024B32846FFF702FFA04202
:10B7000021D3EFF3108872B621462846FFF70AFFCF
:10B71000074680B1B8F1000F16D162B614E0784642
:10B72000FEF742FAE0E77846FEF73EFADDE77846B4
:10B73000FEF73AFADFE721462846FFF7E6FE3060DB
:10B74000E8E7092700E009273846BDE8F081F8B5A9
:10B750000C4615460646E0B1FCB1A378012B20D17A
:10B760002388AB4221D325B3EFF3108772B625802F
:10B770000223A370F1183046FFF7A2FE7388B28847
:10B78000934203D0B268134400229A7007B962B69C
:10B79000F8BD7846FEF708FADEE77846FEF704FAC9
:10B7A000DBE77846FEF700FADAE77846FEF7FCF9C1
:10B7B000D9E77846FEF7F8F9D6E770B50C460546A6
:10B7C00090B1ACB1EFF3108672B6AA88AB6813449F
:10B7D0009A78042A10D09A78022A15D0032A18D011
:10B7E000052006B962B670BD7846FEF7DDF9E8E7D8
:10B7F0007846FEF7D9F9E5E7291D2846FFF760FEF0
:10B80000AA88AB681344E6E703229A7023600020FD
:10B81000E7E77846FEF7C8F90020E2E738B50446C6
:10B8200080B1EFF3108572B6A088A16801448B78CF
:10B83000042B0BD08878022814BF0020012005B902
:10B8400062B638BD7846FEF7AFF9EAE72046FFF763
:10B8500047FE0146EEE738B5054630B1EFF31084F8
:10B8600072B6A888A968014407E07846FEF79CF9FB
:10B87000F4E72846FFF734FE01468878C31EDBB2A2
:10B88000012BF6D9022814BF0020012004B962B6AA
:10B8900038BD70B50C46064678B194B1EFF310850B
:10B8A00072B6A378012B10D0032B13D1214630465A
:10B8B000FFF76CFE05B962B670BD7846FEF774F905
:10B8C000EBE77846FEF770F9E8E721463046FFF7E8
:10B8D00078FEEFE77846FEF767F9EBE710B5EFF390
:10B8E000108472B68388816819448B78042B06D043
:10B8F0008878B0FA80F0400904B962B610BDFFF74D
:10B90000EFFD0146F4E70000024B00221A769A6030
:10B9100002207047A438002008B5064B9868002222
:10B920001A605A609A60DA601A615A619A6105F089
:10B930006BF808BDA438002000B585B00A4BDB6861
:10B9400002228DF8002001934FF480530293074A9E
:10B950006946012001F0FAFA18B9012005B05DF836
:10B9600004FB0020FAE700BFA4380020C238002002
:10B9700000B585B00A4B1B6802228DF800200193A8
:10B980004FF480530293074A6946012001F0DEFA22
:10B9900018B9012005B05DF804FB0020FAE700BFEC
:10B9A000C4380020C2380020164BDA681379517968
:10B9B0005B1A03F57F2303F6FF7302EB03339A420E
:10B9C00005D002F580520F4BDA600320704700B5B6
:10B9D00085B00D4B1B6801208DF8000001930B4BC7
:10B9E0000393042302930A4A694601F0AFFA18B19F
:10B9F000002005B05DF804FB024B01221A760220FC
:10BA0000F7E700BFA4380020C4380020C838002061
:10BA1000C238002000B585B00C4BDA680C4B1B68AF
:10BA2000043301208DF800000192039340F6FC736B
:10BA30000293084A694601F089FA28B90120034BAC
:10BA4000187605B05DF804FB0020FAE7A438002062
:10BA5000C4380020C238002000B585B00A4B1B68EE
:10BA600001208DF800000193084B039304230293F7
:10BA7000074A694601F06AFA18B9012005B05DF875
:10BA800004FB0020FAE700BFC4380020B0380020D3
:10BA9000C238002010B584B0104BDA681478104B0F
:10BAA0001B68043301208DF8000001930392029477
:10BAB0000C4A694601F04AFA70B9094B1B6804F058
:10BAC000FC041C440434054B5C61D9680A780A44C0
:10BAD0001A61012004B010BD0020FBE7A43800204B
:10BAE000C4380020C238002008B500230A2B09D82A
:10BAF000064A52F82320824201D00133F6E7044A75
:10BB0000536002E07846FEF74FF808BDAC7B0400B6
:10BB1000A438002010B5214BDB6853B11F4B1B7EAE
:10BB20005BB91E4B5B680A2B26D97846FEF73CF8BA
:10BB300022E07846FEF738F8F0E77846FEF734F86A
:10BB4000EFE7164A5368013353600A2B21D9784630
:10BB5000FEF72AF81DE0114B00225A6019E00F4B46
:10BB60001B7E1BB10D4B02221A7012E0FFF7D4FEB0
:10BB70000FE00A4B1B7E83B9084B5A68084B53F8F9
:10BB80002230984704460228E9D00328E3D0012850
:10BB9000D7D0012CEDD0032CEBD010BDA438002061
:10BBA000AC7B0400104B1B681B685A1E12F1030F7C
:10BBB00018D8C3F30B020AB10020704710B50B4A26
:10BBC000D3600023137653760124147093600848E1
:10BBD000FFF78AFF0749204601F0A6F9FFF79AFF11
:10BBE000204610BD00207047C4380020A438002033
:10BBF00039B90200F9BB020008B50B78032B06D057
:10BC00000B4B1B78012B06D0022B0BD008BD084B29
:10BC100000221A76F4E7064B1B7E002BF6D1FFF7C5
:10BC200079FFF3E70B78032BF0D1FFF775FEEDE713
:10BC3000A438002000B585B0174BDB6818784FF6A4
:10BC4000FF7203F58051184405F0E6FCE0B10246AE
:10BC5000114BD9680B780B44984217D00E4B5B7E82
:10BC600083B10E4B01208DF8000001920393042351
:10BC700002930B4A694601F069F948B90120064B65
:10BC8000187606E0074BEDE7012002E0012000E016
:10BC9000002005B05DF804FBA4380020D07D04002E
:10BCA000C2380020CC7D040008B5104BDB68187842
:10BCB000002203F58051184405F0AEFC08B10120C4
:10BCC00008BD0A4BDA68137951795B1A03F57F23B3
:10BCD00003F6FF7302EB03339A4205D002F580525C
:10BCE000024BDA600320EBE70220E9E7A4380020EA
:10BCF000F0B585B0514BDE6872793379591E8A42AE
:10BD000014D006F580510D780D444D490968081D81
:10BD10000F7907449B1A06EB03366B88013B9BB2F5
:10BD200047F6FE62934260D92C461AE00120434B4D
:10BD300058767EE07846FDF737FF15E024F47F64FF
:10BD400024F00F0404F5805423781C44A6421CD927
:10BD5000A5421CD26388013B9BB247F6FE62934228
:10BD600011D92388002BE5D0238804EB830323F427
:10BD70007F6222F00F029342E0D06288B2F5FE4F5C
:10BD8000DCD01C46E2E725462FE000252DE000250B
:10BD90002BE07846FDF708FF15E024F47F6424F0DB
:10BDA0000F0404F5805423781C44A6421CD9A542F4
:10BDB00037D26388013B9BB247F6FE62934211D9AA
:10BDC0002388002BE5D0238804EB830323F47F62D0
:10BDD00022F00F029342E0D06288B2F5FE4FDCD031
:10BDE0001C46E2E7254600E00025E5B1144B196842
:10BDF0006A8801F58051384605F00EFC074690B17F
:10BE000001200E4B18768DF8000001950D4B039321
:10BE1000042302930C4A694601F098F858B92C465D
:10BE2000CEE70025E1E7B5FA85F56D09034B5D76B0
:10BE3000012005B0F0BD0020FBE700BFA4380020C2
:10BE4000C4380020C87D0400C23800202DE9F0412C
:10BE500086B0654B1B6923B1634B5B692BB100272F
:10BE600048E07846FDF7A0FEF6E77846FDF79CFE31
:10BE7000F5E7A04618E07846FDF796FE18E028F4AE
:10BE80007F6828F00F0808F5805898F8003098442B
:10BE9000454520D944454AD2B8F80230013B9BB20F
:10BEA00047F6FE62934214D9B8F80030002BE2D076
:10BEB000B8F8003008EB830323F47F6222F00F020E
:10BEC0009342DCD0B8F80220B2F5FE4FD7D09846A6
:10BED000DEE7444600E000243CBB00230093019BC6
:10BEE000002B5CD10127002C78D0628847F6FF73C5
:10BEF0009A4273D0002F75D13B4B5A6922F47F666A
:10BF000026F00F06B61A06F580561C69DD682B79F7
:10BF10006A799B1A05EB0335002301936388013B83
:10BF20009BB247F6FE629342A3D800940EE0002431
:10BF3000D2E77846FDF738FE23E024F47F6424F04E
:10BF40000F0404F58054237823441C46A542C6D927
:10BF50002388019A02EB83029642C0D9009B63407A
:10BF600023F47F6323F00F03002BB8D16388013BD8
:10BF70009BB247F6FE618B42B1D801922388002B19
:10BF8000D7D0238804EB830323F47F6222F00F02CF
:10BF90009342D2D06288B2F5FE4FD6D1CDE7124A95
:10BFA000526901208DF808000392009A05920493CB
:10BFB0000E4A02A900F0CAFF70B90B49019B23F099
:10BFC00003024B6913444B6114B1074B1C618AE7B0
:10BFD0007846FDF7E9FDF8E7002000E0012006B013
:10BFE000BDE8F0810120FAE7A4380020C238002023
:10BFF00000B585B00023294A1370D3F8F83FB3F198
:10C00000FF3F09D0B3F1FF3F0DD08BB1B3F1FF3F3C
:10C0100039D0A3F5805211E04FF010225269B2F1ED
:10C02000FF3FEFD104E04FF010225269002AEDD11A
:10C030004FF080535A691B6903FB02F2A2F580524C
:10C04000174B1A60174B1B6813F4801F16D0164B42
:10C050001B68062B12DD154BD3F804350021D1F8EF
:10C06000F81FB1F1FF3F14D002920191104A0092E3
:10C0700040F276220F49072003F0FEFCFFF792FD05
:10C0800005B05DF804FB4FF010235A69A2F5805209
:10C09000D4E74FF010214969E6E700BFC03800201F
:10C0A000C4380020482E0020442E002000100140FB
:10C0B000787B04005F7B040010B50446B0B1104BE0
:10C0C0001B78BBB10E4BD968E3685879A3EB0032FB
:10C0D000914211D31A79121A02F57F2202F6FF72E9
:10C0E00003EB0233994209D8012004E07846FDF7BA
:10C0F0005BFDE4E7002010BD0020FCE70020FAE72C
:10C10000A4380020024B1878003818BF012070476F
:10C11000A438002010B50446124B1B78BBB9237815
:10C12000032B18D10F4B9C60E268DA600E4B1B7832
:10C13000ABB10A220B4B5A6000221A76012018700C
:10C140005A760A4900F0F0FEFFF7E4FC10BD78468D
:10C15000FDF72AFDE3E77846FDF726FDE2E700223A
:10C16000E8E700BFA4380020C0380020F9BB020077
:10C17000014B1868704700BFC438002010B5044652
:10C1800080B163681BB123680BB1A36813B978460B
:10C19000FDF70AFDA3685A1E134207D10023E3608E
:10C1A000236110BD7846FDF7FFFCEAE77846FDF70E
:10C1B000FBFCF3E770B508B30E4604468368FBB199
:10C1C000EFF3108572B60369C268934212D001681A
:10C1D0004268806800F1FF3C03EA0C0303FB021194
:10C1E00016B130461AF043FA2369013323614DB981
:10C1F00062B608E005B962B6052504E00E2502E046
:10C20000092500E00025284670BD00000246C0F365
:10C210000B0030BB39B301F6FF714FEA113C134BF1
:10C220000221C3F80415114BD3F80034002BFAD0C7
:10C2300001460AE00D4BC3F808250C4BD3F8003437
:10C24000002BFAD002F5805201316145F2D3074B41
:10C250000022C3F80425054BD3F80034002BFAD094
:10C260007047102070470920704700BF00E0014070
:10C27000844610F0030F2DD111F0030F2CD16AB3B7
:10C2800012F0030F2CD19008164B0122C3F804259D
:10C29000144BD3F80034002BFAD003E00CF1040C5B
:10C2A00004311046421E58B10B68B3F1FF3FF5D080
:10C2B000CCF800300B4BD3F80034002BFAD0EDE76C
:10C2C000084B0022C3F80425064BD3F80034002B9A
:10C2D000FAD070471020704710207047092070472F
:10C2E0000920704700E00140094B1B7813F0040F50
:10C2F00002D00378122B00D07047064B1A68064B09
:10C300005A60034B1A786FF382021A70F4E700BF89
:10C310007039002060390020FC38002010B582B050
:10C3200001900C46BDF80630012B11D123680A4953
:10C330000B600A4B1A7842F001021A70D3B25B0804
:10C3400083F0010303F001030B71002002B010BD64
:10C350007846FDF729FCE9E76039002070390020B4
:10C3600010B582B001900C46BDF80630022B0FD1FB
:10C370002268094B1A6022791A710020587198714D
:10C38000D871064A137843F00203137002B010BD4F
:10C390007846FDF709FCEBE758390020703900209A
:10C3A00010B582B001900C46BDF80630032B06D1C3
:10C3B000054B186820601B79237102B010BD7846C8
:10C3C000FDF7F2FBF4E700BF6039002010B582B042
:10C3D00001900C46BDF80630032B0CD1084B2068A9
:10C3E000186022791A71074A137843F00103137019
:10C3F000002002B010BD7846FDF7D6FBEEE700BF87
:10C40000603900207039002010B582B001900C46D0
:10C41000BDF80630042B05D1044B03CB20606160CE
:10C4200002B010BD7846FDF7BFFBF5E75839002094
:10C4300010B582B001900C46BDF80630042B0BD12C
:10C44000074B2068616803C3064A137843F0020370
:10C450001370002002B010BD7846FDF7A5FBEFE792
:10C46000583900207039002000B583B00190BDF824
:10C470000630032B06D1054B00221A601A7103B057
:10C480005DF804FB7846FDF78FFBF4E76039002088
:10C4900000B583B00190BDF80630042B06D1054BE2
:10C4A00000221A605A6003B05DF804FB7846FDF77D
:10C4B0007BFBF4E75839002000B585B01A4B1B7898
:10C4C00013F0400F13D0184B1B7813F0040F0BD14F
:10C4D000002301938DF80830144B5B6803F500537B
:10C4E0000193B3F1807F06D905B05DF804FB78466F
:10C4F000FDF75AFBE7E70E4B1B788DF808300A4A28
:10C50000137843F0040313700023ADF80C300323B9
:10C51000ADF80E3001A9039806F060FA0028E3D0C8
:10C520007846FDF741FBDFE770390020FC3800203A
:10C530007139002000B585B00022019202920F4BA4
:10C54000996801911B7B8DF808300D490B780133F8
:10C55000DBB20B708DF80B30ADF80C200423ADF876
:10C560000E300DEB0301039806F038FA10B905B050
:10C570005DF804FB7846FDF717FBF8E7FC38002070
:10C580007139002000B585B00023019302930F4A52
:10C5900091680191117B8DF80810128AADF809207D
:10C5A0000B4A12788DF80B20ADF80C300423ADF84F
:10C5B0000E300DEB0301039806F010FA10B905B028
:10C5C0005DF804FB7846FDF7EFFAF8E7FC38002049
:10C5D0007139002000B58DB00B4B1B7B012B0ED0A9
:10C5E000094A926804928DF80830039002238DF86E
:10C5F000043001A8FEF710FF0DB05DF804FB024AFD
:10C600009268013A0492EEE7FC38002008B51D4814
:10C610001D4B036000F038FF1C4B1B7813F0200FFC
:10C620002AD103F00303032B14D1194B1968194ABB
:10C63000916019791173B3F805001082DB79164AFD
:10C640001370164A1279934217D0B1B9114B0022D8
:10C650001A6007E00F4B00221A609A601A731A8260
:10C66000FFF768FF0B4B1A685A60084A137843F0CB
:10C6700040031370FFF720FF08BD084B1A68054BF5
:10C680001A60EFE74C390020E9C20200703900203F
:10C6900058390020FC380020713900206039002012
:10C6A00010B582B00024ADF800400123ADF802308F
:10C6B000009806F0C4F9ADF804400223ADF8063046
:10C6C000019806F0BCF902B010BD000008B50020CA
:10C6D00006F0DCF9094A0023136053609360D360CD
:10C6E0001361074A117863F345111170CBB243F01F
:10C6F00040031370FFF7E0FE08BD00BFFC380020C8
:10C700007039002038B50C4D00242C606C60AC6092
:10C71000EC602C6101F0AEF9084B5860084A9A6051
:10C72000084ADA601C615C61074B1A7864F3C30243
:10C730001A706C6038BD00BFFC380020D83800206B
:10C74000A5C80200008793037039002008B50C4B80
:10C750001B7813F0100F00D008BD0A480A4B036085
:10C7600000F092FEFFF752FFFFF79AFF074801F033
:10C7700005F9034A137843F010031370ECE700BF88
:10C7800070390020F0380020FDC90200D8380020A0
:10C79000034B1878800880F0010000F0010070471A
:10C7A0007039002010B501F0F3FE174B1B7B1BBB4B
:10C7B000154B9B7B2BBB144B1A8A41F282639A4226
:10C7C00006D8124B1B7813F0080F05D0012300E0A8
:10C7D00001231BB9082410E00023FAE70A4B0122C9
:10C7E0001A7300241C829A6801329A60FFF7A2FE35
:10C7F0002046FFF7EFFE00E0082401F00FFF20467F
:10C8000010BD0824F9E700BFFC3800207039002073
:10C8100010B501F0BDFE214B5B7BABB11F4B9B7B89
:10C8200003BB1E4B1A8A41F282639A4206D81C4B04
:10C830001B7813F0080F05D0012300E001239BB102
:10C84000012302E00023FAE700231C460BB3134B3D
:10C8500000225A731B7B4BB1012B0ED07846FDF79B
:10C86000A3F916E00023F0E70023EEE7FFF79AFFB5
:10C8700078B17846FDF798F90BE0084B0020186076
:10C88000586018731882FFF7A5FEFFF753FEFFF7F5
:10C8900013FE01F0C3FE204610BD00BFFC3800208F
:10C8A0007039002008B52C4B1B7BDBB1012B2ED03F
:10C8B0007846FDF779F9284A138A01339BB213822F
:10C8C000264AA2FB03121209C2EB0212A3EB420397
:10C8D0009BB2002B3DD0204B5B8A13B1013B1E4A1B
:10C8E000538208BD1C4B1A8A41F282639A4206D8D1
:10C8F0001B4B1B7813F0080F07D0012300E0012326
:10C90000002BD8D0FFF784FFE5E70023F8E7124BB0
:10C910001B8A41F28262934206D8114A127812F0C1
:10C92000080F14D0012200E00122002AC3D042F2F5
:10C93000B012934202D9084B01225A73FFF768FFE5
:10C940000028C8D1044B5B7B012BB4D1C3E7002284
:10C95000EBE7FFF717FEBEE7FC38002089888888E0
:10C960007039002010B5244B1B7B002B35D10446B9
:10C97000214B5B8A2BBB1AB91F4B9B688B4205D39B
:10C98000FAB11D4B9B6801338B421AD21A4B9B683C
:10C990002A338B4223D3184B9B7B03BB164B9960E6
:10C9A00000221A605A601A8242F6065159825A735E
:10C9B0001A73FFF7BFFDFFF77FFD2046FFF70AFE62
:10C9C0000DE062B10C4B9B6801338B4207D10A4BDF
:10C9D00001225A73FFF71CFF01E0012B00D010BDAC
:10C9E000002AFCD1044B9B688B42F8D1024B0122F8
:10C9F0005A73FFF70DFFF2E7FC3800200378042B91
:10CA000000D0704743681B78002BFAD010B58468BB
:10CA1000027E437E012A14BF00220122416904F1F3
:10CA20001000FFF79FFF10BD08B538B10D4B012274
:10CA30009A730D4A13680133136008BD0A4B1B68D3
:10CA40005BB1094A1368013B1360002BF5D1054B1C
:10CA500000229A73FFF7DCFEEFE77846FDF7A4F8B3
:10CA6000EFE700BFFC380020CC38002000B58DB0C7
:10CA7000ADF808008DF81020039103238DF80430E1
:10CA800001A8FEF7C9FC0DB05DF804FB014B9868E6
:10CA9000704700BFFC380020054B1B7B012B02D0E8
:10CAA000034B98687047024B98680138704700BF85
:10CAB000FC3800201D4B1B7813F0400F34D070B5AC
:10CAC00004460D461A4B1A685B689A4228D2184BE6
:10CAD0001B7B012B17D0174B9A4216D2144B1A68A6
