:020000022000DC
:1060000000F000206D630200556302005763020038
:10601000596302005B6302005D6302000000000040
:106020000000000000000000000000005F630200AC
:106030006163020000000000636302006563020008
:106040006763020067630200676302006763020020
:1060500067630200676302000D3504005D520400AF
:10606000676302004D300400E50804006763020026
:1060700067630200676302006763020067630200F0
:1060800067630200DDFA0400C107030067630200D2
:1060900041FB04006763020069410400676302007A
:1060A00067630200676302006763020067630200C0
:1060B0006763020067630200000000000000000048
:1060C00067630200676302006763020067630200A0
:1060D000676302006763020067630200000000005C
:1060E00000000000000000000000000000000000B0
:1060F00000000000000000000000000000000000A0
:10610000000000000000000000000000000000008F
:10611000000000000000000000000000000000007F
:10612000000000000000000000000000000000006F
:10613000000000000000000000000000000000005F
:10614000000000000000000000000000000000004F
:10615000000000000000000000000000000000003F
:10616000000000000000000000000000000000002F
:10617000000000000000000000000000000000001F
:10618000000000000000000000000000000000000F
:1061900000000000000000000000000000000000FF
:1061A00000000000000000000000000000000000EF
:1061B00000000000000000000000000000000000DF
:1061C00000000000000000000000000000000000CF
:1061D00000000000000000000000000000000000BF
:1061E00000000000000000000000000000000000AF
:1061F000000000000000000000000000000000009F
:10620000344935480A1A02D0072291438D46334952
:1062100033480A1A06D00722914381F309880222E3
:1062200082F314882F483049304A00F042F8304851
:106230003049314A00F03DF830483149314A00F0E8
:1062400038F831483149324A00F033F831483249A0
:10625000324A00F02EF832483249334A00F029F829
:1062600032483349334A00F024F833483349002296
:1062700000F02AF832483349002200F025F832486D
:106280003249091A082902DB0022026041601F48D6
:106290001F49884205D00268043003B4904703BC0C
:1062A000F7E700208646EC4600200021284A904768
:1062B000FEE7884207D0521A05D0037801300B70F0
:1062C0000131013AF9D17047884202D002700130A1
:1062D000FAE7704700F0002000E8002000F00020FE
:1062E00000F0002068490500F02D0020D034002087
:1062F000A0630200A06302007C0A05006849050053
:10630000F02D0020F02D0020D8100500D810050039
:10631000D8100500D8100500D8100500D8100500C9
:10632000D8100500D8100500684905004850050040
:10633000D0340020D0340020D034002068990020D0
:10634000689900206899002068990020689D0020C5
:10635000916F0200FEE7FEE7FEE7FEE7FEE7FEE7DD
:10636000FEE7FEE7FEE7FEE700F002B8FFF7FCBF3E
:1063700008484FF00701884385460748804707488B
:10638000016841F470010160BFF34F8FBFF36F8F5D
:10639000FFF736BF00F000202947040088ED00E039
:1063A00041DF7047014B1960704700BFD0340020B7
:1063B000014B1B680B807047D0340020024B002239
:1063C0001A609A80704700BF503500207047000067
:1063D0000D4B1B6813F4804F03D00C4B1B68032B31
:1063E00000DC704700B585B0094BD3F80435029244
:1063F0000191084A00924FF49072074904200FF06F
:1064000097FC05B05DF804FB743400207034002064
:106410000010014018110500101105000D4B1B68FC
:1064200013F4804F03D00C4B1B68032B00DC704728
:1064300000B585B0094BD3F8043502920191084AA2
:1064400000924FF48C72074904200FF071FC05B0E4
:106450005DF804FB7434002070340020001001400B
:1064600018110500101105000E48006810F4804F47
:1064700003D00D480068032800DC704700B585B0E4
:106480000A48D0F80405039302920191084B009347
:106490000346D822074904200FF04AFC05B05DF8F6
:1064A00004FB00BF74340020703400200010014051
:1064B000401105001011050000B587B006A800E9DD
:1064C0000C00104B1B6813F4804F03D00E4B1B685D
:1064D000032B02DC07B05DF804FB0C4BD3F804354A
:1064E0000B48A0FB0202BDF814000390C2F3CF32A8
:1064F00002920191074A0092F522074904200FF009
:1065000017FCE7E7743400207034002000100140CD
:10651000018000807C1105001011050010B582B0CB
:106520000C46194B1A680A609B888B80174B1B68B6
:1065300013F4804F03D0164B1B68032B0ADC134B5C
:106540001B6813F4804F03D0114B1B68032B0DDC29
:1065500002B010BD0F4BD3F8043501920E4A0092E1
:10656000EC220E4904200FF0E3FBE8E7094BD3F8D7
:106570000435226801920A4A0092ED22074904205C
:106580000FF0D6FBE4E700BF503500207434002044
:106590007034002000100140C011050010110500EA
:1065A000D41105000D4B1B6813F4804F03D00C4B26
:1065B0001B68032B00DC704700B585B0094BD3F88E
:1065C000043502920191084A009240F20F120749E5
:1065D00004200FF0ADFB05B05DF804FB743400201F
:1065E0007034002000100140EC110500101105006E
:1065F0000E4B1A880A800E4B1B6813F4804F03D091
:106600000C4B1B68032B00DC704700B583B00A4BB2
:10661000D3F804350192094A009240F20712084962
:1066200004200FF085FB03B05DF804FBD434002098
:10663000743400207034002000100140181205004E
:10664000101105000D4B19800D4B1B6813F4804F82
:1066500003D00C4B1B68032B00DC704700B583B0E4
:10666000094BD3F804350191084A0092FE220849EB
:1066700004200FF05DFB03B05DF804FBD434002070
:1066800074340020703400200010014018120500FE
:106690001011050000B585B003A817F0D5FF0D4B0C
:1066A0001B6813F4804F03D00B4B1B68032B02DCD9
:1066B00005B05DF804FB094BD3F80435BDF80C2098
:1066C0000192074A00924FF4FC72064904200FF031
:1066D0002FFBEDE7743400207034002000100140DF
:1066E000301205001011050000B583B0104B1B6877
:1066F00013F4804F03D00F4B1B68032B0BDC25F0EA
:1067000069F90322C8210F2004F050FF11F0E2FCC8
:1067100003B05DF804FB084BD3F80435074A009238
:106720004FF4C272064904200FF002FBE7E700BFF6
:10673000743400207034002000100140481205001D
:106740001011050010B584B0441C454B1B6813F4B0
:10675000804F03D0434B1B68032B06DC601E0328CD
:1067600068D8DFE800F00F253A483F4BD3F80435EE
:1067700001943E4A00924FF4D1723D4904200FF03B
:10678000D7FAEBE73B4B188829F044FF00223A4B3D
:1067900029F034FE29F052FF00EE100A04F0A4FCA8
:1067A0004FF0A0434FF40032C3F80C2504B010BDE5
:1067B000324B186829F02EFF0022314B29F01EFEC3
:1067C00029F03CFF00EE100A04F08EFC4FF0A043CD
:1067D0004FF48022C3F80C25E8E703A817F034FF34
:1067E000BDF80C0004F036FC4FF0A0434FF400223B
:1067F000C3F80C25DAE711F0FFFBA0B9184B1B68B2
:1068000013F4804FD2D0174B1B68032BCEDD164BF1
:10681000D3F804351B4A00924FF4E7721449042060
:106820000FF086FAC2E713F0E7F911F0D9FBFFF792
:106830005BFFBBE70A4B1B6813F4804FB6D0094BD4
:106840001B68032BB2DD084BD3F804350E4A0092C7
:106850004FF4EA72064904200FF06AFAA6E700BF77
:1068600074340020703400200010014064120500D0
:1068700010110500D434002000005940D03400200D
:1068800000408F4078120500FC14050000B583B06D
:106890003138032814D90D4B1B6813F4804F11D0E5
:1068A0000B4B1B68032B0DDD0A4BD3F804350A4A4A
:1068B000009240F2E312094904200FF039FA01E096
:1068C000FFF740FF03B05DF804FB00BF7434002005
:1068D0007034002000100140FC1405001011050068
:1068E00008B50378232B00D008BDFFF7FDFEFBE7BA
:1068F00000B58DB025F02AF82422002103A82AF043
:1069000056F801238DF80C3007238DF80F3006233D
:106910008DF81430224B0793224B0B93224903A886
:1069200011F06EFB034618B3002B32D00B2B2FD186
:1069300025F050F81D4B1B6813F4804F03D01C4BFF
:106940001B68032B18DC194B1B6813F4804F20D0F5
:10695000174B1B68032B1CDD164BD3F80435164A66
:10696000009240F22B22154904200FF0E1F910E0CB
:1069700025F00CF80346D7E70E4BD3F80435104A40
:10698000009240F229220D4904200FF0D1F9DAE7F4
:1069900013B90DB05DF804FB18461DF0E5FFF8E7EC
:1069A000E1680200596A0200D634002074340020E5
:1069B0007034002000100140001305001011050084
:1069C000B012050000B583B01B4A04214FF4C0404B
:1069D0000FF092F9194B1B6813F4804F03D0184B3A
:1069E0001B68032B13DC29F0AFF8E0B904F020FE9C
:1069F000144804F051FEC8B903F096FC03F0D2FC31
:106A000003F000FDFFF774FF03B05DF804FB0E4BCD
:106A1000D3F804350D4A009240F23A220C49042082
:106A20000FF086F9DFE71DF09FFFDFE7094A40F22C
:106A30003F211DF0A7FFDFE7CD5C03007434002089
:106A40007034002045670200001001403C1305002F
:106A500010110500D810050000B585B000218E4842
:106A600002F090FB002840F081808C4B1B6813F4EF
:106A7000804F03D08A4B1B68032B7ADC864A0021A7
:106A8000884801F0D7FB002840F08580834B1B68C5
:106A900013F4804F03D0824B1B68032B7EDC022152
:106AA000814804F0F9F9002840F08A807B4B1B688C
:106AB00013F4804F04D07A4B1B68032B00F38680BD
:106AC00000217A4802F002FF002840F08E807849C9
:106AD000764802F029FF002840F08D8073496E4807
:106AE00002F004FC002840F08C8072496F4802F0EC
:106AF0001BFF002840F08B806C496A4801F07CFC49
:106B0000002840F08A8002216B4804F047FA0028F0
:106B100040F08980614B1B6813F4804F04D0604BB8
:106B20001B68032B00F385800221644802F0CEFE2F
:106B3000002840F08D806249604802F0F5FE002890
:106B400040F08C805D49584804F000FA002840F07D
:106B50008B80524B1B6813F4804F04D0504B1B6842
:106B6000032B00F3878005B05DF804FB1DF0FCFEED
:106B70007BE7544BD3F80435474A118892F8BC2080
:106B800002920191504A00924FF495724F490420AD
:106B90000FF0CEF872E71DF0E7FE77E7494BD3F828
:106BA0000435404A118892F8902002920191484A97
:106BB000009240F22F12454904200FF0B9F86EE719
:106BC000444A4FF49A711DF0DDFE6FE73D4BD3F858
:106BD0000435354A128801923F4A009240F235123C
:106BE0003A4904200FF0A4F86AE73A4A4FF49D713D
:106BF0001DF0C8FE6BE7374A4FF49E711DF0C2FED0
:106C00006CE7344A40F23D111DF0BCFE6DE7314A9D
:106C100040F23F111DF0B6FE6EE72E4A4FF4A07110
:106C20001DF0B0FE6FE72B4A40F243111DF0AAFEA3
:106C300070E7244BD3F804351F4A12880192274A83
:106C400000924FF4A272214904200FF071F86BE713
:106C5000204A4FF4A4711DF095FE6CE71D4A40F2E6
:106C600049111DF08FFE6DE71A4A4FF4A5711DF012
:106C700089FE6EE7134BD3F804350C4A118892F85D
:106C8000342002920191164A00924FF4A6720F49E5
:106C900004200FF04DF866E78030002074340020A7
:106CA00070340020F82E0020002E0020203200201A
:106CB0001832002078300020D8340020183300200B
:106CC000F02E0020001001406C130500101105008B
:106CD000A8130500D8100500D8130500F41305000B
:106CE0001014050000B58BB06421264803F062F94A
:106CF000254B1B78ABB90393049305930693079335
:106D000008930993214B0493214B0593214B08933E
:106D1000214B099303A803F0E3F820B11DF024FEF2
:106D200001E0FFF7B7FC04F01DFD03F077F91B4805
:106D300008F07EFA11F0BEF9A0B9194B1B6813F4E4
:106D4000804F03D0174B1B68032B0EDC00210F2054
:106D500004F016FC0222C8210F2004F027FC0BB01F
:106D60005DF804FB1DF000FEE7E70F4BD3F8043598
:106D70000E4A00924FF41B720D4904200EF0D8FF0A
:106D8000E4E700BF8D680200D6340020E56E020003
:106D9000B56D020040140500D8160500F02D002046
:106DA000743400207034002000100140FC140500F1
:106DB0001011050010B5044600210F2004F0E0FB7F
:106DC00004EB840462003221032004F0EFFB10BDC9
:106DD00030B5C7B003781D2B04D00446142B17D050
:106DE00047B030BD344802F01FFA58B9334801F0BB
:106DF00083FA50B9324804F08FF80028F0D01DF023
:106E0000B3FDEDE71DF0B0FDF0E71DF0ADFDF1E7DE
:106E10002C4B1B6813F4804F03D02B4B1B68042BA7
:106E20000FDC284B1B6813F4804FD9D0264B1B680E
:106E3000042BD5DD2369802B28BF80239E460023A9
:106E400022E0224BD3F80435C288018900790390EF
:106E5000029101921E4A009240F267121D490520DC
:106E60000EF066FFDDE7E268D25C1B490D68100991
:106E7000590015F800C005A800F813C002F00F0271
:106E80000131AA5C425401337345ECD305AA0023B7
:106E900002F81E3003F1804303F58833D3F804353C
:106EA00002920E4A01920E4A009240F2691209497A
:106EB00005200EF03DFF93E780300020F82E0020E3
:106EC000002E002074340020703400200010014097
:106ED000681405001011050078340020981405008E
:106EE000A414050000B583B0144B1B6813F4804F45
:106EF00003D0134B1B68032B13DC03F053FA03F08E
:106F000081FAFFF7C7FB04F085FB00210F2004F096
:106F100037FB0422C8210F2004F048FB03B05DF8C2
:106F200004FB084BD3F80435074A009240F2FD12E7
:106F3000064904200EF0FCFEDFE700BF7434002099
:106F40007034002000100140AC1405001011050041
:106F500000B585B00B4A01AB07CA03C31A700A49D2
:106F60000A481EF053FA38B901A900201EF0A4FA0D
:106F700028B905B05DF804FB1DF0F6FCF4E71DF040
:106F8000F3FCF6E7C8140500CD630200D414050035
:106F900000B583B0FFF716FDFFF7A4FEFFF7D8FF9B
:106FA00004F050F942F2B82004F054F80023ADF890
:106FB00006300C2003F0F2FBFFF7F2F90DF10601A9
:106FC00000201EF0CBFABDF9060029F023FB22A316
:106FD000D3E9002329F076F90022174B29F072F942
:106FE00029F02CFB154C206003F0BAFB144B83ED09
:106FF000000AD4ED007A9FED137A67EE877AFDEEF2
:10700000E77A114BC3ED007ADFED107A20EE270A04
:10701000BCEEC00A0E4B10EE102A1A8004F0DAF90A
:107020004FF4FA644FF47A400A4B43F00103984757
:10703000013CF7D1C0E700BF0000103F9C350020A5
:107040009835002000007A44D03400200000C84267
:10705000D4340020E01405009A9999999999124026
:1070600010B40D4CA4FB0202C2F3CF32A4FB010109
:10707000C1F3CF31521ABDF90400C01A82EAE2719D
:10708000A1EBE27180EAE073A3EBE073994200DDCB
:1070900010465DF8044B704701800080E03870476F
:1070A00010B582B00446D0F8B03000930A68496841
:1070B0008B4228BF0B46934238BF13460093B0F86B
:1070C000B430ADF80430D0F8A0300BB16946984721
:1070D000009BC4F8B03002B010BD08B5A03802F073
:1070E00061FD08BD10B5094B1C6800E024685CB167
:1070F00014F8023C002BF9D0002204F8022CA4F171
:107100009C0002F04FFDF1E7012010BDA4350020E6
:1071100030B58BB0FFF7C2FF0446D0F8A43008A901
:10712000984794F8FC30012B03D033B1022B0CD1DB
:1071300003E094F8D420002AF7D0D4F8C830C4F87B
:10714000C030B4F9D030A4F8C430D4F8CC30C4F88E
:10715000B830B4F9D230A4F8BC301D4B1B6813F41E
:10716000804F03D01B4B1B68032B14DC0023C4F897
:10717000D830D4F8A85065B1B4F8BC30ADF81C30A4
:10718000D4F8B830069306AB0CCBD4F800112046E7
:10719000A8470BB030BD104BD3F8043594F89010CD
:1071A000D4F8C0200D48A0FB0202D4F800010490DE
:1071B000D4F804010390C2F3CF3202920191084A3D
:1071C000009240F23D32074904200EF0B1FDCDE7B8
:1071D00074340020703400200010014001800080D1
:1071E000201705000D17050000B583B0FFF756FF07
:1071F0000D4B1B6813F4804F03D00C4B1B68032B03
:1072000002DC03B05DF804FB094BD3F8043590F8B9
:1072100090200192074A009240F22332064904204E
:107220000EF086FDEDE700BF7434002070340020BE
:1072300000100140641705000D17050008B580F81F
:10724000FC30C0F8F4102D23C0F8F8303AB11346E2
:107250005268C0F810211B68C0F8F03008BD002348
:10726000C0F81031D0F89C3000F1F00193F8C40060
:1072700027F036FD0028F1D0024A40F209411DF006
:1072800081FBEBE7E81605002DE9F0418CB00446E0
:107290000E4617469846A0F5C075012385F878314B
:1072A000D5F8A4300AA92846984709AA314695F886
:1072B000980026F0B9FA002856D10DF12202314685
:1072C00014F8E80C26F0E0FA002853D1099944F8A4
:1072D000B41CBDF9223024F8AE3C54F8D03C44F83C
:1072E000B83C34F9CC3C24F8B03C14F8E80C26F057
:1072F000C3F9002844D134F9AE1C14F8E80C26F088
:10730000E1F9002842D1CDF81880079714F8E73C3E
:107310001BB10A9A099B9A423ED0A4F5C076A4F10B
:10732000A007384602F03EFCB6F9D2300093BDF912
:107330002C30D6F8CC200A992846FFF791FE01465A
:10734000002306AA2846FFF779FF264B1B6813F493
:10735000804F03D0244B1B68032B24DC384602F0FB
:1073600013FC0CB0BDE8F081204A4FF488611DF099
:1073700009FBA2E71D4A40F244411DF003FBA5E7CB
:107380001A4A40F24E411DF0FDFAB4E7174A4FF495
:107390008A611DF0F7FAB6E7BDF82C20BDF922305E
:1073A0009A42BAD1DDE7124BD3F80435099A114954
:1073B000A1FB021254F88C1C059154F8901C049106
:1073C00054F8701C0391BDF922100291C2F3CF3220
:1073D0000192094A009240F26342084904200EF0EB
:1073E000A7FCBBE77434002070340020E8160500C9
:1073F0000010014001800080801705000D17050076
:1074000030B587B004460D4650F8D02C10F8E80C83
:1074100026F0F2F990B934F9CC2C294614F8E80C8E
:1074200026F018FA80B91A4B1B6813F4804F03D06A
:10743000184B1B68042B0DDC07B030BD164A40F218
:107440001C411DF09FFAE6E7134A4FF484611DF0DA
:1074500099FAE8E7114BD3F80435A4F5C07114F894
:10746000E80C54F8D02C0E4CA4FB0242B1F9B41035
:107470000491C2F3CF32039202950190094A00921F
:1074800040F22542084905200EF052FCD4E700BF27
:107490007434002070340020E8160500001001400C
:1074A00001800080CC1705000D17050010B584B0D1
:1074B000144602A990F8980026F08CF960B90023D0
:1074C0002370029B6360039AA26011498B4209D02A
:1074D0008A4207D004B010BD0E4A40F2D3111DF00D
:1074E00051FAECE70C4B1B6813F4804FF2D00B4BB6
:1074F0001B68012BEEDD0A4BD3F80435094A0092D4
:107500004FF4EC72084902200EF012FCE2E700BFD3
:107510000100FEFFE81605007434002070340020DE
:1075200000100140201805000D17050030B589B086
:1075300004461546D0F8A43006A99847069B2B6050
:10754000BDF81C30AB80B4F8BC30AB8194F80C3182
:10755000022B12D0D4F8B830AB6004F1E00002F096
:107560002FFB2861224B1B6813F4804F03D0214B63
:107570001B68032B21DC09B030BD04A994F89800E6
:1075800026F028F980B9D4F8B820059B9A4211D08A
:10759000194BAB60D4F8003123B1D4F804310BB1EE
:1075A0004FF0FF332B61DDE7144A4FF4A2711DF059
:1075B000E9F9E8E747F6FF73EBE7114BD3F8043539
:1075C0002A681048A0FB0212A968A0FB01012869E3
:1075D0000390C1F3CF310291C2F3CF3201920A4A34
:1075E00000924FF4AA72094904200EF0A1FBC2E7F1
:1075F00074340020703400200080FFFFE81605007E
:107600000010014001800080441805000D1705009E
:10761000F0B58DB004461546D0F8A4300AA99847B5
:10762000D4F89C00D0F8CC300DF126019847BDF875
:1076300026302B80D4F89C30B3F8EA302B810A9B9B
:107640006B60D4F8B830EB6094F80C31022B10D199
:10765000D4F800310BB14FF0FF332B61184B1B688E
:1076600013F4804F03D0174B1B68042B07DC0DB0BD
:10767000F0BD04F1E00002F0A3FA2861EEE7124B3E
:10768000D3F804352E886A681048A0FB02122F89AF
:10769000E968A0FB0101D4F804010690286905906F
:1076A000C1F3CF3104910397C2F3CF320292019616
:1076B000074A0092D522074905200EF039FBD6E78C
:1076C00074340020703400200010014001800080DC
:1076D000681805000D17050090F89930EBB130B52A
:1076E00089B004460D4690F87831A3B9D0F8A4309B
:1076F00006A998472B88ADF804306B88ADF80C309C
:107700006B680593069B0293D4F8B830049301A9E3
:10771000201D25F0A5FC09B030BD704770B58EB0B6
:1077200004460E46D0F8A43002A99847D4F89C002D
:10773000D0F8CC300DF10601984794F87931002B40
:107740003CD1D4F89C00D0F8183163BB0D96BDF83D
:107750000630ADF82430029B0A93D4F89C30B3F87D
:10776000EA30ADF82C30D4F8B8300C9309A9201DBC
:1077700025F076FC0546029B0493BDF80C30ADF86D
:107780001430D4F8B8300693B4F8BC30ADF81C30DF
:10779000089604A904F1300025F07DFC05B90546E2
:1077A00028460EB070BDF83002F00AFA03460028F1
:1077B000CCD0B04238BF33460D93C8E70025DAE796
:1077C00030B587B0FFF76AFC0446D0F8CC30C0F87B
:1077D000B830B0F9D230A0F8BC30444B1B6813F479
:1077E000804F03D0424B1B68032B48DC94F80C31CC
:1077F000022B07D0D4F8B830C4F8B030B4F9BC309C
:10780000A4F8B43004A994F8980025F0E3FF002808
:1078100044D1049A374B9A4246D0059A9A4243D0B3
:1078200004A92046FFF73CFCD4F8A85065B1B4F891
:10783000BC30ADF80C30D4F8B830029302AB0CCBAE
:10784000D4F800112046A847D4F8B01094F8980056
:1078500025F012FF00283CD1B4F9B41094F8980038
:1078600025F030FF00283AD100212046FFF756FFCF
:10787000002384F8783184F8793107B030BD1E4B8D
:10788000D3F8043590F8902001921C4A00924FF4EE
:1078900074721B4904200EF04BFAA7E7194A40F214
:1078A000D9311DF06FF8B4E7104B1B6813F4804F0B
:1078B000B6D00F4B1B68012BB2DD0F4BD3F804354C
:1078C000114A009240F2DA320D4902200EF030FAED
:1078D000A6E70C4A4FF47A711DF054F8BCE7094A48
:1078E00040F2E9311DF04EF8BEE700BF74340020CD
:1078F000703400200100FEFF00100140B4180500A4
:107900000D170500E8160500201805002DE9F043C5
:1079100085B00546FFF7C2FB0446D0F80061284653
:1079200002F071F90546371A94F80C31022B4AD04F
:10793000D4F8B810D4F8C090B1EB09006CEB0C0C83
:10794000A5FB00014FEAE6783246434605FB0C11E1
:1079500028F005FF4844C4F8B000B4F9BC00B4F9FD
:10796000C430C01A1FFA83F94FEAE07CA5FB00017E
:107970003246434605FB0C1128F0F1FE4844A4F8BA
:10798000B40002A994F8980025F024FFB0BB029A35
:107990003B4B9A4238D0039A9A4235D002A92046EE
:1079A000FFF77EFB94F80C31022B42D040F2DC53FF
:1079B0009F4205D9D4F8D830EB1AB3F57A7F57D85F
:1079C00005B0BDE8F083D4F80401C317D4F8C06053
:1079D000A0FB050105FB03114FEA014C4CEA104CDA
:1079E0000304181AD4F800214FF000036CEB0101D6
:1079F00028F0B5FE0644C4F8B060C2E7214A40F260
:107A0000AD311CF0BFFFC2E71F4B1B6813F4804F62
:107A1000C4D01E4B1B68012BC0DD1D4BD3F80435B1
:107A20001C4A009240F2AF321B4902200EF080F94E
:107A3000B4E7D4F8B020D4F80431002B02DD039968
:107A40008A4211D0002B0ADB0023002BAED0012389
:107A500084F87A31114B186808F0E2FDA6E7029B22
:107A60009A4203D00023F0E70123EEE70123ECE77D
:107A7000C4F8D85039462046FFF750FEA0E700BFB3
:107A80000100FEFFE8160500743400207034002069
:107A900000100140201805000D170500A03500203A
:107AA00038B504460D46084BC0F89430983025F0A0
:107AB00003FF00B138BD84F899002A46D4F89C1021
:107AC000204625F01DFBF5E70C1A05002DE9F043D3
:107AD00089B016469846109F0446002800F0818021
:107AE000002A7ED0012384F8793104F1080024F0C3
:107AF00025F884F8D400504B1B6813F4804F14D041
:107B00004E4B1B68032B10DD4D4BD3F804353279F7
:107B100000286AD04B49029101924B4A009240F2F0
:107B200025224A4904200EF003F9D4F8A43006A90E
:107B30002046984731684FEAE1794FEA094242EA24
:107B400011420D046D1A62EB090904A994F898001A
:107B500025F040FE00284AD194F8D4303BB1D4F847
:107B6000B020C4F8C820B4F9B420A4F8D020002B69
:107B700043D0069B5D1949F10002059BAB424FF0D3
:107B80000001914108DB04990B46A9424FF0000126
:107B900071EB020200DA2B46C4F8CC3001234246D6
:107BA00031682046FFF74AFB234B1B6813F4804FD4
:107BB00003D0224B1B68032B25DC04F1E00001F00D
:107BC000E3FF3368002B32D147B1D4F8B0303B60CB
:107BD000D4F8CC30BB60D4F8F0303B6109B0BDE8DC
:107BE000F083784602F0F4FC7CE7194993E7194AE0
:107BF00040F22E211CF0C6FEAEE7D4F8C0305D196D
:107C000049F10002B9E70E4BD3F80435D4F8F0205F
:107C10000392D4F810210292326801920E4A009227
:107C20004FF41072094904200EF082F8C5E7D4F829
:107C3000840101F08FFEC7E7743400207034002007
:107C400000100140F8180500001905000D17050087
:107C5000D8180500E81605000C190500F0B589B024
:107C6000044615461F460E9E012380F87931D0F850
:107C7000A43004A99847049BC4F8B030BDF914306F
:107C8000A4F8B43006A994F8980025F0A3FD78B9BB
:107C900002233A4629682046FFF7D0FA2B68002BCA
:107CA0000CDDD4F8F0204AB1079BC4F8CC300BE0CF
:107CB0002B4A40F26B211CF065FEE9E7002B2BDB21
:107CC000D4F8B030C4F8CC30264B1B6813F4804F86
:107CD00003D0254B1B68032B26DC04F1E00001F0E8
:107CE00053FF2B681BB1D4F8F030002B30D18EB18C
:107CF000D4F8B0303360D4F8CC20079B9A422CD013
:107D00000023B360D4F8F0301BB12B680BB14FF0F7
:107D1000FF33336109B0F0BDD4F8F030002BCFD081
:107D2000069BC4F8CC30CFE7104BD3F80435D4F819
:107D3000F0200392D4F8102102922A6801920C4A92
:107D4000009240F27D220B4904200DF0F1FFC4E7C0
:107D5000D4F8840101F0FEFDC9E74FF0FF33D0E70E
:107D6000E816050074340020703400200010014033
:107D7000381905000D170500F0B589B00446154601
:107D80001F460E9E012380F87931D0F8A43006A951
:107D900098472968C4F8CC10B5F90430A4F8D2305B
:107DA000D4F8B030C4F8C830B4F9B430A4F8D03046
:107DB00094F8980025F060FC002842D1B4F9D21064
:107DC00094F8980025F07EFC002840D194F8993072
:107DD0001BB12B68069A9A423FD0B4F9D230009377
:107DE000BDF91C30D4F8CC2006992046FFF738F9AD
:107DF000014600233A462046FFF720FAD4F8F070F7
:107E0000274B1B6813F4804F03D0264B1B68032BB2
:107E10002ADC04F1E00001F0B7FED4F8840101F09F
:107E200099FD66B1D4F8B0303360D4F8CC30B3608B
:107E3000B4F8B430B380B4F8D230B381376109B04C
:107E4000F0BD194A4FF4B9711CF09CFDB6E7164A13
:107E500040F273111CF096FDB8E7BDF81C20AB880A
:107E60009A42BAD10027DCE7104BD3F804352A68D0
:107E70000F49A1FB0212A988D4F8F40005900497D9
:107E8000D4F8100103900291C2F3CF320192094A53
:107E900000924FF4C072084904200DF049FFB8E782
:107EA0007434002070340020E816050000100140F2
:107EB00001800080601905000D1705002DE9F041D3
:107EC0008EB0044615461F46149E012280F8782184
:107ED0002A88ADF82C20AA7A8DF82E20D0F89C00A4
:107EE000D0F8C020D2F8048009AA00920BAAC0479B
:107EF000D4F8A4300CA9204698476968C4F8CC107F
:107F0000B5F90830A4F8D230D4F8B030C4F8C8308D
:107F1000B4F9B430A4F8D03094F8980025F0ACFB54
:107F2000002843D1B4F9D21094F8980025F0CAFB88
:107F3000002841D194F899301BB16B680C9A9A4291
:107F400040D0B4F9D2300093BDF93430D4F8CC200D
:107F50000C992046FFF784F8014600233A46204654
:107F6000FFF76CF9D4F8F070294B1B6813F4804FBD
:107F700003D0284B1B68032B2BDC04F1E00001F03D
:107F800003FED4F8840101F0E5FC66B1BDF82430AD
:107F90003380BDF826303381D4F8B0307360D4F824
:107FA000CC30F36037610EB0BDE8F0811A4A4FF46F
:107FB00081711CF0E7FCB5E7174A40F203111CF091
:107FC000E1FCB7E7BDF834202B899A42B9D10027EC
:107FD000DBE7124BD3F8043529886A681048A0FB08
:107FE00002022889D4F8F45006950597D4F8105168
:107FF00004950390C2F3CF3202920191094A009294
:108000004FF48872084904200DF092FEB5E700BFD6
:108010007434002070340020E81605000010014080
:1080200001800080B01905000D17050038B5044621
:108030001546D0F89C30114693F8C40026F08AFD0E
:1080400068B9291D94F8980025F078FB68B905F106
:10805000080194F8980025F099FB60B938BD094AE9
:108060004FF4D4711CF08EFCEBE7064A4FF4D57147
:108070001CF088FCEBE7034A40F2AB111CF082FCD9
:10808000ECE700BFE816050070B584B0044616465C
:108090001D46D0F89C30118893F8C40026F044FDAA
:1080A00060BB716894F8980025F034FB60BBB6F9AA
:1080B000081094F8980025F053FB58BBD4F89C3076
:1080C00001A993F8C40026F045FD48BB02A994F825
:1080D000980025F033FB48BB03A994F8980025F0DD
:1080E00055FB48BB01A9201D24F0FDFF25B104ABC1
:1080F00013E9070085E8070004B070BD114A40F29B
:10810000B9111CF03FFCCCE70E4A40F2BB111CF049
:1081100039FCCCE70B4A4FF4DE711CF033FCCDE7A1
:10812000084A4FF4DF711CF02DFCCFE7054A4FF4ED
:10813000E0711CF027FCCFE7024A40F2C1111CF0AD
:1081400021FCCFE7E816050070B588B00646154655
:108150001C4603A990F8980025F03CFB30BB039A1D
:108160002B4B9A4228D0049A9A4225D000238DF8AE
:108170001430039B0693049B07932A68254B9A426D
:1081800002D201238DF814306A68234B9A4202D937
:1081900002238DF814309DF8143013B324B108ABCA
:1081A00013E9070084E8070008B070BD1B4A40F2DD
:1081B000E3111CF0E7FBD2E7194B1B6813F4804F67
:1081C000D4D0184B1B68012BD0DD174BD3F80435E6
:1081D000164A00924FF4F372154902200DF0A8FDE3
:1081E000C4E72A6806926B6807930392049303A975
:1081F00096F8980025F0DCFA20B905A9301D24F086
:1082000065FFCBE7054A40F203211CF0BBFBF4E716
:108210000100FEFFE0FC1F03E0B11F4EE816050061
:108220007434002070340020001001402018050034
:108230000D17050038B5002845D00446002A44D063
:10824000D0F8A430002B42D0D0F8A0307BB1C4F8D5
:108250009C20C2F8D840D4F89C301E4AC3F8D420E1
:108260002046FFF71DFC054638B1284638BDD0F83A
:10827000A830002BEBD10E25F7E7174BC4F880315F
:10828000164BC4F8E030164BC4F8E430154BC4F874
:10829000E830154BC4F8EC3004F1E000C4F8680194
:1082A000002384F87A3101F0D1FC05460028DCD1A6
:1082B00004F5BE710D4809F006FB0D4808F090F971
:1082C0000C4B1860D1E70E25CFE70E25CDE70E2524
:1082D000CBE700BFD9760200341A0500E97102002D
:1082E000117102000D790200C1770200A43500204F
:1082F000E5700200A035002000286CD030B589B0B0
:10830000054690F89840D0F89C3002A993F8C40034
:1083100026F0A2FB30BB03A9204625F0C1F938BBEB
:1083200004A9204625F00AFA40BB05A9204625F0FD
:10833000DFF948BB0DF11601204625F027FA48BBAE
:1083400006A9204625F046FA50BB069A234B9A42CE
:108350002CD0079A9A4229D002A9284624F0AAFFD5
:1083600009B030BD1E4A40F2C3411CF00BFBD2E7FE
:108370001B4A40F2C4411CF005FBD1E7184A40F209
:10838000C5411CF0FFFAD0E7154A40F2C6411CF087
:10839000F9FACFE7124A40F2C7411CF0F3FACFE7EF
:1083A0000F4A4FF499611CF0EDFACEE70D4B1B68B4
:1083B00013F4804FD0D00C4B1B68012BCCDD0B4B42
:1083C000D3F804350A4A009240F2CB420949022010
:1083D0000DF0AEFCC0E70E20704700BF0100FEFFAD
:1083E000E8160500743400207034002000100140AD
:1083F000201805000D17050020B129B1C0F884111F
:10840000002070470E2070470E20704708B5D0F846
:10841000C83013B1B0F8E810984708BD08B5A038C7
:1084200001F0C0FB08BD000010B582B0134B1C6802
:1084300007E0002204F8042CA4F19C0001F0B2FB38
:108440002468C4B114F8043C002BF9D00C4B1B6811
:1084500013F4804FEDD00B4B1B68032BE9DD0A4B67
:10846000D3F80435094A00924FF4387208490420C1
:108470000DF05EFCDDE7012002B010BDBC35002030
:108480007434002070340020001001407C1A050074
:10849000651A050030B587B00446A0F1F805037FE2
:1084A000012B03D033B1022B08D103E010F8062CC6
:1084B000002AF7D034F80A3C24F80C3C34F8083C85
:1084C00024F80E3C002344F8043C144B1B6813F4BE
:1084D000804F03D0124B1B68032B09DC54F8283C57
:1084E00023B134F80E2C216A2846984707B030BDD6
:1084F0000C4BD3F8043514F83C2C34F80C1C206ACF
:108500000490606A039002910192074A009240F23F
:108510001532064904200DF00BFCDFE7743400200F
:1085200070340020001001408C1A0500651A050007
:108530000F4B1B6813F4804F03D00E4B1B68032BAB
:1085400000DC704700B585B00B4BD3F8043510F84C
:108550003C2C30F8101C02910192084A00924FF412
:108560003F72074904200DF0E3FB05B05DF804FB02
:10857000743400207034002000100140D01A05002F
:10858000651A050038B50D46C4B20231204626F002
:1085900031FB50B9291D204626F054FB50B929461D
:1085A000204626F0FFFA50B938BD074A9B211CF03F
:1085B000E9F9EFE7044A9C211CF0E4F9EFE7024AED
:1085C0009D211CF0DFF9EFE7401A050010B582B0DD
:1085D0000C466946FFF7D6FFBDF80400A04207D35A
:1085E000BDF80200A04202D914B9204600E020469E
:1085F00002B010BD10B582B00446694690F8C400C0
:10860000FFF7C0FFB4F8E830BDF80210BDF8042051
:108610002BB18B4238BF0B46934228BF1346A4F8B8
:10862000E8302046FFF7F2FE02B010BD08B580F832
:108630001431C0F80C112D23C0F810313AB1134693
:108640005268C0F828211B68C0F8083108BD002313
:10865000C0F8283100F5847190F8C40026F040FB82
:108660000028F3D0024A40F2BB311CF08BF9EDE751
:10867000401A05002DE9F04188B004460D46174622
:108680009846A0F5CC76D6F8CC300DF11E013046D8
:10869000984707AA294696F8C40026F04DFB002803
:1086A00040D1A4F5CC75BDF81C1014F8D40CFFF71C
:1086B0008DFF0146A5F8F000B5F8E830A5F8EE30DA
:1086C00095F8C40026F0D0FA90BB34F8A81CA9BBDA
:1086D000CDF81480069714F8D33C2BB1BDF81E20BA
:1086E000BDF81C309A421AD0A4F1A007384601F018
:1086F00059FA34F8A80CBDF81E10002305AA411A37
:108700003046FFF793FF1D4B1B6813F4804F03D0D7
:108710001B4B1B68032B1EDC384601F035FA08B0F2
:10872000BDE8F081174A40F2E7311CF02BF9B8E7B9
:10873000144A4FF47C711CF025F9C6E7002214F8A6
:10874000D40C26F09BF90028C2D00E4A40F2F53135
:108750001CF018F9BCE70C4BD3F8043534F8A82CFE
:1087600005990391069902910192084A009240F2FC
:108770000642074904200DF0DBFACDE774340020EF
:1087800070340020401A050000100140041B050051
:10879000651A050030B585B004460D4630F8B02C9A
:1087A00010F8D40C26F0AEFA50B9124B1B6813F433
:1087B000804F03D0104B1B68042B07DC05B030BD85
:1087C0000E4A40F2CE311CF0DDF8EEE70C4BD3F848
:1087D000043514F8D42C34F8B01C0391029501929E
:1087E000084A009240F2D332074905200DF0A0FA62
:1087F000E4E700BF7434002070340020401A050004
:10880000001001403C1B0500651A050038B51446F0
:10881000054638B132B1214695F8200026F060FABD
:1088200020B938BD784601F0D3FEF4E7024A40F2A1
:10883000ED111CF0A7F8F4E7401A050030B583B03D
:10884000054614467AB1694695F8C400FFF79AFECA
:10885000BDF802306380BDF80430A3809DF800307D
:10886000237003B030BD784601F0B2FEEBE70000A4
:1088700070B582B014461D46064688B182B12168A3
:1088800096F8200026F018FA70B92368019301A920
:10889000304623F0E5FA0DB123682B6002B070BDBD
:1088A000784601F095FEEAE7024A40F205211CF005
:1088B00069F8EAE7401A050010B582B00446B0F83E
:1088C000E830ADF80030B0F8EA30ADF80230019190
:1088D000D0F8D4301BB16946D0F8D8009847694623
:1088E000201D25F061FD02B010BD000030B585B03F
:1088F0000446A0F1F80530F8083C20F80E3C90F84A
:108900002C20022A01D020F8103C2846FFF772FEE6
:10891000224B1B6813F4804F03D0214B1B68032BA1
:1089200017DC54F8283C23B134F80E2C216A284671
:10893000984734F8101CF1B934F8101C14F8340CB2
:1089400026F092F920BB00212846FFF7B5FF05B0BD
:1089500030BD144BD3F8043514F83C2C34F8101CFB
:1089600002910192104A00924FF464720F49042060
:108970000DF0DEF9D5E7012214F8340C26F07EF86C
:108980000028D9D00A4A40F29F311BF0FBFFD3E701
:10899000074A40F2A3311BF0F5FFD4E774340020FE
:1089A0007034002000100140801B0500651A05008E
:1089B000401A050030B587B01446054600B3FAB139
:1089C000D5F8CC300DF1160128469847BDF8163081
:1089D000238095F82431022B16D0B5F8EA30638055
:1089E00005F1F80001F0ECF860601D4B1B6813F412
:1089F000804F03D01B4B1B68042B1FDC07B030BD1E
:108A0000784601F0E5FDDBE704A995F8C400FFF71F
:108A1000B9FDB5F8EA20BDF814309A420BD0002316
:108A20006380D5F8183123B1D5F81C310BB14FF064
:108A3000FF336360D9E74FF6FF73F1E70A4BD3F8D2
:108A40000435228861886068039002910192074A88
:108A50000092D322064905200DF06AF9CEE700BF47
:108A6000743400207034002000100140B41B050055
:108A7000651A05002DE9F04182B00446A0F1F8081E
:108A800001F0C1F80546204601F09AF8074694F82F
:108A90002C30022B35D034F80E3C34F80C6C9B1B78
:108AA0004FEAE37CA3FB0501226AD31705FB0C11F7
:108AB00027F055FE0644694614F8340CFFF762FDB2
:108AC00076B3BDF80430BDF802008642B8BF064652
:108AD0009E42A8BF1E46B6B224F8106C4046FFF76F
:108AE00095FC94F82C30022B1CD0B7F5FA7F05D9F1
:108AF00054F8043CEB1AB3F57A7F33D802B0BDE8E2
:108B0000F08134F80C6C606A4FEAE07CA5FB000150
:108B1000226A002305FB0C1127F021FE0644CAE758
:108B20000026D9E734F8102C636A002B03DDBDF86A
:108B300004108A4212D0002B0ADB0023002BD4D071
:108B4000012384F898300B4B186807F069FDCCE7D7
:108B5000BDF802309A4203D00023EFE70123EDE78E
:108B60000123EBE744F8045C39464046FFF7A4FED6
:108B7000C4E700BFB8350020F8B138B50D4604464B
:108B80000F4BC0F8C0300F4B0F4A1A600F4A5A60A3
:108B9000C0F8B8300E4B0F4A1A600F4A5A60C0F83E
:108BA000AC30C43026F0E0F800B138BD84F8C50020
:108BB0002946204625F024FCF7E70E20704700BF29
:108BC000841C0500B03500200D8C0200DD8B0200F6
:108BD000A8350020718802000D88020038B51446BF
:108BE000054638B132B1214695F8600025F034FFD2
:108BF00020B938BD784601F0EBFCF4E7024A40F2B8
:108C0000D5111BF0BFFEF4E7401A050070B51446FD
:108C10001D46064650B14AB1217896F8600025F00D
:108C200005FF38B90DB123782B7070BD784601F07F
:108C3000CFFCF1E7024A40F2C1111BF0A3FEF1E7BD
:108C4000401A0500F0B587B015461F460C9E044635
:108C500038B332B3D4F8DC302BB1B5F9001089B297
:108C6000D4F8E000984702233A46B5F900102046B0
:108C7000FFF7DCFCD4F8CC3004F1E801204698473B
:108C800004A994F8C400FFF77DFCB5F90030002B6F
:108C90000BDDD4F8082142B1BDF81430A4F8F0304F
:108CA00009E0784601F094FCD4E7002B2EDBB4F801
:108CB000E830A4F8F030284B1B6813F4804F03D041
:108CC000264B1B68032B2ADC04F1F80000F05CFF44
:108CD000B5F900301BB1D4F80831002B34D19EB166
:108CE000B4F8E8303380B4F8EA20BDF814309A4282
:108CF0002FD000237380D4F8083123B1B5F90030A8
:108D00000BB14FF0FF33736007B0F0BDD4F80831FA
:108D1000002BCCD0BDF81230A4F8F030CBE7104BCC
:108D2000D3F80435B5F90020D4F808110391D4F82C
:108D30002811029101920B4A00924FF4CB720A491A
:108D400004200CF0F5FFBFE7D4F89C0100F002FE10
:108D5000C5E74FF6FF73CDE7743400207034002070
:108D600000100140DC1B0500651A0500F0B589B054
:108D700015461F460E9E0446002853D0002A51D0A7
:108D8000D4F8DC301BB12988D4F8E0009847D4F837
:108D9000CC300DF11E0120469847298894F8C40074
:108DA000FFF714FC0146A4F8F000B4F8E830A4F88A
:108DB000EE3094F8C40025F057FF002836D1B4F8FF
:108DC000F010002937D194F8C53023B12A88BDF8B6
:108DD0001E309A4251D0B4F8F000BDF81E100023A6
:108DE0003A46411A2046FFF721FCD4F80851244B9B
:108DF0001B6813F4804F03D0224B1B68032B26DC27
:108E000004F1F80000F0C0FED4F89C0100F0A2FDCF
:108E100036B1B4F8E8303380B4F8F0307380756060
:108E200009B0F0BD784601F0D3FBA9E7164AF2215C
:108E30001BF0A8FDC3E7002294F8C40025F01EFE35
:108E40000028C0D0104AF5211BF09CFDBBE70F4B5A
:108E5000D3F80435B4F8F020D4F80C11049103953C
:108E6000D4F8281102910192094A009240F20112AD
:108E7000084904200CF05CFFC2E70025C8E700BFEA
:108E80007434002070340020401A050000100140A6
:108E9000101C0500651A0500F0B589B015461F467F
:108EA0000E9E044600284BD0002A49D0D4F8DC306E
:108EB0001BB12988D4F8E000984704F1080022F09B
:108EC0003DFE84F8F200444B1B6813F4804F13D02E
:108ED000424B1B68032B0FDD414BD3F804352A7935
:108EE00090B34049029101923F4A009240F23312FE
:108EF0003E4904200CF01CFFD4F8CC3004F1E8010A
:108F00002046984706A994F8C400FFF73BFB94F865
:108F1000F2301BB1B4F8E820A4F8EE20B3B1B4F8F5
:108F2000E8102B681944002915DDBDF81C308B4270
:108F300012DBBDF81A309942B8BF19468BB20BE06C
:108F4000784601F045FBB1E72949CBE7B4F8EE10CC
:108F50002B681944E7E70023A4F8F03001233A46D0
:108F600029682046FFF762FB1B4B1B6813F4804FF8
:108F700003D01A4B1B68032B11DC04F1F80000F03E
:108F800003FE2B6813BB46B1B4F8E8303380B4F865
:108F9000F0307380D4F80831736009B0F0BD104B25
:108FA000D3F80435B4F8F0200492D4F808210392E1
:108FB000D4F8282102922A6801920E4A00924FF4B6
:108FC000A8720A4904200CF0B3FED6E7D4F89C013D
:108FD00000F0C0FCD7E700BF7434002070340020DC
:108FE00000100140F818050000190500651A050079
:108FF000D8180500501C050038B50C46054620B1B0
:109000002146281D25F0EEF938BD784601F0E0FA3A
:10901000F6E7000070B582B005461C461646C2B1A0
:10902000694695F8C400FFF7ADFA00238DF80030CB
:10903000318891B901238DF8003044B1BDF8023078
:109040006380BDF80430A3809DF80030237002B027
:1090500070BD784601F0BCFAE2E7ADF80210738803
:10906000ADF8043095F8C40025F0AEFD90B9BDF818
:10907000041095F8C40025F0CFFD88B99DF80010C4
:1090800095F8C40025F078FD80B969462846FFF7B9
:10909000B3FFD2E7084A40F27F211BF073FCE6E7FA
:1090A000054A4FF420711BF06DFCE7E7024A40F2DD
:1090B00081211BF067FCE8E7401A050030B583B05A
:1090C0000C460023ADF80430054638B1ADF8044035
:1090D00001A9281D25F079F903B030BD784601F0CB
:1090E00077FAF3E770B504461D4616466AB1318833
:1090F00094F8C40025F018FD58B931882046FFF7D0
:10910000DDFF0DB133882B8070BD784601F060FA29
:10911000EDE7034A40F23E211BF034FCEDE700BFCF
:10912000401A050038B50446154632B1294694F870
:10913000C40025F00FFD20B938BD784601F048FA8B
:10914000F4E7034A40F225211BF01CFCF4E700BFC2
:10915000401A050038B50446154632B1294694F840
:10916000C40025F0B7FC20B938BD784601F030FACC
:10917000F4E7034A40F21A211BF004FCF4E700BFB5
:10918000401A050038B500283AD00446D0F8CC3053
:10919000002B37D0D0F8C83033B12046FFF7ECFCB5
:1091A000054638B1284638BDD0F8D030002BF4D170
:1091B0000E25F7E7144BC4F89831144BC4F8F83077
:1091C000134BC4F8FC30134BC4F80031124BC4F8F5
:1091D000043104F1F800C4F88001002384F89031D0
:1091E00000F034FD05460028DCD104F5CA710B48B7
:1091F00008F069FB0A4807F0F3F90A4B1860D1E759
:109200000E25CFE70E25CDE7A81C0500318502000D
:1092100095840200758A0200ED880200BC350020AA
:1092200029840200B835002000285AD030B585B016
:10923000054690F8C44002A9204625F0B3FC30BB97
:109240000DF10A01204625F0D5FC30BB03A92046CC
:1092500025F0F8FC38BB6946204625F0FDFB40BBF5
:109260000DF10201204625F015FD40BB01A9204665
:1092700025F030FC48BB0DF10601204625F06AFCC4
:1092800048BB6946284625F087F905B030BD164A27
:109290004FF48B611BF076FBD2E7134A40F2594141
:1092A0001BF070FBD2E7104A40F25A411BF06AFBF8
:1092B000D1E70D4A40F25B411BF064FBD0E70A4A5C
:1092C00040F25C411BF05EFBD0E7074A40F25D4193
:1092D0001BF058FBCFE7044A40F25E411BF052FB03
:1092E000CFE70E20704700BF401A050020B129B11A
:1092F000C0F89C11002070470E2070470E20704768
:109300005038704710B586B0FFF7FAFF0446154B8A
:109310001B6813F4804F03D0134B1B68042B0BDC2A
:109320000023A4F84830236C23B1B4F84A20216FFD
:109330002046984706B010BD0C4BD3F8043590F882
:109340003420B0F84A10006F0490606F03900291CF
:109350000192074A00924FF4C672064905200CF0AC
:10936000E7FCDDE774340020703400200010014079
:10937000E81C0500D91C050000B583B0FFF7C0FF4D
:109380000D4B1B6813F4804F03D00C4B1B68042B50
:1093900002DC03B05DF804FB094BD3F8043590F808
:1093A00034200192074A009240F2831206490520B8
:1093B0000CF0BEFCEDE700BF7434002070340020D8
:1093C0000010014064170500D91C050000B585B0E8
:1093D0008DF80410B0F84830ADF80630B0F84A30D7
:1093E000ADF80830039201A9043025F0F1FE05B074
:1093F0005DF804FB10B584B0FFF782FF0446B0F8B7
:109400004A20A0F848200023A0F84A30134B1B68DC
:1094100013F4804F03D0124B1B68042B0DDC236C1C
:1094200023B1B4F84A20216F20469847226F0021CB
:109430002046FFF7CBFF04B010BD0A4BD3F804352C
:1094400090F8341002920191074A00924FF4D272C0
:10945000064905200CF06CFCE1E700BF74340020E5
:1094600070340020001001402C1D0500D91C05009F
:1094700070B138B50C4605463C3026F04FF800B1C7
:1094800038BD044BAB632146284625F0AFFEF7E715
:109490000E207047981E050038B5044680F86C20F1
:1094A000012343662D2383660D4629B16B68C4F8FA
:1094B00080302B68236638BD784601F089F8F5E7DF
:1094C0002DE9F0418AB015469846109E0446E0B159
:1094D000DAB1B4F8482029888A421AD1002246B16C
:1094E0003270B4F848307380B4F84A30B380236ED9
:1094F000B360434B1B6813F4804F03D0414B1B6890
:10950000032B6ADC0AB0BDE8F081784601F060F810
:10951000DFE70DF11B0294F83C0025F0C3FF07467E
:10952000002858D1002308930993B8F1000F1AD0EE
:10953000002241462046FFF7AFFF2B88A4F84A30AF
:10954000D4F8F030BB4221D907F13A0354F8230094
:109550000368D3F80480236ED4F880209DF81B1094
:10956000C0470137ECE7236B9B685B6853B1206B06
:1095700083685B6807AA00219847079B08930DF151
:109580002008D5E7784601F023F8F0E71C4B1B686C
:1095900013F4804F03D01B4B1B68042B05DC04F134
:1095A000500000F0F1FA002299E7174BD3F8043588
:1095B0002A88216E0491D4F8801003919DF81B1025
:1095C00002910192114A009240F22B12104905209B
:1095D0000CF0AEFBE3E7022281E70B4BD3F8043536
:1095E000B4F84810B4F84A00039002910192094A75
:1095F00000924FF49F72064904200CF099FB81E71A
:10960000743400207034002000100140641D0500F7
:10961000D91C05009C1D050070B506460D460024AA
:1096200001E0023501340F2C0CD82A46E1B296F83D
:109630003C0025F03FFF0028F3D0034A62211BF0D5
:10964000A1F9EEE770BD00BFB41C050030B583B0D2
:1096500014460546A0B19AB100232370B5F84830EE
:109660006380211D2846FFF7D7FF0E4B1B6813F4BC
:10967000804F03D00C4B1B68032B05DC03B030BDBF
:10968000784600F0A5FFE7E7084BD3F80435628879
:109690000192074A0092F822064904200CF048FB88
:1096A000ECE700BF7434002070340020001001404B
:1096B000D01D0500D91C050030B587B014460546FD
:1096C000E0B1DAB100232370B5F848306380B5F813
:1096D0004A30A38095F87C30022B13D12B6F0BB14D
:1096E0004FF0FF33A360144B1B6813F4804F03D07B
:1096F000124B1B68032B0BDC07B030BD784600F023
:1097000067FFDFE705F1500000F05AFAA060EAE7D2
:109710000B4BD3F804356288A188686F0490A06869
:10972000039002910192074A0092E2220649042026
:109730000CF0FEFAE0E700BF743400207034002023
:1097400000100140F41D0500D91C0500F0B587B0DC
:1097500017461D460446E0B1DAB10DF1170239880B
:1097600094F83C0025F0C0FE064620BBB4F8482023
:109770003B889A4203D0B4F84A20934217D104F1AF
:10978000500000F00FFA0023A4F84A30A4F8483043
:109790000DE0784600F01CFFDFE706F13A0354F8CD
:1097A000230003689B689DF8171098470136D4F88A
:1097B000F030B342F1D845B100232B70B4F84830F3
:1097C0006B80291D2046FFF727FF0E4B1B6813F403
:1097D000804F03D00C4B1B68032B01DC07B0F0BD9E
:1097E0000A4BD3F80435B4F84A20B4F84810029173
:1097F0000192074A0092C322064904200CF098FA0D
:10980000ECE700BF743400207034002000100140E9
:109810003C1E0500D91C0500F0B587B017461D4653
:10982000044668B162B10DF11702398894F83C0022
:1098300025F014FE0646B8B93B88A4F848300DE080
:10984000784600F0C5FEEEE706F13A0354F823002F
:1098500003681B689DF8171098470136D4F8F0305C
:10986000B342F1D8002600E001263DB12E70B4F8D5
:1098700048306B80291D2046FFF7CEFE0E4B1B683B
:1098800013F4804F03D00D4B1B68032B01DC07B092
:10989000F0BD0B4BD3F80435B4F84A20B4F84810A7
:1098A000039102920196074A0092982206490420E9
:1098B0000CF03EFAEBE700BF743400207034002057
:1098C00000100140641E0500D91C050000B310B54E
:1098D0000446036CFBB1FFF7CBFD034608B1184605
:1098E00010BD0023A4F848300C4A22650C4A62657A
:1098F000A3650C4BE36504F15000C4F8D80000F0F8
:10990000A5F903460028EAD10022C4F8F020E6E7D2
:109910000E23184670470E23E1E700BF799302003B
:1099200005930200F5930200024668B171B1D0F8C8
:10993000F030012B0CD803F13A0042F8201001332B
:10994000C2F8F030002070470E2070470E2070479C
:10995000042070470023A0F84830704708B5034B37
:1099600053F820300846984708BD00BFAC1E0500DC
:1099700008B5034B53F820300846984708BD00BF90
:10998000C41E050008B5836803B1984708BD006B85
:10999000003818BF012070470369013B13F1030F22
:1099A00003D843691BB9002070470020704701208D
:1099B000704708B5024601218C300BF02EF908BD26
:1099C00008B50A4600230B63022102F18C000BF05C
:1099D00024F908BD90F82C30022B01D100207047EB
:1099E00010B50446383022F01CF94FEA411C4CEA0D
:1099F000D06C4201121A6CEB010C4FEA8C0C4CEA51
:109A0000927C93001B1841EB0C01C90041EA537191
:109A1000C3F3103343EA4143C90B226A934271F105
:109A2000000301D3012010BD0020FCE710B504465F
:109A3000002303630362703005F014FF04F1380063
:109A400022F02BF910BD10B50446383022F025F96C
:109A500000232362E3680BB12046984710BD08B588
:109A6000844600F1200E00F110030FCB8EE80F00AA
:109A70006046FFF7E8FF08BD08B5FFF7E4FF08BD43
:109A800070B5044600F13805284622F006F904F1C5
:109A9000200604F110030FCB86E80F00636A83EA07
:109AA000E376A6EBE376002B43D0226AD30E510176
:109AB000891A63F100039B0043EA917389008918B6
:109AC00043F100034FEAC30C32460023C8004CEABE
:109AD000517126F0DDFDA66AF20E73019B1B62F147
:109AE0000002920042EA93729B009B1942F100022D
:109AF000D20042EA5372DB001E469446984271EB54
:109B0000020301D306468C46B6F57A7F7CF100034A
:109B100013D221220023C4E91023012384F8383012
:109B2000284622F091F818B963680BB1204698478F
:109B300070BD784600F04CFDB7E74FEACC3141EA02
:109B40005641F60305483018054A4FF0000341F12D
:109B5000000126F09DFDC4E91001DEE720A1070009
:109B600040420F0010B5044605F0C8FE236B4FF4C9
:109B70007A7101FB030104F1700005F08BFE23688C
:109B80000BB12046984710BD10B5044630B12246AF
:109B9000002104F18C000BF040F810BD784600F075
:109BA00017FDF4E710B5044630B12246032104F155
:109BB0008C000BF032F810BD784600F009FDF4E798
:109BC00038B50546D8B12C6A05F1380022F029F8DD
:109BD0004A0142EAD06243011B1A62EB0102920081
:109BE00042EA93729B00181841EB0201C90041EA56
:109BF0005071C0F3103040EA4140201A38BD784619
:109C000000F0E6FCDFE710B50446D8B104F13800F7
:109C100022F007F884464A0142EAD06243011B1A47
:109C200062EB0102900040EA93709B0013EB0C037F
:109C300041EB0000C00040EA5370C3F3103343EA25
:109C4000404010BD784600F0C3FCDFE738B504465D
:109C500090B1C4F880400A4BA367A464094BE36445
:109C600004F1380022F030F80546074904F18C0071
:109C70000AF0BDFF284638BD784600F0A9FCE8E7A9
:109C8000C1990200B3990200FC1E050069DF70470C
:109C900003781F2B00D07047014B01221A70FAE79E
:109CA000C33500203F4B1B78002B79D000B587B01F
:109CB000012804D003286CD007B05DF804FB002312
:109CC000019301A901201AF039F800284BD1002393
:109CD0000393049305939DF80C20012363F303027F
:109CE0008DF80C20D2B263F307128DF80C209DF88A
:109CF0000D2063F301028DF80D201823ADF8163006
:109D0000019A03A94120FFF7C1FF78BB01A81AF00F
:109D1000E3F870BB244B1B6803B1984701230293FF
:109D200002A90DF1020015F00BFB28BBBDF80200E3
:109D300014F0A6FE0DF1010115F048F8F8B90FF086
:109D4000A5FC9DF8011000200FF0A0FFD0B905F090
:109D500001FAD8B9134B00221A70134B5B68002B21
:109D6000AAD09847A8E71AF0FFFDB0E71AF0FCFD6B
:109D7000CCE71AF0F9FDCDE71AF0F6FDD6E71AF0B8
:109D8000F3FDDCE7784600F023FCE0E71AF0ECFD99
:109D9000E0E71AF057F900288ED01AF0E5FD8BE7BE
:109DA000704700BFC2350020C435002008B5064BFF
:109DB00001221A70054805F03BFA05F01DFA00B9BA
:109DC00008BD1AF0D1FDFBE7C23500201034002099
:109DD00008B503781C2B00D008BD074B1B78002B5F
:109DE000FAD01AF073F918B9044805F025FAF3E728
:109DF0001AF0BAFDF8E700BFC23500201034002089
:109E000008B5094B1B7863B9084909481CF0D4F917
:109E100040B9032300220749496907481CF0E8F9C3
:109E200000E0082008BD00BFC3350020E035002059
:109E30004C390020C43500201838002008B50378BC
:109E4000023B082B3FD8DFE803F01C05113E3E2CF7
:109E50003E3E36001E4B9B68002B34D0007A002813
:109E600031D01C4A0121117098472CE0184BDB6857
:109E70004BB3184A127832B3164A00211170984732
:109E800021E0154B1B784BB9114B1B691BB1114AD3
:109E9000002111709847FFF7B3FF14E0FFF786FF2A
:109EA00011E010220A4B99690C481CF02AFA50B1B3
:109EB0001AF05AFD07E08168C0680EF021F818B961
:109EC000054B01221A7008BD1AF04EFDF8E700BFDD
:109ED000C4350020C0350020C135002018380020CE
:109EE00010B586B08446224A03AB07CA03C323F8E1
:109EF000022B120C1A701F4CA646BCE80F00AEE8ED
:109F00000F009CE807008EE80700A369002B2DD006
:109F1000194B009303AB194A19491A481CF00AF966
:109F2000034610B1184606B010BD17481DF0C0FE1C
:109F3000014614481CF02AF903460028F2D11348C0
:109F40001EF036F803460028ECD110481EF068F8E1
:109F500001460C481CF01AF903460028E2D10C48CF
:109F600005F066F9FFF74CFF0346DBE70723D9E767
:109F70000C1F0500C43500203D9E0200E035002086
:109F80004C3900201838002000360020C837002047
:109F90001C34002008B5064B1B681BB906E0044BB7
:109FA0001B68984717F048FE0028F8DA08BD00BF84
:109FB0008C39002010B50C46134B1860134A012150
:109FC000134825F0FBFD98B9610CE00341F2707372
:109FD000984271F1000310D34FF47A72002326F0F7
:109FE00057FB014600220B4825F0FEFD38B910BD95
:109FF000094A4F211AF0C6FCE6E70521F2E7064AB6
:10A0000050211AF0BFFCF2E78C390020959F020026
:10A010004C1F050090390020181F0500002800F093
:10A0200082802DE9F04FD1B004463F4B1B6813F4FA
:10A03000804F03D03D4B1B68032B31DC3A4B1B6830
:10A0400013F4804F03D0394B1B68032B2ADC51B02B
:10A05000BDE8F08FE25C36490D68100959002E5CAE
:10A060000FA800F8136002F00F020131AA5C4254FD
:10A0700001330F2BEED90FAA00238DF85C3003F1CA
:10A08000804303F58833D3F804350292294A0192BC
:10A09000294A00924222294904200BF049FECDE7CB
:10A0A0000023E6E7264BD3F804350D93206802021F
:10A0B00002F47F0242EA0062010A01F47F4142EAAF
:10A0C0000108B4F804C04FEA0C2292B2B4F806E0DA
:10A0D0004FEA0E2189B2257A667AA77AE37A94F854
:10A0E0000C9094F80DA094F80EB0E47B0B94CDF88E
:10A0F00028B0CDF824A0CDF82090079306970596B8
:10A10000049541EA1E21039142EA1C22029248EA88
:10A11000106001900B4A00920D9B432207490420D6
:10A120000BF006FE93E77047743400207034002073
:10A1300078340020881F0500A4140500751F050051
:10A14000001001409C1F050072DF704773DF7047ED
:10A1500074DF70472DE9F047A2B007468846914664
:10A16000324C002525606560A560E56030490B78BC
:10A17000C3EB43102F4E064426602F4A0244A260D0
:10A180001F22A280A281013303F001030B704FF064
:10A190003C0A5246294613A826F009FC06238DF8EE
:10A1A0004F30ADF8487001238DF84A30ADF85C307F
:10A1B00012AA1892ADF83C70ADF84090CDF84480EA
:10A1C0000DEB0A021D928DF87830524629466846FA
:10A1D00026F0EDFB02238DF80030221D314613A836
:10A1E00019F096FC90B9114B03F10C02996868467E
:10A1F00019F08EFC68B9114A0C491148FFF7A4FF09
:10A20000082809D070B922B0BDE8F0871AF0ACFB7D
:10A21000E9E71AF0A9FBEEE7002204490848FFF736
:10A2200093FFEFE71AF0A0FBEDE700BFF439002041
:10A23000B0390020B4390020043A00202C3400202A
:10A2400028340020B0F5202F0AD2074BA3FB0023AF
:10A25000DB0808B103B90123044A93819160704778
:10A260004FF6FF73F5E700BFCDCCCCCC2C340020EB
:10A2700008B50121054B1878FFF768FF18B90020D1
:10A2800005F08EFF08BD1AF06FFBF8E728340020B8
:10A2900008B5044B1878FFF75BFF00B908BD1AF04A
:10A2A00063FBFBE72834002076DF70477ADF7047D6
:10A2B0007CDF704769DF704708B51AF055FB08BDB1
:10A2C00008B504F0BDFF08BD00B583B0037823B125
:10A2D000012B0BD003B05DF804FB3B214088FFF756
:10A2E000E3FF0028F6D01AF03FFBF3E7094B1B68A9
:10A2F00013F4804FEED0084B1B68032BEADD074BAD
:10A30000D3F80435064A00926822064904200BF06F
:10A310000FFDDFE77434002070340020001001408E
:10A320001C2005000120050000B585B019F08AFE4B
:10A3300060BB0023039303A9012019F0FFFC40BB7D
:10A3400000230093019302939DF80020012363F3FF
:10A3500003028DF80020D2B263F307128DF80020BB
:10A360009DF8012063F301028DF801201823ADF858
:10A370000A30039A69464120FFF79CFF60B903A8A1
:10A3800019F0AAFD58B905B05DF804FB1AF0ECFA13
:10A39000CFE71AF0E9FAD3E71AF0E6FAEFE71AF096
:10A3A000E3FAF0E700B585B09DF80C30012262F3C6
:10A3B00003038DF80C30DBB262F307138DF80C3019
:10A3C00018220F4903A8FFF773FF98B900230193E0
:10A3D00002937823ADF80430C823ADF806304FF46B
:10A3E000C873ADF80A3001A8FFF760FF28B905B0BF
:10A3F0005DF804FB1AF0B8FAE8E71AF0B5FAF6E7E8
:10A400004820050000B58BB001AA002301930293F8
:10A410007821ADF80410C821ADF806104FF4C871CA
:10A42000ADF80A10039304930593069307930893DA
:10A430000993039240F6CD4304934FF48033059380
:10A4400003238DF81830074B0893074B099303A893
:10A4500019F0EAFF10B90BB05DF804FB1AF084FAAA
:10A46000F9E700BFC9A20200B9A2020006207047A6
:10A4700000B587B044F2010398425DD01BD8012893
:10A4800036D041F20103984271D1474B1B6813F457
:10A49000804F36D0454B1B68002B32DD444BD3F840
:10A4A000043502920191434A0092632242490120FD
:10A4B0000BF03EFC25E044F20203984257D13A4BA0
:10A4C0001B6813F4804F1CD0384B1B68002B18DD21
:10A4D000374BD3F80435106803905268029201910B
:10A4E000364A00926922344901200BF021FC08E031
:10A4F0002D4B1B6813F4804F03D02C4B1B68002B93
:10A500000DDC4FF0A0434FF4F012C3F81825C3F848
:10A510000C25EFF3108372B64DF6AD6C3DE0244B85
:10A52000D3F8043502920191254A00926022224913
:10A5300001200BF0FDFBE4E71B4B1B6813F4804F7D
:10A54000DFD01A4B1B68002BDBDD194BD3F8043529
:10A550001068049050680390029192680192194A21
:10A5600000927322144901200BF0E2FBC9E70E4B65
:10A570001B6813F4804FC4D00C4B1B68002BC0DD4C
:10A580000B4BD3F8043501910F4A00927B220A4904
:10A5900001200BF0CDFBB4E730BF0C4B1B78002B38
:10A5A000FAD107B05DF804FB743400207034002049
:10A5B00000100140B820050089200500DC200500BE
:10A5C0009C200500FC2005002021050044340020CB
:10A5D00000B583B0014600230093054B01936A4602
:10A5E00044F20200FFF744FF03B05DF804FB00BF34
:10A5F000C817050038B505464FF0A0430322C3F83D
:10A600007C274FF00042C3F80C250C4C44F00104A9
:10A610004FF4A070A047012D09D04FF4A050A047DF
:10A620004FF0A0434FF00042C3F8082538BD4FF06B
:10A63000A0434FF00042C3F80825EEE74021050093
:10A6400038B50546002407E045FA04F000F00100A3
:10A65000FFF7D0FF0134E4B2072CF5D94FF4C8500E
:10A66000024B43F00103984738BD00BF402105006D
:10A6700070B54FF0A0440323C4F87C374FF0004678
:10A68000C4F80C650D4D45F001054FF4FA40A8479C
:10A69000C4F808650023C4F87C374FF4F060A8477D
:10A6A000D4F810354FF4EB40A847D4F81035002B00
:10A6B00001DB002070BD0120FCE700BF4021050048
:10A6C00038B54FF0A0450323C5F87C374FF0004361
:10A6D000C5F80C35094C44F00104C020A047002304
:10A6E000C5F87C374FF42070A047D5F81055ED0F12
:10A6F0004FF45460A047284638BD00BF40210500F4
:10A7000038B50025012401E06400E4B22CB1FFF764
:10A71000D7FF0028F8D02543F6E7284638BD70B5A6
:10A7200006460D46FFF7A4FFCC20FFF789FFBE20A9
:10A73000FFF786FF002404E0FFF7E2FF3055013405
:10A74000E4B2AC42F8D3FFF793FF70BD08B5FFF752
:10A750008FFFCC20FFF774FF4420FFF771FF08BD87
:10A7600000B585B0FFF7F2FF022101A8FFF7D7FF80
:10A770009DF805301B021BB29DF80400184325F01C
:10A7800049FF0022044B25F09DFD25F057FF00EE08
:10A79000100A05B05DF804FB0000B03F10B5044698
:10A7A000FFF766FFCC20FFF74BFF4E20FFF748FF77
:10A7B0000020FFF745FF6420FFF742FF0B2C0DD070
:10A7C0000C2C05D00A2C0DD01F20FFF739FF02E01A
:10A7D0007F20FFF735FFFFF74BFF10BD5F20FFF72E
:10A7E0002FFFF8E73F20FFF72BFFF4E710B582B00B
:10A7F000044680F87430C1662D2303673AB11346CE
:10A800005268C0F888201B68836602B010BD002122
:10A81000C0F888100191D0F8F430186B83685B6839
:10A8200001AA9847019BA366EFE708B59838FFF7A0
:10A83000B9F908BD10B582B00146436A40F80C3C36
:10A8400030F9063C20F8083C30F9042C20F80E2C96
:10A8500050F81C4C2CB1583891F82C3092B2096A3F
:10A86000A0470B4B1B6813F4804F03D0094B1B68A8
:10A87000042B01DC02B010BD074BD3F80435074AA6
:10A880000092AF22064905200BF052FAF2E700BF12
:10A890007434002070340020001001407C21050039
:10A8A0006D2105000C4B1B6813F4804F03D00B4B3C
:10A8B0001B68042B00DC704700B583B0084BD3F84D
:10A8C0000435084A00929C22074905200BF030FA13
:10A8D00003B05DF804FB00BF743400207034002026
:10A8E00000100140942105006D210500F0B589B0EC
:10A8F000044615461E46A0F1F0070DF11E0210F8A1
:10A90000F00C25F0C5FA58BBBDF91E1024F89C1CAC
:10A9100034F9A83C24F89E3C14F8C00C25F076FAD3
:10A9200020BB05960695A4F198052846FFF73AF94D
:10A9300034F99C0C34F99E1C002305AA411A3846B0
:10A94000FFF754FF164B1B6813F4804F03D0154BD1
:10A950001B68042B10DC2846FFF716F909B0F0BD80
:10A96000114A40F2B7111AF00DF8CDE70E4A40F245
:10A97000BD111AF007F8D4E70C4BD3F8043534F9BD
:10A980009C2C05990391069902910192084A009224
:10A990004FF4E572074905200BF0CAF9DBE700BF69
:10A9A000743400207034002048210500001001405C
:10A9B000A42105006D21050008B530F9A82C10F878
:10A9C000F00C25F04BFA00B908BD034A40F2AB1178
:10A9D00019F0D8FFF8E700BF4821050070B584B032
:10A9E000044615461A46089EB5F90030002B2BDDAB
:10A9F00047F6FF73A0F85430B4F94830A4F8523049
:10AA00000223B5F900102046FFF7F0FE1D4B1B682E
:10AA100013F4804F03D01C4B1B68032B19DC04F18B
:10AA20005800FFF7B1F8B5F9003033BB56B1B4F9AF
:10AA300048303380B4F954307380A36E0BB14FF0BB
:10AA4000FF33736004B070BD4FF40043A0F854307E
:10AA5000D2E70E4BD3F80435B5F90020A16E03916F
:10AA6000D4F8881002910192094A009240F28B12A8
:10AA7000084904200BF05CF9D1E7D4F8F400FEF7A4
:10AA800069FFD3E7743400207034002000100140C7
:10AA9000D82105006D210500F0B587B004461546A4
:10AAA0001F460C9EB2F90010A0F85410B0F94830BF
:10AAB000A0F8523090F8300025F0A8F938BBB4F96E
:10AAC0005400B4F9521000233A46411A2046FFF7C9
:10AAD0008DFE214B1B6813F4804F03D01F4B1B6866
:10AAE000032B1ADC04F15800FFF74EF8B4F94820A4
:10AAF000B5F900309A4229D13EB1B4F948303380DB
:10AB0000B4F954307380A36E736007B0F0BD144A7B
:10AB100040F21F1119F036FFD1E7124BD3F804357C
:10AB2000B4F9542094F874100591E16E0491A16E6B
:10AB30000391D4F88810029101920B4A009240F2DE
:10AB400027120A4904200BF0F3F8CBE7D4F8F400FD
:10AB5000FEF700FFD0E700BF7434002070340020FF
:10AB60004821050000100140082205006D21050064
:10AB700070B586B00446A0F1580630F9043C20F8C0
:10AB80000E3C90F82C20022A01D020F8103C34F919
:10AB9000103CADF8103034F90E3CADF81230002303
:10ABA000059304A9A4F1580021F028FC54F8243C92
:10ABB0001BB134F9101C3046984754F81C5C3DB169
:10ABC00034F90E2C94F82C3092B2216A3046A84702
:10ABD0000D4B1B6813F4804F03D00C4B1B68042BE8
:10ABE00001DC06B070BD0A4BD3F8043534F9102CE3
:10ABF00034F90E1C02910192064A0092EF22064996
:10AC000005200BF095F8ECE7743400207034002038
:10AC1000001001404C2205006D210500F0B583B005
:10AC20000446A0F1580690F82C30022B27D030F9BA
:10AC30000E5C30F9080C2D1A87B22046FEF7E3FFB0
:10AC40008446E917A5FB0005226A00230CFB01518D
:10AC500025F085FD384424F8100C54F8243C1BB131
:10AC600034F9101C30469847174B1B6813F4804F7B
:10AC700003D0164B1B68062B16DC03B0F0BD30F872
:10AC8000087CFEF7C0FF054654F80C0C4FEAE07C48
:10AC9000A5FB0001226A002305FB0C1125F05FFDD6
:10ACA000074424F8107CD8E7094BD3F80455204614
:10ACB000FEF7A9FF0190074B00932B46CA220649D5
:10ACC00007200BF035F8D8E77434002070340020EA
:10ACD00000100140802205006D2105002DE9F041A2
:10ACE00084B00446164698460A9F15686B42ADB27A
:10ACF0009BB258BF5D42043020F020FFB0B93C4BFE
:10AD00001B6813F4804F15D03A4B1B68032B11DDE1
:10AD1000394BD3F8043532790192384A00924FF416
:10AD2000A672374904200BF003F803E0B4F9483069
:10AD3000A4F85230B4F852302B44A4F85430012314
:10AD4000424629462046FFF751FD294B1B6813F464
:10AD5000804F03D0274B1B68032B1BDC244B1B6845
:10AD600013F4804F03D0234B1B68032B25DC04F125
:10AD70005800FEF709FF3368002B33D13FB1B4F917
:10AD800048303B80B4F954307B80A36E7B6004B0C4
:10AD9000BDE8F081184BD3F80435A26E0392D4F8C5
:10ADA0008820029232680192164A009240F25712AD
:10ADB000134904200AF0BCFFD0E70F4BD3F8043549
:10ADC000B4F95220B4F94810B4F954000390029138
:10ADD00001920D4A00924FF4AD72094904200AF025
:10ADE000A7FFC4E7D4F8F400FEF7B4FDC6E700BF40
:10ADF00074340020703400200010014094220500BB
:10AE00006D2105000C190500C822050030B585B07C
:10AE100004461546836B00F148019847B4F9483061
:10AE20002B80B4F94A306B8094F88430022B0FD118
:10AE3000A36F0BB14FF0FF336B60124B1B6813F421
:10AE4000804F03D0104B1B68032B07DC05B030BDCF
:10AE500004F15800FEF7B4FE6860EEE70B4BD3F840
:10AE60000435B5F90020B5F9021068680390029125
:10AE70000192074A00924FF48772064904200AF0B3
:10AE800057FFE3E7743400207034002000100140C5
:10AE90000C2305006D21050068B310B50446836BD3
:10AEA00063B3436B43B1164BE362204621F06CFA67
:10AEB000034630B1184610BDC36B002BF3D10E23EF
:10AEC000F8E704F1300024F0F9FF03460028F1D13F
:10AED0000C4BC4F8F0300C4BA3650C4BE3650C4BEA
:10AEE00023660C4B6366C4F8E04004F15800FEF79B
:10AEF000ADFE0346DEE70E23184670470E23D9E762
:10AF00004023050050230500A5A8020035A8020033
:10AF10001DAC020071AB020010B582B004460DF109
:10AF2000060190F8300024F087FF30B9BDF9061013
:10AF3000204621F06FFA02B010BD034A40F22D21E5
:10AF400019F020FDF2E700BF4821050020B129B12A
:10AF5000C0F8F410002070470E2070470E20704794
:10AF600008B51146007B25F05BF800B908BD024A20
:10AF70004B2119F007FDF9E75C23050008B51168BE
:10AF80001960007B25F038F800B908BD024A562147
:10AF900019F0F8FCF9E700BF5C23050060B110B5BB
:10AFA0000446064B836020F029FF00B110BD04F178
:10AFB0000C0025F047F8F9E70E2070478C230500B8
:10AFC0004FF0A0430322C3F83027C3F87427C3F817
:10AFD00064274FF48052C3F80C254FF00052C3F899
:10AFE0000C254FF00072C3F80C2570474FF0A043BA
:10AFF0000322C3F83027C3F87427C3F86427072255
:10B000000FE04FF0A0434FF00071C3F808154FF068
:10B01000A0434FF00051C3F80815C3F80C15013ACE
:10B0200052B2002A0CDB0123934003405BB2002B99
:10B03000E7D14FF0A0434FF00071C3F80C15E6E7DD
:10B040004FF0A0434FF48052C3F80825C3F80C25F5
:10B050007047000038B51D4C002222601C4981FB5E
:10B0600000314FEAE07CCCEBA111E1704FF47A7330
:10B0700003FB1101174B83FB015EC917C1EB6E1176
:10B08000A17083FB0013CCEB6313642101FB13035A
:10B09000114981FB035EDB17C3EBAE03637081FBD9
:10B0A0000013CCEBA30303EB8303A0EB4303237058
:10B0B0000A4B052119700621094824F095FD00B9B5
:10B0C00038BD084A2D2119F05DFCF9E7443A00200B
:10B0D000D34D62101F85EB516766666645340020CC
:10B0E0004C3A00209423050010B54E4B00221A6004
:10B0F000FDEEC07A17EE902A092A31DDF8EEE77AE4
:10B1000030EE670ADFED487A20EE270ABDEEC00A6E
:10B1100010EE103A002BB8BF5B42444C84FB021087
:10B12000D117C1EBA0013F48C17001EB8101A2EB37
:10B130004102827084FB0324DA17C2EBA40242703E
:10B1400002EB8202A3EB42030370394B02221A7016
:10B1500000220621374824F047FD00285CD110BDAD
:10B16000092A2ED8F8EEE77A30EE670ADFED327A58
:10B1700020EE270ABDEEC00A10EE103A002BB8BF31
:10B180005B422848C2702D4A82FB0312D917C1EBDB
:10B1900062128270642404FB1232244C84FB02ECA1
:10B1A000D217C2EBAC02427084FB0342C1EBA20295
:10B1B00002EB8202A3EB420202701D4B03221A70C3
:10B1C000C6E712F1090FC3D3F8EEE77A30EE670A4B
:10B1D000DFED157A20EE270ABDEEC00A10EE103A18
:10B1E000002BB8BF5B420F494020C8708A701348DB
:10B1F00080FB0320DA17C2EB60124A70642000FB68
:10B2000012330A4A82FB0302DB17C3EBA2030B7063
:10B21000074B02221A709BE7094A532119F0B2FB2F
:10B220009DE700BF443A00200000C842676666669A
:10B23000453400204C3A002000007A441F85EB5131
:10B240009423050008B5FFF7BBFE4FF0A04303228F
:10B25000C3F80827C3F80C27C3F81027C3F814272E
:10B260000422C3F80C250822C3F80C251022C3F8C9
:10B270000C252022C3F80C25074B00221A60074A30
:10B280000121074824F09AFC00B908BD054A69214C
:10B2900019F078FBF9E700BF443A0020B5B302008B
:10B2A000E42305009423050008B54FF0A0430322D2
:10B2B000C3F80827C3F80C27C3F81027C3F81427CE
:10B2C000904217D8DFE800F002172C4E364B1B785F
:10B2D000364AD05CFFF78AFE4FF0A0430422C3F841
:10B2E00008250822C3F80C251022C3F80C252022BB
:10B2F000C3F80C2508BD2C4B5B782C4AD05CFFF7BB
:10B3000075FE4FF0A0430822C3F808250422C3F8B5
:10B310000C251022C3F80C252022C3F80C25E9E7E0
:10B32000234B1B78022B14D01F4B9B781F4AD05CF9
:10B33000FFF75CFE4FF0A0431022C3F80825082257
:10B34000C3F80C250422C3F80C252022C3F80C25D1
:10B35000D0E7154B9B78154AD05C40F08000FFF792
:10B3600045FEE7E7124B1B78032B14D00E4BDB781E
:10B370000E4AD05CFFF73AFE4FF0A0432022C3F8FC
:10B3800008250822C3F80C251022C3F80C25042236
:10B39000C3F80C25AEE7044BDB78044AD05C40F0E0
:10B3A0008000FFF723FEE7E7443A0020D82305009A
:10B3B0004534002010B5064C2078431C2370FFF75D
:10B3C00073FF2378032B01D90022227010BD00BF28
:10B3D000483A002008B54FF0A0430322C3F80827DD
:10B3E000C3F80C27C3F81027C3F814270422C3F8A6
:10B3F0000C250822C3F80C251022C3F80C252022A6
:10B40000C3F80C250B4824F011FC70B94FF0A04391
:10B410004FF48022C3F808254FF40032C3F8082502
:10B420004FF40022C3F8082508BD034AB72119F0DC
:10B43000A9FAEBE74C3A00209423050070B50546C5
:10B44000002403E00D4A93420ED80134032C14D893
:10B450000B4B1B5DAB42F8D10A4B1E6804F04EFA51
:10B46000331AEFD5831BEDE704F048FA054B18605B
:10B47000054B1B6820469847E7E770BD801A060019
:10B48000F0230500983A0020943A00204FF0A043A2
:10B49000D3F80435C34013F0010F0CBF0120002086
:10B4A0007047000070B505460024264600E00134D0
:10B4B000032C0AD80123A3402B42F8D0044B185D7B
:10B4C000FFF7E4FFA0400643F1E7304670BD00BF40
:10B4D000F423050008B511B117F049FF08BD17F0B6
:10B4E0003FFFFBE770B50546002400E00134032C64
:10B4F0000FD80123A3402B42F8D0064B1E5D3046E7
:10B50000FFF7C4FF80F00101C9B23046FFF7E2FF48
:10B51000ECE770BDF423050010B5144B1B684BB16C
:10B52000134B1868FFF7DEFF104B1C68013C1C60D2
:10B5300024B110BD002019F017FAF1E70D4824F0EE
:10B5400075FB00E00134032CF3D80123A340084A23
:10B5500012681342F6D0084B1968E14001F001016E
:10B56000064B185DFFF7B6FFECE700BF6C3A002012
:10B57000703A0020743A00209C3A0020F423050021
:10B5800070B505460E46002400E00134032C09D8AE
:10B590000123A3402B42F8D03146034B185DFFF73F
:10B5A00099FFF2E770BD00BFF423050042B310B568
:10B5B0000C461346132900D810BD124A10605B00D8
:10B5C000013B114A1360FFF76DFF104B1860610CCF
:10B5D000E40314F5FA704FF47A724FF0000341F16E
:10B5E000000125F055F801460022094824F0FCFA34
:10B5F0000028E1D10121034B1868FFF7C1FFDBE709
:10B60000704700BF703A00206C3A00209C3A00203E
:10B61000743A002008B5044824F008FB0021034BCD
:10B620001868FFF7ADFF08BD743A0020703A00209B
:10B6300010B582B017F028FE40B10024ADF80440E8
:10B640008DF8064001238DF8053007E017F0D4FD92
:10B650000028F2D019F088F9EFE70134032C09D85B
:10B6600001A90A4B185D17F019FE0028F5D019F052
:10B670007BF9F2E7064A0121064824F09FFA08B94F
:10B6800002B010BD19F070F9FAE700BFF42305000D
:10B6900019B50200EC23050060B310B582B0164A5C
:10B6A000106017F0F1FD40B1144B1B68ADF8043089
:10B6B0001B0C8DF8063000240CE017F09DFD0028CF
:10B6C000F2D019F051F9EFE701210D4B185D17F099
:10B6D000BFFE0134032C0AD80A4A01A9084B185DA1
:10B6E00017F04CFE0028EFD019F03EF9ECE70020EF
:10B6F00002B010BD0E207047943A0020E8230500E8
:10B70000F02305003DB4020010B40346044C006869
:10B7100059689A68DB680FC45DF8044B704700BF36
:10B72000A03A00200E4B4FF0805202F1600103C995
:10B7300083E8030003F1080CA43292E803008CE8CC
:10B74000030093F9062002F00F0242F040029A71C2
:10B7500093F9082002F03F0242F080021A7270470B
:10B76000A03A002000487047A03A0020002308E0DB
:10B77000074901EBC30000224280426001F83320F8
:10B7800001331F2BF4D9034B00221A60704700BF0E
:10B79000B03A0020B03B002000B58646114B1B6834
:10B7A0004FF0000C0BE01F230F4A12F83300B0B12A
:10B7B00002EBC3025288724509D00CF1010CBCF1B6
:10B7C0001F0F0BD85A1E002BEDD01346ECE7064A8C
:10B7D00002EBC30252688A42EFD100E000205DF81C
:10B7E00004FB00BFB03B0020B03A002010B40B4A6D
:10B7F00013680B4C04EBC30CACF80200CCF804103B
:10B80000012104F833100B441360202B02D05DF8A3
:10B81000044B7047134600221A60F8E7B03B002043
:10B82000B03A0020006F024BC01A18BF01207047C9
:10B830007C3C00200021072918D830B402E00131F7
:10B84000072910D84FEA011C094C34F80CC0844574
:10B85000F5D104EB0114A568E4689C4208BF954249
:10B86000EDD1012000E0002030BC7047002070477F
:10B87000B83B002030B4C3698469C1884FEA132CF7
:10B880001B06C4F30C028A4218D28A1A2244A2F57B
:10B8900000529A184CF100010A4C23685D1C256087
:10B8A00003F00703B0F814C007481C0100EB0313B2
:10B8B00020F804C09A60D96030BC70478A1A2244CC
:10B8C000E7E700BF383C0020B83B0020C37D9BB1B8
:10B8D000C3780A7802F080020A7003F07F031343F2
:10B8E0000B7002780B7803F07F030B7043EAC213EE
:10B8F0000B7003789BB97047C3780A7802F0BF02D7
:10B900000A709B0103F0400313430B70027903F0AC
:10B91000C0030B7002F03F0213430B70E1E700B568
:10B920008378082B14BF002201224B7803F07F0399
:10B930004B7043EAC2134B70B0F806E0DAB202F083
:10B9400080024A70CEF3861C4CEA02024A708B7861
:10B9500003F003038B7043EA8E038B7090F808E0CA
:10B96000DAB202F0FC028A70CEF3C10C4CEA020299
:10B970008A70CB7803F01F03CB7043EA4E13CB7071
:10B98000437ACA7802F0E002CA7003F01F0313433F
:10B99000CB705DF804FB0000002300E00133032BB3
:10B9A00027D8154A4FF0740C0CFB032292F84C2058
:10B9B000012AF3D1104A0CFB0322B2F814C0C28949
:10B9C0009445EBD10C4A4FF0740C0CFB0322D28847
:10B9D0008A42E3D1084A0CFB0322B2F85C201AB178
:10B9E000B0F814C06245D9D10348742202FB0300A9
:10B9F00070470020704700BFFC3D0020002300E09E
:10BA00000133032B13D80B4A742101FB032292F854
:10BA10004C20022AF4D1074A01FB0322918A828A30
:10BA20009142EDD10348742202FB030070470020CD
:10BA3000704700BFFC3D002008B904207047082073
:10BA40007047000000210E4B1B688B4216D9002363
:10BA500000E001330B4A02EBC10252689A420BD953
:10BA6000084A52F8312002EBC30C12F8332082420C
:10BA7000EFD1DCF8040070470131E4E700207047A3
:10BA80003C3C0020403C002030B58DB005460C46C3
:10BA90002C22002101A824F08AFF10238DF8043005
:10BAA00002958DF80C4001A801F084FB0DB030BD6B
:10BAB00070B58CB006460D4614462C22002101A814
:10BAC00024F075FF0F238DF80430ADF808609DF861
:10BAD0000A3065F300038DF80A308DF80B4001A899
