:020000022000DC
:1060000000F000206D630200556302005763020038
:10601000596302005B6302005D6302000000000040
:106020000000000000000000000000005F630200AC
:106030006163020000000000636302006563020008
:106040006763020067630200676302006763020020
:10605000676302006763020019FB030067630200C5
:1060600067630200A5F50300EDC503006763020046
:1060700067630200676302006763020067630200F0
:1060800067630200D1AF0400B5F20200676302004B
:1060900035B0040067630200110604006763020064
:1060A00067630200676302006763020067630200C0
:1060B0006763020067630200000000000000000048
:1060C00067630200676302006763020067630200A0
:1060D000676302006763020067630200000000005C
:1060E00000000000000000000000000000000000B0
:1060F00000000000000000000000000000000000A0
:10610000000000000000000000000000000000008F
:10611000000000000000000000000000000000007F
:10612000000000000000000000000000000000006F
:10613000000000000000000000000000000000005F
:10614000000000000000000000000000000000004F
:10615000000000000000000000000000000000003F
:10616000000000000000000000000000000000002F
:10617000000000000000000000000000000000001F
:10618000000000000000000000000000000000000F
:1061900000000000000000000000000000000000FF
:1061A00000000000000000000000000000000000EF
:1061B00000000000000000000000000000000000DF
:1061C00000000000000000000000000000000000CF
:1061D00000000000000000000000000000000000BF
:1061E00000000000000000000000000000000000AF
:1061F000000000000000000000000000000000009F
:10620000344935480A1A02D0072291438D46334952
:1062100033480A1A06D00722914381F309880222E3
:1062200082F314882F483049304A00F042F8304851
:106230003049314A00F03DF830483149314A00F0E8
:1062400038F831483149324A00F033F831483249A0
:10625000324A00F02EF832483249334A00F029F829
:1062600032483349334A00F024F833483349002296
:1062700000F02AF832483349002200F025F832486D
:106280003249091A082902DB0022026041601F48D6
:106290001F49884205D00268043003B4904703BC0C
:1062A000F7E700208646EC4600200021284A904768
:1062B000FEE7884207D0521A05D0037801300B70F0
:1062C0000131013AF9D17047884202D002700130A1
:1062D000FAE7704700F0002000E8002000F00020FE
:1062E00000F0002098E40400F02D0020F832002097
:1062F000A0630200A0630200A6B5040098E40400B5
:10630000F02D0020F02D00202CBB04002CBB04003D
:106310002CBB04002CBB04002CBB04002CBB0400D1
:106320002CBB04002CBB040098E40400A0E904008A
:10633000F8320020F8320020F83200200C6B0020E8
:106340000C6B00200C6B00200C6B00200C6F0020ED
:10635000A96E0200FEE7FEE7FEE7FEE7FEE7FEE7C6
:10636000FEE7FEE7FEE7FEE700F002B8FFF7FCBF3E
:1063700008484FF00701884385460748804707488B
:10638000016841F470010160BFF34F8FBFF36F8F5D
:10639000FFF736BF00F00020510B040088ED00E04D
:1063A00041DF7047024B1A680A609B888B807047F8
:1063B00040330020014B1B880B8070473C3300208A
:1063C00010B582B001911446BDF8062042F22413A4
:1063D0009A4210D121680A4AA2FB0131C1F3CF31A0
:1063E000084B19806368A2FB0323C3F3CF33064A2B
:1063F000138002B010BD784604F0EEF8EAE700BF63
:10640000018000804A310020483100200D4B1B687C
:1064100013F4804F03D00C4B1B68032B00DC704738
:1064200000B585B0094BD3F8043502920191084AB2
:10643000009240F22512074904200AF041F805B005
:106440005DF804FB903200208C32002000100140E7
:1064500068BB04005FBB040000B587B006A800E974
:106460000C00114B1B6813F4804F03D00F4B1B68BB
:10647000032B02DC07B05DF804FB0D4BD3F80435A9
:106480000C48A0FB0202BDF814000390C2F3CF3207
:1064900002920191084A00924FF481720749042048
:1064A0000AF00EF8E6E700BF903200208C320020A0
:1064B000001001400180008090BB04005FBB04001D
:1064C0000D4B1B6813F4804F03D00C4B1B68032B40
:1064D00000DC704700B585B0094BD3F80435029253
:1064E0000191084A00924FF48E720749042009F086
:1064F000E7FF05B05DF804FB903200208C320020ED
:1065000000100140D4BB04005FBB040000B58DB097
:1065100020F0A6FC2422002103A824F0DFFF0123A1
:106520008DF80C3007238DF80F3006238DF81430CA
:10653000224B0793224B0B93224903A80EF024F819
:10654000034618B3002B32D00B2B2FD120F0CCFCFC
:106550001D4B1B6813F4804F03D01C4B1B68032B8F
:1065600018DC194B1B6813F4804F20D0174B1B68A5
:10657000032B1CDD164BD3F80435164A009240F26B
:1065800013221549042009F09BFF10E020F088FC3D
:106590000346D7E70E4BD3F80435104A009240F279
:1065A00011220D49042009F08BFFDAE713B90DB071
:1065B0005DF804FB18461AF0EBFBF8E7B969020036
:1065C00061660200F8320020903200208C320020F8
:1065D0000010014050BC04005FBB040000BC04007C
:1065E00000B583B0174A04214FF4C04009F04CFFB6
:1065F000154B1B6813F4804F03D0144B1B68032BFF
:1066000010DC134803F048FD24F018FDB0B903F086
:106610008FFE03F0CBFE03F0F9FEFFF777FF03B028
:106620005DF804FB0B4BD3F804350B4A009240F2A3
:106630001F220A49042009F043FFE2E71AF0A8FBF1
:10664000E5E700BF5D040300903200208C3200209B
:1066500028310020001001408CBC04005FBB040006
:1066600000B585B00021514802F034FD002842D128
:106670004F4B1B6813F4804F03D04E4B1B68032B0A
:106680003CDC4A4A00214C4801F000FD002847D17B
:10669000474B1B6813F4804F03D0464B1B68032BFA
:1066A00041DC0021454803F0B9F800284DD14449A8
:1066B000424803F0E1F800284DD140493B4802F040
:1066C000BDFD00284DD13F493C4803F0D5F80028D6
:1066D0004DD13A49384801F037FE00284DD1344BAE
:1066E0001B6813F4804F03D0324B1B68032B4ADC2A
:1066F00005B05DF804FB1AF04BFBB9E7324BD3F859
:1067000004352A4A118892F8BC20029201912F4A3E
:10671000009240F22F122E49042009F0D1FEB0E77A
:106720001AF036FBB4E7284BD3F80435224A118817
:1067300092F8902002920191264A00924FF49A72A8
:106740002349042009F0BCFEABE7234A4FF49D71B6
:106750001AF02CFBABE7204A40F23B111AF026FB63
:10676000ABE71D4A4FF49E711AF020FBABE71A4AC3
:1067700040F23D111AF01AFBABE7174A4FF49F7134
:106780001AF014FBABE7104BD3F804350B4A118811
:1067900092F8342002920191104A009240F23F1286
:1067A0000B49042009F08CFEA2E700BF882F0020CF
:1067B000903200208C320020002E0020503100202A
:1067C00020310020802F002000100140C0BC0400B8
:1067D0005FBB0400FCBC04002CBB04002CBD040007
:1067E00070B584B02D4D2C882D4D2D88AC423DD3F5
:1067F0008C423BD3641AA4022A4B83FB0413E41794
:10680000C4EBE32303FB00F18D0AC1F38F26C3F52C
:10681000806300FB03F3990AC3F38F24224B1B68A8
:1068200013F4804F03D0214B1B68062B0EDC204D48
:1068300000232B723146284603F070FC01232B7293
:106840002146284603F06AFC04B070BD194BD3F80A
:106850000435039289B20291ADB20195164A0092B5
:10686000DB221649072009F02BFEE0E70E4B1B68E0
:1068700013F4804FE8D00D4B1B68002BE4DD0D4B6B
:10688000D3F804350391029501940D4A0092E52254
:106890000A49012009F014FED6E700BF4831002064
:1068A0004A310020B5814E1B903200208C320020EE
:1068B00028310020001001405CBD04005FBB0400D3
:1068C00088BD040008B5084B03C983E803000749E5
:1068D000A1FB0021B3F90420C1F3CF31044B188888
:1068E000FFF77EFF08BD00BF40330020018000801D
:1068F0003C33002000B583B0134B1980134B1B6849
:1069000013F4804F03D0124B1B68032B0FDC114B89
:106910001968114AA2FB0121B3F90420C1F3CF3158
:10692000094B1888FFF75CFF03B05DF804FB0B4BC5
:10693000D3F8043501910A4A009240F20B1209493A
:10694000042009F0BDFDE2E73C3300209032002036
:106950008C32002040330020018000800010014074
:10696000C8BD04005FBB040000B583B00D4B1B68BD
:1069700013F4804F03D00C4B1B68032B06DC20F074
:10698000B3FA0DF061FE03B05DF804FB074BD3F8DA
:106990000435074A00924FF4B3720649042009F007
:1069A0008FFDECE7903200208C3200200010014077
:1069B000E0BD04005FBB040008B50378232B00D0C2
:1069C00008BDFFF7D1FFFBE730B5C7B003781D2B3B
:1069D00004D00446142B29D047B030BD05A93D4B47
:1069E00093F8980022F070F9D0B9059A3A49A1FBC2
:1069F0000232C2F3CF32394B1A80069BA1FB03232C
:106A0000C3F3CF33364A1380364802F0B5FB50B992
:106A1000304801F09DFB0028DED01AF0B9F9DBE721
:106A20001AF0B6F9E1E71AF0B3F9F1E72E4B1B685B
:106A300013F4804F03D02D4B1B68042B0FDC2A4B23
:106A40001B6813F4804FC7D0284B1B68042BC3DD91
:106A50002369802B28BF80239E46002322E0244BFD
:106A6000D3F80435C288018900790390029101921C
:106A7000204A009240F25D121F49052009F020FDD6
:106A8000DDE7E268D25C1D490D681009590015F870
:106A900000C005A800F813C002F00F020131AA5C83
:106AA000425401337345ECD305AA002302F81E308B
:106AB00003F1804303F58833D3F804350292104A7A
:106AC0000192104A009240F25F120B49052009F032
:106AD000F7FC81E7002E0020018000804A31002071
:106AE00048310020882F0020903200208C32002076
:106AF00000100140FCBD04005FBB04009432002084
:106B00002CBE040038BE040030B585B00546441CD8
:106B10006C4B1B6813F4804F03D06B4B1B68032B2B
:106B20000DDC6A4B1B686A4AA2FB0323C3F3CF3216
:106B3000631E032B66D8DFE803F00F294046654B40
:106B4000D3F804350194644A009240F285126349F7
:106B5000042009F0B5FCE4E761490B88B3F5804FE8
:106B600038BF4FF48043A3F580430B8042F260238B
:106B7000934238BF1346A3F5FA539AB2C2EB0343CC
:106B8000524A1360022D52D905B030BD54490B88CA
:106B900003F580434FF6FF70834228BF03460B8006
:106BA00042F6E063934228BF134603F5FA539AB2C4
:106BB000C2EB0343454A1360E4E7444A938803F574
:106BC00080439380DEE70DF0DBFCA0B93D4B1B68F2
:106BD00013F4804FD6D03C4B1B68032BD2DD3D4BCA
:106BE000D3F804353F4A009240F2B7123B490420E3
:106BF00009F066FCC6E70FF0B9FA0DF0B5FCFFF737
:106C0000B3FEBFE72F4B1B6813F4804FBAD02E4B57
:106C10001B68032BB6DD2F4BD3F80435324A0092A4
:106C200040F2BD122D49042009F04AFCAAE7274B87
:106C30001968274AA2FB0121B3F90420C1F3CF311F
:106C4000274B1888FFF7CCFD284801F001FB0446CC
:106C50001C4B1B6813F4804F03D01B4B1B68032B8A
:106C600017DC002C90D0174B1B6813F4804F8BD08F
:106C7000154B1B68012B87DD164BD3F804350194A7
:106C80001B4A009240F2CF121449022009F018FC6E
:106C90007AE7104BD3F804350C490A680C48A0FB7E
:106CA000020289880391C2F3CF3202920C4A128801
:106CB0000192104A00924FF4E4720849042009F04E
:106CC000FFFBCEE7903200208C32002040330020C2
:106CD000018000800010014040BE04005FBB040042
:106CE0003C33002054BE040064BF0400002E00208A
:106CF000B8BE04008CBE040000B583B03138032850
:106D000014D90D4B1B6813F4804F11D00B4B1B682B
:106D1000032B0DDD0A4BD3F804350A4A009240F2EA
:106D2000DD120949042009F0CBFB01E0FFF7ECFE7E
:106D300003B05DF804FB00BF903200208C320020CD
:106D40000010014064BF04005FBB040000B585B0C3
:106D500003A813F0BDFD0D4B1B6813F4804F03D047
:106D60000B4B1B68032B02DC05B05DF804FB094BE1
:106D7000D3F80435BDF80C200192074A009240F286
:106D8000E5120649042009F09BFBEDE79032002054
:106D90008C32002000100140E8BE04005FBB0400FC
:106DA00000B58BB06421204803F0ACF81F4B1B7872
:106DB0009BB9039304930593069307930893099350
:106DC0001B4B04931B4B08931B4B099303A803F025
:106DD0002FF820B119F0DCFF01E0FFF7B7FF03F057
:106DE0003BFC03F0C3F8154807F064F80DF01EFCF7
:106DF00058B9134B1B6813F4804F03D0114B1B6819
:106E0000032B05DC0BB05DF804FB19F0C1FFF0E7C4
:106E10000D4BD3F804350D4A009240F24B220C4939
:106E2000042009F04DFBEDE7F96C0200F832002078
:106E3000556E020000BF04004CC10400F02D00207C
:106E4000903200208C3200200010014064BF04000A
:106E50005FBB040000B583B00E4B1B6813F4804F7A
:106E600003D00D4B1B68032B08DC03F09FFA03F0E3
:106E7000CDFAFFF76BFF03B05DF804FB074BD3F8C7
:106E80000435074A00924FF4F5720649042009F0D0
:106E900017FBEAE7903200208C32002000100140FE
:106EA00028BF04005FBB040008B5FFF799FBFFF79C
:106EB00077FFFFF775FAFCE710B40D4CA4FB020254
:106EC000C2F3CF32A4FB0101C1F3CF31521ABDF995
:106ED0000400C01A82EAE271A1EBE27180EAE07379
:106EE000A3EBE073994200DD10465DF8044B704758
:106EF00001800080E038704710B582B00446D0F8B9
:106F0000B03000930A6849688B4228BF0B46934211
:106F100038BF13460093B0F8B430ADF80430D0F861
:106F2000A0300BB169469847009BC4F8B03002B05E
:106F300010BD08B5A03802F0DDFD08BD10B5094B45
:106F40001C6800E024685CB114F8023C002BF9D006
:106F5000002204F8022CA4F19C0002F0CBFDF1E722
:106F6000012010BD9033002030B58BB0FFF7C2FF79
:106F70000446D0F8A43008A9984794F8FC30012BB7
:106F800003D033B1022B0CD103E094F8D420002AB3
:106F9000F7D0D4F8C830C4F8C030B4F9D030A4F871
:106FA000C430D4F8CC30C4F8B830B4F9D230A4F836
:106FB000BC301D4B1B6813F4804F03D01B4B1B6868
:106FC000032B14DC0023C4F8D830D4F8A85065B1E2
:106FD000B4F8BC30ADF81C30D4F8B830069306AB2A
:106FE0000CCBD4F800112046A8470BB030BD104B95
:106FF000D3F8043594F89010D4F8C0200D48A0FBC5
:107000000202D4F800010490D4F804010390C2F302
:10701000CF3202920191084A009240F23D32074974
:10702000042009F04DFACDE7903200208C32002088
:10703000001001400180008094C1040081C104005F
:1070400000B583B0FFF756FF0D4B1B6813F4804F5C
:1070500003D00C4B1B68032B02DC03B05DF804FB70
:10706000094BD3F8043590F890200192074A00921A
:1070700040F223320649042009F022FAEDE700BF6E
:10708000903200208C32002000100140D8C1040052
:1070900081C1040008B580F8FC30C0F8F4102D233D
:1070A000C0F8F8303AB113465268C0F810211B6896
:1070B000C0F8F03008BD0023C0F81031D0F89C3083
:1070C00000F1F00193F8C40023F084F80028F1D017
:1070D000024A40F2094119F069FEEBE75CC1040085
:1070E0002DE9F0418CB004460E4617469846A0F5AF
:1070F000C075012385F87831D5F8A4300AA928464F
:10710000984709AA314695F8980021F007FE002813
:1071100056D10DF12202314614F8E80C21F02EFE72
:10712000002853D1099944F8B41CBDF9223024F841
:10713000AE3C54F8D03C44F8B83C34F9CC3C24F88C
:10714000B03C14F8E80C21F011FD002844D134F9CA
:10715000AE1C14F8E80C21F02FFD002842D1CDF828
:107160001880079714F8E73C1BB10A9A099B9A42CA
:107170003ED0A4F5C076A4F1A007384602F0BAFCD0
:10718000B6F9D2300093BDF92C30D6F8CC200A994C
:107190002846FFF791FE0146002306AA2846FFF77E
:1071A00079FF264B1B6813F4804F03D0244B1B68D8
:1071B000032B24DC384602F08FFC0CB0BDE8F081D4
:1071C000204A4FF4886119F0F1FDA2E71D4A40F210
:1071D000444119F0EBFDA5E71A4A40F24E4119F07F
:1071E000E5FDB4E7174A4FF48A6119F0DFFDB6E711
:1071F000BDF82C20BDF922309A42BAD1DDE7124BFE
:10720000D3F80435099A1149A1FB021254F88C1CD9
:10721000059154F8901C049154F8701C0391BDF929
:1072200022100291C2F3CF320192094A009240F239
:1072300063420849042009F043F9BBE7903200207B
:107240008C3200205CC104000010014001800080ED
:10725000F4C1040081C1040030B587B004460D4676
:1072600050F8D02C10F8E80C21F040FD90B934F91A
:10727000CC2C294614F8E80C21F066FD80B91A4B95
:107280001B6813F4804F03D0184B1B68042B0DDCD4
:1072900007B030BD164A40F21C4119F087FDE6E701
:1072A000134A4FF4846119F081FDE8E7114BD3F8DC
:1072B0000435A4F5C07114F8E80C54F8D02C0E4C29
:1072C000A4FB0242B1F9B4100491C2F3CF3203928D
:1072D00002950190094A009240F225420849052092
:1072E00009F0EEF8D4E700BF903200208C32002085
:1072F0005CC10400001001400180008040C2040015
:1073000081C1040010B584B0144602A990F8980019
:1073100021F0DAFC60B900232370029B6360039ABA
:10732000A26011498B4209D08A4207D004B010BD37
:107330000E4A40F2D31119F039FDECE70C4B1B68F3
:1073400013F4804FF2D00B4B1B68012BEEDD0A4B80
:10735000D3F80435094A00924FF4EC720849022030
:1073600009F0AEF8E2E700BF0100FEFF5CC10400D7
:10737000903200208C3200200010014094C20400A2
:1073800081C1040030B589B004461546D0F8A43058
:1073900006A99847069B2B60BDF81C30AB80B4F85B
:1073A000BC30AB8194F80C31022B12D0D4F8B83039
:1073B000AB6004F1E00002F0ABFB2861224B1B68DC
:1073C00013F4804F03D0214B1B68032B21DC09B041
:1073D00030BD04A994F8980021F076FC80B9D4F867
:1073E000B820059B9A4211D0194BAB60D4F80031FC
:1073F00023B1D4F804310BB14FF0FF332B61DDE73B
:10740000144A4FF4A27119F0D1FCE8E747F6FF7374
:10741000EBE7114BD3F804352A681048A0FB0212A1
:10742000A968A0FB010128690390C1F3CF31029143
:10743000C2F3CF3201920A4A00924FF4AA7209496C
:10744000042009F03DF8C2E7903200208C32002081
:107450000080FFFF5CC1040000100140018000803B
:10746000B8C2040081C10400F0B58DB004461546D1
:10747000D0F8A4300AA99847D4F89C00D0F8CC30B2
:107480000DF126019847BDF826302B80D4F89C30AA
:10749000B3F8EA302B810A9B6B60D4F8B830EB600C
:1074A00094F80C31022B10D1D4F800310BB14FF00D
:1074B000FF332B61184B1B6813F4804F03D0174B1D
:1074C0001B68042B07DC0DB0F0BD04F1E00002F0F6
:1074D0001FFB2861EEE7124BD3F804352E886A684B
:1074E0001048A0FB02122F89E968A0FB0101D4F823
:1074F0000401069028690590C1F3CF3104910397E8
:10750000C2F3CF3202920196074A0092D522074970
:10751000052008F0D5FFD6E7903200208C320020FD
:107520000010014001800080DCC2040081C1040021
:1075300090F89930EBB130B589B004460D4690F81B
:107540007831A3B9D0F8A43006A998472B88ADF8B4
:1075500004306B88ADF80C306B680593069B029382
:10756000D4F8B830049301A9201D20F0F3FF09B02E
:1075700030BD704770B58EB004460E46D0F8A430CA
:1075800002A99847D4F89C00D0F8CC300DF1060140
:10759000984794F87931002B3CD1D4F89C00D0F86E
:1075A000183163BB0D96BDF80630ADF82430029B50
:1075B0000A93D4F89C30B3F8EA30ADF82C30D4F804
:1075C000B8300C9309A9201D20F0C4FF0546029B8A
:1075D0000493BDF80C30ADF81430D4F8B8300693ED
:1075E000B4F8BC30ADF81C30089604A904F13000A2
:1075F00020F0CBFF05B9054628460EB070BDF83027
:1076000002F086FA03460028CCD0B04238BF334699
:107610000D93C8E70025DAE730B587B0FFF76AFCBD
:107620000446D0F8CC30C0F8B830B0F9D230A0F869
:10763000BC30444B1B6813F4804F03D0424B1B6893
:10764000032B48DC94F80C31022B07D0D4F8B83067
:10765000C4F8B030B4F9BC30A4F8B43004A994F83C
:10766000980021F031FB002844D1049A374B9A420C
:1076700046D0059A9A4243D004A92046FFF73CFC25
:10768000D4F8A85065B1B4F8BC30ADF80C30D4F8DB
:10769000B830029302AB0CCBD4F800112046A847B7
:1076A000D4F8B01094F8980021F060FA00283CD18A
:1076B000B4F9B41094F8980021F07EFA00283AD179
:1076C00000212046FFF756FF002384F8783184F824
:1076D000793107B030BD1E4BD3F8043590F89020B7
:1076E00001921C4A00924FF474721B49042008F066
:1076F000E7FEA7E7194A40F2D93119F057FBB4E782
:10770000104B1B6813F4804FB6D00F4B1B68012B36
:10771000B2DD0F4BD3F80435114A009240F2DA3251
:107720000D49022008F0CCFEA6E70C4A4FF47A710E
:1077300019F03CFBBCE7094A40F2E93119F036FB8D
:10774000BEE700BF903200208C3200200100FEFF17
:107750000010014028C3040081C104005CC1040082
:1077600094C204002DE9F04385B00546FFF7C2FB43
:107770000446D0F80061284602F0EDF90546371AB4
:1077800094F80C31022B4AD0D4F8B810D4F8C09039
:10779000B1EB09006CEB0C0CA5FB00014FEAE6789D
:1077A0003246434605FB0C1123F06BFD4844C4F8F8
:1077B000B000B4F9BC00B4F9C430C01A1FFA83F9A0
:1077C0004FEAE07CA5FB00013246434605FB0C1165
:1077D00023F057FD4844A4F8B40002A994F8980097
:1077E00021F072FAB0BB029A3B4B9A4238D0039A0E
:1077F0009A4235D002A92046FFF77EFB94F80C315F
:10780000022B42D040F2DC539F4205D9D4F8D83045
:10781000EB1AB3F57A7F57D805B0BDE8F083D4F8FA
:107820000401C317D4F8C060A0FB050105FB0311D8
:107830004FEA014C4CEA104C0304181AD4F800210A
:107840004FF000036CEB010123F01BFD0644C4F86C
:10785000B060C2E7214A40F2AD3119F0A7FAC2E7A1
:107860001F4B1B6813F4804FC4D01E4B1B68012BA9
:10787000C0DD1D4BD3F804351C4A009240F2AF32F4
:107880001B49022008F01CFEB4E7D4F8B020D4F85D
:107890000431002B02DD03998A4211D0002B0ADB50
:1078A0000023002BAED0012384F87A31114B1868E5
:1078B00007F030FCA6E7029B9A4203D00023F0E7D2
:1078C0000123EEE70123ECE7C4F8D85039462046FF
:1078D000FFF750FEA0E700BF0100FEFF5CC10400FF
:1078E000903200208C3200200010014094C204002D
:1078F00081C104008C33002038B504460D46084B86
:10790000C0F89430983021F051FA00B138BD84F8B5
:1079100099002A46D4F89C10204620F06BFEF5E72B
:1079200080C404002DE9F04389B016469846109FA4
:107930000446002800F08180002A7ED0012384F8CC
:10794000793104F108001FF083FB84F8D400504B18
:107950001B6813F4804F14D04E4B1B68032B10DDB3
:107960004D4BD3F80435327900286AD04B49029147
:1079700001924B4A009240F225224A49042008F025
:107980009FFDD4F8A43006A92046984731684FEAF5
:10799000E1794FEA094242EA11420D046D1A62EBA5
:1079A000090904A994F8980021F08EF900284AD119
:1079B00094F8D4303BB1D4F8B020C4F8C820B4F95E
:1079C000B420A4F8D020002B43D0069B5D1949F1C8
:1079D0000002059BAB424FF00001914108DB049986
:1079E0000B46A9424FF0000171EB020200DA2B4670
:1079F000C4F8CC300123424631682046FFF74AFBE9
:107A0000234B1B6813F4804F03D0224B1B68032BBE
:107A100025DC04F1E00002F05FF83368002B32D17E
:107A200047B1D4F8B0303B60D4F8CC30BB60D4F868
:107A3000F0303B6109B0BDE8F083784602F0CCFD40
:107A40007CE7194993E7194A40F22E2119F0AEF963
:107A5000AEE7D4F8C0305D1949F10002B9E70E4B2A
:107A6000D3F80435D4F8F0200392D4F81021029210
:107A7000326801920E4A00924FF4107209490420B4
:107A800008F01EFDC5E7D4F8840101F00BFFC7E73D
:107A9000903200208C320020001001406CC30400A2
:107AA00074C3040081C104004CC304005CC1040021
:107AB00080C30400F0B589B0044615461F460E9EEB
:107AC000012380F87931D0F8A43004A99847049BA9
:107AD000C4F8B030BDF91430A4F8B43006A994F855
:107AE000980021F0F1F878B902233A462968204637
:107AF000FFF7D0FA2B68002B0CDDD4F8F0204AB148
:107B0000079BC4F8CC300BE02B4A40F26B2119F0F4
:107B10004DF9E9E7002B2BDBD4F8B030C4F8CC30BA
:107B2000264B1B6813F4804F03D0254B1B68032B97
:107B300026DC04F1E00001F0CFFF2B681BB1D4F884
:107B4000F030002B30D18EB1D4F8B0303360D4F89F
:107B5000CC20079B9A422CD00023B360D4F8F0309D
:107B60001BB12B680BB14FF0FF33336109B0F0BD8F
:107B7000D4F8F030002BCFD0069BC4F8CC30CFE740
:107B8000104BD3F80435D4F8F0200392D4F8102128
:107B900002922A6801920C4A009240F27D220B491F
:107BA000042008F08DFCC4E7D4F8840101F07AFECB
:107BB000C9E74FF0FF33D0E75CC1040090320020EA
:107BC0008C32002000100140ACC3040081C10400CD
:107BD000F0B589B0044615461F460E9E012380F875
:107BE0007931D0F8A43006A998472968C4F8CC1098
:107BF000B5F90430A4F8D230D4F8B030C4F8C830A5
:107C0000B4F9B430A4F8D03094F8980020F0AEFF66
:107C1000002842D1B4F9D21094F8980020F0CCFF9B
:107C2000002840D194F899301BB12B68069A9A42EB
:107C30003FD0B4F9D2300093BDF91C30D4F8CC2039
:107C400006992046FFF738F9014600233A462046B8
:107C5000FFF720FAD4F8F070274B1B6813F4804F1D
:107C600003D0264B1B68032B2ADC04F1E00001F053
:107C700033FFD4F8840101F015FE66B1D4F8B030BA
:107C80003360D4F8CC30B360B4F8B430B380B4F817
:107C9000D230B381376109B0F0BD194A4FF4B971E0
:107CA00019F084F8B6E7164A40F2731119F07EF81D
:107CB000B8E7BDF81C20AB889A42BAD10027DCE7B0
:107CC000104BD3F804352A680F49A1FB0212A9888A
:107CD000D4F8F40005900497D4F8100103900291B1
:107CE000C2F3CF320192094A00924FF4C0720849A0
:107CF000042008F0E5FBB8E7903200208C32002029
:107D00005CC104000010014001800080D4C3040065
:107D100081C104002DE9F0418EB0044615461F468E
:107D2000149E012280F878212A88ADF82C20AA7AA6
:107D30008DF82E20D0F89C00D0F8C020D2F8048016
:107D400009AA00920BAAC047D4F8A4300CA9204677
:107D500098476968C4F8CC10B5F90830A4F8D23057
:107D6000D4F8B030C4F8C830B4F9B430A4F8D03086
:107D700094F8980020F0FAFE002843D1B4F9D2100C
:107D800094F8980020F018FF002841D194F8993019
:107D90001BB16B680C9A9A4240D0B4F9D230009370
:107DA000BDF93430D4F8CC200C992046FFF784F884
:107DB000014600233A462046FFF76CF9D4F8F070EC
:107DC000294B1B6813F4804F03D0284B1B68032BEF
:107DD0002BDC04F1E00001F07FFED4F8840101F017
:107DE00061FD66B1BDF824303380BDF826303381A3
:107DF000D4F8B0307360D4F8CC30F36037610EB093
:107E0000BDE8F0811A4A4FF4817118F0CFFFB5E751
:107E1000174A40F2031118F0C9FFB7E7BDF8342044
:107E20002B899A42B9D10027DBE7124BD3F80435EE
:107E300029886A681048A0FB02022889D4F8F45007
:107E400006950597D4F8105104950390C2F3CF32EC
:107E500002920191094A00924FF488720849042065
:107E600008F02EFBB5E700BF903200208C320020D6
:107E70005CC10400001001400180008024C40400A3
:107E800081C1040038B504461546D0F89C3011462F
:107E900093F8C40022F0D8F868B9291D94F8980026
:107EA00020F0C6FE68B905F1080194F8980020F0AA
:107EB000E7FE60B938BD094A4FF4D47118F076FF77
:107EC000EBE7064A4FF4D57118F070FFEBE7034A71
:107ED00040F2AB1118F06AFFECE700BF5CC1040090
:107EE00070B584B0044616461D46D0F89C30118803
:107EF00093F8C40022F092F860BB716894F898007F
:107F000020F082FE60BBB6F9081094F8980020F0CB
:107F1000A1FE58BBD4F89C3001A993F8C40022F00C
:107F200093F848BB02A994F8980020F081FE48BB62
:107F300003A994F8980020F0A3FE48BB01A9201DD6
:107F400020F04BFB25B104AB13E9070085E80700DF
:107F500004B070BD114A40F2B91118F027FFCCE708
:107F60000E4A40F2BB1118F021FFCCE70B4A4FF448
:107F7000DE7118F01BFFCDE7084A4FF4DF7118F0EF
:107F800015FFCFE7054A4FF4E07118F00FFFCFE778
:107F9000024A40F2C11118F009FFCFE75CC10400AA
:107FA00070B588B0064615461C4603A990F898009F
:107FB00020F08AFE30BB039A2B4B9A4228D0049AB9
:107FC0009A4225D000238DF81430039B0693049B1E
:107FD00007932A68254B9A4202D201238DF8143068
:107FE0006A68234B9A4202D902238DF814309DF817
:107FF000143013B324B108AB13E9070084E8070079
:1080000008B070BD1B4A40F2E31118F0CFFED2E772
:10801000194B1B6813F4804FD4D0184B1B68012BED
:10802000D0DD174BD3F80435164A00924FF4F372A3
:108030001549022008F044FAC4E72A6806926B68E2
:1080400007930392049303A996F8980020F02AFE60
:1080500020B905A9301D20F0B3FACBE7054A40F25C
:10806000032118F0A3FEF4E70100FEFFE0FC1F036C
:10807000E0B11F4E5CC10400903200208C32002021
:108080000010014094C2040081C1040038B50028EA
:1080900045D00446002A44D0D0F8A430002B42D06A
:1080A000D0F8A0307BB1C4F89C20C2F8D840D4F8F6
:1080B0009C301E4AC3F8D4202046FFF71DFC05461D
:1080C00038B1284638BDD0F8A830002BEBD10E25AA
:1080D000F7E7174BC4F88031164BC4F8E030164B65
:1080E000C4F8E430154BC4F8E830154BC4F8EC3054
:1080F00004F1E000C4F86801002384F87A3101F04B
:108100004DFD05460028DCD104F5BE710D4808F090
:1081100016F90D4806F0DEFF0C4B1860D1E70E256E
:10812000CFE70E25CDE70E25CBE700BF3175020066
:10813000A8C4040041700200696F02006577020064
:1081400019760200903300203D6F02008C3300202E
:1081500000286CD030B589B0054690F89840D0F82A
:108160009C3002A993F8C40021F0F0FE30BB03A9B3
:10817000204620F00FFD38BB04A9204620F058FD12
:1081800040BB05A9204620F02DFD48BB0DF116018E
:10819000204620F075FD48BB06A9204620F094FD3E
:1081A00050BB069A234B9A422CD0079A9A4229D068
:1081B00002A9284620F0F8FA09B030BD1E4A40F264
:1081C000C34118F0F3FDD2E71B4A40F2C44118F056
:1081D000EDFDD1E7184A40F2C54118F0E7FDD0E7C0
:1081E000154A40F2C64118F0E1FDCFE7124A40F2CD
:1081F000C74118F0DBFDCFE70F4A4FF4996118F043
:10820000D5FDCEE70D4B1B6813F4804FD0D00C4B3F
:108210001B68012BCCDD0B4BD3F804350A4A0092C6
:1082200040F2CB420949022008F04AF9C0E70E208B
:10823000704700BF0100FEFF5CC1040090320020C7
:108240008C3200200010014094C2040081C104005F
:10825000002874D070B584B00446E03001F04AFCC8
:10826000D4F89C00F83001F045FCD4F8B050B4F9D3
:10827000B460D4F8A43002A920469847D4F89C00F2
:10828000D0F8CC300DF106019847029BC4F8B0300D
:10829000BDF90C30A4F8B430D4F89C30BDF80620F9
:1082A000A3F8E820D4F8B01094F8980020F05EFC11
:1082B00020BBB4F9B41094F8980020F07DFC18BBF2
:1082C000BDF8061031BBD4F89C30BDF8061093F809
:1082D000C40021F043FF60BBD4F8B030AB4203D1FF
:1082E000B4F9B430B34203D0D4F8840101F0DAFA1F
:1082F00000212046FFF73EF904B070BD114A40F25C
:10830000EB4118F053FDD4E70E4A40F2EC4118F06F
:108310004DFDD5E7D4F89C30012293F8C40021F03C
:1083200027FE0028CFD0074A4FF49E6118F03EFD8B
:10833000C9E7044A40F2F54118F038FDCCE70E20B9
:10834000704700BF5CC1040020B129B1C0F884119E
:10835000002070470E2070470E20704708B5D0F8F7
:10836000C83013B1B0F8E810984708BD08B5A03878
:1083700001F0C0FB08BD000010B582B0134B1C68B3
:1083800007E0002204F8042CA4F19C0001F0B2FBE9
:108390002468C4B114F8043C002BF9D00C4B1B68C2
:1083A00013F4804FEDD00B4B1B68032BE9DD0A4B18
:1083B000D3F80435094A00924FF438720849042072
:1083C00008F07EF8DDE7012002B010BDA8330020E0
:1083D000903200208C32002000100140F0C40400D4
:1083E000D9C4040030B587B00446A0F1F805037F76
:1083F000012B03D033B1022B08D103E010F8062C77
:10840000002AF7D034F80A3C24F80C3C34F8083C35
:1084100024F80E3C002344F8043C144B1B6813F46E
:10842000804F03D0124B1B68032B09DC54F8283C07
:1084300023B134F80E2C216A2846984707B030BD86
:108440000C4BD3F8043514F83C2C34F80C1C206A7F
:108450000490606A039002910192074A009240F2F0
:1084600015320649042008F02BF8DFE7903200208F
:108470008C3200200010014000C50400D9C4040063
:108480000F4B1B6813F4804F03D00E4B1B68032B5C
:1084900000DC704700B585B00B4BD3F8043510F8FD
:1084A0003C2C30F8101C02910192084A00924FF4C3
:1084B0003F720749042008F003F805B05DF804FB9B
:1084C000903200208C3200200010014044C504008E
:1084D000D9C4040038B50D46C4B20231204621F09B
:1084E00003FE50B9291D204621F026FE50B9294629
:1084F000204621F0D1FD50B938BD074A9B2118F024
:1085000055FCEFE7044A9C2118F050FCEFE7024AC3
:108510009D2118F04BFCEFE7B4C4040010B582B005
:108520000C466946FFF7D6FFBDF80400A04207D30A
:10853000BDF80200A04202D914B9204600E020464E
:1085400002B010BD10B582B00446694690F8C40070
:10855000FFF7C0FFB4F8E830BDF80210BDF8042002
:108560002BB18B4238BF0B46934228BF1346A4F869
:10857000E8302046FFF7F2FE02B010BD08B580F8E3
:108580001431C0F80C112D23C0F810313AB1134644
:108590005268C0F828211B68C0F8083108BD0023C4
:1085A000C0F8283100F5847190F8C40021F012FE63
:1085B0000028F3D0024A40F2BB3118F0F7FBEDE798
:1085C000B4C404002DE9F04188B004460D461746B6
:1085D0009846A0F5CC76D6F8CC300DF11E01304689
:1085E000984707AA294696F8C40021F01FFE0028E4
:1085F00040D1A4F5CC75BDF81C1014F8D40CFFF7CD
:108600008DFF0146A5F8F000B5F8E830A5F8EE308A
:1086100095F8C40021F0A2FD90BB34F8A81CA9BBBA
:10862000CDF81480069714F8D33C2BB1BDF81E206A
:10863000BDF81C309A421AD0A4F1A007384601F0C8
:1086400059FA34F8A80CBDF81E10002305AA411AE7
:108650003046FFF793FF1D4B1B6813F4804F03D088
:108660001B4B1B68032B1EDC384601F035FA08B0A3
:10867000BDE8F081174A40F2E73118F097FBB8E700
:10868000144A4FF47C7118F091FBC6E7002214F8ED
:10869000D40C21F06DFC0028C2D00E4A40F2F53116
:1086A00018F084FBBCE70C4BD3F8043534F8A82C45
:1086B00005990391069902910192084A009240F2AD
:1086C00006420749042007F0FBFECDE79032002068
:1086D0008C320020B4C404000010014078C50400AE
:1086E000D9C4040030B585B004460D4630F8B02C2E
:1086F00010F8D40C21F080FD50B9124B1B6813F414
:10870000804F03D0104B1B68042B07DC05B030BD35
:108710000E4A40F2CE3118F049FBEEE70C4BD3F88D
:10872000043514F8D42C34F8B01C0391029501924E
:10873000084A009240F2D3320749052007F0C0FEF4
:10874000E4E700BF903200208C320020B4C4040063
:1087500000100140B0C50400D9C4040038B5144667
:10876000054638B132B1214695F8200021F032FD9E
:1087700020B938BD784601F02FFFF4E7024A40F2F5
:10878000ED1118F013FBF4E7B4C4040030B583B066
:10879000054614467AB1694695F8C400FFF79AFE7B
:1087A000BDF802306380BDF80430A3809DF800302E
:1087B000237003B030BD784601F00EFFEBE70000F8
:1087C00070B582B014461D46064688B182B1216854
:1087D00096F8200021F0EAFC70B92368019301A902
:1087E00030461EF0C7FD0DB123682B6002B070BD8E
:1087F000784601F0F1FEEAE7024A40F2052118F05E
:10880000D5FAEAE7B4C4040010B582B00446B0F863
:10881000E830ADF80030B0F8EA30ADF80230019140
:10882000D0F8D4301BB16946D0F8D80098476946D3
:10883000201D21F033F802B010BD000030B585B026
:108840000446A0F1F80530F8083C20F80E3C90F8FA
:108850002C20022A01D020F8103C2846FFF772FE97
:10886000224B1B6813F4804F03D0214B1B68032B52
:1088700017DC54F8283C23B134F80E2C216A284622
:10888000984734F8101CF1B934F8101C14F8340C63
:1088900021F064FC20BB00212846FFF7B5FF05B09E
:1088A00030BD144BD3F8043514F83C2C34F8101CAC
:1088B00002910192104A00924FF464720F49042011
:1088C00007F0FEFDD5E7012214F8340C21F050FB2F
:1088D0000028D9D00A4A40F29F3118F067FAD3E74E
:1088E000074A40F2A33118F061FAD4E79032002031
:1088F0008C32002000100140F4C50400D9C40400EB
:10890000B4C4040030B587B01446054600B3FAB1CC
:10891000D5F8CC300DF1160128469847BDF8163031
:10892000238095F82431022B16D0B5F8EA30638005
:1089300005F1F80001F0ECF860601D4B1B6813F4C2
:10894000804F03D01B4B1B68042B1FDC07B030BDCE
:10895000784601F041FEDBE704A995F8C400FFF773
:10896000B9FDB5F8EA20BDF814309A420BD00023C7
:108970006380D5F8183123B1D5F81C310BB14FF015
:10898000FF336360D9E74FF6FF73F1E70A4BD3F883
:108990000435228861886068039002910192074A39
:1089A0000092D3220649052007F08AFDCEE700BFDA
:1089B000903200208C3200200010014028C60400B4
:1089C000D9C404002DE9F04182B00446A0F1F808B2
:1089D00001F0C1F80546204601F09AF8074694F8E0
:1089E0002C30022B35D034F80E3C34F80C6C9B1B29
:1089F0004FEAE37CA3FB0501226AD31705FB0C11A8
:108A000022F03FFC0644694614F8340CFFF762FD7F
:108A100076B3BDF80430BDF802008642B8BF064602
:108A20009E42A8BF1E46B6B224F8106C4046FFF71F
:108A300095FC94F82C30022B1CD0B7F5FA7F05D9A1
:108A400054F8043CEB1AB3F57A7F33D802B0BDE892
:108A5000F08134F80C6C606A4FEAE07CA5FB000101
:108A6000226A002305FB0C1122F00BFC0644CAE726
:108A70000026D9E734F8102C636A002B03DDBDF81B
:108A800004108A4212D0002B0ADB0023002BD4D022
:108A9000012384F898300B4B186806F03BFBCCE7B9
:108AA000BDF802309A4203D00023EFE70123EDE73F
:108AB0000123EBE744F8045C39464046FFF7A4FE87
:108AC000C4E700BFA4330020F8B138B50D46044612
:108AD0000F4BC0F8C0300F4B0F4A1A600F4A5A6054
:108AE000C0F8B8300E4B0F4A1A600F4A5A60C0F8EF
:108AF000AC30C43021F0B2FB00B138BD84F8C50001
:108B00002946204620F0F6FEF7E70E20704700BF0A
:108B1000F8C604009C3300205D8B02002D8B020000
:108B200094330020C18702005D87020038B51446E7
:108B3000054638B132B1214695F8600021F006FAB9
:108B400020B938BD784601F047FDF4E7024A40F20B
:108B5000D51118F02BF9F4E7B4C4040070B514462D
:108B60001D46064650B14AB1217896F8600021F0C2
:108B7000D7F938B90DB123782B7070BD784601F064
:108B80002BFDF1E7024A40F2C11118F00FF9F1E7AD
:108B9000B4C40400F0B587B015461F460C9E0446C9
:108BA00038B332B3D4F8DC302BB1B5F9001089B248
:108BB000D4F8E000984702233A46B5F90010204661
:108BC000FFF7DCFCD4F8CC3004F1E80120469847EC
:108BD00004A994F8C400FFF77DFCB5F90030002B20
:108BE0000BDDD4F8082142B1BDF81430A4F8F03000
:108BF00009E0784601F0F0FCD4E7002B2EDBB4F856
:108C0000E830A4F8F030284B1B6813F4804F03D0F1
:108C1000264B1B68032B2ADC04F1F80000F05CFFF4
:108C2000B5F900301BB1D4F80831002B34D19EB116
:108C3000B4F8E8303380B4F8EA20BDF814309A4232
:108C40002FD000237380D4F8083123B1B5F9003058
:108C50000BB14FF0FF33736007B0F0BDD4F80831AB
:108C6000002BCCD0BDF81230A4F8F030CBE7104B7D
:108C7000D3F80435B5F90020D4F808110391D4F8DD
:108C80002811029101920B4A00924FF4CB720A49CB
:108C9000042007F015FCBFE7D4F89C0100F002FEA9
:108CA000C5E74FF6FF73CDE7903200208C320020ED
:108CB0000010014050C60400D9C40400F0B589B0CA
:108CC00015461F460E9E0446002853D0002A51D058
:108CD000D4F8DC301BB12988D4F8E0009847D4F8E8
:108CE000CC300DF11E0120469847298894F8C40025
:108CF000FFF714FC0146A4F8F000B4F8E830A4F83B
:108D0000EE3094F8C40021F029FA002836D1B4F8E6
:108D1000F010002937D194F8C53023B12A88BDF866
:108D20001E309A4251D0B4F8F000BDF81E10002356
:108D30003A46411A2046FFF721FCD4F80851244B4B
:108D40001B6813F4804F03D0224B1B68032B26DCD7
:108D500004F1F80000F0C0FED4F89C0100F0A2FD80
:108D600036B1B4F8E8303380B4F8F0307380756011
:108D700009B0F0BD784601F02FFCA9E7164AF221B0
:108D800018F014F8C3E7002294F8C40021F0F0F8BA
:108D90000028C0D0104AF52118F008F8BBE70F4BA7
:108DA000D3F80435B4F8F020D4F80C1104910395ED
:108DB000D4F8281102910192094A009240F201125E
:108DC0000849042007F07CFBC2E70025C8E700BF84
:108DD000903200208C320020B4C404000010014006
:108DE00084C60400D9C40400F0B589B015461F46F6
:108DF0000E9E044600284BD0002A49D0D4F8DC301F
:108E00001BB12988D4F8E000984704F108001EF04F
:108E10001FF984F8F200444B1B6813F4804F13D001
:108E2000424B1B68032B0FDD414BD3F804352A79E5
:108E300090B34049029101923F4A009240F23312AE
:108E40003E49042007F03CFBD4F8CC3004F1E801A3
:108E50002046984706A994F8C400FFF73BFB94F816
:108E6000F2301BB1B4F8E820A4F8EE20B3B1B4F8A6
:108E7000E8102B681944002915DDBDF81C308B4221
:108E800012DBBDF81A309942B8BF19468BB20BE01D
:108E9000784601F0A1FBB1E72949CBE7B4F8EE1021
:108EA0002B681944E7E70023A4F8F03001233A4681
:108EB00029682046FFF762FB1B4B1B6813F4804FA9
:108EC00003D01A4B1B68032B11DC04F1F80000F0EF
:108ED00003FE2B6813BB46B1B4F8E8303380B4F816
:108EE000F0307380D4F80831736009B0F0BD104BD6
:108EF000D3F80435B4F8F0200492D4F80821039292
:108F0000D4F8282102922A6801920E4A00924FF466
:108F1000A8720A49042007F0D3FAD6E7D4F89C01D6
:108F200000F0C0FCD7E700BF903200208C32002058
:108F3000001001406CC3040074C30400D9C40400D1
:108F40004CC30400C4C6040038B50C46054620B125
:108F50002146281D20F0C0FC38BD784601F03CFBBE
:108F6000F6E7000070B582B005461C461646C2B151
:108F7000694695F8C400FFF7ADFA00238DF800307C
:108F8000318891B901238DF8003044B1BDF8023029
:108F90006380BDF80430A3809DF80030237002B0D8
:108FA00070BD784601F018FBE2E7ADF80210738857
:108FB000ADF8043095F8C40021F080F890B9BDF800
:108FC000041095F8C40021F0A1F888B99DF80010AC
:108FD00095F8C40021F04AF880B969462846FFF7A1
:108FE000B3FFD2E7084A40F27F2117F0DFFEE6E741
:108FF000054A4FF4207117F0D9FEE7E7024A40F224
:10900000812117F0D3FEE8E7B4C4040030B583B083
:109010000C460023ADF80430054638B1ADF80440E5
:1090200001A9281D20F04BFC03B030BD784601F0AB
:10903000D3FAF3E770B504461D4616466AB1318887
:1090400094F8C40020F0EAFF58B931882046FFF7B1
:10905000DDFF0DB133882B8070BD784601F0BCFA7E
:10906000EDE7034A40F23E2117F0A0FEEDE700BF16
:10907000B4C4040038B50446154632B1294694F804
:10908000C40020F0E1FF20B938BD784601F0A4FA11
:10909000F4E7034A40F2252117F088FEF4E700BF09
:1090A000B4C4040038B50446154632B1294694F8D4
:1090B000C40020F089FF20B938BD784601F08CFA51
:1090C000F4E7034A40F21A2117F070FEF4E700BFFC
:1090D000B4C4040038B500283AD00446D0F8CC30E7
:1090E000002B37D0D0F8C83033B12046FFF7ECFC66
:1090F000054638B1284638BDD0F8D030002BF4D121
:109100000E25F7E7144BC4F89831144BC4F8F83027
:10911000134BC4F8FC30134BC4F80031124BC4F8A5
:10912000043104F1F800C4F88001002384F8903180
:1091300000F034FD05460028DCD104F5CA710B4867
:1091400007F0FDF80A4805F0C5FF0A4B1860D1E7A3
:109150000E25CFE70E25CDE71CC704008184020051
:10916000E5830200C58902003D880200A833002083
:1091700079830200A433002000285AD030B585B08E
:10918000054690F8C44002A9204620F085FF30BB78
:109190000DF10A01204620F0A7FF30BB03A92046AD
:1091A00020F0CAFF38BB6946204620F0CFFE40BB06
:1091B0000DF10201204620F0E7FF40BB01A9204647
:1091C00020F002FF48BB0DF10601204620F03CFFD5
:1091D00048BB6946284620F059FC05B030BD164A08
:1091E0004FF48B6117F0E2FDD2E7134A40F2594188
:1091F00017F0DCFDD2E7104A40F25A4117F0D6FDD5
:10920000D1E70D4A40F25B4117F0D0FDD0E70A4AA2
:1092100040F25C4117F0CAFDD0E7074A40F25D41D9
:1092200017F0C4FDCFE7044A40F25E4117F0BEFDDF
:10923000CFE70E20704700BFB4C4040020B129B1AD
:10924000C0F89C11002070470E2070470E20704718
:109250005038704710B586B0FFF7FAFF0446154B3B
:109260001B6813F4804F03D0134B1B68042B0BDCDB
:109270000023A4F84830236C23B1B4F84A20216FAE
:109280002046984706B010BD0C4BD3F8043590F833
:109290003420B0F84A10006F0490606F0390029180
:1092A0000192074A00924FF4C6720649052007F062
:1092B00007F9DDE7903200208C32002000100140D9
:1092C0005CC704004DC7040000B583B0FFF7C0FFC2
:1092D0000D4B1B6813F4804F03D00C4B1B68042B01
:1092E00002DC03B05DF804FB094BD3F8043590F8B9
:1092F00034200192074A009240F283120649052069
:1093000007F0DEF8EDE700BF903200208C3200203D
:1093100000100140D8C104004DC7040000B585B05D
:109320008DF80410B0F84830ADF80630B0F84A3087
:10933000ADF80830039201A9043021F0C3F905B05B
:109340005DF804FB10B584B0FFF782FF0446B0F867
:109350004A20A0F848200023A0F84A30134B1B688D
:1093600013F4804F03D0124B1B68042B0DDC236CCD
:1093700023B1B4F84A20216F20469847226F00217C
:109380002046FFF7CBFF04B010BD0A4BD3F80435DD
:1093900090F8341002920191074A00924FF4D27271
:1093A0000649052007F08CF8E1E700BF9032002065
:1093B0008C32002000100140A0C704004DC70400FB
:1093C00070B138B50C4605463C3021F021FB00B1A8
:1093D00038BD044BAB632146284621F081F9F7E7FD
:1093E0000E2070470CC9040038B5044680F86C2084
:1093F000012343662D2383660D4629B16B68C4F8AB
:1094000080302B68236638BD784601F0E5F8F5E733
:109410002DE9F0418AB015469846109E0446E0B109
:10942000DAB1B4F8482029888A421AD1002246B11C
:109430003270B4F848307380B4F84A30B380236E89
:10944000B360434B1B6813F4804F03D0414B1B6840
:10945000032B6ADC0AB0BDE8F081784601F0BCF865
:10946000DFE70DF11B0294F83C0021F095FA074666
:10947000002858D1002308930993B8F1000F1AD09F
:10948000002241462046FFF7AFFF2B88A4F84A3060
:10949000D4F8F030BB4221D907F13A0354F8230045
:1094A0000368D3F80480236ED4F880209DF81B1045
:1094B000C0470137ECE7236B9B685B6853B1206BB7
:1094C00083685B6807AA00219847079B08930DF102
:1094D0002008D5E7784601F07FF8F0E71C4B1B68C1
:1094E00013F4804F03D01B4B1B68042B05DC04F1E5
:1094F000500000F0F1FA002299E7174BD3F8043539
:109500002A88216E0491D4F8801003919DF81B10D5
:1095100002910192114A009240F22B12104905204B
:1095200006F0CEFFE3E7022281E70B4BD3F80435C8
:10953000B4F84810B4F84A00039002910192094A25
:1095400000924FF49F720649042006F0B9FF81E7AC
:10955000903200208C32002000100140D8C7040057
:109560004DC7040010C8040070B506460D4600241F
:1095700001E0023501340F2C0CD82A46E1B296F8EE
:109580003C0021F011FA0028F3D0034A622117F0C1
:109590000DFCEEE770BD00BF28C7040030B583B0F6
:1095A00014460546A0B19AB100232370B5F848309F
:1095B0006380211D2846FFF7D7FF0E4B1B6813F46D
:1095C000804F03D00C4B1B68032B05DC03B030BD70
:1095D000784601F001F8E7E7084BD3F804356288D4
:1095E0000192074A0092F8220649042006F068FF1B
:1095F000ECE700BF903200208C32002000100140C8
:1096000044C804004DC7040030B587B01446054671
:10961000E0B1DAB100232370B5F848306380B5F8C3
:109620004A30A38095F87C30022B13D12B6F0BB1FD
:109630004FF0FF33A360144B1B6813F4804F03D02B
:10964000124B1B68032B0BDC07B030BD784600F0D3
:10965000C3FFDFE705F1500000F05AFAA060EAE727
:109660000B4BD3F804356288A188686F0490A0681A
:10967000039002910192074A0092E22206490420D7
:1096800006F01EFFE0E700BF903200208C32002081
:109690000010014068C804004DC70400F0B587B051
:1096A00017461D460446E0B1DAB10DF117023988BC
:1096B00094F83C0021F092F9064620BBB4F848200B
:1096C0003B889A4203D0B4F84A20934217D104F160
:1096D000500000F00FFA0023A4F84A30A4F84830F4
:1096E0000DE0784600F078FFDFE706F13A0354F822
:1096F000230003689B689DF8171098470136D4F83B
:10970000F030B342F1D845B100232B70B4F84830A3
:109710006B80291D2046FFF727FF0E4B1B6813F4B3
:10972000804F03D00C4B1B68032B01DC07B0F0BD4E
:109730000A4BD3F80435B4F84A20B4F84810029123
:109740000192074A0092C3220649042006F0B8FE9F
:10975000ECE700BF903200208C3200200010014066
:10976000B0C804004DC70400F0B587B017461D46C9
:10977000044668B162B10DF11702398894F83C00D3
:1097800021F0E6F80646B8B93B88A4F848300DE069
:10979000784600F021FFEEE706F13A0354F8230083
:1097A00003681B689DF8171098470136D4F8F0300D
:1097B000B342F1D8002600E001263DB12E70B4F886
:1097C00048306B80291D2046FFF7CEFE0E4B1B68EC
:1097D00013F4804F03D00D4B1B68032B01DC07B043
:1097E000F0BD0B4BD3F80435B4F84A20B4F8481058
:1097F000039102920196074A00929822064904209A
:1098000006F05EFEEBE700BF903200208C320020B5
:1098100000100140D8C804004DC7040000B310B5C3
:109820000446036CFBB1FFF7CBFD034608B11846B5
:1098300010BD0023A4F848300C4A22650C4A62652A
:10984000A3650C4BE36504F15000C4F8D80000F0A8
:10985000A5F903460028EAD10022C4F8F020E6E783
:109860000E23184670470E23E1E700BFC99202009D
:109870005592020045930200024668B171B1D0F8DA
:10988000F030012B0CD803F13A0042F820100133DC
:10989000C2F8F030002070470E2070470E2070474D
:1098A000042070470023A0F84830704708B5034BE8
:1098B00053F820300846984708BD00BF20C904006F
:1098C00008B5034B53F820300846984708BD00BF41
:1098D00038C9040008B5836803B1984708BD006B18
:1098E000003818BF012070470369013B13F1030FD3
:1098F00003D843691BB9002070470020704701203E
:10990000704708B5024601218C3009F0FAFE08BD07
:1099100008B50A4600230B63022102F18C0009F00E
:10992000F0FE08BD90F82C30022B01D100207047CA
:1099300010B5044638301DF0FEFB4FEA411C4CEADE
:10994000D06C4201121A6CEB010C4FEA8C0C4CEA01
:10995000927C93001B1841EB0C01C90041EA537142
:10996000C3F3103343EA4143C90B226A934271F1B6
:10997000000301D3012010BD0020FCE710B5044610
:10998000002303630362703004F04CFD04F13800DF
:109990001DF00DFC10BD10B5044638301DF007FC5D
:1099A00000232362E3680BB12046984710BD08B539
:1099B000844600F1200E00F110030FCB8EE80F005B
:1099C0006046FFF7E8FF08BD08B5FFF7E4FF08BDF4
:1099D00070B5044600F1380528461DF0E8FB04F197
:1099E000200604F110030FCB86E80F00636A83EAB8
:1099F000E376A6EBE376002B43D0226AD30E510127
:109A0000891A63F100039B0043EA91738900891866
:109A100043F100034FEAC30C32460023C8004CEA6E
:109A2000517121F0C7FBA66AF20E73019B1B62F114
:109A30000002920042EA93729B009B1942F10002DD
:109A4000D20042EA5372DB001E469446984271EB04
:109A5000020301D306468C46B6F57A7F7CF10003FB
:109A600013D221220023C4E91023012384F83830C3
:109A700028461DF073FB18B963680BB12046984760
:109A800070BD784600F0A8FDB7E74FEACC3141EA57
:109A90005641F60305483018054A4FF0000341F1DE
:109AA000000121F087FBC4E91001DEE720A10700D7
:109AB00040420F0010B5044604F000FD236B4FF444
:109AC0007A7101FB030104F1700004F0C3FC236808
:109AD0000BB12046984710BD10B5044630B1224660
:109AE000002104F18C0009F00CFE10BD784600F056
:109AF00073FDF4E710B5044630B12246032104F1AA
:109B00008C0009F0FEFD10BD784600F065FDF4E71D
:109B100038B50546D8B12C6A05F138001DF00BFBAD
:109B20004A0142EAD06243011B1A62EB0102920031
:109B300042EA93729B00181841EB0201C90041EA06
:109B40005071C0F3103040EA4140201A38BD7846C9
:109B500000F042FDDFE710B50446D8B104F138004B
:109B60001DF0E9FA84464A0142EAD06243011B1A19
:109B700062EB0102900040EA93709B0013EB0C0330
:109B800041EB0000C00040EA5370C3F3103343EAD6
:109B9000404010BD784600F01FFDDFE738B50446B1
:109BA00090B1C4F880400A4BA367A464094BE364F6
:109BB00004F138001DF012FB0546074904F18C0042
:109BC00009F089FD284638BD784600F005FDE8E734
:109BD000119902000399020070C9040069DF7047FF
:109BE00003781F2B00D07047014B01221A70FAE74F
:109BF000AF3300203F4B1B78002B79D000B587B0E6
:109C0000012804D003286CD007B05DF804FB0023C2
:109C1000019301A9012016F09BFB00284BD10023E2
:109C20000393049305939DF80C20012363F303022F
:109C30008DF80C20D2B263F307128DF80C209DF83A
:109C40000D2063F301028DF80D202123ADF81630AD
:109C5000019A03A94120FFF7C1FF78BB01A816F0C4
:109C6000D1FB70BB244B1B6803B1984701230293BF
:109C700002A90DF1020011F0AFFB28BBBDF80200F4
:109C800011F01CF80DF1010111F0B0F9F8B90BF069
:109C9000B7FF9DF8011000200CF0B2FAD0B904F023
:109CA0009BF8D8B9134B00221A70134B5B68002B3A
:109CB000AAD09847A8E717F06BF8B0E717F068F854
:109CC000CCE717F065F8CDE717F062F8D6E717F0A4
:109CD0005FF8DCE7784600F07FFCE0E717F058F823
:109CE000E0E716F009FC00288ED017F051F88BE75A
:109CF000704700BFAE330020B033002008B5064BDC
:109D000001221A70054804F0D5F804F0B7F800B93C
:109D100008BD17F03DF8FBE7AE33002048320020C5
:109D200008B503781C2B00D008BD074B1B78002B0F
:109D3000FAD016F025FC18B9044804F0BFF8F3E790
:109D400017F026F8F8E700BFAE33002048320020B5
:109D500008B5094B1B7863B90849094817F0E0FCBE
:109D600040B90323002207494969074817F0F4FC6A
:109D700000E0082008BD00BFAF330020CC33002036
:109D800038370020B03300200436002008B50378AF
:109D9000023B082B3FD8DFE803F01C05113E3E2CA8
:109DA0003E3E36001E4B9B68002B34D0007A0028C4
:109DB00031D01C4A0121117098472CE0184BDB6808
:109DC0004BB3184A127832B3164A002111709847E3
:109DD00021E0154B1B784BB9114B1B691BB1114A84
:109DE000002111709847FFF7B3FF14E0FFF786FFDB
:109DF00011E010220A4B99690C4817F036FD50B15A
:109E000016F0C6FF07E08168C0680AF03DFB18B98C
:109E1000054B01221A7008BD16F0BAFFF8E700BF23
:109E2000B0330020AC330020AD33002004360020D6
:109E300010B586B08446224A03AB07CA03C323F891
:109E4000022B120C1A701F4CA646BCE80F00AEE89D
:109E50000F009CE807008EE80700A369002B2DD0B7
:109E6000194B009303AB194A19491A4817F016FC0D
:109E7000034610B1184606B010BD174819F0CAF9CC
:109E80000146144817F036FC03460028F2D1134867
:109E900019F040FB03460028ECD1104819F072FB82
:109EA00001460C4817F026FC03460028E2D10C4876
:109EB00004F000F8FFF74CFF0346DBE70723D9E780
:109EC00080C90400B03300208D9D0200CC330020F7
:109ED0003837002004360020EC330020B435002051
:109EE0005432002008B5064B1B681BB906E0044B32
:109EF0001B68984713F0FAFC0028F8DA08BD00BF89
:109F00007837002010B50C46134B1860134A012116
:109F1000134821F0CDF898B9610CE00341F2707359
:109F2000984271F1000310D34FF47A72002321F0AC
:109F300041F9014600220B4821F0D0F838B910BD94
:109F4000094A4A2116F032FFE6E70521F2E7064A00
:109F50004B2116F02BFFF2E778370020E59E020038
:109F6000C0C904007C3700208CC90400002800F020
:109F700082802DE9F04FD1B004463F4B1B6813F4AB
:109F8000804F03D03D4B1B68032B31DC3A4B1B68E1
:109F900013F4804F03D0394B1B68032B2ADC51B0DC
:109FA000BDE8F08FE25C36490D68100959002E5C5F
:109FB0000FA800F8136002F00F020131AA5C4254AE
:109FC00001330F2BEED90FAA00238DF85C3003F17B
:109FD000804303F58833D3F804350292294A01926D
:109FE000294A009242222949042006F069FACDE765
:109FF0000023E6E7264BD3F804350D9320680202D0
:10A0000002F47F0242EA0062010A01F47F4142EA5F
:10A010000108B4F804C04FEA0C2292B2B4F806E08A
:10A020004FEA0E2189B2257A667AA77AE37A94F804
:10A030000C9094F80DA094F80EB0E47B0B94CDF83E
:10A0400028B0CDF824A0CDF8209007930697059668
:10A05000049541EA1E21039142EA1C22029248EA39
:10A06000106001900B4A00920D9B43220749042087
:10A0700006F026FA93E77047903200208C320020D9
:10A0800094320020FCC9040038BE0400E9C9040071
:10A090000010014010CA040010B582B00446438984
:10A0A000CBB900226168206815F018F8B8B92068AB
:10A0B00015F010F86081144B1B6813F4804F03D027
:10A0C000124B1B68032B0EDC6389C3B1206815F0AB
:10A0D000DFF802B010BD784600F07EFAE1E778467E
:10A0E00000F07AFAE3E70A4BD3F804350190094A05
:10A0F000009258220849042006F0E2F9E4E7784685
:10A1000000F06AFAE2E700BF903200208C320020B3
:10A110000010014084CA040075CA040038B5054621
:10A120000C46438973B16A89013A04FB02F2074C79
:10A13000A4FB0232D20B013292B2297A286814F0C1
:10A140008BFF38BD784600F047FAECE701800080CD
:10A1500072DF704773DF704774DF70472DE9F04797
:10A16000A2B0074688469146324C002525606560BE
:10A17000A560E56030490B78C3EB43102F4E0644D1
:10A1800026602F4A0244A2601F22A280A2810133CE
:10A1900003F001030B704FF03C0A5246294613A806
:10A1A00021F09CF906238DF84F30ADF8487001235B
:10A1B0008DF84A30ADF85C3012AA1892ADF83C70B8
:10A1C000ADF84090CDF844800DEB0A021D928DF859
:10A1D000783052462946684621F080F902238DF8EE
:10A1E0000030221D314613A815F0A4FF90B9114B81
:10A1F00003F10C029968684615F09CFF68B9114A92
:10A200000C491148FFF7A4FF082809D070B922B003
:10A21000BDE8F08716F0BCFDE9E716F0B9FDEEE702
:10A22000002204490848FFF793FFEFE716F0B0FD5E
:10A23000EDE700BFE03700209C370020A03700206A
:10A24000F03700206432002060320020B0F5202F6B
:10A250000AD2074BA3FB0023DB0808B103B9012393
:10A26000044A9381916070474FF6FF73F5E700BF92
:10A27000CDCCCCCC6432002008B50121054B187838
:10A28000FFF768FF18B9002004F004FD08BD16F0C0
:10A290007FFDF8E76032002008B5044B1878FFF71F
:10A2A0005BFF00B908BD16F073FDFBE760320020CC
:10A2B00076DF70477ADF70477CDF704769DF704771
:10A2C00008B516F065FD08BD08B503F0FBFD08BD37
:10A2D00000B583B0037823B1012B0BD003B05DF838
:10A2E00004FB3B214088FFF7E3FF0028F6D016F07F
:10A2F0004FFDF3E7094B1B6813F4804FEED0084B7A
:10A300001B68032BEADD074BD3F80435064A00929D
:10A3100068220649042006F0D3F8DFE790320020D7
:10A320008C32002000100140D8CA0400BDCA0400CD
:10A3300000B585B016F0E0F860BB0023039303A9D5
:10A34000012016F005F840BB00230093019302930F
:10A350009DF80020012363F303028DF80020D2B2A0
:10A3600063F307128DF800209DF8012063F30102CA
:10A370008DF801202123ADF80A30039A6946412067
:10A38000FFF79CFF60B903A816F03CF858B905B078
:10A390005DF804FB16F0FCFCCFE716F0F9FCD3E700
:10A3A00016F0F6FCEFE716F0F3FCF0E700B585B029
:10A3B0009DF80C30012262F303038DF80C30DBB200
:10A3C00062F307138DF80C3021220F4903A8FFF721
:10A3D00073FF98B90023019302937823ADF80430FA
:10A3E000C823ADF806304FF4C873ADF80A3001A8A1
:10A3F000FFF760FF28B905B05DF804FB16F0C8FC54
:10A40000E8E716F0C5FCF6E704CB040000B58BB016
:10A4100001AA0023019302937821ADF80410C8210A
:10A42000ADF806104FF4C871ADF80A100393049309
:10A4300005930693079308930993039240F6CD433F
:10A4400004934FF48033059303238DF81830074BA2
:10A450000893074B099303A816F03AFA10B90BB00A
:10A460005DF804FB16F094FCF9E700BFD1A20200EE
:10A47000C1A202000620704700B587B044F2010374
:10A4800098425DD01BD8012836D041F20103984292
:10A4900071D1474B1B6813F4804F36D0454B1B6876
:10A4A000002B32DD444BD3F8043502920191434A2C
:10A4B000009263224249012006F002F825E044F2AE
:10A4C0000203984257D13A4B1B6813F4804F1CD0BB
:10A4D000384B1B68002B18DD374BD3F80435106858
:10A4E0000390526802920191364A009269223449DF
:10A4F000012005F0E5FF08E02D4B1B6813F4804FA9
:10A5000003D02C4B1B68002B0DDC4FF0A0434FF405
:10A51000F012C3F81825C3F80C25EFF3108372B6B8
:10A520004DF6AD6C3DE0244BD3F804350292019119
:10A53000254A009260222249012005F0C1FFE4E78C
:10A540001B4B1B6813F4804FDFD01A4B1B68002B8A
:10A55000DBDD194BD3F80435106804905068039084
:10A56000029192680192194A0092732214490120C3
:10A5700005F0A6FFC9E70E4B1B6813F4804FC4D04B
:10A580000C4B1B68002BC0DD0B4BD3F8043501913D
:10A590000F4A00927B220A49012005F091FFB4E79F
:10A5A00030BF0C4B1B78002BFAD107B05DF804FBD1
:10A5B000903200208C320020001001407CCB04003F
:10A5C0004DCB0400A0CB040060CB0400C0CB040042
:10A5D000E4CB04007C32002000B583B001460023A8
:10A5E0000093054B01936A4644F20200FFF744FFD3
:10A5F00003B05DF804FB00BF3CC2040010B4034686
:10A60000044C006859689A68DB680FC45DF8044B15
:10A61000704700BF303800200E4B4FF0805202F1DF
:10A62000600103C983E8030003F1080CA43292E837
:10A6300003008CE8030093F9062002F00F0242F0B9
:10A6400040029A7193F9082002F03F0242F0800222
:10A650001A727047303800200048704730380020A8
:10A66000002308E0074901EBC3000022428042605A
:10A6700001F8332001331F2BF4D9034B00221A6059
:10A68000704700BF403800204039002000B58646A2
:10A69000114B1B684FF0000C0BE01F230F4A12F800
:10A6A0003300B0B102EBC3025288724509D00CF1FD
:10A6B000010CBCF11F0F0BD85A1E002BEDD0134616
:10A6C000ECE7064A02EBC30252688A42EFD100E08F
:10A6D00000205DF804FB00BF403900204038002016
:10A6E00010B40B4A13680B4C04EBC30CACF802001B
:10A6F000CCF80410012104F833100B441360202B14
:10A7000002D05DF8044B7047134600221A60F8E748
:10A7100040390020403800200021072918D830B4E3
:10A7200002E00131072910D84FEA011C094C34F826
:10A730000CC08445F5D104EB0114A568E4689C4283
:10A7400008BF9542EDD1012000E0002030BC7047E9
:10A75000002070474839002030B4C3698469C1883B
:10A760004FEA132C1B06C4F30C028A4218D28A1A31
:10A770002244A2F500529A184CF100010A4C2368B9
:10A780005D1C256003F00703B0F814C007481C01E6
:10A7900000EB031320F804C09A60D96030BC704706
:10A7A0008A1A2244E7E700BFC83900204839002050
:10A7B000C37D9BB1C3780A7802F080020A7003F06F
:10A7C0007F0313430B7002780B7803F07F030B7049
:10A7D00043EAC2130B7003789BB97047C3780A78B9
:10A7E00002F0BF020A709B0103F0400313430B7099
:10A7F000027903F0C0030B7002F03F0213430B70A9
:10A80000E1E700B58378082B14BF002201224B78C2
:10A8100003F07F034B7043EAC2134B70B0F806E0BD
:10A82000DAB202F080024A70CEF3861C4CEA0202D1
:10A830004A708B7803F003038B7043EA8E038B70AE
:10A8400090F808E0DAB202F0FC028A70CEF3C10C94
:10A850004CEA02028A70CB7803F01F03CB7043EA04
:10A860004E13CB70437ACA7802F0E002CA7003F04C
:10A870001F031343CB705DF804FB00000023032B80
:10A8800031D810B402E00133032B28D8C3EBC30244
:10A89000164C04EB021292F84820012AF3D1C3EBC4
:10A8A000C30204EB0212948AC2899442EBD1C3EB37
:10A8B000C3020E4C04EB0212D2888A42E3D1C3EBEE
:10A8C000C30204EB0212B2F8582012B1848AA242E9
:10A8D000D9D1C3EBC303054800EB031000E000200F
:10A8E0005DF8044B70470020704700BFF43900202A
:10A8F000002300E00133032B16D8C3EBC3020B493E
:10A9000001EB021292F84820022AF3D1C3EBC302F2
:10A9100001EB0212918A828A9142EBD1C3EBC3030D
:10A92000024800EB0310704700207047F439002004
:10A9300008B9042070470820704700B503468C46CC
:10A940000978C17000214162DCF808100B2904D895
:10A950009CF80C1029B3012100E00121197000209E
:10A96000987031B1DCF808100731C9080139597203
:10A9700018720121D97503F10C0E0CF1100103C9F5
:10A980008EE80300BCF80E109982DCF818101962EA
:10A990009CF81C109975DCF82010D9629A625DF859
:10A9A00004FB0021DAE7000000210E4B1B688B42FC
:10A9B00016D9002300E001330B4A02EBC1025268B2
:10A9C0009A420BD9084A52F8312002EBC30C12F814
:10A9D00033208242EFD1DCF8040070470131E4E714
:10A9E00000207047CC390020D039002070B58CB0E1
:10A9F00006460D4614462C22002101A820F06EFDCB
:10AA00000F238DF80430ADF808609DF80A3065F327
:10AA100000038DF80A308DF80B4001A801F014FAFC
:10AA20000CB070BD30B58DB005460C462C2200210F
:10AA300001A820F053FD10238DF8043002958DF805
:10AA40000C4001A801F000FA0DB030BD00B58DB08A
:10AA500010B913F1020F06D1074B186804F05AFB26
:10AA60000DB05DF804FB01218DF8041002930392F0
:10AA700001A801F0E9F9EFE7D839002070B5049C8E
:10AA8000002962D01D468E46D2F800C051689668F3
:10AA9000D368C4F80CC021616661A361D2F810C00C
:10AAA0005169C4F81CC02162002363700278D20986
:10AAB00022705AB30423734549D8E17D41B303782A
:10AAC00003F07F03E3700023A3709AB143789B01E6
:10AAD00003F4FE53827843EA9203E3808378DB0039
:10AAE00003F01803C27843EA52132372C37803F0C9
:10AAF0001F036372002363622B78032B21D82A780B
:10AB0000144B53F82230E362002070BD0123D2E7DA
:10AB10000178C1F38011E170017801F03F012171EA
:10AB200042B190F90130002B02DB0423A370CCE783
:10AB30000823FBE70421A1700B447345C5D9092004
:10AB4000E3E77846FFF748FDD9E70920DDE709206C
:10AB5000DBE700BF74CD040070B50C461D460378DA
:10AB60009BB104263244A26000F10C032360836A87
:10AB70006360C36AE36000232374204604F04AFE46
:10AB800010B963691E442E6070BD0126EAE72DE905
:10AB9000F0418EB00D4616461C46804600282DD04A
:10ABA000002D2FD0002C31D0636A0233059304F1BD
:10ABB0000C00E378002B2DD00121A27801AF3B4699
:10ABC000082A14BF0022012204F0F1FB0697CDF8F9
:10ABD0001C80B2B2ADF820200B9515440C95A378DB
:10ABE0008DF83430237B022B16D00023ADF82830AB
:10ABF00005A804F0D4FB0EB0BDE8F0817846FFF75D
:10AC0000EBFCCDE77846FFF7E7FCCBE77846FFF7AC
:10AC1000E3FCC9E70221D0E723692BB1236909933B
:10AC20001023ADF82830E3E77846FFF7D5FCF5E7C9
:10AC30002DE9F04188B004460D46C37D002B3CD081
:10AC4000082605FB06F8637AAB4238D0257201ABC3
:10AC5000324602A92046FFF77FFF074648BB4DB9A1
:10AC600094F8533033B9A369C3F30C03E380012391
:10AC700084F85330E37D7BB994F8523063B91DBB3F
:10AC8000E06EB4F84A10A27823468A1A0146FFF70C
:10AC90007EFF012384F8523007992046FFF788FD94
:10ACA000E16E32464144019820F0EFFB02A804F027
:10ACB000D7FD384608B0BDE8F0810C26C1E7B4F8EE
:10ACC0004A60A6EB0806C1E77846FFF785FCD7E7A0
:10ACD00070B505460E4609B100230B6095F850404B
:10ACE000002104E0631C85F850300134E4B26B7A33
:10ACF000A34210D3EA6C0123A3401A42F5D12146A6
:10AD00002846FFF795FF014628B9002EEAD03368A0
:10AD100001333360E6E7084670BDF0B589B00446FC
:10AD20000E46154683789A18C37D63B10B239A4269
:10AD300021D801AB02A92046FFF70EFF074620B13C
:10AD4000384609B0F0BD0F23F1E707992046FFF719
:10AD50002FFDE37D43B12A463146019820F095FB53
:10AD600002A804F07DFDEBE723462A460199304610
:10AD7000FFF70DFFF4E70927E2E7000010B50446EE
:10AD800090F84830012B0CD103F098FB237B012B6A
:10AD90000BD0094BD968014404F1300003F05AFB91
:10ADA00010BD7846FFF718FCEEE7A27D024BD9688C
:10ADB0001B6903FB0211EEE7DC39002030B583B0DC
:10ADC000002403E02846FFF7D9FF0134032C18D8EC
:10ADD000C4EBC4030C4A02EB031393F84830012B75
:10ADE000F3D100230193C4EBC40502EB051501A9BF
:10ADF0002846FFF76DFF0428E4D0019B002BE4D028
:10AE0000E0E703B030BD00BFF439002038B5044698
:10AE100090F84830022B09D1064B1D6803F04EFB19
:10AE2000411904F1300003F015FB38BD7846FFF7F7
:10AE3000D3FBF1E7DC39002038B5044690F8483000
:10AE4000022B10D10A4B5A7D5D689B6803FB0255AB
:10AE500003F034FB411904F1500003F0FBFA012325
:10AE600084F8683038BD7846FFF7B6FBEAE700BFE4
:10AE7000DC39002010B50446808A02F067FE012804
:10AE80001CD1237BE3B194F91620002A1ADBE27D62
:10AE90004AB1022B18D094F90330002B16DBA378AB
:10AEA000B3B900200BE0E2780AB9012B12D1237864
:10AEB00093B9A378042B11D1002000E0102010BD1D
:10AEC0001020FCE70720FAE71020F8E70720F6E754
:10AED0000720F4E70720F2E70020F0E70720EEE77D
:10AEE00038B5044603784BB1C388C2698169808A4A
:10AEF00006F036FE054645B9284638BDC269816967
:10AF0000808A06F027FE0546F5E7E169002201F098
:10AF10000101A08AFFF76AFDEEE700002DE9F04786
:10AF200080460E4617464B1EDBB2012B0FD8B7F5F5
:10AF3000C07F10D80024032C1AD8C4EBC403314AB4
:10AF400002EB031393F848304BB10134F3E7784632
:10AF5000FFF742FBEBE77846FFF73EFBEAE7C4EB7F
:10AF6000C40502EB0515384609F065FAE86600E00D
:10AF700000255DB3EB6E002B42D043462C4608F112
:10AF8000300ED3F800C058689968DA68C4F800C079
:10AF90006060A160E260103310347345F1D100238A
:10AFA000EB64A5F84A70012E13D06FF00103AB6279
:10AFB000002385F86830144BAB652D66134BAB63EB
:10AFC0002D64012002F048FA85F848602846BDE863
:10AFD000F0870F4B1B7D85F85130002385F85230E8
:10AFE00085F8533085F85030D8F828206A65A5F8E0
:10AFF00058306FF00103AB62064BAB632D64E0E7A2
:10B000001D46E3E7F439002057BA020069B3020095
:10B01000DC390020B5B3020000B585B000228DF800
:10B020000F20A0B10B46024602320A600DF10F015B
:10B03000184604F0B8F99DF80F3043B10C4B1B686B
:10B0400013F0040F03D00B4B1B68032B04DC9DF89B
:10B050000F0005B05DF804FB074BD3F80435074A31
:10B06000009240F215420649042005F029FAEEE765
:10B07000903200208C320020001001402CCC0400C3
:10B080001FCC04002DE9F04391B005460E4614464E
:10B090001F46D0F8188003784BB1C388C8F30C0260
:10B0A0009A4230D29B1A4344A3F50053AB6105F199
:10B0B0000C00EB7853B30121AA780DF130094B460F
:10B0C000082A14BF0022012204F071F9C5F8188083
:10B0D000CDF810900596AB78E21A92B2ADF8182030
:10B0E00032440A9209978DF82C300023ADF82030B5
:10B0F000EB78002B41D02B7B022B09D000236B6215
:10B100000193029316E09B1A4344CFE70221D3E751
:10B110001023ADF820302B690793EFE710AB03EB5A
:10B12000840454F83C3C6B62002011B0BDE8F0830D
:10B13000019BB3B102AB01AA2979286A10F05AFC2D
:10B140000024012CF4D810AB03EB840353F83C0C1F
:10B150000028EDD003A9FFF75FFF0028DED10134FE
:10B16000EFE72B7B022B2CD105F10C01E88910F0C5
:10B17000FBFC0028BFD10520D7E72B7B012B01D09A
:10B180000520D2E7EB89ADF80430AB8AADF8063084
:10B190000024012C13D82946002341F8243F10AB8A
:10B1A00003EB440333F83C0C10F049FC03A9686A34
:10B1B000FFF732FF08B90134EBE70020B5E70520BF
:10B1C000B3E70520B1E7000070B5F0B00E461446B5
:10B1D0001D4610AB0A4601462046FFF753FF50B10B
:10B1E000224B1B6813F0040F03D0214B1B68052B67
:10B1F0002FDC70B070BD2046FFF772FE0028F8D13A
:10B2000003AB01228DF80C20A28AADF80E2000229B
:10B2100004928DF8142010AA0692A178711AADF844
:10B220001C1008AA93E8030082E803000AAB04F1AB
:10B230000C0292E8030083E80300A37D8DF8383008
:10B24000236A0C93636A0D930F9505A800F0FCFD2B
:10B25000CFE7084BD3F80435074A009240F2037257
:10B260000649062005F02CF9C3E700BF9032002004
:10B270008C3200200010014040CC04001FCC0400A0
:10B2800010B50446C06E09F0DAF804F1300003F09E
:10B29000C9F894F84830022B08D0702200212046CB
:10B2A00020F01CF9002002F0D7F810BD04F1500086
:10B2B00003F0B8F8F1E710B58CB0044690F84830C8
:10B2C000012B0FD101238DF80430636D029303F03D
:10B2D000F5F8039001A800F0B7FD2046FFF7D0FF76
:10B2E0000CB010BD7846FFF777F9EBE730B585B0C5
:10B2F0000D460446A8B194F84830022B15D02946D3
:10B30000606DFFF78FFB2046FFF7BAFF114B1B68FC
:10B3100013F0040F03D0104B1B68032B09DC05B09E
:10B3200030BD7846FFF758F9E5E72046FFF714FAF5
:10B33000E5E70A4BD3F8043594F8482002950192CA
:10B34000074A009240F2F3120649042005F0B8F8CB
:10B35000E5E700BF903200208C3200200010014051
:10B360006CCC04001FCC040008B508460021FFF790
:10B37000BDFF08BD08B5037B012B02D0FFF79BFF83
:10B3800008BD0121FFF7B2FFFAE7000008B590F809
:10B39000513053B1013B80F85130002380F85030D8
:10B3A000034B186803F0B6FE08BDFFF7E3FFFBE7A9
:10B3B000D839002010B50C4691F84830012B03D144
:10B3C0002046FFF7E3FF10BD7846FFF705F9F7E7E2
:10B3D00070B5C6B00E46154682782A44C37D2BB19F
:10B3E0004FF48073934278D3002303E04FF4C0738B
:10B3F000F8E70133032B14D8C3EBC30C394C04EB2F
:10B400000C1C9CF848100129F3D1BCF81440818A27
:10B410008C42EED1BCF80E40C1898C42E9D108259E
:10B4200054E00121FFF77AFD0446002857D02A4650
:10B430003146C06E20F029F80023459345A92046E7
:10B44000FFF746FC054608B1042842D1459B8BB95D
:10B45000254B1B6813F0040F37D0244B1B68032BBC
:10B4600033DDB4F84AC0BCF1800F28BF4FF0800C28
:10B47000002313E02046FFF781FCE9E7E26ED25C8F
:10B480001B490D68100959002E5C04A800F81360D0
:10B4900002F00F020131AA5C425401336345EDD33F
:10B4A00004AA002302F81C3003F1804303F588331B
:10B4B000D3F8043502920F4A01920F4A00924FF4DA
:10B4C000AC620E49042004F0FBFF0025284646B07C
:10B4D00070BD2046FFF7D4FEF8E70925F6E70425FE
:10B4E000F4E700BFF4390020903200208C320020B5
:10B4F0009432002090CC040038BE04001FCC04001D
:10B5000070B504460D461646FFF7B4FC30B92378F3
:10B510002BB1324629462046FFF75AFF70BD32460E
:10B5200029462046FFF7F9FBF8E7000038B5044646
:10B530000D46CB695B780371CB691B7883F00103FF
:10B54000C370CB6943628B8A0B2B07D8CB7A002B55
:10B5500035D10B7B012B02D0002300E001232370A7
:10B56000002B31D0287B02282BD0FFF7E1F9A07007
:10B57000AB8A03440B33174A82FB03235B10013B66
:10B580006372002323720023E37504F10C0395E832
:10B59000030083E80300AB6923622B89A382AB7AA3
:10B5A000A3752B6AA362DF23E362284610F00AFB2F
:10B5B00020B12B78012B0AD0FF23E36238BD012391
:10B5C000CDE7054B987DD0E70423A370DBE720236C
:10B5D000F3E700BFABAAAA2ADC390020062979D1FB
:10B5E000F0B585B0154690F800C04FEA8C1202F411
:10B5F000FE5241788478C3781B0443EA04630479DB
:10B6000043EA042344791C434FFA8CF642EA910141
:10B610002846FFF733F90746E0B1002E2FDBC28939
:10B62000A98A8A422BD02C4B1B6813F0040F30D010
:10B630002A4B1B68012B2CDD294BD3F804350291D2
:10B640000192284A009240F27D622749022004F0CC
:10B6500037FF1EE0204B1B6813F0040F19D01F4B5F
:10B660001B68012B15DD1E4BD3F804351F4A0092D1
:10B6700040F279621C49022004F022FF09E0002E0A
:10B6800009DBFD6C2543FD644CB903213846FFF707
:10B690002DFE05B0F0BDAB8AA7F85830F1E73B7836
:10B6A00083B17B7A5A1C01239340013B9D420DD00C
:10B6B000002187F850103846FFF70AFB3846FFF79D
:10B6C0005DFBE6E77846FEF787FFEAE73846FFF7D7
:10B6D000F2FDDEE7704700BF903200208C32002080
:10B6E00000100140D0CC04001FCC0400A0CC04000A
:10B6F0002DE9F0438BB007460E4614461D46104612
:10B70000FFF7EEFB50B994F80380B8F1000F08D1B1
:10B710002B46224631463846FFF760FF0BB0BDE8A6
:10B72000F0834046FFF740F981460028F6D08DF8B7
:10B730000480236A0793A38AADF8123005AB04F1A5
:10B740000C0292E8030083E80300A37D8DF820300B
:10B750000297039623788DF81030E36A09932946FF
:10B7600001A8C847DAE792F801C01CF0010F08D021
:10B7700010B5D47D14B1FFF7BBFF10BDFFF724FD5A
:10B78000FBE7704708B501390130FFF7ECFF08BD52
:10B7900010B54FF4E072002113481FF09FFE06F031
:10B7A000ABF90024114B1C608022214610481FF089
:10B7B00095FE104B104A1A60104A5A604CF25032F3
:10B7C0009A600F49D9601A6104221A759C75082283
:10B7D0005A750C4803F07EFC0B4B18600B4B1C6039
:10B7E0000B4806F087FC10BDF4390020C839002052
:10B7F00048390020DC39002080969800F04902008A
:10B8000020A1070049BA0200D8390020CC39002015
:10B810004DAA020008B506F08FF908BD98B110B521
:10B820008CB00446036983B1C36983B1836983B172
:10B8300001466846FFF77AFEA28A21696846FFF74B
:10B840005FFE0CB010BD0E2070470E20F9E70E20F1
:10B85000F7E70E20F5E7000058B310B590B00A46A0
:10B86000044643683BB383693BB3014604A8FFF732
:10B8700064F8134B1B6813F0040F03D0114B1B68C3
:10B88000062B06DCA268616804A8FFF739FE10B039
:10B8900010BD0D4BD3F804352278A16902910192B5
:10B8A0000A4A009240F605020949072004F008FE02
:10B8B000E8E70E2070470E20E9E70E20E7E700BF1B
:10B8C000903200208C3200200010014014CD040082
:10B8D0001FCC0400037B012B01D00020704730B542
:10B8E00091B004460D463F4B1B6813F0040F03D084
:10B8F0003D4B1B68032B5ADC04A8002304930593DB
:10B90000CDF81730B4F806E09DF8101001F0800172
:10B910008DF81010CEF3861C4CEA01018DF8101042
:10B920009DF8112002F003028DF8112042EA8E02E8
:10B930008DF811202A0E8DF812202A0C8DF8132074
:10B940002A0A8DF814208DF815506278022A0CBF4F
:10B95000012119469DF8102002F07F028DF8102079
:10B9600042EAC1128DF810204FF0060209924FF002
:10B9700001028DF82C20A28AADF82E200C938DF8B0
:10B980001C300890226A0D928DF82830E36A0F93DC
:10B9900019D0E389ADF82A30A37DF3B98DF838309A
:10B9A0006FF0010107A8FFF757FF11B030BD0F4B33
:10B9B000D3F804350E4A009240F263220D49042068
:10B9C00004F07EFD98E70DF10E0103A810F0E8F8F1
:10B9D000BDF80C30ADF82A30DEE7074B5B7D8DF803
:10B9E0003830DDE7903200208C320020001001401A
:10B9F00040CD04001FCC0400DC39002090F8483012
:10BA0000022B00D0704710B5044690F86830022B26
:10BA100000D010BDC16CFFF75DFF0028F9D10023F5
:10BA200084F86830F5E7000010B5002407E0C4EBA7
:10BA3000C402130103481844FFF7E0FF0134032C4C
:10BA4000F5D910BDF439002008B5FFF7B7F9FFF7B5
:10BA5000EBFF012008BD10B50C4691F84830022BD1
:10BA600006D1022384F868302046FFF7C7FF10BDD7
:10BA70007846FEF7B1FDF4E7F0B583B00446C0693F
:10BA8000A369E188060A0006C3F30C0291422FD98C
:10BA90008A1A1A44A2F50052851846F100062A4671
:10BAA0003346A08AFEF738FE002840F08980204601
:10BAB000FEF71EFF074630B3C269D0F818C0C3882E
:10BAC000100A1206CCF30C01994214D2591A61449F
:10BAD000A1F50051521840F10003AA4273EB060190
