:020000022000DC
:1070000000F003206D7302005573020057730200F5
:10701000597302005B7302005D7302000000000000
:107020000000000000000000000000005F7302008C
:1070300061730200000000006373020065730200C8
:1070400067730200677302006773020067730200D0
:1070500067730200677302005DF403006773020048
:107060006773020059EE03007DBE030067730200E0
:1070700067730200677302006773020067730200A0
:10708000677302000193040051EB02006773020072
:10709000659304006773020069FF030067730200D1
:1070A0006773020067730200677302006773020070
:1070B0006773020067730200000000000000000018
:1070C0006773020067730200677302006773020050
:1070D0006773020067730200677302006773020040
:1070E000677302006773020067730200000000000C
:1070F00000000000677302000000000067730200D8
:10710000000000000000000000000000000000007F
:10711000000000000000000000000000000000006F
:10712000000000000000000000000000000000005F
:10713000000000000000000000000000000000004F
:10714000000000000000000000000000000000003F
:10715000000000000000000000000000000000002F
:10716000000000000000000000000000000000001F
:10717000000000000000000000000000000000000F
:1071800000000000000000000000000000000000FF
:1071900000000000000000000000000000000000EF
:1071A00000000000000000000000000000000000DF
:1071B00000000000000000000000000000000000CF
:1071C00000000000000000000000000000000000BF
:1071D00000000000000000000000000000000000AF
:1071E000000000000000000000000000000000009F
:1071F000000000000000000000000000000000008F
:10720000344935480A1A02D0072291438D46334942
:1072100033480A1A06D00722914381F309880222D3
:1072200082F314882F483049304A00F042F8304841
:107230003049314A00F03DF830483149314A00F0D8
:1072400038F831483149324A00F033F83148324990
:10725000324A00F02EF832483249334A00F029F819
:1072600032483349334A00F024F833483349002286
:1072700000F02AF832483349002200F025F832485D
:107280003249091A082902DB0022026041601F48C6
:107290001F49884205D00268043003B4904703BCFC
:1072A000F7E700208646EC4600200021284A904758
:1072B000FEE7884207D0521A05D0037801300B70E0
:1072C0000131013AF9D17047884202D00270013091
:1072D000FAE7704700F0032000E8032000F00320E5
:1072E00000F00320A8C10400002E0020703100200F
:1072F000A0730200A0730200D6980400A8C1040085
:10730000002E0020002E0020C89D0400C89D04000F
:10731000C89D0400C89D0400C89D0400C89D0400C9
:10732000C89D0400C89D0400A8C1040018C504003D
:1073300070310020703100207031002088670020FB
:10734000886700208867002088670020886B0020FD
:10735000157B0200FEE7FEE7FEE7FEE7FEE7FEE73D
:10736000FEE7FEE7FEE7FEE700F002B8FFF7FCBF2E
:1073700008484FF00701884385460748804707487B
:10738000016841F470010160BFF34F8FBFF36F8F4D
:10739000FFF736BF00F00320A503040088ED00E0EE
:1073A00041DF7047014B1B880B80704794310020F0
:1073B0000D4B1B6813F4804F03D00C4B1B68032B41
:1073C00000DC704700B585B0094BD3F80435029254
:1073D0000191084A0092B0220749042008F0BEFC3F
:1073E00005B05DF804FB00BF083100200431002027
:1073F000001001400C9E0400049E04000D4B1B680D
:1074000013F4804F03D00C4B1B68032B00DC704738
:1074100000B585B0094BD3F8043502920191084AB2
:107420000092A7220749042008F098FC05B05DF8F7
:1074300004FB00BF0831002004310020001001408F
:10744000349E0400049E040000B58DB01FF0FCF8CB
:107450002422002103A822F0D9F901238DF80C3051
:1074600007238DF80F3006238DF81430224B079335
:10747000224B0B93224903A80CF0D4FC034618B30B
:10748000002B32D00B2B2FD11FF022F91D4B1B6884
:1074900013F4804F03D01C4B1B68032B18DC194BD3
:1074A0001B6813F4804F20D0174B1B68032B1CDD87
:1074B000164BD3F80435164A009240F27312154960
:1074C000042008F04BFC10E01FF0DEF80346D7E77D
:1074D0000E4BD3F80435104A009240F271120D4958
:1074E000042008F03BFCDAE713B90DB05DF804FBAB
:1074F000184619F045F8F8E7ED7602009D75020090
:1075000070310020083100200431002000100140BB
:10751000B09E0400049E0400609E040000B583B089
:10752000174A04214FF4C04008F0FCFB154B1B68C0
:1075300013F4804F03D0144B1B68032B10DC13484B
:1075400002F004FA21F012FFB0B902F04BFB02F096
:1075500087FB02F0B5FBFFF777FF03B05DF804FB94
:107560000B4BD3F804350B4A009240F27F120A49C4
:10757000042008F0F3FBE2E719F002F8E5E700BFAA
:10758000F9FC02000831002004310020B02F002057
:1075900000100140EC9E0400049E040000B585B07C
:1075A00000212E4801F0AEF918BB2D4B1B6813F4D7
:1075B000804F03D02B4B1B68032B1DDC00212A4876
:1075C00001F088FD48BB2949274801F0B1FD48BBBF
:1075D0002549224801F090FA48BB214B1B6813F45F
:1075E000804F03D01F4B1B68032B25DC05B05DF8D3
:1075F00004FB18F0C5FFD8E71D4BD3F80435174A34
:10760000118892F8BC20029201911A4A0092B92284
:107610001949042008F0A2FBD0E7184ABF2118F04E
:10762000BDFFD0E7154AC02118F0B8FFD0E7134AD4
:10763000C12118F0B3FFD0E70D4BD3F804350A4A47
:10764000118892F83420029201910D4A0092C322CF
:107650000949042008F082FBC8E700BF102E002073
:107660000831002004310020D02F0020A82F002056
:1076700000100140249F0400049E0400C89D0400E3
:10768000609F040008B5034B1980034802F0A0F97D
:1076900008BD00BF94310020B02F002000B583B09A
:1076A0000D4B1B6813F4804F03D00C4B1B68032B4E
:1076B00006DC1FF00DF80CF015FC03B05DF804FBC0
:1076C000074BD3F80435074A0092E022064904200C
:1076D00008F044FBEDE700BF083100200431002032
:1076E00000100140909F0400049E040008B5037838
:1076F000232B00D008BDFFF7D1FFFBE730B5C7B0A3
:1077000003781D2B04D00446142B09D047B030BD9C
:107710002C4801F049F90028F8D018F031FFF5E7BE
:10772000294B1B6813F4804F03D0284B1B68042B94
:107730000FDC254B1B6813F4804FE7D0234B1B68ED
:10774000042BE3DD2369802B28BF80239E46002382
:1077500021E01F4BD3F80435C288018900790390DA
:10776000029101921B4A0092D7221B49052008F082
:10777000F5FADEE7E268D25C18490D681009590095
:1077800015F800C005A800F813C002F00F0201317F
:10779000AA5C425401337345ECD305AA002302F8D6
:1077A0001E3003F1804303F58833D3F80435029289
:1077B0000B4A01920B4A0092D9220749052008F092
:1077C000CDFAA3E7102E002008310020043100205C
:1077D00000100140AC9F0400049E04000C31002006
:1077E000DC9F0400E89F040030B583B00446451CCC
:1077F000504B1B6813F4804F03D04F4B1B68032B77
:107800001ADC022D32D0042D3BD0012D20D0494B63
:107810001B6813F4804F25D0474B1B68032B21DDD9
:10782000464BD3F80435464A009240F223124549AC
:10783000042008F093FA15E0404BD3F80435019585
:10784000414A0092FC223F49042008F087FAD8E719
:107850003E4A1388B3F5804F38BF4FF48043A3F5F9
:1078600080431380012C2BD903B030BD374A1388D5
:107870004BF6FF718B4228BF0B4603F58043138004
:10788000F0E70CF0CBFAA0B92A4B1B6813F4804F39
:10789000E8D0294B1B68032BE4DD284BD3F80435D3
:1078A0002B4A009240F21D122649042008F056FA95
:1078B000D8E70EF0A9F80CF0A5FAFFF7EFFED1E734
:1078C000224B1988234802F083F8234801F0CEF8B0
:1078D0000446184B1B6813F4804F03D0164B1B68EB
:1078E000032B17DC002CBFD0124B1B6813F4804F06
:1078F000BAD0114B1B68012BB6DD104BD3F8043501
:107900000194164A009240F22F120E49022008F00C
:1079100025FAA9E7094BD3F804350C4A12880192DD
:107920000F4A00924FF496720649042008F016FAA6
:10793000D8E700BF083100200431002000100140CA
:1079400008A10400049E0400F09F0400943100206C
:1079500004A00400B02F0020102E00203CA0040042
:10796000509E040000B583B03138032814D90D4B64
:107970001B6813F4804F11D00B4B1B68032B0DDDDC
:107980000A4BD3F804350A4A009240F23D120949E5
:10799000042008F0E3F901E0FFF726FF03B05DF8EB
:1079A00004FB00BF0831002004310020001001401A
:1079B00008A10400049E040000B585B003A812F0DD
:1079C000CFFB0D4B1B6813F4804F03D00B4B1B6890
:1079D000032B02DC05B05DF804FB094BD3F804353A
:1079E000BDF80C200192074A009240F24512064968
:1079F000042008F0B3F9EDE708310020043100203D
:107A0000001001406CA00400049E040000B58BB07F
:107A10006421204801F0D0FE1F4B1B789BB90393D3
:107A20000493059306930793089309931B4B0493C0
:107A30001B4B08931B4B099303A801F053FE20B185
:107A400018F09EFD01E0FFF7B7FF02F05FFA01F0CA
:107A5000E7FE154805F08AFE0CF036FA58B9134BCC
:107A60001B6813F4804F03D0114B1B68032B05DCFC
:107A70000BB05DF804FB18F083FDF0E70D4BD3F875
:107A800004350D4A009240F2AB120C49042008F074
:107A900065F9EDE76579020070310020C17A0200D6
:107AA00084A0040034A20400002E0020083100202D
:107AB000043100200010014008A10400049E0400CD
:107AC00000B583B00E4B1B6813F4804F03D00D4BF1
:107AD0001B68032B08DC02F0C3F802F0F1F8FFF793
:107AE0006BFF03B05DF804FB074BD3F80435074A7E
:107AF00000924FF4A5720649042008F02FF9EAE736
:107B0000083100200431002000100140B4A004001E
:107B1000049E040000B583B0FFF700FDFFF776FF79
:107B200009E04FF4FA644FF47A40114B43F001033B
:107B30009847013CF7D1FFF733FC0E4B1A8801320E
:107B400092B21A800C4B1B6813F4804FE9D00B4B98
:107B50001B68032BE5DD0A4BD3F804350192094A73
:107B600000924FF4DD720849042008F0F7F8D8E7D6
:107B7000F0A00400943100200831002004310020DE
:107B800000100140D0A00400049E040008B5D0F805
:107B9000C83013B1B0F8E810984708BD08B5A03850
:107BA00001F002FC08BD000010B582B0134B1C6848
:107BB00007E0002204F8042CA4F19C0001F0F4FB7F
:107BC0002468C4B114F8043C002BF9D00C4B1B689A
:107BD00013F4804FEDD00B4B1B68032BE9DD0A4BF0
:107BE000D3F80435094A00924FF43872084904204A
:107BF00008F0B4F8DDE7012002B010BDF03100203C
:107C000008310020043100200010014080A204004F
:107C100069A2040030B587B00446A0F1F805037FDF
:107C2000012B03D033B1022B08D103E010F8062C4E
:107C3000002AF7D034F80A3C24F80C3C34F8083C0D
:107C400024F80E3C002344F8043C144B1B6813F446
:107C5000804F03D0124B1B68032B09DC54F8283CDF
:107C600023B134F80E2C216A2846984707B030BD5E
:107C70000C4BD3F8043514F83C2C34F80C1C206A57
:107C80000490606A039002910192074A009240F2C8
:107C900015320649042008F061F8DFE708310020BA
:107CA000043100200010014090A2040069A20400E9
:107CB0000F4B1B6813F4804F03D00E4B1B68032B34
:107CC00000DC704700B585B00B4BD3F8043510F8D5
:107CD0003C2C30F8101C02910192084A00924FF49B
:107CE0003F720749042008F039F805B05DF804FB3D
:107CF000083100200431002000100140D4A204000B
:107D000069A2040038B50D46C4B20231204620F005
:107D10005DFF50B9291D204620F080FF50B929464B
:107D2000204620F02BFF50B938BD074A9B2118F0A0
:107D300035FCEFE7044A9C2118F030FCEFE7024ADB
:107D40009D2118F02BFCEFE744A2040010B582B08F
:107D50000C466946FFF7D6FFBDF80400A04207D3E2
:107D6000BDF80200A04202D914B9204600E0204626
:107D700002B010BD10B582B00446694690F8C40048
:107D8000FFF7C0FFB4F8E830BDF80210BDF80420DA
:107D90002BB18B4238BF0B46934228BF1346A4F841
:107DA000E8302046FFF7F2FE02B010BD08B580F8BB
:107DB0001431C0F80C112D23C0F810313AB113461C
:107DC0005268C0F828211B68C0F8083108BD00239C
:107DD000C0F8283100F5847190F8C40020F06CFFE1
:107DE0000028F3D0024A40F2BB3118F0D7FBEDE790
:107DF00044A204002DE9F04188B004460D46174620
:107E00009846A0F5CC76D6F8CC300DF11E01304660
:107E1000984707AA294696F8C40020F079FF002861
:107E200040D1A4F5CC75BDF81C1014F8D40CFFF7A4
:107E30008DFF0146A5F8F000B5F8E830A5F8EE3062
:107E400095F8C40020F0FCFE90BB34F8A81CA9BB38
:107E5000CDF81480069714F8D33C2BB1BDF81E2042
:107E6000BDF81C309A421AD0A4F1A007384601F0A0
:107E70009BFA34F8A80CBDF81E10002305AA411A7D
:107E80003046FFF793FF1D4B1B6813F4804F03D060
:107E90001B4B1B68032B1EDC384601F077FA08B039
:107EA000BDE8F081174A40F2E73118F077FBB8E7F8
:107EB000144A4FF47C7118F071FBC6E7002214F8E5
:107EC000D40C20F0C7FD0028C2D00E4A40F2F53194
:107ED00018F064FBBCE70C4BD3F8043534F8A82C3D
:107EE00005990391069902910192084A009240F285
:107EF00006420749042007F031FFCDE70831002092
:107F00000431002044A204000010014008A3040032
:107F100069A2040030B585B004460D4630F8B02C97
:107F200010F8D40C20F0DAFE50B9124B1B6813F491
:107F3000804F03D0104B1B68042B07DC05B030BD0D
:107F40000E4A40F2CE3118F029FBEEE70C4BD3F885
:107F5000043514F8D42C34F8B01C03910295019226
:107F6000084A009240F2D3320749052007F0F6FE96
:107F7000E4E700BF083100200431002044A20400DF
:107F80000010014040A3040069A2040038B5144663
:107F9000054638B132B1214695F8200020F08CFE1C
:107FA00020B938BD784601F071FFF4E7024A40F28B
:107FB000ED1118F0F3FAF4E744A2040030B583B0F1
:107FC000054614467AB1694695F8C400FFF79AFE53
:107FD000BDF802306380BDF80430A3809DF8003006
:107FE000237003B030BD784601F050FFEBE700008E
:107FF00070B582B014461D46064688B182B121682C
:1080000096F8200020F044FE70B92368019301A97E
:1080100030461EF0A3FD0DB123682B6002B070BD89
:10802000784601F033FFEAE7024A40F2052118F0F2
:10803000B5FAEAE744A2040010B582B00446B0F8ED
:10804000E830ADF80030B0F8EA30ADF80230019118
:10805000D0F8D4301BB16946D0F8D80098476946AB
:10806000201D20F08DF902B010BD000030B585B0A4
:108070000446A0F1F80530F8083C20F80E3C90F8D2
:108080002C20022A01D020F8103C2846FFF772FE6F
:10809000224B1B6813F4804F03D0214B1B68032B2A
:1080A00017DC54F8283C23B134F80E2C216A2846FA
:1080B000984734F8101CF1B934F8101C14F8340C3B
:1080C00020F0BEFD20BB00212846FFF7B5FF05B01C
:1080D00030BD144BD3F8043514F83C2C34F8101C84
:1080E00002910192104A00924FF464720F490420E9
:1080F00007F034FED5E7012214F8340C20F0AAFC76
:108100000028D9D00A4A40F29F3118F047FAD3E745
:10811000074A40F2A33118F041FAD4E708310020B1
:10812000043100200010014084A3040069A204006F
:1081300044A2040030B587B01446054600B3FAB136
:10814000D5F8CC300DF1160128469847BDF8163009
:10815000238095F82431022B16D0B5F8EA306380DD
:1081600005F1F80001F02EF960601D4B1B6813F457
:10817000804F03D01B4B1B68042B1FDC07B030BDA6
:10818000784601F083FEDBE704A995F8C400FFF709
:10819000B9FDB5F8EA20BDF814309A420BD000239F
:1081A0006380D5F8183123B1D5F81C310BB14FF0ED
:1081B000FF336360D9E74FF6FF73F1E70A4BD3F85B
:1081C0000435228861886068039002910192074A11
:1081D0000092D3220649052007F0C0FDCEE700BF7C
:1081E000083100200431002000100140B8A3040031
:1081F00069A204002DE9F04182B00446A0F1F8081C
:1082000001F003F90546204601F0DCF8074694F832
:108210002C30022B35D034F80E3C34F80C6C9B1B00
:108220004FEAE37CA3FB0501226AD31705FB0C117F
:1082300021F0BFF90644694614F8340CFFF762FDDB
:1082400076B3BDF80430BDF802008642B8BF0646DA
:108250009E42A8BF1E46B6B224F8106C4046FFF7F7
:1082600095FC94F82C30022B1CD0B7F5FA7F05D979
:1082700054F8043CEB1AB3F57A7F33D802B0BDE86A
:10828000F08134F80C6C606A4FEAE07CA5FB0001D9
:10829000226A002305FB0C1121F08BF90644CAE782
:1082A0000026D9E734F8102C636A002B03DDBDF8F3
:1082B00004108A4212D0002B0ADB0023002BD4D0FA
:1082C000012384F898300B4B186806F071FBCCE75B
:1082D000BDF802309A4203D00023EFE70123EDE717
:1082E0000123EBE744F8045C39464046FFF7A4FE5F
:1082F000C4E700BFEC310020F8B138B50D460446A4
:108300000F4BC0F8C0300F4B0F4A1A600F4A5A602B
:10831000C0F8B8300E4B0F4A1A600F4A5A60C0F8C6
:10832000AC30C43020F00CFD00B138BD84F8C5007D
:108330002946204620F050F8F7E70E20704700BF8E
:10834000BCA40400E43100208D8302005D830200A0
:10835000DC310020F17F02008D7F020038B5144629
:10836000054638B132B1214695F8600020F060FB37
:1083700020B938BD784601F089FDF4E7024A40F2A1
:10838000D51118F00BF9F4E744A2040070B51446B7
:108390001D46064650B14AB1217896F8600020F09B
:1083A00031FB38B90DB123782B7070BD784601F0E0
:1083B0006DFDF1E7024A40F2C11118F0EFF8F1E764
:1083C00044A20400F0B587B015461F460C9E044633
:1083D00038B332B3D4F8DC302BB1B5F9001089B220
:1083E000D4F8E000984702233A46B5F90010204639
:1083F000FFF7DCFCD4F8CC3004F1E80120469847C4
:1084000004A994F8C400FFF77DFCB5F90030002BF7
:108410000BDDD4F8082142B1BDF81430A4F8F030D7
:1084200009E0784601F032FDD4E7002B2EDBB4F8EA
:10843000E830A4F8F030284B1B6813F4804F03D0C9
:10844000264B1B68032B2ADC04F1F80000F09EFF8A
:10845000B5F900301BB1D4F80831002B34D19EB1EE
:10846000B4F8E8303380B4F8EA20BDF814309A420A
:108470002FD000237380D4F8083123B1B5F9003030
:108480000BB14FF0FF33736007B0F0BDD4F8083183
:10849000002BCCD0BDF81230A4F8F030CBE7104B55
:1084A000D3F80435B5F90020D4F808110391D4F8B5
:1084B0002811029101920B4A00924FF4CB720A49A3
:1084C000042007F04BFCBFE7D4F89C0100F044FE09
:1084D000C5E74FF6FF73CDE70831002004310020D7
:1084E00000100140E0A3040069A20400F0B589B0C7
:1084F00015461F460E9E0446002853D0002A51D030
:10850000D4F8DC301BB12988D4F8E0009847D4F8BF
:10851000CC300DF11E0120469847298894F8C400FC
:10852000FFF714FC0146A4F8F000B4F8E830A4F812
:10853000EE3094F8C40020F083FB002836D1B4F864
:10854000F010002937D194F8C53023B12A88BDF83E
:108550001E309A4251D0B4F8F000BDF81E1000232E
:108560003A46411A2046FFF721FCD4F80851244B23
:108570001B6813F4804F03D0224B1B68032B26DCAF
:1085800004F1F80000F002FFD4F89C0100F0E4FDD3
:1085900036B1B4F8E8303380B4F8F03073807560E9
:1085A00009B0F0BD784601F071FCA9E7164AF22146
:1085B00017F0F4FFC3E7002294F8C40020F04AFA51
:1085C0000028C0D0104AF52117F0E8FFBBE70F4B99
:1085D000D3F80435B4F8F020D4F80C1104910395C5
:1085E000D4F8281102910192094A009240F2011236
:1085F0000849042007F0B2FBC2E70025C8E700BF26
:10860000083100200431002044A204000010014081
:1086100014A4040069A20400F0B589B015461F46F1
:108620000E9E044600284BD0002A49D0D4F8DC30F6
:108630001BB12988D4F8E000984704F108001EF027
:10864000FBF884F8F200444B1B6813F4804F13D0FE
:10865000424B1B68032B0FDD414BD3F804352A79BD
:1086600090B34049029101923F4A009240F2331286
:108670003E49042007F072FBD4F8CC3004F1E80145
:108680002046984706A994F8C400FFF73BFB94F8EE
:10869000F2301BB1B4F8E820A4F8EE20B3B1B4F87E
:1086A000E8102B681944002915DDBDF81C308B42F9
:1086B00012DBBDF81A309942B8BF19468BB20BE0F5
:1086C000784601F0E3FBB1E72949CBE7B4F8EE10B7
:1086D0002B681944E7E70023A4F8F03001233A4659
:1086E00029682046FFF762FB1B4B1B6813F4804F81
:1086F00003D01A4B1B68032B11DC04F1F80000F0C7
:1087000045FE2B6813BB46B1B4F8E8303380B4F8AB
:10871000F0307380D4F80831736009B0F0BD104BAD
:10872000D3F80435B4F8F0200492D4F80821039269
:10873000D4F8282102922A6801920E4A00924FF43E
:10874000A8720A49042007F009FBD6E7D4F89C0177
:1087500000F002FDD7E700BF0831002004310020FF
:108760000010014074A404007CA4040069A2040069
:1087700054A4040088A4040038B50C46054620B172
:108780002146281D1FF01AFE38BD784601F07EFBF9
:10879000F6E7000070B582B005461C461646C2B129
:1087A000694695F8C400FFF7ADFA00238DF8003054
:1087B000318891B901238DF8003044B1BDF8023001
:1087C0006380BDF80430A3809DF80030237002B0B0
:1087D00070BD784601F05AFBE2E7ADF802107388ED
:1087E000ADF8043095F8C40020F0DAF990B9BDF87E
:1087F000041095F8C40020F0FBF988B99DF800102A
:1088000095F8C40020F0A4F980B969462846FFF71E
:10881000B3FFD2E7084A40F27F2117F0BFFEE6E738
:10882000054A4FF4207117F0B9FEE7E7024A40F21B
:10883000812117F0B3FEE8E744A2040030B583B00D
:108840000C460023ADF80430054638B1ADF80440BD
:1088500001A9281D1FF0A5FD03B030BD784601F029
:1088600015FBF3E770B504461D4616466AB131881C
:1088700094F8C40020F044F958B931882046FFF735
:10888000DDFF0DB133882B8070BD784601F0FEFA14
:10889000EDE7034A40F23E2117F080FEEDE700BF0E
:1088A00044A2040038B50446154632B1294694F86E
:1088B000C40020F03BF920B938BD784601F0E6FA53
:1088C000F4E7034A40F2252117F068FEF4E700BF01
:1088D00044A2040038B50446154632B1294694F83E
:1088E000C40020F0E3F820B938BD784601F0CEFA94
:1088F000F4E7034A40F21A2117F050FEF4E700BFF4
:1089000044A2040038B500283AD00446D0F8CC3050
:10891000002B37D0D0F8C83033B12046FFF7ECFC3D
:10892000054638B1284638BDD0F8D030002BF4D1F8
:108930000E25F7E7144BC4F89831144BC4F8F830FF
:10894000134BC4F8FC30134BC4F80031124BC4F87D
:10895000043104F1F800C4F88001002384F8903158
:1089600000F076FD05460028DCD104F5CA710B48FD
:1089700007F033F90A4805F0FBFF0A4B1860D1E70E
:108980000E25CFE70E25CDE7E0A40400B17C020060
:10899000157C0200F58102006D800200F03100209C
:1089A000A97B0200EC31002000285AD030B585B0F8
:1089B000054690F8C44002A9204620F0DFF830BBFD
:1089C0000DF10A01204620F001F930BB03A9204631
:1089D00020F024F938BB6946204620F029F840BB36
:1089E0000DF10201204620F041F940BB01A92046CB
:1089F00020F05CF848BB0DF10601204620F096F807
:108A000048BB694628461FF0B3FD05B030BD164A85
:108A10004FF48B6117F0C2FDD2E7134A40F259417F
:108A200017F0BCFDD2E7104A40F25A4117F0B6FDEC
:108A3000D1E70D4A40F25B4117F0B0FDD0E70A4A9A
:108A400040F25C4117F0AAFDD0E7074A40F25D41D1
:108A500017F0A4FDCFE7044A40F25E4117F09EFDF7
:108A6000CFE70E20704700BF44A2040000283FD08B
:108A700038B50446F83000F097FCB4F8E850D4F864
:108A8000CC3004F1E80120469847B4F8E810B9B9B1
:108A9000B4F8E81094F8C40020F0D2F8E8B9D4F89B
:108AA000DC3023B1B4F8E810D4F8E0009847B4F80B
:108AB000E830AB4217D100212046FFF7BDFA38BDA0
:108AC000012294F8C4001FF0C5FF0028E0D0094A35
:108AD00040F2744117F062FDDAE7064A4FF48F6105
:108AE00017F05CFDDBE7D4F89C0100F035FBE2E712
:108AF0000E20704744A2040020B129B1C0F89C1197
:108B0000002070470E2070470E2070475038704785
:108B100010B586B0FFF7FAFF0446154B1B6813F437
:108B2000804F03D0134B1B68042B0BDC0023A4F8ED
:108B30004830236C23B1B4F84A20216F204698476F
:108B400006B010BD0C4BD3F8043590F83420B0F8C3
:108B50004A10006F0490606F039002910192074ADF
:108B600000924FF4C6720649052007F0F7F8DDE7DA
:108B700008310020043100200010014020A504002D
:108B800011A5040000B583B0FFF7C0FF0D4B1B68B3
:108B900013F4804F03D00C4B1B68042B02DC03B092
:108BA0005DF804FB094BD3F8043590F834200192AA
:108BB000074A009240F283120649052007F0CEF8DA
:108BC000EDE700BF08310020043100200010014013
:108BD00064A5040011A5040000B585B08DF804104B
:108BE000B0F84830ADF80630B0F84A30ADF808308B
:108BF000039201A904301EF0A5FC05B05DF804FB4A
:108C000010B584B0FFF782FF0446B0F84A20A0F800
:108C100048200023A0F84A30134B1B6813F4804F00
:108C200003D0124B1B68042B0DDC236C23B1B4F86A
:108C30004A20216F20469847226F00212046FFF7E7
:108C4000CBFF04B010BD0A4BD3F8043590F83410B4
:108C500002920191074A00924FF4D2720649052010
:108C600007F07CF8E1E700BF083100200431002064
:108C70000010014080A5040011A5040070B138B5B2
:108C80000C4605463C301EF003FE00B138BD044BD7
:108C9000AB63214628461EF063FCF7E70E207047C1
:108CA000ECA6040038B5044680F86C200123436626
:108CB0002D2383660D4629B16B68C4F880302B687C
:108CC000236638BD784601F0E1F8F5E72DE9F0417B
:108CD0008AB015461F46109E0446E0B1DAB1B4F8DA
:108CE000482029888A421AD1002246B13270B4F84D
:108CF00048307380B4F84A30B380236EB360424B7F
:108D00001B6813F4804F03D0404B1B68032B67DCB8
:108D10000AB0BDE8F081784601F0B8F8DFE70DF160
:108D20001B0294F83C001EF077FD8046002855D1C8
:108D3000002308930993D7B1002239462046FFF754
:108D4000B1FF2B88A4F84A30D4F8EC30434520D842
:108D50002D4B1B6813F4804F03D02C4B1B68042B46
:108D600026DC04F1500000F011FB0022BDE7236B6C
:108D70009B685B684BB1206B83685B6807AA002126
:108D80009847079B089308AFD6E7784601F07EF82E
:108D9000F1E708F13A0354F8230003685F68236E93
:108DA000D4F880209DF81B10B84708F10108CBE7E4
:108DB000174BD3F804352A88216E0491D4F880101B
:108DC00003919DF81B1002910192124A009240F209
:108DD0002B121149052006F0C1FFC2E7022284E7E9
:108DE0000B4BD3F80435B4F84810B4F84A0003909C
:108DF00002910192094A00924FF49F7206490420A1
:108E000006F0ACFF84E700BF0831002004310020E9
:108E100000100140B8A5040011A50400F0A504004D
:108E200070B506460D46002401E0023501340F2CD2
:108E30000CD82A46E1B296F83C001EF0F5FC00285A
:108E4000F3D0034A622117F0A9FBEEE770BD00BF23
:108E5000ECA4040030B583B014460546A0B19AB125
:108E600000232370B5F848306380211D2846FFF7A2
:108E7000D7FF0E4B1B6813F4804F03D00C4B1B68BD
:108E8000032B05DC03B030BD784600F0FFFFE7E7B9
:108E9000084BD3F8043562880192074A0092F82201
:108EA0000649042006F05AFFECE700BF0831002015
:108EB000043100200010014024A6040011A5040084
:108EC00030B587B014460546E0B1DAB1002323700F
:108ED000B5F848306380B5F84A30A38095F87C3007
:108EE000022B13D12B6F0BB14FF0FF33A360144B48
:108EF0001B6813F4804F03D0124B1B68032B0BDC51
:108F000007B030BD784600F0C1FFDFE705F1500043
:108F100000F058FAA060EAE70B4BD3F804356288FA
:108F2000A188686F0490A068039002910192074A9B
:108F30000092E2220649042006F010FFE0E700BF9D
:108F400008310020043100200010014048A6040030
:108F500011A50400F0B587B016461D460446E0B1E1
:108F6000DAB10DF11702318894F83C001EF076FC5E
:108F7000074620BBB4F8482033889A4203D0B4F89F
:108F80004A20934217D104F1500000F00DFA00235B
:108F9000A4F84A30A4F848300DE0784600F076FF97
:108FA000DFE707F13A0354F8230003689B689DF854
:108FB000171098470137D4F8EC30BB42F1D845B1CF
:108FC00000232B70B4F848306B80291D2046FFF732
:108FD00027FF0E4B1B6813F4804F03D00C4B1B680C
:108FE000032B01DC07B0F0BD0A4BD3F80435B4F80D
:108FF0004A20B4F8481002910192074A0092C32215
:109000000649042006F0AAFEECE700BF0831002064
:10901000043100200010014090A6040011A50400B6
:10902000F0B587B015461C46074628B322B30DF1AC
:109030001702298897F83C001EF0CAFB064650BB71
:109040002B88A7F84830D7F8EC30B34218D8002561
:109050003CB12570B7F848306380211D3846FFF7D2
:10906000DFFE174B1B6813F4804F03D0154B1B68B2
:10907000032B12DC07B0F0BD784600F007FFD6E7FF
:1090800006F13A0357F8230003681B689DF8171090
:1090900098470136D7E70125DAE70B4BD3F80435BB
:1090A000B7F84A20B7F84810039102920195074A91
:1090B000009298220649042006F050FEDAE700BF2D
:1090C000083100200431002000100140B8A604003F
:1090D00011A5040000B310B50446036CFBB1FFF703
:1090E000CDFD034608B1184610BD0023A4F8483052
:1090F0000C4A22650C4A6265A3650C4BE36504F1DA
:109100005000C4F8D80000F0A3F903460028EAD1C3
:109110000022C4F8EC20E6E70E23184670470E2321
:10912000E1E700BF858B0200118B0200018C020079
:10913000034658B161B1D0F8EC0058B900F13A02D9
:1091400043F82210421CC3F8EC2070470E207047F1
:109150000E207047042070470023A0F84830704765
:1091600008B5034B53F820300846984708BD00BFA8
:1091700000A7040008B5034B53F820300846984771
:1091800008BD00BF18A7040008B5836803B198475D
:1091900008BD006B003818BF012070470369013B10
:1091A00013F1030F03D843691BB900207047002057
:1091B00070470120704708B5024601218C3009F044
:1091C000EEFE08BD08B50A4600230B63022102F13A
:1091D0008C0009F0E4FE08BD90F82C30022B01D180
:1091E0000020704710B5044638301DF098FB4FEA58
:1091F000411C4CEAD06C4201121A6CEB010C4FEA94
:109200008C0C4CEA927C93001B1841EB0C01C900BA
:1092100041EA5371C3F3103343EA4143C90B226A55
:10922000934271F1000301D3012010BD0020FCE73F
:1092300010B50446002303630362703004F040FD60
:1092400004F138001DF0A7FB10BD10B504463830FE
:109250001DF0A1FB00232362E3680BB12046984771
:1092600010BD08B5844600F1200E00F110030FCBAD
:109270008EE80F006046FFF7E8FF08BD08B5FFF76E
:10928000E4FF08BD70B5044600F1380528461DF01E
:1092900082FB04F1200604F110030FCB86E80F00D7
:1092A000636A83EAE376A6EBE376002B43D0226A77
:1092B000D30E5101891A63F100039B0043EA9173B5
:1092C0008900891843F100034FEAC30C324600239A
:1092D000C8004CEA517120F005F9A66AF20E73013C
:1092E0009B1B62F10002920042EA93729B009B1961
:1092F00042F10002D20042EA5372DB001E4694465D
:10930000984271EB020301D306468C46B6F57A7F8C
:109310007CF1000313D221220023C4E9102301238E
:1093200084F8383028461DF00DFB18B963680BB17E
:109330002046984770BD784600F0A8FDB7E74FEA91
:10934000CC3141EA5641F60305483018054A4FF042
:10935000000341F1000120F0C5F8C4E91001DEE787
:1093600020A1070040420F0010B5044604F0F4FCB1
:10937000236B4FF47A7101FB030104F1700004F0D8
:10938000B7FC23680BB12046984710BD10B50446C2
:1093900030B12246002104F18C0009F000FE10BD1E
:1093A000784600F073FDF4E710B5044630B122466C
:1093B000032104F18C0009F0F2FD10BD784600F0A5
:1093C00065FDF4E738B50546D8B12C6A05F13800DB
:1093D0001DF0A5FA4A0142EAD06243011B1A62EB72
:1093E0000102920042EA93729B00181841EB0201BD
:1093F000C90041EA5071C0F3103040EA4140201AE0
:1094000038BD784600F042FDDFE710B50446D8B11C
:1094100004F138001DF083FA84464A0142EAD06222
:1094200043011B1A62EB0102900040EA93709B001B
:1094300013EB0C0341EB0000C00040EA5370C3F390
:10944000103343EA404010BD784600F01FFDDFE7CF
:1094500038B5044690B1C4F880400A4BA367A464B1
:10946000094BE36404F138001DF0ACFA05460749E6
:1094700004F18C0009F07DFD284638BD784600F0E7
:1094800005FDE8E7C5910200B791020050A704006E
:1094900069DF704703781F2B00D07047014B012212
:1094A0001A70FAE7F73100203F4B1B78002B79D078
:1094B00000B587B0012804D003286CD007B05DF850
:1094C00004FB0023019301A9012016F0EDFB002805
:1094D0004BD100230393049305939DF80C200123A3
:1094E00063F303028DF80C20D2B263F307128DF8F8
:1094F0000C209DF80D2063F301028DF80D2021232F
:10950000ADF81630019A03A94120FFF7C1FF78BBDF
:1095100001A816F023FC70BB244B1B6803B19847CD
:109520000123029302A90DF1020011F09DFB28BB5B
:10953000BDF8020011F00AF80DF1010111F09EF9D9
:10954000F8B90BF0ABFF9DF8011000200CF0A6FA63
:10955000D0B904F09DF8D8B9134B00221A70134B00
:109560005B68002BAAD09847A8E717F009F8B0E786
:1095700017F006F8CCE717F003F8CDE717F000F87E
:10958000D6E716F0FDFFDCE7784600F07FFCE0E769
:1095900016F0F6FFE0E716F05BFC00288ED016F020
:1095A000EFFF8BE7704700BFF6310020F831002055
:1095B00008B5064B01221A70054804F0D7F804F0EC
:1095C000B9F800B908BD16F0DBFFFBE7F631002063
:1095D000C030002008B503781C2B00D008BD074B15
:1095E0001B78002BFAD016F077FC18B9044804F069
:1095F000C1F8F3E716F0C4FFF8E700BFF63100202A
:10960000C030002008B5094B1B7863B908490948E8
:1096100017F07EFC40B90323002207494969074837
:1096200017F092FC00E0082008BD00BFF7310020D1
:109630001432002080350020F83100204C34002006
:1096400008B50378023B082B3FD8DFE803F01C0580
:10965000113E3E2C3E3E36001E4B9B68002B34D004
:10966000007A002831D01C4A0121117098472CE063
:10967000184BDB684BB3184A127832B3164A0021F4
:109680001170984721E0154B1B784BB9114B1B69A2
:109690001BB1114A002111709847FFF7B3FF14E086
:1096A000FFF786FF11E010220A4B99690C4817F06A
:1096B000D4FC50B116F064FF07E08168C0680AF07E
:1096C00031FB18B9054B01221A7008BD16F058FF7E
:1096D000F8E700BFF8310020F4310020F531002018
:1096E0004C34002010B586B08446224A03AB07CA2A
:1096F00003C323F8022B120C1A701F4CA646BCE8B9
:109700000F00AEE80F009CE807008EE80700A36991
:10971000002B2DD0194B009303AB194A19491A4855
:1097200017F0B4FB034610B1184606B010BD174839
:1097300019F068F90146144817F0D4FB03460028D5
:10974000F2D1134819F0DEFA03460028ECD1104894
:1097500019F010FB01460C4817F0C4FB0346002823
:10976000E2D10C4804F002F8FFF74CFF0346DBE7B8
:109770000723D9E760A70400F831002041960200D2
:1097800014320020803500204C3400203432002078
:10979000FC330020CC30002008B5064B1B681BB9F9
:1097A00006E0044B1B68984713F0E8FC0028F8DA41
:1097B00008BD00BFC035002010B50C46134B186023
:1097C000134A012113481FF00BFE98B9610CE00306
:1097D00041F27073984271F1000310D34FF47A7222
:1097E00000231FF07FFE014600220B481FF00EFEF3
:1097F00038B910BD094A4A2116F0D0FEE6E7052126
:10980000F2E7064A4B2116F0C9FEF2E7C035002008
:1098100099970200A0A70400C43500206CA704009B
:10982000002800F082802DE9F04FD1B004463F4B74
:109830001B6813F4804F03D03D4B1B68032B31DCB6
:109840003A4B1B6813F4804F03D0394B1B68032B32
:109850002ADC51B0BDE8F08FE25C36490D68100992
:1098600059002E5C0FA800F8136002F00F020131BE
:10987000AA5C425401330F2BEED90FAA00238DF8B6
:109880005C3003F1804303F58833D3F8043502924A
:10989000294A0192294A009242222949042006F0CD
:1098A0005DFACDE70023E6E7264BD3F804350D93A8
:1098B0002068020202F47F0242EA0062010A01F417
:1098C0007F4142EA0108B4F804C04FEA0C2292B288
:1098D000B4F806E04FEA0E2189B2257A667AA77AB3
:1098E000E37A94F80C9094F80DA094F80EB0E47B11
:1098F0000B94CDF828B0CDF824A0CDF82090079394
:1099000006970596049541EA1E21039142EA1C221E
:10991000029248EA106001900B4A00920D9B43228C
:109920000749042006F01AFA93E77047083100202F
:10993000043100200C310020DCA70400E89F040063
:10994000C9A7040000100140F0A7040010B582B0C0
:1099500004464389CBB900226168206815F018F8E5
:10996000B8B9206815F010F86081144B1B6813F427
:10997000804F03D0124B1B68032B0EDC6389C3B1ED
:10998000206815F0DFF802B010BD784600F07EFACE
:10999000E1E7784600F07AFAE3E70A4BD3F80435BA
:1099A0000190094A009258220849042006F0D6F98D
:1099B000E4E7784600F06AFAE2E700BF08310020E9
:1099C000043100200010014064A8040055A80400E0
:1099D00038B505460C46438973B16A89013A04FBE0
:1099E00002F2074CA4FB0232D20B013292B2297A66
:1099F000286814F08BFF38BD784600F047FAECE792
:109A00000180008072DF704773DF704774DF70473A
:109A10002DE9F047A2B0074688469146324C002512
:109A200025606560A560E56030490B78C3EB4310A5
:109A30002F4E064426602F4A0244A2601F22A280B5
:109A4000A281013303F001030B704FF03C0A524630
:109A5000294613A81FF0DAFE06238DF84F30ADF823
:109A6000487001238DF84A30ADF85C3012AA189284
:109A7000ADF83C70ADF84090CDF844800DEB0A0293
:109A80001D928DF878305246294668461FF0BEFE7A
:109A900002238DF80030221D314613A815F0F6FF81
:109AA00090B9114B03F10C029968684615F0EEFF6E
:109AB00068B9114A0C491148FFF7A4FF082809D0DA
:109AC00070B922B0BDE8F08716F05AFDE9E716F04C
:109AD00057FDEEE7002204490848FFF793FFEFE740
:109AE00016F04EFDEDE700BF28360020E4350020DB
:109AF000E835002038360020DC300020D830002047
:109B0000B0F5202F0AD2074BA3FB0023DB0808B1D6
:109B100003B90123044A9381916070474FF6FF73A4
:109B2000F5E700BFCDCCCCCCDC30002008B501215E
:109B3000054B1878FFF768FF18B9002004F0F8FC0F
:109B400008BD16F01DFDF8E7D830002008B5044B1D
:109B50001878FFF75BFF00B908BD16F011FDFBE7B1
:109B6000D830002076DF70477ADF70477CDF70479F
:109B700069DF704708B516F003FD08BD08B503F0AE
:109B8000FDFD08BD00B583B0037823B1012B0BD0D8
:109B900003B05DF804FB3B214088FFF7E3FF00289A
:109BA000F6D016F0EDFCF3E7094B1B6813F4804F79
:109BB000EED0084B1B68032BEADD074BD3F80435C6
:109BC000064A009268220649042006F0C7F8DFE73B
:109BD000083100200431002000100140B8A8040022
:109BE0009DA8040000B585B016F032F960BB0023D3
:109BF000039303A9012016F057F840BB00230093FC
:109C0000019302939DF80020012363F303028DF872
:109C10000020D2B263F307128DF800209DF80120D6
:109C200063F301028DF801202123ADF80A30039A75
:109C300069464120FFF79CFF60B903A816F08EF833
:109C400058B905B05DF804FB16F09AFCCFE716F0A2
:109C500097FCD3E716F094FCEFE716F091FCF0E7E1
:109C600000B585B09DF80C30012262F303038DF836
:109C70000C30DBB262F307138DF80C3021220F4950
:109C800003A8FFF773FF98B9002301930293782389
:109C9000ADF80430C823ADF806304FF4C873ADF802
:109CA0000A3001A8FFF760FF28B905B05DF804FB92
:109CB00016F066FCE8E716F063FCF6E7E4A804009B
:109CC00000B58BB001AA0023019302937821ADF86F
:109CD0000410C821ADF806104FF4C871ADF80A1091
:109CE00003930493059306930793089309930392B0
:109CF00040F6CD4304934FF48033059303238DF84E
:109D00001830074B0893074B099303A816F08CFAF9
:109D100010B90BB05DF804FB16F032FCF9E700BF98
:109D2000859B0200759B02000620704700B587B036
:109D300044F2010398425DD01BD8012836D041F28D
:109D40000103984271D1474B1B6813F4804F36D002
:109D5000454B1B68002B32DD444BD3F8043502928F
:109D60000191434A009263224249012005F0F6FF27
:109D700025E044F20203984257D13A4B1B6813F492
:109D8000804F1CD0384B1B68002B18DD374BD3F8A5
:109D9000043510680390526802920191364A00928D
:109DA00069223449012005F0D9FF08E02D4B1B68DA
:109DB00013F4804F03D02C4B1B68002B0DDC4FF0AD
:109DC000A0434FF4F032C3F81825C3F80C25EFF385
:109DD000108372B64DF6AD6C3DE0244BD3F80435DC
:109DE00002920191254A009260222249012005F049
:109DF000B5FFE4E71B4B1B6813F4804FDFD01A4B11
:109E00001B68002BDBDD194BD3F804351068049078
:109E100050680390029192680192194A009273224D
:109E20001449012005F09AFFC9E70E4B1B6813F493
:109E3000804FC4D00C4B1B68002BC0DD0B4BD3F8FC
:109E4000043501910F4A00927B220A49012005F056
:109E500085FFB4E730BF0C4B1B78002BFAD107B05D
:109E60005DF804FB0831002004310020001001409F
:109E70005CA904002DA9040080A9040040A90400E5
:109E8000A0A90400C4A90400F430002000B583B0E8
:109E9000014600230093054B01936A4644F20200F9
:109EA000FFF744FF03B05DF804FB00BFC0A9040046
:109EB00010B40346044C006859689A68DB680FC404
:109EC0005DF8044B704700BF783600200E4B4FF012
:109ED000805202F1600103C983E8030003F1080C1A
:109EE000A43292E803008CE8030093F9062002F004
:109EF0000F0242F040029A7193F9082002F03F02EB
:109F000042F080021A72704778360020004870478D
:109F100078360020002308E0074901EBC300002247
:109F20004280426001F8332001331F2BF4D9034BE8
:109F300000221A60704700BF883600208837002052
:109F400000B58646114B1B684FF0000C0BE01F2339
:109F50000F4A12F83300B0B102EBC30252887245C7
:109F600009D00CF1010CBCF11F0F0BD85A1E002BAD
:109F7000EDD01346ECE7064A02EBC30252688A4270
:109F8000EFD100E000205DF804FB00BF883700201F
:109F90008836002010B40B4A13680B4C04EBC30C3A
:109FA000ACF80200CCF80410012104F833100B4483
:109FB0001360202B02D05DF8044B7047134600223B
:109FC0001A60F8E78837002088360020002107292A
:109FD00018D830B402E00131072910D84FEA011C2B
:109FE000094C34F80CC08445F5D104EB0114A56884
:109FF000E4689C4208BF9542EDD1012000E00020BA
:10A0000030BC7047002070479037002030B4C369DF
:10A010008469C1884FEA132C1B06C4F30C028A42E0
:10A0200018D28A1A2244A2F500529A184CF1000163
:10A030000A4C23685D1C256003F00703B0F814C0C8
:10A0400007481C0100EB031320F804C09A60D96094
:10A0500030BC70478A1A2244E7E700BF103800205E
:10A0600090370020C37D9BB1C3780A7802F080024C
:10A070000A7003F07F0313430B7002780B7803F030
:10A080007F030B7043EAC2130B7003789BB97047D0
:10A09000C3780A7802F0BF020A709B0103F0400304
:10A0A00013430B70027903F0C0030B7002F03F0200
:10A0B00013430B70E1E700B58378082B14BF00222F
:10A0C00001224B7803F07F034B7043EAC2134B70BD
:10A0D000B0F806E0DAB202F080024A70CEF3861CD5
:10A0E0004CEA02024A708B7803F003038B7043EA58
:10A0F0008E038B7090F808E0DAB202F0FC028A70EE
:10A10000CEF3C10C4CEA02028A70CB7803F01F0335
:10A11000CB7043EA4E13CB70437ACA7802F0E00268
:10A12000CA7003F01F031343CB705DF804FB0000FB
:10A130000023032B31D810B402E00133032B28D8BD
:10A14000C3EBC302164C04EB021292F84820012A1A
:10A15000F3D1C3EBC30204EB0212948AC289944286
:10A16000EBD1C3EBC3020E4C04EB0212D2888A423D
:10A17000E3D1C3EBC30204EB0212B2F8582012B1D0
:10A18000848AA242D9D1C3EBC303054800EB031074
:10A1900000E000205DF8044B70470020704700BFCE
:10A1A0003C380020002300E00133032B16D8C3EB1A
:10A1B000C3020B4901EB021292F84820022AF3D1A4
:10A1C000C3EBC30201EB0212918A828A9142EBD166
:10A1D000C3EBC303024800EB031070470020704735
:10A1E0003C38002008B9042070470820704700B5AB
:10A1F00003468C460978C17000214162DCF80810E2
:10A200000B2904D89CF80C1029B3012100E001218E
:10A2100019700020987031B1DCF808100731C908B6
:10A220000139597218720121D97503F10C0E0CF124
:10A23000100103C98EE80300BCF80E109982DCF807
:10A24000181019629CF81C109975DCF82010D9625E
:10A250009A625DF804FB0021DAE7000000210E4B52
:10A260001B688B4216D9002300E001330B4A02EB36
:10A27000C10252689A420BD9084A52F8312002EBC7
:10A28000C30C12F833208242EFD1DCF8040070478F
:10A290000131E4E70020704714380020183800200E
:10A2A00070B58CB006460D4614462C22002101A83C
:10A2B0001FF0ACFA0F238DF80430ADF808609DF85C
:10A2C0000A3065F300038DF80A308DF80B4001A8C1
:10A2D00001F014FA0CB070BD30B58DB005460C46D7
:10A2E0002C22002101A81FF091FA10238DF80430D0
:10A2F00002958DF80C4001A801F000FA0DB030BDB8
:10A3000000B58DB010B913F1020F06D1074B1868D4
:10A3100004F04EFB0DB05DF804FB01218DF8041034
:10A320000293039201A801F0E9F9EFE72038002039
:10A3300070B5049C002962D01D468E46D2F800C03C
:10A3400051689668D368C4F80CC021616661A36146
:10A35000D2F810C05169C4F81CC021620023637098
:10A360000278D20922705AB30423734549D8E17D9B
:10A3700041B3037803F07F03E3700023A3709AB125
:10A3800043789B0103F4FE53827843EA9203E3800F
:10A390008378DB0003F01803C27843EA5213237278
:10A3A000C37803F01F036372002363622B78032BCF
:10A3B00021D82A78144B53F82230E362002070BD74
:10A3C0000123D2E70178C1F38011E170017801F037
:10A3D0003F01217142B190F90130002B02DB0423CF
:10A3E000A370CCE70823FBE70421A1700B4473455D
:10A3F000C5D90920E3E77846FFF748FDD9E70920EA
:10A40000DDE70920DBE700BF54AB040070B50C4664
:10A410001D4603789BB104263244A26000F10C0370
:10A420002360836A6360C36AE36000232374204669
:10A4300004F03EFE10B963691E442E6070BD012613
:10A44000EAE72DE9F0418EB00D4616461C468046DF
:10A4500000282DD0002D2FD0002C31D0636A02337C
:10A46000059304F10C00E378002B2DD00121A27894
:10A4700001AF3B46082A14BF0022012204F0E5FB8D
:10A480000697CDF81C80B2B2ADF820200B9515448C
:10A490000C95A3788DF83430237B022B16D0002343
:10A4A000ADF8283005A804F0C8FB0EB0BDE8F08177
:10A4B0007846FFF7EBFCCDE77846FFF7E7FCCBE704
:10A4C0007846FFF7E3FCC9E70221D0E723692BB107
:10A4D000236909931023ADF82830E3E77846FFF7A6
:10A4E000D5FCF5E72DE9F04188B004460D46C37D63
:10A4F000002B3CD0082605FB06F8637AAB4238D027
:10A50000257201AB324602A92046FFF77FFF0746BE
:10A5100048BB4DB994F8533033B9A369C3F30C0366
:10A52000E380012384F85330E37D7BB994F8523003
:10A5300063B91DBBE06EB4F84A10A27823468A1AAC
:10A540000146FFF77EFF012384F852300799204629
:10A55000FFF788FDE16E3246414401981FF02DF966
:10A5600002A804F0CBFD384608B0BDE8F0810C2607
:10A57000C1E7B4F84A60A6EB0806C1E77846FFF7E2
:10A5800085FCD7E770B505460E4609B100230B6080
:10A5900095F85040002104E0631C85F850300134E8
:10A5A000E4B26B7AA34210D3EA6C0123A3401A42AF
:10A5B000F5D121462846FFF795FF014628B9002E20
:10A5C000EAD0336801333360E6E7084670BDF0B582
:10A5D00089B004460E46154683789A18C37D63B148
:10A5E0000B239A4221D801AB02A92046FFF70EFFA8
:10A5F000074620B1384609B0F0BD0F23F1E70799AF
:10A600002046FFF72FFDE37D43B12A4631460198EE
:10A610001FF0D3F802A804F071FDEBE723462A46A9
:10A6200001993046FFF70DFFF4E70927E2E7000044
:10A6300010B5044690F84830012B0CD103F08CFB88
:10A64000237B012B0BD0094BD968014404F1300066
:10A6500003F04EFB10BD7846FFF718FCEEE7A27D35
:10A66000024BD9681B6903FB0211EEE72438002076
:10A6700030B583B0002403E02846FFF7D9FF01344A
:10A68000032C18D8C4EBC4030C4A02EB031393F851
:10A690004830012BF3D100230193C4EBC40502EB36
:10A6A000051501A92846FFF76DFF0428E4D0019B9A
:10A6B000002BE4D0E0E703B030BD00BF3C38002001
:10A6C00038B5044690F84830022B09D1064B1D6876
:10A6D00003F042FB411904F1300003F009FB38BDDF
:10A6E0007846FFF7D3FBF1E72438002038B504465D
:10A6F00090F84830022B10D10A4B5A7D5D689B6858
:10A7000003FB025503F028FB411904F1500003F04C
:10A71000EFFA012384F8683038BD7846FFF7B6FBBE
:10A72000EAE700BF2438002010B50446808A02F012
:10A7300069FE01281CD1237BE3B194F91620002A7D
:10A740001ADBE27D4AB1022B18D094F90330002BBA
:10A7500016DBA378B3B900200BE0E2780AB9012B2D
:10A7600012D1237893B9A378042B11D1002000E0F3
:10A77000102010BD1020FCE70720FAE71020F8E7B2
:10A780000720F6E70720F4E70720F2E70020F0E7CC
:10A790000720EEE738B5044603784BB1C388C26999
:10A7A0008169808A06F02AFE054645B9284638BDEB
:10A7B000C2698169808A06F01BFE0546F5E7E169FA
:10A7C000002201F00101A08AFFF76AFDEEE7000018
:10A7D0002DE9F04780460E4617464B1EDBB2012B93
:10A7E0000FD8B7F5C07F10D80024032C1AD8C4EBBB
:10A7F000C403314A02EB031393F848304BB10134E0
:10A80000F3E77846FFF742FBEBE77846FFF73EFBBE
:10A81000EAE7C4EBC40502EB0515384609F059FA1E
:10A82000E86600E000255DB3EB6E002B42D04346A6
:10A830002C4608F1300ED3F800C058689968DA68E1
:10A84000C4F800C06060A160E2601033103473454A
:10A85000F1D10023EB64A5F84A70012E13D06FF0FC
:10A860000103AB62002385F86830144BAB652D669D
:10A87000134BAB632D64012002F048FA85F8486061
:10A880002846BDE8F0870F4B1B7D85F8513000232B
:10A8900085F8523085F8533085F85030D8F82820A4
:10A8A0006A65A5F858306FF00103AB62064BAB63E5
:10A8B0002D64E0E71D46E3E73C3800200BB30200BF
:10A8C0001DAC02002438002069AC020000B585B040
:10A8D00000228DF80F20A0B10B46024602320A601A
:10A8E0000DF10F01184604F0ACF99DF80F3043B19B
:10A8F0000C4B1B6813F0040F03D00B4B1B68032B8E
:10A9000004DC9DF80F0005B05DF804FB074BD3F89D
:10A910000435074A009240F215420649042005F02A
:10A920001DFAEEE70831002004310020001001403C
:10A930000CAA0400FFA904002DE9F04391B00546DC
:10A940000E4614461F46D0F8188003784BB1C388D2
:10A95000C8F30C029A4230D29B1A4344A3F5005329
:10A96000AB6105F10C00EB7853B30121AA780DF12E
:10A9700030094B46082A14BF0022012204F065F971
:10A98000C5F81880CDF810900596AB78E21A92B20F
:10A99000ADF8182032440A9209978DF82C30002324
:10A9A000ADF82030EB78002B41D02B7B022B09D067
:10A9B00000236B620193029316E09B1A4344CFE796
:10A9C0000221D3E71023ADF820302B690793EFE77E
:10A9D00010AB03EB840454F83C3C6B62002011B0D4
:10A9E000BDE8F083019BB3B102AB01AA2979286AC3
:10A9F00010F048FC0024012CF4D810AB03EB8403C6
:10AA000053F83C0C0028EDD003A9FFF75FFF0028A6
:10AA1000DED10134EFE72B7B022B2CD105F10C01A9
:10AA2000E88910F0E9FC0028BFD10520D7E72B7B8F
:10AA3000012B01D00520D2E7EB89ADF80430AB8AB9
:10AA4000ADF806300024012C13D82946002341F824
:10AA5000243F10AB03EB440333F83C0C10F037FCFD
:10AA600003A9686AFFF732FF08B90134EBE7002059
:10AA7000B5E70520B3E70520B1E7000070B5F0B0F9
:10AA80000E4614461D4610AB0A4601462046FFF707
:10AA900053FF50B1224B1B6813F0040F03D0214B1E
:10AAA0001B68052B2FDC70B070BD2046FFF772FECF
:10AAB0000028F8D103AB01228DF80C20A28AADF852
:10AAC0000E20002204928DF8142010AA0692A1787C
:10AAD000711AADF81C1008AA93E8030082E803007D
:10AAE0000AAB04F10C0292E8030083E80300A37DA3
:10AAF0008DF83830236A0C93636A0D930F9505A87F
:10AB000000F0FCFDCFE7084BD3F80435074A00926C
:10AB100040F203720649062005F020F9C3E700BFA2
:10AB200008310020043100200010014020AA040058
:10AB3000FFA9040010B50446C06E09F0CEF804F178
:10AB4000300003F0BDF894F84830022B08D0702292
:10AB5000002120461EF05AFE002002F0D7F810BD5A
:10AB600004F1500003F0ACF8F1E710B58CB00446E6
:10AB700090F84830012B0FD101238DF80430636D1C
:10AB8000029303F0E9F8039001A800F0B7FD204616
:10AB9000FFF7D0FF0CB010BD7846FFF777F9EBE771
:10ABA00030B585B00D460446A8B194F84830022B64
:10ABB00015D02946606DFFF78FFB2046FFF7BAFFDF
:10ABC000114B1B6813F0040F03D0104B1B68032BB1
:10ABD00009DC05B030BD7846FFF758F9E5E72046B7
:10ABE000FFF714FAE5E70A4BD3F8043594F8482048
:10ABF00002950192074A009240F2F312064904209E
:10AC000005F0ACF8E5E700BF083100200431002072
:10AC1000001001404CAA0400FFA9040008B5084632
:10AC20000021FFF7BDFF08BD08B5037B012B02D053
:10AC3000FFF79BFF08BD0121FFF7B2FFFAE7000015
:10AC400008B590F8513053B1013B80F851300023E2
:10AC500080F85030034B186803F0AAFE08BDFFF7D8
:10AC6000E3FFFBE72038002010B50C4691F8483090
:10AC7000012B03D12046FFF7E3FF10BD7846FFF715
:10AC800005F9F7E770B5C6B00E46154682782A4436
:10AC9000C37D2BB14FF48073934278D3002303E03C
:10ACA0004FF4C073F8E70133032B14D8C3EBC30C84
:10ACB000394C04EB0C1C9CF848100129F3D1BCF86A
:10ACC0001440818A8C42EED1BCF80E40C1898C427E
:10ACD000E9D1082554E00121FFF77AFD0446002858
:10ACE00057D02A463146C06E1EF067FD00234593BB
:10ACF00045A92046FFF746FC054608B1042842D185
:10AD0000459B8BB9254B1B6813F0040F37D0244BA0
:10AD10001B68032B33DDB4F84AC0BCF1800F28BF99
:10AD20004FF0800C002313E02046FFF781FCE9E799
:10AD3000E26ED25C1B490D68100959002E5C04A814
:10AD400000F8136002F00F020131AA5C4254013393
:10AD50006345EDD304AA002302F81C3003F18043BD
:10AD600003F58833D3F8043502920F4A01920F4A53
:10AD700000924FF4AC620E49042004F0EFFF00256E
:10AD8000284646B070BD2046FFF7D4FEF8E70925F7
:10AD9000F6E70425F4E700BF3C3800200831002026
:10ADA000043100200C31002070AA0400E89F040048
:10ADB000FFA9040070B504460D461646FFF7B4FC23
:10ADC00030B923782BB1324629462046FFF75AFF87
:10ADD00070BD324629462046FFF7F9FBF8E7000030
:10ADE00038B504460D46CB695B780371CB691B7897
:10ADF00083F00103C370CB6943628B8A0B2B07D8A6
:10AE0000CB7A002B35D10B7B012B02D0002300E045
:10AE100001232370002B31D0287B02282BD0FFF791
:10AE2000E1F9A070AB8A03440B33174A82FB03237A
:10AE30005B10013B6372002323720023E37504F16E
:10AE40000C0395E8030083E80300AB6923622B89B8
:10AE5000A382AB7AA3752B6AA362DF23E362284641
:10AE600010F0F8FA20B12B78012B0AD0FF23E3620F
:10AE700038BD0123CDE7054B987DD0E70423A370AF
:10AE8000DBE72023F3E700BFABAAAA2A243800207F
:10AE9000062979D1F0B585B0154690F800C04FEA83
:10AEA0008C1202F4FE5241788478C3781B0443EA82
:10AEB0000463047943EA042344791C434FFA8CF673
:10AEC00042EA91012846FFF733F90746E0B1002E28
:10AED0002FDBC289A98A8A422BD02C4B1B6813F026
:10AEE000040F30D02A4B1B68012B2CDD294BD3F8E3
:10AEF000043502910192284A009240F27D6227496E
:10AF0000022004F02BFF1EE0204B1B6813F0040FFF
:10AF100019D01F4B1B68012B15DD1E4BD3F80435D0
:10AF20001F4A009240F279621C49022004F016FF89
:10AF300009E0002E09DBFD6C2543FD644CB90321BB
:10AF40003846FFF72DFE05B0F0BDAB8AA7F85830A4
:10AF5000F1E73B7883B17B7A5A1C01239340013B94
:10AF60009D420DD0002187F850103846FFF70AFBAC
:10AF70003846FFF75DFBE6E77846FEF787FFEAE72E
:10AF80003846FFF7F2FDDEE7704700BF08310020CA
:10AF90000431002000100140B0AA0400FFA9040001
:10AFA00080AA04002DE9F0438BB007460E461446F4
:10AFB0001D461046FFF7EEFB50B994F80380B8F138
:10AFC000000F08D12B46224631463846FFF760FF76
:10AFD0000BB0BDE8F0834046FFF740F981460028FA
:10AFE000F6D08DF80480236A0793A38AADF8123057
:10AFF00005AB04F10C0292E8030083E80300A37D93
:10B000008DF820300297039623788DF81030E36A8C
:10B010000993294601A8C847DAE792F801C01CF055
:10B02000010F08D010B5D47D14B1FFF7BBFF10BDE0
:10B03000FFF724FDFBE7704708B501390130FFF742
:10B04000ECFF08BD10B54FF4E072002113481EF06C
:10B05000DDFB06F09FF90024114B1C608022214685
:10B0600010481EF0D3FB104B104A1A60104A5A6069
:10B070004CF250329A600F49D9601A6104221A7555
:10B080009C7508225A750C4803F072FC0B4B186033
:10B090000B4B1C600B4806F07BFC10BD3C380020BD
:10B0A0001038002090370020243800208096980027
:10B0B000F049020020A10700FDB202002038002064
:10B0C0001438002001A3020008B506F083F908BD7A
:10B0D00098B110B58CB00446036983B1C36983B1DC
:10B0E000836983B101466846FFF77AFEA28A216927
:10B0F0006846FFF75FFE0CB010BD0E2070470E20B3
:10B10000F9E70E20F7E70E20F5E7000058B310B579
:10B1100090B00A46044643683BB383693BB301469B
:10B1200004A8FFF764F8134B1B6813F0040F03D057
:10B13000114B1B68062B06DCA268616804A8FFF7A8
:10B1400039FE10B010BD0D4BD3F804352278A1693B
:10B15000029101920A4A009240F60502094907202D
:10B1600004F0FCFDE8E70E2070470E20E9E70E2012
:10B17000E7E700BF08310020043100200010014043
:10B18000F4AA0400FFA90400037B012B01D00020D6
:10B19000704730B591B004460D463F4B1B6813F025
:10B1A000040F03D03D4B1B68032B5ADC04A800237B
:10B1B00004930593CDF81730B4F806E09DF810100D
:10B1C00001F080018DF81010CEF3861C4CEA0101CD
:10B1D0008DF810109DF8112002F003028DF8112057
:10B1E00042EA8E028DF811202A0E8DF812202A0CC8
:10B1F0008DF813202A0A8DF814208DF815506278E6
:10B20000022A0CBF012119469DF8102002F07F028E
:10B210008DF8102042EAC1128DF810204FF006027E
:10B2200009924FF001028DF82C20A28AADF82E2051
:10B230000C938DF81C300890226A0D928DF82830FE
:10B24000E36A0F9319D0E389ADF82A30A37DF3B9EF
:10B250008DF838306FF0010107A8FFF757FF11B0E4
:10B2600030BD0F4BD3F804350E4A009240F26322F2
:10B270000D49042004F072FD98E70DF10E0103A8BA
:10B2800010F0D6F8BDF80C30ADF82A30DEE7074BE9
:10B290005B7D8DF83830DDE7083100200431002077
:10B2A0000010014020AB0400FFA904002438002056
:10B2B00090F84830022B00D0704710B5044690F843
:10B2C0006830022B00D010BDC16CFFF75DFF002875
:10B2D000F9D1002384F86830F5E7000010B50024A8
:10B2E00007E0C4EBC402130103481844FFF7E0FF72
:10B2F0000134032CF5D910BD3C38002008B5FFF708
:10B30000B7F9FFF7EBFF012008BD10B50C4691F827
:10B310004830022B06D1022384F868302046FFF71C
:10B32000C7FF10BD7846FEF7B1FDF4E7F0B583B076
:10B330000446C069A369E188060A0006C3F30C024B
:10B3400091422FD98A1A1A44A2F50052851846F163
:10B3500000062A463346A08AFEF738FE002840F051
:10B3600089802046FEF71EFF074630B3C269D0F839
:10B3700018C0C388100A1206CCF30C01994214D2EB
:10B38000591A6144A1F50051521840F10003AA4234
:10B3900073EB06010DD3954276EB030330D33846A9
:10B3A00003B0F0BD891ACA18D0E75B1A03EB0C0191
:10B3B000EAE705213846FFF7F3FBE388E269A16974
:10B3C000A08A06F0EDF8E8B9627A0132E37DA3B312
:10B3D000082101FB02F293B34FF48073934231D3FF
:10B3E00002212046FFF7F4F907460028D7D10021B3
:10B3F0002046FFF7C9FE02210020FEF76DFFCEE7D1
:10B400000027CCE7E388E269A169A08A06F040F949
:10B4100008B90027C3E723785BB1637A01330121C0
:10B42000994001392046FFF7AFFE2046FFF7B2F9F9
:10B43000EFE77846FEF72AFDEFE70C21C9E74FF466
:10B44000C073CBE70C4B1B6813F0040F03D00B4BFE
:10B450001B68002B01DC0027A1E7094BD3F804355A
:10B460000192084A009240F27F320749012004F01D
:10B4700075FCF0E7002792E7083100200431002036
:10B480000010014030AB0400FFA904002DE9F04199
:10B4900082B007460E46144698461046FFF746FF10
:10B4A000002846D00546404B1B6813F0040F03D01C
:10B4B0003E4B1B68032B3FDC2846FFF701F92B7B33
:10B4C000012B47D0EB6C217A01228A40134230D104
:10B4D0001343EB64043E237AE27D002A42D04FF00E
:10B4E000080C0CFB03FC697A8B423ED0002A41D049
:10B4F0000823B34240D1AA69A3699A4209D205F14F
:10B500000C0E0C340FCCAEE80F0094E803008EE86C
:10B510000300E86E3246391D60441EF04EF9EC6CB3
:10B520002B7873B36B7A5A1C01239340013B9C42E6
:10B530002BD002B0BDE8F0811D4BD3F80435227A40
:10B5400001921C4A009240F2A3321B49042004F0ED
:10B5500005FCB1E795F86830002BB3D12846FFF71A
:10B56000C5F8AFE74FF00C0CBBE70CEB0603A5F8F2
:10B570004A30C0E70C23BCE704212846FFF710FB44
:10B58000D7E77846FEF782FCCCE7E96C2846FFF760
:10B59000FBFD43462A46B5F84A10E86EFFF73DFD2D
:10B5A0002846FFF7C7FAC4E708310020043100201D
:10B5B0000010014044AB0400FFA904002DE9F04154
:10B5C00090B000284CD00F4614461E468046002AF4
:10B5D00048D004AB00933346FEF7AAFE054618B1E7
:10B5E000284610B0BDE8F08104A8FFF79DF8054695
:10B5F0000028F5D100230293039302A960880FF07D
:10B60000FBFE28B19DF8113043F001038DF8113095
:10B610002269E168208905F07BFF38B19DF811307F
:10B6200003F0FE038DF81130002BD9D09DF81130B6
:10B63000002BD5D013F0010F01D0039B08939DF888
:10B64000103033B1334604AA39464046FFF71EFF97
:10B65000C6E7334604AA39464046FFF7EDFCBFE78C
:10B660000E25BDE70E25BBE7F8B508B30E46054627
:10B67000164B1F68F7B93C46B4420FD205EBC40322
:10B680005B68D3B115F8340015F93430002B16DBA4
:10B69000B8B1FEF7E3FDB0B90134EDE70C4B43F868
:10B6A000375003EBC7035E607B1C084A136002E05F
:10B6B0000E2700E004273846F8BD0E27FBE70B27CE
:10B6C000F9E70F27F7E70F27F5E700BF1438002049
:10B6D00018380020084B196861B110B501E0214607
:10B6E0003CB10C680B79002BF9D0034804F0A0FAA8
:10B6F000F5E710BD704700BF003A002038B5054699
:10B7000030B1104B1C68C4B10F4B01221A7004E019
:10B710007846FEF7BBFBF4E724683CB12379002BA5
:10B72000FAD154F8043C28469847F5E7064B1B78B5
:10B73000022B03D0044B00221A7038BDFFF7CAFF5A
:10B74000F8E700BF003A0020FC39002010B504469D
:10B7500030B100232372211D034804F03EFA10BDCE
:10B760007846FEF793FBF4E7003A002010B5044654
:10B7700058B10A4B1B78013BDBB2012B09D8074BB0
:10B7800002221A700123237210BD7846FEF77EFB59
:10B79000EFE7211D024804F04BFAF5E7FC390020E1
:10B7A000003A00200A8883689B5A07339BB223F033
:10B7B000030313449BB20288043A934200D9002346
:10B7C0000B80704710B582B004468368C91AADF883
:10B7D00006100DF10601FFF7E5FFBDF80630A06881
:10B7E000184402B010BD0088043880B27047438806
:10B7F0008268D018D1520123837070478268002379
:10B80000937043808380704708B5073189B221F077
:10B81000030189B2428883889A4204D29B1A9942D2
:10B8200020DC002008BD9A4212D9B0F800C0ACEB71
:10B83000020C614518D98B4218D3BCF1030F03D910
:10B840008368134404229A70002343801846E9E772
:10B85000826813449B780BB10420E3E7FFF7CEFF27
:10B860000020DFE70420DDE70020DBE70420D9E744
:10B8700038B504460D468368828813448B4202D053
:10B880007846FEF703FB0023AB70211D2046FFF72F
:10B8900089FFA288A36813449B78042B00D038BD8D
:10B8A0000023A380FBE710B50C468368428813444D
:10B8B0008B4202D07846FEF7E9FA0023A37010BD50
:10B8C00070B5054614460E46002944D0002D46D0DA
:10B8D000B6F1005F08D94FF08053D3F80C3103F56F
:10B8E0000023B6EB832F0ED3B6F5000F08D94FF027
:10B8F0008053D3F80C3103F50053B6EB832F02D3FA
:10B900007846FEF7C3FA631E3344B3F1005F08D9EB
:10B910004FF08052D2F80C2102F50022B3EB822FB7
:10B920000ED3B3F5000F08D94FF08052D2F80C2196
:10B9300002F50052B3EB822F02D37846FEF7A6FA47
:10B94000042C10D92C8000236B80AB80AE60043CAB
:10B950003480B37070BD7846FEF798FAB6E7784643
:10B96000FEF794FAB4E77846FEF790FAEAE738B5BE
:10B970000446A0B16288A36813449B78012B12D0BF
:10B98000EFF3108572B6A388A16819448B78032B56
:10B990000DD02046FFF732FF05B962B638BD7846B4
:10B9A000FEF774FAE6E77846FEF770FAE8E7204615
:10B9B000FFF708FFA368C31A638000238370EBE7D7
:10B9C0002DE9F0410E4614460546D0B1EEB16A8825
:10B9D000AB6813449B78012B1BD024B32846FFF798
:10B9E00002FFA04221D3EFF3108872B62146284609
:10B9F000FFF70AFF074680B1B8F1000F16D162B613
:10BA000014E07846FEF742FAE0E77846FEF73EFAA1
:10BA1000DDE77846FEF73AFADFE721462846FFF7EA
:10BA2000E6FE3060E8E7092700E009273846BDE870
:10BA3000F081F8B50C4615460646E0B1FCB1A37896
:10BA4000012B20D12388AB4221D325B3EFF31087FC
:10BA500072B625800223A370F1183046FFF7A2FECC
:10BA60007388B288934203D0B268134400229A705C
:10BA700007B962B6F8BD7846FEF708FADEE7784601
:10BA8000FEF704FADBE77846FEF700FADAE77846D5
:10BA9000FEF7FCF9D9E77846FEF7F8F9D6E770B576
:10BAA0000C46054690B1ACB1EFF3108672B6AA8889
:10BAB000AB6813449A78042A10D09A78022A15D0D9
:10BAC000032A18D0052006B962B670BD7846FEF785
:10BAD000DDF9E8E77846FEF7D9F9E5E7291D2846BC
:10BAE000FFF760FEAA88AB681344E6E703229A706A
:10BAF00023600020E7E77846FEF7C8F90020E2E778
:10BB000038B5044680B1EFF3108572B6A088A168FD
:10BB100001448B78042B0BD08878022814BF0020B6
:10BB2000012005B962B638BD7846FEF7AFF9EAE7FD
:10BB30002046FFF747FE0146EEE738B5054630B12F
:10BB4000EFF3108472B6A888A968014407E078462C
:10BB5000FEF79CF9F4E72846FFF734FE01468878A3
:10BB6000C31EDBB2012BF6D9022814BF002001202E
:10BB700004B962B638BD70B50C46064678B194B1CA
:10BB8000EFF3108572B6A378012B10D0032B13D1DD
:10BB900021463046FFF76CFE05B962B670BD7846A7
:10BBA000FEF774F9EBE77846FEF770F9E8E721460F
:10BBB0003046FFF778FEEFE77846FEF767F9EBE7E8
:10BBC00010B5EFF3108472B68388816819448B78BE
:10BBD000042B06D08878B0FA80F0400904B962B628
:10BBE00010BDFFF7EFFD0146F4E70000024B002215
:10BBF0001A769A6002207047043A002008B5064B76
:10BC0000986800221A605A609A60DA601A615A6174
:10BC10009A6105F06BF808BD043A002000B585B0C4
:10BC20000A4BDB6802228DF8002001934FF4805309
:10BC30000293074A6946012001F0FAFA18B9012077
:10BC400005B05DF804FB0020FAE700BF043A0020CD
:10BC5000223A002000B585B00A4B1B6802228DF8FD
:10BC6000002001934FF480530293074A6946012054
:10BC700001F0DEFA18B9012005B05DF804FB0020E0
:10BC8000FAE700BF243A0020223A0020164BDA6877
:10BC9000137951795B1A03F57F2303F6FF7302EBE7
:10BCA00003339A4205D002F580520F4BDA6003202D
:10BCB000704700B585B00D4B1B6801208DF8000062
:10BCC00001930B4B0393042302930A4A694601F044
:10BCD000AFFA18B1002005B05DF804FB024B012259
:10BCE0001A760220F7E700BF043A0020243A002029
:10BCF000283A0020223A002000B585B00C4BDA68C3
:10BD00000C4B1B68043301208DF800000192039353
:10BD100040F6FC730293084A694601F089FA28B993
:10BD20000120034B187605B05DF804FB0020FAE70C
:10BD3000043A0020243A0020223A002000B585B0C1
:10BD40000A4B1B6801208DF800000193084B0393F8
:10BD500004230293074A694601F06AFA18B90120E0
:10BD600005B05DF804FB0020FAE700BF243A00208C
:10BD7000103A0020223A002010B584B0104BDA6847
:10BD80001478104B1B68043301208DF800000193D8
:10BD9000039202940C4A694601F04AFA70B9094BC1
:10BDA0001B6804F0FC041C440434054B5C61D96836
:10BDB0000A780A441A61012004B010BD0020FBE794
:10BDC000043A0020243A0020223A002008B500233B
:10BDD0000A2B09D8064A52F82320824201D00133A7
:10BDE000F6E7044A536002E07846FEF74FF808BDD4
:10BDF000D0AB0400043A002010B5214BDB6853B1EE
:10BE00001F4B1B7E5BB91E4B5B680A2B26D97846FD
:10BE1000FEF73CF822E07846FEF738F8F0E778467F
:10BE2000FEF734F8EFE7164A5368013353600A2BE4
:10BE300021D97846FEF72AF81DE0114B00225A60FE
:10BE400019E00F4B1B7E1BB10D4B02221A7012E042
:10BE5000FFF7D4FE0FE00A4B1B7E83B9084B5A68EC
:10BE6000084B53F82230984704460228E9D00328AB
:10BE7000E3D00128D7D0012CEDD0032CEBD010BD9E
:10BE8000043A0020D0AB0400104B1B681B685A1EFC
:10BE900012F1030F18D8C3F30B020AB10020704748
:10BEA00010B50B4AD3600023137653760124147027
:10BEB00093600848FFF78AFF0749204601F0A6F97A
:10BEC000FFF79AFF204610BD00207047243A00205B
:10BED000043A00201DBC0200DDBE020008B50B784C
:10BEE000032B06D00B4B1B78012B06D0022B0BD05B
:10BEF00008BD084B00221A76F4E7064B1B7E002B88
:10BF0000F6D1FFF779FFF3E70B78032BF0D1FFF7BA
:10BF100075FEEDE7043A002000B585B0174BDB68ED
:10BF200018784FF6FF7203F58051184405F0E6FCCF
:10BF3000E0B10246114BD9680B780B44984217D0F8
:10BF40000E4B5B7E83B10E4B01208DF800000192F9
:10BF50000393042302930B4A694601F069F948B937
:10BF60000120064B187606E0074BEDE7012002E0C2
:10BF7000012000E0002005B05DF804FB043A002039
:10BF8000F4AD0400223A0020F0AD040008B5104BD7
:10BF9000DB681878002203F58051184405F0AEFCE8
:10BFA00008B1012008BD0A4BDA68137951795B1A90
:10BFB00003F57F2303F6FF7302EB03339A4205D0A8
:10BFC00002F58052024BDA600320EBE70220E9E73A
:10BFD000043A0020F0B585B0514BDE6872793379B0
:10BFE000591E8A4214D006F580510D780D444D49F2
:10BFF0000968081D0F7907449B1A06EB03366B8806
:10C00000013B9BB247F6FE62934260D92C461AE090
:10C010000120434B58767EE07846FDF737FF15E068
:10C0200024F47F6424F00F0404F5805423781C4426
:10C03000A6421CD9A5421CD26388013B9BB247F69D
:10C04000FE62934211D92388002BE5D0238804EBAC
:10C05000830323F47F6222F00F029342E0D06288D0
:10C06000B2F5FE4FDCD01C46E2E725462FE0002566
:10C070002DE000252BE07846FDF708FF15E024F4BD
:10C080007F6424F00F0404F5805423781C44A642F6
:10C090001CD9A54237D26388013B9BB247F6FE62AA
:10C0A000934211D92388002BE5D0238804EB830326
:10C0B00023F47F6222F00F029342E0D06288B2F54F
:10C0C000FE4FDCD01C46E2E7254600E00025E5B146
:10C0D000144B19686A8801F58051384605F00EFC4A
:10C0E000074690B101200E4B18768DF8000001959F
:10C0F0000D4B0393042302930C4A694601F098F810
:10C1000058B92C46CEE70025E1E7B5FA85F56D096B
:10C11000034B5D76012005B0F0BD0020FBE700BFBA
:10C12000043A0020243A0020ECAD0400223A00201A
:10C130002DE9F04186B0654B1B6923B1634B5B6908
:10C140002BB1002748E07846FDF7A0FEF6E77846D9
:10C15000FDF79CFEF5E7A04618E07846FDF796FE51
:10C1600018E028F47F6828F00F0808F5805898F840
:10C1700000309844454520D944454AD2B8F80230A9
:10C18000013B9BB247F6FE62934214D9B8F80030E7
:10C19000002BE2D0B8F8003008EB830323F47F6271
:10C1A00022F00F029342DCD0B8F80220B2F5FE4F25
:10C1B000D7D09846DEE7444600E000243CBB00238D
:10C1C0000093019B002B5CD10127002C78D0628862
:10C1D00047F6FF739A4273D0002F75D13B4B5A69D3
:10C1E00022F47F6626F00F06B61A06F580561C6903
:10C1F000DD682B796A799B1A05EB033500230193DF
:10C200006388013B9BB247F6FE629342A3D8009439
:10C210000EE00024D2E77846FDF738FE23E024F450
:10C220007F6424F00F0404F58054237823441C46D3
:10C23000A542C6D92388019A02EB83029642C0D94F
:10C24000009B634023F47F6323F00F03002BB8D1DE
:10C250006388013B9BB247F6FE618B42B1D80192E5
:10C260002388002BD7D0238804EB830323F47F6239
:10C2700022F00F029342D2D06288B2F5FE4FD6D19F
:10C28000CDE7124A526901208DF808000392009A06
:10C29000059204930E4A02A900F0CAFF70B90B4937
:10C2A000019B23F003024B6913444B6114B1074B0C
:10C2B0001C618AE77846FDF7E9FDF8E7002000E019
:10C2C000012006B0BDE8F0810120FAE7043A002021
:10C2D000223A002000B585B00023294A1370D3F814
:10C2E000F83FB3F1FF3F09D0B3F1FF3F0DD08BB161
:10C2F000B3F1FF3F39D0A3F5805211E04FF0102287
:10C300005269B2F1FF3FEFD104E04FF010225269C1
:10C31000002AEDD14FF080535A691B6903FB02F2EA
:10C32000A2F58052174B1A60174B1B6813F4801F3D
:10C3300016D0164B1B68062B12DD154BD3F80435AF
:10C340000021D1F8F81FB1F1FF3F14D00292019102
:10C35000104A009240F276220F49072003F0FEFCBB
:10C36000FFF792FD05B05DF804FB4FF010235A690A
:10C37000A2F58052D4E74FF010214969E6E700BFEB
:10C38000203A0020243A0020083100200431002007
:10C39000001001409CAB040083AB040010B50446C0
:10C3A000B0B1104B1B78BBB10E4BD968E36858791C
:10C3B000A3EB0032914211D31A79121A02F57F22AF
:10C3C00002F6FF7203EB0233994209D8012004E020
:10C3D0007846FDF75BFDE4E7002010BD0020FCE798
:10C3E0000020FAE7043A0020024B1878003818BF02
:10C3F00001207047043A002010B50446124B1B7808
:10C40000BBB92378032B18D10F4B9C60E268DA602C
:10C410000E4B1B78ABB10A220B4B5A6000221A76E6
:10C42000012018705A760A4900F0F0FEFFF7E4FC8C
:10C4300010BD7846FDF72AFDE3E77846FDF726FDB7
:10C44000E2E70022E8E700BF043A0020203A00209B
:10C45000DDBE0200014B1868704700BF243A00207F
:10C4600010B5044680B163681BB123680BB1A368A3
:10C4700013B97846FDF70AFDA3685A1E134207D187
:10C480000023E360236110BD7846FDF7FFFCEAE777
:10C490007846FDF7FBFCF3E770B508B30E4604469B
:10C4A0008368FBB1EFF3108572B60369C2689342EB
:10C4B00012D001684268806800F1FF3C03EA0C0377
:10C4C00003FB021116B130461DF077F923690133E1
:10C4D00023614DB962B608E005B962B6052504E0EE
:10C4E0000E2502E0092500E00025284670BD000069
:10C4F0000246C0F30B0030BB39B301F6FF714FEABF
:10C50000113C134B0221C3F80415114BD3F800342E
:10C51000002BFAD001460AE00D4BC3F808250C4B5E
:10C52000D3F80034002BFAD002F580520131614576
:10C53000F2D3074B0022C3F80425054BD3F800348F
:10C54000002BFAD07047102070470920704700BFB9
:10C5500000E00140844610F0030F2DD111F0030FCD
:10C560002CD16AB312F0030F2CD19008164B012284
:10C57000C3F80425144BD3F80034002BFAD003E0A1
:10C580000CF1040C04311046421E58B10B68B3F193
:10C59000FF3FF5D0CCF800300B4BD3F80034002B24
:10C5A000FAD0EDE7084B0022C3F80425064BD3F878
:10C5B0000034002BFAD070471020704710207047CD
:10C5C000092070470920704700E00140094B1B78A3
:10C5D00013F0040F02D00378122B00D07047064BE3
:10C5E0001A68064B5A60034B1A786FF382021A706E
:10C5F000F4E700BFD03A0020C03A00205C3A0020A7
:10C6000010B582B001900C46BDF80630012B11D157
:10C6100023680A490B600A4B1A7842F001021A702B
:10C62000D3B25B0883F0010303F001030B71002018
:10C6300002B010BD7846FDF729FCE9E7C03A0020BA
:10C64000D03A002010B582B001900C46BDF80630FB
:10C65000022B0FD12268094B1A6022791A7100202F
:10C6600058719871D871064A137843F00203137019
:10C6700002B010BD7846FDF709FCEBE7B83A0020A0
:10C68000D03A002010B582B001900C46BDF80630BB
:10C69000032B06D1054B186820601B79237102B06B
:10C6A00010BD7846FDF7F2FBF4E700BFC03A00206A
:10C6B00010B582B001900C46BDF80630032B0CD1AA
:10C6C000084B2068186022791A71074A137843F0E2
:10C6D00001031370002002B010BD7846FDF7D6FBB1
:10C6E000EEE700BFC03A0020D03A002010B582B07B
:10C6F00001900C46BDF80630042B05D1044B03CB4A
:10C700002060616002B010BD7846FDF7BFFBF5E721
:10C71000B83A002010B582B001900C46BDF8063042
:10C72000042B0BD1074B2068616803C3064A1378BA
:10C7300043F002031370002002B010BD7846FDF7ED
:10C74000A5FBEFE7B83A0020D03A002000B583B04F
:10C750000190BDF80630032B06D1054B00221A606C
:10C760001A7103B05DF804FB7846FDF78FFBF4E720
:10C77000C03A002000B583B00190BDF80630042B0C
:10C7800006D1054B00221A605A6003B05DF804FB25
:10C790007846FDF77BFBF4E7B83A002000B585B09A
:10C7A0001A4B1B7813F0400F13D0184B1B7813F063
:10C7B000040F0BD1002301938DF80830144B5B68F4
:10C7C00003F500530193B3F1807F06D905B05DF8FE
:10C7D00004FB7846FDF75AFBE7E70E4B1B788DF814
:10C7E00008300A4A137843F0040313700023ADF8AD
:10C7F0000C300323ADF80E3001A9039806F060FA5F
:10C800000028E3D07846FDF741FBDFE7D03A00206F
:10C810005C3A0020D13A002000B585B00022019298
:10C8200002920F4B996801911B7B8DF808300D49DE
:10C830000B780133DBB20B708DF80B30ADF80C20A8
:10C840000423ADF80E300DEB0301039806F038FA1F
:10C8500010B905B05DF804FB7846FDF717FBF8E763
:10C860005C3A0020D13A002000B585B00023019346
:10C8700002930F4A91680191117B8DF80810128A7A
:10C88000ADF809200B4A12788DF80B20ADF80C306A
:10C890000423ADF80E300DEB0301039806F010FAF7
:10C8A00010B905B05DF804FB7846FDF7EFFAF8E73C
:10C8B0005C3A0020D13A002000B58DB00B4B1B7BB9
:10C8C000012B0ED0094A926804928DF8083003902B
:10C8D00002238DF8043001A8FEF710FF0DB05DF8BB
:10C8E00004FB024A9268013A0492EEE75C3A0020A7
:10C8F00008B51D481D4B036000F038FF1C4B1B782A
:10C9000013F0200F2AD103F00303032B14D1194B8A
:10C910001968194A916019791173B3F805001082EA
:10C92000DB79164A1370164A1279934217D0B1B9BF
:10C93000114B00221A6007E00F4B00221A609A6028
:10C940001A731A82FFF768FF0B4B1A685A60084A7D
:10C95000137843F040031370FFF720FF08BD084B26
:10C960001A68054B1A60EFE7AC3A0020CDC502000B
:10C97000D03A0020B83A00205C3A0020D13A00209A
:10C98000C03A002010B582B00024ADF80040012369
:10C99000ADF80230009806F0C4F9ADF80440022367
:10C9A000ADF80630019806F0BCF902B010BD0000E9
:10C9B00008B5002006F0DCF9094A00231360536033
:10C9C0009360D3601361074A117863F345111170C6
:10C9D000CBB243F040031370FFF7E0FE08BD00BF89
:10C9E0005C3A0020D03A002038B50C4D00242C6071
:10C9F0006C60AC60EC602C6101F0AEF9084B5860E3
:10CA0000084A9A60084ADA601C615C61074B1A7830
:10CA100064F3C3021A706C6038BD00BF5C3A00203A
:10CA2000383A002089CB020000879303D03A0020D7
:10CA300008B50C4B1B7813F0100F00D008BD0A4846
:10CA40000A4B036000F092FEFFF752FFFFF79AFFD8
:10CA5000074801F005F9034A137843F010031370F7
:10CA6000ECE700BFD03A0020503A0020E1CC0200B1
:10CA7000383A0020034B1878800880F0010000F05D
:10CA800001007047D03A002010B501F0F3FE174BBB
:10CA90001B7B1BBB154B9B7B2BBB144B1A8A41F298
:10CAA00082639A4206D8124B1B7813F0080F05D008
:10CAB000012300E001231BB9082410E00023FAE75A
:10CAC0000A4B01221A7300241C829A6801329A6070
:10CAD000FFF7A2FE2046FFF7EFFE00E0082401F07A
