:020000022000DC
:1060000000F000206D630200556302005763020038
:10601000596302005B6302005D6302000000000040
:106020000000000000000000000000005F630200AC
:106030006163020000000000636302006563020008
:106040006763020067630200676302006763020020
:10605000676302006763020019DC030067630200E4
:1060600067630200A5D60300EDA603006763020084
:1060700067630200676302006763020067630200F0
:10608000676302003D660400DDD30200676302001F
:10609000A16604006763020011E703006763020062
:1060A00067630200676302006763020067630200C0
:1060B0006763020067630200000000000000000048
:1060C00067630200676302006763020067630200A0
:1060D000676302006763020067630200000000005C
:1060E00000000000000000000000000000000000B0
:1060F00000000000000000000000000000000000A0
:10610000000000000000000000000000000000008F
:10611000000000000000000000000000000000007F
:10612000000000000000000000000000000000006F
:10613000000000000000000000000000000000005F
:10614000000000000000000000000000000000004F
:10615000000000000000000000000000000000003F
:10616000000000000000000000000000000000002F
:10617000000000000000000000000000000000001F
:10618000000000000000000000000000000000000F
:1061900000000000000000000000000000000000FF
:1061A00000000000000000000000000000000000EF
:1061B00000000000000000000000000000000000DF
:1061C00000000000000000000000000000000000CF
:1061D00000000000000000000000000000000000BF
:1061E00000000000000000000000000000000000AF
:1061F000000000000000000000000000000000009F
:10620000344935480A1A02D0072291438D46334952
:1062100033480A1A06D00722914381F309880222E3
:1062200082F314882F483049304A00F042F8304851
:106230003049314A00F03DF830483149314A00F0E8
:1062400038F831483149324A00F033F831483249A0
:10625000324A00F02EF832483249334A00F029F829
:1062600032483349334A00F024F833483349002296
:1062700000F02AF832483349002200F025F832486D
:106280003249091A082902DB0022026041601F48D6
:106290001F49884205D00268043003B4904703BC0C
:1062A000F7E700208646EC4600200021284A904768
:1062B000FEE7884207D0521A05D0037801300B70F0
:1062C0000131013AF9D17047884202D002700130A1
:1062D000FAE7704700F0002000E8002000F00020FE
:1062E00000F00020C8910400F02D0020B8300020FC
:1062F000A0630200A0630200126C0400C8910400B5
:10630000F02D0020F02D00205C7004005C70040073
:106310005C7004005C7004005C7004005C7004003D
:106320005C7004005C700400C89104009094040048
:10633000B8300020B8300020B8300020D0620020F3
:10634000D0620020D0620020D0620020D066002001
:10635000096B0200FEE7FEE7FEE7FEE7FEE7FEE769
:10636000FEE7FEE7FEE7FEE700F002B8FFF7FCBF3E
:1063700008484FF00701884385460748804707488B
:10638000016841F470010160BFF34F8FBFF36F8F5D
:10639000FFF736BF00F0002051EC030088ED00E06D
:1063A00041DF7047014B1B680B807047F4300020C1
:1063B0000D4B1B6813F4804F03D00C4B1B68032B51
:1063C00000DC704700B585B0094BD3F80435029264
:1063D0000191084A0092B9220749042008F004F903
:1063E00005B05DF804FB00BF503000204C300020A9
:1063F00000100140B8700400B17004000E4800683D
:1064000010F4804F03D00D480068032800DC70476B
:1064100000B585B00A48D0F80405039302920191B3
:10642000084B00930346B0220749042008F0DCF82B
:1064300005B05DF804FB00BF503000204C30002058
:1064400000100140E0700400B170040000B58DB090
:106450001EF036FC2422002103A820F075FB012346
:106460008DF80C3007238DF80F3006238DF814308B
:10647000244B0793244B0B93244903A80CF018F9E1
:10648000034618B3002B32D00B2B2FD11EF05CFC2F
:106490001F4B1B6813F4804F03D01E4B1B68032B4C
:1064A00018DC1B4B1B6813F4804F20D0194B1B6862
:1064B000032B1CDD184BD3F80435184A00924FF417
:1064C000BD721749042008F08FF810E01EF018FC88
:1064D0000346D7E7104BD3F80435124A009240F236
:1064E00079120F49042008F07FF8DAE713B90DB0EC
:1064F0005DF804FB0C4A40F27F11184618F0D6FCF8
:10650000F5E700BFA1670200ED660200B830002089
:10651000503000204C300020001001406C7104000D
:10652000B17004001C7104007C70040000B583B0DD
:10653000184A042146F2010008F03AF8164B1B688D
:1065400013F4804F03D0154B1B68032B10DC144849
:1065500001F030FE20F0A8F8B0B901F07DFF01F0A5
:10656000B9FF01F0E7FFFFF771FF03B05DF804FB2F
:106570000C4BD3F804350C4A00924FF4C3720B490C
:10658000042008F031F8E2E7094A4FF4C57118F029
:106590008DFCE2E785E50200503000204C30002001
:1065A000F82E002000100140A8710400B170040012
:1065B0007C70040000B585B00021404800F046FE24
:1065C000002835D13E4B1B6813F4804F03D03D4B60
:1065D0001B68032B31DC00213B4800F0B9FE00288A
:1065E00039D1374B1B6813F4804F03D0354B1B68F0
:1065F000032B35DC0021354801F0A0F900283DD1FE
:106600003349324801F0C8F900283CD12F492B48C2
:1066100000F076FE00283BD1294B1B6813F4804F15
:1066200003D0284B1B68032B37DC05B05DF804FB57
:10663000284AC12118F03AFCC4E7274BD3F80435A7
:106640001E4A12880192254A0092C222244904203F
:1066500007F0CAFFBFE71F4AC72118F027FCC0E7B1
:106660001D4BD3F80435184A128801921D4A009236
:10667000C8221B49042007F0B7FFBBE7154ACC210D
:1066800018F014FCBCE7134ACD2118F00FFCBDE74D
:10669000104ACE2118F00AFCBEE70F4BD3F80435A0
:1066A0000A4A118892F83420029201910E4A00920F
:1066B000CF220B49042007F097FFB6E7002E0020F9
:1066C000503000204C300020BC300020182F00201B
:1066D000F02E00207C70040000100140D4710400F2
:1066E000B1700400F07104000C72040000B583B0B6
:1066F0000C4B1B6813F4804F03D00B4B1B68032B10
:1067000004DCFFF757FF03B05DF804FB074BD3F839
:106710000435074A00924FF4AD720649042007F091
:1067200063FFEEE7503000204C30002000100140A5
:106730003C720400B170040008B5034B19600348B3
:1067400001F07AFD08BD00BFF4300020F82E0020D3
:1067500000B583B00D4B1B6813F4804F03D00C4B76
:106760001B68032B06DC1EF0EFFA0CF001F803B0F7
:106770005DF804FB074BD3F80435074A0092E22288
:106780000649042007F030FFEDE700BF503000203D
:106790004C300020001001405C720400B170040015
:1067A00008B50378232B00D008BDFFF7D1FFFBE726
:1067B00008B503781D2B00D008BD044800F086FD05
:1067C0000028F9D018F064FBF6E700BF002E002087
:1067D00030B583B00446451C524B1B6813F4804F00
:1067E00003D0514B1B68032B1ADC022D33D0042D30
:1067F0003FD0012D20D04B4B1B6813F4804F24D089
:10680000494B1B68032B20DD484BD3F80435484A1D
:1068100000924FF493724749042007F0E5FE14E01C
:10682000424BD3F804350195434A0092FE22414978
:10683000042007F0D9FED8E7404B1B6813F5804FC2
:1068400007DDA3F580433D4A1360012C30D903B026
:1068500030BD3B4BF7E7394B1B6843F6FE72934262
:1068600004DC03F58043354A1360EEE747F6FF7317
:10687000F9E70BF019FFA0B92A4B1B6813F4804FFE
:10688000E3D0294B1B68032BDFDD284BD3F80435FD
:106890002C4A00924FF490722649042007F0A4FE7F
:1068A000D3E70DF0F7FC0BF0F3FEFFF751FFCCE759
:1068B000224BB3F90010244801F0BEFC234800F03D
:1068C00081FC0446174B1B6813F4804F03D0164B12
:1068D0001B68032B17DC002CB9D0124B1B6813F478
:1068E000804FB4D0104B1B68012BB0DD0F4BD3F899
:1068F00004350194164A009240F231120D490220EB
:1069000007F072FEA3E7094BD3F804350B4A12686F
:106910000192104A00924FF497720649042007F042
:1069200063FED8E7503000204C30002000100140BA
:106930005C730400B170040078720400F43000202D
:106940000080FFFF8C720400F82E0020002E002033
:10695000C47204008476040000B583B03138032883
:1069600014D90D4B1B6813F4804F11D00B4B1B68CF
:10697000032B0DDD0A4BD3F804350A4A009240F28E
:106980003F120949042007F02FFE01E0FFF720FF26
:1069900003B05DF804FB00BF503000204C300020F5
:1069A000001001405C730400B170040000B585B0B4
:1069B00003A812F011F80D4B1B6813F4804F03D09D
:1069C0000B4B1B68032B02DC05B05DF804FB094B85
:1069D000D3F80435BDF80C200192074A009240F22A
:1069E00047120649042007F0FFFDEDE75030002074
:1069F0004C30002000100140F4720400B17004001B
:106A000010B58AB06421214801F00AFB204B1B78A5
:106A10009BB90DF10C0C1F4C0FCCACE80F0094E8A7
:106A200007008CE8070003A801F090FA38B11A4A71
:106A300040F2A71118F03AFA01E0FFF7B7FF01F0B2
:106A40009FFE01F021FB154805F0C8FA0BF082FE0D
:106A500050B9134B1B6813F4804F03D0114B1B68C4
:106A6000032B07DC0AB010BD0B4A40F2B31118F03B
:106A70001DFAEEE70C4BD3F804350C4A009240F2B5
:106A8000B5120B49042007F0AFFDEBE7596902008E
:106A9000B8300020287304007C700400F02D002022
:106AA000503000204C300020001001405C73040086
:106AB000B170040000B583B00E4B1B6813F4804F17
:106AC00003D00D4B1B68032B08DC01F003FD01F024
:106AD00031FDFFF76BFF03B05DF804FB074BD3F804
:106AE0000435074A00924FF4A6720649042007F0C5
:106AF0007BFDEAE7503000204C30002000100140C0
:106B00000C730400B170040008B5FFF70FFDFFF728
:106B100077FFFFF745FCFCE710B582B0044680F82C
:106B20007430C1662D2303673AB113465268C0F82A
:106B300088201B68836602B010BD0021C0F8881051
:106B40000191D0F8F430186B83685B6801AA98470C
:106B5000019BA366EFE708B5983801F059F808BD26
:106B600010B582B00146436A40F80C3C30F9063C4F
:106B700020F8083C30F9042C20F80E2C50F81C4C5E
:106B80002CB1583891F82C3092B2096AA0470B4BBF
:106B90001B6813F4804F03D0094B1B68042B01DCE6
:106BA00002B010BD074BD3F80435074A0092AF225C
:106BB0000649052007F018FDF2E700BF503000201D
:106BC0004C30002000100140D4740400C57404004F
:106BD0000C4B1B6813F4804F03D00B4B1B68042B2A
:106BE00000DC704700B583B0084BD3F80435084A81
:106BF00000929C220749052007F0F6FC03B05DF8DF
:106C000004FB00BF503000204C3000200010014039
:106C1000EC740400C5740400F0B589B00446154650
:106C20001E46A0F1F0070DF11E0210F8F00C1EF048
:106C30003DFB58BBBDF91E1024F89C1C34F9A83C40
:106C400024F89E3C14F8C00C1EF0EEFA20BB05960A
:106C50000695A4F19805284600F0DAFF34F99C0C5B
:106C600034F99E1C002305AA411A3846FFF754FF49
:106C7000164B1B6813F4804F03D0154B1B68042B75
:106C800010DC284600F0B6FF09B0F0BD114A40F212
:106C9000B71118F00BF9CDE70E4A40F2BD1118F00C
:106CA00005F9D4E70C4BD3F8043534F99C2C05993D
:106CB0000391069902910192084A00924FF4E572FD
:106CC0000749052007F090FCDBE700BF50300020AB
:106CD0004C300020A074040000100140FC7404003B
:106CE000C574040008B530F9A82C10F8F00C1EF09B
:106CF000C3FA00B908BD034A40F2AB1118F0D6F848
:106D0000F8E700BFA074040070B584B004461546CF
:106D10001A46089EB5F90030002B2BDD47F6FF73AD
:106D2000A0F85430B4F94830A4F852300223B5F931
:106D300000102046FFF7F0FE1D4B1B6813F4804F38
:106D400003D01C4B1B68032B19DC04F1580000F026
:106D500051FFB5F9003033BB56B1B4F94830338038
:106D6000B4F954307380A36E0BB14FF0FF337360EE
:106D700004B070BD4FF40043A0F85430D2E70E4B7E
:106D8000D3F80435B5F90020A16E0391D4F888102A
:106D900002910192094A009240F28B1208490420A4
:106DA00007F022FCD1E7D4F8F40000F009FED3E7A5
:106DB000503000204C30002000100140307504009D
:106DC000C5740400F0B587B0044615461F460C9EF6
:106DD000B2F90010A0F85410B0F94830A0F85230C1
:106DE00090F830001EF020FA38BBB4F95400B4F922
:106DF000521000233A46411A2046FFF78DFE214BE0
:106E00001B6813F4804F03D01F4B1B68032B1ADC45
:106E100004F1580000F0EEFEB4F94820B5F9003056
:106E20009A4229D13EB1B4F948303380B4F9543094
:106E30007380A36E736007B0F0BD144A40F21F1157
:106E400018F034F8D1E7124BD3F80435B4F95420D4
:106E500094F874100591E16E0491A16E0391D4F839
:106E60008810029101920B4A009240F227120A49BF
:106E7000042007F0B9FBCBE7D4F8F40000F0A0FD44
:106E8000D0E700BF503000204C300020A074040038
:106E90000010014060750400C574040070B586B030
:106EA0000446A0F1580630F9043C20F80E3C90F856
:106EB0002C20022A01D020F8103C34F9103CADF807
:106EC000103034F90E3CADF812300023059304A9BC
:106ED000A4F158001EF0E6F854F8243C1BB134F934
:106EE000101C3046984754F81C5C3DB134F90E2C08
:106EF00094F82C3092B2216A3046A8470D4B1B689B
:106F000013F4804F03D00C4B1B68042B01DC06B03C
:106F100070BD0A4BD3F8043534F9102C34F90E1C2B
:106F200002910192064A0092EF220649052007F0DD
:106F30005BFBECE7503000204C300020001001409B
:106F4000A4750400C5740400F0B583B00446A0F134
:106F5000580690F82C30022B27D030F90E5C30F90F
:106F6000080C2D1A87B2204600F083FE8446E917EC
:106F7000A5FB0005226A00230CFB01511FF0B7FCA2
:106F8000384424F8100C54F8243C1BB134F9101C7C
:106F900030469847174B1B6813F4804F03D0164BAD
:106FA0001B68062B16DC03B0F0BD30F8087C00F03F
:106FB00060FE054654F80C0C4FEAE07CA5FB00018E
:106FC000226A002305FB0C111FF091FC074424F8F2
:106FD000107CD8E7094BD3F80455204600F049FE51
:106FE0000190074B00932B46CA220649072007F061
:106FF000FBFAD8E7503000204C3000200010014050
:10700000D8750400C57404002DE9F04184B004462D
:10701000164698460A9F15686B42ADB29BB258BFA0
:107020005D4204301EF014FAB0B93C4B1B6813F4F7
:10703000804F15D03A4B1B68032B11DD394BD3F829
:10704000043532790192384A00924FF4A6723749DA
:10705000042007F0C9FA03E0B4F94830A4F852302C
:10706000B4F852302B44A4F8543001234246294648
:107070002046FFF751FD294B1B6813F4804F03D0C6
:10708000274B1B68032B1BDC244B1B6813F4804F1E
:1070900003D0234B1B68032B25DC04F1580000F0C0
:1070A000A9FD3368002B33D13FB1B4F948303B80A0
:1070B000B4F954307B80A36E7B6004B0BDE8F081EE
:1070C000184BD3F80435A26E0392D4F888200292AC
:1070D00032680192164A009240F257121349042076
:1070E00007F082FAD0E70F4BD3F80435B4F95220F9
:1070F000B4F94810B4F954000390029101920D4A7A
:1071000000924FF4AD720949042007F06DFAC4E70C
:10711000D4F8F40000F054FCC6E700BF5030002063
:107120004C30002000100140EC750400C5740400D0
:10713000207604004C76040030B585B00446154630
:10714000836B00F148019847B4F948302B80B4F9BB
:107150004A306B8094F88430022B0FD1A36F0BB1AF
:107160004FF0FF336B60124B1B6813F4804F03D05A
:10717000104B1B68032B07DC05B030BD04F1580031
:1071800000F054FD6860EEE70B4BD3F80435B5F919
:107190000020B5F902106868039002910192074A35
:1071A00000924FF487720649042007F01DFAE3E7C6
:1071B000503000204C300020001001409076040038
:1071C000C574040030B583B00446B0F94850836BF1
:1071D00000F14801984704F1580000F019FDB4F996
:1071E0004810A4F84A100023C4F88830A367E36766
:1071F000C4F88030C4F88430A366E366236763670D
:1072000094F830001EF010F898B9B4F94830AB4249
:1072100015D1B4F94830ADF80030B4F94A30ADF8C2
:10722000023000230193694620461DF03BFF03B066
:1072300030BD054A4FF4F57117F038FEE5E7D4F894
:10724000F40000F0BDFBE4E7A074040068B310B5DF
:107250000446836B63B3436B43B1164BE362204632
:107260001DF0E6FE034630B1184610BDC36B002B7F
:10727000F3D10E23F8E704F130001EF02DF8034699
:107280000028F1D10C4BC4F8F0300C4BA3650C4B2B
:10729000E3650C4B23660C4B6366C4F8E04004F1D5
:1072A000580000F009FD0346DEE70E23184670473C
:1072B0000E23D9E7C4760400D4760400D16B020013
:1072C000616B0200496F02009D6E020010B582B032
:1072D00004460DF1060190F830001DF0BBFF30B9F7
:1072E000BDF9061020461DF0E9FE02B010BD034AAC
:1072F00040F22D2117F0DAFDF2E700BFA074040080
:1073000020B129B1C0F8F410002070470E2070475A
:107310000E20704708B51146007B1EF0C3FA00B975
:1073200008BD024A4B2117F0C1FDF9E7E0760400E1
:1073300008B511681960007B1EF0A0FA00B908BDFD
:10734000024A562117F0B2FDF9E700BFE0760400CB
:1073500060B110B50446064B83601EF0D9F900B148
:1073600010BD04F10C001EF0AFFAF9E70E207047D3
:10737000107704005038704710B586B0FFF7FAFF59
:107380000446154B1B6813F4804F03D0134B1B6846
:10739000042B0BDC0023A4F84830236C23B1B4F891
:1073A0004A20216F2046984706B010BD0C4BD3F8F9
:1073B000043590F83420B0F84A10006F0490606FE4
:1073C000039002910192074A00924FF4C672064957
:1073D000052007F009F9DDE7503000204C3000208F
:1073E000001001404C7704003D77040000B583B0E5
:1073F000FFF7C0FF0D4B1B6813F4804F03D00C4BFD
:107400001B68042B02DC03B05DF804FB094BD3F8C6
:10741000043590F834200192074A009240F283121A
:107420000649052007F0E0F8EDE700BF50300020E6
:107430004C30002000100140907704003D7704009C
:1074400000B585B08DF80410B0F84830ADF80630BE
:10745000B0F84A30ADF80830039201A904301EF0AC
:1074600067FC05B05DF804FB10B584B0FFF782FF40
:107470000446B0F84A20A0F848200023A0F84A307B
:10748000134B1B6813F4804F03D0124B1B68042B63
:107490000DDC236C23B1B4F84A20216F20469847B5
:1074A000226F00212046FFF7CBFF04B010BD0A4B2E
:1074B000D3F8043590F8341002920191074A0092F3
:1074C0004FF4D2720649052007F08EF8E1E700BFBD
:1074D000503000204C30002000100140AC770400F8
:1074E0003D77040070B138B50C4605463C301EF0BF
:1074F000C5FD00B138BD044BAB63214628461EF0E4
:1075000025FCF7E70E2070471879040038B50446CB
:1075100080F86C20012343662D2383660D4629B134
:107520006B68C4F880302B68236638BD784601F05C
:10753000E7F8F5E72DE9F0418AB015461F46109EA1
:107540000446E0B1DAB1B4F8482029888A421AD159
:10755000002246B13270B4F848307380B4F84A3033
:10756000B380236EB360424B1B6813F4804F03D08B
:10757000404B1B68032B67DC0AB0BDE8F0817846FE
:1075800001F0BEF8DFE70DF11B0294F83C001EF09D
:1075900039FD8046002855D1002308930993D7B1BF
:1075A000002239462046FFF7B1FF2B88A4F84A3065
:1075B000D4F8EC30434520D82D4B1B6813F4804F92
:1075C00003D02C4B1B68042B26DC04F1500000F088
:1075D00011FB0022BDE7236B9B685B684BB1206BFE
:1075E00083685B6807AA00219847079B089308AF48
:1075F000D6E7784601F084F8F1E708F13A0354F849
:10760000230003685F68236ED4F880209DF81B1068
:10761000B84708F10108CBE7174BD3F804352A889F
:10762000216E0491D4F8801003919DF81B100291F3
:107630000192124A009240F22B121149052006F0E5
:10764000D3FFC2E7022284E70B4BD3F80435B4F82A
:107650004810B4F84A00039002910192094A00923E
:107660004FF49F720649042006F0BEFF84E700BF76
:10767000503000204C30002000100140E47704001E
:107680003D7704001C78040070B506460D460024C2
:1076900001E0023501340F2C0CD82A46E1B296F8ED
:1076A0003C001EF0B7FC0028F3D0034A622117F01B
:1076B000FDFBEEE770BD00BF1877040030B583B066
:1076C00014460546A0B19AB100232370B5F848309E
:1076D0006380211D2846FFF7D7FF0E4B1B6813F46C
:1076E000804F03D00C4B1B68032B05DC03B030BD6F
:1076F000784601F005F8E7E7084BD3F804356288CF
:107700000192074A0092F8220649042006F06CFF15
:10771000ECE700BF503000204C300020001001404A
:10772000507804003D77040030B587B01446054614
:10773000E0B1DAB100232370B5F848306380B5F8C2
:107740004A30A38095F87C30022B13D12B6F0BB1FC
:107750004FF0FF33A360144B1B6813F4804F03D02A
:10776000124B1B68032B0BDC07B030BD784600F0D2
:10777000C7FFDFE705F1500000F058FAA060EAE724
:107780000B4BD3F804356288A188686F0490A06819
:10779000039002910192074A0092E22206490420D6
:1077A00006F022FFE0E700BF503000204C30002000
:1077B00000100140747804003D770400F0B587B0F4
:1077C00016461D460446E0B1DAB10DF117023188C4
:1077D00094F83C001EF038FC074620BBB4F8482063
:1077E00033889A4203D0B4F84A20934217D104F167
:1077F000500000F00DFA0023A4F84A30A4F84830F5
:107800000DE0784600F07CFFDFE707F13A0354F81B
:10781000230003689B689DF8171098470137D4F838
:10782000EC30BB42F1D845B100232B70B4F848309E
:107830006B80291D2046FFF727FF0E4B1B6813F4B2
:10784000804F03D00C4B1B68032B01DC07B0F0BD4D
:107850000A4BD3F80435B4F84A20B4F84810029122
:107860000192074A0092C3220649042006F0BCFE9A
:10787000ECE700BF503000204C30002000100140E9
:10788000BC7804003D770400F0B587B015461C466F
:10789000074628B322B30DF11702298897F83C0058
:1078A0001EF08CFB064650BB2B88A7F84830D7F853
:1078B000EC30B34218D800253CB12570B7F84830F9
:1078C0006380211D3846FFF7DFFE174B1B6813F45A
:1078D000804F03D0154B1B68032B12DC07B0F0BDA3
:1078E000784600F00DFFD6E706F13A0357F823007B
:1078F00003681B689DF8171098470136D7E70125E4
:10790000DAE70B4BD3F80435B7F84A20B7F848103C
:10791000039102920195074A009298220649042099
:1079200006F062FEDAE700BF503000204C30002045
:1079300000100140E47804003D77040000B310B566
:107940000446036CFBB1FFF7CDFD034608B11846B2
:1079500010BD0023A4F848300C4A22650C4A626529
:10796000A3650C4BE36504F15000C4F8D80000F0A7
:10797000A3F903460028EAD10022C4F8EC20E6E788
:107980000E23184670470E23E1E700BFED73020097
:107990007973020069740200034658B161B1D0F8EE
:1079A000EC0058B900F13A0243F82210421CC3F827
:1079B000EC2070470E2070470E207047042070475F
:1079C0000023A0F84830704708B5034B53F8203027
:1079D0000846984708BD00BF2C79040008B5034B42
:1079E00053F820300846984708BD00BF447904008A
:1079F00008B5836803B1984708BD006B003818BF0D
:107A0000012070470369013B13F1030F03D8436959
:107A10001BB900207047002070470120704708B54F
:107A2000024601218C3009F000FF08BD08B50A4666
:107A300000230B63022102F18C0009F0F6FE08BD61
:107A400090F82C30022B01D10020704710B504466D
:107A500038301DF070FD4FEA411C4CEAD06C4201F9
:107A6000121A6CEB010C4FEA8C0C4CEA927C9300DE
:107A70001B1841EB0C01C90041EA5371C3F31033E9
:107A800043EA4143C90B226A934271F1000301D3D7
:107A9000012010BD0020FCE710B50446002303635D
:107AA0000362703004F052FD04F138001DF07FFDD8
:107AB00010BD10B5044638301DF079FD0023236257
:107AC000E3680BB12046984710BD08B5844600F125
:107AD000200E00F110030FCB8EE80F006046FFF779
:107AE000E8FF08BD08B5FFF7E4FF08BD70B5044620
:107AF00000F1380528461DF05AFD04F1200604F176
:107B000010030FCB86E80F00636A83EAE376A6EBE7
:107B1000E376002B43D0226AD30E5101891A63F118
:107B200000039B0043EA91738900891843F1000325
:107B30004FEAC30C32460023C8004CEA51711EF0D4
:107B40006FFEA66AF20E73019B1B62F100029200A7
:107B500042EA93729B009B1942F10002D20042EA72
:107B60005372DB001E469446984271EB020301D328
:107B700006468C46B6F57A7F7CF1000313D22122AB
:107B80000023C4E91023012384F8383028461DF06F
:107B9000E5FC18B963680BB12046984770BD78467C
:107BA00000F0AEFDB7E74FEACC3141EA5641F603AB
:107BB00005483018054A4FF0000341F100011EF05E
:107BC0002FFEC4E91001DEE720A1070040420F00AC
:107BD00010B5044604F006FD236B4FF47A7101FBE7
:107BE000030104F1700004F0C9FC23680BB12046C6
:107BF000984710BD10B5044630B12246002104F16B
:107C00008C0009F012FE10BD784600F079FDF4E713
:107C100010B5044630B12246032104F18C0009F06E
:107C200004FE10BD784600F06BFDF4E738B505465C
:107C3000D8B12C6A05F138001DF07DFC4A0142EAFA
:107C4000D06243011B1A62EB0102920042EA937276
:107C50009B00181841EB0201C90041EA5071C0F3C2
:107C6000103040EA4140201A38BD784600F048FD07
:107C7000DFE710B50446D8B104F138001DF05BFC15
:107C800084464A0142EAD06243011B1A62EB0102B8
:107C9000900040EA93709B0013EB0C0341EB000053
:107CA000C00040EA5370C3F3103343EA404010BDB4
:107CB000784600F025FDDFE738B5044690B1C4F8FA
:107CC00080400A4BA367A464094BE36404F13800C5
:107CD0001DF084FC0546074904F18C0009F08FFD76
:107CE000284638BD784600F00BFDE8E72D7A020003
:107CF0001F7A02007C79040069DF704703781F2B2C
:107D000000D07047014B01221A70FAE73F31002082
:107D10003F4B1B78002B79D000B587B0012804D0E9
:107D200003286CD007B05DF804FB0023019301A980
:107D3000012016F08DFB00284BD100230393049300
:107D400005939DF80C20012363F303028DF80C20AA
:107D5000D2B263F307128DF80C209DF80D2063F367
:107D600001028DF80D201923ADF81630019A03A9F0
:107D70004120FFF7C1FF78BB01A816F0C3FB70BB21
:107D8000244B1B6803B198470123029302A90DF10C
:107D9000020011F0A1FB28BBBDF8020011F00EF8A3
:107DA0000DF1010111F0A2F9F8B90BF0BDFF9DF83A
:107DB000011000200CF0B8FAD0B904F0A1F8D8B93D
:107DC000134B00221A70134B5B68002BAAD0984704
:107DD000A8E717F05DF8B0E717F05AF8CCE717F00E
:107DE00057F8CDE717F054F8D6E717F051F8DCE76D
:107DF000784600F085FCE0E717F04AF8E0E716F077
:107E0000FBFB00288ED017F043F88BE7704700BFCC
:107E10003E3100204031002008B5064B01221A7087
:107E2000054804F0DBF804F0BDF800B908BD17F010
:107E30002FF8FBE73E3100200830002008B503781A
:107E40001C2B00D008BD074B1B78002BFAD016F076
:107E500017FC18B9044804F0C5F8F3E717F018F850
:107E6000F8E700BF3E3100200830002008B5094B7C
:107E70001B7863B90849094817F0D2FC40B90323BD
:107E8000002207494969074817F0E6FC00E008208E
:107E900008BD00BF3F3100205C310020C834002005
:107EA000403100209433002008B50378023B082BB2
:107EB0003FD8DFE803F01C05113E3E2C3E3E360065
:107EC0001E4B9B68002B34D0007A002831D01C4A0E
:107ED0000121117098472CE0184BDB684BB3184A0E
:107EE000127832B3164A00211170984721E0154BE1
:107EF0001B784BB9114B1B691BB1114A0021117042
:107F00009847FFF7B3FF14E0FFF786FF11E0102258
:107F10000A4B99690C4817F028FD50B116F0B8FFCC
:107F200007E08168C0680AF043FB18B9054B0122DD
:107F30001A7008BD16F0ACFFF8E700BF4031002012
:107F40003C3100203D3100209433002010B586B034
:107F50008446224A03AB07CA03C323F8022B120C40
:107F60001A701F4CA646BCE80F00AEE80F009CE854
:107F700007008EE80700A369002B2DD0194B009352
:107F800003AB194A19491A4817F008FC034610B107
:107F9000184606B010BD174819F0BCF90146144840
:107FA00017F028FC03460028F2D1134819F032FBE1
:107FB00003460028ECD1104819F064FB01460C4838
:107FC00017F018FC03460028E2D10C4804F006F82C
:107FD000FFF74CFF0346DBE70723D9E78C79040062
:107FE00040310020A97E02005C310020C83400200E
:107FF000943300207C3100204433002014300020D2
:1080000008B5064B1B681BB906E0044B1B68984774
:1080100013F0ECFC0028F8DA08BD00BF083500209A
:1080200010B50C46134B1860134A012113481EF07B
:1080300075FB98B9610CE00341F27073984271F1DD
:10804000000310D34FF47A7200231EF0E9FB0146BF
:1080500000220B481EF078FB38B910BD094A4A21AE
:1080600016F024FFE6E70521F2E7064A4B2116F059
:108070001DFFF2E70835002001800200CC790400E2
:108080000C35002098790400002800F082802DE94A
:10809000F04FD1B004463F4B1B6813F4804F03D020
:1080A0003D4B1B68032B31DC3A4B1B6813F4804FAC
:1080B00003D0394B1B68032B2ADC51B0BDE8F08F8D
:1080C000E25C36490D68100959002E5C0FA800F8D3
:1080D000136002F00F020131AA5C425401330F2BEE
:1080E000EED90FAA00238DF85C3003F1804303F52D
:1080F0008833D3F804350292294A0192294A009222
:1081000042222949042006F06FFACDE70023E6E772
:10811000264BD3F804350D932068020202F47F0247
:1081200042EA0062010A01F47F4142EA0108B4F820
:1081300004C04FEA0C2292B2B4F806E04FEA0E21D6
:1081400089B2257A667AA77AE37A94F80C9094F843
:108150000DA094F80EB0E47B0B94CDF828B0CDF8C8
:1081600024A0CDF82090079306970596049541EA40
:108170001E21039142EA1C22029248EA10600190FB
:108180000B4A00920D9B43220749042006F02CFA6B
:1081900093E77047503000204C30002054300020CE
:1081A000087A04001C7A0400F579040000100140EC
:1081B000247A040010B582B004464389CBB900226A
:1081C0006168206815F00AF8B8B9206815F002F85F
:1081D0006081144B1B6813F4804F03D0124B1B6853
:1081E000032B0EDC6389C3B1206815F0D1F802B00F
:1081F00010BD784600F084FAE1E7784600F080FA96
:10820000E3E70A4BD3F804350190094A009258225B
:108210000849042006F0E8F9E4E7784600F070FA2F
:10822000E2E700BF503000204C3000200010014039
:10823000987A0400897A040038B505460C464389CB
:108240009BB104F500446A89013A04FB02F2094B30
:1082500083FB02131344D217C2EBE332013292B212
:10826000297A286814F078FF38BD784600F048FA7B
:10827000E7E700BF0180008072DF704773DF70475F
:1082800074DF70472DE9F047A2B007468846914653
:10829000324C002525606560A560E56030490B78AB
:1082A000C3EB43102F4E064426602F4A0244A260BF
:1082B0001F22A280A281013303F001030B704FF053
:1082C0003C0A5246294613A81EF03EFC06238DF8B0
:1082D0004F30ADF8487001238DF84A30ADF85C306E
:1082E00012AA1892ADF83C70ADF84090CDF84480D9
:1082F0000DEB0A021D928DF87830524629466846E9
:108300001EF022FC02238DF80030221D314613A8F6
:1083100015F090FF90B9114B03F10C029968684673
:1083200015F088FF68B9114A0C491148FFF7A4FFFE
:10833000082809D070B922B0BDE8F08716F0A8FD72
:10834000E9E716F0A5FDEEE7002204490848FFF72B
:1083500093FFEFE716F09CFDEDE700BF70350020BE
:108360002C350020303500208035002024300020BE
:1083700020300020B0F5202F0AD2074BA3FB0023AA
:10838000DB0808B103B90123044A93819160704767
:108390004FF6FF73F5E700BFCDCCCCCC24300020E6
:1083A00008B50121054B1878FFF768FF18B90020C0
:1083B00004F004FD08BD16F06BFDF8E72030002046
:1083C00008B5044B1878FFF75BFF00B908BD16F03D
:1083D0005FFDFBE72030002076DF70477ADF7047D3
:1083E0007CDF704769DF704708B516F051FD08BDA6
:1083F00008B503F0FBFD08BD00B583B0037823B1D9
:10840000012B0BD003B05DF804FB3B214088FFF744
:10841000E3FF0028F6D016F03BFDF3E7094B1B689D
:1084200013F4804FEED0084B1B68032BEADD074B9B
:10843000D3F80435064A009268220649042006F063
:10844000D3F8DFE7503000204C300020001001400E
:10845000EC7A0400D17A040000B585B016F0CCF8AF
:1084600060BB0023039303A9012015F0F1FF40BB7B
:1084700000230093019302939DF80020012363F3EE
:1084800003028DF80020D2B263F307128DF80020AA
:108490009DF8012063F301028DF801201923ADF846
:1084A0000A30039A69464120FFF79CFF60B903A890
:1084B00016F028F858B905B05DF804FB16F0E8FC92
:1084C000CFE716F0E5FCD3E716F0E2FCEFE716F095
:1084D000DFFCF0E700B585B09DF80C30012262F3B7
:1084E00003038DF80C30DBB262F307138DF80C3008
:1084F00019220F4903A8FFF773FF98B900230193CE
:1085000002937823ADF80430C823ADF806304FF459
:10851000C873ADF80A3001A8FFF760FF28B905B0AD
:108520005DF804FB16F0B4FCE8E716F0B1FCF6E7E2
:10853000187B040000B58BB001AA002301930293BD
:108540007821ADF80410C821ADF806104FF4C871B9
:10855000ADF80A10039304930593069307930893C9
:108560000993039240F6CD4304934FF4803305936F
:1085700003238DF81830074B0893074B099303A882
:1085800016F026FA10B90BB05DF804FB16F080FC6B
:10859000F9E700BFF9830200E98302000620704773
:1085A00000B587B044F2010398425DD01BD8012882
:1085B00036D041F20103984271D1474B1B6813F446
:1085C000804F36D0454B1B68002B32DD444BD3F82F
:1085D000043502920191434A0092632242490120EC
:1085E00006F002F825E044F20203984257D13A4BD4
:1085F0001B6813F4804F1CD0384B1B68002B18DD10
:10860000374BD3F8043510680390526802920191F9
:10861000364A009269223449012005F0E5FF08E05E
:108620002D4B1B6813F4804F03D02C4B1B68002B81
:108630000DDC4FF0A0434FF4F012C3F81825C3F837
:108640000C25EFF3108372B64DF6AD6C3DE0244B74
:10865000D3F8043502920191254A00926022224902
:10866000012005F0C1FFE4E71B4B1B6813F4804FAA
:10867000DFD01A4B1B68002BDBDD194BD3F8043518
:108680001068049050680390029192680192194A10
:10869000009273221449012005F0A6FFC9E70E4B92
:1086A0001B6813F4804FC4D00C4B1B68002BC0DD3B
:1086B0000B4BD3F8043501910F4A00927B220A49F3
:1086C000012005F091FFB4E730BF0C4B1B78002B65
:1086D000FAD107B05DF804FB503000204C30002088
:1086E00000100140887B0400597B0400AC7B04002F
:1086F0006C7B0400CC7B0400F07B04003C30002049
:1087000000B583B0014600230093054B01936A46F0
:1087100044F20200FFF744FF03B05DF804FB00BF22
:10872000EC7B040010B40346044C006859689A6856
:10873000DB680FC45DF8044B704700BFC0350020F4
:108740000E4B4FF0805202F1600103C983E8030031
:1087500003F1080CA43292E803008CE8030093F9BB
:10876000062002F00F0242F040029A7193F90820AD
:1087700002F03F0242F080021A727047C0350020BA
:1087800000487047C0350020002308E0074901EB8E
:10879000C30000224280426001F8332001331F2BC6
:1087A000F4D9034B00221A60704700BFD035002077
:1087B000D036002000B58646114B1B684FF0000CE8
:1087C0000BE01F230F4A12F83300B0B102EBC302D3
:1087D0005288724509D00CF1010CBCF11F0F0BD867
:1087E0005A1E002BEDD01346ECE7064A02EBC302FB
:1087F00052688A42EFD100E000205DF804FB00BF20
:10880000D0360020D035002010B40B4A13680B4C32
:1088100004EBC30CACF80200CCF80410012104F8FE
:1088200033100B441360202B02D05DF8044B7047CB
:10883000134600221A60F8E7D0360020D035002019
:108840000021072918D830B402E00131072910D8D7
:108850004FEA011C094C34F80CC08445F5D104EBF7
:108860000114A568E4689C4208BF9542EDD101203F
:1088700000E0002030BC704700207047D836002050
:1088800030B4C3698469C1884FEA132C1B06C4F352
:108890000C028A4218D28A1A2244A2F500529A186F
:1088A0004CF100010A4C23685D1C256003F00703AE
:1088B000B0F814C007481C0100EB031320F804C0F3
:1088C0009A60D96030BC70478A1A2244E7E700BF3B
:1088D00058370020D8360020C37D9BB1C3780A7872
:1088E00002F080020A7003F07F0313430B700278DA
:1088F0000B7803F07F030B7043EAC2130B7003780D
:108900009BB97047C3780A7802F0BF020A709B01D6
:1089100003F0400313430B70027903F0C0030B70A4
:1089200002F03F0213430B70E1E700B58378082B98
:1089300014BF002201224B7803F07F034B7043EAFF
:10894000C2134B70B0F806E0DAB202F080024A704F
:10895000CEF3861C4CEA02024A708B7803F00303C4
:108960008B7043EA8E038B7090F808E0DAB202F065
:10897000FC028A70CEF3C10C4CEA02028A70CB78FA
:1089800003F01F03CB7043EA4E13CB70437ACA78CF
:1089900002F0E002CA7003F01F031343CB705DF8CE
:1089A00004FB00000023032B31D810B402E0013394
:1089B000032B28D8C3EBC302164C04EB021292F827
:1089C0004820012AF3D1C3EBC30204EB0212948ABC
:1089D000C2899442EBD1C3EBC3020E4C04EB0212EA
:1089E000D2888A42E3D1C3EBC30204EB0212B2F88D
:1089F000582012B1848AA242D9D1C3EBC3030548DF
:108A000000EB031000E000205DF8044B70470020ED
:108A1000704700BF84370020002300E00133032BA0
:108A200016D8C3EBC3020B4901EB021292F848209F
:108A3000022AF3D1C3EBC30201EB0212918A828AAC
:108A40009142EBD1C3EBC303024800EB0310704724
:108A5000002070478437002008B9042070470820A0
:108A6000704700B503468C460978C1700021416209
:108A7000DCF808100B2904D89CF80C1029B301214C
:108A800000E0012119700020987031B1DCF8081065
:108A90000731C9080139597218720121D97503F1DA
:108AA0000C0E0CF1100103C98EE80300BCF80E1087
:108AB0009982DCF8181019629CF81C109975DCF882
:108AC0002010D9629A625DF804FB0021DAE7000009
:108AD00000210E4B1B688B4216D9002300E00133A6
:108AE0000B4A02EBC10252689A420BD9084A52F86B
:108AF000312002EBC30C12F833208242EFD1DCF8B4
:108B0000040070470131E4E7002070475C37002023
:108B10006037002070B58CB006460D4614462C22F6
:108B2000002101A81EF010F80F238DF80430ADF8D5
:108B300008609DF80A3065F300038DF80A308DF85F
:108B40000B4001A801F014FA0CB070BD30B58DB027
:108B500005460C462C22002101A81DF0F5FF10232C
:108B60008DF8043002958DF80C4001A801F000FA50
:108B70000DB030BD00B58DB010B913F1020F06D1A4
:108B8000074B186804F05AFB0DB05DF804FB012197
:108B90008DF804100293039201A801F0E9F9EFE7C0
:108BA0006837002070B5049C002962D01D468E46AF
:108BB000D2F800C051689668D368C4F80CC021612F
:108BC0006661A361D2F810C05169C4F81CC021626B
:108BD000002363700278D20922705AB304237345CC
:108BE00049D8E17D41B3037803F07F03E3700023AC
:108BF000A3709AB143789B0103F4FE53827843EA51
:108C00009203E3808378DB0003F01803C27843EA21
:108C100052132372C37803F01F036372002363624D
:108C20002B78032B21D82A78144B53F82230E36297
:108C3000002070BD0123D2E70178C1F38011E170FB
:108C4000017801F03F01217142B190F90130002B10
:108C500002DB0423A370CCE70823FBE70421A17007
:108C60000B447345C5D90920E3E77846FFF748FD73
:108C7000D9E70920DDE70920DBE700BF807D04009C
:108C800070B50C461D4603789BB104263244A260A1
:108C900000F10C032360836A6360C36AE36000230E
:108CA0002374204604F04AFE10B963691E442E6006
:108CB00070BD0126EAE72DE9F0418EB00D4616465B
:108CC0001C46804600282DD0002D2FD0002C31D0FE
:108CD000636A0233059304F10C00E378002B2DD076
:108CE0000121A27801AF3B46082A14BF00220122CD
:108CF00004F0F1FB0697CDF81C80B2B2ADF820204D
:108D00000B9515440C95A3788DF83430237B022BFA
:108D100016D00023ADF8283005A804F0D4FB0EB01F
:108D2000BDE8F0817846FFF7EBFCCDE77846FFF72A
:108D3000E7FCCBE77846FFF7E3FCC9E70221D0E781
:108D400023692BB1236909931023ADF82830E3E799
:108D50007846FFF7D5FCF5E72DE9F04188B00446E9
:108D60000D46C37D002B3CD0082605FB06F8637A30
:108D7000AB4238D0257201AB324602A92046FFF73C
:108D80007FFF074648BB4DB994F8533033B9A36908
:108D9000C3F30C03E380012384F85330E37D7BB9F4
:108DA00094F8523063B91DBBE06EB4F84A10A27853
:108DB00023468A1A0146FFF77EFF012384F85230CA
:108DC00007992046FFF788FDE16E3246414401983D
:108DD0001DF091FE02A804F0D7FD384608B0BDE8AA
:108DE000F0810C26C1E7B4F84A60A6EB0806C1E79B
:108DF0007846FFF785FCD7E770B505460E4609B102
:108E000000230B6095F85040002104E0631C85F8B6
:108E100050300134E4B26B7AA34210D3EA6C0123E0
:108E2000A3401A42F5D121462846FFF795FF014697
:108E300028B9002EEAD0336801333360E6E70846EC
:108E400070BDF0B589B004460E46154683789A1871
:108E5000C37D63B10B239A4221D801AB02A92046FE
:108E6000FFF70EFF074620B1384609B0F0BD0F23CB
:108E7000F1E707992046FFF72FFDE37D43B12A462E
:108E8000314601981DF037FE02A804F07DFDEBE7A6
:108E900023462A4601993046FFF70DFFF4E70927DC
:108EA000E2E7000010B5044690F84830012B0CD1E1
:108EB00003F098FB237B012B0BD0094BD9680144AD
:108EC00004F1300003F05AFB10BD7846FFF718FCA0
:108ED000EEE7A27D024BD9681B6903FB0211EEE7A6
:108EE0006C37002030B583B0002403E02846FFF73C
:108EF000D9FF0134032C18D8C4EBC4030C4A02EB8D
:108F0000031393F84830012BF3D100230193C4EBF2
:108F1000C40502EB051501A92846FFF76DFF0428DB
:108F2000E4D0019B002BE4D0E0E703B030BD00BFEC
:108F30008437002038B5044690F84830022B09D118
:108F4000064B1D6803F04EFB411904F1300003F09D
:108F500015FB38BD7846FFF7D3FBF1E76C370020EF
:108F600038B5044690F84830022B10D10A4B5A7D90
:108F70005D689B6803FB025503F034FB411904F163
:108F8000500003F0FBFA012384F8683038BD7846BE
:108F9000FFF7B6FBEAE700BF6C37002010B50446C8
:108FA000808A02F067FE01281CD1237BE3B194F98B
:108FB0001620002A1ADBE27D4AB1022B18D094F960
:108FC0000330002B16DBA378B3B900200BE0E27866
:108FD0000AB9012B12D1237893B9A378042B11D1AC
:108FE000002000E0102010BD1020FCE70720FAE769
:108FF0001020F8E70720F6E70720F4E70720F2E75C
:109000000020F0E70720EEE738B5044603784BB1BF
:10901000C388C2698169808A06F036FE054645B973
:10902000284638BDC2698169808A06F027FE054658
:10903000F5E7E169002201F00101A08AFFF76AFD6E
:10904000EEE700002DE9F04780460E4617464B1E1E
:10905000DBB2012B0FD8B7F5C07F10D80024032C4A
:109060001AD8C4EBC403314A02EB031393F8483017
:109070004BB10134F3E77846FFF742FBEBE7784664
:10908000FFF73EFBEAE7C4EBC40502EB05153846E3
:1090900009F065FAE86600E000255DB3EB6E002B91
:1090A00042D043462C4608F1300ED3F800C0586831
:1090B0009968DA68C4F800C06060A160E2601033AB
:1090C00010347345F1D10023EB64A5F84A70012EEA
:1090D00013D06FF00103AB62002385F86830144BA6
:1090E000AB652D66134BAB632D64012002F048FA8B
:1090F00085F848602846BDE8F0870F4B1B7D85F852
:109100005130002385F8523085F8533085F85030BF
:10911000D8F828206A65A5F858306FF00103AB62D3
:10912000064BAB632D64E0E71D46E3E78437002080
:109130007F9B0200919402006C370020DD940200B6
:1091400000B585B000228DF80F20A0B10B46024675
:1091500002320A600DF10F01184604F0B8F99DF8CB
:109160000F3043B10C4B1B6813F0040F03D00B4BB3
:109170001B68032B04DC9DF80F0005B05DF804FBB1
:10918000074BD3F80435074A009240F215420649CE
:10919000042005F029FAEEE7503000204C30002082
:1091A00000100140387C04002B7C04002DE9F043C2
:1091B00091B005460E4614461F46D0F81880037835
:1091C0004BB1C388C8F30C029A4230D29B1A434475
:1091D000A3F50053AB6105F10C00EB7853B301210B
:1091E000AA780DF130094B46082A14BF002201224B
:1091F00004F071F9C5F81880CDF810900596AB7899
:10920000E21A92B2ADF8182032440A9209978DF80A
:109210002C300023ADF82030EB78002B41D02B7B95
:10922000022B09D000236B620193029316E09B1A74
:109230004344CFE70221D3E71023ADF820302B6958
:109240000793EFE710AB03EB840454F83C3C6B62EC
:10925000002011B0BDE8F083019BB3B102AB01AABD
:109260002979286A10F046FC0024012CF4D810ABB0
:1092700003EB840353F83C0C0028EDD003A9FFF75F
:109280005FFF0028DED10134EFE72B7B022B2CD1CE
:1092900005F10C01E88910F0E7FC0028BFD105209A
:1092A000D7E72B7B012B01D00520D2E7EB89ADF866
:1092B0000430AB8AADF806300024012C13D82946BF
:1092C000002341F8243F10AB03EB440333F83C0C7C
:1092D00010F035FC03A9686AFFF732FF08B90134C2
:1092E000EBE70020B5E70520B3E70520B1E7000074
:1092F00070B5F0B00E4614461D4610AB0A46014646
:109300002046FFF753FF50B1224B1B6813F0040FA8
:1093100003D0214B1B68052B2FDC70B070BD20469D
:10932000FFF772FE0028F8D103AB01228DF80C2064
:10933000A28AADF80E20002204928DF8142010AA03
:109340000692A178711AADF81C1008AA93E80300E0
:1093500082E803000AAB04F10C0292E8030083E800
:109360000300A37D8DF83830236A0C93636A0D9354
:109370000F9505A800F0FCFDCFE7084BD3F80435A6
:10938000074A009240F203720649062005F02CF9C4
:10939000C3E700BF503000204C30002000100140D7
:1093A0004C7C04002B7C040010B50446C06E09F010
:1093B000DAF804F1300003F0C9F894F84830022BD1
:1093C00008D07022002120461DF0BEFB002002F0D4
:1093D000D7F810BD04F1500003F0B8F8F1E710B56C
:1093E0008CB0044690F84830012B0FD101238DF842
:1093F0000430636D029303F0F5F8039001A800F0C8
:10940000B7FD2046FFF7D0FF0CB010BD7846FFF740
:1094100077F9EBE730B585B00D460446A8B194F86E
:109420004830022B15D02946606DFFF78FFB204690
:10943000FFF7BAFF114B1B6813F0040F03D0104B5A
:109440001B68032B09DC05B030BD7846FFF758F9DF
:10945000E5E72046FFF714FAE5E70A4BD3F80435B1
:1094600094F8482002950192074A009240F2F312C4
:109470000649042005F0B8F8E5E700BF50300020A9
:109480004C30002000100140787C04002B7C04004C
:1094900008B508460021FFF7BDFF08BD08B5037BEE
:1094A000012B02D0FFF79BFF08BD0121FFF7B2FFA0
:1094B000FAE7000008B590F8513053B1013B80F84D
:1094C0005130002380F85030034B186803F0B6FE8B
:1094D00008BDFFF7E3FFFBE76837002010B50C4637
:1094E00091F84830012B03D12046FFF7E3FF10BD70
:1094F0007846FFF705F9F7E770B5C6B00E46154692
:1095000082782A44C37D2BB14FF48073934278D381
:10951000002303E04FF4C073F8E70133032B14D8A2
:10952000C3EBC30C394C04EB0C1C9CF8481001290C
:10953000F3D1BCF81440818A8C42EED1BCF80E40C5
:10954000C1898C42E9D1082554E00121FFF77AFD59
:109550000446002857D02A463146C06E1DF0CBFA8B
:109560000023459345A92046FFF746FC054608B170
:10957000042842D1459B8BB9254B1B6813F0040F7F
:1095800037D0244B1B68032B33DDB4F84AC0BCF141
:10959000800F28BF4FF0800C002313E02046FFF718
:1095A00081FCE9E7E26ED25C1B490D6810095900A5
:1095B0002E5C04A800F8136002F00F020131AA5CCF
:1095C000425401336345EDD304AA002302F81C3052
:1095D00003F1804303F58833D3F8043502920F4A30
:1095E00001920F4A00924FF4AC620E49042004F03D
:1095F000FBFF0025284646B070BD2046FFF7D4FE8D
:10960000F8E70925F6E70425F4E700BF84370020D2
:10961000503000204C300020543000209C7C04004E
:109620001C7A04002B7C040070B504460D461646D7
:10963000FFF7B4FC30B923782BB1324629462046D7
:10964000FFF75AFF70BD324629462046FFF7F9FB67
:10965000F8E7000038B504460D46CB695B78037126
:10966000CB691B7883F00103C370CB6943628B8A9B
:109670000B2B07D8CB7A002B35D10B7B012B02D0DB
:10968000002300E001232370002B31D0287B022827
:109690002BD0FFF7E1F9A070AB8A03440B33174AD4
:1096A00082FB03235B10013B6372002323720023C0
:1096B000E37504F10C0395E8030083E80300AB694C
:1096C00023622B89A382AB7AA3752B6AA362DF2363
:1096D000E362284610F0F6FA20B12B78012B0AD06D
:1096E000FF23E36238BD0123CDE7054B987DD0E72A
:1096F0000423A370DBE72023F3E700BFABAAAA2A69
:109700006C370020062979D1F0B585B0154690F860
:1097100000C04FEA8C1202F4FE5241788478C3787C
:109720001B0443EA0463047943EA042344791C4399
:109730004FFA8CF642EA91012846FFF733F90746C3
:10974000E0B1002E2FDBC289A98A8A422BD02C4B94
:109750001B6813F0040F30D02A4B1B68012B2CDD43
:10976000294BD3F8043502910192284A009240F225
:109770007D622749022004F037FF1EE0204B1B6862
:1097800013F0040F19D01F4B1B68012B15DD1E4B66
:10979000D3F804351F4A009240F279621C49022036
:1097A00004F022FF09E0002E09DBFD6C2543FD6477
:1097B0004CB903213846FFF72DFE05B0F0BDAB8A4A
:1097C000A7F85830F1E73B7883B17B7A5A1C012324
:1097D0009340013B9D420DD0002187F85010384640
:1097E000FFF70AFB3846FFF75DFBE6E77846FEF732
:1097F00087FFEAE73846FFF7F2FDDEE7704700BF74
:10980000503000204C30002000100140DC7C04006F
:109810002B7C0400AC7C04002DE9F0438BB00746A0
:109820000E4614461D461046FFF7EEFB50B994F85D
:109830000380B8F1000F08D12B4622463146384646
:10984000FFF760FF0BB0BDE8F0834046FFF740F93B
:1098500081460028F6D08DF80480236A0793A38AF6
:10986000ADF8123005AB04F10C0292E8030083E876
:109870000300A37D8DF820300297039623788DF89E
:109880001030E36A0993294601A8C847DAE792F83D
:1098900001C01CF0010F08D010B5D47D14B1FFF742
:1098A000BBFF10BDFFF724FDFBE7704708B501398A
:1098B0000130FFF7ECFF08BD10B54FF4E072002156
:1098C00013481DF041F906F0ABF90024114B1C6060
:1098D0008022214610481DF037F9104B104A1A60BB
:1098E000104A5A604CF250329A600F49D9601A619E
:1098F00004221A759C7508225A750C4803F07EFCE8
:109900000B4B18600B4B1C600B4806F087FC10BD1E
:109910008437002058370020D83600206C370020CC
:1099200080969800F049020020A10700719B020078
:10993000683700205C370020758B020008B506F000
:109940008FF908BD98B110B58CB00446036983B196
:10995000C36983B1836983B101466846FFF77AFE24
:10996000A28A21696846FFF75FFE0CB010BD0E2089
:1099700070470E20F9E70E20F7E70E20F5E700000C
:1099800058B310B590B00A46044643683BB38369A8
:109990003BB3014604A8FFF764F8134B1B6813F0B0
:1099A000040F03D0114B1B68062B06DCA26861680C
:1099B00004A8FFF739FE10B010BD0D4BD3F80435E5
:1099C0002278A169029101920A4A009240F60502AA
:1099D0000949072004F008FEE8E70E2070470E2032
:1099E000E9E70E20E7E700BF503000204C300020B0
:1099F00000100140207D04002B7C0400037B012B20
:109A000001D00020704730B591B004460D463F4B61
:109A10001B6813F0040F03D03D4B1B68032B5ADC6B
:109A200004A8002304930593CDF81730B4F806E09A
:109A30009DF8101001F080018DF81010CEF3861CF7
:109A40004CEA01018DF810109DF8112002F003027C
:109A50008DF8112042EA8E028DF811202A0E8DF821
:109A600012202A0C8DF813202A0A8DF814208DF864
:109A700015506278022A0CBF012119469DF810206A
:109A800002F07F028DF8102042EAC1128DF81020FA
:109A90004FF0060209924FF001028DF82C20A28AA5
:109AA000ADF82E200C938DF81C300890226A0D9290
:109AB0008DF82830E36A0F9319D0E389ADF82A3086
:109AC000A37DF3B98DF838306FF0010107A8FFF7D7
:109AD00057FF11B030BD0F4BD3F804350E4A00923A
:109AE00040F263220D49042004F07EFD98E70DF159
:109AF0000E0103A810F0D4F8BDF80C30ADF82A30F0
:109B0000DEE7074B5B7D8DF83830DDE75030002015
:109B10004C300020001001404C7D04002B7C0400E0
:109B20006C37002090F84830022B00D0704710B5F9
:109B3000044690F86830022B00D010BDC16CFFF7CE
:109B40005DFF0028F9D1002384F86830F5E70000B4
:109B500010B5002407E0C4EBC40213010348184405
:109B6000FFF7E0FF0134032CF5D910BD8437002046
:109B700008B5FFF7B7F9FFF7EBFF012008BD10B5F7
:109B80000C4691F84830022B06D1022384F8683045
:109B90002046FFF7C7FF10BD7846FEF7B1FDF4E79A
:109BA000F0B583B00446C069A369E188060A0006DF
:109BB000C3F30C0291422FD98A1A1A44A2F500521B
:109BC000851846F100062A463346A08AFEF738FE7D
:109BD000002840F089802046FEF71EFF074630B37C
:109BE000C269D0F818C0C388100A1206CCF30C0161
:109BF000994214D2591A6144A1F50051521840F10A
:109C00000003AA4273EB06010DD3954276EB0303E2
:109C100030D3384603B0F0BD891ACA18D0E75B1AB2
:109C200003EB0C01EAE705213846FFF7F3FBE38875
:109C3000E269A169A08A06F0F9F8E8B9627A01320E
:109C4000E37DA3B3082101FB02F293B34FF48073C9
:109C5000934231D302212046FFF7F4F9074600284A
:109C6000D7D100212046FFF7C9FE02210020FEF7D0
:109C70006DFFCEE70027CCE7E388E269A169A08AFF
:109C800006F04CF908B90027C3E723785BB1637A83
:109C900001330121994001392046FFF7AFFE2046EC
:109CA000FFF7B2F9EFE77846FEF72AFDEFE70C2160
:109CB000C9E74FF4C073CBE70C4B1B6813F0040FDC
:109CC00003D00B4B1B68002B01DC0027A1E7094BDD
:109CD000D3F804350192084A009240F27F320749D6
:109CE000012004F081FCF0E7002792E750300020CB
:109CF0004C300020001001405C7D04002B7C0400EF
:109D00002DE9F04182B007460E46144698461046AB
:109D1000FFF746FF002846D00546404B1B6813F06E
:109D2000040F03D03E4B1B68032B3FDC2846FFF794
:109D300001F92B7B012B47D0EB6C217A01228A4061
:109D4000134230D11343EB64043E237AE27D002AB0
:109D500042D04FF0080C0CFB03FC697A8B423ED0DA
:109D6000002A41D00823B34240D1AA69A3699A428C
:109D700009D205F10C0E0C340FCCAEE80F0094E8BC
:109D800003008EE80300E86E3246391D60441CF083
:109D9000B2FEEC6C2B7873B36B7A5A1C01239340A0
:109DA000013B9C422BD002B0BDE8F0811D4BD3F8A3
:109DB0000435227A01921C4A009240F2A3321B49D8
:109DC000042004F011FCB1E795F86830002BB3D102
:109DD0002846FFF7C5F8AFE74FF00C0CBBE70CEBDC
:109DE0000603A5F84A30C0E70C23BCE70421284647
:109DF000FFF710FBD7E77846FEF782FCCCE7E96C6B
:109E00002846FFF7FBFD43462A46B5F84A10E86EA0
:109E1000FFF73DFD2846FFF7C7FAC4E750300020A2
:109E20004C30002000100140707D04002B7C0400A9
:109E30002DE9F04190B000284CD00F4614461E4644
:109E40008046002A48D004AB00933346FEF7AAFEB2
:109E5000054618B1284610B0BDE8F08104A8FFF708
:109E60009DF805460028F5D100230293039302A92B
:109E700060880FF0F9FE28B19DF8113043F001031E
:109E80008DF811302269E168208905F087FF38B12B
:109E90009DF8113003F0FE038DF81130002BD9D05E
:109EA0009DF81130002BD5D013F0010F01D0039B8A
:109EB00008939DF8103033B1334604AA3946404622
:109EC000FFF71EFFC6E7334604AA39464046FFF7B0
:109ED000EDFCBFE70E25BDE70E25BBE7F8B508B3DF
:109EE0000E460546164B1F68F7B93C46B4420FD2E2
:109EF00005EBC4035B68D3B115F8340015F93430B1
:109F0000002B16DBB8B1FEF7E3FDB0B90134EDE785
:109F10000C4B43F8375003EBC7035E607B1C084AC9
:109F2000136002E00E2700E004273846F8BD0E2734
:109F3000FBE70B27F9E70F27F7E70F27F5E700BF48
:109F40005C37002060370020084B196861B110B5FC
:109F500001E021463CB10C680B79002BF9D0034895
:109F600004F0ACFAF5E710BD704700BF4839002097
:109F700038B5054630B1104B1C68C4B10F4B0122F7
:109F80001A7004E07846FEF7BBFBF4E724683CB1A6
:109F90002379002BFAD154F8043C28469847F5E77A
:109FA000064B1B78022B03D0044B00221A7038BDDD
:109FB000FFF7CAFFF8E700BF483900204439002006
:109FC00010B5044630B100232372211D034804F06C
:109FD0004AFA10BD7846FEF793FBF4E748390020B3
:109FE00010B5044658B10A4B1B78013BDBB2012B7C
:109FF00009D8074B02221A700123237210BD78463C
:10A00000FEF77EFBEFE7211D024804F057FAF5E763
:10A0100044390020483900200A8883689B5A073356
:10A020009BB223F0030313449BB20288043A934289
:10A0300000D900230B80704710B582B004468368B6
:10A04000C91AADF806100DF10601FFF7E5FFBDF8DE
:10A050000630A068184402B010BD0088043880B2F1
:10A06000704743888268D018D152012383707047AB
:10A0700082680023937043808380704708B507315E
:10A0800089B221F0030189B2428883889A4204D2BE
:10A090009B1A994220DC002008BD9A4212D9B0F8E0
:10A0A00000C0ACEB020C614518D98B4218D3BCF14F
:10A0B000030F03D98368134404229A70002343805A
:10A0C0001846E9E7826813449B780BB10420E3E764
:10A0D000FFF7CEFF0020DFE70420DDE70020DBE70D
:10A0E0000420D9E738B504460D46836882881344B6
:10A0F0008B4202D07846FEF703FB0023AB70211D94
:10A100002046FFF789FFA288A36813449B78042B9D
:10A1100000D038BD0023A380FBE710B50C46836850
:10A12000428813448B4202D07846FEF7E9FA0023B6
:10A13000A37010BD70B5054614460E46002944D0E4
:10A14000002D46D0B6F1005F08D94FF08053D3F808
:10A150000C3103F50023B6EB832F0ED3B6F5000FB9
:10A1600008D94FF08053D3F80C3103F50053B6EB08
:10A17000832F02D37846FEF7C3FA631E3344B3F14C
:10A18000005F08D94FF08052D2F80C2102F500226E
:10A19000B3EB822F0ED3B3F5000F08D94FF08052E6
:10A1A000D2F80C2102F50052B3EB822F02D378468D
:10A1B000FEF7A6FA042C10D92C8000236B80AB800C
:10A1C000AE60043C3480B37070BD7846FEF798FAF8
:10A1D000B6E77846FEF794FAB4E77846FEF790FAC9
:10A1E000EAE738B50446A0B16288A36813449B78B7
:10A1F000012B12D0EFF3108572B6A388A168194421
:10A200008B78032B0DD02046FFF732FF05B962B6DD
:10A2100038BD7846FEF774FAE6E77846FEF770FA3E
:10A22000E8E72046FFF708FFA368C31A638000230E
:10A230008370EBE72DE9F0410E4614460546D0B198
:10A24000EEB16A88AB6813449B78012B1BD024B312
:10A250002846FFF702FFA04221D3EFF3108872B621
:10A2600021462846FFF70AFF074680B1B8F1000FE4
:10A2700016D162B614E07846FEF742FAE0E7784677
:10A28000FEF73EFADDE77846FEF73AFADFE72146C9
:10A290002846FFF7E6FE3060E8E7092700E00927D7
:10A2A0003846BDE8F081F8B50C4615460646E0B1E3
:10A2B000FCB1A378012B20D12388AB4221D325B355
:10A2C000EFF3108772B625800223A370F118304691
:10A2D000FFF7A2FE7388B288934203D0B26813449A
:10A2E00000229A7007B962B6F8BD7846FEF708FA00
:10A2F000DEE77846FEF704FADBE77846FEF700FA79
:10A30000DAE77846FEF7FCF9D9E77846FEF7F8F980
:10A31000D6E770B50C46054690B1ACB1EFF31086A8
:10A3200072B6AA88AB6813449A78042A10D09A7837
:10A33000022A15D0032A18D0052006B962B670BDCE
:10A340007846FEF7DDF9E8E77846FEF7D9F9E5E764
:10A35000291D2846FFF760FEAA88AB681344E6E78C
:10A3600003229A7023600020E7E77846FEF7C8F9D9
:10A370000020E2E738B5044680B1EFF3108572B6ED
:10A38000A088A16801448B78042B0BD08878022820
:10A3900014BF0020012005B962B638BD7846FEF72B
:10A3A000AFF9EAE72046FFF747FE0146EEE738B58A
:10A3B000054630B1EFF3108472B6A888A96801444D
:10A3C00007E07846FEF79CF9F4E72846FFF734FEED
:10A3D00001468878C31EDBB2012BF6D9022814BFD0
:10A3E0000020012004B962B638BD70B50C4606469F
:10A3F00078B194B1EFF3108572B6A378012B10D029
:10A40000032B13D121463046FFF76CFE05B962B627
:10A4100070BD7846FEF774F9EBE77846FEF770F901
:10A42000E8E721463046FFF778FEEFE77846FEF78B
:10A4300067F9EBE710B5EFF3108472B68388816893
:10A4400019448B78042B06D08878B0FA80F0400944
:10A4500004B962B610BDFFF7EFFD0146F4E7000056
:10A46000024B00221A769A60022070474C39002075
:10A4700008B5064B986800221A605A609A60DA6044
:10A480001A615A619A6105F077F808BD4C390020CD
:10A4900000B585B00A4BDB6802228DF800200193DD
:10A4A0004FF480530293074A6946012001F0F8FAFD
:10A4B00018B9012005B05DF804FB0020FAE700BFE1
:10A4C0004C3900206A39002000B585B00A4B1B6862
:10A4D00002228DF8002001934FF480530293074A23
:10A4E0006946012001F0DCFA18B9012005B05DF8D9
:10A4F00004FB0020FAE700BF6C3900206A39002015
:10A50000164BDA68137951795B1A03F57F2303F64A
:10A51000FF7302EB03339A4205D002F580520F4BD2
:10A52000DA600320704700B585B00D4B1B68012031
:10A530008DF8000001930B4B0393042302930A4A06
:10A54000694601F0ADFA18B1002005B05DF804FBD2
:10A55000024B01221A760220F7E700BF4C39002097
:10A560006C390020703900206A39002000B585B0B0
:10A570000C4BDA680C4B1B68043301208DF800008B
:10A580000192039340F6FC730293084A694601F076
:10A5900087FA28B90120034B187605B05DF804FB53
:10A5A0000020FAE74C3900206C3900206A3900207D
:10A5B00000B585B00A4B1B6801208DF8000001939F
:10A5C000084B039304230293074A694601F068FA93
:10A5D00018B9012005B05DF804FB0020FAE700BFC0
:10A5E0006C390020583900206A39002010B584B039
:10A5F000104BDA681478104B1B68043301208DF877
:10A6000000000193039202940C4A694601F048FA53
:10A6100070B9094B1B6804F0FC041C440434054B5E
:10A620005C61D9680A780A441A61012004B010BD3F
:10A630000020FBE74C3900206C3900206A390020EB
:10A6400008B500230A2B09D8064A52F82320824273
:10A6500001D00133F6E7044A536002E07846FEF782
:10A660004FF808BDFC7D04004C39002010B5214B8B
:10A67000DB6853B11F4B1B7E5BB91E4B5B680A2B1B
:10A6800026D97846FEF73CF822E07846FEF738F8FF
:10A69000F0E77846FEF734F8EFE7164A53680133DF
:10A6A00053600A2B21D97846FEF72AF81DE0114B9A
:10A6B00000225A6019E00F4B1B7E1BB10D4B02228A
:10A6C0001A7012E0FFF7D4FE0FE00A4B1B7E83B92D
:10A6D000084B5A68084B53F8223098470446022822
:10A6E000E9D00328E3D00128D7D0012CEDD0032CEA
:10A6F000EBD010BD4C390020FC7D0400104B1B68D2
:10A700001B685A1E12F1030F18D8C3F30B020AB1CB
:10A710000020704710B50B4AD360002313765376A0
:10A720000124147093600848FFF78AFF0749204608
:10A7300001F0A4F9FFF79AFF204610BD00207047F2
:10A740006C3900204C39002091A4020051A702006E
:10A7500008B50B78032B06D00B4B1B78012B06D0CA
:10A76000022B0BD008BD084B00221A76F4E7064BEB
:10A770001B7E002BF6D1FFF779FFF3E70B78032B55
:10A78000F0D1FFF775FEEDE74C39002000B585B03C
:10A79000174BDB6818784FF6FF7203F580511844A9
:10A7A00005F0F2FCE0B10246114BD9680B780B447E
:10A7B000984217D00E4B5B7E83B10E4B01208DF873
:10A7C000000001920393042302930B4A694601F0AF
:10A7D00067F948B90120064B187606E0074BEDE70C
:10A7E000012002E0012000E0002005B05DF804FB3C
:10A7F0004C390020208004006A3900201C800400AD
:10A8000008B5104BDB681878002203F58051184416
:10A8100005F0BAFC08B1012008BD0A4BDA681379CB
:10A8200051795B1A03F57F2303F6FF7302EB0333C1
:10A830009A4205D002F58052024BDA600320EBE722
:10A840000220E9E74C390020F0B585B0514BDE68B5
:10A8500072793379591E8A4214D006F580510D78E9
:10A860000D444D490968081D0F7907449B1A06EBF2
:10A8700003366B88013B9BB247F6FE62934260D978
:10A880002C461AE00120434B58767EE07846FDF7CF
:10A8900037FF15E024F47F6424F00F0404F580549E
:10A8A00023781C44A6421CD9A5421CD26388013BD4
:10A8B0009BB247F6FE62934211D92388002BE5D064
:10A8C000238804EB830323F47F6222F00F02934278
:10A8D000E0D06288B2F5FE4FDCD01C46E2E72546A8
:10A8E0002FE000252DE000252BE07846FDF708FF3E
:10A8F00015E024F47F6424F00F0404F580542378D9
:10A900001C44A6421CD9A54237D26388013B9BB2A6
:10A9100047F6FE62934211D92388002BE5D02388A5
:10A9200004EB830323F47F6222F00F029342E0D012
:10A930006288B2F5FE4FDCD01C46E2E7254600E017
:10A940000025E5B1144B19686A8801F58051384635
:10A9500005F01AFC074690B101200E4B18768DF8D1
:10A96000000001950D4B0393042302930C4A6946A2
:10A9700001F096F858B92C46CEE70025E1E7B5FA84
:10A9800085F56D09034B5D76012005B0F0BD002013
:10A99000FBE700BF4C3900206C3900201880040010
:10A9A0006A3900202DE9F04186B0654B1B6923B15F
:10A9B000634B5B692BB1002748E07846FDF7A0FEAA
:10A9C000F6E77846FDF79CFEF5E7A04618E07846E6
:10A9D000FDF796FE18E028F47F6828F00F0808F5C8
:10A9E000805898F800309844454520D944454AD2CB
:10A9F000B8F80230013B9BB247F6FE62934214D98D
:10AA0000B8F80030002BE2D0B8F8003008EB830330
:10AA100023F47F6222F00F029342DCD0B8F80220C8
:10AA2000B2F5FE4FD7D09846DEE7444600E000245A
:10AA30003CBB00230093019B002B5CD10127002C21
:10AA400078D0628847F6FF739A4273D0002F75D191
:10AA50003B4B5A6922F47F6626F00F06B61A06F5BC
:10AA600080561C69DD682B796A799B1A05EB0335E2
:10AA7000002301936388013B9BB247F6FE62934239
:10AA8000A3D800940EE00024D2E77846FDF738FE04
:10AA900023E024F47F6424F00F0404F58054237829
:10AAA00023441C46A542C6D92388019A02EB83029F
:10AAB0009642C0D9009B634023F47F6323F00F03C9
:10AAC000002BB8D16388013B9BB247F6FE618B42F5
:10AAD000B1D801922388002BD7D0238804EB8303BD
:10AAE00023F47F6222F00F029342D2D06288B2F543
:10AAF000FE4FD6D1CDE7124A526901208DF80800E9
:10AB00000392009A059204930E4A02A900F0C8FF2E
:10AB100070B90B49019B23F003024B6913444B614D
:10AB200014B1074B1C618AE77846FDF7E9FDF8E7A9
:10AB3000002000E0012006B0BDE8F0810120FAE726
:10AB40004C3900206A39002000B585B00023294A1D
:10AB50001370D3F8F83FB3F1FF3F09D0B3F1FF3FD3
:10AB60000DD08BB1B3F1FF3F39D0A3F5805211E086
:10AB70004FF010225269B2F1FF3FEFD104E04FF0E5
:10AB800010225269002AEDD14FF080535A691B6997
:10AB900003FB02F2A2F58052174B1A60174B1B6899
:10ABA00013F4801F16D0164B1B68062B12DD154BB5
:10ABB000D3F804350021D1F8F81FB1F1FF3F14D0CC
:10ABC00002920191104A009240F276220F4907202A
:10ABD00003F00AFDFFF792FD05B05DF804FB4FF0AE
:10ABE00010235A69A2F58052D4E74FF01021496929
:10ABF000E6E700BF683900206C39002050300020A3
:10AC00004C30002000100140C87D0400AF7D0400DE
:10AC100010B50446B0B1104B1B78BBB10E4BD968D0
:10AC2000E3685879A3EB0032914211D31A79121AD2
:10AC300002F57F2202F6FF7203EB0233994209D834
:10AC4000012004E07846FDF75BFDE4E7002010BD3D
:10AC50000020FCE70020FAE74C390020024B18786E
:10AC6000003818BF012070474C39002010B5044649
:10AC7000124B1B78BBB92378032B18D10F4B9C6068
:10AC8000E268DA600E4B1B78ABB10A220B4B5A60BC
:10AC900000221A76012018705A760A4900F0EEFE5A
:10ACA000FFF7E4FC10BD7846FDF72AFDE3E77846A0
:10ACB000FDF726FDE2E70022E8E700BF4C3900205F
:10ACC0006839002051A70200014B1868704700BF87
:10ACD0006C39002010B5044680B163681BB123684D
:10ACE0000BB1A36813B97846FDF70AFDA3685A1E95
:10ACF000134207D10023E360236110BD7846FDF7BE
:10AD0000FFFCEAE77846FDF7FBFCF3E770B508B314
:10AD10000E4604468368FBB1EFF3108572B60369F3
:10AD2000C268934212D001684268806800F1FF3C1B
:10AD300003EA0C0303FB021116B130461BF0DBFEE5
:10AD40002369013323614DB962B608E005B962B6E3
:10AD5000052504E00E2502E0092500E0002528462F
:10AD600070BD00000246C0F30B0030BB39B301F6E2
:10AD7000FF714FEA113C134B0221C3F80415114B2C
:10AD8000D3F80034002BFAD001460AE00D4BC3F88B
:10AD900008250C4BD3F80034002BFAD002F5805272
:10ADA00001316145F2D3074B0022C3F80425054B5E
:10ADB000D3F80034002BFAD07047102070470920D8
:10ADC000704700BF00E00140844610F0030F2DD112
:10ADD00011F0030F2CD16AB312F0030F2CD190089D
:10ADE000164B0122C3F80425144BD3F80034002B72
:10ADF000FAD003E00CF1040C04311046421E58B1A5
:10AE00000B68B3F1FF3FF5D0CCF800300B4BD3F813
:10AE10000034002BFAD0EDE7084B0022C3F80425DC
:10AE2000064BD3F80034002BFAD07047102070473F
:10AE300010207047092070470920704700E001404A
:10AE4000094B1B7813F0040F02D00378122B00D0AB
:10AE50007047064B1A68064B5A60034B1A786FF31B
:10AE600082021A70F4E700BF183A0020083A002066
:10AE7000A439002010B582B001900C46BDF8063010
:10AE8000012B11D123680A490B600A4B1A7842F052
:10AE900001021A70D3B25B0883F0010303F00103CF
:10AEA0000B71002002B010BD7846FDF729FCE9E7E0
:10AEB000083A0020183A002010B582B001900C46E4
:10AEC000BDF80630022B0FD12268094B1A60227997
:10AED0001A71002058719871D871064A137843F09E
:10AEE0000203137002B010BD7846FDF709FCEBE7D2
:10AEF000003A0020183A002010B582B001900C46AC
:10AF0000BDF80630032B06D1054B186820601B796D
:10AF1000237102B010BD7846FDF7F2FBF4E700BFE5
:10AF2000083A002010B582B001900C46BDF80630FA
:10AF3000032B0CD1084B2068186022791A71074A3C
:10AF4000137843F001031370002002B010BD78465F
:10AF5000FDF7D6FBEEE700BF083A0020183A0020C4
:10AF600010B582B001900C46BDF80630042B05D117
:10AF7000044B03CB2060616002B010BD7846FDF742
:10AF8000BFFBF5E7003A002010B582B001900C46F7
:10AF9000BDF80630042B0BD1074B2068616803C352
:10AFA000064A137843F002031370002002B010BD6C
:10AFB0007846FDF7A5FBEFE7003A0020183A00209D
:10AFC00000B583B00190BDF80630032B06D1054BC8
:10AFD00000221A601A7103B05DF804FB7846FDF791
:10AFE0008FFBF4E7083A002000B583B00190BDF86C
:10AFF0000630042B06D1054B00221A605A6003B0BC
:10B000005DF804FB7846FDF77BFBF4E7003A00208F
:10B0100000B585B01A4B1B7813F0400F13D0184BB6
:10B020001B7813F0040F0BD1002301938DF8083027
:10B03000144B5B6803F500530193B3F1807F06D98D
:10B0400005B05DF804FB7846FDF75AFBE7E70E4BC9
:10B050001B788DF808300A4A137843F00403137004
:10B060000023ADF80C300323ADF80E3001A903988E
:10B0700006F06CFA0028E3D07846FDF741FBDFE7E5
:10B08000183A0020A4390020193A002000B585B0F4
:10B090000022019202920F4B996801911B7B8DF85F
:10B0A00008300D490B780133DBB20B708DF80B3093
:10B0B000ADF80C200423ADF80E300DEB030103981E
:10B0C00006F044FA10B905B05DF804FB7846FDF7C8
:10B0D00017FBF8E7A4390020193A002000B585B025
:10B0E0000023019302930F4A91680191117B8DF81F
:10B0F0000810128AADF809200B4A12788DF80B203F
:10B10000ADF80C300423ADF80E300DEB03010398BD
:10B1100006F01CFA10B905B05DF804FB7846FDF79F
:10B12000EFFAF8E7A4390020193A002000B58DB0F5
:10B130000B4B1B7B012B0ED0094A926804928DF8B1
:10B140000830039002238DF8043001A8FEF710FFA9
:10B150000DB05DF804FB024A9268013A0492EEE7F2
:10B16000A439002008B51D481D4B036000F036FFD0
:10B170001C4B1B7813F0200F2AD103F00303032B81
:10B1800014D1194B1968194A916019791173B3F8E0
:10B1900005001082DB79164A1370164A1279934221
:10B1A00017D0B1B9114B00221A6007E00F4B0022F3
:10B1B0001A609A601A731A82FFF768FF0B4B1A68BD
:10B1C0005A60084A137843F040031370FFF720FFDA
:10B1D00008BD084B1A68054B1A60EFE7F4390020E8
:10B1E00041AE0200183A0020003A0020A4390020A5
:10B1F000193A0020083A002010B582B00024ADF8BA
:10B2000000400123ADF80230009806F0D0F9ADF807
:10B2100004400223ADF80630019806F0C8F902B0E8
:10B2200010BD000008B5002006F0E8F9094A002327
:10B23000136053609360D3601361074A117863F31E
:10B2400045111170CBB243F040031370FFF7E0FEDD
:10B2500008BD00BFA4390020183A002038B50C4DB5
:10B2600000242C606C60AC60EC602C6101F0BAF9D9
:10B27000084B5860084A9A60084ADA601C615C61B1
:10B28000074B1A7864F3C3021A706C6038BD00BFB4
:10B29000A439002080390020FDB302000087930309
:10B2A000183A002008B50C4B1B7813F0100F00D093
:10B2B00008BD0A480A4B036000F090FEFFF752FFFA
:10B2C000FFF79AFF074801F011F9034A137843F09A
:10B2D00010031370ECE700BF183A002098390020E3
:10B2E00055B5020080390020034B1878800880F0A3
:10B2F000010000F001007047183A002010B501F07D
:10B30000FFFE174B1B7B1BBB154B9B7B2BBB144BB7
:10B310001A8A41F282639A4206D8124B1B7813F0C4
:10B32000080F05D0012300E001231BB9082410E019
:10B330000023FAE70A4B01221A7300241C829A6840
:10B3400001329A60FFF7A2FE2046FFF7EFFE00E011
:10B35000082401F01BFF204610BD0824F9E700BFB8
:10B36000A4390020183A002010B501F0C9FE214B85
:10B370005B7BABB11F4B9B7B03BB1E4B1A8A41F21D
:10B3800082639A4206D81C4B1B7813F0080F05D035
:10B39000012300E001239BB1012302E00023FAE72F
:10B3A00000231C460BB3134B00225A731B7B4BB17B
:10B3B000012B0ED07846FDF7A3F916E00023F0E745
:10B3C0000023EEE7FFF79AFF78B17846FDF798F98A
:10B3D0000BE0084B00201860586018731882FFF7C4
:10B3E000A5FEFFF753FEFFF713FE01F0CFFE204648
:10B3F00010BD00BFA4390020183A002008B52C4B1E
:10B400001B7BDBB1012B2ED07846FDF779F9284A5A
:10B41000138A01339BB21382264AA2FB031212093C
:10B42000C2EB0212A3EB42039BB2002B3DD0204B98
:10B430005B8A13B1013B1E4A538208BD1C4B1A8A1A
:10B4400041F282639A4206D81B4B1B7813F0080F17
:10B4500007D0012300E00123002BD8D0FFF784FFA1
:10B46000E5E70023F8E7124B1B8A41F28262934220
:10B4700006D8114A127812F0080F14D0012200E009
:10B480000122002AC3D042F2B012934202D9084BE3
:10B4900001225A73FFF768FF0028C8D1044B5B7B79
:10B4A000012BB4D1C3E70022EBE7FFF717FEBEE79D
:10B4B000A439002089888888183A002010B5244BC8
:10B4C0001B7B002B35D10446214B5B8A2BBB1AB961
:10B4D0001F4B9B688B4205D3FAB11D4B9B68013310
:10B4E0008B421AD21A4B9B682A338B4223D3184BB8
:10B4F0009B7B03BB164B996000221A605A601A822C
:10B5000042F6065159825A731A73FFF7BFFDFFF7CF
:10B510007FFD2046FFF70AFE0DE062B10C4B9B68F1
:10B5200001338B4207D10A4B01225A73FFF71CFFEC
:10B5300001E0012B00D010BD002AFCD1044B9B6818
:10B540008B42F8D1024B01225A73FFF70DFFF2E74D
:10B55000A43900200378042B00D0704743681B787F
:10B56000002BFAD010B58468027E437E012A14BFF6
:10B5700000220122416904F11000FFF79FFF10BD76
:10B5800008B538B10D4B01229A730D4A1368013387
:10B59000136008BD0A4B1B685BB1094A1368013B85
:10B5A0001360002BF5D1054B00229A73FFF7DCFEE8
:10B5B000EFE77846FDF7A4F8EFE700BFA4390020D5
:10B5C0007439002000B58DB0ADF808008DF810205A
:10B5D000039103238DF8043001A8FEF7C9FC0DB0D8
:10B5E0005DF804FB014B9868704700BFA439002048
:10B5F000054B1B7B012B02D0034B98687047024B15
:10B6000098680138704700BFA43900201D4B1B7893
:10B6100013F0400F34D070B504460D461A4B1A682B
:10B620005B689A4228D2184B1B7B012B17D0174B13
:10B630009A4216D2144B1A685B68403B9A4218D261
:10B64000EFF3108672B6104A1368591C11602B6014
:10B65000FFF7CEFF206006B962B6002070BD0C4B2C
:10B66000E6E7094B01225A73FFF77EFE0028E7D177
:10B67000E0E7FFF7CDFCE3E7FFF7CAFC0F20EDE7BB
:10B680000F207047183A0020A4390020FFFF7F00E8
:10B6900000E0FF00044B9B68584010F0010F00D001
:10B6A000013B1846704700BFA4390020014B187BAE
:10B6B000704700BFA4390020F8B5104B1B7813F079
:10B6C000200F01D00820F8BD17460C4E43F0200390
:10B6D00033700B4DA860297300242C82FFF7D6FC31
:10B6E0002046FFF723FD2F606F60337843F040035F
:10B6F0003370FFF78DFC2046E5E700BF183A0020C5
:10B70000A439002008B50022FFF7D6FF08BD0000CD
:10B710002DE9F041002625E0134604FB03F3244AFB
:10B72000D25A3046C0472249BC2304FB03F3CA5A0D
:10B730000132CA520221284602F008FD01370221D7
:10B74000284602F0D3FC014649B1194BBC2202FB4A
:10B750000433D3F80880B8F1000FDDD1E3E797B9DF
:10B760000136F6B2022E1FD83446BC2306FB03F383
:10B7700008330F4D1D4404350221284602F0B6FC63
:10B7800001460027E0E7284602F048FD0828E7D1F7
:10B79000074BBC2202FB0434A368002BE0D000223C
:10B7A000044930469847DBE70120BDE8F08100BF3F
:10B7B000243A0020387E040008B508238373102340
:10B7C000437300F11C0343610323037300F1180367
:10B7D00003610C3002F0F4FC08BD000008B50378EA
:10B7E000012B06D0022B07D07846FCF789FF0020FA
:10B7F00003E04FF4A97000E0004808BD645E01005A
:10B8000008B50378012B07D0022B13D07846FCF73C
:10B8100077FF4FF4FA7308E083685B1A9B084FF4D4
:10B82000A97000FB03F303F5FA730748984228BF99
:10B83000184608BD83685B1A1B0B044800FB03F322
:10B8400003F5FA73F1E700BF60850100645E010053
:10B8500038B5044601210C3002F048FC054678B1A9
:10B86000084BC4F89C300023C4F8A0306168FFF78F
:10B87000C7FFC4F8A800C4F8AC40012384F8B8306E
:10B88000284638BDA5B9020010B50446FFF7E0FF11
:10B8900020B104F19C000EF0D5FF00B910BD784630
:10B8A000FCF72EFFFAE70000F8B505460C461646F1
:10B8B00017680378012B19D11249A1FB0431C9097A
:10B8C0008B00AC68E41BB4EB810F00D31C468CB139
:10B8D000686827F00307E968224639443844FFF7CF
:10B8E00073FA58B9336823443360F8BD7846FCF7DF
:10B8F00007FFE1E77846FCF703FFE9E77846FCF746
:10B90000FFFEEFE7EB5DF260F8B506460C46154624
:10B9100017680378022B17D1114BA3FB04231B0CD0
:10B920001A03B468E41BB4EB033F00D314467CB1A4
:10B93000706827F0030721463844FFF713FA58B917
:10B940002B6823442B60F8BD7846FCF7D9FEE3E76B
:10B950007846FCF7D5FEEBE77846FCF7D1FEEFE73B
:10B96000B77609BB38B505460C4611462378012B3E
:10B9700006D0022B0FD07846FCF7C2FE002004E070
:10B98000021D2046FFF790FFA0686B68834214BF3A
:10B990000020012038BD021D2046FFF7B5FFA0683A
:10B9A000F3E700002DE9F8430F46D1F8A850254BE6
:10B9B0001B786BB90446A5F5FA7501F10C08012155
:10B9C000404602F093FB064648B14FF0000922E0E2
:10B9D0000EF074FF002387F8B830BDE8F88378468E
:10B9E000FCF78EFEF1E70EF069FF0121404602F000
:10B9F000ADFB00237B6087F8B830134B186801F06B
:10BA00001DFC3846FFF740FFE7E73046FFF7E6FE4C
:10BA10004844A8420FD8A5EB090231463846FFF743
:10BA2000A1FF0028DFD101F033FAB0EB0409ECD517
:10BA3000A4EB0009E9E70EF041FF3846FFF724FFC9
:10BA4000CBE700BF203A00201C3A002010B5084880
:10BA500001F0D4FB074B1860002406E0064BBC2025
:10BA600000FB0430FFF7A8FE0134022CF6D910BD0C
:10BA700011B702001C3A0020243A002038B50446D1
:10BA80000D46022805D80548BC2303FB0404A56025
:10BA900038BD7846FCF734FEF5E700BF243A0020B5
:10BAA0002DE9F84305460C461746022816D8CCB1B6
:10BAB0002378012B1AD0022B3ED16368C3F30B030A
:10BAC000002B31D1A368C3F30B03002B30D1A36843
:10BAD000002B34D17846FCF713FE30E07846FCF7B3
